{
	"data": {
		"bytecode": {
			"linkReferences": {},
			"object": "60a0604052600060809081526200001b906006906001620029ce565b503480156200002957600080fd5b50604080516101408101825260076101008201818152663236b4ba3937bb60c91b610120840152825282518084018452600c81526b0446d6974726f762053686f760a41b60208083019190915280840191909152600080516020620084fc83398151915283850152600080516020620084bc833981519152606080850191909152600360808501528451808601909552918452662236b4ba3937bb60c91b8482015260a083019390935260c08201819052600160e08301527345c16acb0b0a616994c5dbac60c05e4453029093600090815283528151805191937f64005f3fb0bfa42221729316b7732e1ce5121e861365b82b0042f12629fd779f9262000134928492019062002a81565b5060208281015180516200014f926001850192019062002a81565b506040820151600282015560608201516003820155608082015160048201805460ff191660018360058111156200018a576200018a62002bc2565b021790555060a08201518051620001ac91600584019160209091019062002a81565b5060c08201518051620001ca91600684019160209091019062002afe565b5060e091909101516007918201805460ff191691151591909117905560408051663236b4ba3937bb60c91b8082526001828501819052835192839003602701832080547345c16acb0b0a616994c5dbac60c05e44530290936001600160a01b031990911617905560028054918201815560005282840190935283825260209091019081526200026d926000805160206200849c8339815191529092019162002a81565b506040805160a081018252600760608201908152662236b4ba3937bb60c91b608083015281527345c16acb0b0a616994c5dbac60c05e445302909360208201526001818301529051600390620002d090662236b4ba3937bb60c91b815260070190565b90815260200160405180910390206000820151816000019080519060200190620002fc92919062002a81565b50602082810151600192830180546040958601511515600160a01b026001600160a81b03199091166001600160a01b039093169290921791909117905560048054928301815560005282518084019093526007808452662236b4ba3937bb60c91b939091019283526200038492600080516020620084dc833981519152909201919062002a81565b50604080516101408101825260066101008201818152656b616c75676160d01b610120840152825282518084018452600b81526a04b616c7567612053686f760ac1b60208083019190915280840191909152600080516020620084fc83398151915283850152600080516020620084bc8339815191526060840152600360808401528351808501909452908352654b616c75676160d01b8382015260a082019290925260c08101839052600160e082015273ed637709f4edac6a5008fb7405794e753a1ead90600090815282528051805191927f587d3fb32c47aff2771c95f2fd796ad73afe340b834af445454845707b77afcc9262000488928492019062002a81565b506020828101518051620004a3926001850192019062002a81565b506040820151600282015560608201516003820155608082015160048201805460ff19166001836005811115620004de57620004de62002bc2565b021790555060a082015180516200050091600584019160209091019062002a81565b5060c082015180516200051e91600684019160209091019062002afe565b5060e091909101516007909101805460ff191691151591909117905560408051656b616c75676160d01b808252600160068084018290528451938490036026018420805473ed637709f4edac6a5008fb7405794e753a1ead906001600160a01b03199091161790556002805492830181556000528385019094528383526020909201908152620005c2926000805160206200849c8339815191529092019162002a81565b506040805160a081018252600660608201908152654b616c75676160d01b6080830152815273ed637709f4edac6a5008fb7405794e753a1ead90602082015260018183015290516003906200062390654b616c75676160d01b815260060190565b908152602001604051809103902060008201518160000190805190602001906200064f92919062002a81565b50602082810151600192830180546040958601511515600160a01b026001600160a81b03199091166001600160a01b039093169290921791909117905560048054928301815560005282518084019093526006808452654b616c75676160d01b93909101928352620006d692600080516020620084dc833981519152909201919062002a81565b50604080516101408101825260066101008201818152656d6f73636f7760d01b610120840152825282518084018452600b81526a04d6f73636f772053686f760ac1b60208083019190915280840191909152600080516020620084fc83398151915283850152600080516020620084bc8339815191526060840152600360808401528351808501909452908352654d6f73636f7760d01b8382015260a082019290925260c08101839052600160e08201527326280bc071e734ebbfbba9eeef0a7c2faf1ba4a5600090815282528051805191927fcecb9fb5c050a4ac9f46d5ffce21281d05da12e0ccc5340cd6d2b4949adcc48292620007da928492019062002a81565b506020828101518051620007f5926001850192019062002a81565b506040820151600282015560608201516003820155608082015160048201805460ff1916600183600581111562000830576200083062002bc2565b021790555060a082015180516200085291600584019160209091019062002a81565b5060c082015180516200087091600684019160209091019062002afe565b5060e091909101516007909101805460ff191691151591909117905560408051656d6f73636f7760d01b80825260016006808401829052845193849003602601842080547326280bc071e734ebbfbba9eeef0a7c2faf1ba4a56001600160a01b0319909116179055600280549283018155600052838501909452838352602090920190815262000914926000805160206200849c8339815191529092019162002a81565b506040805160a081018252600660608201908152654d6f73636f7760d01b608083015281527326280bc071e734ebbfbba9eeef0a7c2faf1ba4a5602082015260018183015290516003906200097590654d6f73636f7760d01b815260060190565b90815260200160405180910390206000820151816000019080519060200190620009a192919062002a81565b50602082810151600192830180546040958601511515600160a01b026001600160a81b03199091166001600160a01b039093169290921791909117905560048054928301815560005282518084019093526006808452654d6f73636f7760d01b9390910192835262000a2892600080516020620084dc833981519152909201919062002a81565b5060408051610140810182526006610100820181815265393cb0bd30b760d11b610120840152825282518084018452600b81526a05279617a616e2053686f760ac1b60208083019190915280840191909152600080516020620084fc83398151915283850152600080516020620084bc833981519152606084015260036080840152835180850190945290835265293cb0bd30b760d11b8382015260a082019290925260c08101839052600160e082015273f3a7531b5991aedeeab93b43300ea2be0f26ded9600090815282528051805191927f441503337fa90ba1159010054c8d5e9408df96c82be5e114141440ba51cf09b79262000b2c928492019062002a81565b50602082810151805162000b47926001850192019062002a81565b506040820151600282015560608201516003820155608082015160048201805460ff1916600183600581111562000b825762000b8262002bc2565b021790555060a0820151805162000ba491600584019160209091019062002a81565b5060c0820151805162000bc291600684019160209091019062002afe565b5060e091909101516007909101805460ff19169115159190911790556040805165393cb0bd30b760d11b808252600160068084018290528451938490036026018420805473f3a7531b5991aedeeab93b43300ea2be0f26ded96001600160a01b0319909116179055600280549283018155600052838501909452838352602090920190815262000c66926000805160206200849c8339815191529092019162002a81565b506040805160a08101825260066060820190815265293cb0bd30b760d11b6080830152815273f3a7531b5991aedeeab93b43300ea2be0f26ded96020820152600181830152905160039062000cc79065293cb0bd30b760d11b815260060190565b9081526020016040518091039020600082015181600001908051906020019062000cf392919062002a81565b50602082810151600192830180546040958601511515600160a01b026001600160a81b03199091166001600160a01b03909316929092179190911790556004805492830181556000528251808401909352600680845265293cb0bd30b760d11b9390910192835262000d7a92600080516020620084dc833981519152909201919062002a81565b506040805161014081018252600661010082018181526573616d61726160d01b610120840152825282518084018452600b81526a053616d6172612053686f760ac1b60208083019190915280840191909152600080516020620084fc83398151915283850152600080516020620084bc83398151915260608401526003608084015283518085019094529083526553616d61726160d01b8382015260a082019290925260c08101839052600160e08201527345483719e57a7b10c73e842aabf9b009d1fe2e32600090815282528051805191927fc38a5ded6676b1f402d40cb27a79f194c4c3f36883467742d176f1f68773dcfe9262000e7e928492019062002a81565b50602082810151805162000e99926001850192019062002a81565b506040820151600282015560608201516003820155608082015160048201805460ff1916600183600581111562000ed45762000ed462002bc2565b021790555060a0820151805162000ef691600584019160209091019062002a81565b5060c0820151805162000f1491600684019160209091019062002afe565b5060e091909101516007909101805460ff1916911515919091179055604080516573616d61726160d01b80825260016006808401829052845193849003602601842080547345483719e57a7b10c73e842aabf9b009d1fe2e326001600160a01b0319909116179055600280549283018155600052838501909452838352602090920190815262000fb8926000805160206200849c8339815191529092019162002a81565b506040805160a0810182526006606082019081526553616d61726160d01b608083015281527345483719e57a7b10c73e842aabf9b009d1fe2e326020820152600181830152905160039062001019906553616d61726160d01b815260060190565b908152602001604051809103902060008201518160000190805190602001906200104592919062002a81565b50602082810151600192830180546040958601511515600160a01b026001600160a81b03199091166001600160a01b0390931692909217919091179055600480549283018155600052825180840190935260068084526553616d61726160d01b93909101928352620010cc92600080516020620084dc833981519152909201919062002a81565b506040805161014081018252601061010082018181526f7361696e742d7065746572736275726760801b610120840152825282518084018452601581527f5361696e7420506574657273627572672053686f70000000000000000000000060208083019190915280840191909152600080516020620084fc83398151915283850152600080516020620084bc83398151915260608401526003608084015283518085019094529083526f5361696e74205065746572736275726760801b8382015260a082019290925260c08101839052600160e0820152731567f49dd576775d225d9c987880dee8e2e0e3da600090815282528051805191927fda04f4c7f5241a11ef0d8284c962806c03ad65a0734edf14d21c1d6c34a0fac992620011f6928492019062002a81565b50602082810151805162001211926001850192019062002a81565b506040820151600282015560608201516003820155608082015160048201805460ff191660018360058111156200124c576200124c62002bc2565b021790555060a082015180516200126e91600584019160209091019062002a81565b5060c082015180516200128c91600684019160209091019062002afe565b5060e091909101516007909101805460ff1916911515919091179055604080516f7361696e742d7065746572737075726760801b81526001601080830182905283519283900360300183208054731567f49dd576775d225d9c987880dee8e2e0e3da6001600160a01b03199091161790556002805492830181556000528284019093528282526f7361696e742d7065746572736275726760801b60209092019182526200134e926000805160206200849c833981519152909101919062002a81565b506040805160a0810182526010606082019081526f5361696e74205065746572736275726760801b60808301528152731567f49dd576775d225d9c987880dee8e2e0e3da60208201526001818301529051600390620013c3906f5361696e74205065746572736275726760801b815260100190565b90815260200160405180910390206000820151816000019080519060200190620013ef92919062002a81565b50602082810151600192830180546040958601511515600160a01b026001600160a81b03199091166001600160a01b0390931692909217919091179055600480549283018155600052825180840190935260108084526f5361696e74205065746572736275726760801b939091019283526200148092600080516020620084dc833981519152909201919062002a81565b5060408051610140810182526008610100820181815267746167616e726f6760c01b610120840152825282518084018452600d81526c0546167616e726f672053686f7609c1b60208083019190915280840191909152600080516020620084fc83398151915283850152600080516020620084bc833981519152606084015260036080840152835180850190945290835267546167616e726f6760c01b8382015260a082019290925260c08101839052600160e082015273a35cd8f38607ce823ee307ffaf57f859762aecdc600090815282528051805191927ff7eb6ddc5ab8fe18a890b681a380b3c5dbf57af7dd31d06808406e476691b826926200158a928492019062002a81565b506020828101518051620015a5926001850192019062002a81565b506040820151600282015560608201516003820155608082015160048201805460ff19166001836005811115620015e057620015e062002bc2565b021790555060a082015180516200160291600584019160209091019062002a81565b5060c082015180516200162091600684019160209091019062002afe565b5060e091909101516007909101805460ff19169115159190911790556040805167746167616e726f6760c01b808252600160088084018290528451938490036028018420805473a35cd8f38607ce823ee307ffaf57f859762aecdc6001600160a01b03199091161790556002805492830181556000528385019094528383526020909201908152620016c6926000805160206200849c8339815191529092019162002a81565b506040805160a08101825260086060820190815267546167616e726f6760c01b6080830152815273a35cd8f38607ce823ee307ffaf57f859762aecdc602082015260018183015290516003906200172b9067546167616e726f6760c01b815260080190565b908152602001604051809103902060008201518160000190805190602001906200175792919062002a81565b50602082810151600192830180546040958601511515600160a01b026001600160a81b03199091166001600160a01b03909316929092179190911790556004805492830181556000528251808401909352600880845267546167616e726f6760c01b93909101928352620017e092600080516020620084dc833981519152909201919062002a81565b5060408051610140810182526005610100820181815264746f6d736b60d81b610120840152825282518084018452600a8152690546f6d736b2053686f760b41b60208083019190915280840191909152600080516020620084fc83398151915283850152600080516020620084bc833981519152606084015260036080840152835180850190945290835264546f6d736b60d81b8382015260a082019290925260c08101839052600160e0820152736a052a062a54344363b67bad3b3fafd6220ac333600090815282528051805191927fb6cecceabdfe7a2997cf7281fcc97f1a71a54eee22fed85b800b4cf99559b7dc92620018e1928492019062002a81565b506020828101518051620018fc926001850192019062002a81565b506040820151600282015560608201516003820155608082015160048201805460ff1916600183600581111562001937576200193762002bc2565b021790555060a082015180516200195991600584019160209091019062002a81565b5060c082015180516200197791600684019160209091019062002afe565b5060e091909101516007909101805460ff19169115159190911790556040805164746f6d736b60d81b8082526001600580840182905284519384900360250184208054736a052a062a54344363b67bad3b3fafd6220ac3336001600160a01b0319909116179055600280549283018155600052838501909452838352602090920190815262001a1a926000805160206200849c8339815191529092019162002a81565b506040805160a08101825260056060820190815264546f6d736b60d81b60808301528152736a052a062a54344363b67bad3b3fafd6220ac3336020820152600181830152905160039062001a799064546f6d736b60d81b815260050190565b9081526020016040518091039020600082015181600001908051906020019062001aa592919062002a81565b50602082810151600192830180546040958601511515600160a01b026001600160a81b03199091166001600160a01b03909316929092179190911790556004805492830181556000528251808401909352600580845264546f6d736b60d81b9390910192835262001b2b92600080516020620084dc833981519152909201919062002a81565b506040805161014081018252600961010082018181526868616261726f76736b60b81b610120840152825282518084018452600e81526d048616261726f76736b2053686f760941b60208083019190915280840191909152600080516020620084fc83398151915283850152600080516020620084bc83398151915260608401526003608084015283518085019094529083526848616261726f76736b60b81b8382015260a082019290925260c08101839052600160e082015273602e85a431e7cfb8489afe0ff40eda6c2b968afd600090815282528051805191927f3aba2e523e02a954d1ffeaefb20f634ce80b37d0dc70e80be2b65507da68a9c89262001c38928492019062002a81565b50602082810151805162001c53926001850192019062002a81565b506040820151600282015560608201516003820155608082015160048201805460ff1916600183600581111562001c8e5762001c8e62002bc2565b021790555060a0820151805162001cb091600584019160209091019062002a81565b5060c0820151805162001cce91600684019160209091019062002afe565b5060e091909101516007909101805460ff1916911515919091179055604080516868616261726f76736b60b81b81526001600982018190528251918290036029018220805473602e85a431e7cfb8489afe0ff40eda6c2b968afd6001600160a01b0319909116179055600280549182018155600052818301909252600880825267686162726f76736b60c01b602090920191825262001d80926000805160206200849c83398151915201919062002a81565b506040805160a0810182526009606082019081526848616261726f76736b60b81b6080830152815273602e85a431e7cfb8489afe0ff40eda6c2b968afd6020820152600181830152905160039062001de7906848616261726f76736b60b81b815260090190565b9081526020016040518091039020600082015181600001908051906020019062001e1392919062002a81565b50602082810151600192830180546040958601511515600160a01b026001600160a81b03199091166001600160a01b0390931692909217919091179055600480549283018155600052825180840190935260098084526848616261726f76736b60b81b9390910192835262001e9d92600080516020620084dc833981519152909201919062002a81565b506040805161014081018252600461010082018181526362616e6b60e01b6101208401528252825180840184528181526342616e6b60e01b60208083019190915280840191909152600080516020620084fc83398151915283850152600080516020620084bc833981519152606084015260808301919091528251808201909352600080845260a083019390935260c08201849052600160e0830152732641d38ed882f3e2ea5f45f922cded9d72ad09f783529182528051805191927f5a123d49ac45f0b96d96c598b1343ada73381756fd2c8622fb842323ed5c30be9262001f8a928492019062002a81565b50602082810151805162001fa5926001850192019062002a81565b506040820151600282015560608201516003820155608082015160048201805460ff1916600183600581111562001fe05762001fe062002bc2565b021790555060a082015180516200200291600584019160209091019062002a81565b5060c082015180516200202091600684019160209091019062002afe565b5060e091909101516007909101805460ff1916911515919091179055604080516362616e6b60e01b8082526001600480840182905284519384900360240184208054732641d38ed882f3e2ea5f45f922cded9d72ad09f76001600160a01b03199091161790556002805492830181556000528385019094528383526020909201908152620020c2926000805160206200849c8339815191529092019162002a81565b50604080516101408101825260086101008201908152670ceded8c8ccd2e6d60c31b610120830152815281518083018352600981526808eded8c8408cd2e6d60bb1b60208083019190915280830191909152600080516020620084fc83398151915282840152600080516020620084bc8339815191526060830152600260808301528251808201909352600080845260a083019390935260c08201849052600160e0830152738a3e473eedab5ff476a4d9e2eeee289d1febc7b383529182528051805191927ff7c9bd1e98b03c2276326a4b72f2eb3eb6df6da893b0fd472043bd9e7549d66792620021b8928492019062002a81565b506020828101518051620021d3926001850192019062002a81565b506040820151600282015560608201516003820155608082015160048201805460ff191660018360058111156200220e576200220e62002bc2565b021790555060a082015180516200223091600584019160209091019062002a81565b5060c082015180516200224e91600684019160209091019062002afe565b5060e091909101516007909101805460ff191691151591909117905560408051670ceded8c8ccd2e6d60c31b8082526001600880840182905284519384900360280184208054738a3e473eedab5ff476a4d9e2eeee289d1febc7b36001600160a01b03199091161790556002805492830181556000528385019094528383526020909201908152620022f4926000805160206200849c8339815191529092019162002a81565b506040805161014081018252600561010082018181526430b236b4b760d91b610120840152825282518084018452601581527f4976616e6f76204976616e204976616e6f76696368000000000000000000000060208083019190915280840191909152600080516020620084fc83398151915283850152600080516020620084bc833981519152606084015260808301919091528251808201909352600080845260a083019390935260c08201849052600160e083015273bc03ee8cde310f36f2a6f04c9965caeb11ba315a83529182528051805191927f2834d1a09bd845973db88f4940ce99a1523d73750c2ec581288d74241517d08b92620023fc928492019062002a81565b50602082810151805162002417926001850192019062002a81565b506040820151600282015560608201516003820155608082015160048201805460ff1916600183600581111562002452576200245262002bc2565b021790555060a082015180516200247491600584019160209091019062002a81565b5060c082015180516200249291600684019160209091019062002afe565b5060e091909101516007909101805460ff1916911515919091179055604080516430b236b4b760d91b808252600160058084018290528451938490036025018420805473bc03ee8cde310f36f2a6f04c9965caeb11ba315a6001600160a01b0319909116179055600280549283018155600052838501909452838352602090920190815262002535926000805160206200849c8339815191529092019162002a81565b506040805161014081018252600561010082019081526439b2b6b2b760d91b610120830152815281518083018352601881527f53656d656e6f762053656d656e2053656d656e6f76696368000000000000000060208083019190915280830191909152600080516020620084fc83398151915282840152600080516020620084bc8339815191526060830152600160808301819052835180850190945260078452662236b4ba3937bb60c91b8483015260a083019390935260c0820184905260e082019290925273dd28c05343b9d59f922202918c0f8c4802be312f600090815282528051805191927fe9685801408e896f6ad1b5140c08f320194812cdbdd554d9b5512d36c3f70e10926200264f928492019062002a81565b5060208281015180516200266a926001850192019062002a81565b506040820151600282015560608201516003820155608082015160048201805460ff19166001836005811115620026a557620026a562002bc2565b021790555060a08201518051620026c791600584019160209091019062002a81565b5060c08201518051620026e591600684019160209091019062002afe565b5060e091909101516007909101805460ff1916911515919091179055604080516439b2b6b2b760d91b808252600160058084018290528451938490036025018420805473dd28c05343b9d59f922202918c0f8c4802be312f6001600160a01b0319909116179055600280549283018155600052838501909452838352602090920190815262002788926000805160206200849c8339815191529092019162002a81565b50604080516101408101825260046101008201908152633832ba3960e11b610120830152815281518083018352601581527f506574726f76205065747220506574726f76696368000000000000000000000060208083019190915280830191909152600080516020620084fc83398151915282840152600080516020620084bc8339815191526060830152600060808301819052835180830190945280845260a083019390935260c08201849052600160e083015273b7e3ffc2f94ce0a3ccfc599270d8023d8ab9cac683529182528051805191927fb9cda16762a27320db14119a18b082dffdd24254e64027614226be2bc1a9cf8a926200288e928492019062002a81565b506020828101518051620028a9926001850192019062002a81565b506040820151600282015560608201516003820155608082015160048201805460ff19166001836005811115620028e457620028e462002bc2565b021790555060a082015180516200290691600584019160209091019062002a81565b5060c082015180516200292491600684019160209091019062002afe565b5060e091909101516007909101805460ff191691151591909117905560408051633832ba3960e11b808252600160048084018290528451938490036024018420805473b7e3ffc2f94ce0a3ccfc599270d8023d8ab9cac66001600160a01b03199091161790556002805492830181556000528385019094528383526020909201908152620029c6926000805160206200849c8339815191529092019162002a81565b505062002bd8565b8280548282559060005260206000209060070160089004810192821562002a6f5791602002820160005b8382111562002a3b57835183826101000a81548163ffffffff021916908360ff1602179055509260200192600401602081600301049283019260010302620029f8565b801562002a6d5782816101000a81549063ffffffff021916905560040160208160030104928301926001030262002a3b565b505b5062002a7d92915062002b6e565b5090565b82805462002a8f9062002b85565b90600052602060002090601f01602090048101928262002ab3576000855562002a6f565b82601f1062002ace57805160ff191683800117855562002a6f565b8280016001018555821562002a6f579182015b8281111562002a6f57825182559160200191906001019062002ae1565b8280548282559060005260206000209060070160089004810192821562002a6f5791602002820160005b8382111562002a3b57835183826101000a81548163ffffffff021916908363ffffffff160217905550926020019260040160208160030104928301926001030262002b28565b5b8082111562002a7d576000815560010162002b6f565b600181811c9082168062002b9a57607f821691505b6020821081141562002bbc57634e487b7160e01b600052602260045260246000fd5b50919050565b634e487b7160e01b600052602160045260246000fd5b6158b48062002be86000396000f3fe6080604052600436106101405760003560e01c80639b7e033a116100b6578063d569b30c1161006f578063d569b30c146103cd578063e8e1d463146103fc578063edf9261f1461041c578063f23219b31461043c578063f6e60d5b14610469578063f81872681461048957600080fd5b80639b7e033a146102de5780639e36abd914610313578063a2c8e17714610328578063af3e1e2a14610348578063bfa5a90214610368578063d20259fe1461038857600080fd5b806360b9faa51161010857806360b9faa5146102255780636e9d7adb146102455780636f77926b146102585780638638a7a4146102895780638f7ab8e1146102a9578063961a9a13146102c957600080fd5b806318d0e8b2146101455780633c0e9aa91461017c57806341180da1146101a95780634985e85c146101cb578063570b98e214610203575b600080fd5b34801561015157600080fd5b50610165610160366004614f28565b61049e565b6040516101739291906155bd565b60405180910390f35b34801561018857600080fd5b5061019c610197366004615123565b61054b565b6040516101739190615507565b3480156101b557600080fd5b506101c96101c43660046150d5565b6107d6565b005b3480156101d757600080fd5b506101eb6101e6366004615123565b610d52565b6040516001600160a01b039091168152602001610173565b34801561020f57600080fd5b50610218610d83565b60405161017391906154a5565b34801561023157600080fd5b506101c9610240366004615123565b610e5c565b6101c9610253366004615123565b611405565b34801561026457600080fd5b50610278610273366004614f28565b611616565b60405161017395949392919061560b565b34801561029557600080fd5b506101c96102a43660046152c1565b61190c565b3480156102b557600080fd5b506101c96102c4366004615200565b61202e565b3480156102d557600080fd5b506101c9612a5f565b3480156102ea57600080fd5b506102fe6102f93660046152a6565b612c47565b6040516101739998979695949392919061551a565b34801561031f57600080fd5b506101c9612f7e565b34801561033457600080fd5b506101c9610343366004614f4c565b6133aa565b34801561035457600080fd5b506101c9610363366004614fac565b613542565b34801561037457600080fd5b506101c961038336600461528d565b6137b1565b34801561039457600080fd5b506103a86103a3366004615123565b613adb565b6040805193151584526001600160a01b03909216602084015290820152606001610173565b3480156103d957600080fd5b506103ed6103e8366004615123565b613ba2565b604051610173939291906155d8565b34801561040857600080fd5b506101c9610417366004614f28565b613cbc565b34801561042857600080fd5b506103ed610437366004614f28565b613eee565b34801561044857600080fd5b5061045c6104573660046151b2565b614022565b6040516101739190615665565b34801561047557600080fd5b506101c9610484366004615160565b6143b2565b34801561049557600080fd5b50610218614608565b6001600160a01b03811660009081526020818152604080832060078101546006909101805483518186028101860190945280845260609460ff90931693919283919083018282801561053b57602002820191906000526020600020906000905b82829054906101000a900463ffffffff1663ffffffff16815260200190600401906020826003010492830192600103820291508084116104fe5790505b5050505050905091509150915091565b606060008060068054905067ffffffffffffffff81111561056e5761056e615816565b604051908082528060200260200182016040528015610597578160200160208202803683370190505b50905060005b60065481101561071e5761069360056000600684815481106105c1576105c1615800565b90600052602060002090600891828204019190066004029054906101000a900463ffffffff1663ffffffff1663ffffffff168152602001908152602001600020600101805461060f9061575a565b80601f016020809104026020016040519081016040528092919081815260200182805461063b9061575a565b80156106885780601f1061065d57610100808354040283529160200191610688565b820191906000526020600020905b81548152906001019060200180831161066b57829003601f168201915b50505050508661473a565b1561070c57600681815481106106ab576106ab615800565b90600052602060002090600891828204019190066004029054906101000a900463ffffffff16828463ffffffff16815181106106e9576106e9615800565b63ffffffff9092166020928302919091019091015282610708816157b0565b9350505b8061071681615795565b91505061059d565b508163ffffffff1667ffffffffffffffff81111561073e5761073e615816565b604051908082528060200260200182016040528015610767578160200160208202803683370190505b50925060005b8263ffffffff168110156107ce5781818151811061078d5761078d615800565b60200260200101518482815181106107a7576107a7615800565b63ffffffff90921660209283029190910190910152806107c681615795565b91505061076d565b505050919050565b33600090815260208190526040808220815161010081019092528054829082906107ff9061575a565b80601f016020809104026020016040519081016040528092919081815260200182805461082b9061575a565b80156108785780601f1061084d57610100808354040283529160200191610878565b820191906000526020600020905b81548152906001019060200180831161085b57829003601f168201915b505050505081526020016001820180546108919061575a565b80601f01602080910402602001604051908101604052809291908181526020018280546108bd9061575a565b801561090a5780601f106108df5761010080835404028352916020019161090a565b820191906000526020600020905b8154815290600101906020018083116108ed57829003601f168201915b50505091835250506002820154602082015260038201546040820152600482015460609091019060ff166005811115610945576109456157ea565b6005811115610956576109566157ea565b815260200160058201805461096a9061575a565b80601f01602080910402602001604051908101604052809291908181526020018280546109969061575a565b80156109e35780601f106109b8576101008083540402835291602001916109e3565b820191906000526020600020905b8154815290600101906020018083116109c657829003601f168201915b5050505050815260200160068201805480602002602001604051908101604052809291908181526020018280548015610a6757602002820191906000526020600020906000905b82829054906101000a900463ffffffff1663ffffffff1681526020019060040190602082600301049283019260010382029150808411610a2a5790505b50505091835250506007919091015460ff1615156020909101529050600081608001516005811115610a9b57610a9b6157ea565b1480610abc5750600181608001516005811115610aba57610aba6157ea565b145b6040518060600160405280602f8152602001615850602f913990610afc5760405162461bcd60e51b8152600401610af39190615665565b60405180910390fd5b5082826001826005811115610b1357610b136157ea565b1415610bc157610b32816040518060200160405280600081525061473a565b15610b4f5760405162461bcd60e51b8152600401610af390615678565b600381604051610b5f91906153b5565b9081526040519081900360200190206001015460ff600160a01b90910416610bc15760405162461bcd60e51b815260206004820152601560248201527405468657265206973206e6f20737563682073686f7605c1b6044820152606401610af3565b3360009081526007602052604090206002015460ff1615610c365760405162461bcd60e51b815260206004820152602960248201527f596f75206861766520616c72656164792073656e7420616e20656c657661746560448201526820726571756573742160b81b6064820152608401610af3565b6040518060800160405280336001600160a01b03168152602001866005811115610c6257610c626157ea565b8152602080820187905260016040928301523360009081526007825291909120825181546001600160a01b03919091166001600160a01b031982168117835592840151919283916001600160a81b03191617600160a01b836005811115610ccb57610ccb6157ea565b021790555060408201518051610ceb916001840191602090910190614cd5565b50606091909101516002909101805491151560ff199092169190911790555050600880546001810182556000919091527ff3f7a9fe364faab93b216da50a3214154f22a0a2b415b23a84c8169e8b636ee30180546001600160a01b03191633179055505050565b6000600182604051610d6491906153b5565b908152604051908190036020019020546001600160a01b031692915050565b60606004805480602002602001604051908101604052809291908181526020016000905b82821015610e53578382906000526020600020018054610dc69061575a565b80601f0160208091040260200160405190810160405280929190818152602001828054610df29061575a565b8015610e3f5780601f10610e1457610100808354040283529160200191610e3f565b820191906000526020600020905b815481529060010190602001808311610e2257829003601f168201915b505050505081526020019060010190610da7565b50505050905090565b60053360009081526020819052604090206004015460ff166005811115610e8557610e856157ea565b146040518060600160405280602f8152602001615850602f913990610ebd5760405162461bcd60e51b8152600401610af39190615665565b506000600382604051610ed091906153b5565b9081526020016040518091039020604051806060016040529081600082018054610ef99061575a565b80601f0160208091040260200160405190810160405280929190818152602001828054610f259061575a565b8015610f725780601f10610f4757610100808354040283529160200191610f72565b820191906000526020600020905b815481529060010190602001808311610f5557829003601f168201915b5050509183525050600191909101546001600160a01b0381166020830152600160a01b900460ff161515604091820152810151909150610ff45760405162461bcd60e51b815260206004820152601d60248201527f5468657265206973206e6f2073686f7020696e207468697320636974790000006044820152606401610af3565b60005b6002548110156113a157600060016002838154811061101857611018615800565b9060005260206000200160405161102f91906153d1565b908152602001604051809103902060009054906101000a90046001600160a01b03169050600080600060016002868154811061106d5761106d615800565b9060005260206000200160405161108491906153d1565b9081526040805160209281900383019020546001600160a01b03168352908201929092528101600020815161010081019092528054829082906110c69061575a565b80601f01602080910402602001604051908101604052809291908181526020018280546110f29061575a565b801561113f5780601f106111145761010080835404028352916020019161113f565b820191906000526020600020905b81548152906001019060200180831161112257829003601f168201915b505050505081526020016001820180546111589061575a565b80601f01602080910402602001604051908101604052809291908181526020018280546111849061575a565b80156111d15780601f106111a6576101008083540402835291602001916111d1565b820191906000526020600020905b8154815290600101906020018083116111b457829003601f168201915b50505091835250506002820154602082015260038201546040820152600482015460609091019060ff16600581111561120c5761120c6157ea565b600581111561121d5761121d6157ea565b81526020016005820180546112319061575a565b80601f016020809104026020016040519081016040528092919081815260200182805461125d9061575a565b80156112aa5780601f1061127f576101008083540402835291602001916112aa565b820191906000526020600020905b81548152906001019060200180831161128d57829003601f168201915b505050505081526020016006820180548060200260200160405190810160405280929190818152602001828054801561132e57602002820191906000526020600020906000905b82829054906101000a900463ffffffff1663ffffffff16815260200190600401906020826003010492830192600103820291508084116112f15790505b50505091835250506007919091015460ff1615156020909101529050600181608001516005811115611362576113626157ea565b141561138c576001600160a01b0382166000908152602081905260409020600401805460ff191690555b5050808061139990615795565b915050610ff7565b50602081810180516001600160a01b0390811660009081528084526040808220600401805460ff19169055805180860180835283825294519093168252938190529290922091516113f6926005019190614cd5565b5061140082614793565b505050565b60043360009081526020819052604090206004015460ff16600581111561142e5761142e6157ea565b146040518060600160405280602f8152602001615850602f9139906114665760405162461bcd60e51b8152600401610af39190615665565b50600060098260405161147991906153b5565b90815260408051918290036020908101832060608401835280546001600160a01b031684526001810154918401919091526002015460ff1615159082018190529091506115195760405162461bcd60e51b815260206004820152602860248201527f546869732073686f70206469646e27742073656e7420616e79206d6f6e657920604482015267726571756573747360c01b6064820152608401610af3565b806020015134146115a75760405162461bcd60e51b815260206004820152604c60248201527f596f75206e65656420746f2073656e642065786163742073616d6520616d6f7560448201527f6e74206f66206d6f6e65792074686174206973207772697474656e20696e206d60648201526b1bdb995e481c995c5d595cdd60a21b608482015260a401610af3565b60006003836040516115b991906153b5565b9081526040516020918190038201812060010154918401516001600160a01b03909216925082916108fc811502916000818181858888f19350505050158015611606573d6000803e3d6000fd5b5061161083614793565b50505050565b6000606080600060606000806000886001600160a01b03166001600160a01b03168152602001908152602001600020604051806101000160405290816000820180546116619061575a565b80601f016020809104026020016040519081016040528092919081815260200182805461168d9061575a565b80156116da5780601f106116af576101008083540402835291602001916116da565b820191906000526020600020905b8154815290600101906020018083116116bd57829003601f168201915b505050505081526020016001820180546116f39061575a565b80601f016020809104026020016040519081016040528092919081815260200182805461171f9061575a565b801561176c5780601f106117415761010080835404028352916020019161176c565b820191906000526020600020905b81548152906001019060200180831161174f57829003601f168201915b50505091835250506002820154602082015260038201546040820152600482015460609091019060ff1660058111156117a7576117a76157ea565b60058111156117b8576117b86157ea565b81526020016005820180546117cc9061575a565b80601f01602080910402602001604051908101604052809291908181526020018280546117f89061575a565b80156118455780601f1061181a57610100808354040283529160200191611845565b820191906000526020600020905b81548152906001019060200180831161182857829003601f168201915b50505050508152602001600682018054806020026020016040519081016040528092919081815260200182805480156118c957602002820191906000526020600020906000905b82829054906101000a900463ffffffff1663ffffffff168152602001906004019060208260030104928301926001038202915080841161188c5790505b50505091835250506007919091015460ff16151560209182015260e0820151825191830151608084015160a090940151919b929a50985091965090945092505050565b33600090815260208190526040808220815161010081019092528054829082906119359061575a565b80601f01602080910402602001604051908101604052809291908181526020018280546119619061575a565b80156119ae5780601f10611983576101008083540402835291602001916119ae565b820191906000526020600020905b81548152906001019060200180831161199157829003601f168201915b505050505081526020016001820180546119c79061575a565b80601f01602080910402602001604051908101604052809291908181526020018280546119f39061575a565b8015611a405780601f10611a1557610100808354040283529160200191611a40565b820191906000526020600020905b815481529060010190602001808311611a2357829003601f168201915b50505091835250506002820154602082015260038201546040820152600482015460609091019060ff166005811115611a7b57611a7b6157ea565b6005811115611a8c57611a8c6157ea565b8152602001600582018054611aa09061575a565b80601f0160208091040260200160405190810160405280929190818152602001828054611acc9061575a565b8015611b195780601f10611aee57610100808354040283529160200191611b19565b820191906000526020600020905b815481529060010190602001808311611afc57829003601f168201915b5050505050815260200160068201805480602002602001604051908101604052809291908181526020018280548015611b9d57602002820191906000526020600020906000905b82829054906101000a900463ffffffff1663ffffffff1681526020019060040190602082600301049283019260010382029150808411611b605790505b50505091835250506007919091015460ff1615156020909101529050600081608001516005811115611bd157611bd16157ea565b1480611bf25750600181608001516005811115611bf057611bf06157ea565b145b6040518060600160405280602f8152602001615850602f913990611c295760405162461bcd60e51b8152600401610af39190615665565b5063ffffffff831660009081526005602090815260408083208151610120810190925280546001600160a01b031682526001810180549293919291840191611c709061575a565b80601f0160208091040260200160405190810160405280929190818152602001828054611c9c9061575a565b8015611ce95780601f10611cbe57610100808354040283529160200191611ce9565b820191906000526020600020905b815481529060010190602001808311611ccc57829003601f168201915b50505050508152602001600282018054611d029061575a565b80601f0160208091040260200160405190810160405280929190818152602001828054611d2e9061575a565b8015611d7b5780601f10611d5057610100808354040283529160200191611d7b565b820191906000526020600020905b815481529060010190602001808311611d5e57829003601f168201915b5050509183525050600382015463ffffffff166020808301919091526004830180546040805182850281018501825282815294019392830182828015611e0c57602002820191906000526020600020906000905b82829054906101000a900463ffffffff1663ffffffff1681526020019060040190602082600301049283019260010382029150808411611dcf5790505b5050509183525050600582015460ff166020808301919091526006830180546040805182850281018501825282815294019392830182828015611e7857602002820191906000526020600020905b81546001600160a01b03168152600190910190602001808311611e5a575b5050505050815260200160078201805480602002602001604051908101604052809291908181526020018280548015611eda57602002820191906000526020600020905b81546001600160a01b03168152600190910190602001808311611ebc575b50505091835250506008919091015460ff161515602090910152610100810151909150611f495760405162461bcd60e51b815260206004820152601a60248201527f546869732072657669657720646f6573206e6f742065786973740000000000006044820152606401610af3565b80516001600160a01b0316331415611fa35760405162461bcd60e51b815260206004820152601e60248201527f596f752063616e2774207261746520796f7572206f776e2072657669657700006044820152606401610af3565b611fac846148d7565b508215611ff05763ffffffff841660009081526005602090815260408220600601805460018101825590835291200180546001600160a01b03191633179055611610565b63ffffffff841660009081526005602090815260408220600701805460018101825590835291200180546001600160a01b0319163317905550505050565b33600090815260208190526040808220815161010081019092528054829082906120579061575a565b80601f01602080910402602001604051908101604052809291908181526020018280546120839061575a565b80156120d05780601f106120a5576101008083540402835291602001916120d0565b820191906000526020600020905b8154815290600101906020018083116120b357829003601f168201915b505050505081526020016001820180546120e99061575a565b80601f01602080910402602001604051908101604052809291908181526020018280546121159061575a565b80156121625780601f1061213757610100808354040283529160200191612162565b820191906000526020600020905b81548152906001019060200180831161214557829003601f168201915b50505091835250506002820154602082015260038201546040820152600482015460609091019060ff16600581111561219d5761219d6157ea565b60058111156121ae576121ae6157ea565b81526020016005820180546121c29061575a565b80601f01602080910402602001604051908101604052809291908181526020018280546121ee9061575a565b801561223b5780601f106122105761010080835404028352916020019161223b565b820191906000526020600020905b81548152906001019060200180831161221e57829003601f168201915b50505050508152602001600682018054806020026020016040519081016040528092919081815260200182805480156122bf57602002820191906000526020600020906000905b82829054906101000a900463ffffffff1663ffffffff16815260200190600401906020826003010492830192600103820291508084116122825790505b50505091835250506007919091015460ff16151560209091015290506000816080015160058111156122f3576122f36157ea565b14806123145750600181608001516005811115612312576123126157ea565b145b6040518060600160405280602f8152602001615850602f91399061234b5760405162461bcd60e51b8152600401610af39190615665565b5033600090815260208190526040808220815161010081019092528054829082906123759061575a565b80601f01602080910402602001604051908101604052809291908181526020018280546123a19061575a565b80156123ee5780601f106123c3576101008083540402835291602001916123ee565b820191906000526020600020905b8154815290600101906020018083116123d157829003601f168201915b505050505081526020016001820180546124079061575a565b80601f01602080910402602001604051908101604052809291908181526020018280546124339061575a565b80156124805780601f1061245557610100808354040283529160200191612480565b820191906000526020600020905b81548152906001019060200180831161246357829003601f168201915b50505091835250506002820154602082015260038201546040820152600482015460609091019060ff1660058111156124bb576124bb6157ea565b60058111156124cc576124cc6157ea565b81526020016005820180546124e09061575a565b80601f016020809104026020016040519081016040528092919081815260200182805461250c9061575a565b80156125595780601f1061252e57610100808354040283529160200191612559565b820191906000526020600020905b81548152906001019060200180831161253c57829003601f168201915b50505050508152602001600682018054806020026020016040519081016040528092919081815260200182805480156125dd57602002820191906000526020600020906000905b82829054906101000a900463ffffffff1663ffffffff16815260200190600401906020826003010492830192600103820291508084116125a05790505b50505091835250506007919091015460ff16151560209091015260405190915060039061260b9088906153b5565b9081526040519081900360200190206001015460ff600160a01b9091041661266b5760405162461bcd60e51b815260206004820152601360248201527214da1bdc08191bd95cc81b9bdd08195e1a5cdd606a1b6044820152606401610af3565b600181608001516005811115612683576126836157ea565b141561274e57612697868260a0015161473a565b6126f65760405162461bcd60e51b815260206004820152602a60248201527f596f752063616e207075626c6973682072657669657773206f6e6c79206f6e20604482015269796f75722073686f702160b01b6064820152608401610af3565b63ffffffff83166127495760405162461bcd60e51b815260206004820152601a60248201527f596f752063616e206f6e6c792073656e6420616e7377657273210000000000006044820152606401610af3565b6127bc565b60018460ff16101580156127665750600a8460ff1611155b6127bc5760405162461bcd60e51b815260206004820152602160248201527f526174652063616e206f6e6c79206265206265747765656e203120616e6420316044820152600360fc1b6064820152608401610af3565b600680546001810182556000919091527ff652222313e28459528d920b65115c16c04f3efc82aaedc97be59f3f377c0d3f60088204018054600783166004026101000a63ffffffff81810219909216828516919091021790915584161561286e5763ffffffff8085166000908152600560209081526040822060049081018054600181018255908452919092206008820401805485851660079093169093026101000a91820291909302199091161790555b606080604051806101200160405280336001600160a01b031681526020018a81526020018981526020018763ffffffff168152602001838152602001600160058111156128bd576128bd6157ea565b866080015160058111156128d3576128d36157ea565b146128de57886128e1565b60005b60ff168152602080820184905260408083018590526001606090930183905263ffffffff871660009081526005835220835181546001600160a01b0319166001600160a01b0390911617815583820151805191936129459390850192910190614cd5565b5060408201518051612961916002840191602090910190614cd5565b50606082015160038201805463ffffffff191663ffffffff9092169190911790556080820151805161299d916004840191602090910190614d59565b5060a082015160058201805460ff191660ff90921691909117905560c082015180516129d3916006840191602090910190614e03565b5060e082015180516129ef916007840191602090910190614e03565b50610100918201516008918201805460ff1916911515919091179055336000908152602081815260408220600601805460018101825590835291209181049091018054600790921660040290920a63ffffffff818102199092169590911602939093179092555050505050505050565b60033360009081526020819052604090206004015460ff166005811115612a8857612a886157ea565b146040518060600160405280602f8152602001615850602f913990612ac05760405162461bcd60e51b8152600401610af39190615665565b50336000908152602081905260408082209051600391612ae5916005909101906153d1565b9081526020016040518091039020604051806060016040529081600082018054612b0e9061575a565b80601f0160208091040260200160405190810160405280929190818152602001828054612b3a9061575a565b8015612b875780601f10612b5c57610100808354040283529160200191612b87565b820191906000526020600020905b815481529060010190602001808311612b6a57829003601f168201915b5050509183525050600191909101546001600160a01b0381166020830152600160a01b900460ff16151560409182015281519051919250600991612bcb91906153b5565b9081526040519081900360200190206002015460ff16612c385760405162461bcd60e51b815260206004820152602260248201527f596f7520686176656e27742073656e7420616e79206d6f6e65792072657175656044820152611cdd60f21b6064820152608401610af3565b8051612c4390614793565b5050565b63ffffffff811660009081526005602090815260408083208151610120810190925280546001600160a01b03168252600181018054859460609485948794869486948694859487949193909284019190612ca09061575a565b80601f0160208091040260200160405190810160405280929190818152602001828054612ccc9061575a565b8015612d195780601f10612cee57610100808354040283529160200191612d19565b820191906000526020600020905b815481529060010190602001808311612cfc57829003601f168201915b50505050508152602001600282018054612d329061575a565b80601f0160208091040260200160405190810160405280929190818152602001828054612d5e9061575a565b8015612dab5780601f10612d8057610100808354040283529160200191612dab565b820191906000526020600020905b815481529060010190602001808311612d8e57829003601f168201915b5050509183525050600382015463ffffffff166020808301919091526004830180546040805182850281018501825282815294019392830182828015612e3c57602002820191906000526020600020906000905b82829054906101000a900463ffffffff1663ffffffff1681526020019060040190602082600301049283019260010382029150808411612dff5790505b5050509183525050600582015460ff166020808301919091526006830180546040805182850281018501825282815294019392830182828015612ea857602002820191906000526020600020905b81546001600160a01b03168152600190910190602001808311612e8a575b5050505050815260200160078201805480602002602001604051908101604052809291908181526020018280548015612f0a57602002820191906000526020600020905b81546001600160a01b03168152600190910190602001808311612eec575b505050505081526020016008820160009054906101000a900460ff1615151515815250509050806101000151816000015182602001518360400151846060015185608001518660a001518760c001518860e00151995099509950995099509950995099509950509193959799909294969850565b3360009081526020819052604080822081516101008101909252805482908290612fa79061575a565b80601f0160208091040260200160405190810160405280929190818152602001828054612fd39061575a565b80156130205780601f10612ff557610100808354040283529160200191613020565b820191906000526020600020905b81548152906001019060200180831161300357829003601f168201915b505050505081526020016001820180546130399061575a565b80601f01602080910402602001604051908101604052809291908181526020018280546130659061575a565b80156130b25780601f10613087576101008083540402835291602001916130b2565b820191906000526020600020905b81548152906001019060200180831161309557829003601f168201915b50505091835250506002820154602082015260038201546040820152600482015460609091019060ff1660058111156130ed576130ed6157ea565b60058111156130fe576130fe6157ea565b81526020016005820180546131129061575a565b80601f016020809104026020016040519081016040528092919081815260200182805461313e9061575a565b801561318b5780601f106131605761010080835404028352916020019161318b565b820191906000526020600020905b81548152906001019060200180831161316e57829003601f168201915b505050505081526020016006820180548060200260200160405190810160405280929190818152602001828054801561320f57602002820191906000526020600020906000905b82829054906101000a900463ffffffff1663ffffffff16815260200190600401906020826003010492830192600103820291508084116131d25790505b50505091835250506007919091015460ff1615156020909101529050600081608001516005811115613243576132436157ea565b14806132645750600181608001516005811115613262576132626157ea565b145b6040518060600160405280602f8152602001615850602f91399061329b5760405162461bcd60e51b8152600401610af39190615665565b503360009081526007602052604090206002015460ff1661330e5760405162461bcd60e51b815260206004820152602760248201527f596f752068617665206e6f742073656e7420616e7920656c65766174652072656044820152667175657374732160c81b6064820152608401610af3565b336000908152600760205260408120600201805460ff191690555b600854811015612c4357336001600160a01b03166008828154811061335057613350615800565b6000918252602090912001546001600160a01b03161415613398576008818154811061337e5761337e615800565b600091825260209091200180546001600160a01b03191690555b806133a281615795565b915050613329565b60053360009081526020819052604090206004015460ff1660058111156133d3576133d36157ea565b146040518060600160405280602f8152602001615850602f91399061340b5760405162461bcd60e51b8152600401610af39190615665565b5081816001826005811115613422576134226157ea565b14156134d057613441816040518060200160405280600081525061473a565b1561345e5760405162461bcd60e51b8152600401610af390615678565b60038160405161346e91906153b5565b9081526040519081900360200190206001015460ff600160a01b909104166134d05760405162461bcd60e51b815260206004820152601560248201527405468657265206973206e6f20737563682073686f7605c1b6044820152606401610af3565b6001600160a01b0385166000908152602081905260409020600401805485919060ff19166001836005811115613508576135086157ea565b02179055506001600160a01b038516600090815260208181526040909120845161353a92600590920191860190614cd5565b505050505050565b6001600160a01b03851660009081526020819052604090206007015460ff161580156135ad575060008060018660405161357c91906153b5565b9081526040805160209281900383019020546001600160a01b0316835290820192909252016000206007015460ff16155b6135ee5760405162461bcd60e51b8152602060048201526012602482015271155cd95c88185b1c9958591e48195e1a5cdd60721b6044820152606401610af3565b600280546001810182556000919091528451606091613636917f405787fa12a823e0f2b7631cc41b3ba8828b3321ca811111fa75cd3aa3bb5ace909101906020880190614cd5565b508560018660405161364891906153b5565b908152602001604051809103902060006101000a8154816001600160a01b0302191690836001600160a01b03160217905550604051806101000160405280868152602001858152602001848152602001838152602001600060058111156136b1576136b16157ea565b8152604080516020818101835260008083528185019290925282840186905260016060909401939093526001600160a01b038a1681528083522082518051919261370092849290910190614cd5565b5060208281015180516137199260018501920190614cd5565b506040820151600282015560608201516003820155608082015160048201805460ff19166001836005811115613751576137516157ea565b021790555060a08201518051613771916005840191602090910190614cd5565b5060c0820151805161378d916006840191602090910190614d59565b5060e091909101516007909101805460ff1916911515919091179055505050505050565b60033360009081526020819052604090206004015460ff1660058111156137da576137da6157ea565b146040518060600160405280602f8152602001615850602f9139906138125760405162461bcd60e51b8152600401610af39190615665565b50336000908152602081905260408082209051600391613837916005909101906153d1565b90815260200160405180910390206040518060600160405290816000820180546138609061575a565b80601f016020809104026020016040519081016040528092919081815260200182805461388c9061575a565b80156138d95780601f106138ae576101008083540402835291602001916138d9565b820191906000526020600020905b8154815290600101906020018083116138bc57829003601f168201915b5050509183525050600191909101546001600160a01b0381166020830152600160a01b900460ff1615156040918201528151905191925060099161391d91906153b5565b9081526040519081900360200190206002015460ff161561398f5760405162461bcd60e51b815260206004820152602660248201527f596f75206861766520616c72656164792073656e7420616e206d6f6e65792072604482015265195c5d595cdd60d21b6064820152608401610af3565b732641d38ed882f3e2ea5f45f922cded9d72ad09f731821115613a1a5760405162461bcd60e51b815260206004820152603760248201527f42616e6b20646f6573206e6f74206861766520656e6f756768206d6f6e65792060448201527f746f207361746973667920796f757220726571756573740000000000000000006064820152608401610af3565b6040805160608101825233815260208101849052600181830152825191519091600991613a4791906153b5565b9081526040805160209281900383019020835181546001600160a01b0319166001600160a01b039091161781558383015160018083019190915593909101516002909101805460ff19169115159190911790558251600a805493840181556000528051611400937fc65a7bb8d6351c1cf70c95a316cc6a92839c986682d98bc35f958f4883f9d2a801929190910190614cd5565b6000808060043360009081526020819052604090206004015460ff166005811115613b0857613b086157ea565b146040518060600160405280602f8152602001615850602f913990613b405760405162461bcd60e51b8152600401610af39190615665565b506000600985604051613b5391906153b5565b908152604080516020928190038301812060608201835280546001600160a01b0316808352600182015494830185905260029091015460ff161515919092018190529790965090945092505050565b600060606000600384604051613bb891906153b5565b9081526040519081900360200181206001015460ff600160a01b9091041690600390613be59087906153b5565b90815260405190819003602001812090600390613c039088906153b5565b9081526040519081900360200190206001015481546001600160a01b03909116908290613c2f9061575a565b80601f0160208091040260200160405190810160405280929190818152602001828054613c5b9061575a565b8015613ca85780601f10613c7d57610100808354040283529160200191613ca8565b820191906000526020600020905b815481529060010190602001808311613c8b57829003601f168201915b505050505091509250925092509193909250565b60053360009081526020819052604090206004015460ff166005811115613ce557613ce56157ea565b146040518060600160405280602f8152602001615850602f913990613d1d5760405162461bcd60e51b8152600401610af39190615665565b506001600160a01b038181166000908152600760209081526040808320815160808101909252805494851682529293909291830190600160a01b900460ff166005811115613d6d57613d6d6157ea565b6005811115613d7e57613d7e6157ea565b8152602001600182018054613d929061575a565b80601f0160208091040260200160405190810160405280929190818152602001828054613dbe9061575a565b8015613e0b5780601f10613de057610100808354040283529160200191613e0b565b820191906000526020600020905b815481529060010190602001808311613dee57829003601f168201915b50505091835250506002919091015460ff1615156020909101526060810151909150613e915760405162461bcd60e51b815260206004820152602f60248201527f5468697320757365722068617665206e6f742073656e7420616e7920656c657660448201526e6174696f6e2072657175657374732160881b6064820152608401610af3565b6020810151604080830151905163a2c8e17760e01b8152309263a2c8e17792613ec0928792919060040161546d565b600060405180830381600087803b158015613eda57600080fd5b505af115801561353a573d6000803e3d6000fd5b6001600160a01b038116600090815260208190526040812060050180546060918391829190613f1c9061575a565b80601f0160208091040260200160405190810160405280929190818152602001828054613f489061575a565b8015613f955780601f10613f6a57610100808354040283529160200191613f95565b820191906000526020600020905b815481529060010190602001808311613f7857829003601f168201915b505060405163355a6cc360e21b8152939450309363d569b30c9350613fc09250859150600401615665565b60006040518083038186803b158015613fd857600080fd5b505afa158015613fec573d6000803e3d6000fd5b505050506040513d6000823e601f3d908101601f191682016040526140149190810190615034565b935093509350509193909250565b6060600080600060018760405161403991906153b5565b9081526040805160209281900383019020546001600160a01b031683529082019290925281016000208151610100810190925280548290829061407b9061575a565b80601f01602080910402602001604051908101604052809291908181526020018280546140a79061575a565b80156140f45780601f106140c9576101008083540402835291602001916140f4565b820191906000526020600020905b8154815290600101906020018083116140d757829003601f168201915b5050505050815260200160018201805461410d9061575a565b80601f01602080910402602001604051908101604052809291908181526020018280546141399061575a565b80156141865780601f1061415b57610100808354040283529160200191614186565b820191906000526020600020905b81548152906001019060200180831161416957829003601f168201915b50505091835250506002820154602082015260038201546040820152600482015460609091019060ff1660058111156141c1576141c16157ea565b60058111156141d2576141d26157ea565b81526020016005820180546141e69061575a565b80601f01602080910402602001604051908101604052809291908181526020018280546142129061575a565b801561425f5780601f106142345761010080835404028352916020019161425f565b820191906000526020600020905b81548152906001019060200180831161424257829003601f168201915b50505050508152602001600682018054806020026020016040519081016040528092919081815260200182805480156142e357602002820191906000526020600020906000905b82829054906101000a900463ffffffff1663ffffffff16815260200190600401906020826003010492830192600103820291508084116142a65790505b50505091835250506007919091015460ff16151560209091015260e08101519091506143475760405162461bcd60e51b8152602060048201526013602482015272155cd95c88191bd95cc81b9bdd08195e1a5cdd606a1b6044820152606401610af3565b80604001518414801561435d5750806060015183145b6143a95760405162461bcd60e51b815260206004820152601860248201527f57726f6e672070617373776f7264206f722073656372657400000000000000006044820152606401610af3565b50929392505050565b60053360009081526020819052604090206004015460ff1660058111156143db576143db6157ea565b146040518060600160405280602f8152602001615850602f9139906144135760405162461bcd60e51b8152600401610af39190615665565b506001600160a01b03811660009081526020819052604090206007015460ff166144765760405162461bcd60e51b815260206004820152601460248201527313dddb995c88191bd95cc81b9bdd08195e1a5cdd60621b6044820152606401610af3565b60038260405161448691906153b5565b9081526040519081900360200190206001015460ff600160a01b90910416156144fc5760405162461bcd60e51b815260206004820152602260248201527f546865726520697320616c72656164792073686f7020696e2074686973206369604482015261747960f01b6064820152608401610af3565b60048054600181018255600091909152825161453f917f8a35acfbc15ff81a39ae7d344fd709f28e8600b4aa8c65c6b64bfe7fe36bd19b01906020850190614cd5565b50604080516060810182528381526001600160a01b038316602082015260018183015290516003906145729085906153b5565b9081526020016040518091039020600082015181600001908051906020019061459c929190614cd5565b5060208281015160019290920180546040948501511515600160a01b026001600160a81b03199091166001600160a01b0394851617179055908316600090815280825291909120600481018054600360ff19909116179055835161140092600590920191850190614cd5565b606060043360009081526020819052604090206004015460ff166005811115614633576146336157ea565b146040518060600160405280602f8152602001615850602f91399061466b5760405162461bcd60e51b8152600401610af39190615665565b50600a805480602002602001604051908101604052809291908181526020016000905b82821015610e535783829060005260206000200180546146ad9061575a565b80601f01602080910402602001604051908101604052809291908181526020018280546146d99061575a565b80156147265780601f106146fb57610100808354040283529160200191614726565b820191906000526020600020905b81548152906001019060200180831161470957829003601f168201915b50505050508152602001906001019061468e565b60008160405160200161474d91906153b5565b604051602081830303815290604052805190602001208360405160200161477491906153b5565b6040516020818303038152906040528051906020012014905092915050565b6000806009836040516147a691906153b5565b908152604051908190036020019020600201805491151560ff1990921691909117905560005b600a548110156148ce57614885600a82815481106147ec576147ec615800565b9060005260206000200180546148019061575a565b80601f016020809104026020016040519081016040528092919081815260200182805461482d9061575a565b801561487a5780601f1061484f5761010080835404028352916020019161487a565b820191906000526020600020905b81548152906001019060200180831161485d57829003601f168201915b50505050508461473a565b156148bc57600a818154811061489d5761489d615800565b9060005260206000200160006148b39190614e58565b50600192915050565b806148c681615795565b9150506147cc565b50600092915050565b63ffffffff811660009081526005602090815260408083208151610120810190925280546001600160a01b0316825260018101805485948401919061491b9061575a565b80601f01602080910402602001604051908101604052809291908181526020018280546149479061575a565b80156149945780601f1061496957610100808354040283529160200191614994565b820191906000526020600020905b81548152906001019060200180831161497757829003601f168201915b505050505081526020016002820180546149ad9061575a565b80601f01602080910402602001604051908101604052809291908181526020018280546149d99061575a565b8015614a265780601f106149fb57610100808354040283529160200191614a26565b820191906000526020600020905b815481529060010190602001808311614a0957829003601f168201915b5050509183525050600382015463ffffffff166020808301919091526004830180546040805182850281018501825282815294019392830182828015614ab757602002820191906000526020600020906000905b82829054906101000a900463ffffffff1663ffffffff1681526020019060040190602082600301049283019260010382029150808411614a7a5790505b5050509183525050600582015460ff166020808301919091526006830180546040805182850281018501825282815294019392830182828015614b2357602002820191906000526020600020905b81546001600160a01b03168152600190910190602001808311614b05575b5050505050815260200160078201805480602002602001604051908101604052809291908181526020018280548015614b8557602002820191906000526020600020905b81546001600160a01b03168152600190910190602001808311614b67575b50505091835250506008919091015460ff161515602090910152905060005b8160c0015151811015614c4757336001600160a01b03168260c001518281518110614bd157614bd1615800565b60200260200101516001600160a01b03161415614c355763ffffffff84166000908152600560205260409020600601805482908110614c1257614c12615800565b600091825260209091200180546001600160a01b03191690555060019392505050565b80614c3f81615795565b915050614ba4565b5060005b8160e0015151811015614ccb57336001600160a01b03168260e001518281518110614c7857614c78615800565b60200260200101516001600160a01b03161415614cb95763ffffffff84166000908152600560205260409020600701805482908110614c1257614c12615800565b80614cc381615795565b915050614c4b565b5060009392505050565b828054614ce19061575a565b90600052602060002090601f016020900481019282614d035760008555614d49565b82601f10614d1c57805160ff1916838001178555614d49565b82800160010185558215614d49579182015b82811115614d49578251825591602001919060010190614d2e565b50614d55929150614e95565b5090565b82805482825590600052602060002090600701600890048101928215614d495791602002820160005b83821115614dc657835183826101000a81548163ffffffff021916908363ffffffff1602179055509260200192600401602081600301049283019260010302614d82565b8015614df65782816101000a81549063ffffffff0219169055600401602081600301049283019260010302614dc6565b5050614d55929150614e95565b828054828255906000526020600020908101928215614d49579160200282015b82811115614d4957825182546001600160a01b0319166001600160a01b03909116178255602090920191600190910190614e23565b508054614e649061575a565b6000825580601f10614e74575050565b601f016020900490600052602060002090810190614e929190614e95565b50565b5b80821115614d555760008155600101614e96565b803560068110614eb957600080fd5b919050565b600082601f830112614ecf57600080fd5b8135614ee2614edd82615706565b6156d5565b818152846020838601011115614ef757600080fd5b816020850160208301376000918101602001919091529392505050565b803563ffffffff81168114614eb957600080fd5b600060208284031215614f3a57600080fd5b8135614f458161582c565b9392505050565b600080600060608486031215614f6157600080fd5b8335614f6c8161582c565b9250614f7a60208501614eaa565b9150604084013567ffffffffffffffff811115614f9657600080fd5b614fa286828701614ebe565b9150509250925092565b600080600080600060a08688031215614fc457600080fd5b8535614fcf8161582c565b9450602086013567ffffffffffffffff80821115614fec57600080fd5b614ff889838a01614ebe565b9550604088013591508082111561500e57600080fd5b5061501b88828901614ebe565b9598949750949560608101359550608001359392505050565b60008060006060848603121561504957600080fd5b835161505481615841565b602085015190935067ffffffffffffffff81111561507157600080fd5b8401601f8101861361508257600080fd5b8051615090614edd82615706565b8181528760208385010111156150a557600080fd5b6150b682602083016020860161572e565b80945050505060408401516150ca8161582c565b809150509250925092565b600080604083850312156150e857600080fd5b6150f183614eaa565b9150602083013567ffffffffffffffff81111561510d57600080fd5b61511985828601614ebe565b9150509250929050565b60006020828403121561513557600080fd5b813567ffffffffffffffff81111561514c57600080fd5b61515884828501614ebe565b949350505050565b6000806040838503121561517357600080fd5b823567ffffffffffffffff81111561518a57600080fd5b61519685828601614ebe565b92505060208301356151a78161582c565b809150509250929050565b6000806000606084860312156151c757600080fd5b833567ffffffffffffffff8111156151de57600080fd5b6151ea86828701614ebe565b9660208601359650604090950135949350505050565b6000806000806080858703121561521657600080fd5b843567ffffffffffffffff8082111561522e57600080fd5b61523a88838901614ebe565b9550602087013591508082111561525057600080fd5b5061525d87828801614ebe565b935050604085013560ff8116811461527457600080fd5b915061528260608601614f14565b905092959194509250565b60006020828403121561529f57600080fd5b5035919050565b6000602082840312156152b857600080fd5b614f4582614f14565b600080604083850312156152d457600080fd5b6152dd83614f14565b915060208301356151a781615841565b600081518084526020808501945080840160005b838110156153265781516001600160a01b031687529582019590820190600101615301565b509495945050505050565b600081518084526020808501945080840160005b8381101561532657815163ffffffff1687529582019590820190600101615345565b6006811061538557634e487b7160e01b600052602160045260246000fd5b9052565b600081518084526153a181602086016020860161572e565b601f01601f19169290920160200192915050565b600082516153c781846020870161572e565b9190910192915050565b600080835481600182811c9150808316806153ed57607f831692505b602080841082141561540d57634e487b7160e01b86526022600452602486fd5b81801561542157600181146154325761545f565b60ff1986168952848901965061545f565b60008a81526020902060005b868110156154575781548b82015290850190830161543e565b505084890196505b509498975050505050505050565b6001600160a01b03841681526154866020820184615367565b60606040820152600061549c6060830184615389565b95945050505050565b6000602080830181845280855180835260408601915060408160051b870101925083870160005b828110156154fa57603f198886030184526154e8858351615389565b945092850192908501906001016154cc565b5092979650505050505050565b602081526000614f456020830184615331565b89151581526001600160a01b0389166020820152610120604082018190526000906155478382018b615389565b9050828103606084015261555b818a615389565b905063ffffffff8816608084015282810360a084015261557b8188615331565b905060ff861660c084015282810360e084015261559881866152ed565b90508281036101008401526155ad81856152ed565b9c9b505050505050505050505050565b82151581526040602082015260006151586040830184615331565b83151581526060602082015260006155f36060830185615389565b905060018060a01b0383166040830152949350505050565b851515815260a06020820152600061562660a0830187615389565b82810360408401526156388187615389565b90506156476060840186615367565b82810360808401526156598185615389565b98975050505050505050565b602081526000614f456020830184615389565b6020808252603c908201527f526571756972656420726f6c6520697320636173686965722c2062757420726560408201527f7175697265642073686f70206973206e6f742073706563696669656400000000606082015260800190565b604051601f8201601f1916810167ffffffffffffffff811182821017156156fe576156fe615816565b604052919050565b600067ffffffffffffffff82111561572057615720615816565b50601f01601f191660200190565b60005b83811015615749578181015183820152602001615731565b838111156116105750506000910152565b600181811c9082168061576e57607f821691505b6020821081141561578f57634e487b7160e01b600052602260045260246000fd5b50919050565b60006000198214156157a9576157a96157d4565b5060010190565b600063ffffffff808316818114156157ca576157ca6157d4565b6001019392505050565b634e487b7160e01b600052601160045260246000fd5b634e487b7160e01b600052602160045260246000fd5b634e487b7160e01b600052603260045260246000fd5b634e487b7160e01b600052604160045260246000fd5b6001600160a01b0381168114614e9257600080fd5b8015158114614e9257600080fdfe596f7520617265206e6f74207065726d697474656420746f20657865637574652074686973206f7065726174696f6ea264697066735822122084ebf59005e405b2c7931ff4163747d0719c97ea00ef73dcba6a208ce7a48d0264736f6c63430008070033405787fa12a823e0f2b7631cc41b3ba8828b3321ca811111fa75cd3aa3bb5ace7d4e3eec80026719639ed4dba68916eb94c7a49a053e05c8f9578fe4e5a3d7ea8a35acfbc15ff81a39ae7d344fd709f28e8600b4aa8c65c6b64bfe7fe36bd19ba03ab19b866fc585b5cb1812a2f63ca861e7e7643ee5d43fd7106b623725fd67",
			"opcodes": "PUSH1 0xA0 PUSH1 0x40 MSTORE PUSH1 0x0 PUSH1 0x80 SWAP1 DUP2 MSTORE PUSH3 0x1B SWAP1 PUSH1 0x6 SWAP1 PUSH1 0x1 PUSH3 0x29CE JUMP JUMPDEST POP CALLVALUE DUP1 ISZERO PUSH3 0x29 JUMPI PUSH1 0x0 DUP1 REVERT JUMPDEST POP PUSH1 0x40 DUP1 MLOAD PUSH2 0x140 DUP2 ADD DUP3 MSTORE PUSH1 0x7 PUSH2 0x100 DUP3 ADD DUP2 DUP2 MSTORE PUSH7 0x3236B4BA3937BB PUSH1 0xC9 SHL PUSH2 0x120 DUP5 ADD MSTORE DUP3 MSTORE DUP3 MLOAD DUP1 DUP5 ADD DUP5 MSTORE PUSH1 0xC DUP2 MSTORE PUSH12 0x446D6974726F762053686F7 PUSH1 0xA4 SHL PUSH1 0x20 DUP1 DUP4 ADD SWAP2 SWAP1 SWAP2 MSTORE DUP1 DUP5 ADD SWAP2 SWAP1 SWAP2 MSTORE PUSH1 0x0 DUP1 MLOAD PUSH1 0x20 PUSH3 0x84FC DUP4 CODECOPY DUP2 MLOAD SWAP2 MSTORE DUP4 DUP6 ADD MSTORE PUSH1 0x0 DUP1 MLOAD PUSH1 0x20 PUSH3 0x84BC DUP4 CODECOPY DUP2 MLOAD SWAP2 MSTORE PUSH1 0x60 DUP1 DUP6 ADD SWAP2 SWAP1 SWAP2 MSTORE PUSH1 0x3 PUSH1 0x80 DUP6 ADD MSTORE DUP5 MLOAD DUP1 DUP7 ADD SWAP1 SWAP6 MSTORE SWAP2 DUP5 MSTORE PUSH7 0x2236B4BA3937BB PUSH1 0xC9 SHL DUP5 DUP3 ADD MSTORE PUSH1 0xA0 DUP4 ADD SWAP4 SWAP1 SWAP4 MSTORE PUSH1 0xC0 DUP3 ADD DUP2 SWAP1 MSTORE PUSH1 0x1 PUSH1 0xE0 DUP4 ADD MSTORE PUSH20 0x45C16ACB0B0A616994C5DBAC60C05E4453029093 PUSH1 0x0 SWAP1 DUP2 MSTORE DUP4 MSTORE DUP2 MLOAD DUP1 MLOAD SWAP2 SWAP4 PUSH32 0x64005F3FB0BFA42221729316B7732E1CE5121E861365B82B0042F12629FD779F SWAP3 PUSH3 0x134 SWAP3 DUP5 SWAP3 ADD SWAP1 PUSH3 0x2A81 JUMP JUMPDEST POP PUSH1 0x20 DUP3 DUP2 ADD MLOAD DUP1 MLOAD PUSH3 0x14F SWAP3 PUSH1 0x1 DUP6 ADD SWAP3 ADD SWAP1 PUSH3 0x2A81 JUMP JUMPDEST POP PUSH1 0x40 DUP3 ADD MLOAD PUSH1 0x2 DUP3 ADD SSTORE PUSH1 0x60 DUP3 ADD MLOAD PUSH1 0x3 DUP3 ADD SSTORE PUSH1 0x80 DUP3 ADD MLOAD PUSH1 0x4 DUP3 ADD DUP1 SLOAD PUSH1 0xFF NOT AND PUSH1 0x1 DUP4 PUSH1 0x5 DUP2 GT ISZERO PUSH3 0x18A JUMPI PUSH3 0x18A PUSH3 0x2BC2 JUMP JUMPDEST MUL OR SWAP1 SSTORE POP PUSH1 0xA0 DUP3 ADD MLOAD DUP1 MLOAD PUSH3 0x1AC SWAP2 PUSH1 0x5 DUP5 ADD SWAP2 PUSH1 0x20 SWAP1 SWAP2 ADD SWAP1 PUSH3 0x2A81 JUMP JUMPDEST POP PUSH1 0xC0 DUP3 ADD MLOAD DUP1 MLOAD PUSH3 0x1CA SWAP2 PUSH1 0x6 DUP5 ADD SWAP2 PUSH1 0x20 SWAP1 SWAP2 ADD SWAP1 PUSH3 0x2AFE JUMP JUMPDEST POP PUSH1 0xE0 SWAP2 SWAP1 SWAP2 ADD MLOAD PUSH1 0x7 SWAP2 DUP3 ADD DUP1 SLOAD PUSH1 0xFF NOT AND SWAP2 ISZERO ISZERO SWAP2 SWAP1 SWAP2 OR SWAP1 SSTORE PUSH1 0x40 DUP1 MLOAD PUSH7 0x3236B4BA3937BB PUSH1 0xC9 SHL DUP1 DUP3 MSTORE PUSH1 0x1 DUP3 DUP6 ADD DUP2 SWAP1 MSTORE DUP4 MLOAD SWAP3 DUP4 SWAP1 SUB PUSH1 0x27 ADD DUP4 KECCAK256 DUP1 SLOAD PUSH20 0x45C16ACB0B0A616994C5DBAC60C05E4453029093 PUSH1 0x1 PUSH1 0x1 PUSH1 0xA0 SHL SUB NOT SWAP1 SWAP2 AND OR SWAP1 SSTORE PUSH1 0x2 DUP1 SLOAD SWAP2 DUP3 ADD DUP2 SSTORE PUSH1 0x0 MSTORE DUP3 DUP5 ADD SWAP1 SWAP4 MSTORE DUP4 DUP3 MSTORE PUSH1 0x20 SWAP1 SWAP2 ADD SWAP1 DUP2 MSTORE PUSH3 0x26D SWAP3 PUSH1 0x0 DUP1 MLOAD PUSH1 0x20 PUSH3 0x849C DUP4 CODECOPY DUP2 MLOAD SWAP2 MSTORE SWAP1 SWAP3 ADD SWAP2 PUSH3 0x2A81 JUMP JUMPDEST POP PUSH1 0x40 DUP1 MLOAD PUSH1 0xA0 DUP2 ADD DUP3 MSTORE PUSH1 0x7 PUSH1 0x60 DUP3 ADD SWAP1 DUP2 MSTORE PUSH7 0x2236B4BA3937BB PUSH1 0xC9 SHL PUSH1 0x80 DUP4 ADD MSTORE DUP2 MSTORE PUSH20 0x45C16ACB0B0A616994C5DBAC60C05E4453029093 PUSH1 0x20 DUP3 ADD MSTORE PUSH1 0x1 DUP2 DUP4 ADD MSTORE SWAP1 MLOAD PUSH1 0x3 SWAP1 PUSH3 0x2D0 SWAP1 PUSH7 0x2236B4BA3937BB PUSH1 0xC9 SHL DUP2 MSTORE PUSH1 0x7 ADD SWAP1 JUMP JUMPDEST SWAP1 DUP2 MSTORE PUSH1 0x20 ADD PUSH1 0x40 MLOAD DUP1 SWAP2 SUB SWAP1 KECCAK256 PUSH1 0x0 DUP3 ADD MLOAD DUP2 PUSH1 0x0 ADD SWAP1 DUP1 MLOAD SWAP1 PUSH1 0x20 ADD SWAP1 PUSH3 0x2FC SWAP3 SWAP2 SWAP1 PUSH3 0x2A81 JUMP JUMPDEST POP PUSH1 0x20 DUP3 DUP2 ADD MLOAD PUSH1 0x1 SWAP3 DUP4 ADD DUP1 SLOAD PUSH1 0x40 SWAP6 DUP7 ADD MLOAD ISZERO ISZERO PUSH1 0x1 PUSH1 0xA0 SHL MUL PUSH1 0x1 PUSH1 0x1 PUSH1 0xA8 SHL SUB NOT SWAP1 SWAP2 AND PUSH1 0x1 PUSH1 0x1 PUSH1 0xA0 SHL SUB SWAP1 SWAP4 AND SWAP3 SWAP1 SWAP3 OR SWAP2 SWAP1 SWAP2 OR SWAP1 SSTORE PUSH1 0x4 DUP1 SLOAD SWAP3 DUP4 ADD DUP2 SSTORE PUSH1 0x0 MSTORE DUP3 MLOAD DUP1 DUP5 ADD SWAP1 SWAP4 MSTORE PUSH1 0x7 DUP1 DUP5 MSTORE PUSH7 0x2236B4BA3937BB PUSH1 0xC9 SHL SWAP4 SWAP1 SWAP2 ADD SWAP3 DUP4 MSTORE PUSH3 0x384 SWAP3 PUSH1 0x0 DUP1 MLOAD PUSH1 0x20 PUSH3 0x84DC DUP4 CODECOPY DUP2 MLOAD SWAP2 MSTORE SWAP1 SWAP3 ADD SWAP2 SWAP1 PUSH3 0x2A81 JUMP JUMPDEST POP PUSH1 0x40 DUP1 MLOAD PUSH2 0x140 DUP2 ADD DUP3 MSTORE PUSH1 0x6 PUSH2 0x100 DUP3 ADD DUP2 DUP2 MSTORE PUSH6 0x6B616C756761 PUSH1 0xD0 SHL PUSH2 0x120 DUP5 ADD MSTORE DUP3 MSTORE DUP3 MLOAD DUP1 DUP5 ADD DUP5 MSTORE PUSH1 0xB DUP2 MSTORE PUSH11 0x4B616C7567612053686F7 PUSH1 0xAC SHL PUSH1 0x20 DUP1 DUP4 ADD SWAP2 SWAP1 SWAP2 MSTORE DUP1 DUP5 ADD SWAP2 SWAP1 SWAP2 MSTORE PUSH1 0x0 DUP1 MLOAD PUSH1 0x20 PUSH3 0x84FC DUP4 CODECOPY DUP2 MLOAD SWAP2 MSTORE DUP4 DUP6 ADD MSTORE PUSH1 0x0 DUP1 MLOAD PUSH1 0x20 PUSH3 0x84BC DUP4 CODECOPY DUP2 MLOAD SWAP2 MSTORE PUSH1 0x60 DUP5 ADD MSTORE PUSH1 0x3 PUSH1 0x80 DUP5 ADD MSTORE DUP4 MLOAD DUP1 DUP6 ADD SWAP1 SWAP5 MSTORE SWAP1 DUP4 MSTORE PUSH6 0x4B616C756761 PUSH1 0xD0 SHL DUP4 DUP3 ADD MSTORE PUSH1 0xA0 DUP3 ADD SWAP3 SWAP1 SWAP3 MSTORE PUSH1 0xC0 DUP2 ADD DUP4 SWAP1 MSTORE PUSH1 0x1 PUSH1 0xE0 DUP3 ADD MSTORE PUSH20 0xED637709F4EDAC6A5008FB7405794E753A1EAD90 PUSH1 0x0 SWAP1 DUP2 MSTORE DUP3 MSTORE DUP1 MLOAD DUP1 MLOAD SWAP2 SWAP3 PUSH32 0x587D3FB32C47AFF2771C95F2FD796AD73AFE340B834AF445454845707B77AFCC SWAP3 PUSH3 0x488 SWAP3 DUP5 SWAP3 ADD SWAP1 PUSH3 0x2A81 JUMP JUMPDEST POP PUSH1 0x20 DUP3 DUP2 ADD MLOAD DUP1 MLOAD PUSH3 0x4A3 SWAP3 PUSH1 0x1 DUP6 ADD SWAP3 ADD SWAP1 PUSH3 0x2A81 JUMP JUMPDEST POP PUSH1 0x40 DUP3 ADD MLOAD PUSH1 0x2 DUP3 ADD SSTORE PUSH1 0x60 DUP3 ADD MLOAD PUSH1 0x3 DUP3 ADD SSTORE PUSH1 0x80 DUP3 ADD MLOAD PUSH1 0x4 DUP3 ADD DUP1 SLOAD PUSH1 0xFF NOT AND PUSH1 0x1 DUP4 PUSH1 0x5 DUP2 GT ISZERO PUSH3 0x4DE JUMPI PUSH3 0x4DE PUSH3 0x2BC2 JUMP JUMPDEST MUL OR SWAP1 SSTORE POP PUSH1 0xA0 DUP3 ADD MLOAD DUP1 MLOAD PUSH3 0x500 SWAP2 PUSH1 0x5 DUP5 ADD SWAP2 PUSH1 0x20 SWAP1 SWAP2 ADD SWAP1 PUSH3 0x2A81 JUMP JUMPDEST POP PUSH1 0xC0 DUP3 ADD MLOAD DUP1 MLOAD PUSH3 0x51E SWAP2 PUSH1 0x6 DUP5 ADD SWAP2 PUSH1 0x20 SWAP1 SWAP2 ADD SWAP1 PUSH3 0x2AFE JUMP JUMPDEST POP PUSH1 0xE0 SWAP2 SWAP1 SWAP2 ADD MLOAD PUSH1 0x7 SWAP1 SWAP2 ADD DUP1 SLOAD PUSH1 0xFF NOT AND SWAP2 ISZERO ISZERO SWAP2 SWAP1 SWAP2 OR SWAP1 SSTORE PUSH1 0x40 DUP1 MLOAD PUSH6 0x6B616C756761 PUSH1 0xD0 SHL DUP1 DUP3 MSTORE PUSH1 0x1 PUSH1 0x6 DUP1 DUP5 ADD DUP3 SWAP1 MSTORE DUP5 MLOAD SWAP4 DUP5 SWAP1 SUB PUSH1 0x26 ADD DUP5 KECCAK256 DUP1 SLOAD PUSH20 0xED637709F4EDAC6A5008FB7405794E753A1EAD90 PUSH1 0x1 PUSH1 0x1 PUSH1 0xA0 SHL SUB NOT SWAP1 SWAP2 AND OR SWAP1 SSTORE PUSH1 0x2 DUP1 SLOAD SWAP3 DUP4 ADD DUP2 SSTORE PUSH1 0x0 MSTORE DUP4 DUP6 ADD SWAP1 SWAP5 MSTORE DUP4 DUP4 MSTORE PUSH1 0x20 SWAP1 SWAP3 ADD SWAP1 DUP2 MSTORE PUSH3 0x5C2 SWAP3 PUSH1 0x0 DUP1 MLOAD PUSH1 0x20 PUSH3 0x849C DUP4 CODECOPY DUP2 MLOAD SWAP2 MSTORE SWAP1 SWAP3 ADD SWAP2 PUSH3 0x2A81 JUMP JUMPDEST POP PUSH1 0x40 DUP1 MLOAD PUSH1 0xA0 DUP2 ADD DUP3 MSTORE PUSH1 0x6 PUSH1 0x60 DUP3 ADD SWAP1 DUP2 MSTORE PUSH6 0x4B616C756761 PUSH1 0xD0 SHL PUSH1 0x80 DUP4 ADD MSTORE DUP2 MSTORE PUSH20 0xED637709F4EDAC6A5008FB7405794E753A1EAD90 PUSH1 0x20 DUP3 ADD MSTORE PUSH1 0x1 DUP2 DUP4 ADD MSTORE SWAP1 MLOAD PUSH1 0x3 SWAP1 PUSH3 0x623 SWAP1 PUSH6 0x4B616C756761 PUSH1 0xD0 SHL DUP2 MSTORE PUSH1 0x6 ADD SWAP1 JUMP JUMPDEST SWAP1 DUP2 MSTORE PUSH1 0x20 ADD PUSH1 0x40 MLOAD DUP1 SWAP2 SUB SWAP1 KECCAK256 PUSH1 0x0 DUP3 ADD MLOAD DUP2 PUSH1 0x0 ADD SWAP1 DUP1 MLOAD SWAP1 PUSH1 0x20 ADD SWAP1 PUSH3 0x64F SWAP3 SWAP2 SWAP1 PUSH3 0x2A81 JUMP JUMPDEST POP PUSH1 0x20 DUP3 DUP2 ADD MLOAD PUSH1 0x1 SWAP3 DUP4 ADD DUP1 SLOAD PUSH1 0x40 SWAP6 DUP7 ADD MLOAD ISZERO ISZERO PUSH1 0x1 PUSH1 0xA0 SHL MUL PUSH1 0x1 PUSH1 0x1 PUSH1 0xA8 SHL SUB NOT SWAP1 SWAP2 AND PUSH1 0x1 PUSH1 0x1 PUSH1 0xA0 SHL SUB SWAP1 SWAP4 AND SWAP3 SWAP1 SWAP3 OR SWAP2 SWAP1 SWAP2 OR SWAP1 SSTORE PUSH1 0x4 DUP1 SLOAD SWAP3 DUP4 ADD DUP2 SSTORE PUSH1 0x0 MSTORE DUP3 MLOAD DUP1 DUP5 ADD SWAP1 SWAP4 MSTORE PUSH1 0x6 DUP1 DUP5 MSTORE PUSH6 0x4B616C756761 PUSH1 0xD0 SHL SWAP4 SWAP1 SWAP2 ADD SWAP3 DUP4 MSTORE PUSH3 0x6D6 SWAP3 PUSH1 0x0 DUP1 MLOAD PUSH1 0x20 PUSH3 0x84DC DUP4 CODECOPY DUP2 MLOAD SWAP2 MSTORE SWAP1 SWAP3 ADD SWAP2 SWAP1 PUSH3 0x2A81 JUMP JUMPDEST POP PUSH1 0x40 DUP1 MLOAD PUSH2 0x140 DUP2 ADD DUP3 MSTORE PUSH1 0x6 PUSH2 0x100 DUP3 ADD DUP2 DUP2 MSTORE PUSH6 0x6D6F73636F77 PUSH1 0xD0 SHL PUSH2 0x120 DUP5 ADD MSTORE DUP3 MSTORE DUP3 MLOAD DUP1 DUP5 ADD DUP5 MSTORE PUSH1 0xB DUP2 MSTORE PUSH11 0x4D6F73636F772053686F7 PUSH1 0xAC SHL PUSH1 0x20 DUP1 DUP4 ADD SWAP2 SWAP1 SWAP2 MSTORE DUP1 DUP5 ADD SWAP2 SWAP1 SWAP2 MSTORE PUSH1 0x0 DUP1 MLOAD PUSH1 0x20 PUSH3 0x84FC DUP4 CODECOPY DUP2 MLOAD SWAP2 MSTORE DUP4 DUP6 ADD MSTORE PUSH1 0x0 DUP1 MLOAD PUSH1 0x20 PUSH3 0x84BC DUP4 CODECOPY DUP2 MLOAD SWAP2 MSTORE PUSH1 0x60 DUP5 ADD MSTORE PUSH1 0x3 PUSH1 0x80 DUP5 ADD MSTORE DUP4 MLOAD DUP1 DUP6 ADD SWAP1 SWAP5 MSTORE SWAP1 DUP4 MSTORE PUSH6 0x4D6F73636F77 PUSH1 0xD0 SHL DUP4 DUP3 ADD MSTORE PUSH1 0xA0 DUP3 ADD SWAP3 SWAP1 SWAP3 MSTORE PUSH1 0xC0 DUP2 ADD DUP4 SWAP1 MSTORE PUSH1 0x1 PUSH1 0xE0 DUP3 ADD MSTORE PUSH20 0x26280BC071E734EBBFBBA9EEEF0A7C2FAF1BA4A5 PUSH1 0x0 SWAP1 DUP2 MSTORE DUP3 MSTORE DUP1 MLOAD DUP1 MLOAD SWAP2 SWAP3 PUSH32 0xCECB9FB5C050A4AC9F46D5FFCE21281D05DA12E0CCC5340CD6D2B4949ADCC482 SWAP3 PUSH3 0x7DA SWAP3 DUP5 SWAP3 ADD SWAP1 PUSH3 0x2A81 JUMP JUMPDEST POP PUSH1 0x20 DUP3 DUP2 ADD MLOAD DUP1 MLOAD PUSH3 0x7F5 SWAP3 PUSH1 0x1 DUP6 ADD SWAP3 ADD SWAP1 PUSH3 0x2A81 JUMP JUMPDEST POP PUSH1 0x40 DUP3 ADD MLOAD PUSH1 0x2 DUP3 ADD SSTORE PUSH1 0x60 DUP3 ADD MLOAD PUSH1 0x3 DUP3 ADD SSTORE PUSH1 0x80 DUP3 ADD MLOAD PUSH1 0x4 DUP3 ADD DUP1 SLOAD PUSH1 0xFF NOT AND PUSH1 0x1 DUP4 PUSH1 0x5 DUP2 GT ISZERO PUSH3 0x830 JUMPI PUSH3 0x830 PUSH3 0x2BC2 JUMP JUMPDEST MUL OR SWAP1 SSTORE POP PUSH1 0xA0 DUP3 ADD MLOAD DUP1 MLOAD PUSH3 0x852 SWAP2 PUSH1 0x5 DUP5 ADD SWAP2 PUSH1 0x20 SWAP1 SWAP2 ADD SWAP1 PUSH3 0x2A81 JUMP JUMPDEST POP PUSH1 0xC0 DUP3 ADD MLOAD DUP1 MLOAD PUSH3 0x870 SWAP2 PUSH1 0x6 DUP5 ADD SWAP2 PUSH1 0x20 SWAP1 SWAP2 ADD SWAP1 PUSH3 0x2AFE JUMP JUMPDEST POP PUSH1 0xE0 SWAP2 SWAP1 SWAP2 ADD MLOAD PUSH1 0x7 SWAP1 SWAP2 ADD DUP1 SLOAD PUSH1 0xFF NOT AND SWAP2 ISZERO ISZERO SWAP2 SWAP1 SWAP2 OR SWAP1 SSTORE PUSH1 0x40 DUP1 MLOAD PUSH6 0x6D6F73636F77 PUSH1 0xD0 SHL DUP1 DUP3 MSTORE PUSH1 0x1 PUSH1 0x6 DUP1 DUP5 ADD DUP3 SWAP1 MSTORE DUP5 MLOAD SWAP4 DUP5 SWAP1 SUB PUSH1 0x26 ADD DUP5 KECCAK256 DUP1 SLOAD PUSH20 0x26280BC071E734EBBFBBA9EEEF0A7C2FAF1BA4A5 PUSH1 0x1 PUSH1 0x1 PUSH1 0xA0 SHL SUB NOT SWAP1 SWAP2 AND OR SWAP1 SSTORE PUSH1 0x2 DUP1 SLOAD SWAP3 DUP4 ADD DUP2 SSTORE PUSH1 0x0 MSTORE DUP4 DUP6 ADD SWAP1 SWAP5 MSTORE DUP4 DUP4 MSTORE PUSH1 0x20 SWAP1 SWAP3 ADD SWAP1 DUP2 MSTORE PUSH3 0x914 SWAP3 PUSH1 0x0 DUP1 MLOAD PUSH1 0x20 PUSH3 0x849C DUP4 CODECOPY DUP2 MLOAD SWAP2 MSTORE SWAP1 SWAP3 ADD SWAP2 PUSH3 0x2A81 JUMP JUMPDEST POP PUSH1 0x40 DUP1 MLOAD PUSH1 0xA0 DUP2 ADD DUP3 MSTORE PUSH1 0x6 PUSH1 0x60 DUP3 ADD SWAP1 DUP2 MSTORE PUSH6 0x4D6F73636F77 PUSH1 0xD0 SHL PUSH1 0x80 DUP4 ADD MSTORE DUP2 MSTORE PUSH20 0x26280BC071E734EBBFBBA9EEEF0A7C2FAF1BA4A5 PUSH1 0x20 DUP3 ADD MSTORE PUSH1 0x1 DUP2 DUP4 ADD MSTORE SWAP1 MLOAD PUSH1 0x3 SWAP1 PUSH3 0x975 SWAP1 PUSH6 0x4D6F73636F77 PUSH1 0xD0 SHL DUP2 MSTORE PUSH1 0x6 ADD SWAP1 JUMP JUMPDEST SWAP1 DUP2 MSTORE PUSH1 0x20 ADD PUSH1 0x40 MLOAD DUP1 SWAP2 SUB SWAP1 KECCAK256 PUSH1 0x0 DUP3 ADD MLOAD DUP2 PUSH1 0x0 ADD SWAP1 DUP1 MLOAD SWAP1 PUSH1 0x20 ADD SWAP1 PUSH3 0x9A1 SWAP3 SWAP2 SWAP1 PUSH3 0x2A81 JUMP JUMPDEST POP PUSH1 0x20 DUP3 DUP2 ADD MLOAD PUSH1 0x1 SWAP3 DUP4 ADD DUP1 SLOAD PUSH1 0x40 SWAP6 DUP7 ADD MLOAD ISZERO ISZERO PUSH1 0x1 PUSH1 0xA0 SHL MUL PUSH1 0x1 PUSH1 0x1 PUSH1 0xA8 SHL SUB NOT SWAP1 SWAP2 AND PUSH1 0x1 PUSH1 0x1 PUSH1 0xA0 SHL SUB SWAP1 SWAP4 AND SWAP3 SWAP1 SWAP3 OR SWAP2 SWAP1 SWAP2 OR SWAP1 SSTORE PUSH1 0x4 DUP1 SLOAD SWAP3 DUP4 ADD DUP2 SSTORE PUSH1 0x0 MSTORE DUP3 MLOAD DUP1 DUP5 ADD SWAP1 SWAP4 MSTORE PUSH1 0x6 DUP1 DUP5 MSTORE PUSH6 0x4D6F73636F77 PUSH1 0xD0 SHL SWAP4 SWAP1 SWAP2 ADD SWAP3 DUP4 MSTORE PUSH3 0xA28 SWAP3 PUSH1 0x0 DUP1 MLOAD PUSH1 0x20 PUSH3 0x84DC DUP4 CODECOPY DUP2 MLOAD SWAP2 MSTORE SWAP1 SWAP3 ADD SWAP2 SWAP1 PUSH3 0x2A81 JUMP JUMPDEST POP PUSH1 0x40 DUP1 MLOAD PUSH2 0x140 DUP2 ADD DUP3 MSTORE PUSH1 0x6 PUSH2 0x100 DUP3 ADD DUP2 DUP2 MSTORE PUSH6 0x393CB0BD30B7 PUSH1 0xD1 SHL PUSH2 0x120 DUP5 ADD MSTORE DUP3 MSTORE DUP3 MLOAD DUP1 DUP5 ADD DUP5 MSTORE PUSH1 0xB DUP2 MSTORE PUSH11 0x5279617A616E2053686F7 PUSH1 0xAC SHL PUSH1 0x20 DUP1 DUP4 ADD SWAP2 SWAP1 SWAP2 MSTORE DUP1 DUP5 ADD SWAP2 SWAP1 SWAP2 MSTORE PUSH1 0x0 DUP1 MLOAD PUSH1 0x20 PUSH3 0x84FC DUP4 CODECOPY DUP2 MLOAD SWAP2 MSTORE DUP4 DUP6 ADD MSTORE PUSH1 0x0 DUP1 MLOAD PUSH1 0x20 PUSH3 0x84BC DUP4 CODECOPY DUP2 MLOAD SWAP2 MSTORE PUSH1 0x60 DUP5 ADD MSTORE PUSH1 0x3 PUSH1 0x80 DUP5 ADD MSTORE DUP4 MLOAD DUP1 DUP6 ADD SWAP1 SWAP5 MSTORE SWAP1 DUP4 MSTORE PUSH6 0x293CB0BD30B7 PUSH1 0xD1 SHL DUP4 DUP3 ADD MSTORE PUSH1 0xA0 DUP3 ADD SWAP3 SWAP1 SWAP3 MSTORE PUSH1 0xC0 DUP2 ADD DUP4 SWAP1 MSTORE PUSH1 0x1 PUSH1 0xE0 DUP3 ADD MSTORE PUSH20 0xF3A7531B5991AEDEEAB93B43300EA2BE0F26DED9 PUSH1 0x0 SWAP1 DUP2 MSTORE DUP3 MSTORE DUP1 MLOAD DUP1 MLOAD SWAP2 SWAP3 PUSH32 0x441503337FA90BA1159010054C8D5E9408DF96C82BE5E114141440BA51CF09B7 SWAP3 PUSH3 0xB2C SWAP3 DUP5 SWAP3 ADD SWAP1 PUSH3 0x2A81 JUMP JUMPDEST POP PUSH1 0x20 DUP3 DUP2 ADD MLOAD DUP1 MLOAD PUSH3 0xB47 SWAP3 PUSH1 0x1 DUP6 ADD SWAP3 ADD SWAP1 PUSH3 0x2A81 JUMP JUMPDEST POP PUSH1 0x40 DUP3 ADD MLOAD PUSH1 0x2 DUP3 ADD SSTORE PUSH1 0x60 DUP3 ADD MLOAD PUSH1 0x3 DUP3 ADD SSTORE PUSH1 0x80 DUP3 ADD MLOAD PUSH1 0x4 DUP3 ADD DUP1 SLOAD PUSH1 0xFF NOT AND PUSH1 0x1 DUP4 PUSH1 0x5 DUP2 GT ISZERO PUSH3 0xB82 JUMPI PUSH3 0xB82 PUSH3 0x2BC2 JUMP JUMPDEST MUL OR SWAP1 SSTORE POP PUSH1 0xA0 DUP3 ADD MLOAD DUP1 MLOAD PUSH3 0xBA4 SWAP2 PUSH1 0x5 DUP5 ADD SWAP2 PUSH1 0x20 SWAP1 SWAP2 ADD SWAP1 PUSH3 0x2A81 JUMP JUMPDEST POP PUSH1 0xC0 DUP3 ADD MLOAD DUP1 MLOAD PUSH3 0xBC2 SWAP2 PUSH1 0x6 DUP5 ADD SWAP2 PUSH1 0x20 SWAP1 SWAP2 ADD SWAP1 PUSH3 0x2AFE JUMP JUMPDEST POP PUSH1 0xE0 SWAP2 SWAP1 SWAP2 ADD MLOAD PUSH1 0x7 SWAP1 SWAP2 ADD DUP1 SLOAD PUSH1 0xFF NOT AND SWAP2 ISZERO ISZERO SWAP2 SWAP1 SWAP2 OR SWAP1 SSTORE PUSH1 0x40 DUP1 MLOAD PUSH6 0x393CB0BD30B7 PUSH1 0xD1 SHL DUP1 DUP3 MSTORE PUSH1 0x1 PUSH1 0x6 DUP1 DUP5 ADD DUP3 SWAP1 MSTORE DUP5 MLOAD SWAP4 DUP5 SWAP1 SUB PUSH1 0x26 ADD DUP5 KECCAK256 DUP1 SLOAD PUSH20 0xF3A7531B5991AEDEEAB93B43300EA2BE0F26DED9 PUSH1 0x1 PUSH1 0x1 PUSH1 0xA0 SHL SUB NOT SWAP1 SWAP2 AND OR SWAP1 SSTORE PUSH1 0x2 DUP1 SLOAD SWAP3 DUP4 ADD DUP2 SSTORE PUSH1 0x0 MSTORE DUP4 DUP6 ADD SWAP1 SWAP5 MSTORE DUP4 DUP4 MSTORE PUSH1 0x20 SWAP1 SWAP3 ADD SWAP1 DUP2 MSTORE PUSH3 0xC66 SWAP3 PUSH1 0x0 DUP1 MLOAD PUSH1 0x20 PUSH3 0x849C DUP4 CODECOPY DUP2 MLOAD SWAP2 MSTORE SWAP1 SWAP3 ADD SWAP2 PUSH3 0x2A81 JUMP JUMPDEST POP PUSH1 0x40 DUP1 MLOAD PUSH1 0xA0 DUP2 ADD DUP3 MSTORE PUSH1 0x6 PUSH1 0x60 DUP3 ADD SWAP1 DUP2 MSTORE PUSH6 0x293CB0BD30B7 PUSH1 0xD1 SHL PUSH1 0x80 DUP4 ADD MSTORE DUP2 MSTORE PUSH20 0xF3A7531B5991AEDEEAB93B43300EA2BE0F26DED9 PUSH1 0x20 DUP3 ADD MSTORE PUSH1 0x1 DUP2 DUP4 ADD MSTORE SWAP1 MLOAD PUSH1 0x3 SWAP1 PUSH3 0xCC7 SWAP1 PUSH6 0x293CB0BD30B7 PUSH1 0xD1 SHL DUP2 MSTORE PUSH1 0x6 ADD SWAP1 JUMP JUMPDEST SWAP1 DUP2 MSTORE PUSH1 0x20 ADD PUSH1 0x40 MLOAD DUP1 SWAP2 SUB SWAP1 KECCAK256 PUSH1 0x0 DUP3 ADD MLOAD DUP2 PUSH1 0x0 ADD SWAP1 DUP1 MLOAD SWAP1 PUSH1 0x20 ADD SWAP1 PUSH3 0xCF3 SWAP3 SWAP2 SWAP1 PUSH3 0x2A81 JUMP JUMPDEST POP PUSH1 0x20 DUP3 DUP2 ADD MLOAD PUSH1 0x1 SWAP3 DUP4 ADD DUP1 SLOAD PUSH1 0x40 SWAP6 DUP7 ADD MLOAD ISZERO ISZERO PUSH1 0x1 PUSH1 0xA0 SHL MUL PUSH1 0x1 PUSH1 0x1 PUSH1 0xA8 SHL SUB NOT SWAP1 SWAP2 AND PUSH1 0x1 PUSH1 0x1 PUSH1 0xA0 SHL SUB SWAP1 SWAP4 AND SWAP3 SWAP1 SWAP3 OR SWAP2 SWAP1 SWAP2 OR SWAP1 SSTORE PUSH1 0x4 DUP1 SLOAD SWAP3 DUP4 ADD DUP2 SSTORE PUSH1 0x0 MSTORE DUP3 MLOAD DUP1 DUP5 ADD SWAP1 SWAP4 MSTORE PUSH1 0x6 DUP1 DUP5 MSTORE PUSH6 0x293CB0BD30B7 PUSH1 0xD1 SHL SWAP4 SWAP1 SWAP2 ADD SWAP3 DUP4 MSTORE PUSH3 0xD7A SWAP3 PUSH1 0x0 DUP1 MLOAD PUSH1 0x20 PUSH3 0x84DC DUP4 CODECOPY DUP2 MLOAD SWAP2 MSTORE SWAP1 SWAP3 ADD SWAP2 SWAP1 PUSH3 0x2A81 JUMP JUMPDEST POP PUSH1 0x40 DUP1 MLOAD PUSH2 0x140 DUP2 ADD DUP3 MSTORE PUSH1 0x6 PUSH2 0x100 DUP3 ADD DUP2 DUP2 MSTORE PUSH6 0x73616D617261 PUSH1 0xD0 SHL PUSH2 0x120 DUP5 ADD MSTORE DUP3 MSTORE DUP3 MLOAD DUP1 DUP5 ADD DUP5 MSTORE PUSH1 0xB DUP2 MSTORE PUSH11 0x53616D6172612053686F7 PUSH1 0xAC SHL PUSH1 0x20 DUP1 DUP4 ADD SWAP2 SWAP1 SWAP2 MSTORE DUP1 DUP5 ADD SWAP2 SWAP1 SWAP2 MSTORE PUSH1 0x0 DUP1 MLOAD PUSH1 0x20 PUSH3 0x84FC DUP4 CODECOPY DUP2 MLOAD SWAP2 MSTORE DUP4 DUP6 ADD MSTORE PUSH1 0x0 DUP1 MLOAD PUSH1 0x20 PUSH3 0x84BC DUP4 CODECOPY DUP2 MLOAD SWAP2 MSTORE PUSH1 0x60 DUP5 ADD MSTORE PUSH1 0x3 PUSH1 0x80 DUP5 ADD MSTORE DUP4 MLOAD DUP1 DUP6 ADD SWAP1 SWAP5 MSTORE SWAP1 DUP4 MSTORE PUSH6 0x53616D617261 PUSH1 0xD0 SHL DUP4 DUP3 ADD MSTORE PUSH1 0xA0 DUP3 ADD SWAP3 SWAP1 SWAP3 MSTORE PUSH1 0xC0 DUP2 ADD DUP4 SWAP1 MSTORE PUSH1 0x1 PUSH1 0xE0 DUP3 ADD MSTORE PUSH20 0x45483719E57A7B10C73E842AABF9B009D1FE2E32 PUSH1 0x0 SWAP1 DUP2 MSTORE DUP3 MSTORE DUP1 MLOAD DUP1 MLOAD SWAP2 SWAP3 PUSH32 0xC38A5DED6676B1F402D40CB27A79F194C4C3F36883467742D176F1F68773DCFE SWAP3 PUSH3 0xE7E SWAP3 DUP5 SWAP3 ADD SWAP1 PUSH3 0x2A81 JUMP JUMPDEST POP PUSH1 0x20 DUP3 DUP2 ADD MLOAD DUP1 MLOAD PUSH3 0xE99 SWAP3 PUSH1 0x1 DUP6 ADD SWAP3 ADD SWAP1 PUSH3 0x2A81 JUMP JUMPDEST POP PUSH1 0x40 DUP3 ADD MLOAD PUSH1 0x2 DUP3 ADD SSTORE PUSH1 0x60 DUP3 ADD MLOAD PUSH1 0x3 DUP3 ADD SSTORE PUSH1 0x80 DUP3 ADD MLOAD PUSH1 0x4 DUP3 ADD DUP1 SLOAD PUSH1 0xFF NOT AND PUSH1 0x1 DUP4 PUSH1 0x5 DUP2 GT ISZERO PUSH3 0xED4 JUMPI PUSH3 0xED4 PUSH3 0x2BC2 JUMP JUMPDEST MUL OR SWAP1 SSTORE POP PUSH1 0xA0 DUP3 ADD MLOAD DUP1 MLOAD PUSH3 0xEF6 SWAP2 PUSH1 0x5 DUP5 ADD SWAP2 PUSH1 0x20 SWAP1 SWAP2 ADD SWAP1 PUSH3 0x2A81 JUMP JUMPDEST POP PUSH1 0xC0 DUP3 ADD MLOAD DUP1 MLOAD PUSH3 0xF14 SWAP2 PUSH1 0x6 DUP5 ADD SWAP2 PUSH1 0x20 SWAP1 SWAP2 ADD SWAP1 PUSH3 0x2AFE JUMP JUMPDEST POP PUSH1 0xE0 SWAP2 SWAP1 SWAP2 ADD MLOAD PUSH1 0x7 SWAP1 SWAP2 ADD DUP1 SLOAD PUSH1 0xFF NOT AND SWAP2 ISZERO ISZERO SWAP2 SWAP1 SWAP2 OR SWAP1 SSTORE PUSH1 0x40 DUP1 MLOAD PUSH6 0x73616D617261 PUSH1 0xD0 SHL DUP1 DUP3 MSTORE PUSH1 0x1 PUSH1 0x6 DUP1 DUP5 ADD DUP3 SWAP1 MSTORE DUP5 MLOAD SWAP4 DUP5 SWAP1 SUB PUSH1 0x26 ADD DUP5 KECCAK256 DUP1 SLOAD PUSH20 0x45483719E57A7B10C73E842AABF9B009D1FE2E32 PUSH1 0x1 PUSH1 0x1 PUSH1 0xA0 SHL SUB NOT SWAP1 SWAP2 AND OR SWAP1 SSTORE PUSH1 0x2 DUP1 SLOAD SWAP3 DUP4 ADD DUP2 SSTORE PUSH1 0x0 MSTORE DUP4 DUP6 ADD SWAP1 SWAP5 MSTORE DUP4 DUP4 MSTORE PUSH1 0x20 SWAP1 SWAP3 ADD SWAP1 DUP2 MSTORE PUSH3 0xFB8 SWAP3 PUSH1 0x0 DUP1 MLOAD PUSH1 0x20 PUSH3 0x849C DUP4 CODECOPY DUP2 MLOAD SWAP2 MSTORE SWAP1 SWAP3 ADD SWAP2 PUSH3 0x2A81 JUMP JUMPDEST POP PUSH1 0x40 DUP1 MLOAD PUSH1 0xA0 DUP2 ADD DUP3 MSTORE PUSH1 0x6 PUSH1 0x60 DUP3 ADD SWAP1 DUP2 MSTORE PUSH6 0x53616D617261 PUSH1 0xD0 SHL PUSH1 0x80 DUP4 ADD MSTORE DUP2 MSTORE PUSH20 0x45483719E57A7B10C73E842AABF9B009D1FE2E32 PUSH1 0x20 DUP3 ADD MSTORE PUSH1 0x1 DUP2 DUP4 ADD MSTORE SWAP1 MLOAD PUSH1 0x3 SWAP1 PUSH3 0x1019 SWAP1 PUSH6 0x53616D617261 PUSH1 0xD0 SHL DUP2 MSTORE PUSH1 0x6 ADD SWAP1 JUMP JUMPDEST SWAP1 DUP2 MSTORE PUSH1 0x20 ADD PUSH1 0x40 MLOAD DUP1 SWAP2 SUB SWAP1 KECCAK256 PUSH1 0x0 DUP3 ADD MLOAD DUP2 PUSH1 0x0 ADD SWAP1 DUP1 MLOAD SWAP1 PUSH1 0x20 ADD SWAP1 PUSH3 0x1045 SWAP3 SWAP2 SWAP1 PUSH3 0x2A81 JUMP JUMPDEST POP PUSH1 0x20 DUP3 DUP2 ADD MLOAD PUSH1 0x1 SWAP3 DUP4 ADD DUP1 SLOAD PUSH1 0x40 SWAP6 DUP7 ADD MLOAD ISZERO ISZERO PUSH1 0x1 PUSH1 0xA0 SHL MUL PUSH1 0x1 PUSH1 0x1 PUSH1 0xA8 SHL SUB NOT SWAP1 SWAP2 AND PUSH1 0x1 PUSH1 0x1 PUSH1 0xA0 SHL SUB SWAP1 SWAP4 AND SWAP3 SWAP1 SWAP3 OR SWAP2 SWAP1 SWAP2 OR SWAP1 SSTORE PUSH1 0x4 DUP1 SLOAD SWAP3 DUP4 ADD DUP2 SSTORE PUSH1 0x0 MSTORE DUP3 MLOAD DUP1 DUP5 ADD SWAP1 SWAP4 MSTORE PUSH1 0x6 DUP1 DUP5 MSTORE PUSH6 0x53616D617261 PUSH1 0xD0 SHL SWAP4 SWAP1 SWAP2 ADD SWAP3 DUP4 MSTORE PUSH3 0x10CC SWAP3 PUSH1 0x0 DUP1 MLOAD PUSH1 0x20 PUSH3 0x84DC DUP4 CODECOPY DUP2 MLOAD SWAP2 MSTORE SWAP1 SWAP3 ADD SWAP2 SWAP1 PUSH3 0x2A81 JUMP JUMPDEST POP PUSH1 0x40 DUP1 MLOAD PUSH2 0x140 DUP2 ADD DUP3 MSTORE PUSH1 0x10 PUSH2 0x100 DUP3 ADD DUP2 DUP2 MSTORE PUSH16 0x7361696E742D70657465727362757267 PUSH1 0x80 SHL PUSH2 0x120 DUP5 ADD MSTORE DUP3 MSTORE DUP3 MLOAD DUP1 DUP5 ADD DUP5 MSTORE PUSH1 0x15 DUP2 MSTORE PUSH32 0x5361696E7420506574657273627572672053686F700000000000000000000000 PUSH1 0x20 DUP1 DUP4 ADD SWAP2 SWAP1 SWAP2 MSTORE DUP1 DUP5 ADD SWAP2 SWAP1 SWAP2 MSTORE PUSH1 0x0 DUP1 MLOAD PUSH1 0x20 PUSH3 0x84FC DUP4 CODECOPY DUP2 MLOAD SWAP2 MSTORE DUP4 DUP6 ADD MSTORE PUSH1 0x0 DUP1 MLOAD PUSH1 0x20 PUSH3 0x84BC DUP4 CODECOPY DUP2 MLOAD SWAP2 MSTORE PUSH1 0x60 DUP5 ADD MSTORE PUSH1 0x3 PUSH1 0x80 DUP5 ADD MSTORE DUP4 MLOAD DUP1 DUP6 ADD SWAP1 SWAP5 MSTORE SWAP1 DUP4 MSTORE PUSH16 0x5361696E742050657465727362757267 PUSH1 0x80 SHL DUP4 DUP3 ADD MSTORE PUSH1 0xA0 DUP3 ADD SWAP3 SWAP1 SWAP3 MSTORE PUSH1 0xC0 DUP2 ADD DUP4 SWAP1 MSTORE PUSH1 0x1 PUSH1 0xE0 DUP3 ADD MSTORE PUSH20 0x1567F49DD576775D225D9C987880DEE8E2E0E3DA PUSH1 0x0 SWAP1 DUP2 MSTORE DUP3 MSTORE DUP1 MLOAD DUP1 MLOAD SWAP2 SWAP3 PUSH32 0xDA04F4C7F5241A11EF0D8284C962806C03AD65A0734EDF14D21C1D6C34A0FAC9 SWAP3 PUSH3 0x11F6 SWAP3 DUP5 SWAP3 ADD SWAP1 PUSH3 0x2A81 JUMP JUMPDEST POP PUSH1 0x20 DUP3 DUP2 ADD MLOAD DUP1 MLOAD PUSH3 0x1211 SWAP3 PUSH1 0x1 DUP6 ADD SWAP3 ADD SWAP1 PUSH3 0x2A81 JUMP JUMPDEST POP PUSH1 0x40 DUP3 ADD MLOAD PUSH1 0x2 DUP3 ADD SSTORE PUSH1 0x60 DUP3 ADD MLOAD PUSH1 0x3 DUP3 ADD SSTORE PUSH1 0x80 DUP3 ADD MLOAD PUSH1 0x4 DUP3 ADD DUP1 SLOAD PUSH1 0xFF NOT AND PUSH1 0x1 DUP4 PUSH1 0x5 DUP2 GT ISZERO PUSH3 0x124C JUMPI PUSH3 0x124C PUSH3 0x2BC2 JUMP JUMPDEST MUL OR SWAP1 SSTORE POP PUSH1 0xA0 DUP3 ADD MLOAD DUP1 MLOAD PUSH3 0x126E SWAP2 PUSH1 0x5 DUP5 ADD SWAP2 PUSH1 0x20 SWAP1 SWAP2 ADD SWAP1 PUSH3 0x2A81 JUMP JUMPDEST POP PUSH1 0xC0 DUP3 ADD MLOAD DUP1 MLOAD PUSH3 0x128C SWAP2 PUSH1 0x6 DUP5 ADD SWAP2 PUSH1 0x20 SWAP1 SWAP2 ADD SWAP1 PUSH3 0x2AFE JUMP JUMPDEST POP PUSH1 0xE0 SWAP2 SWAP1 SWAP2 ADD MLOAD PUSH1 0x7 SWAP1 SWAP2 ADD DUP1 SLOAD PUSH1 0xFF NOT AND SWAP2 ISZERO ISZERO SWAP2 SWAP1 SWAP2 OR SWAP1 SSTORE PUSH1 0x40 DUP1 MLOAD PUSH16 0x7361696E742D70657465727370757267 PUSH1 0x80 SHL DUP2 MSTORE PUSH1 0x1 PUSH1 0x10 DUP1 DUP4 ADD DUP3 SWAP1 MSTORE DUP4 MLOAD SWAP3 DUP4 SWAP1 SUB PUSH1 0x30 ADD DUP4 KECCAK256 DUP1 SLOAD PUSH20 0x1567F49DD576775D225D9C987880DEE8E2E0E3DA PUSH1 0x1 PUSH1 0x1 PUSH1 0xA0 SHL SUB NOT SWAP1 SWAP2 AND OR SWAP1 SSTORE PUSH1 0x2 DUP1 SLOAD SWAP3 DUP4 ADD DUP2 SSTORE PUSH1 0x0 MSTORE DUP3 DUP5 ADD SWAP1 SWAP4 MSTORE DUP3 DUP3 MSTORE PUSH16 0x7361696E742D70657465727362757267 PUSH1 0x80 SHL PUSH1 0x20 SWAP1 SWAP3 ADD SWAP2 DUP3 MSTORE PUSH3 0x134E SWAP3 PUSH1 0x0 DUP1 MLOAD PUSH1 0x20 PUSH3 0x849C DUP4 CODECOPY DUP2 MLOAD SWAP2 MSTORE SWAP1 SWAP2 ADD SWAP2 SWAP1 PUSH3 0x2A81 JUMP JUMPDEST POP PUSH1 0x40 DUP1 MLOAD PUSH1 0xA0 DUP2 ADD DUP3 MSTORE PUSH1 0x10 PUSH1 0x60 DUP3 ADD SWAP1 DUP2 MSTORE PUSH16 0x5361696E742050657465727362757267 PUSH1 0x80 SHL PUSH1 0x80 DUP4 ADD MSTORE DUP2 MSTORE PUSH20 0x1567F49DD576775D225D9C987880DEE8E2E0E3DA PUSH1 0x20 DUP3 ADD MSTORE PUSH1 0x1 DUP2 DUP4 ADD MSTORE SWAP1 MLOAD PUSH1 0x3 SWAP1 PUSH3 0x13C3 SWAP1 PUSH16 0x5361696E742050657465727362757267 PUSH1 0x80 SHL DUP2 MSTORE PUSH1 0x10 ADD SWAP1 JUMP JUMPDEST SWAP1 DUP2 MSTORE PUSH1 0x20 ADD PUSH1 0x40 MLOAD DUP1 SWAP2 SUB SWAP1 KECCAK256 PUSH1 0x0 DUP3 ADD MLOAD DUP2 PUSH1 0x0 ADD SWAP1 DUP1 MLOAD SWAP1 PUSH1 0x20 ADD SWAP1 PUSH3 0x13EF SWAP3 SWAP2 SWAP1 PUSH3 0x2A81 JUMP JUMPDEST POP PUSH1 0x20 DUP3 DUP2 ADD MLOAD PUSH1 0x1 SWAP3 DUP4 ADD DUP1 SLOAD PUSH1 0x40 SWAP6 DUP7 ADD MLOAD ISZERO ISZERO PUSH1 0x1 PUSH1 0xA0 SHL MUL PUSH1 0x1 PUSH1 0x1 PUSH1 0xA8 SHL SUB NOT SWAP1 SWAP2 AND PUSH1 0x1 PUSH1 0x1 PUSH1 0xA0 SHL SUB SWAP1 SWAP4 AND SWAP3 SWAP1 SWAP3 OR SWAP2 SWAP1 SWAP2 OR SWAP1 SSTORE PUSH1 0x4 DUP1 SLOAD SWAP3 DUP4 ADD DUP2 SSTORE PUSH1 0x0 MSTORE DUP3 MLOAD DUP1 DUP5 ADD SWAP1 SWAP4 MSTORE PUSH1 0x10 DUP1 DUP5 MSTORE PUSH16 0x5361696E742050657465727362757267 PUSH1 0x80 SHL SWAP4 SWAP1 SWAP2 ADD SWAP3 DUP4 MSTORE PUSH3 0x1480 SWAP3 PUSH1 0x0 DUP1 MLOAD PUSH1 0x20 PUSH3 0x84DC DUP4 CODECOPY DUP2 MLOAD SWAP2 MSTORE SWAP1 SWAP3 ADD SWAP2 SWAP1 PUSH3 0x2A81 JUMP JUMPDEST POP PUSH1 0x40 DUP1 MLOAD PUSH2 0x140 DUP2 ADD DUP3 MSTORE PUSH1 0x8 PUSH2 0x100 DUP3 ADD DUP2 DUP2 MSTORE PUSH8 0x746167616E726F67 PUSH1 0xC0 SHL PUSH2 0x120 DUP5 ADD MSTORE DUP3 MSTORE DUP3 MLOAD DUP1 DUP5 ADD DUP5 MSTORE PUSH1 0xD DUP2 MSTORE PUSH13 0x546167616E726F672053686F7 PUSH1 0x9C SHL PUSH1 0x20 DUP1 DUP4 ADD SWAP2 SWAP1 SWAP2 MSTORE DUP1 DUP5 ADD SWAP2 SWAP1 SWAP2 MSTORE PUSH1 0x0 DUP1 MLOAD PUSH1 0x20 PUSH3 0x84FC DUP4 CODECOPY DUP2 MLOAD SWAP2 MSTORE DUP4 DUP6 ADD MSTORE PUSH1 0x0 DUP1 MLOAD PUSH1 0x20 PUSH3 0x84BC DUP4 CODECOPY DUP2 MLOAD SWAP2 MSTORE PUSH1 0x60 DUP5 ADD MSTORE PUSH1 0x3 PUSH1 0x80 DUP5 ADD MSTORE DUP4 MLOAD DUP1 DUP6 ADD SWAP1 SWAP5 MSTORE SWAP1 DUP4 MSTORE PUSH8 0x546167616E726F67 PUSH1 0xC0 SHL DUP4 DUP3 ADD MSTORE PUSH1 0xA0 DUP3 ADD SWAP3 SWAP1 SWAP3 MSTORE PUSH1 0xC0 DUP2 ADD DUP4 SWAP1 MSTORE PUSH1 0x1 PUSH1 0xE0 DUP3 ADD MSTORE PUSH20 0xA35CD8F38607CE823EE307FFAF57F859762AECDC PUSH1 0x0 SWAP1 DUP2 MSTORE DUP3 MSTORE DUP1 MLOAD DUP1 MLOAD SWAP2 SWAP3 PUSH32 0xF7EB6DDC5AB8FE18A890B681A380B3C5DBF57AF7DD31D06808406E476691B826 SWAP3 PUSH3 0x158A SWAP3 DUP5 SWAP3 ADD SWAP1 PUSH3 0x2A81 JUMP JUMPDEST POP PUSH1 0x20 DUP3 DUP2 ADD MLOAD DUP1 MLOAD PUSH3 0x15A5 SWAP3 PUSH1 0x1 DUP6 ADD SWAP3 ADD SWAP1 PUSH3 0x2A81 JUMP JUMPDEST POP PUSH1 0x40 DUP3 ADD MLOAD PUSH1 0x2 DUP3 ADD SSTORE PUSH1 0x60 DUP3 ADD MLOAD PUSH1 0x3 DUP3 ADD SSTORE PUSH1 0x80 DUP3 ADD MLOAD PUSH1 0x4 DUP3 ADD DUP1 SLOAD PUSH1 0xFF NOT AND PUSH1 0x1 DUP4 PUSH1 0x5 DUP2 GT ISZERO PUSH3 0x15E0 JUMPI PUSH3 0x15E0 PUSH3 0x2BC2 JUMP JUMPDEST MUL OR SWAP1 SSTORE POP PUSH1 0xA0 DUP3 ADD MLOAD DUP1 MLOAD PUSH3 0x1602 SWAP2 PUSH1 0x5 DUP5 ADD SWAP2 PUSH1 0x20 SWAP1 SWAP2 ADD SWAP1 PUSH3 0x2A81 JUMP JUMPDEST POP PUSH1 0xC0 DUP3 ADD MLOAD DUP1 MLOAD PUSH3 0x1620 SWAP2 PUSH1 0x6 DUP5 ADD SWAP2 PUSH1 0x20 SWAP1 SWAP2 ADD SWAP1 PUSH3 0x2AFE JUMP JUMPDEST POP PUSH1 0xE0 SWAP2 SWAP1 SWAP2 ADD MLOAD PUSH1 0x7 SWAP1 SWAP2 ADD DUP1 SLOAD PUSH1 0xFF NOT AND SWAP2 ISZERO ISZERO SWAP2 SWAP1 SWAP2 OR SWAP1 SSTORE PUSH1 0x40 DUP1 MLOAD PUSH8 0x746167616E726F67 PUSH1 0xC0 SHL DUP1 DUP3 MSTORE PUSH1 0x1 PUSH1 0x8 DUP1 DUP5 ADD DUP3 SWAP1 MSTORE DUP5 MLOAD SWAP4 DUP5 SWAP1 SUB PUSH1 0x28 ADD DUP5 KECCAK256 DUP1 SLOAD PUSH20 0xA35CD8F38607CE823EE307FFAF57F859762AECDC PUSH1 0x1 PUSH1 0x1 PUSH1 0xA0 SHL SUB NOT SWAP1 SWAP2 AND OR SWAP1 SSTORE PUSH1 0x2 DUP1 SLOAD SWAP3 DUP4 ADD DUP2 SSTORE PUSH1 0x0 MSTORE DUP4 DUP6 ADD SWAP1 SWAP5 MSTORE DUP4 DUP4 MSTORE PUSH1 0x20 SWAP1 SWAP3 ADD SWAP1 DUP2 MSTORE PUSH3 0x16C6 SWAP3 PUSH1 0x0 DUP1 MLOAD PUSH1 0x20 PUSH3 0x849C DUP4 CODECOPY DUP2 MLOAD SWAP2 MSTORE SWAP1 SWAP3 ADD SWAP2 PUSH3 0x2A81 JUMP JUMPDEST POP PUSH1 0x40 DUP1 MLOAD PUSH1 0xA0 DUP2 ADD DUP3 MSTORE PUSH1 0x8 PUSH1 0x60 DUP3 ADD SWAP1 DUP2 MSTORE PUSH8 0x546167616E726F67 PUSH1 0xC0 SHL PUSH1 0x80 DUP4 ADD MSTORE DUP2 MSTORE PUSH20 0xA35CD8F38607CE823EE307FFAF57F859762AECDC PUSH1 0x20 DUP3 ADD MSTORE PUSH1 0x1 DUP2 DUP4 ADD MSTORE SWAP1 MLOAD PUSH1 0x3 SWAP1 PUSH3 0x172B SWAP1 PUSH8 0x546167616E726F67 PUSH1 0xC0 SHL DUP2 MSTORE PUSH1 0x8 ADD SWAP1 JUMP JUMPDEST SWAP1 DUP2 MSTORE PUSH1 0x20 ADD PUSH1 0x40 MLOAD DUP1 SWAP2 SUB SWAP1 KECCAK256 PUSH1 0x0 DUP3 ADD MLOAD DUP2 PUSH1 0x0 ADD SWAP1 DUP1 MLOAD SWAP1 PUSH1 0x20 ADD SWAP1 PUSH3 0x1757 SWAP3 SWAP2 SWAP1 PUSH3 0x2A81 JUMP JUMPDEST POP PUSH1 0x20 DUP3 DUP2 ADD MLOAD PUSH1 0x1 SWAP3 DUP4 ADD DUP1 SLOAD PUSH1 0x40 SWAP6 DUP7 ADD MLOAD ISZERO ISZERO PUSH1 0x1 PUSH1 0xA0 SHL MUL PUSH1 0x1 PUSH1 0x1 PUSH1 0xA8 SHL SUB NOT SWAP1 SWAP2 AND PUSH1 0x1 PUSH1 0x1 PUSH1 0xA0 SHL SUB SWAP1 SWAP4 AND SWAP3 SWAP1 SWAP3 OR SWAP2 SWAP1 SWAP2 OR SWAP1 SSTORE PUSH1 0x4 DUP1 SLOAD SWAP3 DUP4 ADD DUP2 SSTORE PUSH1 0x0 MSTORE DUP3 MLOAD DUP1 DUP5 ADD SWAP1 SWAP4 MSTORE PUSH1 0x8 DUP1 DUP5 MSTORE PUSH8 0x546167616E726F67 PUSH1 0xC0 SHL SWAP4 SWAP1 SWAP2 ADD SWAP3 DUP4 MSTORE PUSH3 0x17E0 SWAP3 PUSH1 0x0 DUP1 MLOAD PUSH1 0x20 PUSH3 0x84DC DUP4 CODECOPY DUP2 MLOAD SWAP2 MSTORE SWAP1 SWAP3 ADD SWAP2 SWAP1 PUSH3 0x2A81 JUMP JUMPDEST POP PUSH1 0x40 DUP1 MLOAD PUSH2 0x140 DUP2 ADD DUP3 MSTORE PUSH1 0x5 PUSH2 0x100 DUP3 ADD DUP2 DUP2 MSTORE PUSH5 0x746F6D736B PUSH1 0xD8 SHL PUSH2 0x120 DUP5 ADD MSTORE DUP3 MSTORE DUP3 MLOAD DUP1 DUP5 ADD DUP5 MSTORE PUSH1 0xA DUP2 MSTORE PUSH10 0x546F6D736B2053686F7 PUSH1 0xB4 SHL PUSH1 0x20 DUP1 DUP4 ADD SWAP2 SWAP1 SWAP2 MSTORE DUP1 DUP5 ADD SWAP2 SWAP1 SWAP2 MSTORE PUSH1 0x0 DUP1 MLOAD PUSH1 0x20 PUSH3 0x84FC DUP4 CODECOPY DUP2 MLOAD SWAP2 MSTORE DUP4 DUP6 ADD MSTORE PUSH1 0x0 DUP1 MLOAD PUSH1 0x20 PUSH3 0x84BC DUP4 CODECOPY DUP2 MLOAD SWAP2 MSTORE PUSH1 0x60 DUP5 ADD MSTORE PUSH1 0x3 PUSH1 0x80 DUP5 ADD MSTORE DUP4 MLOAD DUP1 DUP6 ADD SWAP1 SWAP5 MSTORE SWAP1 DUP4 MSTORE PUSH5 0x546F6D736B PUSH1 0xD8 SHL DUP4 DUP3 ADD MSTORE PUSH1 0xA0 DUP3 ADD SWAP3 SWAP1 SWAP3 MSTORE PUSH1 0xC0 DUP2 ADD DUP4 SWAP1 MSTORE PUSH1 0x1 PUSH1 0xE0 DUP3 ADD MSTORE PUSH20 0x6A052A062A54344363B67BAD3B3FAFD6220AC333 PUSH1 0x0 SWAP1 DUP2 MSTORE DUP3 MSTORE DUP1 MLOAD DUP1 MLOAD SWAP2 SWAP3 PUSH32 0xB6CECCEABDFE7A2997CF7281FCC97F1A71A54EEE22FED85B800B4CF99559B7DC SWAP3 PUSH3 0x18E1 SWAP3 DUP5 SWAP3 ADD SWAP1 PUSH3 0x2A81 JUMP JUMPDEST POP PUSH1 0x20 DUP3 DUP2 ADD MLOAD DUP1 MLOAD PUSH3 0x18FC SWAP3 PUSH1 0x1 DUP6 ADD SWAP3 ADD SWAP1 PUSH3 0x2A81 JUMP JUMPDEST POP PUSH1 0x40 DUP3 ADD MLOAD PUSH1 0x2 DUP3 ADD SSTORE PUSH1 0x60 DUP3 ADD MLOAD PUSH1 0x3 DUP3 ADD SSTORE PUSH1 0x80 DUP3 ADD MLOAD PUSH1 0x4 DUP3 ADD DUP1 SLOAD PUSH1 0xFF NOT AND PUSH1 0x1 DUP4 PUSH1 0x5 DUP2 GT ISZERO PUSH3 0x1937 JUMPI PUSH3 0x1937 PUSH3 0x2BC2 JUMP JUMPDEST MUL OR SWAP1 SSTORE POP PUSH1 0xA0 DUP3 ADD MLOAD DUP1 MLOAD PUSH3 0x1959 SWAP2 PUSH1 0x5 DUP5 ADD SWAP2 PUSH1 0x20 SWAP1 SWAP2 ADD SWAP1 PUSH3 0x2A81 JUMP JUMPDEST POP PUSH1 0xC0 DUP3 ADD MLOAD DUP1 MLOAD PUSH3 0x1977 SWAP2 PUSH1 0x6 DUP5 ADD SWAP2 PUSH1 0x20 SWAP1 SWAP2 ADD SWAP1 PUSH3 0x2AFE JUMP JUMPDEST POP PUSH1 0xE0 SWAP2 SWAP1 SWAP2 ADD MLOAD PUSH1 0x7 SWAP1 SWAP2 ADD DUP1 SLOAD PUSH1 0xFF NOT AND SWAP2 ISZERO ISZERO SWAP2 SWAP1 SWAP2 OR SWAP1 SSTORE PUSH1 0x40 DUP1 MLOAD PUSH5 0x746F6D736B PUSH1 0xD8 SHL DUP1 DUP3 MSTORE PUSH1 0x1 PUSH1 0x5 DUP1 DUP5 ADD DUP3 SWAP1 MSTORE DUP5 MLOAD SWAP4 DUP5 SWAP1 SUB PUSH1 0x25 ADD DUP5 KECCAK256 DUP1 SLOAD PUSH20 0x6A052A062A54344363B67BAD3B3FAFD6220AC333 PUSH1 0x1 PUSH1 0x1 PUSH1 0xA0 SHL SUB NOT SWAP1 SWAP2 AND OR SWAP1 SSTORE PUSH1 0x2 DUP1 SLOAD SWAP3 DUP4 ADD DUP2 SSTORE PUSH1 0x0 MSTORE DUP4 DUP6 ADD SWAP1 SWAP5 MSTORE DUP4 DUP4 MSTORE PUSH1 0x20 SWAP1 SWAP3 ADD SWAP1 DUP2 MSTORE PUSH3 0x1A1A SWAP3 PUSH1 0x0 DUP1 MLOAD PUSH1 0x20 PUSH3 0x849C DUP4 CODECOPY DUP2 MLOAD SWAP2 MSTORE SWAP1 SWAP3 ADD SWAP2 PUSH3 0x2A81 JUMP JUMPDEST POP PUSH1 0x40 DUP1 MLOAD PUSH1 0xA0 DUP2 ADD DUP3 MSTORE PUSH1 0x5 PUSH1 0x60 DUP3 ADD SWAP1 DUP2 MSTORE PUSH5 0x546F6D736B PUSH1 0xD8 SHL PUSH1 0x80 DUP4 ADD MSTORE DUP2 MSTORE PUSH20 0x6A052A062A54344363B67BAD3B3FAFD6220AC333 PUSH1 0x20 DUP3 ADD MSTORE PUSH1 0x1 DUP2 DUP4 ADD MSTORE SWAP1 MLOAD PUSH1 0x3 SWAP1 PUSH3 0x1A79 SWAP1 PUSH5 0x546F6D736B PUSH1 0xD8 SHL DUP2 MSTORE PUSH1 0x5 ADD SWAP1 JUMP JUMPDEST SWAP1 DUP2 MSTORE PUSH1 0x20 ADD PUSH1 0x40 MLOAD DUP1 SWAP2 SUB SWAP1 KECCAK256 PUSH1 0x0 DUP3 ADD MLOAD DUP2 PUSH1 0x0 ADD SWAP1 DUP1 MLOAD SWAP1 PUSH1 0x20 ADD SWAP1 PUSH3 0x1AA5 SWAP3 SWAP2 SWAP1 PUSH3 0x2A81 JUMP JUMPDEST POP PUSH1 0x20 DUP3 DUP2 ADD MLOAD PUSH1 0x1 SWAP3 DUP4 ADD DUP1 SLOAD PUSH1 0x40 SWAP6 DUP7 ADD MLOAD ISZERO ISZERO PUSH1 0x1 PUSH1 0xA0 SHL MUL PUSH1 0x1 PUSH1 0x1 PUSH1 0xA8 SHL SUB NOT SWAP1 SWAP2 AND PUSH1 0x1 PUSH1 0x1 PUSH1 0xA0 SHL SUB SWAP1 SWAP4 AND SWAP3 SWAP1 SWAP3 OR SWAP2 SWAP1 SWAP2 OR SWAP1 SSTORE PUSH1 0x4 DUP1 SLOAD SWAP3 DUP4 ADD DUP2 SSTORE PUSH1 0x0 MSTORE DUP3 MLOAD DUP1 DUP5 ADD SWAP1 SWAP4 MSTORE PUSH1 0x5 DUP1 DUP5 MSTORE PUSH5 0x546F6D736B PUSH1 0xD8 SHL SWAP4 SWAP1 SWAP2 ADD SWAP3 DUP4 MSTORE PUSH3 0x1B2B SWAP3 PUSH1 0x0 DUP1 MLOAD PUSH1 0x20 PUSH3 0x84DC DUP4 CODECOPY DUP2 MLOAD SWAP2 MSTORE SWAP1 SWAP3 ADD SWAP2 SWAP1 PUSH3 0x2A81 JUMP JUMPDEST POP PUSH1 0x40 DUP1 MLOAD PUSH2 0x140 DUP2 ADD DUP3 MSTORE PUSH1 0x9 PUSH2 0x100 DUP3 ADD DUP2 DUP2 MSTORE PUSH9 0x68616261726F76736B PUSH1 0xB8 SHL PUSH2 0x120 DUP5 ADD MSTORE DUP3 MSTORE DUP3 MLOAD DUP1 DUP5 ADD DUP5 MSTORE PUSH1 0xE DUP2 MSTORE PUSH14 0x48616261726F76736B2053686F7 PUSH1 0x94 SHL PUSH1 0x20 DUP1 DUP4 ADD SWAP2 SWAP1 SWAP2 MSTORE DUP1 DUP5 ADD SWAP2 SWAP1 SWAP2 MSTORE PUSH1 0x0 DUP1 MLOAD PUSH1 0x20 PUSH3 0x84FC DUP4 CODECOPY DUP2 MLOAD SWAP2 MSTORE DUP4 DUP6 ADD MSTORE PUSH1 0x0 DUP1 MLOAD PUSH1 0x20 PUSH3 0x84BC DUP4 CODECOPY DUP2 MLOAD SWAP2 MSTORE PUSH1 0x60 DUP5 ADD MSTORE PUSH1 0x3 PUSH1 0x80 DUP5 ADD MSTORE DUP4 MLOAD DUP1 DUP6 ADD SWAP1 SWAP5 MSTORE SWAP1 DUP4 MSTORE PUSH9 0x48616261726F76736B PUSH1 0xB8 SHL DUP4 DUP3 ADD MSTORE PUSH1 0xA0 DUP3 ADD SWAP3 SWAP1 SWAP3 MSTORE PUSH1 0xC0 DUP2 ADD DUP4 SWAP1 MSTORE PUSH1 0x1 PUSH1 0xE0 DUP3 ADD MSTORE PUSH20 0x602E85A431E7CFB8489AFE0FF40EDA6C2B968AFD PUSH1 0x0 SWAP1 DUP2 MSTORE DUP3 MSTORE DUP1 MLOAD DUP1 MLOAD SWAP2 SWAP3 PUSH32 0x3ABA2E523E02A954D1FFEAEFB20F634CE80B37D0DC70E80BE2B65507DA68A9C8 SWAP3 PUSH3 0x1C38 SWAP3 DUP5 SWAP3 ADD SWAP1 PUSH3 0x2A81 JUMP JUMPDEST POP PUSH1 0x20 DUP3 DUP2 ADD MLOAD DUP1 MLOAD PUSH3 0x1C53 SWAP3 PUSH1 0x1 DUP6 ADD SWAP3 ADD SWAP1 PUSH3 0x2A81 JUMP JUMPDEST POP PUSH1 0x40 DUP3 ADD MLOAD PUSH1 0x2 DUP3 ADD SSTORE PUSH1 0x60 DUP3 ADD MLOAD PUSH1 0x3 DUP3 ADD SSTORE PUSH1 0x80 DUP3 ADD MLOAD PUSH1 0x4 DUP3 ADD DUP1 SLOAD PUSH1 0xFF NOT AND PUSH1 0x1 DUP4 PUSH1 0x5 DUP2 GT ISZERO PUSH3 0x1C8E JUMPI PUSH3 0x1C8E PUSH3 0x2BC2 JUMP JUMPDEST MUL OR SWAP1 SSTORE POP PUSH1 0xA0 DUP3 ADD MLOAD DUP1 MLOAD PUSH3 0x1CB0 SWAP2 PUSH1 0x5 DUP5 ADD SWAP2 PUSH1 0x20 SWAP1 SWAP2 ADD SWAP1 PUSH3 0x2A81 JUMP JUMPDEST POP PUSH1 0xC0 DUP3 ADD MLOAD DUP1 MLOAD PUSH3 0x1CCE SWAP2 PUSH1 0x6 DUP5 ADD SWAP2 PUSH1 0x20 SWAP1 SWAP2 ADD SWAP1 PUSH3 0x2AFE JUMP JUMPDEST POP PUSH1 0xE0 SWAP2 SWAP1 SWAP2 ADD MLOAD PUSH1 0x7 SWAP1 SWAP2 ADD DUP1 SLOAD PUSH1 0xFF NOT AND SWAP2 ISZERO ISZERO SWAP2 SWAP1 SWAP2 OR SWAP1 SSTORE PUSH1 0x40 DUP1 MLOAD PUSH9 0x68616261726F76736B PUSH1 0xB8 SHL DUP2 MSTORE PUSH1 0x1 PUSH1 0x9 DUP3 ADD DUP2 SWAP1 MSTORE DUP3 MLOAD SWAP2 DUP3 SWAP1 SUB PUSH1 0x29 ADD DUP3 KECCAK256 DUP1 SLOAD PUSH20 0x602E85A431E7CFB8489AFE0FF40EDA6C2B968AFD PUSH1 0x1 PUSH1 0x1 PUSH1 0xA0 SHL SUB NOT SWAP1 SWAP2 AND OR SWAP1 SSTORE PUSH1 0x2 DUP1 SLOAD SWAP2 DUP3 ADD DUP2 SSTORE PUSH1 0x0 MSTORE DUP2 DUP4 ADD SWAP1 SWAP3 MSTORE PUSH1 0x8 DUP1 DUP3 MSTORE PUSH8 0x686162726F76736B PUSH1 0xC0 SHL PUSH1 0x20 SWAP1 SWAP3 ADD SWAP2 DUP3 MSTORE PUSH3 0x1D80 SWAP3 PUSH1 0x0 DUP1 MLOAD PUSH1 0x20 PUSH3 0x849C DUP4 CODECOPY DUP2 MLOAD SWAP2 MSTORE ADD SWAP2 SWAP1 PUSH3 0x2A81 JUMP JUMPDEST POP PUSH1 0x40 DUP1 MLOAD PUSH1 0xA0 DUP2 ADD DUP3 MSTORE PUSH1 0x9 PUSH1 0x60 DUP3 ADD SWAP1 DUP2 MSTORE PUSH9 0x48616261726F76736B PUSH1 0xB8 SHL PUSH1 0x80 DUP4 ADD MSTORE DUP2 MSTORE PUSH20 0x602E85A431E7CFB8489AFE0FF40EDA6C2B968AFD PUSH1 0x20 DUP3 ADD MSTORE PUSH1 0x1 DUP2 DUP4 ADD MSTORE SWAP1 MLOAD PUSH1 0x3 SWAP1 PUSH3 0x1DE7 SWAP1 PUSH9 0x48616261726F76736B PUSH1 0xB8 SHL DUP2 MSTORE PUSH1 0x9 ADD SWAP1 JUMP JUMPDEST SWAP1 DUP2 MSTORE PUSH1 0x20 ADD PUSH1 0x40 MLOAD DUP1 SWAP2 SUB SWAP1 KECCAK256 PUSH1 0x0 DUP3 ADD MLOAD DUP2 PUSH1 0x0 ADD SWAP1 DUP1 MLOAD SWAP1 PUSH1 0x20 ADD SWAP1 PUSH3 0x1E13 SWAP3 SWAP2 SWAP1 PUSH3 0x2A81 JUMP JUMPDEST POP PUSH1 0x20 DUP3 DUP2 ADD MLOAD PUSH1 0x1 SWAP3 DUP4 ADD DUP1 SLOAD PUSH1 0x40 SWAP6 DUP7 ADD MLOAD ISZERO ISZERO PUSH1 0x1 PUSH1 0xA0 SHL MUL PUSH1 0x1 PUSH1 0x1 PUSH1 0xA8 SHL SUB NOT SWAP1 SWAP2 AND PUSH1 0x1 PUSH1 0x1 PUSH1 0xA0 SHL SUB SWAP1 SWAP4 AND SWAP3 SWAP1 SWAP3 OR SWAP2 SWAP1 SWAP2 OR SWAP1 SSTORE PUSH1 0x4 DUP1 SLOAD SWAP3 DUP4 ADD DUP2 SSTORE PUSH1 0x0 MSTORE DUP3 MLOAD DUP1 DUP5 ADD SWAP1 SWAP4 MSTORE PUSH1 0x9 DUP1 DUP5 MSTORE PUSH9 0x48616261726F76736B PUSH1 0xB8 SHL SWAP4 SWAP1 SWAP2 ADD SWAP3 DUP4 MSTORE PUSH3 0x1E9D SWAP3 PUSH1 0x0 DUP1 MLOAD PUSH1 0x20 PUSH3 0x84DC DUP4 CODECOPY DUP2 MLOAD SWAP2 MSTORE SWAP1 SWAP3 ADD SWAP2 SWAP1 PUSH3 0x2A81 JUMP JUMPDEST POP PUSH1 0x40 DUP1 MLOAD PUSH2 0x140 DUP2 ADD DUP3 MSTORE PUSH1 0x4 PUSH2 0x100 DUP3 ADD DUP2 DUP2 MSTORE PUSH4 0x62616E6B PUSH1 0xE0 SHL PUSH2 0x120 DUP5 ADD MSTORE DUP3 MSTORE DUP3 MLOAD DUP1 DUP5 ADD DUP5 MSTORE DUP2 DUP2 MSTORE PUSH4 0x42616E6B PUSH1 0xE0 SHL PUSH1 0x20 DUP1 DUP4 ADD SWAP2 SWAP1 SWAP2 MSTORE DUP1 DUP5 ADD SWAP2 SWAP1 SWAP2 MSTORE PUSH1 0x0 DUP1 MLOAD PUSH1 0x20 PUSH3 0x84FC DUP4 CODECOPY DUP2 MLOAD SWAP2 MSTORE DUP4 DUP6 ADD MSTORE PUSH1 0x0 DUP1 MLOAD PUSH1 0x20 PUSH3 0x84BC DUP4 CODECOPY DUP2 MLOAD SWAP2 MSTORE PUSH1 0x60 DUP5 ADD MSTORE PUSH1 0x80 DUP4 ADD SWAP2 SWAP1 SWAP2 MSTORE DUP3 MLOAD DUP1 DUP3 ADD SWAP1 SWAP4 MSTORE PUSH1 0x0 DUP1 DUP5 MSTORE PUSH1 0xA0 DUP4 ADD SWAP4 SWAP1 SWAP4 MSTORE PUSH1 0xC0 DUP3 ADD DUP5 SWAP1 MSTORE PUSH1 0x1 PUSH1 0xE0 DUP4 ADD MSTORE PUSH20 0x2641D38ED882F3E2EA5F45F922CDED9D72AD09F7 DUP4 MSTORE SWAP2 DUP3 MSTORE DUP1 MLOAD DUP1 MLOAD SWAP2 SWAP3 PUSH32 0x5A123D49AC45F0B96D96C598B1343ADA73381756FD2C8622FB842323ED5C30BE SWAP3 PUSH3 0x1F8A SWAP3 DUP5 SWAP3 ADD SWAP1 PUSH3 0x2A81 JUMP JUMPDEST POP PUSH1 0x20 DUP3 DUP2 ADD MLOAD DUP1 MLOAD PUSH3 0x1FA5 SWAP3 PUSH1 0x1 DUP6 ADD SWAP3 ADD SWAP1 PUSH3 0x2A81 JUMP JUMPDEST POP PUSH1 0x40 DUP3 ADD MLOAD PUSH1 0x2 DUP3 ADD SSTORE PUSH1 0x60 DUP3 ADD MLOAD PUSH1 0x3 DUP3 ADD SSTORE PUSH1 0x80 DUP3 ADD MLOAD PUSH1 0x4 DUP3 ADD DUP1 SLOAD PUSH1 0xFF NOT AND PUSH1 0x1 DUP4 PUSH1 0x5 DUP2 GT ISZERO PUSH3 0x1FE0 JUMPI PUSH3 0x1FE0 PUSH3 0x2BC2 JUMP JUMPDEST MUL OR SWAP1 SSTORE POP PUSH1 0xA0 DUP3 ADD MLOAD DUP1 MLOAD PUSH3 0x2002 SWAP2 PUSH1 0x5 DUP5 ADD SWAP2 PUSH1 0x20 SWAP1 SWAP2 ADD SWAP1 PUSH3 0x2A81 JUMP JUMPDEST POP PUSH1 0xC0 DUP3 ADD MLOAD DUP1 MLOAD PUSH3 0x2020 SWAP2 PUSH1 0x6 DUP5 ADD SWAP2 PUSH1 0x20 SWAP1 SWAP2 ADD SWAP1 PUSH3 0x2AFE JUMP JUMPDEST POP PUSH1 0xE0 SWAP2 SWAP1 SWAP2 ADD MLOAD PUSH1 0x7 SWAP1 SWAP2 ADD DUP1 SLOAD PUSH1 0xFF NOT AND SWAP2 ISZERO ISZERO SWAP2 SWAP1 SWAP2 OR SWAP1 SSTORE PUSH1 0x40 DUP1 MLOAD PUSH4 0x62616E6B PUSH1 0xE0 SHL DUP1 DUP3 MSTORE PUSH1 0x1 PUSH1 0x4 DUP1 DUP5 ADD DUP3 SWAP1 MSTORE DUP5 MLOAD SWAP4 DUP5 SWAP1 SUB PUSH1 0x24 ADD DUP5 KECCAK256 DUP1 SLOAD PUSH20 0x2641D38ED882F3E2EA5F45F922CDED9D72AD09F7 PUSH1 0x1 PUSH1 0x1 PUSH1 0xA0 SHL SUB NOT SWAP1 SWAP2 AND OR SWAP1 SSTORE PUSH1 0x2 DUP1 SLOAD SWAP3 DUP4 ADD DUP2 SSTORE PUSH1 0x0 MSTORE DUP4 DUP6 ADD SWAP1 SWAP5 MSTORE DUP4 DUP4 MSTORE PUSH1 0x20 SWAP1 SWAP3 ADD SWAP1 DUP2 MSTORE PUSH3 0x20C2 SWAP3 PUSH1 0x0 DUP1 MLOAD PUSH1 0x20 PUSH3 0x849C DUP4 CODECOPY DUP2 MLOAD SWAP2 MSTORE SWAP1 SWAP3 ADD SWAP2 PUSH3 0x2A81 JUMP JUMPDEST POP PUSH1 0x40 DUP1 MLOAD PUSH2 0x140 DUP2 ADD DUP3 MSTORE PUSH1 0x8 PUSH2 0x100 DUP3 ADD SWAP1 DUP2 MSTORE PUSH8 0xCEDED8C8CCD2E6D PUSH1 0xC3 SHL PUSH2 0x120 DUP4 ADD MSTORE DUP2 MSTORE DUP2 MLOAD DUP1 DUP4 ADD DUP4 MSTORE PUSH1 0x9 DUP2 MSTORE PUSH9 0x8EDED8C8408CD2E6D PUSH1 0xBB SHL PUSH1 0x20 DUP1 DUP4 ADD SWAP2 SWAP1 SWAP2 MSTORE DUP1 DUP4 ADD SWAP2 SWAP1 SWAP2 MSTORE PUSH1 0x0 DUP1 MLOAD PUSH1 0x20 PUSH3 0x84FC DUP4 CODECOPY DUP2 MLOAD SWAP2 MSTORE DUP3 DUP5 ADD MSTORE PUSH1 0x0 DUP1 MLOAD PUSH1 0x20 PUSH3 0x84BC DUP4 CODECOPY DUP2 MLOAD SWAP2 MSTORE PUSH1 0x60 DUP4 ADD MSTORE PUSH1 0x2 PUSH1 0x80 DUP4 ADD MSTORE DUP3 MLOAD DUP1 DUP3 ADD SWAP1 SWAP4 MSTORE PUSH1 0x0 DUP1 DUP5 MSTORE PUSH1 0xA0 DUP4 ADD SWAP4 SWAP1 SWAP4 MSTORE PUSH1 0xC0 DUP3 ADD DUP5 SWAP1 MSTORE PUSH1 0x1 PUSH1 0xE0 DUP4 ADD MSTORE PUSH20 0x8A3E473EEDAB5FF476A4D9E2EEEE289D1FEBC7B3 DUP4 MSTORE SWAP2 DUP3 MSTORE DUP1 MLOAD DUP1 MLOAD SWAP2 SWAP3 PUSH32 0xF7C9BD1E98B03C2276326A4B72F2EB3EB6DF6DA893B0FD472043BD9E7549D667 SWAP3 PUSH3 0x21B8 SWAP3 DUP5 SWAP3 ADD SWAP1 PUSH3 0x2A81 JUMP JUMPDEST POP PUSH1 0x20 DUP3 DUP2 ADD MLOAD DUP1 MLOAD PUSH3 0x21D3 SWAP3 PUSH1 0x1 DUP6 ADD SWAP3 ADD SWAP1 PUSH3 0x2A81 JUMP JUMPDEST POP PUSH1 0x40 DUP3 ADD MLOAD PUSH1 0x2 DUP3 ADD SSTORE PUSH1 0x60 DUP3 ADD MLOAD PUSH1 0x3 DUP3 ADD SSTORE PUSH1 0x80 DUP3 ADD MLOAD PUSH1 0x4 DUP3 ADD DUP1 SLOAD PUSH1 0xFF NOT AND PUSH1 0x1 DUP4 PUSH1 0x5 DUP2 GT ISZERO PUSH3 0x220E JUMPI PUSH3 0x220E PUSH3 0x2BC2 JUMP JUMPDEST MUL OR SWAP1 SSTORE POP PUSH1 0xA0 DUP3 ADD MLOAD DUP1 MLOAD PUSH3 0x2230 SWAP2 PUSH1 0x5 DUP5 ADD SWAP2 PUSH1 0x20 SWAP1 SWAP2 ADD SWAP1 PUSH3 0x2A81 JUMP JUMPDEST POP PUSH1 0xC0 DUP3 ADD MLOAD DUP1 MLOAD PUSH3 0x224E SWAP2 PUSH1 0x6 DUP5 ADD SWAP2 PUSH1 0x20 SWAP1 SWAP2 ADD SWAP1 PUSH3 0x2AFE JUMP JUMPDEST POP PUSH1 0xE0 SWAP2 SWAP1 SWAP2 ADD MLOAD PUSH1 0x7 SWAP1 SWAP2 ADD DUP1 SLOAD PUSH1 0xFF NOT AND SWAP2 ISZERO ISZERO SWAP2 SWAP1 SWAP2 OR SWAP1 SSTORE PUSH1 0x40 DUP1 MLOAD PUSH8 0xCEDED8C8CCD2E6D PUSH1 0xC3 SHL DUP1 DUP3 MSTORE PUSH1 0x1 PUSH1 0x8 DUP1 DUP5 ADD DUP3 SWAP1 MSTORE DUP5 MLOAD SWAP4 DUP5 SWAP1 SUB PUSH1 0x28 ADD DUP5 KECCAK256 DUP1 SLOAD PUSH20 0x8A3E473EEDAB5FF476A4D9E2EEEE289D1FEBC7B3 PUSH1 0x1 PUSH1 0x1 PUSH1 0xA0 SHL SUB NOT SWAP1 SWAP2 AND OR SWAP1 SSTORE PUSH1 0x2 DUP1 SLOAD SWAP3 DUP4 ADD DUP2 SSTORE PUSH1 0x0 MSTORE DUP4 DUP6 ADD SWAP1 SWAP5 MSTORE DUP4 DUP4 MSTORE PUSH1 0x20 SWAP1 SWAP3 ADD SWAP1 DUP2 MSTORE PUSH3 0x22F4 SWAP3 PUSH1 0x0 DUP1 MLOAD PUSH1 0x20 PUSH3 0x849C DUP4 CODECOPY DUP2 MLOAD SWAP2 MSTORE SWAP1 SWAP3 ADD SWAP2 PUSH3 0x2A81 JUMP JUMPDEST POP PUSH1 0x40 DUP1 MLOAD PUSH2 0x140 DUP2 ADD DUP3 MSTORE PUSH1 0x5 PUSH2 0x100 DUP3 ADD DUP2 DUP2 MSTORE PUSH5 0x30B236B4B7 PUSH1 0xD9 SHL PUSH2 0x120 DUP5 ADD MSTORE DUP3 MSTORE DUP3 MLOAD DUP1 DUP5 ADD DUP5 MSTORE PUSH1 0x15 DUP2 MSTORE PUSH32 0x4976616E6F76204976616E204976616E6F766963680000000000000000000000 PUSH1 0x20 DUP1 DUP4 ADD SWAP2 SWAP1 SWAP2 MSTORE DUP1 DUP5 ADD SWAP2 SWAP1 SWAP2 MSTORE PUSH1 0x0 DUP1 MLOAD PUSH1 0x20 PUSH3 0x84FC DUP4 CODECOPY DUP2 MLOAD SWAP2 MSTORE DUP4 DUP6 ADD MSTORE PUSH1 0x0 DUP1 MLOAD PUSH1 0x20 PUSH3 0x84BC DUP4 CODECOPY DUP2 MLOAD SWAP2 MSTORE PUSH1 0x60 DUP5 ADD MSTORE PUSH1 0x80 DUP4 ADD SWAP2 SWAP1 SWAP2 MSTORE DUP3 MLOAD DUP1 DUP3 ADD SWAP1 SWAP4 MSTORE PUSH1 0x0 DUP1 DUP5 MSTORE PUSH1 0xA0 DUP4 ADD SWAP4 SWAP1 SWAP4 MSTORE PUSH1 0xC0 DUP3 ADD DUP5 SWAP1 MSTORE PUSH1 0x1 PUSH1 0xE0 DUP4 ADD MSTORE PUSH20 0xBC03EE8CDE310F36F2A6F04C9965CAEB11BA315A DUP4 MSTORE SWAP2 DUP3 MSTORE DUP1 MLOAD DUP1 MLOAD SWAP2 SWAP3 PUSH32 0x2834D1A09BD845973DB88F4940CE99A1523D73750C2EC581288D74241517D08B SWAP3 PUSH3 0x23FC SWAP3 DUP5 SWAP3 ADD SWAP1 PUSH3 0x2A81 JUMP JUMPDEST POP PUSH1 0x20 DUP3 DUP2 ADD MLOAD DUP1 MLOAD PUSH3 0x2417 SWAP3 PUSH1 0x1 DUP6 ADD SWAP3 ADD SWAP1 PUSH3 0x2A81 JUMP JUMPDEST POP PUSH1 0x40 DUP3 ADD MLOAD PUSH1 0x2 DUP3 ADD SSTORE PUSH1 0x60 DUP3 ADD MLOAD PUSH1 0x3 DUP3 ADD SSTORE PUSH1 0x80 DUP3 ADD MLOAD PUSH1 0x4 DUP3 ADD DUP1 SLOAD PUSH1 0xFF NOT AND PUSH1 0x1 DUP4 PUSH1 0x5 DUP2 GT ISZERO PUSH3 0x2452 JUMPI PUSH3 0x2452 PUSH3 0x2BC2 JUMP JUMPDEST MUL OR SWAP1 SSTORE POP PUSH1 0xA0 DUP3 ADD MLOAD DUP1 MLOAD PUSH3 0x2474 SWAP2 PUSH1 0x5 DUP5 ADD SWAP2 PUSH1 0x20 SWAP1 SWAP2 ADD SWAP1 PUSH3 0x2A81 JUMP JUMPDEST POP PUSH1 0xC0 DUP3 ADD MLOAD DUP1 MLOAD PUSH3 0x2492 SWAP2 PUSH1 0x6 DUP5 ADD SWAP2 PUSH1 0x20 SWAP1 SWAP2 ADD SWAP1 PUSH3 0x2AFE JUMP JUMPDEST POP PUSH1 0xE0 SWAP2 SWAP1 SWAP2 ADD MLOAD PUSH1 0x7 SWAP1 SWAP2 ADD DUP1 SLOAD PUSH1 0xFF NOT AND SWAP2 ISZERO ISZERO SWAP2 SWAP1 SWAP2 OR SWAP1 SSTORE PUSH1 0x40 DUP1 MLOAD PUSH5 0x30B236B4B7 PUSH1 0xD9 SHL DUP1 DUP3 MSTORE PUSH1 0x1 PUSH1 0x5 DUP1 DUP5 ADD DUP3 SWAP1 MSTORE DUP5 MLOAD SWAP4 DUP5 SWAP1 SUB PUSH1 0x25 ADD DUP5 KECCAK256 DUP1 SLOAD PUSH20 0xBC03EE8CDE310F36F2A6F04C9965CAEB11BA315A PUSH1 0x1 PUSH1 0x1 PUSH1 0xA0 SHL SUB NOT SWAP1 SWAP2 AND OR SWAP1 SSTORE PUSH1 0x2 DUP1 SLOAD SWAP3 DUP4 ADD DUP2 SSTORE PUSH1 0x0 MSTORE DUP4 DUP6 ADD SWAP1 SWAP5 MSTORE DUP4 DUP4 MSTORE PUSH1 0x20 SWAP1 SWAP3 ADD SWAP1 DUP2 MSTORE PUSH3 0x2535 SWAP3 PUSH1 0x0 DUP1 MLOAD PUSH1 0x20 PUSH3 0x849C DUP4 CODECOPY DUP2 MLOAD SWAP2 MSTORE SWAP1 SWAP3 ADD SWAP2 PUSH3 0x2A81 JUMP JUMPDEST POP PUSH1 0x40 DUP1 MLOAD PUSH2 0x140 DUP2 ADD DUP3 MSTORE PUSH1 0x5 PUSH2 0x100 DUP3 ADD SWAP1 DUP2 MSTORE PUSH5 0x39B2B6B2B7 PUSH1 0xD9 SHL PUSH2 0x120 DUP4 ADD MSTORE DUP2 MSTORE DUP2 MLOAD DUP1 DUP4 ADD DUP4 MSTORE PUSH1 0x18 DUP2 MSTORE PUSH32 0x53656D656E6F762053656D656E2053656D656E6F766963680000000000000000 PUSH1 0x20 DUP1 DUP4 ADD SWAP2 SWAP1 SWAP2 MSTORE DUP1 DUP4 ADD SWAP2 SWAP1 SWAP2 MSTORE PUSH1 0x0 DUP1 MLOAD PUSH1 0x20 PUSH3 0x84FC DUP4 CODECOPY DUP2 MLOAD SWAP2 MSTORE DUP3 DUP5 ADD MSTORE PUSH1 0x0 DUP1 MLOAD PUSH1 0x20 PUSH3 0x84BC DUP4 CODECOPY DUP2 MLOAD SWAP2 MSTORE PUSH1 0x60 DUP4 ADD MSTORE PUSH1 0x1 PUSH1 0x80 DUP4 ADD DUP2 SWAP1 MSTORE DUP4 MLOAD DUP1 DUP6 ADD SWAP1 SWAP5 MSTORE PUSH1 0x7 DUP5 MSTORE PUSH7 0x2236B4BA3937BB PUSH1 0xC9 SHL DUP5 DUP4 ADD MSTORE PUSH1 0xA0 DUP4 ADD SWAP4 SWAP1 SWAP4 MSTORE PUSH1 0xC0 DUP3 ADD DUP5 SWAP1 MSTORE PUSH1 0xE0 DUP3 ADD SWAP3 SWAP1 SWAP3 MSTORE PUSH20 0xDD28C05343B9D59F922202918C0F8C4802BE312F PUSH1 0x0 SWAP1 DUP2 MSTORE DUP3 MSTORE DUP1 MLOAD DUP1 MLOAD SWAP2 SWAP3 PUSH32 0xE9685801408E896F6AD1B5140C08F320194812CDBDD554D9B5512D36C3F70E10 SWAP3 PUSH3 0x264F SWAP3 DUP5 SWAP3 ADD SWAP1 PUSH3 0x2A81 JUMP JUMPDEST POP PUSH1 0x20 DUP3 DUP2 ADD MLOAD DUP1 MLOAD PUSH3 0x266A SWAP3 PUSH1 0x1 DUP6 ADD SWAP3 ADD SWAP1 PUSH3 0x2A81 JUMP JUMPDEST POP PUSH1 0x40 DUP3 ADD MLOAD PUSH1 0x2 DUP3 ADD SSTORE PUSH1 0x60 DUP3 ADD MLOAD PUSH1 0x3 DUP3 ADD SSTORE PUSH1 0x80 DUP3 ADD MLOAD PUSH1 0x4 DUP3 ADD DUP1 SLOAD PUSH1 0xFF NOT AND PUSH1 0x1 DUP4 PUSH1 0x5 DUP2 GT ISZERO PUSH3 0x26A5 JUMPI PUSH3 0x26A5 PUSH3 0x2BC2 JUMP JUMPDEST MUL OR SWAP1 SSTORE POP PUSH1 0xA0 DUP3 ADD MLOAD DUP1 MLOAD PUSH3 0x26C7 SWAP2 PUSH1 0x5 DUP5 ADD SWAP2 PUSH1 0x20 SWAP1 SWAP2 ADD SWAP1 PUSH3 0x2A81 JUMP JUMPDEST POP PUSH1 0xC0 DUP3 ADD MLOAD DUP1 MLOAD PUSH3 0x26E5 SWAP2 PUSH1 0x6 DUP5 ADD SWAP2 PUSH1 0x20 SWAP1 SWAP2 ADD SWAP1 PUSH3 0x2AFE JUMP JUMPDEST POP PUSH1 0xE0 SWAP2 SWAP1 SWAP2 ADD MLOAD PUSH1 0x7 SWAP1 SWAP2 ADD DUP1 SLOAD PUSH1 0xFF NOT AND SWAP2 ISZERO ISZERO SWAP2 SWAP1 SWAP2 OR SWAP1 SSTORE PUSH1 0x40 DUP1 MLOAD PUSH5 0x39B2B6B2B7 PUSH1 0xD9 SHL DUP1 DUP3 MSTORE PUSH1 0x1 PUSH1 0x5 DUP1 DUP5 ADD DUP3 SWAP1 MSTORE DUP5 MLOAD SWAP4 DUP5 SWAP1 SUB PUSH1 0x25 ADD DUP5 KECCAK256 DUP1 SLOAD PUSH20 0xDD28C05343B9D59F922202918C0F8C4802BE312F PUSH1 0x1 PUSH1 0x1 PUSH1 0xA0 SHL SUB NOT SWAP1 SWAP2 AND OR SWAP1 SSTORE PUSH1 0x2 DUP1 SLOAD SWAP3 DUP4 ADD DUP2 SSTORE PUSH1 0x0 MSTORE DUP4 DUP6 ADD SWAP1 SWAP5 MSTORE DUP4 DUP4 MSTORE PUSH1 0x20 SWAP1 SWAP3 ADD SWAP1 DUP2 MSTORE PUSH3 0x2788 SWAP3 PUSH1 0x0 DUP1 MLOAD PUSH1 0x20 PUSH3 0x849C DUP4 CODECOPY DUP2 MLOAD SWAP2 MSTORE SWAP1 SWAP3 ADD SWAP2 PUSH3 0x2A81 JUMP JUMPDEST POP PUSH1 0x40 DUP1 MLOAD PUSH2 0x140 DUP2 ADD DUP3 MSTORE PUSH1 0x4 PUSH2 0x100 DUP3 ADD SWAP1 DUP2 MSTORE PUSH4 0x3832BA39 PUSH1 0xE1 SHL PUSH2 0x120 DUP4 ADD MSTORE DUP2 MSTORE DUP2 MLOAD DUP1 DUP4 ADD DUP4 MSTORE PUSH1 0x15 DUP2 MSTORE PUSH32 0x506574726F76205065747220506574726F766963680000000000000000000000 PUSH1 0x20 DUP1 DUP4 ADD SWAP2 SWAP1 SWAP2 MSTORE DUP1 DUP4 ADD SWAP2 SWAP1 SWAP2 MSTORE PUSH1 0x0 DUP1 MLOAD PUSH1 0x20 PUSH3 0x84FC DUP4 CODECOPY DUP2 MLOAD SWAP2 MSTORE DUP3 DUP5 ADD MSTORE PUSH1 0x0 DUP1 MLOAD PUSH1 0x20 PUSH3 0x84BC DUP4 CODECOPY DUP2 MLOAD SWAP2 MSTORE PUSH1 0x60 DUP4 ADD MSTORE PUSH1 0x0 PUSH1 0x80 DUP4 ADD DUP2 SWAP1 MSTORE DUP4 MLOAD DUP1 DUP4 ADD SWAP1 SWAP5 MSTORE DUP1 DUP5 MSTORE PUSH1 0xA0 DUP4 ADD SWAP4 SWAP1 SWAP4 MSTORE PUSH1 0xC0 DUP3 ADD DUP5 SWAP1 MSTORE PUSH1 0x1 PUSH1 0xE0 DUP4 ADD MSTORE PUSH20 0xB7E3FFC2F94CE0A3CCFC599270D8023D8AB9CAC6 DUP4 MSTORE SWAP2 DUP3 MSTORE DUP1 MLOAD DUP1 MLOAD SWAP2 SWAP3 PUSH32 0xB9CDA16762A27320DB14119A18B082DFFDD24254E64027614226BE2BC1A9CF8A SWAP3 PUSH3 0x288E SWAP3 DUP5 SWAP3 ADD SWAP1 PUSH3 0x2A81 JUMP JUMPDEST POP PUSH1 0x20 DUP3 DUP2 ADD MLOAD DUP1 MLOAD PUSH3 0x28A9 SWAP3 PUSH1 0x1 DUP6 ADD SWAP3 ADD SWAP1 PUSH3 0x2A81 JUMP JUMPDEST POP PUSH1 0x40 DUP3 ADD MLOAD PUSH1 0x2 DUP3 ADD SSTORE PUSH1 0x60 DUP3 ADD MLOAD PUSH1 0x3 DUP3 ADD SSTORE PUSH1 0x80 DUP3 ADD MLOAD PUSH1 0x4 DUP3 ADD DUP1 SLOAD PUSH1 0xFF NOT AND PUSH1 0x1 DUP4 PUSH1 0x5 DUP2 GT ISZERO PUSH3 0x28E4 JUMPI PUSH3 0x28E4 PUSH3 0x2BC2 JUMP JUMPDEST MUL OR SWAP1 SSTORE POP PUSH1 0xA0 DUP3 ADD MLOAD DUP1 MLOAD PUSH3 0x2906 SWAP2 PUSH1 0x5 DUP5 ADD SWAP2 PUSH1 0x20 SWAP1 SWAP2 ADD SWAP1 PUSH3 0x2A81 JUMP JUMPDEST POP PUSH1 0xC0 DUP3 ADD MLOAD DUP1 MLOAD PUSH3 0x2924 SWAP2 PUSH1 0x6 DUP5 ADD SWAP2 PUSH1 0x20 SWAP1 SWAP2 ADD SWAP1 PUSH3 0x2AFE JUMP JUMPDEST POP PUSH1 0xE0 SWAP2 SWAP1 SWAP2 ADD MLOAD PUSH1 0x7 SWAP1 SWAP2 ADD DUP1 SLOAD PUSH1 0xFF NOT AND SWAP2 ISZERO ISZERO SWAP2 SWAP1 SWAP2 OR SWAP1 SSTORE PUSH1 0x40 DUP1 MLOAD PUSH4 0x3832BA39 PUSH1 0xE1 SHL DUP1 DUP3 MSTORE PUSH1 0x1 PUSH1 0x4 DUP1 DUP5 ADD DUP3 SWAP1 MSTORE DUP5 MLOAD SWAP4 DUP5 SWAP1 SUB PUSH1 0x24 ADD DUP5 KECCAK256 DUP1 SLOAD PUSH20 0xB7E3FFC2F94CE0A3CCFC599270D8023D8AB9CAC6 PUSH1 0x1 PUSH1 0x1 PUSH1 0xA0 SHL SUB NOT SWAP1 SWAP2 AND OR SWAP1 SSTORE PUSH1 0x2 DUP1 SLOAD SWAP3 DUP4 ADD DUP2 SSTORE PUSH1 0x0 MSTORE DUP4 DUP6 ADD SWAP1 SWAP5 MSTORE DUP4 DUP4 MSTORE PUSH1 0x20 SWAP1 SWAP3 ADD SWAP1 DUP2 MSTORE PUSH3 0x29C6 SWAP3 PUSH1 0x0 DUP1 MLOAD PUSH1 0x20 PUSH3 0x849C DUP4 CODECOPY DUP2 MLOAD SWAP2 MSTORE SWAP1 SWAP3 ADD SWAP2 PUSH3 0x2A81 JUMP JUMPDEST POP POP PUSH3 0x2BD8 JUMP JUMPDEST DUP3 DUP1 SLOAD DUP3 DUP3 SSTORE SWAP1 PUSH1 0x0 MSTORE PUSH1 0x20 PUSH1 0x0 KECCAK256 SWAP1 PUSH1 0x7 ADD PUSH1 0x8 SWAP1 DIV DUP2 ADD SWAP3 DUP3 ISZERO PUSH3 0x2A6F JUMPI SWAP2 PUSH1 0x20 MUL DUP3 ADD PUSH1 0x0 JUMPDEST DUP4 DUP3 GT ISZERO PUSH3 0x2A3B JUMPI DUP4 MLOAD DUP4 DUP3 PUSH2 0x100 EXP DUP2 SLOAD DUP2 PUSH4 0xFFFFFFFF MUL NOT AND SWAP1 DUP4 PUSH1 0xFF AND MUL OR SWAP1 SSTORE POP SWAP3 PUSH1 0x20 ADD SWAP3 PUSH1 0x4 ADD PUSH1 0x20 DUP2 PUSH1 0x3 ADD DIV SWAP3 DUP4 ADD SWAP3 PUSH1 0x1 SUB MUL PUSH3 0x29F8 JUMP JUMPDEST DUP1 ISZERO PUSH3 0x2A6D JUMPI DUP3 DUP2 PUSH2 0x100 EXP DUP2 SLOAD SWAP1 PUSH4 0xFFFFFFFF MUL NOT AND SWAP1 SSTORE PUSH1 0x4 ADD PUSH1 0x20 DUP2 PUSH1 0x3 ADD DIV SWAP3 DUP4 ADD SWAP3 PUSH1 0x1 SUB MUL PUSH3 0x2A3B JUMP JUMPDEST POP JUMPDEST POP PUSH3 0x2A7D SWAP3 SWAP2 POP PUSH3 0x2B6E JUMP JUMPDEST POP SWAP1 JUMP JUMPDEST DUP3 DUP1 SLOAD PUSH3 0x2A8F SWAP1 PUSH3 0x2B85 JUMP JUMPDEST SWAP1 PUSH1 0x0 MSTORE PUSH1 0x20 PUSH1 0x0 KECCAK256 SWAP1 PUSH1 0x1F ADD PUSH1 0x20 SWAP1 DIV DUP2 ADD SWAP3 DUP3 PUSH3 0x2AB3 JUMPI PUSH1 0x0 DUP6 SSTORE PUSH3 0x2A6F JUMP JUMPDEST DUP3 PUSH1 0x1F LT PUSH3 0x2ACE JUMPI DUP1 MLOAD PUSH1 0xFF NOT AND DUP4 DUP1 ADD OR DUP6 SSTORE PUSH3 0x2A6F JUMP JUMPDEST DUP3 DUP1 ADD PUSH1 0x1 ADD DUP6 SSTORE DUP3 ISZERO PUSH3 0x2A6F JUMPI SWAP2 DUP3 ADD JUMPDEST DUP3 DUP2 GT ISZERO PUSH3 0x2A6F JUMPI DUP3 MLOAD DUP3 SSTORE SWAP2 PUSH1 0x20 ADD SWAP2 SWAP1 PUSH1 0x1 ADD SWAP1 PUSH3 0x2AE1 JUMP JUMPDEST DUP3 DUP1 SLOAD DUP3 DUP3 SSTORE SWAP1 PUSH1 0x0 MSTORE PUSH1 0x20 PUSH1 0x0 KECCAK256 SWAP1 PUSH1 0x7 ADD PUSH1 0x8 SWAP1 DIV DUP2 ADD SWAP3 DUP3 ISZERO PUSH3 0x2A6F JUMPI SWAP2 PUSH1 0x20 MUL DUP3 ADD PUSH1 0x0 JUMPDEST DUP4 DUP3 GT ISZERO PUSH3 0x2A3B JUMPI DUP4 MLOAD DUP4 DUP3 PUSH2 0x100 EXP DUP2 SLOAD DUP2 PUSH4 0xFFFFFFFF MUL NOT AND SWAP1 DUP4 PUSH4 0xFFFFFFFF AND MUL OR SWAP1 SSTORE POP SWAP3 PUSH1 0x20 ADD SWAP3 PUSH1 0x4 ADD PUSH1 0x20 DUP2 PUSH1 0x3 ADD DIV SWAP3 DUP4 ADD SWAP3 PUSH1 0x1 SUB MUL PUSH3 0x2B28 JUMP JUMPDEST JUMPDEST DUP1 DUP3 GT ISZERO PUSH3 0x2A7D JUMPI PUSH1 0x0 DUP2 SSTORE PUSH1 0x1 ADD PUSH3 0x2B6F JUMP JUMPDEST PUSH1 0x1 DUP2 DUP2 SHR SWAP1 DUP3 AND DUP1 PUSH3 0x2B9A JUMPI PUSH1 0x7F DUP3 AND SWAP2 POP JUMPDEST PUSH1 0x20 DUP3 LT DUP2 EQ ISZERO PUSH3 0x2BBC JUMPI PUSH4 0x4E487B71 PUSH1 0xE0 SHL PUSH1 0x0 MSTORE PUSH1 0x22 PUSH1 0x4 MSTORE PUSH1 0x24 PUSH1 0x0 REVERT JUMPDEST POP SWAP2 SWAP1 POP JUMP JUMPDEST PUSH4 0x4E487B71 PUSH1 0xE0 SHL PUSH1 0x0 MSTORE PUSH1 0x21 PUSH1 0x4 MSTORE PUSH1 0x24 PUSH1 0x0 REVERT JUMPDEST PUSH2 0x58B4 DUP1 PUSH3 0x2BE8 PUSH1 0x0 CODECOPY PUSH1 0x0 RETURN INVALID PUSH1 0x80 PUSH1 0x40 MSTORE PUSH1 0x4 CALLDATASIZE LT PUSH2 0x140 JUMPI PUSH1 0x0 CALLDATALOAD PUSH1 0xE0 SHR DUP1 PUSH4 0x9B7E033A GT PUSH2 0xB6 JUMPI DUP1 PUSH4 0xD569B30C GT PUSH2 0x6F JUMPI DUP1 PUSH4 0xD569B30C EQ PUSH2 0x3CD JUMPI DUP1 PUSH4 0xE8E1D463 EQ PUSH2 0x3FC JUMPI DUP1 PUSH4 0xEDF9261F EQ PUSH2 0x41C JUMPI DUP1 PUSH4 0xF23219B3 EQ PUSH2 0x43C JUMPI DUP1 PUSH4 0xF6E60D5B EQ PUSH2 0x469 JUMPI DUP1 PUSH4 0xF8187268 EQ PUSH2 0x489 JUMPI PUSH1 0x0 DUP1 REVERT JUMPDEST DUP1 PUSH4 0x9B7E033A EQ PUSH2 0x2DE JUMPI DUP1 PUSH4 0x9E36ABD9 EQ PUSH2 0x313 JUMPI DUP1 PUSH4 0xA2C8E177 EQ PUSH2 0x328 JUMPI DUP1 PUSH4 0xAF3E1E2A EQ PUSH2 0x348 JUMPI DUP1 PUSH4 0xBFA5A902 EQ PUSH2 0x368 JUMPI DUP1 PUSH4 0xD20259FE EQ PUSH2 0x388 JUMPI PUSH1 0x0 DUP1 REVERT JUMPDEST DUP1 PUSH4 0x60B9FAA5 GT PUSH2 0x108 JUMPI DUP1 PUSH4 0x60B9FAA5 EQ PUSH2 0x225 JUMPI DUP1 PUSH4 0x6E9D7ADB EQ PUSH2 0x245 JUMPI DUP1 PUSH4 0x6F77926B EQ PUSH2 0x258 JUMPI DUP1 PUSH4 0x8638A7A4 EQ PUSH2 0x289 JUMPI DUP1 PUSH4 0x8F7AB8E1 EQ PUSH2 0x2A9 JUMPI DUP1 PUSH4 0x961A9A13 EQ PUSH2 0x2C9 JUMPI PUSH1 0x0 DUP1 REVERT JUMPDEST DUP1 PUSH4 0x18D0E8B2 EQ PUSH2 0x145 JUMPI DUP1 PUSH4 0x3C0E9AA9 EQ PUSH2 0x17C JUMPI DUP1 PUSH4 0x41180DA1 EQ PUSH2 0x1A9 JUMPI DUP1 PUSH4 0x4985E85C EQ PUSH2 0x1CB JUMPI DUP1 PUSH4 0x570B98E2 EQ PUSH2 0x203 JUMPI JUMPDEST PUSH1 0x0 DUP1 REVERT JUMPDEST CALLVALUE DUP1 ISZERO PUSH2 0x151 JUMPI PUSH1 0x0 DUP1 REVERT JUMPDEST POP PUSH2 0x165 PUSH2 0x160 CALLDATASIZE PUSH1 0x4 PUSH2 0x4F28 JUMP JUMPDEST PUSH2 0x49E JUMP JUMPDEST PUSH1 0x40 MLOAD PUSH2 0x173 SWAP3 SWAP2 SWAP1 PUSH2 0x55BD JUMP JUMPDEST PUSH1 0x40 MLOAD DUP1 SWAP2 SUB SWAP1 RETURN JUMPDEST CALLVALUE DUP1 ISZERO PUSH2 0x188 JUMPI PUSH1 0x0 DUP1 REVERT JUMPDEST POP PUSH2 0x19C PUSH2 0x197 CALLDATASIZE PUSH1 0x4 PUSH2 0x5123 JUMP JUMPDEST PUSH2 0x54B JUMP JUMPDEST PUSH1 0x40 MLOAD PUSH2 0x173 SWAP2 SWAP1 PUSH2 0x5507 JUMP JUMPDEST CALLVALUE DUP1 ISZERO PUSH2 0x1B5 JUMPI PUSH1 0x0 DUP1 REVERT JUMPDEST POP PUSH2 0x1C9 PUSH2 0x1C4 CALLDATASIZE PUSH1 0x4 PUSH2 0x50D5 JUMP JUMPDEST PUSH2 0x7D6 JUMP JUMPDEST STOP JUMPDEST CALLVALUE DUP1 ISZERO PUSH2 0x1D7 JUMPI PUSH1 0x0 DUP1 REVERT JUMPDEST POP PUSH2 0x1EB PUSH2 0x1E6 CALLDATASIZE PUSH1 0x4 PUSH2 0x5123 JUMP JUMPDEST PUSH2 0xD52 JUMP JUMPDEST PUSH1 0x40 MLOAD PUSH1 0x1 PUSH1 0x1 PUSH1 0xA0 SHL SUB SWAP1 SWAP2 AND DUP2 MSTORE PUSH1 0x20 ADD PUSH2 0x173 JUMP JUMPDEST CALLVALUE DUP1 ISZERO PUSH2 0x20F JUMPI PUSH1 0x0 DUP1 REVERT JUMPDEST POP PUSH2 0x218 PUSH2 0xD83 JUMP JUMPDEST PUSH1 0x40 MLOAD PUSH2 0x173 SWAP2 SWAP1 PUSH2 0x54A5 JUMP JUMPDEST CALLVALUE DUP1 ISZERO PUSH2 0x231 JUMPI PUSH1 0x0 DUP1 REVERT JUMPDEST POP PUSH2 0x1C9 PUSH2 0x240 CALLDATASIZE PUSH1 0x4 PUSH2 0x5123 JUMP JUMPDEST PUSH2 0xE5C JUMP JUMPDEST PUSH2 0x1C9 PUSH2 0x253 CALLDATASIZE PUSH1 0x4 PUSH2 0x5123 JUMP JUMPDEST PUSH2 0x1405 JUMP JUMPDEST CALLVALUE DUP1 ISZERO PUSH2 0x264 JUMPI PUSH1 0x0 DUP1 REVERT JUMPDEST POP PUSH2 0x278 PUSH2 0x273 CALLDATASIZE PUSH1 0x4 PUSH2 0x4F28 JUMP JUMPDEST PUSH2 0x1616 JUMP JUMPDEST PUSH1 0x40 MLOAD PUSH2 0x173 SWAP6 SWAP5 SWAP4 SWAP3 SWAP2 SWAP1 PUSH2 0x560B JUMP JUMPDEST CALLVALUE DUP1 ISZERO PUSH2 0x295 JUMPI PUSH1 0x0 DUP1 REVERT JUMPDEST POP PUSH2 0x1C9 PUSH2 0x2A4 CALLDATASIZE PUSH1 0x4 PUSH2 0x52C1 JUMP JUMPDEST PUSH2 0x190C JUMP JUMPDEST CALLVALUE DUP1 ISZERO PUSH2 0x2B5 JUMPI PUSH1 0x0 DUP1 REVERT JUMPDEST POP PUSH2 0x1C9 PUSH2 0x2C4 CALLDATASIZE PUSH1 0x4 PUSH2 0x5200 JUMP JUMPDEST PUSH2 0x202E JUMP JUMPDEST CALLVALUE DUP1 ISZERO PUSH2 0x2D5 JUMPI PUSH1 0x0 DUP1 REVERT JUMPDEST POP PUSH2 0x1C9 PUSH2 0x2A5F JUMP JUMPDEST CALLVALUE DUP1 ISZERO PUSH2 0x2EA JUMPI PUSH1 0x0 DUP1 REVERT JUMPDEST POP PUSH2 0x2FE PUSH2 0x2F9 CALLDATASIZE PUSH1 0x4 PUSH2 0x52A6 JUMP JUMPDEST PUSH2 0x2C47 JUMP JUMPDEST PUSH1 0x40 MLOAD PUSH2 0x173 SWAP10 SWAP9 SWAP8 SWAP7 SWAP6 SWAP5 SWAP4 SWAP3 SWAP2 SWAP1 PUSH2 0x551A JUMP JUMPDEST CALLVALUE DUP1 ISZERO PUSH2 0x31F JUMPI PUSH1 0x0 DUP1 REVERT JUMPDEST POP PUSH2 0x1C9 PUSH2 0x2F7E JUMP JUMPDEST CALLVALUE DUP1 ISZERO PUSH2 0x334 JUMPI PUSH1 0x0 DUP1 REVERT JUMPDEST POP PUSH2 0x1C9 PUSH2 0x343 CALLDATASIZE PUSH1 0x4 PUSH2 0x4F4C JUMP JUMPDEST PUSH2 0x33AA JUMP JUMPDEST CALLVALUE DUP1 ISZERO PUSH2 0x354 JUMPI PUSH1 0x0 DUP1 REVERT JUMPDEST POP PUSH2 0x1C9 PUSH2 0x363 CALLDATASIZE PUSH1 0x4 PUSH2 0x4FAC JUMP JUMPDEST PUSH2 0x3542 JUMP JUMPDEST CALLVALUE DUP1 ISZERO PUSH2 0x374 JUMPI PUSH1 0x0 DUP1 REVERT JUMPDEST POP PUSH2 0x1C9 PUSH2 0x383 CALLDATASIZE PUSH1 0x4 PUSH2 0x528D JUMP JUMPDEST PUSH2 0x37B1 JUMP JUMPDEST CALLVALUE DUP1 ISZERO PUSH2 0x394 JUMPI PUSH1 0x0 DUP1 REVERT JUMPDEST POP PUSH2 0x3A8 PUSH2 0x3A3 CALLDATASIZE PUSH1 0x4 PUSH2 0x5123 JUMP JUMPDEST PUSH2 0x3ADB JUMP JUMPDEST PUSH1 0x40 DUP1 MLOAD SWAP4 ISZERO ISZERO DUP5 MSTORE PUSH1 0x1 PUSH1 0x1 PUSH1 0xA0 SHL SUB SWAP1 SWAP3 AND PUSH1 0x20 DUP5 ADD MSTORE SWAP1 DUP3 ADD MSTORE PUSH1 0x60 ADD PUSH2 0x173 JUMP JUMPDEST CALLVALUE DUP1 ISZERO PUSH2 0x3D9 JUMPI PUSH1 0x0 DUP1 REVERT JUMPDEST POP PUSH2 0x3ED PUSH2 0x3E8 CALLDATASIZE PUSH1 0x4 PUSH2 0x5123 JUMP JUMPDEST PUSH2 0x3BA2 JUMP JUMPDEST PUSH1 0x40 MLOAD PUSH2 0x173 SWAP4 SWAP3 SWAP2 SWAP1 PUSH2 0x55D8 JUMP JUMPDEST CALLVALUE DUP1 ISZERO PUSH2 0x408 JUMPI PUSH1 0x0 DUP1 REVERT JUMPDEST POP PUSH2 0x1C9 PUSH2 0x417 CALLDATASIZE PUSH1 0x4 PUSH2 0x4F28 JUMP JUMPDEST PUSH2 0x3CBC JUMP JUMPDEST CALLVALUE DUP1 ISZERO PUSH2 0x428 JUMPI PUSH1 0x0 DUP1 REVERT JUMPDEST POP PUSH2 0x3ED PUSH2 0x437 CALLDATASIZE PUSH1 0x4 PUSH2 0x4F28 JUMP JUMPDEST PUSH2 0x3EEE JUMP JUMPDEST CALLVALUE DUP1 ISZERO PUSH2 0x448 JUMPI PUSH1 0x0 DUP1 REVERT JUMPDEST POP PUSH2 0x45C PUSH2 0x457 CALLDATASIZE PUSH1 0x4 PUSH2 0x51B2 JUMP JUMPDEST PUSH2 0x4022 JUMP JUMPDEST PUSH1 0x40 MLOAD PUSH2 0x173 SWAP2 SWAP1 PUSH2 0x5665 JUMP JUMPDEST CALLVALUE DUP1 ISZERO PUSH2 0x475 JUMPI PUSH1 0x0 DUP1 REVERT JUMPDEST POP PUSH2 0x1C9 PUSH2 0x484 CALLDATASIZE PUSH1 0x4 PUSH2 0x5160 JUMP JUMPDEST PUSH2 0x43B2 JUMP JUMPDEST CALLVALUE DUP1 ISZERO PUSH2 0x495 JUMPI PUSH1 0x0 DUP1 REVERT JUMPDEST POP PUSH2 0x218 PUSH2 0x4608 JUMP JUMPDEST PUSH1 0x1 PUSH1 0x1 PUSH1 0xA0 SHL SUB DUP2 AND PUSH1 0x0 SWAP1 DUP2 MSTORE PUSH1 0x20 DUP2 DUP2 MSTORE PUSH1 0x40 DUP1 DUP4 KECCAK256 PUSH1 0x7 DUP2 ADD SLOAD PUSH1 0x6 SWAP1 SWAP2 ADD DUP1 SLOAD DUP4 MLOAD DUP2 DUP7 MUL DUP2 ADD DUP7 ADD SWAP1 SWAP5 MSTORE DUP1 DUP5 MSTORE PUSH1 0x60 SWAP5 PUSH1 0xFF SWAP1 SWAP4 AND SWAP4 SWAP2 SWAP3 DUP4 SWAP2 SWAP1 DUP4 ADD DUP3 DUP3 DUP1 ISZERO PUSH2 0x53B JUMPI PUSH1 0x20 MUL DUP3 ADD SWAP2 SWAP1 PUSH1 0x0 MSTORE PUSH1 0x20 PUSH1 0x0 KECCAK256 SWAP1 PUSH1 0x0 SWAP1 JUMPDEST DUP3 DUP3 SWAP1 SLOAD SWAP1 PUSH2 0x100 EXP SWAP1 DIV PUSH4 0xFFFFFFFF AND PUSH4 0xFFFFFFFF AND DUP2 MSTORE PUSH1 0x20 ADD SWAP1 PUSH1 0x4 ADD SWAP1 PUSH1 0x20 DUP3 PUSH1 0x3 ADD DIV SWAP3 DUP4 ADD SWAP3 PUSH1 0x1 SUB DUP3 MUL SWAP2 POP DUP1 DUP5 GT PUSH2 0x4FE JUMPI SWAP1 POP JUMPDEST POP POP POP POP POP SWAP1 POP SWAP2 POP SWAP2 POP SWAP2 POP SWAP2 JUMP JUMPDEST PUSH1 0x60 PUSH1 0x0 DUP1 PUSH1 0x6 DUP1 SLOAD SWAP1 POP PUSH8 0xFFFFFFFFFFFFFFFF DUP2 GT ISZERO PUSH2 0x56E JUMPI PUSH2 0x56E PUSH2 0x5816 JUMP JUMPDEST PUSH1 0x40 MLOAD SWAP1 DUP1 DUP3 MSTORE DUP1 PUSH1 0x20 MUL PUSH1 0x20 ADD DUP3 ADD PUSH1 0x40 MSTORE DUP1 ISZERO PUSH2 0x597 JUMPI DUP2 PUSH1 0x20 ADD PUSH1 0x20 DUP3 MUL DUP1 CALLDATASIZE DUP4 CALLDATACOPY ADD SWAP1 POP JUMPDEST POP SWAP1 POP PUSH1 0x0 JUMPDEST PUSH1 0x6 SLOAD DUP2 LT ISZERO PUSH2 0x71E JUMPI PUSH2 0x693 PUSH1 0x5 PUSH1 0x0 PUSH1 0x6 DUP5 DUP2 SLOAD DUP2 LT PUSH2 0x5C1 JUMPI PUSH2 0x5C1 PUSH2 0x5800 JUMP JUMPDEST SWAP1 PUSH1 0x0 MSTORE PUSH1 0x20 PUSH1 0x0 KECCAK256 SWAP1 PUSH1 0x8 SWAP2 DUP3 DUP3 DIV ADD SWAP2 SWAP1 MOD PUSH1 0x4 MUL SWAP1 SLOAD SWAP1 PUSH2 0x100 EXP SWAP1 DIV PUSH4 0xFFFFFFFF AND PUSH4 0xFFFFFFFF AND PUSH4 0xFFFFFFFF AND DUP2 MSTORE PUSH1 0x20 ADD SWAP1 DUP2 MSTORE PUSH1 0x20 ADD PUSH1 0x0 KECCAK256 PUSH1 0x1 ADD DUP1 SLOAD PUSH2 0x60F SWAP1 PUSH2 0x575A JUMP JUMPDEST DUP1 PUSH1 0x1F ADD PUSH1 0x20 DUP1 SWAP2 DIV MUL PUSH1 0x20 ADD PUSH1 0x40 MLOAD SWAP1 DUP2 ADD PUSH1 0x40 MSTORE DUP1 SWAP3 SWAP2 SWAP1 DUP2 DUP2 MSTORE PUSH1 0x20 ADD DUP3 DUP1 SLOAD PUSH2 0x63B SWAP1 PUSH2 0x575A JUMP JUMPDEST DUP1 ISZERO PUSH2 0x688 JUMPI DUP1 PUSH1 0x1F LT PUSH2 0x65D JUMPI PUSH2 0x100 DUP1 DUP4 SLOAD DIV MUL DUP4 MSTORE SWAP2 PUSH1 0x20 ADD SWAP2 PUSH2 0x688 JUMP JUMPDEST DUP3 ADD SWAP2 SWAP1 PUSH1 0x0 MSTORE PUSH1 0x20 PUSH1 0x0 KECCAK256 SWAP1 JUMPDEST DUP2 SLOAD DUP2 MSTORE SWAP1 PUSH1 0x1 ADD SWAP1 PUSH1 0x20 ADD DUP1 DUP4 GT PUSH2 0x66B JUMPI DUP3 SWAP1 SUB PUSH1 0x1F AND DUP3 ADD SWAP2 JUMPDEST POP POP POP POP POP DUP7 PUSH2 0x473A JUMP JUMPDEST ISZERO PUSH2 0x70C JUMPI PUSH1 0x6 DUP2 DUP2 SLOAD DUP2 LT PUSH2 0x6AB JUMPI PUSH2 0x6AB PUSH2 0x5800 JUMP JUMPDEST SWAP1 PUSH1 0x0 MSTORE PUSH1 0x20 PUSH1 0x0 KECCAK256 SWAP1 PUSH1 0x8 SWAP2 DUP3 DUP3 DIV ADD SWAP2 SWAP1 MOD PUSH1 0x4 MUL SWAP1 SLOAD SWAP1 PUSH2 0x100 EXP SWAP1 DIV PUSH4 0xFFFFFFFF AND DUP3 DUP5 PUSH4 0xFFFFFFFF AND DUP2 MLOAD DUP2 LT PUSH2 0x6E9 JUMPI PUSH2 0x6E9 PUSH2 0x5800 JUMP JUMPDEST PUSH4 0xFFFFFFFF SWAP1 SWAP3 AND PUSH1 0x20 SWAP3 DUP4 MUL SWAP2 SWAP1 SWAP2 ADD SWAP1 SWAP2 ADD MSTORE DUP3 PUSH2 0x708 DUP2 PUSH2 0x57B0 JUMP JUMPDEST SWAP4 POP POP JUMPDEST DUP1 PUSH2 0x716 DUP2 PUSH2 0x5795 JUMP JUMPDEST SWAP2 POP POP PUSH2 0x59D JUMP JUMPDEST POP DUP2 PUSH4 0xFFFFFFFF AND PUSH8 0xFFFFFFFFFFFFFFFF DUP2 GT ISZERO PUSH2 0x73E JUMPI PUSH2 0x73E PUSH2 0x5816 JUMP JUMPDEST PUSH1 0x40 MLOAD SWAP1 DUP1 DUP3 MSTORE DUP1 PUSH1 0x20 MUL PUSH1 0x20 ADD DUP3 ADD PUSH1 0x40 MSTORE DUP1 ISZERO PUSH2 0x767 JUMPI DUP2 PUSH1 0x20 ADD PUSH1 0x20 DUP3 MUL DUP1 CALLDATASIZE DUP4 CALLDATACOPY ADD SWAP1 POP JUMPDEST POP SWAP3 POP PUSH1 0x0 JUMPDEST DUP3 PUSH4 0xFFFFFFFF AND DUP2 LT ISZERO PUSH2 0x7CE JUMPI DUP2 DUP2 DUP2 MLOAD DUP2 LT PUSH2 0x78D JUMPI PUSH2 0x78D PUSH2 0x5800 JUMP JUMPDEST PUSH1 0x20 MUL PUSH1 0x20 ADD ADD MLOAD DUP5 DUP3 DUP2 MLOAD DUP2 LT PUSH2 0x7A7 JUMPI PUSH2 0x7A7 PUSH2 0x5800 JUMP JUMPDEST PUSH4 0xFFFFFFFF SWAP1 SWAP3 AND PUSH1 0x20 SWAP3 DUP4 MUL SWAP2 SWAP1 SWAP2 ADD SWAP1 SWAP2 ADD MSTORE DUP1 PUSH2 0x7C6 DUP2 PUSH2 0x5795 JUMP JUMPDEST SWAP2 POP POP PUSH2 0x76D JUMP JUMPDEST POP POP POP SWAP2 SWAP1 POP JUMP JUMPDEST CALLER PUSH1 0x0 SWAP1 DUP2 MSTORE PUSH1 0x20 DUP2 SWAP1 MSTORE PUSH1 0x40 DUP1 DUP3 KECCAK256 DUP2 MLOAD PUSH2 0x100 DUP2 ADD SWAP1 SWAP3 MSTORE DUP1 SLOAD DUP3 SWAP1 DUP3 SWAP1 PUSH2 0x7FF SWAP1 PUSH2 0x575A JUMP JUMPDEST DUP1 PUSH1 0x1F ADD PUSH1 0x20 DUP1 SWAP2 DIV MUL PUSH1 0x20 ADD PUSH1 0x40 MLOAD SWAP1 DUP2 ADD PUSH1 0x40 MSTORE DUP1 SWAP3 SWAP2 SWAP1 DUP2 DUP2 MSTORE PUSH1 0x20 ADD DUP3 DUP1 SLOAD PUSH2 0x82B SWAP1 PUSH2 0x575A JUMP JUMPDEST DUP1 ISZERO PUSH2 0x878 JUMPI DUP1 PUSH1 0x1F LT PUSH2 0x84D JUMPI PUSH2 0x100 DUP1 DUP4 SLOAD DIV MUL DUP4 MSTORE SWAP2 PUSH1 0x20 ADD SWAP2 PUSH2 0x878 JUMP JUMPDEST DUP3 ADD SWAP2 SWAP1 PUSH1 0x0 MSTORE PUSH1 0x20 PUSH1 0x0 KECCAK256 SWAP1 JUMPDEST DUP2 SLOAD DUP2 MSTORE SWAP1 PUSH1 0x1 ADD SWAP1 PUSH1 0x20 ADD DUP1 DUP4 GT PUSH2 0x85B JUMPI DUP3 SWAP1 SUB PUSH1 0x1F AND DUP3 ADD SWAP2 JUMPDEST POP POP POP POP POP DUP2 MSTORE PUSH1 0x20 ADD PUSH1 0x1 DUP3 ADD DUP1 SLOAD PUSH2 0x891 SWAP1 PUSH2 0x575A JUMP JUMPDEST DUP1 PUSH1 0x1F ADD PUSH1 0x20 DUP1 SWAP2 DIV MUL PUSH1 0x20 ADD PUSH1 0x40 MLOAD SWAP1 DUP2 ADD PUSH1 0x40 MSTORE DUP1 SWAP3 SWAP2 SWAP1 DUP2 DUP2 MSTORE PUSH1 0x20 ADD DUP3 DUP1 SLOAD PUSH2 0x8BD SWAP1 PUSH2 0x575A JUMP JUMPDEST DUP1 ISZERO PUSH2 0x90A JUMPI DUP1 PUSH1 0x1F LT PUSH2 0x8DF JUMPI PUSH2 0x100 DUP1 DUP4 SLOAD DIV MUL DUP4 MSTORE SWAP2 PUSH1 0x20 ADD SWAP2 PUSH2 0x90A JUMP JUMPDEST DUP3 ADD SWAP2 SWAP1 PUSH1 0x0 MSTORE PUSH1 0x20 PUSH1 0x0 KECCAK256 SWAP1 JUMPDEST DUP2 SLOAD DUP2 MSTORE SWAP1 PUSH1 0x1 ADD SWAP1 PUSH1 0x20 ADD DUP1 DUP4 GT PUSH2 0x8ED JUMPI DUP3 SWAP1 SUB PUSH1 0x1F AND DUP3 ADD SWAP2 JUMPDEST POP POP POP SWAP2 DUP4 MSTORE POP POP PUSH1 0x2 DUP3 ADD SLOAD PUSH1 0x20 DUP3 ADD MSTORE PUSH1 0x3 DUP3 ADD SLOAD PUSH1 0x40 DUP3 ADD MSTORE PUSH1 0x4 DUP3 ADD SLOAD PUSH1 0x60 SWAP1 SWAP2 ADD SWAP1 PUSH1 0xFF AND PUSH1 0x5 DUP2 GT ISZERO PUSH2 0x945 JUMPI PUSH2 0x945 PUSH2 0x57EA JUMP JUMPDEST PUSH1 0x5 DUP2 GT ISZERO PUSH2 0x956 JUMPI PUSH2 0x956 PUSH2 0x57EA JUMP JUMPDEST DUP2 MSTORE PUSH1 0x20 ADD PUSH1 0x5 DUP3 ADD DUP1 SLOAD PUSH2 0x96A SWAP1 PUSH2 0x575A JUMP JUMPDEST DUP1 PUSH1 0x1F ADD PUSH1 0x20 DUP1 SWAP2 DIV MUL PUSH1 0x20 ADD PUSH1 0x40 MLOAD SWAP1 DUP2 ADD PUSH1 0x40 MSTORE DUP1 SWAP3 SWAP2 SWAP1 DUP2 DUP2 MSTORE PUSH1 0x20 ADD DUP3 DUP1 SLOAD PUSH2 0x996 SWAP1 PUSH2 0x575A JUMP JUMPDEST DUP1 ISZERO PUSH2 0x9E3 JUMPI DUP1 PUSH1 0x1F LT PUSH2 0x9B8 JUMPI PUSH2 0x100 DUP1 DUP4 SLOAD DIV MUL DUP4 MSTORE SWAP2 PUSH1 0x20 ADD SWAP2 PUSH2 0x9E3 JUMP JUMPDEST DUP3 ADD SWAP2 SWAP1 PUSH1 0x0 MSTORE PUSH1 0x20 PUSH1 0x0 KECCAK256 SWAP1 JUMPDEST DUP2 SLOAD DUP2 MSTORE SWAP1 PUSH1 0x1 ADD SWAP1 PUSH1 0x20 ADD DUP1 DUP4 GT PUSH2 0x9C6 JUMPI DUP3 SWAP1 SUB PUSH1 0x1F AND DUP3 ADD SWAP2 JUMPDEST POP POP POP POP POP DUP2 MSTORE PUSH1 0x20 ADD PUSH1 0x6 DUP3 ADD DUP1 SLOAD DUP1 PUSH1 0x20 MUL PUSH1 0x20 ADD PUSH1 0x40 MLOAD SWAP1 DUP2 ADD PUSH1 0x40 MSTORE DUP1 SWAP3 SWAP2 SWAP1 DUP2 DUP2 MSTORE PUSH1 0x20 ADD DUP3 DUP1 SLOAD DUP1 ISZERO PUSH2 0xA67 JUMPI PUSH1 0x20 MUL DUP3 ADD SWAP2 SWAP1 PUSH1 0x0 MSTORE PUSH1 0x20 PUSH1 0x0 KECCAK256 SWAP1 PUSH1 0x0 SWAP1 JUMPDEST DUP3 DUP3 SWAP1 SLOAD SWAP1 PUSH2 0x100 EXP SWAP1 DIV PUSH4 0xFFFFFFFF AND PUSH4 0xFFFFFFFF AND DUP2 MSTORE PUSH1 0x20 ADD SWAP1 PUSH1 0x4 ADD SWAP1 PUSH1 0x20 DUP3 PUSH1 0x3 ADD DIV SWAP3 DUP4 ADD SWAP3 PUSH1 0x1 SUB DUP3 MUL SWAP2 POP DUP1 DUP5 GT PUSH2 0xA2A JUMPI SWAP1 POP JUMPDEST POP POP POP SWAP2 DUP4 MSTORE POP POP PUSH1 0x7 SWAP2 SWAP1 SWAP2 ADD SLOAD PUSH1 0xFF AND ISZERO ISZERO PUSH1 0x20 SWAP1 SWAP2 ADD MSTORE SWAP1 POP PUSH1 0x0 DUP2 PUSH1 0x80 ADD MLOAD PUSH1 0x5 DUP2 GT ISZERO PUSH2 0xA9B JUMPI PUSH2 0xA9B PUSH2 0x57EA JUMP JUMPDEST EQ DUP1 PUSH2 0xABC JUMPI POP PUSH1 0x1 DUP2 PUSH1 0x80 ADD MLOAD PUSH1 0x5 DUP2 GT ISZERO PUSH2 0xABA JUMPI PUSH2 0xABA PUSH2 0x57EA JUMP JUMPDEST EQ JUMPDEST PUSH1 0x40 MLOAD DUP1 PUSH1 0x60 ADD PUSH1 0x40 MSTORE DUP1 PUSH1 0x2F DUP2 MSTORE PUSH1 0x20 ADD PUSH2 0x5850 PUSH1 0x2F SWAP2 CODECOPY SWAP1 PUSH2 0xAFC JUMPI PUSH1 0x40 MLOAD PUSH3 0x461BCD PUSH1 0xE5 SHL DUP2 MSTORE PUSH1 0x4 ADD PUSH2 0xAF3 SWAP2 SWAP1 PUSH2 0x5665 JUMP JUMPDEST PUSH1 0x40 MLOAD DUP1 SWAP2 SUB SWAP1 REVERT JUMPDEST POP DUP3 DUP3 PUSH1 0x1 DUP3 PUSH1 0x5 DUP2 GT ISZERO PUSH2 0xB13 JUMPI PUSH2 0xB13 PUSH2 0x57EA JUMP JUMPDEST EQ ISZERO PUSH2 0xBC1 JUMPI PUSH2 0xB32 DUP2 PUSH1 0x40 MLOAD DUP1 PUSH1 0x20 ADD PUSH1 0x40 MSTORE DUP1 PUSH1 0x0 DUP2 MSTORE POP PUSH2 0x473A JUMP JUMPDEST ISZERO PUSH2 0xB4F JUMPI PUSH1 0x40 MLOAD PUSH3 0x461BCD PUSH1 0xE5 SHL DUP2 MSTORE PUSH1 0x4 ADD PUSH2 0xAF3 SWAP1 PUSH2 0x5678 JUMP JUMPDEST PUSH1 0x3 DUP2 PUSH1 0x40 MLOAD PUSH2 0xB5F SWAP2 SWAP1 PUSH2 0x53B5 JUMP JUMPDEST SWAP1 DUP2 MSTORE PUSH1 0x40 MLOAD SWAP1 DUP2 SWAP1 SUB PUSH1 0x20 ADD SWAP1 KECCAK256 PUSH1 0x1 ADD SLOAD PUSH1 0xFF PUSH1 0x1 PUSH1 0xA0 SHL SWAP1 SWAP2 DIV AND PUSH2 0xBC1 JUMPI PUSH1 0x40 MLOAD PUSH3 0x461BCD PUSH1 0xE5 SHL DUP2 MSTORE PUSH1 0x20 PUSH1 0x4 DUP3 ADD MSTORE PUSH1 0x15 PUSH1 0x24 DUP3 ADD MSTORE PUSH21 0x5468657265206973206E6F20737563682073686F7 PUSH1 0x5C SHL PUSH1 0x44 DUP3 ADD MSTORE PUSH1 0x64 ADD PUSH2 0xAF3 JUMP JUMPDEST CALLER PUSH1 0x0 SWAP1 DUP2 MSTORE PUSH1 0x7 PUSH1 0x20 MSTORE PUSH1 0x40 SWAP1 KECCAK256 PUSH1 0x2 ADD SLOAD PUSH1 0xFF AND ISZERO PUSH2 0xC36 JUMPI PUSH1 0x40 MLOAD PUSH3 0x461BCD PUSH1 0xE5 SHL DUP2 MSTORE PUSH1 0x20 PUSH1 0x4 DUP3 ADD MSTORE PUSH1 0x29 PUSH1 0x24 DUP3 ADD MSTORE PUSH32 0x596F75206861766520616C72656164792073656E7420616E20656C6576617465 PUSH1 0x44 DUP3 ADD MSTORE PUSH9 0x207265717565737421 PUSH1 0xB8 SHL PUSH1 0x64 DUP3 ADD MSTORE PUSH1 0x84 ADD PUSH2 0xAF3 JUMP JUMPDEST PUSH1 0x40 MLOAD DUP1 PUSH1 0x80 ADD PUSH1 0x40 MSTORE DUP1 CALLER PUSH1 0x1 PUSH1 0x1 PUSH1 0xA0 SHL SUB AND DUP2 MSTORE PUSH1 0x20 ADD DUP7 PUSH1 0x5 DUP2 GT ISZERO PUSH2 0xC62 JUMPI PUSH2 0xC62 PUSH2 0x57EA JUMP JUMPDEST DUP2 MSTORE PUSH1 0x20 DUP1 DUP3 ADD DUP8 SWAP1 MSTORE PUSH1 0x1 PUSH1 0x40 SWAP3 DUP4 ADD MSTORE CALLER PUSH1 0x0 SWAP1 DUP2 MSTORE PUSH1 0x7 DUP3 MSTORE SWAP2 SWAP1 SWAP2 KECCAK256 DUP3 MLOAD DUP2 SLOAD PUSH1 0x1 PUSH1 0x1 PUSH1 0xA0 SHL SUB SWAP2 SWAP1 SWAP2 AND PUSH1 0x1 PUSH1 0x1 PUSH1 0xA0 SHL SUB NOT DUP3 AND DUP2 OR DUP4 SSTORE SWAP3 DUP5 ADD MLOAD SWAP2 SWAP3 DUP4 SWAP2 PUSH1 0x1 PUSH1 0x1 PUSH1 0xA8 SHL SUB NOT AND OR PUSH1 0x1 PUSH1 0xA0 SHL DUP4 PUSH1 0x5 DUP2 GT ISZERO PUSH2 0xCCB JUMPI PUSH2 0xCCB PUSH2 0x57EA JUMP JUMPDEST MUL OR SWAP1 SSTORE POP PUSH1 0x40 DUP3 ADD MLOAD DUP1 MLOAD PUSH2 0xCEB SWAP2 PUSH1 0x1 DUP5 ADD SWAP2 PUSH1 0x20 SWAP1 SWAP2 ADD SWAP1 PUSH2 0x4CD5 JUMP JUMPDEST POP PUSH1 0x60 SWAP2 SWAP1 SWAP2 ADD MLOAD PUSH1 0x2 SWAP1 SWAP2 ADD DUP1 SLOAD SWAP2 ISZERO ISZERO PUSH1 0xFF NOT SWAP1 SWAP3 AND SWAP2 SWAP1 SWAP2 OR SWAP1 SSTORE POP POP PUSH1 0x8 DUP1 SLOAD PUSH1 0x1 DUP2 ADD DUP3 SSTORE PUSH1 0x0 SWAP2 SWAP1 SWAP2 MSTORE PUSH32 0xF3F7A9FE364FAAB93B216DA50A3214154F22A0A2B415B23A84C8169E8B636EE3 ADD DUP1 SLOAD PUSH1 0x1 PUSH1 0x1 PUSH1 0xA0 SHL SUB NOT AND CALLER OR SWAP1 SSTORE POP POP POP JUMP JUMPDEST PUSH1 0x0 PUSH1 0x1 DUP3 PUSH1 0x40 MLOAD PUSH2 0xD64 SWAP2 SWAP1 PUSH2 0x53B5 JUMP JUMPDEST SWAP1 DUP2 MSTORE PUSH1 0x40 MLOAD SWAP1 DUP2 SWAP1 SUB PUSH1 0x20 ADD SWAP1 KECCAK256 SLOAD PUSH1 0x1 PUSH1 0x1 PUSH1 0xA0 SHL SUB AND SWAP3 SWAP2 POP POP JUMP JUMPDEST PUSH1 0x60 PUSH1 0x4 DUP1 SLOAD DUP1 PUSH1 0x20 MUL PUSH1 0x20 ADD PUSH1 0x40 MLOAD SWAP1 DUP2 ADD PUSH1 0x40 MSTORE DUP1 SWAP3 SWAP2 SWAP1 DUP2 DUP2 MSTORE PUSH1 0x20 ADD PUSH1 0x0 SWAP1 JUMPDEST DUP3 DUP3 LT ISZERO PUSH2 0xE53 JUMPI DUP4 DUP3 SWAP1 PUSH1 0x0 MSTORE PUSH1 0x20 PUSH1 0x0 KECCAK256 ADD DUP1 SLOAD PUSH2 0xDC6 SWAP1 PUSH2 0x575A JUMP JUMPDEST DUP1 PUSH1 0x1F ADD PUSH1 0x20 DUP1 SWAP2 DIV MUL PUSH1 0x20 ADD PUSH1 0x40 MLOAD SWAP1 DUP2 ADD PUSH1 0x40 MSTORE DUP1 SWAP3 SWAP2 SWAP1 DUP2 DUP2 MSTORE PUSH1 0x20 ADD DUP3 DUP1 SLOAD PUSH2 0xDF2 SWAP1 PUSH2 0x575A JUMP JUMPDEST DUP1 ISZERO PUSH2 0xE3F JUMPI DUP1 PUSH1 0x1F LT PUSH2 0xE14 JUMPI PUSH2 0x100 DUP1 DUP4 SLOAD DIV MUL DUP4 MSTORE SWAP2 PUSH1 0x20 ADD SWAP2 PUSH2 0xE3F JUMP JUMPDEST DUP3 ADD SWAP2 SWAP1 PUSH1 0x0 MSTORE PUSH1 0x20 PUSH1 0x0 KECCAK256 SWAP1 JUMPDEST DUP2 SLOAD DUP2 MSTORE SWAP1 PUSH1 0x1 ADD SWAP1 PUSH1 0x20 ADD DUP1 DUP4 GT PUSH2 0xE22 JUMPI DUP3 SWAP1 SUB PUSH1 0x1F AND DUP3 ADD SWAP2 JUMPDEST POP POP POP POP POP DUP2 MSTORE PUSH1 0x20 ADD SWAP1 PUSH1 0x1 ADD SWAP1 PUSH2 0xDA7 JUMP JUMPDEST POP POP POP POP SWAP1 POP SWAP1 JUMP JUMPDEST PUSH1 0x5 CALLER PUSH1 0x0 SWAP1 DUP2 MSTORE PUSH1 0x20 DUP2 SWAP1 MSTORE PUSH1 0x40 SWAP1 KECCAK256 PUSH1 0x4 ADD SLOAD PUSH1 0xFF AND PUSH1 0x5 DUP2 GT ISZERO PUSH2 0xE85 JUMPI PUSH2 0xE85 PUSH2 0x57EA JUMP JUMPDEST EQ PUSH1 0x40 MLOAD DUP1 PUSH1 0x60 ADD PUSH1 0x40 MSTORE DUP1 PUSH1 0x2F DUP2 MSTORE PUSH1 0x20 ADD PUSH2 0x5850 PUSH1 0x2F SWAP2 CODECOPY SWAP1 PUSH2 0xEBD JUMPI PUSH1 0x40 MLOAD PUSH3 0x461BCD PUSH1 0xE5 SHL DUP2 MSTORE PUSH1 0x4 ADD PUSH2 0xAF3 SWAP2 SWAP1 PUSH2 0x5665 JUMP JUMPDEST POP PUSH1 0x0 PUSH1 0x3 DUP3 PUSH1 0x40 MLOAD PUSH2 0xED0 SWAP2 SWAP1 PUSH2 0x53B5 JUMP JUMPDEST SWAP1 DUP2 MSTORE PUSH1 0x20 ADD PUSH1 0x40 MLOAD DUP1 SWAP2 SUB SWAP1 KECCAK256 PUSH1 0x40 MLOAD DUP1 PUSH1 0x60 ADD PUSH1 0x40 MSTORE SWAP1 DUP2 PUSH1 0x0 DUP3 ADD DUP1 SLOAD PUSH2 0xEF9 SWAP1 PUSH2 0x575A JUMP JUMPDEST DUP1 PUSH1 0x1F ADD PUSH1 0x20 DUP1 SWAP2 DIV MUL PUSH1 0x20 ADD PUSH1 0x40 MLOAD SWAP1 DUP2 ADD PUSH1 0x40 MSTORE DUP1 SWAP3 SWAP2 SWAP1 DUP2 DUP2 MSTORE PUSH1 0x20 ADD DUP3 DUP1 SLOAD PUSH2 0xF25 SWAP1 PUSH2 0x575A JUMP JUMPDEST DUP1 ISZERO PUSH2 0xF72 JUMPI DUP1 PUSH1 0x1F LT PUSH2 0xF47 JUMPI PUSH2 0x100 DUP1 DUP4 SLOAD DIV MUL DUP4 MSTORE SWAP2 PUSH1 0x20 ADD SWAP2 PUSH2 0xF72 JUMP JUMPDEST DUP3 ADD SWAP2 SWAP1 PUSH1 0x0 MSTORE PUSH1 0x20 PUSH1 0x0 KECCAK256 SWAP1 JUMPDEST DUP2 SLOAD DUP2 MSTORE SWAP1 PUSH1 0x1 ADD SWAP1 PUSH1 0x20 ADD DUP1 DUP4 GT PUSH2 0xF55 JUMPI DUP3 SWAP1 SUB PUSH1 0x1F AND DUP3 ADD SWAP2 JUMPDEST POP POP POP SWAP2 DUP4 MSTORE POP POP PUSH1 0x1 SWAP2 SWAP1 SWAP2 ADD SLOAD PUSH1 0x1 PUSH1 0x1 PUSH1 0xA0 SHL SUB DUP2 AND PUSH1 0x20 DUP4 ADD MSTORE PUSH1 0x1 PUSH1 0xA0 SHL SWAP1 DIV PUSH1 0xFF AND ISZERO ISZERO PUSH1 0x40 SWAP2 DUP3 ADD MSTORE DUP2 ADD MLOAD SWAP1 SWAP2 POP PUSH2 0xFF4 JUMPI PUSH1 0x40 MLOAD PUSH3 0x461BCD PUSH1 0xE5 SHL DUP2 MSTORE PUSH1 0x20 PUSH1 0x4 DUP3 ADD MSTORE PUSH1 0x1D PUSH1 0x24 DUP3 ADD MSTORE PUSH32 0x5468657265206973206E6F2073686F7020696E20746869732063697479000000 PUSH1 0x44 DUP3 ADD MSTORE PUSH1 0x64 ADD PUSH2 0xAF3 JUMP JUMPDEST PUSH1 0x0 JUMPDEST PUSH1 0x2 SLOAD DUP2 LT ISZERO PUSH2 0x13A1 JUMPI PUSH1 0x0 PUSH1 0x1 PUSH1 0x2 DUP4 DUP2 SLOAD DUP2 LT PUSH2 0x1018 JUMPI PUSH2 0x1018 PUSH2 0x5800 JUMP JUMPDEST SWAP1 PUSH1 0x0 MSTORE PUSH1 0x20 PUSH1 0x0 KECCAK256 ADD PUSH1 0x40 MLOAD PUSH2 0x102F SWAP2 SWAP1 PUSH2 0x53D1 JUMP JUMPDEST SWAP1 DUP2 MSTORE PUSH1 0x20 ADD PUSH1 0x40 MLOAD DUP1 SWAP2 SUB SWAP1 KECCAK256 PUSH1 0x0 SWAP1 SLOAD SWAP1 PUSH2 0x100 EXP SWAP1 DIV PUSH1 0x1 PUSH1 0x1 PUSH1 0xA0 SHL SUB AND SWAP1 POP PUSH1 0x0 DUP1 PUSH1 0x0 PUSH1 0x1 PUSH1 0x2 DUP7 DUP2 SLOAD DUP2 LT PUSH2 0x106D JUMPI PUSH2 0x106D PUSH2 0x5800 JUMP JUMPDEST SWAP1 PUSH1 0x0 MSTORE PUSH1 0x20 PUSH1 0x0 KECCAK256 ADD PUSH1 0x40 MLOAD PUSH2 0x1084 SWAP2 SWAP1 PUSH2 0x53D1 JUMP JUMPDEST SWAP1 DUP2 MSTORE PUSH1 0x40 DUP1 MLOAD PUSH1 0x20 SWAP3 DUP2 SWAP1 SUB DUP4 ADD SWAP1 KECCAK256 SLOAD PUSH1 0x1 PUSH1 0x1 PUSH1 0xA0 SHL SUB AND DUP4 MSTORE SWAP1 DUP3 ADD SWAP3 SWAP1 SWAP3 MSTORE DUP2 ADD PUSH1 0x0 KECCAK256 DUP2 MLOAD PUSH2 0x100 DUP2 ADD SWAP1 SWAP3 MSTORE DUP1 SLOAD DUP3 SWAP1 DUP3 SWAP1 PUSH2 0x10C6 SWAP1 PUSH2 0x575A JUMP JUMPDEST DUP1 PUSH1 0x1F ADD PUSH1 0x20 DUP1 SWAP2 DIV MUL PUSH1 0x20 ADD PUSH1 0x40 MLOAD SWAP1 DUP2 ADD PUSH1 0x40 MSTORE DUP1 SWAP3 SWAP2 SWAP1 DUP2 DUP2 MSTORE PUSH1 0x20 ADD DUP3 DUP1 SLOAD PUSH2 0x10F2 SWAP1 PUSH2 0x575A JUMP JUMPDEST DUP1 ISZERO PUSH2 0x113F JUMPI DUP1 PUSH1 0x1F LT PUSH2 0x1114 JUMPI PUSH2 0x100 DUP1 DUP4 SLOAD DIV MUL DUP4 MSTORE SWAP2 PUSH1 0x20 ADD SWAP2 PUSH2 0x113F JUMP JUMPDEST DUP3 ADD SWAP2 SWAP1 PUSH1 0x0 MSTORE PUSH1 0x20 PUSH1 0x0 KECCAK256 SWAP1 JUMPDEST DUP2 SLOAD DUP2 MSTORE SWAP1 PUSH1 0x1 ADD SWAP1 PUSH1 0x20 ADD DUP1 DUP4 GT PUSH2 0x1122 JUMPI DUP3 SWAP1 SUB PUSH1 0x1F AND DUP3 ADD SWAP2 JUMPDEST POP POP POP POP POP DUP2 MSTORE PUSH1 0x20 ADD PUSH1 0x1 DUP3 ADD DUP1 SLOAD PUSH2 0x1158 SWAP1 PUSH2 0x575A JUMP JUMPDEST DUP1 PUSH1 0x1F ADD PUSH1 0x20 DUP1 SWAP2 DIV MUL PUSH1 0x20 ADD PUSH1 0x40 MLOAD SWAP1 DUP2 ADD PUSH1 0x40 MSTORE DUP1 SWAP3 SWAP2 SWAP1 DUP2 DUP2 MSTORE PUSH1 0x20 ADD DUP3 DUP1 SLOAD PUSH2 0x1184 SWAP1 PUSH2 0x575A JUMP JUMPDEST DUP1 ISZERO PUSH2 0x11D1 JUMPI DUP1 PUSH1 0x1F LT PUSH2 0x11A6 JUMPI PUSH2 0x100 DUP1 DUP4 SLOAD DIV MUL DUP4 MSTORE SWAP2 PUSH1 0x20 ADD SWAP2 PUSH2 0x11D1 JUMP JUMPDEST DUP3 ADD SWAP2 SWAP1 PUSH1 0x0 MSTORE PUSH1 0x20 PUSH1 0x0 KECCAK256 SWAP1 JUMPDEST DUP2 SLOAD DUP2 MSTORE SWAP1 PUSH1 0x1 ADD SWAP1 PUSH1 0x20 ADD DUP1 DUP4 GT PUSH2 0x11B4 JUMPI DUP3 SWAP1 SUB PUSH1 0x1F AND DUP3 ADD SWAP2 JUMPDEST POP POP POP SWAP2 DUP4 MSTORE POP POP PUSH1 0x2 DUP3 ADD SLOAD PUSH1 0x20 DUP3 ADD MSTORE PUSH1 0x3 DUP3 ADD SLOAD PUSH1 0x40 DUP3 ADD MSTORE PUSH1 0x4 DUP3 ADD SLOAD PUSH1 0x60 SWAP1 SWAP2 ADD SWAP1 PUSH1 0xFF AND PUSH1 0x5 DUP2 GT ISZERO PUSH2 0x120C JUMPI PUSH2 0x120C PUSH2 0x57EA JUMP JUMPDEST PUSH1 0x5 DUP2 GT ISZERO PUSH2 0x121D JUMPI PUSH2 0x121D PUSH2 0x57EA JUMP JUMPDEST DUP2 MSTORE PUSH1 0x20 ADD PUSH1 0x5 DUP3 ADD DUP1 SLOAD PUSH2 0x1231 SWAP1 PUSH2 0x575A JUMP JUMPDEST DUP1 PUSH1 0x1F ADD PUSH1 0x20 DUP1 SWAP2 DIV MUL PUSH1 0x20 ADD PUSH1 0x40 MLOAD SWAP1 DUP2 ADD PUSH1 0x40 MSTORE DUP1 SWAP3 SWAP2 SWAP1 DUP2 DUP2 MSTORE PUSH1 0x20 ADD DUP3 DUP1 SLOAD PUSH2 0x125D SWAP1 PUSH2 0x575A JUMP JUMPDEST DUP1 ISZERO PUSH2 0x12AA JUMPI DUP1 PUSH1 0x1F LT PUSH2 0x127F JUMPI PUSH2 0x100 DUP1 DUP4 SLOAD DIV MUL DUP4 MSTORE SWAP2 PUSH1 0x20 ADD SWAP2 PUSH2 0x12AA JUMP JUMPDEST DUP3 ADD SWAP2 SWAP1 PUSH1 0x0 MSTORE PUSH1 0x20 PUSH1 0x0 KECCAK256 SWAP1 JUMPDEST DUP2 SLOAD DUP2 MSTORE SWAP1 PUSH1 0x1 ADD SWAP1 PUSH1 0x20 ADD DUP1 DUP4 GT PUSH2 0x128D JUMPI DUP3 SWAP1 SUB PUSH1 0x1F AND DUP3 ADD SWAP2 JUMPDEST POP POP POP POP POP DUP2 MSTORE PUSH1 0x20 ADD PUSH1 0x6 DUP3 ADD DUP1 SLOAD DUP1 PUSH1 0x20 MUL PUSH1 0x20 ADD PUSH1 0x40 MLOAD SWAP1 DUP2 ADD PUSH1 0x40 MSTORE DUP1 SWAP3 SWAP2 SWAP1 DUP2 DUP2 MSTORE PUSH1 0x20 ADD DUP3 DUP1 SLOAD DUP1 ISZERO PUSH2 0x132E JUMPI PUSH1 0x20 MUL DUP3 ADD SWAP2 SWAP1 PUSH1 0x0 MSTORE PUSH1 0x20 PUSH1 0x0 KECCAK256 SWAP1 PUSH1 0x0 SWAP1 JUMPDEST DUP3 DUP3 SWAP1 SLOAD SWAP1 PUSH2 0x100 EXP SWAP1 DIV PUSH4 0xFFFFFFFF AND PUSH4 0xFFFFFFFF AND DUP2 MSTORE PUSH1 0x20 ADD SWAP1 PUSH1 0x4 ADD SWAP1 PUSH1 0x20 DUP3 PUSH1 0x3 ADD DIV SWAP3 DUP4 ADD SWAP3 PUSH1 0x1 SUB DUP3 MUL SWAP2 POP DUP1 DUP5 GT PUSH2 0x12F1 JUMPI SWAP1 POP JUMPDEST POP POP POP SWAP2 DUP4 MSTORE POP POP PUSH1 0x7 SWAP2 SWAP1 SWAP2 ADD SLOAD PUSH1 0xFF AND ISZERO ISZERO PUSH1 0x20 SWAP1 SWAP2 ADD MSTORE SWAP1 POP PUSH1 0x1 DUP2 PUSH1 0x80 ADD MLOAD PUSH1 0x5 DUP2 GT ISZERO PUSH2 0x1362 JUMPI PUSH2 0x1362 PUSH2 0x57EA JUMP JUMPDEST EQ ISZERO PUSH2 0x138C JUMPI PUSH1 0x1 PUSH1 0x1 PUSH1 0xA0 SHL SUB DUP3 AND PUSH1 0x0 SWAP1 DUP2 MSTORE PUSH1 0x20 DUP2 SWAP1 MSTORE PUSH1 0x40 SWAP1 KECCAK256 PUSH1 0x4 ADD DUP1 SLOAD PUSH1 0xFF NOT AND SWAP1 SSTORE JUMPDEST POP POP DUP1 DUP1 PUSH2 0x1399 SWAP1 PUSH2 0x5795 JUMP JUMPDEST SWAP2 POP POP PUSH2 0xFF7 JUMP JUMPDEST POP PUSH1 0x20 DUP2 DUP2 ADD DUP1 MLOAD PUSH1 0x1 PUSH1 0x1 PUSH1 0xA0 SHL SUB SWAP1 DUP2 AND PUSH1 0x0 SWAP1 DUP2 MSTORE DUP1 DUP5 MSTORE PUSH1 0x40 DUP1 DUP3 KECCAK256 PUSH1 0x4 ADD DUP1 SLOAD PUSH1 0xFF NOT AND SWAP1 SSTORE DUP1 MLOAD DUP1 DUP7 ADD DUP1 DUP4 MSTORE DUP4 DUP3 MSTORE SWAP5 MLOAD SWAP1 SWAP4 AND DUP3 MSTORE SWAP4 DUP2 SWAP1 MSTORE SWAP3 SWAP1 SWAP3 KECCAK256 SWAP2 MLOAD PUSH2 0x13F6 SWAP3 PUSH1 0x5 ADD SWAP2 SWAP1 PUSH2 0x4CD5 JUMP JUMPDEST POP PUSH2 0x1400 DUP3 PUSH2 0x4793 JUMP JUMPDEST POP POP POP JUMP JUMPDEST PUSH1 0x4 CALLER PUSH1 0x0 SWAP1 DUP2 MSTORE PUSH1 0x20 DUP2 SWAP1 MSTORE PUSH1 0x40 SWAP1 KECCAK256 PUSH1 0x4 ADD SLOAD PUSH1 0xFF AND PUSH1 0x5 DUP2 GT ISZERO PUSH2 0x142E JUMPI PUSH2 0x142E PUSH2 0x57EA JUMP JUMPDEST EQ PUSH1 0x40 MLOAD DUP1 PUSH1 0x60 ADD PUSH1 0x40 MSTORE DUP1 PUSH1 0x2F DUP2 MSTORE PUSH1 0x20 ADD PUSH2 0x5850 PUSH1 0x2F SWAP2 CODECOPY SWAP1 PUSH2 0x1466 JUMPI PUSH1 0x40 MLOAD PUSH3 0x461BCD PUSH1 0xE5 SHL DUP2 MSTORE PUSH1 0x4 ADD PUSH2 0xAF3 SWAP2 SWAP1 PUSH2 0x5665 JUMP JUMPDEST POP PUSH1 0x0 PUSH1 0x9 DUP3 PUSH1 0x40 MLOAD PUSH2 0x1479 SWAP2 SWAP1 PUSH2 0x53B5 JUMP JUMPDEST SWAP1 DUP2 MSTORE PUSH1 0x40 DUP1 MLOAD SWAP2 DUP3 SWAP1 SUB PUSH1 0x20 SWAP1 DUP2 ADD DUP4 KECCAK256 PUSH1 0x60 DUP5 ADD DUP4 MSTORE DUP1 SLOAD PUSH1 0x1 PUSH1 0x1 PUSH1 0xA0 SHL SUB AND DUP5 MSTORE PUSH1 0x1 DUP2 ADD SLOAD SWAP2 DUP5 ADD SWAP2 SWAP1 SWAP2 MSTORE PUSH1 0x2 ADD SLOAD PUSH1 0xFF AND ISZERO ISZERO SWAP1 DUP3 ADD DUP2 SWAP1 MSTORE SWAP1 SWAP2 POP PUSH2 0x1519 JUMPI PUSH1 0x40 MLOAD PUSH3 0x461BCD PUSH1 0xE5 SHL DUP2 MSTORE PUSH1 0x20 PUSH1 0x4 DUP3 ADD MSTORE PUSH1 0x28 PUSH1 0x24 DUP3 ADD MSTORE PUSH32 0x546869732073686F70206469646E27742073656E7420616E79206D6F6E657920 PUSH1 0x44 DUP3 ADD MSTORE PUSH8 0x7265717565737473 PUSH1 0xC0 SHL PUSH1 0x64 DUP3 ADD MSTORE PUSH1 0x84 ADD PUSH2 0xAF3 JUMP JUMPDEST DUP1 PUSH1 0x20 ADD MLOAD CALLVALUE EQ PUSH2 0x15A7 JUMPI PUSH1 0x40 MLOAD PUSH3 0x461BCD PUSH1 0xE5 SHL DUP2 MSTORE PUSH1 0x20 PUSH1 0x4 DUP3 ADD MSTORE PUSH1 0x4C PUSH1 0x24 DUP3 ADD MSTORE PUSH32 0x596F75206E65656420746F2073656E642065786163742073616D6520616D6F75 PUSH1 0x44 DUP3 ADD MSTORE PUSH32 0x6E74206F66206D6F6E65792074686174206973207772697474656E20696E206D PUSH1 0x64 DUP3 ADD MSTORE PUSH12 0x1BDB995E481C995C5D595CDD PUSH1 0xA2 SHL PUSH1 0x84 DUP3 ADD MSTORE PUSH1 0xA4 ADD PUSH2 0xAF3 JUMP JUMPDEST PUSH1 0x0 PUSH1 0x3 DUP4 PUSH1 0x40 MLOAD PUSH2 0x15B9 SWAP2 SWAP1 PUSH2 0x53B5 JUMP JUMPDEST SWAP1 DUP2 MSTORE PUSH1 0x40 MLOAD PUSH1 0x20 SWAP2 DUP2 SWAP1 SUB DUP3 ADD DUP2 KECCAK256 PUSH1 0x1 ADD SLOAD SWAP2 DUP5 ADD MLOAD PUSH1 0x1 PUSH1 0x1 PUSH1 0xA0 SHL SUB SWAP1 SWAP3 AND SWAP3 POP DUP3 SWAP2 PUSH2 0x8FC DUP2 ISZERO MUL SWAP2 PUSH1 0x0 DUP2 DUP2 DUP2 DUP6 DUP9 DUP9 CALL SWAP4 POP POP POP POP ISZERO DUP1 ISZERO PUSH2 0x1606 JUMPI RETURNDATASIZE PUSH1 0x0 DUP1 RETURNDATACOPY RETURNDATASIZE PUSH1 0x0 REVERT JUMPDEST POP PUSH2 0x1610 DUP4 PUSH2 0x4793 JUMP JUMPDEST POP POP POP POP JUMP JUMPDEST PUSH1 0x0 PUSH1 0x60 DUP1 PUSH1 0x0 PUSH1 0x60 PUSH1 0x0 DUP1 PUSH1 0x0 DUP9 PUSH1 0x1 PUSH1 0x1 PUSH1 0xA0 SHL SUB AND PUSH1 0x1 PUSH1 0x1 PUSH1 0xA0 SHL SUB AND DUP2 MSTORE PUSH1 0x20 ADD SWAP1 DUP2 MSTORE PUSH1 0x20 ADD PUSH1 0x0 KECCAK256 PUSH1 0x40 MLOAD DUP1 PUSH2 0x100 ADD PUSH1 0x40 MSTORE SWAP1 DUP2 PUSH1 0x0 DUP3 ADD DUP1 SLOAD PUSH2 0x1661 SWAP1 PUSH2 0x575A JUMP JUMPDEST DUP1 PUSH1 0x1F ADD PUSH1 0x20 DUP1 SWAP2 DIV MUL PUSH1 0x20 ADD PUSH1 0x40 MLOAD SWAP1 DUP2 ADD PUSH1 0x40 MSTORE DUP1 SWAP3 SWAP2 SWAP1 DUP2 DUP2 MSTORE PUSH1 0x20 ADD DUP3 DUP1 SLOAD PUSH2 0x168D SWAP1 PUSH2 0x575A JUMP JUMPDEST DUP1 ISZERO PUSH2 0x16DA JUMPI DUP1 PUSH1 0x1F LT PUSH2 0x16AF JUMPI PUSH2 0x100 DUP1 DUP4 SLOAD DIV MUL DUP4 MSTORE SWAP2 PUSH1 0x20 ADD SWAP2 PUSH2 0x16DA JUMP JUMPDEST DUP3 ADD SWAP2 SWAP1 PUSH1 0x0 MSTORE PUSH1 0x20 PUSH1 0x0 KECCAK256 SWAP1 JUMPDEST DUP2 SLOAD DUP2 MSTORE SWAP1 PUSH1 0x1 ADD SWAP1 PUSH1 0x20 ADD DUP1 DUP4 GT PUSH2 0x16BD JUMPI DUP3 SWAP1 SUB PUSH1 0x1F AND DUP3 ADD SWAP2 JUMPDEST POP POP POP POP POP DUP2 MSTORE PUSH1 0x20 ADD PUSH1 0x1 DUP3 ADD DUP1 SLOAD PUSH2 0x16F3 SWAP1 PUSH2 0x575A JUMP JUMPDEST DUP1 PUSH1 0x1F ADD PUSH1 0x20 DUP1 SWAP2 DIV MUL PUSH1 0x20 ADD PUSH1 0x40 MLOAD SWAP1 DUP2 ADD PUSH1 0x40 MSTORE DUP1 SWAP3 SWAP2 SWAP1 DUP2 DUP2 MSTORE PUSH1 0x20 ADD DUP3 DUP1 SLOAD PUSH2 0x171F SWAP1 PUSH2 0x575A JUMP JUMPDEST DUP1 ISZERO PUSH2 0x176C JUMPI DUP1 PUSH1 0x1F LT PUSH2 0x1741 JUMPI PUSH2 0x100 DUP1 DUP4 SLOAD DIV MUL DUP4 MSTORE SWAP2 PUSH1 0x20 ADD SWAP2 PUSH2 0x176C JUMP JUMPDEST DUP3 ADD SWAP2 SWAP1 PUSH1 0x0 MSTORE PUSH1 0x20 PUSH1 0x0 KECCAK256 SWAP1 JUMPDEST DUP2 SLOAD DUP2 MSTORE SWAP1 PUSH1 0x1 ADD SWAP1 PUSH1 0x20 ADD DUP1 DUP4 GT PUSH2 0x174F JUMPI DUP3 SWAP1 SUB PUSH1 0x1F AND DUP3 ADD SWAP2 JUMPDEST POP POP POP SWAP2 DUP4 MSTORE POP POP PUSH1 0x2 DUP3 ADD SLOAD PUSH1 0x20 DUP3 ADD MSTORE PUSH1 0x3 DUP3 ADD SLOAD PUSH1 0x40 DUP3 ADD MSTORE PUSH1 0x4 DUP3 ADD SLOAD PUSH1 0x60 SWAP1 SWAP2 ADD SWAP1 PUSH1 0xFF AND PUSH1 0x5 DUP2 GT ISZERO PUSH2 0x17A7 JUMPI PUSH2 0x17A7 PUSH2 0x57EA JUMP JUMPDEST PUSH1 0x5 DUP2 GT ISZERO PUSH2 0x17B8 JUMPI PUSH2 0x17B8 PUSH2 0x57EA JUMP JUMPDEST DUP2 MSTORE PUSH1 0x20 ADD PUSH1 0x5 DUP3 ADD DUP1 SLOAD PUSH2 0x17CC SWAP1 PUSH2 0x575A JUMP JUMPDEST DUP1 PUSH1 0x1F ADD PUSH1 0x20 DUP1 SWAP2 DIV MUL PUSH1 0x20 ADD PUSH1 0x40 MLOAD SWAP1 DUP2 ADD PUSH1 0x40 MSTORE DUP1 SWAP3 SWAP2 SWAP1 DUP2 DUP2 MSTORE PUSH1 0x20 ADD DUP3 DUP1 SLOAD PUSH2 0x17F8 SWAP1 PUSH2 0x575A JUMP JUMPDEST DUP1 ISZERO PUSH2 0x1845 JUMPI DUP1 PUSH1 0x1F LT PUSH2 0x181A JUMPI PUSH2 0x100 DUP1 DUP4 SLOAD DIV MUL DUP4 MSTORE SWAP2 PUSH1 0x20 ADD SWAP2 PUSH2 0x1845 JUMP JUMPDEST DUP3 ADD SWAP2 SWAP1 PUSH1 0x0 MSTORE PUSH1 0x20 PUSH1 0x0 KECCAK256 SWAP1 JUMPDEST DUP2 SLOAD DUP2 MSTORE SWAP1 PUSH1 0x1 ADD SWAP1 PUSH1 0x20 ADD DUP1 DUP4 GT PUSH2 0x1828 JUMPI DUP3 SWAP1 SUB PUSH1 0x1F AND DUP3 ADD SWAP2 JUMPDEST POP POP POP POP POP DUP2 MSTORE PUSH1 0x20 ADD PUSH1 0x6 DUP3 ADD DUP1 SLOAD DUP1 PUSH1 0x20 MUL PUSH1 0x20 ADD PUSH1 0x40 MLOAD SWAP1 DUP2 ADD PUSH1 0x40 MSTORE DUP1 SWAP3 SWAP2 SWAP1 DUP2 DUP2 MSTORE PUSH1 0x20 ADD DUP3 DUP1 SLOAD DUP1 ISZERO PUSH2 0x18C9 JUMPI PUSH1 0x20 MUL DUP3 ADD SWAP2 SWAP1 PUSH1 0x0 MSTORE PUSH1 0x20 PUSH1 0x0 KECCAK256 SWAP1 PUSH1 0x0 SWAP1 JUMPDEST DUP3 DUP3 SWAP1 SLOAD SWAP1 PUSH2 0x100 EXP SWAP1 DIV PUSH4 0xFFFFFFFF AND PUSH4 0xFFFFFFFF AND DUP2 MSTORE PUSH1 0x20 ADD SWAP1 PUSH1 0x4 ADD SWAP1 PUSH1 0x20 DUP3 PUSH1 0x3 ADD DIV SWAP3 DUP4 ADD SWAP3 PUSH1 0x1 SUB DUP3 MUL SWAP2 POP DUP1 DUP5 GT PUSH2 0x188C JUMPI SWAP1 POP JUMPDEST POP POP POP SWAP2 DUP4 MSTORE POP POP PUSH1 0x7 SWAP2 SWAP1 SWAP2 ADD SLOAD PUSH1 0xFF AND ISZERO ISZERO PUSH1 0x20 SWAP2 DUP3 ADD MSTORE PUSH1 0xE0 DUP3 ADD MLOAD DUP3 MLOAD SWAP2 DUP4 ADD MLOAD PUSH1 0x80 DUP5 ADD MLOAD PUSH1 0xA0 SWAP1 SWAP5 ADD MLOAD SWAP2 SWAP12 SWAP3 SWAP11 POP SWAP9 POP SWAP2 SWAP7 POP SWAP1 SWAP5 POP SWAP3 POP POP POP JUMP JUMPDEST CALLER PUSH1 0x0 SWAP1 DUP2 MSTORE PUSH1 0x20 DUP2 SWAP1 MSTORE PUSH1 0x40 DUP1 DUP3 KECCAK256 DUP2 MLOAD PUSH2 0x100 DUP2 ADD SWAP1 SWAP3 MSTORE DUP1 SLOAD DUP3 SWAP1 DUP3 SWAP1 PUSH2 0x1935 SWAP1 PUSH2 0x575A JUMP JUMPDEST DUP1 PUSH1 0x1F ADD PUSH1 0x20 DUP1 SWAP2 DIV MUL PUSH1 0x20 ADD PUSH1 0x40 MLOAD SWAP1 DUP2 ADD PUSH1 0x40 MSTORE DUP1 SWAP3 SWAP2 SWAP1 DUP2 DUP2 MSTORE PUSH1 0x20 ADD DUP3 DUP1 SLOAD PUSH2 0x1961 SWAP1 PUSH2 0x575A JUMP JUMPDEST DUP1 ISZERO PUSH2 0x19AE JUMPI DUP1 PUSH1 0x1F LT PUSH2 0x1983 JUMPI PUSH2 0x100 DUP1 DUP4 SLOAD DIV MUL DUP4 MSTORE SWAP2 PUSH1 0x20 ADD SWAP2 PUSH2 0x19AE JUMP JUMPDEST DUP3 ADD SWAP2 SWAP1 PUSH1 0x0 MSTORE PUSH1 0x20 PUSH1 0x0 KECCAK256 SWAP1 JUMPDEST DUP2 SLOAD DUP2 MSTORE SWAP1 PUSH1 0x1 ADD SWAP1 PUSH1 0x20 ADD DUP1 DUP4 GT PUSH2 0x1991 JUMPI DUP3 SWAP1 SUB PUSH1 0x1F AND DUP3 ADD SWAP2 JUMPDEST POP POP POP POP POP DUP2 MSTORE PUSH1 0x20 ADD PUSH1 0x1 DUP3 ADD DUP1 SLOAD PUSH2 0x19C7 SWAP1 PUSH2 0x575A JUMP JUMPDEST DUP1 PUSH1 0x1F ADD PUSH1 0x20 DUP1 SWAP2 DIV MUL PUSH1 0x20 ADD PUSH1 0x40 MLOAD SWAP1 DUP2 ADD PUSH1 0x40 MSTORE DUP1 SWAP3 SWAP2 SWAP1 DUP2 DUP2 MSTORE PUSH1 0x20 ADD DUP3 DUP1 SLOAD PUSH2 0x19F3 SWAP1 PUSH2 0x575A JUMP JUMPDEST DUP1 ISZERO PUSH2 0x1A40 JUMPI DUP1 PUSH1 0x1F LT PUSH2 0x1A15 JUMPI PUSH2 0x100 DUP1 DUP4 SLOAD DIV MUL DUP4 MSTORE SWAP2 PUSH1 0x20 ADD SWAP2 PUSH2 0x1A40 JUMP JUMPDEST DUP3 ADD SWAP2 SWAP1 PUSH1 0x0 MSTORE PUSH1 0x20 PUSH1 0x0 KECCAK256 SWAP1 JUMPDEST DUP2 SLOAD DUP2 MSTORE SWAP1 PUSH1 0x1 ADD SWAP1 PUSH1 0x20 ADD DUP1 DUP4 GT PUSH2 0x1A23 JUMPI DUP3 SWAP1 SUB PUSH1 0x1F AND DUP3 ADD SWAP2 JUMPDEST POP POP POP SWAP2 DUP4 MSTORE POP POP PUSH1 0x2 DUP3 ADD SLOAD PUSH1 0x20 DUP3 ADD MSTORE PUSH1 0x3 DUP3 ADD SLOAD PUSH1 0x40 DUP3 ADD MSTORE PUSH1 0x4 DUP3 ADD SLOAD PUSH1 0x60 SWAP1 SWAP2 ADD SWAP1 PUSH1 0xFF AND PUSH1 0x5 DUP2 GT ISZERO PUSH2 0x1A7B JUMPI PUSH2 0x1A7B PUSH2 0x57EA JUMP JUMPDEST PUSH1 0x5 DUP2 GT ISZERO PUSH2 0x1A8C JUMPI PUSH2 0x1A8C PUSH2 0x57EA JUMP JUMPDEST DUP2 MSTORE PUSH1 0x20 ADD PUSH1 0x5 DUP3 ADD DUP1 SLOAD PUSH2 0x1AA0 SWAP1 PUSH2 0x575A JUMP JUMPDEST DUP1 PUSH1 0x1F ADD PUSH1 0x20 DUP1 SWAP2 DIV MUL PUSH1 0x20 ADD PUSH1 0x40 MLOAD SWAP1 DUP2 ADD PUSH1 0x40 MSTORE DUP1 SWAP3 SWAP2 SWAP1 DUP2 DUP2 MSTORE PUSH1 0x20 ADD DUP3 DUP1 SLOAD PUSH2 0x1ACC SWAP1 PUSH2 0x575A JUMP JUMPDEST DUP1 ISZERO PUSH2 0x1B19 JUMPI DUP1 PUSH1 0x1F LT PUSH2 0x1AEE JUMPI PUSH2 0x100 DUP1 DUP4 SLOAD DIV MUL DUP4 MSTORE SWAP2 PUSH1 0x20 ADD SWAP2 PUSH2 0x1B19 JUMP JUMPDEST DUP3 ADD SWAP2 SWAP1 PUSH1 0x0 MSTORE PUSH1 0x20 PUSH1 0x0 KECCAK256 SWAP1 JUMPDEST DUP2 SLOAD DUP2 MSTORE SWAP1 PUSH1 0x1 ADD SWAP1 PUSH1 0x20 ADD DUP1 DUP4 GT PUSH2 0x1AFC JUMPI DUP3 SWAP1 SUB PUSH1 0x1F AND DUP3 ADD SWAP2 JUMPDEST POP POP POP POP POP DUP2 MSTORE PUSH1 0x20 ADD PUSH1 0x6 DUP3 ADD DUP1 SLOAD DUP1 PUSH1 0x20 MUL PUSH1 0x20 ADD PUSH1 0x40 MLOAD SWAP1 DUP2 ADD PUSH1 0x40 MSTORE DUP1 SWAP3 SWAP2 SWAP1 DUP2 DUP2 MSTORE PUSH1 0x20 ADD DUP3 DUP1 SLOAD DUP1 ISZERO PUSH2 0x1B9D JUMPI PUSH1 0x20 MUL DUP3 ADD SWAP2 SWAP1 PUSH1 0x0 MSTORE PUSH1 0x20 PUSH1 0x0 KECCAK256 SWAP1 PUSH1 0x0 SWAP1 JUMPDEST DUP3 DUP3 SWAP1 SLOAD SWAP1 PUSH2 0x100 EXP SWAP1 DIV PUSH4 0xFFFFFFFF AND PUSH4 0xFFFFFFFF AND DUP2 MSTORE PUSH1 0x20 ADD SWAP1 PUSH1 0x4 ADD SWAP1 PUSH1 0x20 DUP3 PUSH1 0x3 ADD DIV SWAP3 DUP4 ADD SWAP3 PUSH1 0x1 SUB DUP3 MUL SWAP2 POP DUP1 DUP5 GT PUSH2 0x1B60 JUMPI SWAP1 POP JUMPDEST POP POP POP SWAP2 DUP4 MSTORE POP POP PUSH1 0x7 SWAP2 SWAP1 SWAP2 ADD SLOAD PUSH1 0xFF AND ISZERO ISZERO PUSH1 0x20 SWAP1 SWAP2 ADD MSTORE SWAP1 POP PUSH1 0x0 DUP2 PUSH1 0x80 ADD MLOAD PUSH1 0x5 DUP2 GT ISZERO PUSH2 0x1BD1 JUMPI PUSH2 0x1BD1 PUSH2 0x57EA JUMP JUMPDEST EQ DUP1 PUSH2 0x1BF2 JUMPI POP PUSH1 0x1 DUP2 PUSH1 0x80 ADD MLOAD PUSH1 0x5 DUP2 GT ISZERO PUSH2 0x1BF0 JUMPI PUSH2 0x1BF0 PUSH2 0x57EA JUMP JUMPDEST EQ JUMPDEST PUSH1 0x40 MLOAD DUP1 PUSH1 0x60 ADD PUSH1 0x40 MSTORE DUP1 PUSH1 0x2F DUP2 MSTORE PUSH1 0x20 ADD PUSH2 0x5850 PUSH1 0x2F SWAP2 CODECOPY SWAP1 PUSH2 0x1C29 JUMPI PUSH1 0x40 MLOAD PUSH3 0x461BCD PUSH1 0xE5 SHL DUP2 MSTORE PUSH1 0x4 ADD PUSH2 0xAF3 SWAP2 SWAP1 PUSH2 0x5665 JUMP JUMPDEST POP PUSH4 0xFFFFFFFF DUP4 AND PUSH1 0x0 SWAP1 DUP2 MSTORE PUSH1 0x5 PUSH1 0x20 SWAP1 DUP2 MSTORE PUSH1 0x40 DUP1 DUP4 KECCAK256 DUP2 MLOAD PUSH2 0x120 DUP2 ADD SWAP1 SWAP3 MSTORE DUP1 SLOAD PUSH1 0x1 PUSH1 0x1 PUSH1 0xA0 SHL SUB AND DUP3 MSTORE PUSH1 0x1 DUP2 ADD DUP1 SLOAD SWAP3 SWAP4 SWAP2 SWAP3 SWAP2 DUP5 ADD SWAP2 PUSH2 0x1C70 SWAP1 PUSH2 0x575A JUMP JUMPDEST DUP1 PUSH1 0x1F ADD PUSH1 0x20 DUP1 SWAP2 DIV MUL PUSH1 0x20 ADD PUSH1 0x40 MLOAD SWAP1 DUP2 ADD PUSH1 0x40 MSTORE DUP1 SWAP3 SWAP2 SWAP1 DUP2 DUP2 MSTORE PUSH1 0x20 ADD DUP3 DUP1 SLOAD PUSH2 0x1C9C SWAP1 PUSH2 0x575A JUMP JUMPDEST DUP1 ISZERO PUSH2 0x1CE9 JUMPI DUP1 PUSH1 0x1F LT PUSH2 0x1CBE JUMPI PUSH2 0x100 DUP1 DUP4 SLOAD DIV MUL DUP4 MSTORE SWAP2 PUSH1 0x20 ADD SWAP2 PUSH2 0x1CE9 JUMP JUMPDEST DUP3 ADD SWAP2 SWAP1 PUSH1 0x0 MSTORE PUSH1 0x20 PUSH1 0x0 KECCAK256 SWAP1 JUMPDEST DUP2 SLOAD DUP2 MSTORE SWAP1 PUSH1 0x1 ADD SWAP1 PUSH1 0x20 ADD DUP1 DUP4 GT PUSH2 0x1CCC JUMPI DUP3 SWAP1 SUB PUSH1 0x1F AND DUP3 ADD SWAP2 JUMPDEST POP POP POP POP POP DUP2 MSTORE PUSH1 0x20 ADD PUSH1 0x2 DUP3 ADD DUP1 SLOAD PUSH2 0x1D02 SWAP1 PUSH2 0x575A JUMP JUMPDEST DUP1 PUSH1 0x1F ADD PUSH1 0x20 DUP1 SWAP2 DIV MUL PUSH1 0x20 ADD PUSH1 0x40 MLOAD SWAP1 DUP2 ADD PUSH1 0x40 MSTORE DUP1 SWAP3 SWAP2 SWAP1 DUP2 DUP2 MSTORE PUSH1 0x20 ADD DUP3 DUP1 SLOAD PUSH2 0x1D2E SWAP1 PUSH2 0x575A JUMP JUMPDEST DUP1 ISZERO PUSH2 0x1D7B JUMPI DUP1 PUSH1 0x1F LT PUSH2 0x1D50 JUMPI PUSH2 0x100 DUP1 DUP4 SLOAD DIV MUL DUP4 MSTORE SWAP2 PUSH1 0x20 ADD SWAP2 PUSH2 0x1D7B JUMP JUMPDEST DUP3 ADD SWAP2 SWAP1 PUSH1 0x0 MSTORE PUSH1 0x20 PUSH1 0x0 KECCAK256 SWAP1 JUMPDEST DUP2 SLOAD DUP2 MSTORE SWAP1 PUSH1 0x1 ADD SWAP1 PUSH1 0x20 ADD DUP1 DUP4 GT PUSH2 0x1D5E JUMPI DUP3 SWAP1 SUB PUSH1 0x1F AND DUP3 ADD SWAP2 JUMPDEST POP POP POP SWAP2 DUP4 MSTORE POP POP PUSH1 0x3 DUP3 ADD SLOAD PUSH4 0xFFFFFFFF AND PUSH1 0x20 DUP1 DUP4 ADD SWAP2 SWAP1 SWAP2 MSTORE PUSH1 0x4 DUP4 ADD DUP1 SLOAD PUSH1 0x40 DUP1 MLOAD DUP3 DUP6 MUL DUP2 ADD DUP6 ADD DUP3 MSTORE DUP3 DUP2 MSTORE SWAP5 ADD SWAP4 SWAP3 DUP4 ADD DUP3 DUP3 DUP1 ISZERO PUSH2 0x1E0C JUMPI PUSH1 0x20 MUL DUP3 ADD SWAP2 SWAP1 PUSH1 0x0 MSTORE PUSH1 0x20 PUSH1 0x0 KECCAK256 SWAP1 PUSH1 0x0 SWAP1 JUMPDEST DUP3 DUP3 SWAP1 SLOAD SWAP1 PUSH2 0x100 EXP SWAP1 DIV PUSH4 0xFFFFFFFF AND PUSH4 0xFFFFFFFF AND DUP2 MSTORE PUSH1 0x20 ADD SWAP1 PUSH1 0x4 ADD SWAP1 PUSH1 0x20 DUP3 PUSH1 0x3 ADD DIV SWAP3 DUP4 ADD SWAP3 PUSH1 0x1 SUB DUP3 MUL SWAP2 POP DUP1 DUP5 GT PUSH2 0x1DCF JUMPI SWAP1 POP JUMPDEST POP POP POP SWAP2 DUP4 MSTORE POP POP PUSH1 0x5 DUP3 ADD SLOAD PUSH1 0xFF AND PUSH1 0x20 DUP1 DUP4 ADD SWAP2 SWAP1 SWAP2 MSTORE PUSH1 0x6 DUP4 ADD DUP1 SLOAD PUSH1 0x40 DUP1 MLOAD DUP3 DUP6 MUL DUP2 ADD DUP6 ADD DUP3 MSTORE DUP3 DUP2 MSTORE SWAP5 ADD SWAP4 SWAP3 DUP4 ADD DUP3 DUP3 DUP1 ISZERO PUSH2 0x1E78 JUMPI PUSH1 0x20 MUL DUP3 ADD SWAP2 SWAP1 PUSH1 0x0 MSTORE PUSH1 0x20 PUSH1 0x0 KECCAK256 SWAP1 JUMPDEST DUP2 SLOAD PUSH1 0x1 PUSH1 0x1 PUSH1 0xA0 SHL SUB AND DUP2 MSTORE PUSH1 0x1 SWAP1 SWAP2 ADD SWAP1 PUSH1 0x20 ADD DUP1 DUP4 GT PUSH2 0x1E5A JUMPI JUMPDEST POP POP POP POP POP DUP2 MSTORE PUSH1 0x20 ADD PUSH1 0x7 DUP3 ADD DUP1 SLOAD DUP1 PUSH1 0x20 MUL PUSH1 0x20 ADD PUSH1 0x40 MLOAD SWAP1 DUP2 ADD PUSH1 0x40 MSTORE DUP1 SWAP3 SWAP2 SWAP1 DUP2 DUP2 MSTORE PUSH1 0x20 ADD DUP3 DUP1 SLOAD DUP1 ISZERO PUSH2 0x1EDA JUMPI PUSH1 0x20 MUL DUP3 ADD SWAP2 SWAP1 PUSH1 0x0 MSTORE PUSH1 0x20 PUSH1 0x0 KECCAK256 SWAP1 JUMPDEST DUP2 SLOAD PUSH1 0x1 PUSH1 0x1 PUSH1 0xA0 SHL SUB AND DUP2 MSTORE PUSH1 0x1 SWAP1 SWAP2 ADD SWAP1 PUSH1 0x20 ADD DUP1 DUP4 GT PUSH2 0x1EBC JUMPI JUMPDEST POP POP POP SWAP2 DUP4 MSTORE POP POP PUSH1 0x8 SWAP2 SWAP1 SWAP2 ADD SLOAD PUSH1 0xFF AND ISZERO ISZERO PUSH1 0x20 SWAP1 SWAP2 ADD MSTORE PUSH2 0x100 DUP2 ADD MLOAD SWAP1 SWAP2 POP PUSH2 0x1F49 JUMPI PUSH1 0x40 MLOAD PUSH3 0x461BCD PUSH1 0xE5 SHL DUP2 MSTORE PUSH1 0x20 PUSH1 0x4 DUP3 ADD MSTORE PUSH1 0x1A PUSH1 0x24 DUP3 ADD MSTORE PUSH32 0x546869732072657669657720646F6573206E6F74206578697374000000000000 PUSH1 0x44 DUP3 ADD MSTORE PUSH1 0x64 ADD PUSH2 0xAF3 JUMP JUMPDEST DUP1 MLOAD PUSH1 0x1 PUSH1 0x1 PUSH1 0xA0 SHL SUB AND CALLER EQ ISZERO PUSH2 0x1FA3 JUMPI PUSH1 0x40 MLOAD PUSH3 0x461BCD PUSH1 0xE5 SHL DUP2 MSTORE PUSH1 0x20 PUSH1 0x4 DUP3 ADD MSTORE PUSH1 0x1E PUSH1 0x24 DUP3 ADD MSTORE PUSH32 0x596F752063616E2774207261746520796F7572206F776E207265766965770000 PUSH1 0x44 DUP3 ADD MSTORE PUSH1 0x64 ADD PUSH2 0xAF3 JUMP JUMPDEST PUSH2 0x1FAC DUP5 PUSH2 0x48D7 JUMP JUMPDEST POP DUP3 ISZERO PUSH2 0x1FF0 JUMPI PUSH4 0xFFFFFFFF DUP5 AND PUSH1 0x0 SWAP1 DUP2 MSTORE PUSH1 0x5 PUSH1 0x20 SWAP1 DUP2 MSTORE PUSH1 0x40 DUP3 KECCAK256 PUSH1 0x6 ADD DUP1 SLOAD PUSH1 0x1 DUP2 ADD DUP3 SSTORE SWAP1 DUP4 MSTORE SWAP2 KECCAK256 ADD DUP1 SLOAD PUSH1 0x1 PUSH1 0x1 PUSH1 0xA0 SHL SUB NOT AND CALLER OR SWAP1 SSTORE PUSH2 0x1610 JUMP JUMPDEST PUSH4 0xFFFFFFFF DUP5 AND PUSH1 0x0 SWAP1 DUP2 MSTORE PUSH1 0x5 PUSH1 0x20 SWAP1 DUP2 MSTORE PUSH1 0x40 DUP3 KECCAK256 PUSH1 0x7 ADD DUP1 SLOAD PUSH1 0x1 DUP2 ADD DUP3 SSTORE SWAP1 DUP4 MSTORE SWAP2 KECCAK256 ADD DUP1 SLOAD PUSH1 0x1 PUSH1 0x1 PUSH1 0xA0 SHL SUB NOT AND CALLER OR SWAP1 SSTORE POP POP POP POP JUMP JUMPDEST CALLER PUSH1 0x0 SWAP1 DUP2 MSTORE PUSH1 0x20 DUP2 SWAP1 MSTORE PUSH1 0x40 DUP1 DUP3 KECCAK256 DUP2 MLOAD PUSH2 0x100 DUP2 ADD SWAP1 SWAP3 MSTORE DUP1 SLOAD DUP3 SWAP1 DUP3 SWAP1 PUSH2 0x2057 SWAP1 PUSH2 0x575A JUMP JUMPDEST DUP1 PUSH1 0x1F ADD PUSH1 0x20 DUP1 SWAP2 DIV MUL PUSH1 0x20 ADD PUSH1 0x40 MLOAD SWAP1 DUP2 ADD PUSH1 0x40 MSTORE DUP1 SWAP3 SWAP2 SWAP1 DUP2 DUP2 MSTORE PUSH1 0x20 ADD DUP3 DUP1 SLOAD PUSH2 0x2083 SWAP1 PUSH2 0x575A JUMP JUMPDEST DUP1 ISZERO PUSH2 0x20D0 JUMPI DUP1 PUSH1 0x1F LT PUSH2 0x20A5 JUMPI PUSH2 0x100 DUP1 DUP4 SLOAD DIV MUL DUP4 MSTORE SWAP2 PUSH1 0x20 ADD SWAP2 PUSH2 0x20D0 JUMP JUMPDEST DUP3 ADD SWAP2 SWAP1 PUSH1 0x0 MSTORE PUSH1 0x20 PUSH1 0x0 KECCAK256 SWAP1 JUMPDEST DUP2 SLOAD DUP2 MSTORE SWAP1 PUSH1 0x1 ADD SWAP1 PUSH1 0x20 ADD DUP1 DUP4 GT PUSH2 0x20B3 JUMPI DUP3 SWAP1 SUB PUSH1 0x1F AND DUP3 ADD SWAP2 JUMPDEST POP POP POP POP POP DUP2 MSTORE PUSH1 0x20 ADD PUSH1 0x1 DUP3 ADD DUP1 SLOAD PUSH2 0x20E9 SWAP1 PUSH2 0x575A JUMP JUMPDEST DUP1 PUSH1 0x1F ADD PUSH1 0x20 DUP1 SWAP2 DIV MUL PUSH1 0x20 ADD PUSH1 0x40 MLOAD SWAP1 DUP2 ADD PUSH1 0x40 MSTORE DUP1 SWAP3 SWAP2 SWAP1 DUP2 DUP2 MSTORE PUSH1 0x20 ADD DUP3 DUP1 SLOAD PUSH2 0x2115 SWAP1 PUSH2 0x575A JUMP JUMPDEST DUP1 ISZERO PUSH2 0x2162 JUMPI DUP1 PUSH1 0x1F LT PUSH2 0x2137 JUMPI PUSH2 0x100 DUP1 DUP4 SLOAD DIV MUL DUP4 MSTORE SWAP2 PUSH1 0x20 ADD SWAP2 PUSH2 0x2162 JUMP JUMPDEST DUP3 ADD SWAP2 SWAP1 PUSH1 0x0 MSTORE PUSH1 0x20 PUSH1 0x0 KECCAK256 SWAP1 JUMPDEST DUP2 SLOAD DUP2 MSTORE SWAP1 PUSH1 0x1 ADD SWAP1 PUSH1 0x20 ADD DUP1 DUP4 GT PUSH2 0x2145 JUMPI DUP3 SWAP1 SUB PUSH1 0x1F AND DUP3 ADD SWAP2 JUMPDEST POP POP POP SWAP2 DUP4 MSTORE POP POP PUSH1 0x2 DUP3 ADD SLOAD PUSH1 0x20 DUP3 ADD MSTORE PUSH1 0x3 DUP3 ADD SLOAD PUSH1 0x40 DUP3 ADD MSTORE PUSH1 0x4 DUP3 ADD SLOAD PUSH1 0x60 SWAP1 SWAP2 ADD SWAP1 PUSH1 0xFF AND PUSH1 0x5 DUP2 GT ISZERO PUSH2 0x219D JUMPI PUSH2 0x219D PUSH2 0x57EA JUMP JUMPDEST PUSH1 0x5 DUP2 GT ISZERO PUSH2 0x21AE JUMPI PUSH2 0x21AE PUSH2 0x57EA JUMP JUMPDEST DUP2 MSTORE PUSH1 0x20 ADD PUSH1 0x5 DUP3 ADD DUP1 SLOAD PUSH2 0x21C2 SWAP1 PUSH2 0x575A JUMP JUMPDEST DUP1 PUSH1 0x1F ADD PUSH1 0x20 DUP1 SWAP2 DIV MUL PUSH1 0x20 ADD PUSH1 0x40 MLOAD SWAP1 DUP2 ADD PUSH1 0x40 MSTORE DUP1 SWAP3 SWAP2 SWAP1 DUP2 DUP2 MSTORE PUSH1 0x20 ADD DUP3 DUP1 SLOAD PUSH2 0x21EE SWAP1 PUSH2 0x575A JUMP JUMPDEST DUP1 ISZERO PUSH2 0x223B JUMPI DUP1 PUSH1 0x1F LT PUSH2 0x2210 JUMPI PUSH2 0x100 DUP1 DUP4 SLOAD DIV MUL DUP4 MSTORE SWAP2 PUSH1 0x20 ADD SWAP2 PUSH2 0x223B JUMP JUMPDEST DUP3 ADD SWAP2 SWAP1 PUSH1 0x0 MSTORE PUSH1 0x20 PUSH1 0x0 KECCAK256 SWAP1 JUMPDEST DUP2 SLOAD DUP2 MSTORE SWAP1 PUSH1 0x1 ADD SWAP1 PUSH1 0x20 ADD DUP1 DUP4 GT PUSH2 0x221E JUMPI DUP3 SWAP1 SUB PUSH1 0x1F AND DUP3 ADD SWAP2 JUMPDEST POP POP POP POP POP DUP2 MSTORE PUSH1 0x20 ADD PUSH1 0x6 DUP3 ADD DUP1 SLOAD DUP1 PUSH1 0x20 MUL PUSH1 0x20 ADD PUSH1 0x40 MLOAD SWAP1 DUP2 ADD PUSH1 0x40 MSTORE DUP1 SWAP3 SWAP2 SWAP1 DUP2 DUP2 MSTORE PUSH1 0x20 ADD DUP3 DUP1 SLOAD DUP1 ISZERO PUSH2 0x22BF JUMPI PUSH1 0x20 MUL DUP3 ADD SWAP2 SWAP1 PUSH1 0x0 MSTORE PUSH1 0x20 PUSH1 0x0 KECCAK256 SWAP1 PUSH1 0x0 SWAP1 JUMPDEST DUP3 DUP3 SWAP1 SLOAD SWAP1 PUSH2 0x100 EXP SWAP1 DIV PUSH4 0xFFFFFFFF AND PUSH4 0xFFFFFFFF AND DUP2 MSTORE PUSH1 0x20 ADD SWAP1 PUSH1 0x4 ADD SWAP1 PUSH1 0x20 DUP3 PUSH1 0x3 ADD DIV SWAP3 DUP4 ADD SWAP3 PUSH1 0x1 SUB DUP3 MUL SWAP2 POP DUP1 DUP5 GT PUSH2 0x2282 JUMPI SWAP1 POP JUMPDEST POP POP POP SWAP2 DUP4 MSTORE POP POP PUSH1 0x7 SWAP2 SWAP1 SWAP2 ADD SLOAD PUSH1 0xFF AND ISZERO ISZERO PUSH1 0x20 SWAP1 SWAP2 ADD MSTORE SWAP1 POP PUSH1 0x0 DUP2 PUSH1 0x80 ADD MLOAD PUSH1 0x5 DUP2 GT ISZERO PUSH2 0x22F3 JUMPI PUSH2 0x22F3 PUSH2 0x57EA JUMP JUMPDEST EQ DUP1 PUSH2 0x2314 JUMPI POP PUSH1 0x1 DUP2 PUSH1 0x80 ADD MLOAD PUSH1 0x5 DUP2 GT ISZERO PUSH2 0x2312 JUMPI PUSH2 0x2312 PUSH2 0x57EA JUMP JUMPDEST EQ JUMPDEST PUSH1 0x40 MLOAD DUP1 PUSH1 0x60 ADD PUSH1 0x40 MSTORE DUP1 PUSH1 0x2F DUP2 MSTORE PUSH1 0x20 ADD PUSH2 0x5850 PUSH1 0x2F SWAP2 CODECOPY SWAP1 PUSH2 0x234B JUMPI PUSH1 0x40 MLOAD PUSH3 0x461BCD PUSH1 0xE5 SHL DUP2 MSTORE PUSH1 0x4 ADD PUSH2 0xAF3 SWAP2 SWAP1 PUSH2 0x5665 JUMP JUMPDEST POP CALLER PUSH1 0x0 SWAP1 DUP2 MSTORE PUSH1 0x20 DUP2 SWAP1 MSTORE PUSH1 0x40 DUP1 DUP3 KECCAK256 DUP2 MLOAD PUSH2 0x100 DUP2 ADD SWAP1 SWAP3 MSTORE DUP1 SLOAD DUP3 SWAP1 DUP3 SWAP1 PUSH2 0x2375 SWAP1 PUSH2 0x575A JUMP JUMPDEST DUP1 PUSH1 0x1F ADD PUSH1 0x20 DUP1 SWAP2 DIV MUL PUSH1 0x20 ADD PUSH1 0x40 MLOAD SWAP1 DUP2 ADD PUSH1 0x40 MSTORE DUP1 SWAP3 SWAP2 SWAP1 DUP2 DUP2 MSTORE PUSH1 0x20 ADD DUP3 DUP1 SLOAD PUSH2 0x23A1 SWAP1 PUSH2 0x575A JUMP JUMPDEST DUP1 ISZERO PUSH2 0x23EE JUMPI DUP1 PUSH1 0x1F LT PUSH2 0x23C3 JUMPI PUSH2 0x100 DUP1 DUP4 SLOAD DIV MUL DUP4 MSTORE SWAP2 PUSH1 0x20 ADD SWAP2 PUSH2 0x23EE JUMP JUMPDEST DUP3 ADD SWAP2 SWAP1 PUSH1 0x0 MSTORE PUSH1 0x20 PUSH1 0x0 KECCAK256 SWAP1 JUMPDEST DUP2 SLOAD DUP2 MSTORE SWAP1 PUSH1 0x1 ADD SWAP1 PUSH1 0x20 ADD DUP1 DUP4 GT PUSH2 0x23D1 JUMPI DUP3 SWAP1 SUB PUSH1 0x1F AND DUP3 ADD SWAP2 JUMPDEST POP POP POP POP POP DUP2 MSTORE PUSH1 0x20 ADD PUSH1 0x1 DUP3 ADD DUP1 SLOAD PUSH2 0x2407 SWAP1 PUSH2 0x575A JUMP JUMPDEST DUP1 PUSH1 0x1F ADD PUSH1 0x20 DUP1 SWAP2 DIV MUL PUSH1 0x20 ADD PUSH1 0x40 MLOAD SWAP1 DUP2 ADD PUSH1 0x40 MSTORE DUP1 SWAP3 SWAP2 SWAP1 DUP2 DUP2 MSTORE PUSH1 0x20 ADD DUP3 DUP1 SLOAD PUSH2 0x2433 SWAP1 PUSH2 0x575A JUMP JUMPDEST DUP1 ISZERO PUSH2 0x2480 JUMPI DUP1 PUSH1 0x1F LT PUSH2 0x2455 JUMPI PUSH2 0x100 DUP1 DUP4 SLOAD DIV MUL DUP4 MSTORE SWAP2 PUSH1 0x20 ADD SWAP2 PUSH2 0x2480 JUMP JUMPDEST DUP3 ADD SWAP2 SWAP1 PUSH1 0x0 MSTORE PUSH1 0x20 PUSH1 0x0 KECCAK256 SWAP1 JUMPDEST DUP2 SLOAD DUP2 MSTORE SWAP1 PUSH1 0x1 ADD SWAP1 PUSH1 0x20 ADD DUP1 DUP4 GT PUSH2 0x2463 JUMPI DUP3 SWAP1 SUB PUSH1 0x1F AND DUP3 ADD SWAP2 JUMPDEST POP POP POP SWAP2 DUP4 MSTORE POP POP PUSH1 0x2 DUP3 ADD SLOAD PUSH1 0x20 DUP3 ADD MSTORE PUSH1 0x3 DUP3 ADD SLOAD PUSH1 0x40 DUP3 ADD MSTORE PUSH1 0x4 DUP3 ADD SLOAD PUSH1 0x60 SWAP1 SWAP2 ADD SWAP1 PUSH1 0xFF AND PUSH1 0x5 DUP2 GT ISZERO PUSH2 0x24BB JUMPI PUSH2 0x24BB PUSH2 0x57EA JUMP JUMPDEST PUSH1 0x5 DUP2 GT ISZERO PUSH2 0x24CC JUMPI PUSH2 0x24CC PUSH2 0x57EA JUMP JUMPDEST DUP2 MSTORE PUSH1 0x20 ADD PUSH1 0x5 DUP3 ADD DUP1 SLOAD PUSH2 0x24E0 SWAP1 PUSH2 0x575A JUMP JUMPDEST DUP1 PUSH1 0x1F ADD PUSH1 0x20 DUP1 SWAP2 DIV MUL PUSH1 0x20 ADD PUSH1 0x40 MLOAD SWAP1 DUP2 ADD PUSH1 0x40 MSTORE DUP1 SWAP3 SWAP2 SWAP1 DUP2 DUP2 MSTORE PUSH1 0x20 ADD DUP3 DUP1 SLOAD PUSH2 0x250C SWAP1 PUSH2 0x575A JUMP JUMPDEST DUP1 ISZERO PUSH2 0x2559 JUMPI DUP1 PUSH1 0x1F LT PUSH2 0x252E JUMPI PUSH2 0x100 DUP1 DUP4 SLOAD DIV MUL DUP4 MSTORE SWAP2 PUSH1 0x20 ADD SWAP2 PUSH2 0x2559 JUMP JUMPDEST DUP3 ADD SWAP2 SWAP1 PUSH1 0x0 MSTORE PUSH1 0x20 PUSH1 0x0 KECCAK256 SWAP1 JUMPDEST DUP2 SLOAD DUP2 MSTORE SWAP1 PUSH1 0x1 ADD SWAP1 PUSH1 0x20 ADD DUP1 DUP4 GT PUSH2 0x253C JUMPI DUP3 SWAP1 SUB PUSH1 0x1F AND DUP3 ADD SWAP2 JUMPDEST POP POP POP POP POP DUP2 MSTORE PUSH1 0x20 ADD PUSH1 0x6 DUP3 ADD DUP1 SLOAD DUP1 PUSH1 0x20 MUL PUSH1 0x20 ADD PUSH1 0x40 MLOAD SWAP1 DUP2 ADD PUSH1 0x40 MSTORE DUP1 SWAP3 SWAP2 SWAP1 DUP2 DUP2 MSTORE PUSH1 0x20 ADD DUP3 DUP1 SLOAD DUP1 ISZERO PUSH2 0x25DD JUMPI PUSH1 0x20 MUL DUP3 ADD SWAP2 SWAP1 PUSH1 0x0 MSTORE PUSH1 0x20 PUSH1 0x0 KECCAK256 SWAP1 PUSH1 0x0 SWAP1 JUMPDEST DUP3 DUP3 SWAP1 SLOAD SWAP1 PUSH2 0x100 EXP SWAP1 DIV PUSH4 0xFFFFFFFF AND PUSH4 0xFFFFFFFF AND DUP2 MSTORE PUSH1 0x20 ADD SWAP1 PUSH1 0x4 ADD SWAP1 PUSH1 0x20 DUP3 PUSH1 0x3 ADD DIV SWAP3 DUP4 ADD SWAP3 PUSH1 0x1 SUB DUP3 MUL SWAP2 POP DUP1 DUP5 GT PUSH2 0x25A0 JUMPI SWAP1 POP JUMPDEST POP POP POP SWAP2 DUP4 MSTORE POP POP PUSH1 0x7 SWAP2 SWAP1 SWAP2 ADD SLOAD PUSH1 0xFF AND ISZERO ISZERO PUSH1 0x20 SWAP1 SWAP2 ADD MSTORE PUSH1 0x40 MLOAD SWAP1 SWAP2 POP PUSH1 0x3 SWAP1 PUSH2 0x260B SWAP1 DUP9 SWAP1 PUSH2 0x53B5 JUMP JUMPDEST SWAP1 DUP2 MSTORE PUSH1 0x40 MLOAD SWAP1 DUP2 SWAP1 SUB PUSH1 0x20 ADD SWAP1 KECCAK256 PUSH1 0x1 ADD SLOAD PUSH1 0xFF PUSH1 0x1 PUSH1 0xA0 SHL SWAP1 SWAP2 DIV AND PUSH2 0x266B JUMPI PUSH1 0x40 MLOAD PUSH3 0x461BCD PUSH1 0xE5 SHL DUP2 MSTORE PUSH1 0x20 PUSH1 0x4 DUP3 ADD MSTORE PUSH1 0x13 PUSH1 0x24 DUP3 ADD MSTORE PUSH19 0x14DA1BDC08191BD95CC81B9BDD08195E1A5CDD PUSH1 0x6A SHL PUSH1 0x44 DUP3 ADD MSTORE PUSH1 0x64 ADD PUSH2 0xAF3 JUMP JUMPDEST PUSH1 0x1 DUP2 PUSH1 0x80 ADD MLOAD PUSH1 0x5 DUP2 GT ISZERO PUSH2 0x2683 JUMPI PUSH2 0x2683 PUSH2 0x57EA JUMP JUMPDEST EQ ISZERO PUSH2 0x274E JUMPI PUSH2 0x2697 DUP7 DUP3 PUSH1 0xA0 ADD MLOAD PUSH2 0x473A JUMP JUMPDEST PUSH2 0x26F6 JUMPI PUSH1 0x40 MLOAD PUSH3 0x461BCD PUSH1 0xE5 SHL DUP2 MSTORE PUSH1 0x20 PUSH1 0x4 DUP3 ADD MSTORE PUSH1 0x2A PUSH1 0x24 DUP3 ADD MSTORE PUSH32 0x596F752063616E207075626C6973682072657669657773206F6E6C79206F6E20 PUSH1 0x44 DUP3 ADD MSTORE PUSH10 0x796F75722073686F7021 PUSH1 0xB0 SHL PUSH1 0x64 DUP3 ADD MSTORE PUSH1 0x84 ADD PUSH2 0xAF3 JUMP JUMPDEST PUSH4 0xFFFFFFFF DUP4 AND PUSH2 0x2749 JUMPI PUSH1 0x40 MLOAD PUSH3 0x461BCD PUSH1 0xE5 SHL DUP2 MSTORE PUSH1 0x20 PUSH1 0x4 DUP3 ADD MSTORE PUSH1 0x1A PUSH1 0x24 DUP3 ADD MSTORE PUSH32 0x596F752063616E206F6E6C792073656E6420616E737765727321000000000000 PUSH1 0x44 DUP3 ADD MSTORE PUSH1 0x64 ADD PUSH2 0xAF3 JUMP JUMPDEST PUSH2 0x27BC JUMP JUMPDEST PUSH1 0x1 DUP5 PUSH1 0xFF AND LT ISZERO DUP1 ISZERO PUSH2 0x2766 JUMPI POP PUSH1 0xA DUP5 PUSH1 0xFF AND GT ISZERO JUMPDEST PUSH2 0x27BC JUMPI PUSH1 0x40 MLOAD PUSH3 0x461BCD PUSH1 0xE5 SHL DUP2 MSTORE PUSH1 0x20 PUSH1 0x4 DUP3 ADD MSTORE PUSH1 0x21 PUSH1 0x24 DUP3 ADD MSTORE PUSH32 0x526174652063616E206F6E6C79206265206265747765656E203120616E642031 PUSH1 0x44 DUP3 ADD MSTORE PUSH1 0x3 PUSH1 0xFC SHL PUSH1 0x64 DUP3 ADD MSTORE PUSH1 0x84 ADD PUSH2 0xAF3 JUMP JUMPDEST PUSH1 0x6 DUP1 SLOAD PUSH1 0x1 DUP2 ADD DUP3 SSTORE PUSH1 0x0 SWAP2 SWAP1 SWAP2 MSTORE PUSH32 0xF652222313E28459528D920B65115C16C04F3EFC82AAEDC97BE59F3F377C0D3F PUSH1 0x8 DUP3 DIV ADD DUP1 SLOAD PUSH1 0x7 DUP4 AND PUSH1 0x4 MUL PUSH2 0x100 EXP PUSH4 0xFFFFFFFF DUP2 DUP2 MUL NOT SWAP1 SWAP3 AND DUP3 DUP6 AND SWAP2 SWAP1 SWAP2 MUL OR SWAP1 SWAP2 SSTORE DUP5 AND ISZERO PUSH2 0x286E JUMPI PUSH4 0xFFFFFFFF DUP1 DUP6 AND PUSH1 0x0 SWAP1 DUP2 MSTORE PUSH1 0x5 PUSH1 0x20 SWAP1 DUP2 MSTORE PUSH1 0x40 DUP3 KECCAK256 PUSH1 0x4 SWAP1 DUP2 ADD DUP1 SLOAD PUSH1 0x1 DUP2 ADD DUP3 SSTORE SWAP1 DUP5 MSTORE SWAP2 SWAP1 SWAP3 KECCAK256 PUSH1 0x8 DUP3 DIV ADD DUP1 SLOAD DUP6 DUP6 AND PUSH1 0x7 SWAP1 SWAP4 AND SWAP1 SWAP4 MUL PUSH2 0x100 EXP SWAP2 DUP3 MUL SWAP2 SWAP1 SWAP4 MUL NOT SWAP1 SWAP2 AND OR SWAP1 SSTORE JUMPDEST PUSH1 0x60 DUP1 PUSH1 0x40 MLOAD DUP1 PUSH2 0x120 ADD PUSH1 0x40 MSTORE DUP1 CALLER PUSH1 0x1 PUSH1 0x1 PUSH1 0xA0 SHL SUB AND DUP2 MSTORE PUSH1 0x20 ADD DUP11 DUP2 MSTORE PUSH1 0x20 ADD DUP10 DUP2 MSTORE PUSH1 0x20 ADD DUP8 PUSH4 0xFFFFFFFF AND DUP2 MSTORE PUSH1 0x20 ADD DUP4 DUP2 MSTORE PUSH1 0x20 ADD PUSH1 0x1 PUSH1 0x5 DUP2 GT ISZERO PUSH2 0x28BD JUMPI PUSH2 0x28BD PUSH2 0x57EA JUMP JUMPDEST DUP7 PUSH1 0x80 ADD MLOAD PUSH1 0x5 DUP2 GT ISZERO PUSH2 0x28D3 JUMPI PUSH2 0x28D3 PUSH2 0x57EA JUMP JUMPDEST EQ PUSH2 0x28DE JUMPI DUP9 PUSH2 0x28E1 JUMP JUMPDEST PUSH1 0x0 JUMPDEST PUSH1 0xFF AND DUP2 MSTORE PUSH1 0x20 DUP1 DUP3 ADD DUP5 SWAP1 MSTORE PUSH1 0x40 DUP1 DUP4 ADD DUP6 SWAP1 MSTORE PUSH1 0x1 PUSH1 0x60 SWAP1 SWAP4 ADD DUP4 SWAP1 MSTORE PUSH4 0xFFFFFFFF DUP8 AND PUSH1 0x0 SWAP1 DUP2 MSTORE PUSH1 0x5 DUP4 MSTORE KECCAK256 DUP4 MLOAD DUP2 SLOAD PUSH1 0x1 PUSH1 0x1 PUSH1 0xA0 SHL SUB NOT AND PUSH1 0x1 PUSH1 0x1 PUSH1 0xA0 SHL SUB SWAP1 SWAP2 AND OR DUP2 SSTORE DUP4 DUP3 ADD MLOAD DUP1 MLOAD SWAP2 SWAP4 PUSH2 0x2945 SWAP4 SWAP1 DUP6 ADD SWAP3 SWAP2 ADD SWAP1 PUSH2 0x4CD5 JUMP JUMPDEST POP PUSH1 0x40 DUP3 ADD MLOAD DUP1 MLOAD PUSH2 0x2961 SWAP2 PUSH1 0x2 DUP5 ADD SWAP2 PUSH1 0x20 SWAP1 SWAP2 ADD SWAP1 PUSH2 0x4CD5 JUMP JUMPDEST POP PUSH1 0x60 DUP3 ADD MLOAD PUSH1 0x3 DUP3 ADD DUP1 SLOAD PUSH4 0xFFFFFFFF NOT AND PUSH4 0xFFFFFFFF SWAP1 SWAP3 AND SWAP2 SWAP1 SWAP2 OR SWAP1 SSTORE PUSH1 0x80 DUP3 ADD MLOAD DUP1 MLOAD PUSH2 0x299D SWAP2 PUSH1 0x4 DUP5 ADD SWAP2 PUSH1 0x20 SWAP1 SWAP2 ADD SWAP1 PUSH2 0x4D59 JUMP JUMPDEST POP PUSH1 0xA0 DUP3 ADD MLOAD PUSH1 0x5 DUP3 ADD DUP1 SLOAD PUSH1 0xFF NOT AND PUSH1 0xFF SWAP1 SWAP3 AND SWAP2 SWAP1 SWAP2 OR SWAP1 SSTORE PUSH1 0xC0 DUP3 ADD MLOAD DUP1 MLOAD PUSH2 0x29D3 SWAP2 PUSH1 0x6 DUP5 ADD SWAP2 PUSH1 0x20 SWAP1 SWAP2 ADD SWAP1 PUSH2 0x4E03 JUMP JUMPDEST POP PUSH1 0xE0 DUP3 ADD MLOAD DUP1 MLOAD PUSH2 0x29EF SWAP2 PUSH1 0x7 DUP5 ADD SWAP2 PUSH1 0x20 SWAP1 SWAP2 ADD SWAP1 PUSH2 0x4E03 JUMP JUMPDEST POP PUSH2 0x100 SWAP2 DUP3 ADD MLOAD PUSH1 0x8 SWAP2 DUP3 ADD DUP1 SLOAD PUSH1 0xFF NOT AND SWAP2 ISZERO ISZERO SWAP2 SWAP1 SWAP2 OR SWAP1 SSTORE CALLER PUSH1 0x0 SWAP1 DUP2 MSTORE PUSH1 0x20 DUP2 DUP2 MSTORE PUSH1 0x40 DUP3 KECCAK256 PUSH1 0x6 ADD DUP1 SLOAD PUSH1 0x1 DUP2 ADD DUP3 SSTORE SWAP1 DUP4 MSTORE SWAP2 KECCAK256 SWAP2 DUP2 DIV SWAP1 SWAP2 ADD DUP1 SLOAD PUSH1 0x7 SWAP1 SWAP3 AND PUSH1 0x4 MUL SWAP1 SWAP3 EXP PUSH4 0xFFFFFFFF DUP2 DUP2 MUL NOT SWAP1 SWAP3 AND SWAP6 SWAP1 SWAP2 AND MUL SWAP4 SWAP1 SWAP4 OR SWAP1 SWAP3 SSTORE POP POP POP POP POP POP POP POP JUMP JUMPDEST PUSH1 0x3 CALLER PUSH1 0x0 SWAP1 DUP2 MSTORE PUSH1 0x20 DUP2 SWAP1 MSTORE PUSH1 0x40 SWAP1 KECCAK256 PUSH1 0x4 ADD SLOAD PUSH1 0xFF AND PUSH1 0x5 DUP2 GT ISZERO PUSH2 0x2A88 JUMPI PUSH2 0x2A88 PUSH2 0x57EA JUMP JUMPDEST EQ PUSH1 0x40 MLOAD DUP1 PUSH1 0x60 ADD PUSH1 0x40 MSTORE DUP1 PUSH1 0x2F DUP2 MSTORE PUSH1 0x20 ADD PUSH2 0x5850 PUSH1 0x2F SWAP2 CODECOPY SWAP1 PUSH2 0x2AC0 JUMPI PUSH1 0x40 MLOAD PUSH3 0x461BCD PUSH1 0xE5 SHL DUP2 MSTORE PUSH1 0x4 ADD PUSH2 0xAF3 SWAP2 SWAP1 PUSH2 0x5665 JUMP JUMPDEST POP CALLER PUSH1 0x0 SWAP1 DUP2 MSTORE PUSH1 0x20 DUP2 SWAP1 MSTORE PUSH1 0x40 DUP1 DUP3 KECCAK256 SWAP1 MLOAD PUSH1 0x3 SWAP2 PUSH2 0x2AE5 SWAP2 PUSH1 0x5 SWAP1 SWAP2 ADD SWAP1 PUSH2 0x53D1 JUMP JUMPDEST SWAP1 DUP2 MSTORE PUSH1 0x20 ADD PUSH1 0x40 MLOAD DUP1 SWAP2 SUB SWAP1 KECCAK256 PUSH1 0x40 MLOAD DUP1 PUSH1 0x60 ADD PUSH1 0x40 MSTORE SWAP1 DUP2 PUSH1 0x0 DUP3 ADD DUP1 SLOAD PUSH2 0x2B0E SWAP1 PUSH2 0x575A JUMP JUMPDEST DUP1 PUSH1 0x1F ADD PUSH1 0x20 DUP1 SWAP2 DIV MUL PUSH1 0x20 ADD PUSH1 0x40 MLOAD SWAP1 DUP2 ADD PUSH1 0x40 MSTORE DUP1 SWAP3 SWAP2 SWAP1 DUP2 DUP2 MSTORE PUSH1 0x20 ADD DUP3 DUP1 SLOAD PUSH2 0x2B3A SWAP1 PUSH2 0x575A JUMP JUMPDEST DUP1 ISZERO PUSH2 0x2B87 JUMPI DUP1 PUSH1 0x1F LT PUSH2 0x2B5C JUMPI PUSH2 0x100 DUP1 DUP4 SLOAD DIV MUL DUP4 MSTORE SWAP2 PUSH1 0x20 ADD SWAP2 PUSH2 0x2B87 JUMP JUMPDEST DUP3 ADD SWAP2 SWAP1 PUSH1 0x0 MSTORE PUSH1 0x20 PUSH1 0x0 KECCAK256 SWAP1 JUMPDEST DUP2 SLOAD DUP2 MSTORE SWAP1 PUSH1 0x1 ADD SWAP1 PUSH1 0x20 ADD DUP1 DUP4 GT PUSH2 0x2B6A JUMPI DUP3 SWAP1 SUB PUSH1 0x1F AND DUP3 ADD SWAP2 JUMPDEST POP POP POP SWAP2 DUP4 MSTORE POP POP PUSH1 0x1 SWAP2 SWAP1 SWAP2 ADD SLOAD PUSH1 0x1 PUSH1 0x1 PUSH1 0xA0 SHL SUB DUP2 AND PUSH1 0x20 DUP4 ADD MSTORE PUSH1 0x1 PUSH1 0xA0 SHL SWAP1 DIV PUSH1 0xFF AND ISZERO ISZERO PUSH1 0x40 SWAP2 DUP3 ADD MSTORE DUP2 MLOAD SWAP1 MLOAD SWAP2 SWAP3 POP PUSH1 0x9 SWAP2 PUSH2 0x2BCB SWAP2 SWAP1 PUSH2 0x53B5 JUMP JUMPDEST SWAP1 DUP2 MSTORE PUSH1 0x40 MLOAD SWAP1 DUP2 SWAP1 SUB PUSH1 0x20 ADD SWAP1 KECCAK256 PUSH1 0x2 ADD SLOAD PUSH1 0xFF AND PUSH2 0x2C38 JUMPI PUSH1 0x40 MLOAD PUSH3 0x461BCD PUSH1 0xE5 SHL DUP2 MSTORE PUSH1 0x20 PUSH1 0x4 DUP3 ADD MSTORE PUSH1 0x22 PUSH1 0x24 DUP3 ADD MSTORE PUSH32 0x596F7520686176656E27742073656E7420616E79206D6F6E6579207265717565 PUSH1 0x44 DUP3 ADD MSTORE PUSH2 0x1CDD PUSH1 0xF2 SHL PUSH1 0x64 DUP3 ADD MSTORE PUSH1 0x84 ADD PUSH2 0xAF3 JUMP JUMPDEST DUP1 MLOAD PUSH2 0x2C43 SWAP1 PUSH2 0x4793 JUMP JUMPDEST POP POP JUMP JUMPDEST PUSH4 0xFFFFFFFF DUP2 AND PUSH1 0x0 SWAP1 DUP2 MSTORE PUSH1 0x5 PUSH1 0x20 SWAP1 DUP2 MSTORE PUSH1 0x40 DUP1 DUP4 KECCAK256 DUP2 MLOAD PUSH2 0x120 DUP2 ADD SWAP1 SWAP3 MSTORE DUP1 SLOAD PUSH1 0x1 PUSH1 0x1 PUSH1 0xA0 SHL SUB AND DUP3 MSTORE PUSH1 0x1 DUP2 ADD DUP1 SLOAD DUP6 SWAP5 PUSH1 0x60 SWAP5 DUP6 SWAP5 DUP8 SWAP5 DUP7 SWAP5 DUP7 SWAP5 DUP7 SWAP5 DUP6 SWAP5 DUP8 SWAP5 SWAP2 SWAP4 SWAP1 SWAP3 DUP5 ADD SWAP2 SWAP1 PUSH2 0x2CA0 SWAP1 PUSH2 0x575A JUMP JUMPDEST DUP1 PUSH1 0x1F ADD PUSH1 0x20 DUP1 SWAP2 DIV MUL PUSH1 0x20 ADD PUSH1 0x40 MLOAD SWAP1 DUP2 ADD PUSH1 0x40 MSTORE DUP1 SWAP3 SWAP2 SWAP1 DUP2 DUP2 MSTORE PUSH1 0x20 ADD DUP3 DUP1 SLOAD PUSH2 0x2CCC SWAP1 PUSH2 0x575A JUMP JUMPDEST DUP1 ISZERO PUSH2 0x2D19 JUMPI DUP1 PUSH1 0x1F LT PUSH2 0x2CEE JUMPI PUSH2 0x100 DUP1 DUP4 SLOAD DIV MUL DUP4 MSTORE SWAP2 PUSH1 0x20 ADD SWAP2 PUSH2 0x2D19 JUMP JUMPDEST DUP3 ADD SWAP2 SWAP1 PUSH1 0x0 MSTORE PUSH1 0x20 PUSH1 0x0 KECCAK256 SWAP1 JUMPDEST DUP2 SLOAD DUP2 MSTORE SWAP1 PUSH1 0x1 ADD SWAP1 PUSH1 0x20 ADD DUP1 DUP4 GT PUSH2 0x2CFC JUMPI DUP3 SWAP1 SUB PUSH1 0x1F AND DUP3 ADD SWAP2 JUMPDEST POP POP POP POP POP DUP2 MSTORE PUSH1 0x20 ADD PUSH1 0x2 DUP3 ADD DUP1 SLOAD PUSH2 0x2D32 SWAP1 PUSH2 0x575A JUMP JUMPDEST DUP1 PUSH1 0x1F ADD PUSH1 0x20 DUP1 SWAP2 DIV MUL PUSH1 0x20 ADD PUSH1 0x40 MLOAD SWAP1 DUP2 ADD PUSH1 0x40 MSTORE DUP1 SWAP3 SWAP2 SWAP1 DUP2 DUP2 MSTORE PUSH1 0x20 ADD DUP3 DUP1 SLOAD PUSH2 0x2D5E SWAP1 PUSH2 0x575A JUMP JUMPDEST DUP1 ISZERO PUSH2 0x2DAB JUMPI DUP1 PUSH1 0x1F LT PUSH2 0x2D80 JUMPI PUSH2 0x100 DUP1 DUP4 SLOAD DIV MUL DUP4 MSTORE SWAP2 PUSH1 0x20 ADD SWAP2 PUSH2 0x2DAB JUMP JUMPDEST DUP3 ADD SWAP2 SWAP1 PUSH1 0x0 MSTORE PUSH1 0x20 PUSH1 0x0 KECCAK256 SWAP1 JUMPDEST DUP2 SLOAD DUP2 MSTORE SWAP1 PUSH1 0x1 ADD SWAP1 PUSH1 0x20 ADD DUP1 DUP4 GT PUSH2 0x2D8E JUMPI DUP3 SWAP1 SUB PUSH1 0x1F AND DUP3 ADD SWAP2 JUMPDEST POP POP POP SWAP2 DUP4 MSTORE POP POP PUSH1 0x3 DUP3 ADD SLOAD PUSH4 0xFFFFFFFF AND PUSH1 0x20 DUP1 DUP4 ADD SWAP2 SWAP1 SWAP2 MSTORE PUSH1 0x4 DUP4 ADD DUP1 SLOAD PUSH1 0x40 DUP1 MLOAD DUP3 DUP6 MUL DUP2 ADD DUP6 ADD DUP3 MSTORE DUP3 DUP2 MSTORE SWAP5 ADD SWAP4 SWAP3 DUP4 ADD DUP3 DUP3 DUP1 ISZERO PUSH2 0x2E3C JUMPI PUSH1 0x20 MUL DUP3 ADD SWAP2 SWAP1 PUSH1 0x0 MSTORE PUSH1 0x20 PUSH1 0x0 KECCAK256 SWAP1 PUSH1 0x0 SWAP1 JUMPDEST DUP3 DUP3 SWAP1 SLOAD SWAP1 PUSH2 0x100 EXP SWAP1 DIV PUSH4 0xFFFFFFFF AND PUSH4 0xFFFFFFFF AND DUP2 MSTORE PUSH1 0x20 ADD SWAP1 PUSH1 0x4 ADD SWAP1 PUSH1 0x20 DUP3 PUSH1 0x3 ADD DIV SWAP3 DUP4 ADD SWAP3 PUSH1 0x1 SUB DUP3 MUL SWAP2 POP DUP1 DUP5 GT PUSH2 0x2DFF JUMPI SWAP1 POP JUMPDEST POP POP POP SWAP2 DUP4 MSTORE POP POP PUSH1 0x5 DUP3 ADD SLOAD PUSH1 0xFF AND PUSH1 0x20 DUP1 DUP4 ADD SWAP2 SWAP1 SWAP2 MSTORE PUSH1 0x6 DUP4 ADD DUP1 SLOAD PUSH1 0x40 DUP1 MLOAD DUP3 DUP6 MUL DUP2 ADD DUP6 ADD DUP3 MSTORE DUP3 DUP2 MSTORE SWAP5 ADD SWAP4 SWAP3 DUP4 ADD DUP3 DUP3 DUP1 ISZERO PUSH2 0x2EA8 JUMPI PUSH1 0x20 MUL DUP3 ADD SWAP2 SWAP1 PUSH1 0x0 MSTORE PUSH1 0x20 PUSH1 0x0 KECCAK256 SWAP1 JUMPDEST DUP2 SLOAD PUSH1 0x1 PUSH1 0x1 PUSH1 0xA0 SHL SUB AND DUP2 MSTORE PUSH1 0x1 SWAP1 SWAP2 ADD SWAP1 PUSH1 0x20 ADD DUP1 DUP4 GT PUSH2 0x2E8A JUMPI JUMPDEST POP POP POP POP POP DUP2 MSTORE PUSH1 0x20 ADD PUSH1 0x7 DUP3 ADD DUP1 SLOAD DUP1 PUSH1 0x20 MUL PUSH1 0x20 ADD PUSH1 0x40 MLOAD SWAP1 DUP2 ADD PUSH1 0x40 MSTORE DUP1 SWAP3 SWAP2 SWAP1 DUP2 DUP2 MSTORE PUSH1 0x20 ADD DUP3 DUP1 SLOAD DUP1 ISZERO PUSH2 0x2F0A JUMPI PUSH1 0x20 MUL DUP3 ADD SWAP2 SWAP1 PUSH1 0x0 MSTORE PUSH1 0x20 PUSH1 0x0 KECCAK256 SWAP1 JUMPDEST DUP2 SLOAD PUSH1 0x1 PUSH1 0x1 PUSH1 0xA0 SHL SUB AND DUP2 MSTORE PUSH1 0x1 SWAP1 SWAP2 ADD SWAP1 PUSH1 0x20 ADD DUP1 DUP4 GT PUSH2 0x2EEC JUMPI JUMPDEST POP POP POP POP POP DUP2 MSTORE PUSH1 0x20 ADD PUSH1 0x8 DUP3 ADD PUSH1 0x0 SWAP1 SLOAD SWAP1 PUSH2 0x100 EXP SWAP1 DIV PUSH1 0xFF AND ISZERO ISZERO ISZERO ISZERO DUP2 MSTORE POP POP SWAP1 POP DUP1 PUSH2 0x100 ADD MLOAD DUP2 PUSH1 0x0 ADD MLOAD DUP3 PUSH1 0x20 ADD MLOAD DUP4 PUSH1 0x40 ADD MLOAD DUP5 PUSH1 0x60 ADD MLOAD DUP6 PUSH1 0x80 ADD MLOAD DUP7 PUSH1 0xA0 ADD MLOAD DUP8 PUSH1 0xC0 ADD MLOAD DUP9 PUSH1 0xE0 ADD MLOAD SWAP10 POP SWAP10 POP SWAP10 POP SWAP10 POP SWAP10 POP SWAP10 POP SWAP10 POP SWAP10 POP SWAP10 POP POP SWAP2 SWAP4 SWAP6 SWAP8 SWAP10 SWAP1 SWAP3 SWAP5 SWAP7 SWAP9 POP JUMP JUMPDEST CALLER PUSH1 0x0 SWAP1 DUP2 MSTORE PUSH1 0x20 DUP2 SWAP1 MSTORE PUSH1 0x40 DUP1 DUP3 KECCAK256 DUP2 MLOAD PUSH2 0x100 DUP2 ADD SWAP1 SWAP3 MSTORE DUP1 SLOAD DUP3 SWAP1 DUP3 SWAP1 PUSH2 0x2FA7 SWAP1 PUSH2 0x575A JUMP JUMPDEST DUP1 PUSH1 0x1F ADD PUSH1 0x20 DUP1 SWAP2 DIV MUL PUSH1 0x20 ADD PUSH1 0x40 MLOAD SWAP1 DUP2 ADD PUSH1 0x40 MSTORE DUP1 SWAP3 SWAP2 SWAP1 DUP2 DUP2 MSTORE PUSH1 0x20 ADD DUP3 DUP1 SLOAD PUSH2 0x2FD3 SWAP1 PUSH2 0x575A JUMP JUMPDEST DUP1 ISZERO PUSH2 0x3020 JUMPI DUP1 PUSH1 0x1F LT PUSH2 0x2FF5 JUMPI PUSH2 0x100 DUP1 DUP4 SLOAD DIV MUL DUP4 MSTORE SWAP2 PUSH1 0x20 ADD SWAP2 PUSH2 0x3020 JUMP JUMPDEST DUP3 ADD SWAP2 SWAP1 PUSH1 0x0 MSTORE PUSH1 0x20 PUSH1 0x0 KECCAK256 SWAP1 JUMPDEST DUP2 SLOAD DUP2 MSTORE SWAP1 PUSH1 0x1 ADD SWAP1 PUSH1 0x20 ADD DUP1 DUP4 GT PUSH2 0x3003 JUMPI DUP3 SWAP1 SUB PUSH1 0x1F AND DUP3 ADD SWAP2 JUMPDEST POP POP POP POP POP DUP2 MSTORE PUSH1 0x20 ADD PUSH1 0x1 DUP3 ADD DUP1 SLOAD PUSH2 0x3039 SWAP1 PUSH2 0x575A JUMP JUMPDEST DUP1 PUSH1 0x1F ADD PUSH1 0x20 DUP1 SWAP2 DIV MUL PUSH1 0x20 ADD PUSH1 0x40 MLOAD SWAP1 DUP2 ADD PUSH1 0x40 MSTORE DUP1 SWAP3 SWAP2 SWAP1 DUP2 DUP2 MSTORE PUSH1 0x20 ADD DUP3 DUP1 SLOAD PUSH2 0x3065 SWAP1 PUSH2 0x575A JUMP JUMPDEST DUP1 ISZERO PUSH2 0x30B2 JUMPI DUP1 PUSH1 0x1F LT PUSH2 0x3087 JUMPI PUSH2 0x100 DUP1 DUP4 SLOAD DIV MUL DUP4 MSTORE SWAP2 PUSH1 0x20 ADD SWAP2 PUSH2 0x30B2 JUMP JUMPDEST DUP3 ADD SWAP2 SWAP1 PUSH1 0x0 MSTORE PUSH1 0x20 PUSH1 0x0 KECCAK256 SWAP1 JUMPDEST DUP2 SLOAD DUP2 MSTORE SWAP1 PUSH1 0x1 ADD SWAP1 PUSH1 0x20 ADD DUP1 DUP4 GT PUSH2 0x3095 JUMPI DUP3 SWAP1 SUB PUSH1 0x1F AND DUP3 ADD SWAP2 JUMPDEST POP POP POP SWAP2 DUP4 MSTORE POP POP PUSH1 0x2 DUP3 ADD SLOAD PUSH1 0x20 DUP3 ADD MSTORE PUSH1 0x3 DUP3 ADD SLOAD PUSH1 0x40 DUP3 ADD MSTORE PUSH1 0x4 DUP3 ADD SLOAD PUSH1 0x60 SWAP1 SWAP2 ADD SWAP1 PUSH1 0xFF AND PUSH1 0x5 DUP2 GT ISZERO PUSH2 0x30ED JUMPI PUSH2 0x30ED PUSH2 0x57EA JUMP JUMPDEST PUSH1 0x5 DUP2 GT ISZERO PUSH2 0x30FE JUMPI PUSH2 0x30FE PUSH2 0x57EA JUMP JUMPDEST DUP2 MSTORE PUSH1 0x20 ADD PUSH1 0x5 DUP3 ADD DUP1 SLOAD PUSH2 0x3112 SWAP1 PUSH2 0x575A JUMP JUMPDEST DUP1 PUSH1 0x1F ADD PUSH1 0x20 DUP1 SWAP2 DIV MUL PUSH1 0x20 ADD PUSH1 0x40 MLOAD SWAP1 DUP2 ADD PUSH1 0x40 MSTORE DUP1 SWAP3 SWAP2 SWAP1 DUP2 DUP2 MSTORE PUSH1 0x20 ADD DUP3 DUP1 SLOAD PUSH2 0x313E SWAP1 PUSH2 0x575A JUMP JUMPDEST DUP1 ISZERO PUSH2 0x318B JUMPI DUP1 PUSH1 0x1F LT PUSH2 0x3160 JUMPI PUSH2 0x100 DUP1 DUP4 SLOAD DIV MUL DUP4 MSTORE SWAP2 PUSH1 0x20 ADD SWAP2 PUSH2 0x318B JUMP JUMPDEST DUP3 ADD SWAP2 SWAP1 PUSH1 0x0 MSTORE PUSH1 0x20 PUSH1 0x0 KECCAK256 SWAP1 JUMPDEST DUP2 SLOAD DUP2 MSTORE SWAP1 PUSH1 0x1 ADD SWAP1 PUSH1 0x20 ADD DUP1 DUP4 GT PUSH2 0x316E JUMPI DUP3 SWAP1 SUB PUSH1 0x1F AND DUP3 ADD SWAP2 JUMPDEST POP POP POP POP POP DUP2 MSTORE PUSH1 0x20 ADD PUSH1 0x6 DUP3 ADD DUP1 SLOAD DUP1 PUSH1 0x20 MUL PUSH1 0x20 ADD PUSH1 0x40 MLOAD SWAP1 DUP2 ADD PUSH1 0x40 MSTORE DUP1 SWAP3 SWAP2 SWAP1 DUP2 DUP2 MSTORE PUSH1 0x20 ADD DUP3 DUP1 SLOAD DUP1 ISZERO PUSH2 0x320F JUMPI PUSH1 0x20 MUL DUP3 ADD SWAP2 SWAP1 PUSH1 0x0 MSTORE PUSH1 0x20 PUSH1 0x0 KECCAK256 SWAP1 PUSH1 0x0 SWAP1 JUMPDEST DUP3 DUP3 SWAP1 SLOAD SWAP1 PUSH2 0x100 EXP SWAP1 DIV PUSH4 0xFFFFFFFF AND PUSH4 0xFFFFFFFF AND DUP2 MSTORE PUSH1 0x20 ADD SWAP1 PUSH1 0x4 ADD SWAP1 PUSH1 0x20 DUP3 PUSH1 0x3 ADD DIV SWAP3 DUP4 ADD SWAP3 PUSH1 0x1 SUB DUP3 MUL SWAP2 POP DUP1 DUP5 GT PUSH2 0x31D2 JUMPI SWAP1 POP JUMPDEST POP POP POP SWAP2 DUP4 MSTORE POP POP PUSH1 0x7 SWAP2 SWAP1 SWAP2 ADD SLOAD PUSH1 0xFF AND ISZERO ISZERO PUSH1 0x20 SWAP1 SWAP2 ADD MSTORE SWAP1 POP PUSH1 0x0 DUP2 PUSH1 0x80 ADD MLOAD PUSH1 0x5 DUP2 GT ISZERO PUSH2 0x3243 JUMPI PUSH2 0x3243 PUSH2 0x57EA JUMP JUMPDEST EQ DUP1 PUSH2 0x3264 JUMPI POP PUSH1 0x1 DUP2 PUSH1 0x80 ADD MLOAD PUSH1 0x5 DUP2 GT ISZERO PUSH2 0x3262 JUMPI PUSH2 0x3262 PUSH2 0x57EA JUMP JUMPDEST EQ JUMPDEST PUSH1 0x40 MLOAD DUP1 PUSH1 0x60 ADD PUSH1 0x40 MSTORE DUP1 PUSH1 0x2F DUP2 MSTORE PUSH1 0x20 ADD PUSH2 0x5850 PUSH1 0x2F SWAP2 CODECOPY SWAP1 PUSH2 0x329B JUMPI PUSH1 0x40 MLOAD PUSH3 0x461BCD PUSH1 0xE5 SHL DUP2 MSTORE PUSH1 0x4 ADD PUSH2 0xAF3 SWAP2 SWAP1 PUSH2 0x5665 JUMP JUMPDEST POP CALLER PUSH1 0x0 SWAP1 DUP2 MSTORE PUSH1 0x7 PUSH1 0x20 MSTORE PUSH1 0x40 SWAP1 KECCAK256 PUSH1 0x2 ADD SLOAD PUSH1 0xFF AND PUSH2 0x330E JUMPI PUSH1 0x40 MLOAD PUSH3 0x461BCD PUSH1 0xE5 SHL DUP2 MSTORE PUSH1 0x20 PUSH1 0x4 DUP3 ADD MSTORE PUSH1 0x27 PUSH1 0x24 DUP3 ADD MSTORE PUSH32 0x596F752068617665206E6F742073656E7420616E7920656C6576617465207265 PUSH1 0x44 DUP3 ADD MSTORE PUSH7 0x71756573747321 PUSH1 0xC8 SHL PUSH1 0x64 DUP3 ADD MSTORE PUSH1 0x84 ADD PUSH2 0xAF3 JUMP JUMPDEST CALLER PUSH1 0x0 SWAP1 DUP2 MSTORE PUSH1 0x7 PUSH1 0x20 MSTORE PUSH1 0x40 DUP2 KECCAK256 PUSH1 0x2 ADD DUP1 SLOAD PUSH1 0xFF NOT AND SWAP1 SSTORE JUMPDEST PUSH1 0x8 SLOAD DUP2 LT ISZERO PUSH2 0x2C43 JUMPI CALLER PUSH1 0x1 PUSH1 0x1 PUSH1 0xA0 SHL SUB AND PUSH1 0x8 DUP3 DUP2 SLOAD DUP2 LT PUSH2 0x3350 JUMPI PUSH2 0x3350 PUSH2 0x5800 JUMP JUMPDEST PUSH1 0x0 SWAP2 DUP3 MSTORE PUSH1 0x20 SWAP1 SWAP2 KECCAK256 ADD SLOAD PUSH1 0x1 PUSH1 0x1 PUSH1 0xA0 SHL SUB AND EQ ISZERO PUSH2 0x3398 JUMPI PUSH1 0x8 DUP2 DUP2 SLOAD DUP2 LT PUSH2 0x337E JUMPI PUSH2 0x337E PUSH2 0x5800 JUMP JUMPDEST PUSH1 0x0 SWAP2 DUP3 MSTORE PUSH1 0x20 SWAP1 SWAP2 KECCAK256 ADD DUP1 SLOAD PUSH1 0x1 PUSH1 0x1 PUSH1 0xA0 SHL SUB NOT AND SWAP1 SSTORE JUMPDEST DUP1 PUSH2 0x33A2 DUP2 PUSH2 0x5795 JUMP JUMPDEST SWAP2 POP POP PUSH2 0x3329 JUMP JUMPDEST PUSH1 0x5 CALLER PUSH1 0x0 SWAP1 DUP2 MSTORE PUSH1 0x20 DUP2 SWAP1 MSTORE PUSH1 0x40 SWAP1 KECCAK256 PUSH1 0x4 ADD SLOAD PUSH1 0xFF AND PUSH1 0x5 DUP2 GT ISZERO PUSH2 0x33D3 JUMPI PUSH2 0x33D3 PUSH2 0x57EA JUMP JUMPDEST EQ PUSH1 0x40 MLOAD DUP1 PUSH1 0x60 ADD PUSH1 0x40 MSTORE DUP1 PUSH1 0x2F DUP2 MSTORE PUSH1 0x20 ADD PUSH2 0x5850 PUSH1 0x2F SWAP2 CODECOPY SWAP1 PUSH2 0x340B JUMPI PUSH1 0x40 MLOAD PUSH3 0x461BCD PUSH1 0xE5 SHL DUP2 MSTORE PUSH1 0x4 ADD PUSH2 0xAF3 SWAP2 SWAP1 PUSH2 0x5665 JUMP JUMPDEST POP DUP2 DUP2 PUSH1 0x1 DUP3 PUSH1 0x5 DUP2 GT ISZERO PUSH2 0x3422 JUMPI PUSH2 0x3422 PUSH2 0x57EA JUMP JUMPDEST EQ ISZERO PUSH2 0x34D0 JUMPI PUSH2 0x3441 DUP2 PUSH1 0x40 MLOAD DUP1 PUSH1 0x20 ADD PUSH1 0x40 MSTORE DUP1 PUSH1 0x0 DUP2 MSTORE POP PUSH2 0x473A JUMP JUMPDEST ISZERO PUSH2 0x345E JUMPI PUSH1 0x40 MLOAD PUSH3 0x461BCD PUSH1 0xE5 SHL DUP2 MSTORE PUSH1 0x4 ADD PUSH2 0xAF3 SWAP1 PUSH2 0x5678 JUMP JUMPDEST PUSH1 0x3 DUP2 PUSH1 0x40 MLOAD PUSH2 0x346E SWAP2 SWAP1 PUSH2 0x53B5 JUMP JUMPDEST SWAP1 DUP2 MSTORE PUSH1 0x40 MLOAD SWAP1 DUP2 SWAP1 SUB PUSH1 0x20 ADD SWAP1 KECCAK256 PUSH1 0x1 ADD SLOAD PUSH1 0xFF PUSH1 0x1 PUSH1 0xA0 SHL SWAP1 SWAP2 DIV AND PUSH2 0x34D0 JUMPI PUSH1 0x40 MLOAD PUSH3 0x461BCD PUSH1 0xE5 SHL DUP2 MSTORE PUSH1 0x20 PUSH1 0x4 DUP3 ADD MSTORE PUSH1 0x15 PUSH1 0x24 DUP3 ADD MSTORE PUSH21 0x5468657265206973206E6F20737563682073686F7 PUSH1 0x5C SHL PUSH1 0x44 DUP3 ADD MSTORE PUSH1 0x64 ADD PUSH2 0xAF3 JUMP JUMPDEST PUSH1 0x1 PUSH1 0x1 PUSH1 0xA0 SHL SUB DUP6 AND PUSH1 0x0 SWAP1 DUP2 MSTORE PUSH1 0x20 DUP2 SWAP1 MSTORE PUSH1 0x40 SWAP1 KECCAK256 PUSH1 0x4 ADD DUP1 SLOAD DUP6 SWAP2 SWAP1 PUSH1 0xFF NOT AND PUSH1 0x1 DUP4 PUSH1 0x5 DUP2 GT ISZERO PUSH2 0x3508 JUMPI PUSH2 0x3508 PUSH2 0x57EA JUMP JUMPDEST MUL OR SWAP1 SSTORE POP PUSH1 0x1 PUSH1 0x1 PUSH1 0xA0 SHL SUB DUP6 AND PUSH1 0x0 SWAP1 DUP2 MSTORE PUSH1 0x20 DUP2 DUP2 MSTORE PUSH1 0x40 SWAP1 SWAP2 KECCAK256 DUP5 MLOAD PUSH2 0x353A SWAP3 PUSH1 0x5 SWAP1 SWAP3 ADD SWAP2 DUP7 ADD SWAP1 PUSH2 0x4CD5 JUMP JUMPDEST POP POP POP POP POP POP JUMP JUMPDEST PUSH1 0x1 PUSH1 0x1 PUSH1 0xA0 SHL SUB DUP6 AND PUSH1 0x0 SWAP1 DUP2 MSTORE PUSH1 0x20 DUP2 SWAP1 MSTORE PUSH1 0x40 SWAP1 KECCAK256 PUSH1 0x7 ADD SLOAD PUSH1 0xFF AND ISZERO DUP1 ISZERO PUSH2 0x35AD JUMPI POP PUSH1 0x0 DUP1 PUSH1 0x1 DUP7 PUSH1 0x40 MLOAD PUSH2 0x357C SWAP2 SWAP1 PUSH2 0x53B5 JUMP JUMPDEST SWAP1 DUP2 MSTORE PUSH1 0x40 DUP1 MLOAD PUSH1 0x20 SWAP3 DUP2 SWAP1 SUB DUP4 ADD SWAP1 KECCAK256 SLOAD PUSH1 0x1 PUSH1 0x1 PUSH1 0xA0 SHL SUB AND DUP4 MSTORE SWAP1 DUP3 ADD SWAP3 SWAP1 SWAP3 MSTORE ADD PUSH1 0x0 KECCAK256 PUSH1 0x7 ADD SLOAD PUSH1 0xFF AND ISZERO JUMPDEST PUSH2 0x35EE JUMPI PUSH1 0x40 MLOAD PUSH3 0x461BCD PUSH1 0xE5 SHL DUP2 MSTORE PUSH1 0x20 PUSH1 0x4 DUP3 ADD MSTORE PUSH1 0x12 PUSH1 0x24 DUP3 ADD MSTORE PUSH18 0x155CD95C88185B1C9958591E48195E1A5CDD PUSH1 0x72 SHL PUSH1 0x44 DUP3 ADD MSTORE PUSH1 0x64 ADD PUSH2 0xAF3 JUMP JUMPDEST PUSH1 0x2 DUP1 SLOAD PUSH1 0x1 DUP2 ADD DUP3 SSTORE PUSH1 0x0 SWAP2 SWAP1 SWAP2 MSTORE DUP5 MLOAD PUSH1 0x60 SWAP2 PUSH2 0x3636 SWAP2 PUSH32 0x405787FA12A823E0F2B7631CC41B3BA8828B3321CA811111FA75CD3AA3BB5ACE SWAP1 SWAP2 ADD SWAP1 PUSH1 0x20 DUP9 ADD SWAP1 PUSH2 0x4CD5 JUMP JUMPDEST POP DUP6 PUSH1 0x1 DUP7 PUSH1 0x40 MLOAD PUSH2 0x3648 SWAP2 SWAP1 PUSH2 0x53B5 JUMP JUMPDEST SWAP1 DUP2 MSTORE PUSH1 0x20 ADD PUSH1 0x40 MLOAD DUP1 SWAP2 SUB SWAP1 KECCAK256 PUSH1 0x0 PUSH2 0x100 EXP DUP2 SLOAD DUP2 PUSH1 0x1 PUSH1 0x1 PUSH1 0xA0 SHL SUB MUL NOT AND SWAP1 DUP4 PUSH1 0x1 PUSH1 0x1 PUSH1 0xA0 SHL SUB AND MUL OR SWAP1 SSTORE POP PUSH1 0x40 MLOAD DUP1 PUSH2 0x100 ADD PUSH1 0x40 MSTORE DUP1 DUP7 DUP2 MSTORE PUSH1 0x20 ADD DUP6 DUP2 MSTORE PUSH1 0x20 ADD DUP5 DUP2 MSTORE PUSH1 0x20 ADD DUP4 DUP2 MSTORE PUSH1 0x20 ADD PUSH1 0x0 PUSH1 0x5 DUP2 GT ISZERO PUSH2 0x36B1 JUMPI PUSH2 0x36B1 PUSH2 0x57EA JUMP JUMPDEST DUP2 MSTORE PUSH1 0x40 DUP1 MLOAD PUSH1 0x20 DUP2 DUP2 ADD DUP4 MSTORE PUSH1 0x0 DUP1 DUP4 MSTORE DUP2 DUP6 ADD SWAP3 SWAP1 SWAP3 MSTORE DUP3 DUP5 ADD DUP7 SWAP1 MSTORE PUSH1 0x1 PUSH1 0x60 SWAP1 SWAP5 ADD SWAP4 SWAP1 SWAP4 MSTORE PUSH1 0x1 PUSH1 0x1 PUSH1 0xA0 SHL SUB DUP11 AND DUP2 MSTORE DUP1 DUP4 MSTORE KECCAK256 DUP3 MLOAD DUP1 MLOAD SWAP2 SWAP3 PUSH2 0x3700 SWAP3 DUP5 SWAP3 SWAP1 SWAP2 ADD SWAP1 PUSH2 0x4CD5 JUMP JUMPDEST POP PUSH1 0x20 DUP3 DUP2 ADD MLOAD DUP1 MLOAD PUSH2 0x3719 SWAP3 PUSH1 0x1 DUP6 ADD SWAP3 ADD SWAP1 PUSH2 0x4CD5 JUMP JUMPDEST POP PUSH1 0x40 DUP3 ADD MLOAD PUSH1 0x2 DUP3 ADD SSTORE PUSH1 0x60 DUP3 ADD MLOAD PUSH1 0x3 DUP3 ADD SSTORE PUSH1 0x80 DUP3 ADD MLOAD PUSH1 0x4 DUP3 ADD DUP1 SLOAD PUSH1 0xFF NOT AND PUSH1 0x1 DUP4 PUSH1 0x5 DUP2 GT ISZERO PUSH2 0x3751 JUMPI PUSH2 0x3751 PUSH2 0x57EA JUMP JUMPDEST MUL OR SWAP1 SSTORE POP PUSH1 0xA0 DUP3 ADD MLOAD DUP1 MLOAD PUSH2 0x3771 SWAP2 PUSH1 0x5 DUP5 ADD SWAP2 PUSH1 0x20 SWAP1 SWAP2 ADD SWAP1 PUSH2 0x4CD5 JUMP JUMPDEST POP PUSH1 0xC0 DUP3 ADD MLOAD DUP1 MLOAD PUSH2 0x378D SWAP2 PUSH1 0x6 DUP5 ADD SWAP2 PUSH1 0x20 SWAP1 SWAP2 ADD SWAP1 PUSH2 0x4D59 JUMP JUMPDEST POP PUSH1 0xE0 SWAP2 SWAP1 SWAP2 ADD MLOAD PUSH1 0x7 SWAP1 SWAP2 ADD DUP1 SLOAD PUSH1 0xFF NOT AND SWAP2 ISZERO ISZERO SWAP2 SWAP1 SWAP2 OR SWAP1 SSTORE POP POP POP POP POP POP JUMP JUMPDEST PUSH1 0x3 CALLER PUSH1 0x0 SWAP1 DUP2 MSTORE PUSH1 0x20 DUP2 SWAP1 MSTORE PUSH1 0x40 SWAP1 KECCAK256 PUSH1 0x4 ADD SLOAD PUSH1 0xFF AND PUSH1 0x5 DUP2 GT ISZERO PUSH2 0x37DA JUMPI PUSH2 0x37DA PUSH2 0x57EA JUMP JUMPDEST EQ PUSH1 0x40 MLOAD DUP1 PUSH1 0x60 ADD PUSH1 0x40 MSTORE DUP1 PUSH1 0x2F DUP2 MSTORE PUSH1 0x20 ADD PUSH2 0x5850 PUSH1 0x2F SWAP2 CODECOPY SWAP1 PUSH2 0x3812 JUMPI PUSH1 0x40 MLOAD PUSH3 0x461BCD PUSH1 0xE5 SHL DUP2 MSTORE PUSH1 0x4 ADD PUSH2 0xAF3 SWAP2 SWAP1 PUSH2 0x5665 JUMP JUMPDEST POP CALLER PUSH1 0x0 SWAP1 DUP2 MSTORE PUSH1 0x20 DUP2 SWAP1 MSTORE PUSH1 0x40 DUP1 DUP3 KECCAK256 SWAP1 MLOAD PUSH1 0x3 SWAP2 PUSH2 0x3837 SWAP2 PUSH1 0x5 SWAP1 SWAP2 ADD SWAP1 PUSH2 0x53D1 JUMP JUMPDEST SWAP1 DUP2 MSTORE PUSH1 0x20 ADD PUSH1 0x40 MLOAD DUP1 SWAP2 SUB SWAP1 KECCAK256 PUSH1 0x40 MLOAD DUP1 PUSH1 0x60 ADD PUSH1 0x40 MSTORE SWAP1 DUP2 PUSH1 0x0 DUP3 ADD DUP1 SLOAD PUSH2 0x3860 SWAP1 PUSH2 0x575A JUMP JUMPDEST DUP1 PUSH1 0x1F ADD PUSH1 0x20 DUP1 SWAP2 DIV MUL PUSH1 0x20 ADD PUSH1 0x40 MLOAD SWAP1 DUP2 ADD PUSH1 0x40 MSTORE DUP1 SWAP3 SWAP2 SWAP1 DUP2 DUP2 MSTORE PUSH1 0x20 ADD DUP3 DUP1 SLOAD PUSH2 0x388C SWAP1 PUSH2 0x575A JUMP JUMPDEST DUP1 ISZERO PUSH2 0x38D9 JUMPI DUP1 PUSH1 0x1F LT PUSH2 0x38AE JUMPI PUSH2 0x100 DUP1 DUP4 SLOAD DIV MUL DUP4 MSTORE SWAP2 PUSH1 0x20 ADD SWAP2 PUSH2 0x38D9 JUMP JUMPDEST DUP3 ADD SWAP2 SWAP1 PUSH1 0x0 MSTORE PUSH1 0x20 PUSH1 0x0 KECCAK256 SWAP1 JUMPDEST DUP2 SLOAD DUP2 MSTORE SWAP1 PUSH1 0x1 ADD SWAP1 PUSH1 0x20 ADD DUP1 DUP4 GT PUSH2 0x38BC JUMPI DUP3 SWAP1 SUB PUSH1 0x1F AND DUP3 ADD SWAP2 JUMPDEST POP POP POP SWAP2 DUP4 MSTORE POP POP PUSH1 0x1 SWAP2 SWAP1 SWAP2 ADD SLOAD PUSH1 0x1 PUSH1 0x1 PUSH1 0xA0 SHL SUB DUP2 AND PUSH1 0x20 DUP4 ADD MSTORE PUSH1 0x1 PUSH1 0xA0 SHL SWAP1 DIV PUSH1 0xFF AND ISZERO ISZERO PUSH1 0x40 SWAP2 DUP3 ADD MSTORE DUP2 MLOAD SWAP1 MLOAD SWAP2 SWAP3 POP PUSH1 0x9 SWAP2 PUSH2 0x391D SWAP2 SWAP1 PUSH2 0x53B5 JUMP JUMPDEST SWAP1 DUP2 MSTORE PUSH1 0x40 MLOAD SWAP1 DUP2 SWAP1 SUB PUSH1 0x20 ADD SWAP1 KECCAK256 PUSH1 0x2 ADD SLOAD PUSH1 0xFF AND ISZERO PUSH2 0x398F JUMPI PUSH1 0x40 MLOAD PUSH3 0x461BCD PUSH1 0xE5 SHL DUP2 MSTORE PUSH1 0x20 PUSH1 0x4 DUP3 ADD MSTORE PUSH1 0x26 PUSH1 0x24 DUP3 ADD MSTORE PUSH32 0x596F75206861766520616C72656164792073656E7420616E206D6F6E65792072 PUSH1 0x44 DUP3 ADD MSTORE PUSH6 0x195C5D595CDD PUSH1 0xD2 SHL PUSH1 0x64 DUP3 ADD MSTORE PUSH1 0x84 ADD PUSH2 0xAF3 JUMP JUMPDEST PUSH20 0x2641D38ED882F3E2EA5F45F922CDED9D72AD09F7 BALANCE DUP3 GT ISZERO PUSH2 0x3A1A JUMPI PUSH1 0x40 MLOAD PUSH3 0x461BCD PUSH1 0xE5 SHL DUP2 MSTORE PUSH1 0x20 PUSH1 0x4 DUP3 ADD MSTORE PUSH1 0x37 PUSH1 0x24 DUP3 ADD MSTORE PUSH32 0x42616E6B20646F6573206E6F74206861766520656E6F756768206D6F6E657920 PUSH1 0x44 DUP3 ADD MSTORE PUSH32 0x746F207361746973667920796F75722072657175657374000000000000000000 PUSH1 0x64 DUP3 ADD MSTORE PUSH1 0x84 ADD PUSH2 0xAF3 JUMP JUMPDEST PUSH1 0x40 DUP1 MLOAD PUSH1 0x60 DUP2 ADD DUP3 MSTORE CALLER DUP2 MSTORE PUSH1 0x20 DUP2 ADD DUP5 SWAP1 MSTORE PUSH1 0x1 DUP2 DUP4 ADD MSTORE DUP3 MLOAD SWAP2 MLOAD SWAP1 SWAP2 PUSH1 0x9 SWAP2 PUSH2 0x3A47 SWAP2 SWAP1 PUSH2 0x53B5 JUMP JUMPDEST SWAP1 DUP2 MSTORE PUSH1 0x40 DUP1 MLOAD PUSH1 0x20 SWAP3 DUP2 SWAP1 SUB DUP4 ADD SWAP1 KECCAK256 DUP4 MLOAD DUP2 SLOAD PUSH1 0x1 PUSH1 0x1 PUSH1 0xA0 SHL SUB NOT AND PUSH1 0x1 PUSH1 0x1 PUSH1 0xA0 SHL SUB SWAP1 SWAP2 AND OR DUP2 SSTORE DUP4 DUP4 ADD MLOAD PUSH1 0x1 DUP1 DUP4 ADD SWAP2 SWAP1 SWAP2 SSTORE SWAP4 SWAP1 SWAP2 ADD MLOAD PUSH1 0x2 SWAP1 SWAP2 ADD DUP1 SLOAD PUSH1 0xFF NOT AND SWAP2 ISZERO ISZERO SWAP2 SWAP1 SWAP2 OR SWAP1 SSTORE DUP3 MLOAD PUSH1 0xA DUP1 SLOAD SWAP4 DUP5 ADD DUP2 SSTORE PUSH1 0x0 MSTORE DUP1 MLOAD PUSH2 0x1400 SWAP4 PUSH32 0xC65A7BB8D6351C1CF70C95A316CC6A92839C986682D98BC35F958F4883F9D2A8 ADD SWAP3 SWAP2 SWAP1 SWAP2 ADD SWAP1 PUSH2 0x4CD5 JUMP JUMPDEST PUSH1 0x0 DUP1 DUP1 PUSH1 0x4 CALLER PUSH1 0x0 SWAP1 DUP2 MSTORE PUSH1 0x20 DUP2 SWAP1 MSTORE PUSH1 0x40 SWAP1 KECCAK256 PUSH1 0x4 ADD SLOAD PUSH1 0xFF AND PUSH1 0x5 DUP2 GT ISZERO PUSH2 0x3B08 JUMPI PUSH2 0x3B08 PUSH2 0x57EA JUMP JUMPDEST EQ PUSH1 0x40 MLOAD DUP1 PUSH1 0x60 ADD PUSH1 0x40 MSTORE DUP1 PUSH1 0x2F DUP2 MSTORE PUSH1 0x20 ADD PUSH2 0x5850 PUSH1 0x2F SWAP2 CODECOPY SWAP1 PUSH2 0x3B40 JUMPI PUSH1 0x40 MLOAD PUSH3 0x461BCD PUSH1 0xE5 SHL DUP2 MSTORE PUSH1 0x4 ADD PUSH2 0xAF3 SWAP2 SWAP1 PUSH2 0x5665 JUMP JUMPDEST POP PUSH1 0x0 PUSH1 0x9 DUP6 PUSH1 0x40 MLOAD PUSH2 0x3B53 SWAP2 SWAP1 PUSH2 0x53B5 JUMP JUMPDEST SWAP1 DUP2 MSTORE PUSH1 0x40 DUP1 MLOAD PUSH1 0x20 SWAP3 DUP2 SWAP1 SUB DUP4 ADD DUP2 KECCAK256 PUSH1 0x60 DUP3 ADD DUP4 MSTORE DUP1 SLOAD PUSH1 0x1 PUSH1 0x1 PUSH1 0xA0 SHL SUB AND DUP1 DUP4 MSTORE PUSH1 0x1 DUP3 ADD SLOAD SWAP5 DUP4 ADD DUP6 SWAP1 MSTORE PUSH1 0x2 SWAP1 SWAP2 ADD SLOAD PUSH1 0xFF AND ISZERO ISZERO SWAP2 SWAP1 SWAP3 ADD DUP2 SWAP1 MSTORE SWAP8 SWAP1 SWAP7 POP SWAP1 SWAP5 POP SWAP3 POP POP POP JUMP JUMPDEST PUSH1 0x0 PUSH1 0x60 PUSH1 0x0 PUSH1 0x3 DUP5 PUSH1 0x40 MLOAD PUSH2 0x3BB8 SWAP2 SWAP1 PUSH2 0x53B5 JUMP JUMPDEST SWAP1 DUP2 MSTORE PUSH1 0x40 MLOAD SWAP1 DUP2 SWAP1 SUB PUSH1 0x20 ADD DUP2 KECCAK256 PUSH1 0x1 ADD SLOAD PUSH1 0xFF PUSH1 0x1 PUSH1 0xA0 SHL SWAP1 SWAP2 DIV AND SWAP1 PUSH1 0x3 SWAP1 PUSH2 0x3BE5 SWAP1 DUP8 SWAP1 PUSH2 0x53B5 JUMP JUMPDEST SWAP1 DUP2 MSTORE PUSH1 0x40 MLOAD SWAP1 DUP2 SWAP1 SUB PUSH1 0x20 ADD DUP2 KECCAK256 SWAP1 PUSH1 0x3 SWAP1 PUSH2 0x3C03 SWAP1 DUP9 SWAP1 PUSH2 0x53B5 JUMP JUMPDEST SWAP1 DUP2 MSTORE PUSH1 0x40 MLOAD SWAP1 DUP2 SWAP1 SUB PUSH1 0x20 ADD SWAP1 KECCAK256 PUSH1 0x1 ADD SLOAD DUP2 SLOAD PUSH1 0x1 PUSH1 0x1 PUSH1 0xA0 SHL SUB SWAP1 SWAP2 AND SWAP1 DUP3 SWAP1 PUSH2 0x3C2F SWAP1 PUSH2 0x575A JUMP JUMPDEST DUP1 PUSH1 0x1F ADD PUSH1 0x20 DUP1 SWAP2 DIV MUL PUSH1 0x20 ADD PUSH1 0x40 MLOAD SWAP1 DUP2 ADD PUSH1 0x40 MSTORE DUP1 SWAP3 SWAP2 SWAP1 DUP2 DUP2 MSTORE PUSH1 0x20 ADD DUP3 DUP1 SLOAD PUSH2 0x3C5B SWAP1 PUSH2 0x575A JUMP JUMPDEST DUP1 ISZERO PUSH2 0x3CA8 JUMPI DUP1 PUSH1 0x1F LT PUSH2 0x3C7D JUMPI PUSH2 0x100 DUP1 DUP4 SLOAD DIV MUL DUP4 MSTORE SWAP2 PUSH1 0x20 ADD SWAP2 PUSH2 0x3CA8 JUMP JUMPDEST DUP3 ADD SWAP2 SWAP1 PUSH1 0x0 MSTORE PUSH1 0x20 PUSH1 0x0 KECCAK256 SWAP1 JUMPDEST DUP2 SLOAD DUP2 MSTORE SWAP1 PUSH1 0x1 ADD SWAP1 PUSH1 0x20 ADD DUP1 DUP4 GT PUSH2 0x3C8B JUMPI DUP3 SWAP1 SUB PUSH1 0x1F AND DUP3 ADD SWAP2 JUMPDEST POP POP POP POP POP SWAP2 POP SWAP3 POP SWAP3 POP SWAP3 POP SWAP2 SWAP4 SWAP1 SWAP3 POP JUMP JUMPDEST PUSH1 0x5 CALLER PUSH1 0x0 SWAP1 DUP2 MSTORE PUSH1 0x20 DUP2 SWAP1 MSTORE PUSH1 0x40 SWAP1 KECCAK256 PUSH1 0x4 ADD SLOAD PUSH1 0xFF AND PUSH1 0x5 DUP2 GT ISZERO PUSH2 0x3CE5 JUMPI PUSH2 0x3CE5 PUSH2 0x57EA JUMP JUMPDEST EQ PUSH1 0x40 MLOAD DUP1 PUSH1 0x60 ADD PUSH1 0x40 MSTORE DUP1 PUSH1 0x2F DUP2 MSTORE PUSH1 0x20 ADD PUSH2 0x5850 PUSH1 0x2F SWAP2 CODECOPY SWAP1 PUSH2 0x3D1D JUMPI PUSH1 0x40 MLOAD PUSH3 0x461BCD PUSH1 0xE5 SHL DUP2 MSTORE PUSH1 0x4 ADD PUSH2 0xAF3 SWAP2 SWAP1 PUSH2 0x5665 JUMP JUMPDEST POP PUSH1 0x1 PUSH1 0x1 PUSH1 0xA0 SHL SUB DUP2 DUP2 AND PUSH1 0x0 SWAP1 DUP2 MSTORE PUSH1 0x7 PUSH1 0x20 SWAP1 DUP2 MSTORE PUSH1 0x40 DUP1 DUP4 KECCAK256 DUP2 MLOAD PUSH1 0x80 DUP2 ADD SWAP1 SWAP3 MSTORE DUP1 SLOAD SWAP5 DUP6 AND DUP3 MSTORE SWAP3 SWAP4 SWAP1 SWAP3 SWAP2 DUP4 ADD SWAP1 PUSH1 0x1 PUSH1 0xA0 SHL SWAP1 DIV PUSH1 0xFF AND PUSH1 0x5 DUP2 GT ISZERO PUSH2 0x3D6D JUMPI PUSH2 0x3D6D PUSH2 0x57EA JUMP JUMPDEST PUSH1 0x5 DUP2 GT ISZERO PUSH2 0x3D7E JUMPI PUSH2 0x3D7E PUSH2 0x57EA JUMP JUMPDEST DUP2 MSTORE PUSH1 0x20 ADD PUSH1 0x1 DUP3 ADD DUP1 SLOAD PUSH2 0x3D92 SWAP1 PUSH2 0x575A JUMP JUMPDEST DUP1 PUSH1 0x1F ADD PUSH1 0x20 DUP1 SWAP2 DIV MUL PUSH1 0x20 ADD PUSH1 0x40 MLOAD SWAP1 DUP2 ADD PUSH1 0x40 MSTORE DUP1 SWAP3 SWAP2 SWAP1 DUP2 DUP2 MSTORE PUSH1 0x20 ADD DUP3 DUP1 SLOAD PUSH2 0x3DBE SWAP1 PUSH2 0x575A JUMP JUMPDEST DUP1 ISZERO PUSH2 0x3E0B JUMPI DUP1 PUSH1 0x1F LT PUSH2 0x3DE0 JUMPI PUSH2 0x100 DUP1 DUP4 SLOAD DIV MUL DUP4 MSTORE SWAP2 PUSH1 0x20 ADD SWAP2 PUSH2 0x3E0B JUMP JUMPDEST DUP3 ADD SWAP2 SWAP1 PUSH1 0x0 MSTORE PUSH1 0x20 PUSH1 0x0 KECCAK256 SWAP1 JUMPDEST DUP2 SLOAD DUP2 MSTORE SWAP1 PUSH1 0x1 ADD SWAP1 PUSH1 0x20 ADD DUP1 DUP4 GT PUSH2 0x3DEE JUMPI DUP3 SWAP1 SUB PUSH1 0x1F AND DUP3 ADD SWAP2 JUMPDEST POP POP POP SWAP2 DUP4 MSTORE POP POP PUSH1 0x2 SWAP2 SWAP1 SWAP2 ADD SLOAD PUSH1 0xFF AND ISZERO ISZERO PUSH1 0x20 SWAP1 SWAP2 ADD MSTORE PUSH1 0x60 DUP2 ADD MLOAD SWAP1 SWAP2 POP PUSH2 0x3E91 JUMPI PUSH1 0x40 MLOAD PUSH3 0x461BCD PUSH1 0xE5 SHL DUP2 MSTORE PUSH1 0x20 PUSH1 0x4 DUP3 ADD MSTORE PUSH1 0x2F PUSH1 0x24 DUP3 ADD MSTORE PUSH32 0x5468697320757365722068617665206E6F742073656E7420616E7920656C6576 PUSH1 0x44 DUP3 ADD MSTORE PUSH15 0x6174696F6E20726571756573747321 PUSH1 0x88 SHL PUSH1 0x64 DUP3 ADD MSTORE PUSH1 0x84 ADD PUSH2 0xAF3 JUMP JUMPDEST PUSH1 0x20 DUP2 ADD MLOAD PUSH1 0x40 DUP1 DUP4 ADD MLOAD SWAP1 MLOAD PUSH4 0xA2C8E177 PUSH1 0xE0 SHL DUP2 MSTORE ADDRESS SWAP3 PUSH4 0xA2C8E177 SWAP3 PUSH2 0x3EC0 SWAP3 DUP8 SWAP3 SWAP2 SWAP1 PUSH1 0x4 ADD PUSH2 0x546D JUMP JUMPDEST PUSH1 0x0 PUSH1 0x40 MLOAD DUP1 DUP4 SUB DUP2 PUSH1 0x0 DUP8 DUP1 EXTCODESIZE ISZERO DUP1 ISZERO PUSH2 0x3EDA JUMPI PUSH1 0x0 DUP1 REVERT JUMPDEST POP GAS CALL ISZERO DUP1 ISZERO PUSH2 0x353A JUMPI RETURNDATASIZE PUSH1 0x0 DUP1 RETURNDATACOPY RETURNDATASIZE PUSH1 0x0 REVERT JUMPDEST PUSH1 0x1 PUSH1 0x1 PUSH1 0xA0 SHL SUB DUP2 AND PUSH1 0x0 SWAP1 DUP2 MSTORE PUSH1 0x20 DUP2 SWAP1 MSTORE PUSH1 0x40 DUP2 KECCAK256 PUSH1 0x5 ADD DUP1 SLOAD PUSH1 0x60 SWAP2 DUP4 SWAP2 DUP3 SWAP2 SWAP1 PUSH2 0x3F1C SWAP1 PUSH2 0x575A JUMP JUMPDEST DUP1 PUSH1 0x1F ADD PUSH1 0x20 DUP1 SWAP2 DIV MUL PUSH1 0x20 ADD PUSH1 0x40 MLOAD SWAP1 DUP2 ADD PUSH1 0x40 MSTORE DUP1 SWAP3 SWAP2 SWAP1 DUP2 DUP2 MSTORE PUSH1 0x20 ADD DUP3 DUP1 SLOAD PUSH2 0x3F48 SWAP1 PUSH2 0x575A JUMP JUMPDEST DUP1 ISZERO PUSH2 0x3F95 JUMPI DUP1 PUSH1 0x1F LT PUSH2 0x3F6A JUMPI PUSH2 0x100 DUP1 DUP4 SLOAD DIV MUL DUP4 MSTORE SWAP2 PUSH1 0x20 ADD SWAP2 PUSH2 0x3F95 JUMP JUMPDEST DUP3 ADD SWAP2 SWAP1 PUSH1 0x0 MSTORE PUSH1 0x20 PUSH1 0x0 KECCAK256 SWAP1 JUMPDEST DUP2 SLOAD DUP2 MSTORE SWAP1 PUSH1 0x1 ADD SWAP1 PUSH1 0x20 ADD DUP1 DUP4 GT PUSH2 0x3F78 JUMPI DUP3 SWAP1 SUB PUSH1 0x1F AND DUP3 ADD SWAP2 JUMPDEST POP POP PUSH1 0x40 MLOAD PUSH4 0x355A6CC3 PUSH1 0xE2 SHL DUP2 MSTORE SWAP4 SWAP5 POP ADDRESS SWAP4 PUSH4 0xD569B30C SWAP4 POP PUSH2 0x3FC0 SWAP3 POP DUP6 SWAP2 POP PUSH1 0x4 ADD PUSH2 0x5665 JUMP JUMPDEST PUSH1 0x0 PUSH1 0x40 MLOAD DUP1 DUP4 SUB DUP2 DUP7 DUP1 EXTCODESIZE ISZERO DUP1 ISZERO PUSH2 0x3FD8 JUMPI PUSH1 0x0 DUP1 REVERT JUMPDEST POP GAS STATICCALL ISZERO DUP1 ISZERO PUSH2 0x3FEC JUMPI RETURNDATASIZE PUSH1 0x0 DUP1 RETURNDATACOPY RETURNDATASIZE PUSH1 0x0 REVERT JUMPDEST POP POP POP POP PUSH1 0x40 MLOAD RETURNDATASIZE PUSH1 0x0 DUP3 RETURNDATACOPY PUSH1 0x1F RETURNDATASIZE SWAP1 DUP2 ADD PUSH1 0x1F NOT AND DUP3 ADD PUSH1 0x40 MSTORE PUSH2 0x4014 SWAP2 SWAP1 DUP2 ADD SWAP1 PUSH2 0x5034 JUMP JUMPDEST SWAP4 POP SWAP4 POP SWAP4 POP POP SWAP2 SWAP4 SWAP1 SWAP3 POP JUMP JUMPDEST PUSH1 0x60 PUSH1 0x0 DUP1 PUSH1 0x0 PUSH1 0x1 DUP8 PUSH1 0x40 MLOAD PUSH2 0x4039 SWAP2 SWAP1 PUSH2 0x53B5 JUMP JUMPDEST SWAP1 DUP2 MSTORE PUSH1 0x40 DUP1 MLOAD PUSH1 0x20 SWAP3 DUP2 SWAP1 SUB DUP4 ADD SWAP1 KECCAK256 SLOAD PUSH1 0x1 PUSH1 0x1 PUSH1 0xA0 SHL SUB AND DUP4 MSTORE SWAP1 DUP3 ADD SWAP3 SWAP1 SWAP3 MSTORE DUP2 ADD PUSH1 0x0 KECCAK256 DUP2 MLOAD PUSH2 0x100 DUP2 ADD SWAP1 SWAP3 MSTORE DUP1 SLOAD DUP3 SWAP1 DUP3 SWAP1 PUSH2 0x407B SWAP1 PUSH2 0x575A JUMP JUMPDEST DUP1 PUSH1 0x1F ADD PUSH1 0x20 DUP1 SWAP2 DIV MUL PUSH1 0x20 ADD PUSH1 0x40 MLOAD SWAP1 DUP2 ADD PUSH1 0x40 MSTORE DUP1 SWAP3 SWAP2 SWAP1 DUP2 DUP2 MSTORE PUSH1 0x20 ADD DUP3 DUP1 SLOAD PUSH2 0x40A7 SWAP1 PUSH2 0x575A JUMP JUMPDEST DUP1 ISZERO PUSH2 0x40F4 JUMPI DUP1 PUSH1 0x1F LT PUSH2 0x40C9 JUMPI PUSH2 0x100 DUP1 DUP4 SLOAD DIV MUL DUP4 MSTORE SWAP2 PUSH1 0x20 ADD SWAP2 PUSH2 0x40F4 JUMP JUMPDEST DUP3 ADD SWAP2 SWAP1 PUSH1 0x0 MSTORE PUSH1 0x20 PUSH1 0x0 KECCAK256 SWAP1 JUMPDEST DUP2 SLOAD DUP2 MSTORE SWAP1 PUSH1 0x1 ADD SWAP1 PUSH1 0x20 ADD DUP1 DUP4 GT PUSH2 0x40D7 JUMPI DUP3 SWAP1 SUB PUSH1 0x1F AND DUP3 ADD SWAP2 JUMPDEST POP POP POP POP POP DUP2 MSTORE PUSH1 0x20 ADD PUSH1 0x1 DUP3 ADD DUP1 SLOAD PUSH2 0x410D SWAP1 PUSH2 0x575A JUMP JUMPDEST DUP1 PUSH1 0x1F ADD PUSH1 0x20 DUP1 SWAP2 DIV MUL PUSH1 0x20 ADD PUSH1 0x40 MLOAD SWAP1 DUP2 ADD PUSH1 0x40 MSTORE DUP1 SWAP3 SWAP2 SWAP1 DUP2 DUP2 MSTORE PUSH1 0x20 ADD DUP3 DUP1 SLOAD PUSH2 0x4139 SWAP1 PUSH2 0x575A JUMP JUMPDEST DUP1 ISZERO PUSH2 0x4186 JUMPI DUP1 PUSH1 0x1F LT PUSH2 0x415B JUMPI PUSH2 0x100 DUP1 DUP4 SLOAD DIV MUL DUP4 MSTORE SWAP2 PUSH1 0x20 ADD SWAP2 PUSH2 0x4186 JUMP JUMPDEST DUP3 ADD SWAP2 SWAP1 PUSH1 0x0 MSTORE PUSH1 0x20 PUSH1 0x0 KECCAK256 SWAP1 JUMPDEST DUP2 SLOAD DUP2 MSTORE SWAP1 PUSH1 0x1 ADD SWAP1 PUSH1 0x20 ADD DUP1 DUP4 GT PUSH2 0x4169 JUMPI DUP3 SWAP1 SUB PUSH1 0x1F AND DUP3 ADD SWAP2 JUMPDEST POP POP POP SWAP2 DUP4 MSTORE POP POP PUSH1 0x2 DUP3 ADD SLOAD PUSH1 0x20 DUP3 ADD MSTORE PUSH1 0x3 DUP3 ADD SLOAD PUSH1 0x40 DUP3 ADD MSTORE PUSH1 0x4 DUP3 ADD SLOAD PUSH1 0x60 SWAP1 SWAP2 ADD SWAP1 PUSH1 0xFF AND PUSH1 0x5 DUP2 GT ISZERO PUSH2 0x41C1 JUMPI PUSH2 0x41C1 PUSH2 0x57EA JUMP JUMPDEST PUSH1 0x5 DUP2 GT ISZERO PUSH2 0x41D2 JUMPI PUSH2 0x41D2 PUSH2 0x57EA JUMP JUMPDEST DUP2 MSTORE PUSH1 0x20 ADD PUSH1 0x5 DUP3 ADD DUP1 SLOAD PUSH2 0x41E6 SWAP1 PUSH2 0x575A JUMP JUMPDEST DUP1 PUSH1 0x1F ADD PUSH1 0x20 DUP1 SWAP2 DIV MUL PUSH1 0x20 ADD PUSH1 0x40 MLOAD SWAP1 DUP2 ADD PUSH1 0x40 MSTORE DUP1 SWAP3 SWAP2 SWAP1 DUP2 DUP2 MSTORE PUSH1 0x20 ADD DUP3 DUP1 SLOAD PUSH2 0x4212 SWAP1 PUSH2 0x575A JUMP JUMPDEST DUP1 ISZERO PUSH2 0x425F JUMPI DUP1 PUSH1 0x1F LT PUSH2 0x4234 JUMPI PUSH2 0x100 DUP1 DUP4 SLOAD DIV MUL DUP4 MSTORE SWAP2 PUSH1 0x20 ADD SWAP2 PUSH2 0x425F JUMP JUMPDEST DUP3 ADD SWAP2 SWAP1 PUSH1 0x0 MSTORE PUSH1 0x20 PUSH1 0x0 KECCAK256 SWAP1 JUMPDEST DUP2 SLOAD DUP2 MSTORE SWAP1 PUSH1 0x1 ADD SWAP1 PUSH1 0x20 ADD DUP1 DUP4 GT PUSH2 0x4242 JUMPI DUP3 SWAP1 SUB PUSH1 0x1F AND DUP3 ADD SWAP2 JUMPDEST POP POP POP POP POP DUP2 MSTORE PUSH1 0x20 ADD PUSH1 0x6 DUP3 ADD DUP1 SLOAD DUP1 PUSH1 0x20 MUL PUSH1 0x20 ADD PUSH1 0x40 MLOAD SWAP1 DUP2 ADD PUSH1 0x40 MSTORE DUP1 SWAP3 SWAP2 SWAP1 DUP2 DUP2 MSTORE PUSH1 0x20 ADD DUP3 DUP1 SLOAD DUP1 ISZERO PUSH2 0x42E3 JUMPI PUSH1 0x20 MUL DUP3 ADD SWAP2 SWAP1 PUSH1 0x0 MSTORE PUSH1 0x20 PUSH1 0x0 KECCAK256 SWAP1 PUSH1 0x0 SWAP1 JUMPDEST DUP3 DUP3 SWAP1 SLOAD SWAP1 PUSH2 0x100 EXP SWAP1 DIV PUSH4 0xFFFFFFFF AND PUSH4 0xFFFFFFFF AND DUP2 MSTORE PUSH1 0x20 ADD SWAP1 PUSH1 0x4 ADD SWAP1 PUSH1 0x20 DUP3 PUSH1 0x3 ADD DIV SWAP3 DUP4 ADD SWAP3 PUSH1 0x1 SUB DUP3 MUL SWAP2 POP DUP1 DUP5 GT PUSH2 0x42A6 JUMPI SWAP1 POP JUMPDEST POP POP POP SWAP2 DUP4 MSTORE POP POP PUSH1 0x7 SWAP2 SWAP1 SWAP2 ADD SLOAD PUSH1 0xFF AND ISZERO ISZERO PUSH1 0x20 SWAP1 SWAP2 ADD MSTORE PUSH1 0xE0 DUP2 ADD MLOAD SWAP1 SWAP2 POP PUSH2 0x4347 JUMPI PUSH1 0x40 MLOAD PUSH3 0x461BCD PUSH1 0xE5 SHL DUP2 MSTORE PUSH1 0x20 PUSH1 0x4 DUP3 ADD MSTORE PUSH1 0x13 PUSH1 0x24 DUP3 ADD MSTORE PUSH19 0x155CD95C88191BD95CC81B9BDD08195E1A5CDD PUSH1 0x6A SHL PUSH1 0x44 DUP3 ADD MSTORE PUSH1 0x64 ADD PUSH2 0xAF3 JUMP JUMPDEST DUP1 PUSH1 0x40 ADD MLOAD DUP5 EQ DUP1 ISZERO PUSH2 0x435D JUMPI POP DUP1 PUSH1 0x60 ADD MLOAD DUP4 EQ JUMPDEST PUSH2 0x43A9 JUMPI PUSH1 0x40 MLOAD PUSH3 0x461BCD PUSH1 0xE5 SHL DUP2 MSTORE PUSH1 0x20 PUSH1 0x4 DUP3 ADD MSTORE PUSH1 0x18 PUSH1 0x24 DUP3 ADD MSTORE PUSH32 0x57726F6E672070617373776F7264206F72207365637265740000000000000000 PUSH1 0x44 DUP3 ADD MSTORE PUSH1 0x64 ADD PUSH2 0xAF3 JUMP JUMPDEST POP SWAP3 SWAP4 SWAP3 POP POP POP JUMP JUMPDEST PUSH1 0x5 CALLER PUSH1 0x0 SWAP1 DUP2 MSTORE PUSH1 0x20 DUP2 SWAP1 MSTORE PUSH1 0x40 SWAP1 KECCAK256 PUSH1 0x4 ADD SLOAD PUSH1 0xFF AND PUSH1 0x5 DUP2 GT ISZERO PUSH2 0x43DB JUMPI PUSH2 0x43DB PUSH2 0x57EA JUMP JUMPDEST EQ PUSH1 0x40 MLOAD DUP1 PUSH1 0x60 ADD PUSH1 0x40 MSTORE DUP1 PUSH1 0x2F DUP2 MSTORE PUSH1 0x20 ADD PUSH2 0x5850 PUSH1 0x2F SWAP2 CODECOPY SWAP1 PUSH2 0x4413 JUMPI PUSH1 0x40 MLOAD PUSH3 0x461BCD PUSH1 0xE5 SHL DUP2 MSTORE PUSH1 0x4 ADD PUSH2 0xAF3 SWAP2 SWAP1 PUSH2 0x5665 JUMP JUMPDEST POP PUSH1 0x1 PUSH1 0x1 PUSH1 0xA0 SHL SUB DUP2 AND PUSH1 0x0 SWAP1 DUP2 MSTORE PUSH1 0x20 DUP2 SWAP1 MSTORE PUSH1 0x40 SWAP1 KECCAK256 PUSH1 0x7 ADD SLOAD PUSH1 0xFF AND PUSH2 0x4476 JUMPI PUSH1 0x40 MLOAD PUSH3 0x461BCD PUSH1 0xE5 SHL DUP2 MSTORE PUSH1 0x20 PUSH1 0x4 DUP3 ADD MSTORE PUSH1 0x14 PUSH1 0x24 DUP3 ADD MSTORE PUSH20 0x13DDDB995C88191BD95CC81B9BDD08195E1A5CDD PUSH1 0x62 SHL PUSH1 0x44 DUP3 ADD MSTORE PUSH1 0x64 ADD PUSH2 0xAF3 JUMP JUMPDEST PUSH1 0x3 DUP3 PUSH1 0x40 MLOAD PUSH2 0x4486 SWAP2 SWAP1 PUSH2 0x53B5 JUMP JUMPDEST SWAP1 DUP2 MSTORE PUSH1 0x40 MLOAD SWAP1 DUP2 SWAP1 SUB PUSH1 0x20 ADD SWAP1 KECCAK256 PUSH1 0x1 ADD SLOAD PUSH1 0xFF PUSH1 0x1 PUSH1 0xA0 SHL SWAP1 SWAP2 DIV AND ISZERO PUSH2 0x44FC JUMPI PUSH1 0x40 MLOAD PUSH3 0x461BCD PUSH1 0xE5 SHL DUP2 MSTORE PUSH1 0x20 PUSH1 0x4 DUP3 ADD MSTORE PUSH1 0x22 PUSH1 0x24 DUP3 ADD MSTORE PUSH32 0x546865726520697320616C72656164792073686F7020696E2074686973206369 PUSH1 0x44 DUP3 ADD MSTORE PUSH2 0x7479 PUSH1 0xF0 SHL PUSH1 0x64 DUP3 ADD MSTORE PUSH1 0x84 ADD PUSH2 0xAF3 JUMP JUMPDEST PUSH1 0x4 DUP1 SLOAD PUSH1 0x1 DUP2 ADD DUP3 SSTORE PUSH1 0x0 SWAP2 SWAP1 SWAP2 MSTORE DUP3 MLOAD PUSH2 0x453F SWAP2 PUSH32 0x8A35ACFBC15FF81A39AE7D344FD709F28E8600B4AA8C65C6B64BFE7FE36BD19B ADD SWAP1 PUSH1 0x20 DUP6 ADD SWAP1 PUSH2 0x4CD5 JUMP JUMPDEST POP PUSH1 0x40 DUP1 MLOAD PUSH1 0x60 DUP2 ADD DUP3 MSTORE DUP4 DUP2 MSTORE PUSH1 0x1 PUSH1 0x1 PUSH1 0xA0 SHL SUB DUP4 AND PUSH1 0x20 DUP3 ADD MSTORE PUSH1 0x1 DUP2 DUP4 ADD MSTORE SWAP1 MLOAD PUSH1 0x3 SWAP1 PUSH2 0x4572 SWAP1 DUP6 SWAP1 PUSH2 0x53B5 JUMP JUMPDEST SWAP1 DUP2 MSTORE PUSH1 0x20 ADD PUSH1 0x40 MLOAD DUP1 SWAP2 SUB SWAP1 KECCAK256 PUSH1 0x0 DUP3 ADD MLOAD DUP2 PUSH1 0x0 ADD SWAP1 DUP1 MLOAD SWAP1 PUSH1 0x20 ADD SWAP1 PUSH2 0x459C SWAP3 SWAP2 SWAP1 PUSH2 0x4CD5 JUMP JUMPDEST POP PUSH1 0x20 DUP3 DUP2 ADD MLOAD PUSH1 0x1 SWAP3 SWAP1 SWAP3 ADD DUP1 SLOAD PUSH1 0x40 SWAP5 DUP6 ADD MLOAD ISZERO ISZERO PUSH1 0x1 PUSH1 0xA0 SHL MUL PUSH1 0x1 PUSH1 0x1 PUSH1 0xA8 SHL SUB NOT SWAP1 SWAP2 AND PUSH1 0x1 PUSH1 0x1 PUSH1 0xA0 SHL SUB SWAP5 DUP6 AND OR OR SWAP1 SSTORE SWAP1 DUP4 AND PUSH1 0x0 SWAP1 DUP2 MSTORE DUP1 DUP3 MSTORE SWAP2 SWAP1 SWAP2 KECCAK256 PUSH1 0x4 DUP2 ADD DUP1 SLOAD PUSH1 0x3 PUSH1 0xFF NOT SWAP1 SWAP2 AND OR SWAP1 SSTORE DUP4 MLOAD PUSH2 0x1400 SWAP3 PUSH1 0x5 SWAP1 SWAP3 ADD SWAP2 DUP6 ADD SWAP1 PUSH2 0x4CD5 JUMP JUMPDEST PUSH1 0x60 PUSH1 0x4 CALLER PUSH1 0x0 SWAP1 DUP2 MSTORE PUSH1 0x20 DUP2 SWAP1 MSTORE PUSH1 0x40 SWAP1 KECCAK256 PUSH1 0x4 ADD SLOAD PUSH1 0xFF AND PUSH1 0x5 DUP2 GT ISZERO PUSH2 0x4633 JUMPI PUSH2 0x4633 PUSH2 0x57EA JUMP JUMPDEST EQ PUSH1 0x40 MLOAD DUP1 PUSH1 0x60 ADD PUSH1 0x40 MSTORE DUP1 PUSH1 0x2F DUP2 MSTORE PUSH1 0x20 ADD PUSH2 0x5850 PUSH1 0x2F SWAP2 CODECOPY SWAP1 PUSH2 0x466B JUMPI PUSH1 0x40 MLOAD PUSH3 0x461BCD PUSH1 0xE5 SHL DUP2 MSTORE PUSH1 0x4 ADD PUSH2 0xAF3 SWAP2 SWAP1 PUSH2 0x5665 JUMP JUMPDEST POP PUSH1 0xA DUP1 SLOAD DUP1 PUSH1 0x20 MUL PUSH1 0x20 ADD PUSH1 0x40 MLOAD SWAP1 DUP2 ADD PUSH1 0x40 MSTORE DUP1 SWAP3 SWAP2 SWAP1 DUP2 DUP2 MSTORE PUSH1 0x20 ADD PUSH1 0x0 SWAP1 JUMPDEST DUP3 DUP3 LT ISZERO PUSH2 0xE53 JUMPI DUP4 DUP3 SWAP1 PUSH1 0x0 MSTORE PUSH1 0x20 PUSH1 0x0 KECCAK256 ADD DUP1 SLOAD PUSH2 0x46AD SWAP1 PUSH2 0x575A JUMP JUMPDEST DUP1 PUSH1 0x1F ADD PUSH1 0x20 DUP1 SWAP2 DIV MUL PUSH1 0x20 ADD PUSH1 0x40 MLOAD SWAP1 DUP2 ADD PUSH1 0x40 MSTORE DUP1 SWAP3 SWAP2 SWAP1 DUP2 DUP2 MSTORE PUSH1 0x20 ADD DUP3 DUP1 SLOAD PUSH2 0x46D9 SWAP1 PUSH2 0x575A JUMP JUMPDEST DUP1 ISZERO PUSH2 0x4726 JUMPI DUP1 PUSH1 0x1F LT PUSH2 0x46FB JUMPI PUSH2 0x100 DUP1 DUP4 SLOAD DIV MUL DUP4 MSTORE SWAP2 PUSH1 0x20 ADD SWAP2 PUSH2 0x4726 JUMP JUMPDEST DUP3 ADD SWAP2 SWAP1 PUSH1 0x0 MSTORE PUSH1 0x20 PUSH1 0x0 KECCAK256 SWAP1 JUMPDEST DUP2 SLOAD DUP2 MSTORE SWAP1 PUSH1 0x1 ADD SWAP1 PUSH1 0x20 ADD DUP1 DUP4 GT PUSH2 0x4709 JUMPI DUP3 SWAP1 SUB PUSH1 0x1F AND DUP3 ADD SWAP2 JUMPDEST POP POP POP POP POP DUP2 MSTORE PUSH1 0x20 ADD SWAP1 PUSH1 0x1 ADD SWAP1 PUSH2 0x468E JUMP JUMPDEST PUSH1 0x0 DUP2 PUSH1 0x40 MLOAD PUSH1 0x20 ADD PUSH2 0x474D SWAP2 SWAP1 PUSH2 0x53B5 JUMP JUMPDEST PUSH1 0x40 MLOAD PUSH1 0x20 DUP2 DUP4 SUB SUB DUP2 MSTORE SWAP1 PUSH1 0x40 MSTORE DUP1 MLOAD SWAP1 PUSH1 0x20 ADD KECCAK256 DUP4 PUSH1 0x40 MLOAD PUSH1 0x20 ADD PUSH2 0x4774 SWAP2 SWAP1 PUSH2 0x53B5 JUMP JUMPDEST PUSH1 0x40 MLOAD PUSH1 0x20 DUP2 DUP4 SUB SUB DUP2 MSTORE SWAP1 PUSH1 0x40 MSTORE DUP1 MLOAD SWAP1 PUSH1 0x20 ADD KECCAK256 EQ SWAP1 POP SWAP3 SWAP2 POP POP JUMP JUMPDEST PUSH1 0x0 DUP1 PUSH1 0x9 DUP4 PUSH1 0x40 MLOAD PUSH2 0x47A6 SWAP2 SWAP1 PUSH2 0x53B5 JUMP JUMPDEST SWAP1 DUP2 MSTORE PUSH1 0x40 MLOAD SWAP1 DUP2 SWAP1 SUB PUSH1 0x20 ADD SWAP1 KECCAK256 PUSH1 0x2 ADD DUP1 SLOAD SWAP2 ISZERO ISZERO PUSH1 0xFF NOT SWAP1 SWAP3 AND SWAP2 SWAP1 SWAP2 OR SWAP1 SSTORE PUSH1 0x0 JUMPDEST PUSH1 0xA SLOAD DUP2 LT ISZERO PUSH2 0x48CE JUMPI PUSH2 0x4885 PUSH1 0xA DUP3 DUP2 SLOAD DUP2 LT PUSH2 0x47EC JUMPI PUSH2 0x47EC PUSH2 0x5800 JUMP JUMPDEST SWAP1 PUSH1 0x0 MSTORE PUSH1 0x20 PUSH1 0x0 KECCAK256 ADD DUP1 SLOAD PUSH2 0x4801 SWAP1 PUSH2 0x575A JUMP JUMPDEST DUP1 PUSH1 0x1F ADD PUSH1 0x20 DUP1 SWAP2 DIV MUL PUSH1 0x20 ADD PUSH1 0x40 MLOAD SWAP1 DUP2 ADD PUSH1 0x40 MSTORE DUP1 SWAP3 SWAP2 SWAP1 DUP2 DUP2 MSTORE PUSH1 0x20 ADD DUP3 DUP1 SLOAD PUSH2 0x482D SWAP1 PUSH2 0x575A JUMP JUMPDEST DUP1 ISZERO PUSH2 0x487A JUMPI DUP1 PUSH1 0x1F LT PUSH2 0x484F JUMPI PUSH2 0x100 DUP1 DUP4 SLOAD DIV MUL DUP4 MSTORE SWAP2 PUSH1 0x20 ADD SWAP2 PUSH2 0x487A JUMP JUMPDEST DUP3 ADD SWAP2 SWAP1 PUSH1 0x0 MSTORE PUSH1 0x20 PUSH1 0x0 KECCAK256 SWAP1 JUMPDEST DUP2 SLOAD DUP2 MSTORE SWAP1 PUSH1 0x1 ADD SWAP1 PUSH1 0x20 ADD DUP1 DUP4 GT PUSH2 0x485D JUMPI DUP3 SWAP1 SUB PUSH1 0x1F AND DUP3 ADD SWAP2 JUMPDEST POP POP POP POP POP DUP5 PUSH2 0x473A JUMP JUMPDEST ISZERO PUSH2 0x48BC JUMPI PUSH1 0xA DUP2 DUP2 SLOAD DUP2 LT PUSH2 0x489D JUMPI PUSH2 0x489D PUSH2 0x5800 JUMP JUMPDEST SWAP1 PUSH1 0x0 MSTORE PUSH1 0x20 PUSH1 0x0 KECCAK256 ADD PUSH1 0x0 PUSH2 0x48B3 SWAP2 SWAP1 PUSH2 0x4E58 JUMP JUMPDEST POP PUSH1 0x1 SWAP3 SWAP2 POP POP JUMP JUMPDEST DUP1 PUSH2 0x48C6 DUP2 PUSH2 0x5795 JUMP JUMPDEST SWAP2 POP POP PUSH2 0x47CC JUMP JUMPDEST POP PUSH1 0x0 SWAP3 SWAP2 POP POP JUMP JUMPDEST PUSH4 0xFFFFFFFF DUP2 AND PUSH1 0x0 SWAP1 DUP2 MSTORE PUSH1 0x5 PUSH1 0x20 SWAP1 DUP2 MSTORE PUSH1 0x40 DUP1 DUP4 KECCAK256 DUP2 MLOAD PUSH2 0x120 DUP2 ADD SWAP1 SWAP3 MSTORE DUP1 SLOAD PUSH1 0x1 PUSH1 0x1 PUSH1 0xA0 SHL SUB AND DUP3 MSTORE PUSH1 0x1 DUP2 ADD DUP1 SLOAD DUP6 SWAP5 DUP5 ADD SWAP2 SWAP1 PUSH2 0x491B SWAP1 PUSH2 0x575A JUMP JUMPDEST DUP1 PUSH1 0x1F ADD PUSH1 0x20 DUP1 SWAP2 DIV MUL PUSH1 0x20 ADD PUSH1 0x40 MLOAD SWAP1 DUP2 ADD PUSH1 0x40 MSTORE DUP1 SWAP3 SWAP2 SWAP1 DUP2 DUP2 MSTORE PUSH1 0x20 ADD DUP3 DUP1 SLOAD PUSH2 0x4947 SWAP1 PUSH2 0x575A JUMP JUMPDEST DUP1 ISZERO PUSH2 0x4994 JUMPI DUP1 PUSH1 0x1F LT PUSH2 0x4969 JUMPI PUSH2 0x100 DUP1 DUP4 SLOAD DIV MUL DUP4 MSTORE SWAP2 PUSH1 0x20 ADD SWAP2 PUSH2 0x4994 JUMP JUMPDEST DUP3 ADD SWAP2 SWAP1 PUSH1 0x0 MSTORE PUSH1 0x20 PUSH1 0x0 KECCAK256 SWAP1 JUMPDEST DUP2 SLOAD DUP2 MSTORE SWAP1 PUSH1 0x1 ADD SWAP1 PUSH1 0x20 ADD DUP1 DUP4 GT PUSH2 0x4977 JUMPI DUP3 SWAP1 SUB PUSH1 0x1F AND DUP3 ADD SWAP2 JUMPDEST POP POP POP POP POP DUP2 MSTORE PUSH1 0x20 ADD PUSH1 0x2 DUP3 ADD DUP1 SLOAD PUSH2 0x49AD SWAP1 PUSH2 0x575A JUMP JUMPDEST DUP1 PUSH1 0x1F ADD PUSH1 0x20 DUP1 SWAP2 DIV MUL PUSH1 0x20 ADD PUSH1 0x40 MLOAD SWAP1 DUP2 ADD PUSH1 0x40 MSTORE DUP1 SWAP3 SWAP2 SWAP1 DUP2 DUP2 MSTORE PUSH1 0x20 ADD DUP3 DUP1 SLOAD PUSH2 0x49D9 SWAP1 PUSH2 0x575A JUMP JUMPDEST DUP1 ISZERO PUSH2 0x4A26 JUMPI DUP1 PUSH1 0x1F LT PUSH2 0x49FB JUMPI PUSH2 0x100 DUP1 DUP4 SLOAD DIV MUL DUP4 MSTORE SWAP2 PUSH1 0x20 ADD SWAP2 PUSH2 0x4A26 JUMP JUMPDEST DUP3 ADD SWAP2 SWAP1 PUSH1 0x0 MSTORE PUSH1 0x20 PUSH1 0x0 KECCAK256 SWAP1 JUMPDEST DUP2 SLOAD DUP2 MSTORE SWAP1 PUSH1 0x1 ADD SWAP1 PUSH1 0x20 ADD DUP1 DUP4 GT PUSH2 0x4A09 JUMPI DUP3 SWAP1 SUB PUSH1 0x1F AND DUP3 ADD SWAP2 JUMPDEST POP POP POP SWAP2 DUP4 MSTORE POP POP PUSH1 0x3 DUP3 ADD SLOAD PUSH4 0xFFFFFFFF AND PUSH1 0x20 DUP1 DUP4 ADD SWAP2 SWAP1 SWAP2 MSTORE PUSH1 0x4 DUP4 ADD DUP1 SLOAD PUSH1 0x40 DUP1 MLOAD DUP3 DUP6 MUL DUP2 ADD DUP6 ADD DUP3 MSTORE DUP3 DUP2 MSTORE SWAP5 ADD SWAP4 SWAP3 DUP4 ADD DUP3 DUP3 DUP1 ISZERO PUSH2 0x4AB7 JUMPI PUSH1 0x20 MUL DUP3 ADD SWAP2 SWAP1 PUSH1 0x0 MSTORE PUSH1 0x20 PUSH1 0x0 KECCAK256 SWAP1 PUSH1 0x0 SWAP1 JUMPDEST DUP3 DUP3 SWAP1 SLOAD SWAP1 PUSH2 0x100 EXP SWAP1 DIV PUSH4 0xFFFFFFFF AND PUSH4 0xFFFFFFFF AND DUP2 MSTORE PUSH1 0x20 ADD SWAP1 PUSH1 0x4 ADD SWAP1 PUSH1 0x20 DUP3 PUSH1 0x3 ADD DIV SWAP3 DUP4 ADD SWAP3 PUSH1 0x1 SUB DUP3 MUL SWAP2 POP DUP1 DUP5 GT PUSH2 0x4A7A JUMPI SWAP1 POP JUMPDEST POP POP POP SWAP2 DUP4 MSTORE POP POP PUSH1 0x5 DUP3 ADD SLOAD PUSH1 0xFF AND PUSH1 0x20 DUP1 DUP4 ADD SWAP2 SWAP1 SWAP2 MSTORE PUSH1 0x6 DUP4 ADD DUP1 SLOAD PUSH1 0x40 DUP1 MLOAD DUP3 DUP6 MUL DUP2 ADD DUP6 ADD DUP3 MSTORE DUP3 DUP2 MSTORE SWAP5 ADD SWAP4 SWAP3 DUP4 ADD DUP3 DUP3 DUP1 ISZERO PUSH2 0x4B23 JUMPI PUSH1 0x20 MUL DUP3 ADD SWAP2 SWAP1 PUSH1 0x0 MSTORE PUSH1 0x20 PUSH1 0x0 KECCAK256 SWAP1 JUMPDEST DUP2 SLOAD PUSH1 0x1 PUSH1 0x1 PUSH1 0xA0 SHL SUB AND DUP2 MSTORE PUSH1 0x1 SWAP1 SWAP2 ADD SWAP1 PUSH1 0x20 ADD DUP1 DUP4 GT PUSH2 0x4B05 JUMPI JUMPDEST POP POP POP POP POP DUP2 MSTORE PUSH1 0x20 ADD PUSH1 0x7 DUP3 ADD DUP1 SLOAD DUP1 PUSH1 0x20 MUL PUSH1 0x20 ADD PUSH1 0x40 MLOAD SWAP1 DUP2 ADD PUSH1 0x40 MSTORE DUP1 SWAP3 SWAP2 SWAP1 DUP2 DUP2 MSTORE PUSH1 0x20 ADD DUP3 DUP1 SLOAD DUP1 ISZERO PUSH2 0x4B85 JUMPI PUSH1 0x20 MUL DUP3 ADD SWAP2 SWAP1 PUSH1 0x0 MSTORE PUSH1 0x20 PUSH1 0x0 KECCAK256 SWAP1 JUMPDEST DUP2 SLOAD PUSH1 0x1 PUSH1 0x1 PUSH1 0xA0 SHL SUB AND DUP2 MSTORE PUSH1 0x1 SWAP1 SWAP2 ADD SWAP1 PUSH1 0x20 ADD DUP1 DUP4 GT PUSH2 0x4B67 JUMPI JUMPDEST POP POP POP SWAP2 DUP4 MSTORE POP POP PUSH1 0x8 SWAP2 SWAP1 SWAP2 ADD SLOAD PUSH1 0xFF AND ISZERO ISZERO PUSH1 0x20 SWAP1 SWAP2 ADD MSTORE SWAP1 POP PUSH1 0x0 JUMPDEST DUP2 PUSH1 0xC0 ADD MLOAD MLOAD DUP2 LT ISZERO PUSH2 0x4C47 JUMPI CALLER PUSH1 0x1 PUSH1 0x1 PUSH1 0xA0 SHL SUB AND DUP3 PUSH1 0xC0 ADD MLOAD DUP3 DUP2 MLOAD DUP2 LT PUSH2 0x4BD1 JUMPI PUSH2 0x4BD1 PUSH2 0x5800 JUMP JUMPDEST PUSH1 0x20 MUL PUSH1 0x20 ADD ADD MLOAD PUSH1 0x1 PUSH1 0x1 PUSH1 0xA0 SHL SUB AND EQ ISZERO PUSH2 0x4C35 JUMPI PUSH4 0xFFFFFFFF DUP5 AND PUSH1 0x0 SWAP1 DUP2 MSTORE PUSH1 0x5 PUSH1 0x20 MSTORE PUSH1 0x40 SWAP1 KECCAK256 PUSH1 0x6 ADD DUP1 SLOAD DUP3 SWAP1 DUP2 LT PUSH2 0x4C12 JUMPI PUSH2 0x4C12 PUSH2 0x5800 JUMP JUMPDEST PUSH1 0x0 SWAP2 DUP3 MSTORE PUSH1 0x20 SWAP1 SWAP2 KECCAK256 ADD DUP1 SLOAD PUSH1 0x1 PUSH1 0x1 PUSH1 0xA0 SHL SUB NOT AND SWAP1 SSTORE POP PUSH1 0x1 SWAP4 SWAP3 POP POP POP JUMP JUMPDEST DUP1 PUSH2 0x4C3F DUP2 PUSH2 0x5795 JUMP JUMPDEST SWAP2 POP POP PUSH2 0x4BA4 JUMP JUMPDEST POP PUSH1 0x0 JUMPDEST DUP2 PUSH1 0xE0 ADD MLOAD MLOAD DUP2 LT ISZERO PUSH2 0x4CCB JUMPI CALLER PUSH1 0x1 PUSH1 0x1 PUSH1 0xA0 SHL SUB AND DUP3 PUSH1 0xE0 ADD MLOAD DUP3 DUP2 MLOAD DUP2 LT PUSH2 0x4C78 JUMPI PUSH2 0x4C78 PUSH2 0x5800 JUMP JUMPDEST PUSH1 0x20 MUL PUSH1 0x20 ADD ADD MLOAD PUSH1 0x1 PUSH1 0x1 PUSH1 0xA0 SHL SUB AND EQ ISZERO PUSH2 0x4CB9 JUMPI PUSH4 0xFFFFFFFF DUP5 AND PUSH1 0x0 SWAP1 DUP2 MSTORE PUSH1 0x5 PUSH1 0x20 MSTORE PUSH1 0x40 SWAP1 KECCAK256 PUSH1 0x7 ADD DUP1 SLOAD DUP3 SWAP1 DUP2 LT PUSH2 0x4C12 JUMPI PUSH2 0x4C12 PUSH2 0x5800 JUMP JUMPDEST DUP1 PUSH2 0x4CC3 DUP2 PUSH2 0x5795 JUMP JUMPDEST SWAP2 POP POP PUSH2 0x4C4B JUMP JUMPDEST POP PUSH1 0x0 SWAP4 SWAP3 POP POP POP JUMP JUMPDEST DUP3 DUP1 SLOAD PUSH2 0x4CE1 SWAP1 PUSH2 0x575A JUMP JUMPDEST SWAP1 PUSH1 0x0 MSTORE PUSH1 0x20 PUSH1 0x0 KECCAK256 SWAP1 PUSH1 0x1F ADD PUSH1 0x20 SWAP1 DIV DUP2 ADD SWAP3 DUP3 PUSH2 0x4D03 JUMPI PUSH1 0x0 DUP6 SSTORE PUSH2 0x4D49 JUMP JUMPDEST DUP3 PUSH1 0x1F LT PUSH2 0x4D1C JUMPI DUP1 MLOAD PUSH1 0xFF NOT AND DUP4 DUP1 ADD OR DUP6 SSTORE PUSH2 0x4D49 JUMP JUMPDEST DUP3 DUP1 ADD PUSH1 0x1 ADD DUP6 SSTORE DUP3 ISZERO PUSH2 0x4D49 JUMPI SWAP2 DUP3 ADD JUMPDEST DUP3 DUP2 GT ISZERO PUSH2 0x4D49 JUMPI DUP3 MLOAD DUP3 SSTORE SWAP2 PUSH1 0x20 ADD SWAP2 SWAP1 PUSH1 0x1 ADD SWAP1 PUSH2 0x4D2E JUMP JUMPDEST POP PUSH2 0x4D55 SWAP3 SWAP2 POP PUSH2 0x4E95 JUMP JUMPDEST POP SWAP1 JUMP JUMPDEST DUP3 DUP1 SLOAD DUP3 DUP3 SSTORE SWAP1 PUSH1 0x0 MSTORE PUSH1 0x20 PUSH1 0x0 KECCAK256 SWAP1 PUSH1 0x7 ADD PUSH1 0x8 SWAP1 DIV DUP2 ADD SWAP3 DUP3 ISZERO PUSH2 0x4D49 JUMPI SWAP2 PUSH1 0x20 MUL DUP3 ADD PUSH1 0x0 JUMPDEST DUP4 DUP3 GT ISZERO PUSH2 0x4DC6 JUMPI DUP4 MLOAD DUP4 DUP3 PUSH2 0x100 EXP DUP2 SLOAD DUP2 PUSH4 0xFFFFFFFF MUL NOT AND SWAP1 DUP4 PUSH4 0xFFFFFFFF AND MUL OR SWAP1 SSTORE POP SWAP3 PUSH1 0x20 ADD SWAP3 PUSH1 0x4 ADD PUSH1 0x20 DUP2 PUSH1 0x3 ADD DIV SWAP3 DUP4 ADD SWAP3 PUSH1 0x1 SUB MUL PUSH2 0x4D82 JUMP JUMPDEST DUP1 ISZERO PUSH2 0x4DF6 JUMPI DUP3 DUP2 PUSH2 0x100 EXP DUP2 SLOAD SWAP1 PUSH4 0xFFFFFFFF MUL NOT AND SWAP1 SSTORE PUSH1 0x4 ADD PUSH1 0x20 DUP2 PUSH1 0x3 ADD DIV SWAP3 DUP4 ADD SWAP3 PUSH1 0x1 SUB MUL PUSH2 0x4DC6 JUMP JUMPDEST POP POP PUSH2 0x4D55 SWAP3 SWAP2 POP PUSH2 0x4E95 JUMP JUMPDEST DUP3 DUP1 SLOAD DUP3 DUP3 SSTORE SWAP1 PUSH1 0x0 MSTORE PUSH1 0x20 PUSH1 0x0 KECCAK256 SWAP1 DUP2 ADD SWAP3 DUP3 ISZERO PUSH2 0x4D49 JUMPI SWAP2 PUSH1 0x20 MUL DUP3 ADD JUMPDEST DUP3 DUP2 GT ISZERO PUSH2 0x4D49 JUMPI DUP3 MLOAD DUP3 SLOAD PUSH1 0x1 PUSH1 0x1 PUSH1 0xA0 SHL SUB NOT AND PUSH1 0x1 PUSH1 0x1 PUSH1 0xA0 SHL SUB SWAP1 SWAP2 AND OR DUP3 SSTORE PUSH1 0x20 SWAP1 SWAP3 ADD SWAP2 PUSH1 0x1 SWAP1 SWAP2 ADD SWAP1 PUSH2 0x4E23 JUMP JUMPDEST POP DUP1 SLOAD PUSH2 0x4E64 SWAP1 PUSH2 0x575A JUMP JUMPDEST PUSH1 0x0 DUP3 SSTORE DUP1 PUSH1 0x1F LT PUSH2 0x4E74 JUMPI POP POP JUMP JUMPDEST PUSH1 0x1F ADD PUSH1 0x20 SWAP1 DIV SWAP1 PUSH1 0x0 MSTORE PUSH1 0x20 PUSH1 0x0 KECCAK256 SWAP1 DUP2 ADD SWAP1 PUSH2 0x4E92 SWAP2 SWAP1 PUSH2 0x4E95 JUMP JUMPDEST POP JUMP JUMPDEST JUMPDEST DUP1 DUP3 GT ISZERO PUSH2 0x4D55 JUMPI PUSH1 0x0 DUP2 SSTORE PUSH1 0x1 ADD PUSH2 0x4E96 JUMP JUMPDEST DUP1 CALLDATALOAD PUSH1 0x6 DUP2 LT PUSH2 0x4EB9 JUMPI PUSH1 0x0 DUP1 REVERT JUMPDEST SWAP2 SWAP1 POP JUMP JUMPDEST PUSH1 0x0 DUP3 PUSH1 0x1F DUP4 ADD SLT PUSH2 0x4ECF JUMPI PUSH1 0x0 DUP1 REVERT JUMPDEST DUP2 CALLDATALOAD PUSH2 0x4EE2 PUSH2 0x4EDD DUP3 PUSH2 0x5706 JUMP JUMPDEST PUSH2 0x56D5 JUMP JUMPDEST DUP2 DUP2 MSTORE DUP5 PUSH1 0x20 DUP4 DUP7 ADD ADD GT ISZERO PUSH2 0x4EF7 JUMPI PUSH1 0x0 DUP1 REVERT JUMPDEST DUP2 PUSH1 0x20 DUP6 ADD PUSH1 0x20 DUP4 ADD CALLDATACOPY PUSH1 0x0 SWAP2 DUP2 ADD PUSH1 0x20 ADD SWAP2 SWAP1 SWAP2 MSTORE SWAP4 SWAP3 POP POP POP JUMP JUMPDEST DUP1 CALLDATALOAD PUSH4 0xFFFFFFFF DUP2 AND DUP2 EQ PUSH2 0x4EB9 JUMPI PUSH1 0x0 DUP1 REVERT JUMPDEST PUSH1 0x0 PUSH1 0x20 DUP3 DUP5 SUB SLT ISZERO PUSH2 0x4F3A JUMPI PUSH1 0x0 DUP1 REVERT JUMPDEST DUP2 CALLDATALOAD PUSH2 0x4F45 DUP2 PUSH2 0x582C JUMP JUMPDEST SWAP4 SWAP3 POP POP POP JUMP JUMPDEST PUSH1 0x0 DUP1 PUSH1 0x0 PUSH1 0x60 DUP5 DUP7 SUB SLT ISZERO PUSH2 0x4F61 JUMPI PUSH1 0x0 DUP1 REVERT JUMPDEST DUP4 CALLDATALOAD PUSH2 0x4F6C DUP2 PUSH2 0x582C JUMP JUMPDEST SWAP3 POP PUSH2 0x4F7A PUSH1 0x20 DUP6 ADD PUSH2 0x4EAA JUMP JUMPDEST SWAP2 POP PUSH1 0x40 DUP5 ADD CALLDATALOAD PUSH8 0xFFFFFFFFFFFFFFFF DUP2 GT ISZERO PUSH2 0x4F96 JUMPI PUSH1 0x0 DUP1 REVERT JUMPDEST PUSH2 0x4FA2 DUP7 DUP3 DUP8 ADD PUSH2 0x4EBE JUMP JUMPDEST SWAP2 POP POP SWAP3 POP SWAP3 POP SWAP3 JUMP JUMPDEST PUSH1 0x0 DUP1 PUSH1 0x0 DUP1 PUSH1 0x0 PUSH1 0xA0 DUP7 DUP9 SUB SLT ISZERO PUSH2 0x4FC4 JUMPI PUSH1 0x0 DUP1 REVERT JUMPDEST DUP6 CALLDATALOAD PUSH2 0x4FCF DUP2 PUSH2 0x582C JUMP JUMPDEST SWAP5 POP PUSH1 0x20 DUP7 ADD CALLDATALOAD PUSH8 0xFFFFFFFFFFFFFFFF DUP1 DUP3 GT ISZERO PUSH2 0x4FEC JUMPI PUSH1 0x0 DUP1 REVERT JUMPDEST PUSH2 0x4FF8 DUP10 DUP4 DUP11 ADD PUSH2 0x4EBE JUMP JUMPDEST SWAP6 POP PUSH1 0x40 DUP9 ADD CALLDATALOAD SWAP2 POP DUP1 DUP3 GT ISZERO PUSH2 0x500E JUMPI PUSH1 0x0 DUP1 REVERT JUMPDEST POP PUSH2 0x501B DUP9 DUP3 DUP10 ADD PUSH2 0x4EBE JUMP JUMPDEST SWAP6 SWAP9 SWAP5 SWAP8 POP SWAP5 SWAP6 PUSH1 0x60 DUP2 ADD CALLDATALOAD SWAP6 POP PUSH1 0x80 ADD CALLDATALOAD SWAP4 SWAP3 POP POP POP JUMP JUMPDEST PUSH1 0x0 DUP1 PUSH1 0x0 PUSH1 0x60 DUP5 DUP7 SUB SLT ISZERO PUSH2 0x5049 JUMPI PUSH1 0x0 DUP1 REVERT JUMPDEST DUP4 MLOAD PUSH2 0x5054 DUP2 PUSH2 0x5841 JUMP JUMPDEST PUSH1 0x20 DUP6 ADD MLOAD SWAP1 SWAP4 POP PUSH8 0xFFFFFFFFFFFFFFFF DUP2 GT ISZERO PUSH2 0x5071 JUMPI PUSH1 0x0 DUP1 REVERT JUMPDEST DUP5 ADD PUSH1 0x1F DUP2 ADD DUP7 SGT PUSH2 0x5082 JUMPI PUSH1 0x0 DUP1 REVERT JUMPDEST DUP1 MLOAD PUSH2 0x5090 PUSH2 0x4EDD DUP3 PUSH2 0x5706 JUMP JUMPDEST DUP2 DUP2 MSTORE DUP8 PUSH1 0x20 DUP4 DUP6 ADD ADD GT ISZERO PUSH2 0x50A5 JUMPI PUSH1 0x0 DUP1 REVERT JUMPDEST PUSH2 0x50B6 DUP3 PUSH1 0x20 DUP4 ADD PUSH1 0x20 DUP7 ADD PUSH2 0x572E JUMP JUMPDEST DUP1 SWAP5 POP POP POP POP PUSH1 0x40 DUP5 ADD MLOAD PUSH2 0x50CA DUP2 PUSH2 0x582C JUMP JUMPDEST DUP1 SWAP2 POP POP SWAP3 POP SWAP3 POP SWAP3 JUMP JUMPDEST PUSH1 0x0 DUP1 PUSH1 0x40 DUP4 DUP6 SUB SLT ISZERO PUSH2 0x50E8 JUMPI PUSH1 0x0 DUP1 REVERT JUMPDEST PUSH2 0x50F1 DUP4 PUSH2 0x4EAA JUMP JUMPDEST SWAP2 POP PUSH1 0x20 DUP4 ADD CALLDATALOAD PUSH8 0xFFFFFFFFFFFFFFFF DUP2 GT ISZERO PUSH2 0x510D JUMPI PUSH1 0x0 DUP1 REVERT JUMPDEST PUSH2 0x5119 DUP6 DUP3 DUP7 ADD PUSH2 0x4EBE JUMP JUMPDEST SWAP2 POP POP SWAP3 POP SWAP3 SWAP1 POP JUMP JUMPDEST PUSH1 0x0 PUSH1 0x20 DUP3 DUP5 SUB SLT ISZERO PUSH2 0x5135 JUMPI PUSH1 0x0 DUP1 REVERT JUMPDEST DUP2 CALLDATALOAD PUSH8 0xFFFFFFFFFFFFFFFF DUP2 GT ISZERO PUSH2 0x514C JUMPI PUSH1 0x0 DUP1 REVERT JUMPDEST PUSH2 0x5158 DUP5 DUP3 DUP6 ADD PUSH2 0x4EBE JUMP JUMPDEST SWAP5 SWAP4 POP POP POP POP JUMP JUMPDEST PUSH1 0x0 DUP1 PUSH1 0x40 DUP4 DUP6 SUB SLT ISZERO PUSH2 0x5173 JUMPI PUSH1 0x0 DUP1 REVERT JUMPDEST DUP3 CALLDATALOAD PUSH8 0xFFFFFFFFFFFFFFFF DUP2 GT ISZERO PUSH2 0x518A JUMPI PUSH1 0x0 DUP1 REVERT JUMPDEST PUSH2 0x5196 DUP6 DUP3 DUP7 ADD PUSH2 0x4EBE JUMP JUMPDEST SWAP3 POP POP PUSH1 0x20 DUP4 ADD CALLDATALOAD PUSH2 0x51A7 DUP2 PUSH2 0x582C JUMP JUMPDEST DUP1 SWAP2 POP POP SWAP3 POP SWAP3 SWAP1 POP JUMP JUMPDEST PUSH1 0x0 DUP1 PUSH1 0x0 PUSH1 0x60 DUP5 DUP7 SUB SLT ISZERO PUSH2 0x51C7 JUMPI PUSH1 0x0 DUP1 REVERT JUMPDEST DUP4 CALLDATALOAD PUSH8 0xFFFFFFFFFFFFFFFF DUP2 GT ISZERO PUSH2 0x51DE JUMPI PUSH1 0x0 DUP1 REVERT JUMPDEST PUSH2 0x51EA DUP7 DUP3 DUP8 ADD PUSH2 0x4EBE JUMP JUMPDEST SWAP7 PUSH1 0x20 DUP7 ADD CALLDATALOAD SWAP7 POP PUSH1 0x40 SWAP1 SWAP6 ADD CALLDATALOAD SWAP5 SWAP4 POP POP POP POP JUMP JUMPDEST PUSH1 0x0 DUP1 PUSH1 0x0 DUP1 PUSH1 0x80 DUP6 DUP8 SUB SLT ISZERO PUSH2 0x5216 JUMPI PUSH1 0x0 DUP1 REVERT JUMPDEST DUP5 CALLDATALOAD PUSH8 0xFFFFFFFFFFFFFFFF DUP1 DUP3 GT ISZERO PUSH2 0x522E JUMPI PUSH1 0x0 DUP1 REVERT JUMPDEST PUSH2 0x523A DUP9 DUP4 DUP10 ADD PUSH2 0x4EBE JUMP JUMPDEST SWAP6 POP PUSH1 0x20 DUP8 ADD CALLDATALOAD SWAP2 POP DUP1 DUP3 GT ISZERO PUSH2 0x5250 JUMPI PUSH1 0x0 DUP1 REVERT JUMPDEST POP PUSH2 0x525D DUP8 DUP3 DUP9 ADD PUSH2 0x4EBE JUMP JUMPDEST SWAP4 POP POP PUSH1 0x40 DUP6 ADD CALLDATALOAD PUSH1 0xFF DUP2 AND DUP2 EQ PUSH2 0x5274 JUMPI PUSH1 0x0 DUP1 REVERT JUMPDEST SWAP2 POP PUSH2 0x5282 PUSH1 0x60 DUP7 ADD PUSH2 0x4F14 JUMP JUMPDEST SWAP1 POP SWAP3 SWAP6 SWAP2 SWAP5 POP SWAP3 POP JUMP JUMPDEST PUSH1 0x0 PUSH1 0x20 DUP3 DUP5 SUB SLT ISZERO PUSH2 0x529F JUMPI PUSH1 0x0 DUP1 REVERT JUMPDEST POP CALLDATALOAD SWAP2 SWAP1 POP JUMP JUMPDEST PUSH1 0x0 PUSH1 0x20 DUP3 DUP5 SUB SLT ISZERO PUSH2 0x52B8 JUMPI PUSH1 0x0 DUP1 REVERT JUMPDEST PUSH2 0x4F45 DUP3 PUSH2 0x4F14 JUMP JUMPDEST PUSH1 0x0 DUP1 PUSH1 0x40 DUP4 DUP6 SUB SLT ISZERO PUSH2 0x52D4 JUMPI PUSH1 0x0 DUP1 REVERT JUMPDEST PUSH2 0x52DD DUP4 PUSH2 0x4F14 JUMP JUMPDEST SWAP2 POP PUSH1 0x20 DUP4 ADD CALLDATALOAD PUSH2 0x51A7 DUP2 PUSH2 0x5841 JUMP JUMPDEST PUSH1 0x0 DUP2 MLOAD DUP1 DUP5 MSTORE PUSH1 0x20 DUP1 DUP6 ADD SWAP5 POP DUP1 DUP5 ADD PUSH1 0x0 JUMPDEST DUP4 DUP2 LT ISZERO PUSH2 0x5326 JUMPI DUP2 MLOAD PUSH1 0x1 PUSH1 0x1 PUSH1 0xA0 SHL SUB AND DUP8 MSTORE SWAP6 DUP3 ADD SWAP6 SWAP1 DUP3 ADD SWAP1 PUSH1 0x1 ADD PUSH2 0x5301 JUMP JUMPDEST POP SWAP5 SWAP6 SWAP5 POP POP POP POP POP JUMP JUMPDEST PUSH1 0x0 DUP2 MLOAD DUP1 DUP5 MSTORE PUSH1 0x20 DUP1 DUP6 ADD SWAP5 POP DUP1 DUP5 ADD PUSH1 0x0 JUMPDEST DUP4 DUP2 LT ISZERO PUSH2 0x5326 JUMPI DUP2 MLOAD PUSH4 0xFFFFFFFF AND DUP8 MSTORE SWAP6 DUP3 ADD SWAP6 SWAP1 DUP3 ADD SWAP1 PUSH1 0x1 ADD PUSH2 0x5345 JUMP JUMPDEST PUSH1 0x6 DUP2 LT PUSH2 0x5385 JUMPI PUSH4 0x4E487B71 PUSH1 0xE0 SHL PUSH1 0x0 MSTORE PUSH1 0x21 PUSH1 0x4 MSTORE PUSH1 0x24 PUSH1 0x0 REVERT JUMPDEST SWAP1 MSTORE JUMP JUMPDEST PUSH1 0x0 DUP2 MLOAD DUP1 DUP5 MSTORE PUSH2 0x53A1 DUP2 PUSH1 0x20 DUP7 ADD PUSH1 0x20 DUP7 ADD PUSH2 0x572E JUMP JUMPDEST PUSH1 0x1F ADD PUSH1 0x1F NOT AND SWAP3 SWAP1 SWAP3 ADD PUSH1 0x20 ADD SWAP3 SWAP2 POP POP JUMP JUMPDEST PUSH1 0x0 DUP3 MLOAD PUSH2 0x53C7 DUP2 DUP5 PUSH1 0x20 DUP8 ADD PUSH2 0x572E JUMP JUMPDEST SWAP2 SWAP1 SWAP2 ADD SWAP3 SWAP2 POP POP JUMP JUMPDEST PUSH1 0x0 DUP1 DUP4 SLOAD DUP2 PUSH1 0x1 DUP3 DUP2 SHR SWAP2 POP DUP1 DUP4 AND DUP1 PUSH2 0x53ED JUMPI PUSH1 0x7F DUP4 AND SWAP3 POP JUMPDEST PUSH1 0x20 DUP1 DUP5 LT DUP3 EQ ISZERO PUSH2 0x540D JUMPI PUSH4 0x4E487B71 PUSH1 0xE0 SHL DUP7 MSTORE PUSH1 0x22 PUSH1 0x4 MSTORE PUSH1 0x24 DUP7 REVERT JUMPDEST DUP2 DUP1 ISZERO PUSH2 0x5421 JUMPI PUSH1 0x1 DUP2 EQ PUSH2 0x5432 JUMPI PUSH2 0x545F JUMP JUMPDEST PUSH1 0xFF NOT DUP7 AND DUP10 MSTORE DUP5 DUP10 ADD SWAP7 POP PUSH2 0x545F JUMP JUMPDEST PUSH1 0x0 DUP11 DUP2 MSTORE PUSH1 0x20 SWAP1 KECCAK256 PUSH1 0x0 JUMPDEST DUP7 DUP2 LT ISZERO PUSH2 0x5457 JUMPI DUP2 SLOAD DUP12 DUP3 ADD MSTORE SWAP1 DUP6 ADD SWAP1 DUP4 ADD PUSH2 0x543E JUMP JUMPDEST POP POP DUP5 DUP10 ADD SWAP7 POP JUMPDEST POP SWAP5 SWAP9 SWAP8 POP POP POP POP POP POP POP POP JUMP JUMPDEST PUSH1 0x1 PUSH1 0x1 PUSH1 0xA0 SHL SUB DUP5 AND DUP2 MSTORE PUSH2 0x5486 PUSH1 0x20 DUP3 ADD DUP5 PUSH2 0x5367 JUMP JUMPDEST PUSH1 0x60 PUSH1 0x40 DUP3 ADD MSTORE PUSH1 0x0 PUSH2 0x549C PUSH1 0x60 DUP4 ADD DUP5 PUSH2 0x5389 JUMP JUMPDEST SWAP6 SWAP5 POP POP POP POP POP JUMP JUMPDEST PUSH1 0x0 PUSH1 0x20 DUP1 DUP4 ADD DUP2 DUP5 MSTORE DUP1 DUP6 MLOAD DUP1 DUP4 MSTORE PUSH1 0x40 DUP7 ADD SWAP2 POP PUSH1 0x40 DUP2 PUSH1 0x5 SHL DUP8 ADD ADD SWAP3 POP DUP4 DUP8 ADD PUSH1 0x0 JUMPDEST DUP3 DUP2 LT ISZERO PUSH2 0x54FA JUMPI PUSH1 0x3F NOT DUP9 DUP7 SUB ADD DUP5 MSTORE PUSH2 0x54E8 DUP6 DUP4 MLOAD PUSH2 0x5389 JUMP JUMPDEST SWAP5 POP SWAP3 DUP6 ADD SWAP3 SWAP1 DUP6 ADD SWAP1 PUSH1 0x1 ADD PUSH2 0x54CC JUMP JUMPDEST POP SWAP3 SWAP8 SWAP7 POP POP POP POP POP POP POP JUMP JUMPDEST PUSH1 0x20 DUP2 MSTORE PUSH1 0x0 PUSH2 0x4F45 PUSH1 0x20 DUP4 ADD DUP5 PUSH2 0x5331 JUMP JUMPDEST DUP10 ISZERO ISZERO DUP2 MSTORE PUSH1 0x1 PUSH1 0x1 PUSH1 0xA0 SHL SUB DUP10 AND PUSH1 0x20 DUP3 ADD MSTORE PUSH2 0x120 PUSH1 0x40 DUP3 ADD DUP2 SWAP1 MSTORE PUSH1 0x0 SWAP1 PUSH2 0x5547 DUP4 DUP3 ADD DUP12 PUSH2 0x5389 JUMP JUMPDEST SWAP1 POP DUP3 DUP2 SUB PUSH1 0x60 DUP5 ADD MSTORE PUSH2 0x555B DUP2 DUP11 PUSH2 0x5389 JUMP JUMPDEST SWAP1 POP PUSH4 0xFFFFFFFF DUP9 AND PUSH1 0x80 DUP5 ADD MSTORE DUP3 DUP2 SUB PUSH1 0xA0 DUP5 ADD MSTORE PUSH2 0x557B DUP2 DUP9 PUSH2 0x5331 JUMP JUMPDEST SWAP1 POP PUSH1 0xFF DUP7 AND PUSH1 0xC0 DUP5 ADD MSTORE DUP3 DUP2 SUB PUSH1 0xE0 DUP5 ADD MSTORE PUSH2 0x5598 DUP2 DUP7 PUSH2 0x52ED JUMP JUMPDEST SWAP1 POP DUP3 DUP2 SUB PUSH2 0x100 DUP5 ADD MSTORE PUSH2 0x55AD DUP2 DUP6 PUSH2 0x52ED JUMP JUMPDEST SWAP13 SWAP12 POP POP POP POP POP POP POP POP POP POP POP POP JUMP JUMPDEST DUP3 ISZERO ISZERO DUP2 MSTORE PUSH1 0x40 PUSH1 0x20 DUP3 ADD MSTORE PUSH1 0x0 PUSH2 0x5158 PUSH1 0x40 DUP4 ADD DUP5 PUSH2 0x5331 JUMP JUMPDEST DUP4 ISZERO ISZERO DUP2 MSTORE PUSH1 0x60 PUSH1 0x20 DUP3 ADD MSTORE PUSH1 0x0 PUSH2 0x55F3 PUSH1 0x60 DUP4 ADD DUP6 PUSH2 0x5389 JUMP JUMPDEST SWAP1 POP PUSH1 0x1 DUP1 PUSH1 0xA0 SHL SUB DUP4 AND PUSH1 0x40 DUP4 ADD MSTORE SWAP5 SWAP4 POP POP POP POP JUMP JUMPDEST DUP6 ISZERO ISZERO DUP2 MSTORE PUSH1 0xA0 PUSH1 0x20 DUP3 ADD MSTORE PUSH1 0x0 PUSH2 0x5626 PUSH1 0xA0 DUP4 ADD DUP8 PUSH2 0x5389 JUMP JUMPDEST DUP3 DUP2 SUB PUSH1 0x40 DUP5 ADD MSTORE PUSH2 0x5638 DUP2 DUP8 PUSH2 0x5389 JUMP JUMPDEST SWAP1 POP PUSH2 0x5647 PUSH1 0x60 DUP5 ADD DUP7 PUSH2 0x5367 JUMP JUMPDEST DUP3 DUP2 SUB PUSH1 0x80 DUP5 ADD MSTORE PUSH2 0x5659 DUP2 DUP6 PUSH2 0x5389 JUMP JUMPDEST SWAP9 SWAP8 POP POP POP POP POP POP POP POP JUMP JUMPDEST PUSH1 0x20 DUP2 MSTORE PUSH1 0x0 PUSH2 0x4F45 PUSH1 0x20 DUP4 ADD DUP5 PUSH2 0x5389 JUMP JUMPDEST PUSH1 0x20 DUP1 DUP3 MSTORE PUSH1 0x3C SWAP1 DUP3 ADD MSTORE PUSH32 0x526571756972656420726F6C6520697320636173686965722C20627574207265 PUSH1 0x40 DUP3 ADD MSTORE PUSH32 0x7175697265642073686F70206973206E6F742073706563696669656400000000 PUSH1 0x60 DUP3 ADD MSTORE PUSH1 0x80 ADD SWAP1 JUMP JUMPDEST PUSH1 0x40 MLOAD PUSH1 0x1F DUP3 ADD PUSH1 0x1F NOT AND DUP2 ADD PUSH8 0xFFFFFFFFFFFFFFFF DUP2 GT DUP3 DUP3 LT OR ISZERO PUSH2 0x56FE JUMPI PUSH2 0x56FE PUSH2 0x5816 JUMP JUMPDEST PUSH1 0x40 MSTORE SWAP2 SWAP1 POP JUMP JUMPDEST PUSH1 0x0 PUSH8 0xFFFFFFFFFFFFFFFF DUP3 GT ISZERO PUSH2 0x5720 JUMPI PUSH2 0x5720 PUSH2 0x5816 JUMP JUMPDEST POP PUSH1 0x1F ADD PUSH1 0x1F NOT AND PUSH1 0x20 ADD SWAP1 JUMP JUMPDEST PUSH1 0x0 JUMPDEST DUP4 DUP2 LT ISZERO PUSH2 0x5749 JUMPI DUP2 DUP2 ADD MLOAD DUP4 DUP3 ADD MSTORE PUSH1 0x20 ADD PUSH2 0x5731 JUMP JUMPDEST DUP4 DUP2 GT ISZERO PUSH2 0x1610 JUMPI POP POP PUSH1 0x0 SWAP2 ADD MSTORE JUMP JUMPDEST PUSH1 0x1 DUP2 DUP2 SHR SWAP1 DUP3 AND DUP1 PUSH2 0x576E JUMPI PUSH1 0x7F DUP3 AND SWAP2 POP JUMPDEST PUSH1 0x20 DUP3 LT DUP2 EQ ISZERO PUSH2 0x578F JUMPI PUSH4 0x4E487B71 PUSH1 0xE0 SHL PUSH1 0x0 MSTORE PUSH1 0x22 PUSH1 0x4 MSTORE PUSH1 0x24 PUSH1 0x0 REVERT JUMPDEST POP SWAP2 SWAP1 POP JUMP JUMPDEST PUSH1 0x0 PUSH1 0x0 NOT DUP3 EQ ISZERO PUSH2 0x57A9 JUMPI PUSH2 0x57A9 PUSH2 0x57D4 JUMP JUMPDEST POP PUSH1 0x1 ADD SWAP1 JUMP JUMPDEST PUSH1 0x0 PUSH4 0xFFFFFFFF DUP1 DUP4 AND DUP2 DUP2 EQ ISZERO PUSH2 0x57CA JUMPI PUSH2 0x57CA PUSH2 0x57D4 JUMP JUMPDEST PUSH1 0x1 ADD SWAP4 SWAP3 POP POP POP JUMP JUMPDEST PUSH4 0x4E487B71 PUSH1 0xE0 SHL PUSH1 0x0 MSTORE PUSH1 0x11 PUSH1 0x4 MSTORE PUSH1 0x24 PUSH1 0x0 REVERT JUMPDEST PUSH4 0x4E487B71 PUSH1 0xE0 SHL PUSH1 0x0 MSTORE PUSH1 0x21 PUSH1 0x4 MSTORE PUSH1 0x24 PUSH1 0x0 REVERT JUMPDEST PUSH4 0x4E487B71 PUSH1 0xE0 SHL PUSH1 0x0 MSTORE PUSH1 0x32 PUSH1 0x4 MSTORE PUSH1 0x24 PUSH1 0x0 REVERT JUMPDEST PUSH4 0x4E487B71 PUSH1 0xE0 SHL PUSH1 0x0 MSTORE PUSH1 0x41 PUSH1 0x4 MSTORE PUSH1 0x24 PUSH1 0x0 REVERT JUMPDEST PUSH1 0x1 PUSH1 0x1 PUSH1 0xA0 SHL SUB DUP2 AND DUP2 EQ PUSH2 0x4E92 JUMPI PUSH1 0x0 DUP1 REVERT JUMPDEST DUP1 ISZERO ISZERO DUP2 EQ PUSH2 0x4E92 JUMPI PUSH1 0x0 DUP1 REVERT INVALID MSIZE PUSH16 0x7520617265206E6F74207065726D6974 PUSH21 0x656420746F20657865637574652074686973206F70 PUSH6 0x726174696F6E LOG2 PUSH5 0x6970667358 0x22 SLT KECCAK256 DUP5 0xEB CREATE2 SWAP1 SDIV 0xE4 SDIV 0xB2 0xC7 SWAP4 0x1F DELEGATECALL AND CALLDATACOPY SELFBALANCE 0xD0 PUSH18 0x9C97EA00EF73DCBA6A208CE7A48D0264736F PUSH13 0x63430008070033405787FA12A8 0x23 0xE0 CALLCODE 0xB7 PUSH4 0x1CC41B3B 0xA8 DUP3 DUP12 CALLER 0x21 0xCA DUP2 GT GT STATICCALL PUSH22 0xCD3AA3BB5ACE7D4E3EEC80026719639ED4DBA68916EB SWAP5 0xC7 LOG4 SWAP11 SDIV RETURNDATACOPY SDIV 0xC8 0xF9 JUMPI DUP16 0xE4 0xE5 LOG3 0xD7 0xEA DUP11 CALLDATALOAD 0xAC 0xFB 0xC1 0x5F 0xF8 BYTE CODECOPY 0xAE PUSH30 0x344FD709F28E8600B4AA8C65C6B64BFE7FE36BD19BA03AB19B866FC585B5 0xCB XOR SLT LOG2 0xF6 EXTCODECOPY 0xA8 PUSH2 0xE7E7 PUSH5 0x3EE5D43FD7 LT PUSH12 0x623725FD6700000000000000 "
		},
		"gasEstimates": {
			"creation": {
				"codeDepositCost": "4541600",
				"executionCost": "infinite",
				"totalCost": "infinite"
			},
			"external": {
				"approveElevationRequest(address)": "infinite",
				"approveMoneyRequest(string)": "infinite",
				"authenticateUser(string,bytes32,bytes32)": "infinite",
				"cancelElevationRequest()": "infinite",
				"cancelMoneyRequest()": "infinite",
				"changeRole(address,uint8,string)": "infinite",
				"deleteShop(string)": "infinite",
				"getMoneyRequest(string)": "infinite",
				"getMoneyRequests()": "infinite",
				"getReview(uint32)": "infinite",
				"getShopByCity(string)": "infinite",
				"getShopByOwnerAddress(address)": "infinite",
				"getShopReviews(string)": "infinite",
				"getShops()": "infinite",
				"getUser(address)": "infinite",
				"getUserAddress(string)": "infinite",
				"getUserReviews(address)": "infinite",
				"newElevateRequest(uint8,string)": "infinite",
				"newMoneyRequest(uint256)": "infinite",
				"newReview(string,string,uint8,uint32)": "infinite",
				"newShop(string,address)": "infinite",
				"newUser(address,string,string,bytes32,bytes32)": "infinite",
				"rateReview(uint32,bool)": "infinite"
			},
			"internal": {
				"compareStrings(string memory,string memory)": "infinite",
				"deleteMoneyRequest(string memory)": "infinite",
				"deleteRateFromReview(uint32)": "infinite"
			}
		},
		"methodIdentifiers": {
			"approveElevationRequest(address)": "e8e1d463",
			"approveMoneyRequest(string)": "6e9d7adb",
			"authenticateUser(string,bytes32,bytes32)": "f23219b3",
			"cancelElevationRequest()": "9e36abd9",
			"cancelMoneyRequest()": "961a9a13",
			"changeRole(address,uint8,string)": "a2c8e177",
			"deleteShop(string)": "60b9faa5",
			"getMoneyRequest(string)": "d20259fe",
			"getMoneyRequests()": "f8187268",
			"getReview(uint32)": "9b7e033a",
			"getShopByCity(string)": "d569b30c",
			"getShopByOwnerAddress(address)": "edf9261f",
			"getShopReviews(string)": "3c0e9aa9",
			"getShops()": "570b98e2",
			"getUser(address)": "6f77926b",
			"getUserAddress(string)": "4985e85c",
			"getUserReviews(address)": "18d0e8b2",
			"newElevateRequest(uint8,string)": "41180da1",
			"newMoneyRequest(uint256)": "bfa5a902",
			"newReview(string,string,uint8,uint32)": "8f7ab8e1",
			"newShop(string,address)": "f6e60d5b",
			"newUser(address,string,string,bytes32,bytes32)": "af3e1e2a",
			"rateReview(uint32,bool)": "8638a7a4"
		}
	},
	"abi": [
		{
			"inputs": [],
			"stateMutability": "nonpayable",
			"type": "constructor"
		},
		{
			"inputs": [
				{
					"internalType": "address",
					"name": "requestAuthor",
					"type": "address"
				}
			],
			"name": "approveElevationRequest",
			"outputs": [],
			"stateMutability": "nonpayable",
			"type": "function"
		},
		{
			"inputs": [
				{
					"internalType": "string",
					"name": "shopCity",
					"type": "string"
				}
			],
			"name": "approveMoneyRequest",
			"outputs": [],
			"stateMutability": "payable",
			"type": "function"
		},
		{
			"inputs": [
				{
					"internalType": "string",
					"name": "username",
					"type": "string"
				},
				{
					"internalType": "bytes32",
					"name": "pwHash",
					"type": "bytes32"
				},
				{
					"internalType": "bytes32",
					"name": "secretHash",
					"type": "bytes32"
				}
			],
			"name": "authenticateUser",
			"outputs": [
				{
					"internalType": "string",
					"name": "loginAuthenticated",
					"type": "string"
				}
			],
			"stateMutability": "view",
			"type": "function"
		},
		{
			"inputs": [],
			"name": "cancelElevationRequest",
			"outputs": [],
			"stateMutability": "nonpayable",
			"type": "function"
		},
		{
			"inputs": [],
			"name": "cancelMoneyRequest",
			"outputs": [],
			"stateMutability": "nonpayable",
			"type": "function"
		},
		{
			"inputs": [
				{
					"internalType": "address",
					"name": "user",
					"type": "address"
				},
				{
					"internalType": "enum ShopManager.Role",
					"name": "requiredRole",
					"type": "uint8"
				},
				{
					"internalType": "string",
					"name": "requiredShop",
					"type": "string"
				}
			],
			"name": "changeRole",
			"outputs": [],
			"stateMutability": "nonpayable",
			"type": "function"
		},
		{
			"inputs": [
				{
					"internalType": "string",
					"name": "city",
					"type": "string"
				}
			],
			"name": "deleteShop",
			"outputs": [],
			"stateMutability": "nonpayable",
			"type": "function"
		},
		{
			"inputs": [
				{
					"internalType": "string",
					"name": "shopCity",
					"type": "string"
				}
			],
			"name": "getMoneyRequest",
			"outputs": [
				{
					"internalType": "bool",
					"name": "exists",
					"type": "bool"
				},
				{
					"internalType": "address",
					"name": "sender",
					"type": "address"
				},
				{
					"internalType": "uint256",
					"name": "count",
					"type": "uint256"
				}
			],
			"stateMutability": "view",
			"type": "function"
		},
		{
			"inputs": [],
			"name": "getMoneyRequests",
			"outputs": [
				{
					"internalType": "string[]",
					"name": "moneyRequesters",
					"type": "string[]"
				}
			],
			"stateMutability": "view",
			"type": "function"
		},
		{
			"inputs": [
				{
					"internalType": "uint32",
					"name": "reviewId",
					"type": "uint32"
				}
			],
			"name": "getReview",
			"outputs": [
				{
					"internalType": "bool",
					"name": "exists",
					"type": "bool"
				},
				{
					"internalType": "address",
					"name": "sender",
					"type": "address"
				},
				{
					"internalType": "string",
					"name": "shop",
					"type": "string"
				},
				{
					"internalType": "string",
					"name": "content",
					"type": "string"
				},
				{
					"internalType": "uint32",
					"name": "answer",
					"type": "uint32"
				},
				{
					"internalType": "uint32[]",
					"name": "answers",
					"type": "uint32[]"
				},
				{
					"internalType": "uint8",
					"name": "rate",
					"type": "uint8"
				},
				{
					"internalType": "address[]",
					"name": "likes",
					"type": "address[]"
				},
				{
					"internalType": "address[]",
					"name": "dislikes",
					"type": "address[]"
				}
			],
			"stateMutability": "view",
			"type": "function"
		},
		{
			"inputs": [
				{
					"internalType": "string",
					"name": "city",
					"type": "string"
				}
			],
			"name": "getShopByCity",
			"outputs": [
				{
					"internalType": "bool",
					"name": "exists",
					"type": "bool"
				},
				{
					"internalType": "string",
					"name": "shopCity",
					"type": "string"
				},
				{
					"internalType": "address",
					"name": "shopOwner",
					"type": "address"
				}
			],
			"stateMutability": "view",
			"type": "function"
		},
		{
			"inputs": [
				{
					"internalType": "address",
					"name": "owner",
					"type": "address"
				}
			],
			"name": "getShopByOwnerAddress",
			"outputs": [
				{
					"internalType": "bool",
					"name": "exists",
					"type": "bool"
				},
				{
					"internalType": "string",
					"name": "shopCity",
					"type": "string"
				},
				{
					"internalType": "address",
					"name": "shopOwner",
					"type": "address"
				}
			],
			"stateMutability": "view",
			"type": "function"
		},
		{
			"inputs": [
				{
					"internalType": "string",
					"name": "city",
					"type": "string"
				}
			],
			"name": "getShopReviews",
			"outputs": [
				{
					"internalType": "uint32[]",
					"name": "reviewIds",
					"type": "uint32[]"
				}
			],
			"stateMutability": "view",
			"type": "function"
		},
		{
			"inputs": [],
			"name": "getShops",
			"outputs": [
				{
					"internalType": "string[]",
					"name": "shopCities",
					"type": "string[]"
				}
			],
			"stateMutability": "view",
			"type": "function"
		},
		{
			"inputs": [
				{
					"internalType": "address",
					"name": "addr",
					"type": "address"
				}
			],
			"name": "getUser",
			"outputs": [
				{
					"internalType": "bool",
					"name": "exists",
					"type": "bool"
				},
				{
					"internalType": "string",
					"name": "username",
					"type": "string"
				},
				{
					"internalType": "string",
					"name": "fullName",
					"type": "string"
				},
				{
					"internalType": "enum ShopManager.Role",
					"name": "role",
					"type": "uint8"
				},
				{
					"internalType": "string",
					"name": "shop",
					"type": "string"
				}
			],
			"stateMutability": "view",
			"type": "function"
		},
		{
			"inputs": [
				{
					"internalType": "string",
					"name": "login",
					"type": "string"
				}
			],
			"name": "getUserAddress",
			"outputs": [
				{
					"internalType": "address",
					"name": "userAddress",
					"type": "address"
				}
			],
			"stateMutability": "view",
			"type": "function"
		},
		{
			"inputs": [
				{
					"internalType": "address",
					"name": "userAddress",
					"type": "address"
				}
			],
			"name": "getUserReviews",
			"outputs": [
				{
					"internalType": "bool",
					"name": "exists",
					"type": "bool"
				},
				{
					"internalType": "uint32[]",
					"name": "reviewIds",
					"type": "uint32[]"
				}
			],
			"stateMutability": "view",
			"type": "function"
		},
		{
			"inputs": [
				{
					"internalType": "enum ShopManager.Role",
					"name": "requiredRole",
					"type": "uint8"
				},
				{
					"internalType": "string",
					"name": "requiredShop",
					"type": "string"
				}
			],
			"name": "newElevateRequest",
			"outputs": [],
			"stateMutability": "nonpayable",
			"type": "function"
		},
		{
			"inputs": [
				{
					"internalType": "uint256",
					"name": "requiredSum",
					"type": "uint256"
				}
			],
			"name": "newMoneyRequest",
			"outputs": [],
			"stateMutability": "nonpayable",
			"type": "function"
		},
		{
			"inputs": [
				{
					"internalType": "string",
					"name": "shop",
					"type": "string"
				},
				{
					"internalType": "string",
					"name": "content",
					"type": "string"
				},
				{
					"internalType": "uint8",
					"name": "rate",
					"type": "uint8"
				},
				{
					"internalType": "uint32",
					"name": "answer",
					"type": "uint32"
				}
			],
			"name": "newReview",
			"outputs": [],
			"stateMutability": "nonpayable",
			"type": "function"
		},
		{
			"inputs": [
				{
					"internalType": "string",
					"name": "city",
					"type": "string"
				},
				{
					"internalType": "address",
					"name": "owner",
					"type": "address"
				}
			],
			"name": "newShop",
			"outputs": [],
			"stateMutability": "nonpayable",
			"type": "function"
		},
		{
			"inputs": [
				{
					"internalType": "address",
					"name": "addr",
					"type": "address"
				},
				{
					"internalType": "string",
					"name": "username",
					"type": "string"
				},
				{
					"internalType": "string",
					"name": "fullName",
					"type": "string"
				},
				{
					"internalType": "bytes32",
					"name": "pwHash",
					"type": "bytes32"
				},
				{
					"internalType": "bytes32",
					"name": "secretHash",
					"type": "bytes32"
				}
			],
			"name": "newUser",
			"outputs": [],
			"stateMutability": "nonpayable",
			"type": "function"
		},
		{
			"inputs": [
				{
					"internalType": "uint32",
					"name": "review",
					"type": "uint32"
				},
				{
					"internalType": "bool",
					"name": "positive",
					"type": "bool"
				}
			],
			"name": "rateReview",
			"outputs": [],
			"stateMutability": "nonpayable",
			"type": "function"
		}
	]
}