{
	"data": {
		"bytecode": {
			"linkReferences": {},
			"object": "60a0604052600060809081526200001b90600690600162002cc2565b503480156200002957600080fd5b50604080516101608101825260076101208201818152663236b4ba3937bb60c91b610140840152825282518084018452600c81526b0446d6974726f762053686f760a41b6020808301919091528084019190915260008051602062009275833981519152838501526000805160206200923583398151915260608085019190915260036080850181905260a08501528451808601909552918452662236b4ba3937bb60c91b8482015260c083019390935260e0820181905260016101008301527345c16acb0b0a616994c5dbac60c05e4453029093600090815283528151805191937f64005f3fb0bfa42221729316b7732e1ce5121e861365b82b0042f12629fd779f926200013c928492019062002d75565b50602082810151805162000157926001850192019062002d75565b506040820151600282015560608201516003820155608082015160048201805460ff1916600183600581111562000192576200019262002eb6565b021790555060a082015160048201805461ff001916610100836005811115620001bf57620001bf62002eb6565b021790555060c08201518051620001e191600584019160209091019062002d75565b5060e08201518051620001ff91600684019160209091019062002df2565b5061010091909101516007918201805460ff191691151591909117905560408051663236b4ba3937bb60c91b8082526001828501819052835192839003602701832080547345c16acb0b0a616994c5dbac60c05e44530290936001600160a01b03199091161790556002805491820181556000528284019093528382526020909101908152620002a392600080516020620092158339815191529092019162002d75565b506040805160a081018252600760608201908152662236b4ba3937bb60c91b608083015281527345c16acb0b0a616994c5dbac60c05e4453029093602082015260018183015290516003906200030690662236b4ba3937bb60c91b815260070190565b908152602001604051809103902060008201518160000190805190602001906200033292919062002d75565b50602082810151600192830180546040958601511515600160a01b026001600160a81b03199091166001600160a01b039093169290921791909117905560048054928301815560005282518084019093526007808452662236b4ba3937bb60c91b93909101928352620003ba9260008051602062009255833981519152909201919062002d75565b50604080516101608101825260066101208201818152656b616c75676160d01b610140840152825282518084018452600b81526a04b616c7567612053686f760ac1b60208083019190915280840191909152600080516020620092758339815191528385015260008051602062009235833981519152606084015260036080840181905260a08401528351808501909452908352654b616c75676160d01b8382015260c082019290925260e08101839052600161010082015273ed637709f4edac6a5008fb7405794e753a1ead90600090815282528051805191927f587d3fb32c47aff2771c95f2fd796ad73afe340b834af445454845707b77afcc92620004c6928492019062002d75565b506020828101518051620004e1926001850192019062002d75565b506040820151600282015560608201516003820155608082015160048201805460ff191660018360058111156200051c576200051c62002eb6565b021790555060a082015160048201805461ff00191661010083600581111562000549576200054962002eb6565b021790555060c082015180516200056b91600584019160209091019062002d75565b5060e082015180516200058991600684019160209091019062002df2565b5061010091909101516007909101805460ff191691151591909117905560408051656b616c75676160d01b808252600160068084018290528451938490036026018420805473ed637709f4edac6a5008fb7405794e753a1ead906001600160a01b031990911617905560028054928301815560005283850190945283835260209092019081526200062e92600080516020620092158339815191529092019162002d75565b506040805160a081018252600660608201908152654b616c75676160d01b6080830152815273ed637709f4edac6a5008fb7405794e753a1ead90602082015260018183015290516003906200068f90654b616c75676160d01b815260060190565b90815260200160405180910390206000820151816000019080519060200190620006bb92919062002d75565b50602082810151600192830180546040958601511515600160a01b026001600160a81b03199091166001600160a01b039093169290921791909117905560048054928301815560005282518084019093526006808452654b616c75676160d01b93909101928352620007429260008051602062009255833981519152909201919062002d75565b50604080516101608101825260066101208201818152656d6f73636f7760d01b610140840152825282518084018452600b81526a04d6f73636f772053686f760ac1b60208083019190915280840191909152600080516020620092758339815191528385015260008051602062009235833981519152606084015260036080840181905260a08401528351808501909452908352654d6f73636f7760d01b8382015260c082019290925260e0810183905260016101008201527326280bc071e734ebbfbba9eeef0a7c2faf1ba4a5600090815282528051805191927fcecb9fb5c050a4ac9f46d5ffce21281d05da12e0ccc5340cd6d2b4949adcc482926200084e928492019062002d75565b50602082810151805162000869926001850192019062002d75565b506040820151600282015560608201516003820155608082015160048201805460ff19166001836005811115620008a457620008a462002eb6565b021790555060a082015160048201805461ff001916610100836005811115620008d157620008d162002eb6565b021790555060c08201518051620008f391600584019160209091019062002d75565b5060e082015180516200091191600684019160209091019062002df2565b5061010091909101516007909101805460ff191691151591909117905560408051656d6f73636f7760d01b80825260016006808401829052845193849003602601842080547326280bc071e734ebbfbba9eeef0a7c2faf1ba4a56001600160a01b03199091161790556002805492830181556000528385019094528383526020909201908152620009b692600080516020620092158339815191529092019162002d75565b506040805160a081018252600660608201908152654d6f73636f7760d01b608083015281527326280bc071e734ebbfbba9eeef0a7c2faf1ba4a56020820152600181830152905160039062000a1790654d6f73636f7760d01b815260060190565b9081526020016040518091039020600082015181600001908051906020019062000a4392919062002d75565b50602082810151600192830180546040958601511515600160a01b026001600160a81b03199091166001600160a01b039093169290921791909117905560048054928301815560005282518084019093526006808452654d6f73636f7760d01b9390910192835262000aca9260008051602062009255833981519152909201919062002d75565b5060408051610160810182526006610120820181815265393cb0bd30b760d11b610140840152825282518084018452600b81526a05279617a616e2053686f760ac1b60208083019190915280840191909152600080516020620092758339815191528385015260008051602062009235833981519152606084015260036080840181905260a0840152835180850190945290835265293cb0bd30b760d11b8382015260c082019290925260e08101839052600161010082015273f3a7531b5991aedeeab93b43300ea2be0f26ded9600090815282528051805191927f441503337fa90ba1159010054c8d5e9408df96c82be5e114141440ba51cf09b79262000bd6928492019062002d75565b50602082810151805162000bf1926001850192019062002d75565b506040820151600282015560608201516003820155608082015160048201805460ff1916600183600581111562000c2c5762000c2c62002eb6565b021790555060a082015160048201805461ff00191661010083600581111562000c595762000c5962002eb6565b021790555060c0820151805162000c7b91600584019160209091019062002d75565b5060e0820151805162000c9991600684019160209091019062002df2565b5061010091909101516007909101805460ff19169115159190911790556040805165393cb0bd30b760d11b808252600160068084018290528451938490036026018420805473f3a7531b5991aedeeab93b43300ea2be0f26ded96001600160a01b0319909116179055600280549283018155600052838501909452838352602090920190815262000d3e92600080516020620092158339815191529092019162002d75565b506040805160a08101825260066060820190815265293cb0bd30b760d11b6080830152815273f3a7531b5991aedeeab93b43300ea2be0f26ded96020820152600181830152905160039062000d9f9065293cb0bd30b760d11b815260060190565b9081526020016040518091039020600082015181600001908051906020019062000dcb92919062002d75565b50602082810151600192830180546040958601511515600160a01b026001600160a81b03199091166001600160a01b03909316929092179190911790556004805492830181556000528251808401909352600680845265293cb0bd30b760d11b9390910192835262000e529260008051602062009255833981519152909201919062002d75565b506040805161016081018252600661012082018181526573616d61726160d01b610140840152825282518084018452600b81526a053616d6172612053686f760ac1b60208083019190915280840191909152600080516020620092758339815191528385015260008051602062009235833981519152606084015260036080840181905260a084015283518085019094529083526553616d61726160d01b8382015260c082019290925260e0810183905260016101008201527345483719e57a7b10c73e842aabf9b009d1fe2e32600090815282528051805191927fc38a5ded6676b1f402d40cb27a79f194c4c3f36883467742d176f1f68773dcfe9262000f5e928492019062002d75565b50602082810151805162000f79926001850192019062002d75565b506040820151600282015560608201516003820155608082015160048201805460ff1916600183600581111562000fb45762000fb462002eb6565b021790555060a082015160048201805461ff00191661010083600581111562000fe15762000fe162002eb6565b021790555060c082015180516200100391600584019160209091019062002d75565b5060e082015180516200102191600684019160209091019062002df2565b5061010091909101516007909101805460ff1916911515919091179055604080516573616d61726160d01b80825260016006808401829052845193849003602601842080547345483719e57a7b10c73e842aabf9b009d1fe2e326001600160a01b03199091161790556002805492830181556000528385019094528383526020909201908152620010c692600080516020620092158339815191529092019162002d75565b506040805160a0810182526006606082019081526553616d61726160d01b608083015281527345483719e57a7b10c73e842aabf9b009d1fe2e326020820152600181830152905160039062001127906553616d61726160d01b815260060190565b908152602001604051809103902060008201518160000190805190602001906200115392919062002d75565b50602082810151600192830180546040958601511515600160a01b026001600160a81b03199091166001600160a01b0390931692909217919091179055600480549283018155600052825180840190935260068084526553616d61726160d01b93909101928352620011da9260008051602062009255833981519152909201919062002d75565b506040805161016081018252601061012082018181526f7361696e742d7065746572736275726760801b610140840152825282518084018452601581527f5361696e7420506574657273627572672053686f70000000000000000000000060208083019190915280840191909152600080516020620092758339815191528385015260008051602062009235833981519152606084015260036080840181905260a084015283518085019094529083526f5361696e74205065746572736275726760801b8382015260c082019290925260e081018390526001610100820152731567f49dd576775d225d9c987880dee8e2e0e3da600090815282528051805191927fda04f4c7f5241a11ef0d8284c962806c03ad65a0734edf14d21c1d6c34a0fac9926200130c928492019062002d75565b50602082810151805162001327926001850192019062002d75565b506040820151600282015560608201516003820155608082015160048201805460ff1916600183600581111562001362576200136262002eb6565b021790555060a082015160048201805461ff0019166101008360058111156200138f576200138f62002eb6565b021790555060c08201518051620013b191600584019160209091019062002d75565b5060e08201518051620013cf91600684019160209091019062002df2565b5061010091909101516007909101805460ff1916911515919091179055604080516f7361696e742d7065746572737075726760801b81526001601080830182905283519283900360300183208054731567f49dd576775d225d9c987880dee8e2e0e3da6001600160a01b03199091161790556002805492830181556000528284019093528282526f7361696e742d7065746572736275726760801b6020909201918252620014929260008051602062009215833981519152909101919062002d75565b506040805160a0810182526010606082019081526f5361696e74205065746572736275726760801b60808301528152731567f49dd576775d225d9c987880dee8e2e0e3da6020820152600181830152905160039062001507906f5361696e74205065746572736275726760801b815260100190565b908152602001604051809103902060008201518160000190805190602001906200153392919062002d75565b50602082810151600192830180546040958601511515600160a01b026001600160a81b03199091166001600160a01b0390931692909217919091179055600480549283018155600052825180840190935260108084526f5361696e74205065746572736275726760801b93909101928352620015c49260008051602062009255833981519152909201919062002d75565b5060408051610160810182526008610120820181815267746167616e726f6760c01b610140840152825282518084018452600d81526c0546167616e726f672053686f7609c1b60208083019190915280840191909152600080516020620092758339815191528385015260008051602062009235833981519152606084015260036080840181905260a0840152835180850190945290835267546167616e726f6760c01b8382015260c082019290925260e08101839052600161010082015273a35cd8f38607ce823ee307ffaf57f859762aecdc600090815282528051805191927ff7eb6ddc5ab8fe18a890b681a380b3c5dbf57af7dd31d06808406e476691b82692620016d6928492019062002d75565b506020828101518051620016f1926001850192019062002d75565b506040820151600282015560608201516003820155608082015160048201805460ff191660018360058111156200172c576200172c62002eb6565b021790555060a082015160048201805461ff00191661010083600581111562001759576200175962002eb6565b021790555060c082015180516200177b91600584019160209091019062002d75565b5060e082015180516200179991600684019160209091019062002df2565b5061010091909101516007909101805460ff19169115159190911790556040805167746167616e726f6760c01b808252600160088084018290528451938490036028018420805473a35cd8f38607ce823ee307ffaf57f859762aecdc6001600160a01b031990911617905560028054928301815560005283850190945283835260209092019081526200184092600080516020620092158339815191529092019162002d75565b506040805160a08101825260086060820190815267546167616e726f6760c01b6080830152815273a35cd8f38607ce823ee307ffaf57f859762aecdc60208201526001818301529051600390620018a59067546167616e726f6760c01b815260080190565b90815260200160405180910390206000820151816000019080519060200190620018d192919062002d75565b50602082810151600192830180546040958601511515600160a01b026001600160a81b03199091166001600160a01b03909316929092179190911790556004805492830181556000528251808401909352600880845267546167616e726f6760c01b939091019283526200195a9260008051602062009255833981519152909201919062002d75565b5060408051610160810182526005610120820181815264746f6d736b60d81b610140840152825282518084018452600a8152690546f6d736b2053686f760b41b60208083019190915280840191909152600080516020620092758339815191528385015260008051602062009235833981519152606084015260036080840181905260a0840152835180850190945290835264546f6d736b60d81b8382015260c082019290925260e081018390526001610100820152736a052a062a54344363b67bad3b3fafd6220ac333600090815282528051805191927fb6cecceabdfe7a2997cf7281fcc97f1a71a54eee22fed85b800b4cf99559b7dc9262001a63928492019062002d75565b50602082810151805162001a7e926001850192019062002d75565b506040820151600282015560608201516003820155608082015160048201805460ff1916600183600581111562001ab95762001ab962002eb6565b021790555060a082015160048201805461ff00191661010083600581111562001ae65762001ae662002eb6565b021790555060c0820151805162001b0891600584019160209091019062002d75565b5060e0820151805162001b2691600684019160209091019062002df2565b5061010091909101516007909101805460ff19169115159190911790556040805164746f6d736b60d81b8082526001600580840182905284519384900360250184208054736a052a062a54344363b67bad3b3fafd6220ac3336001600160a01b0319909116179055600280549283018155600052838501909452838352602090920190815262001bca92600080516020620092158339815191529092019162002d75565b506040805160a08101825260056060820190815264546f6d736b60d81b60808301528152736a052a062a54344363b67bad3b3fafd6220ac3336020820152600181830152905160039062001c299064546f6d736b60d81b815260050190565b9081526020016040518091039020600082015181600001908051906020019062001c5592919062002d75565b50602082810151600192830180546040958601511515600160a01b026001600160a81b03199091166001600160a01b03909316929092179190911790556004805492830181556000528251808401909352600580845264546f6d736b60d81b9390910192835262001cdb9260008051602062009255833981519152909201919062002d75565b506040805161016081018252600961012082018181526868616261726f76736b60b81b610140840152825282518084018452600e81526d048616261726f76736b2053686f760941b60208083019190915280840191909152600080516020620092758339815191528385015260008051602062009235833981519152606084015260036080840181905260a084015283518085019094529083526848616261726f76736b60b81b8382015260c082019290925260e08101839052600161010082015273602e85a431e7cfb8489afe0ff40eda6c2b968afd600090815282528051805191927f3aba2e523e02a954d1ffeaefb20f634ce80b37d0dc70e80be2b65507da68a9c89262001df0928492019062002d75565b50602082810151805162001e0b926001850192019062002d75565b506040820151600282015560608201516003820155608082015160048201805460ff1916600183600581111562001e465762001e4662002eb6565b021790555060a082015160048201805461ff00191661010083600581111562001e735762001e7362002eb6565b021790555060c0820151805162001e9591600584019160209091019062002d75565b5060e0820151805162001eb391600684019160209091019062002df2565b5061010091909101516007909101805460ff1916911515919091179055604080516868616261726f76736b60b81b81526001600982018190528251918290036029018220805473602e85a431e7cfb8489afe0ff40eda6c2b968afd6001600160a01b0319909116179055600280549182018155600052818301909252600880825267686162726f76736b60c01b602090920191825262001f66926000805160206200921583398151915201919062002d75565b506040805160a0810182526009606082019081526848616261726f76736b60b81b6080830152815273602e85a431e7cfb8489afe0ff40eda6c2b968afd6020820152600181830152905160039062001fcd906848616261726f76736b60b81b815260090190565b9081526020016040518091039020600082015181600001908051906020019062001ff992919062002d75565b50602082810151600192830180546040958601511515600160a01b026001600160a81b03199091166001600160a01b0390931692909217919091179055600480549283018155600052825180840190935260098084526848616261726f76736b60b81b93909101928352620020839260008051602062009255833981519152909201919062002d75565b506040805161016081018252600461012082018181526362616e6b60e01b6101408401528252825180840184528181526342616e6b60e01b6020808301919091528084019190915260008051602062009275833981519152838501526000805160206200923583398151915260608401526080830182905260a08301919091528251808201909352600080845260c083019390935260e082018490526001610100830152732641d38ed882f3e2ea5f45f922cded9d72ad09f783529182528051805191927f5a123d49ac45f0b96d96c598b1343ada73381756fd2c8622fb842323ed5c30be9262002178928492019062002d75565b50602082810151805162002193926001850192019062002d75565b506040820151600282015560608201516003820155608082015160048201805460ff19166001836005811115620021ce57620021ce62002eb6565b021790555060a082015160048201805461ff001916610100836005811115620021fb57620021fb62002eb6565b021790555060c082015180516200221d91600584019160209091019062002d75565b5060e082015180516200223b91600684019160209091019062002df2565b5061010091909101516007909101805460ff1916911515919091179055604080516362616e6b60e01b8082526001600480840182905284519384900360240184208054732641d38ed882f3e2ea5f45f922cded9d72ad09f76001600160a01b03199091161790556002805492830181556000528385019094528383526020909201908152620022de92600080516020620092158339815191529092019162002d75565b50604080516101608101825260086101208201908152670ceded8c8ccd2e6d60c31b610140830152815281518083018352600981526808eded8c8408cd2e6d60bb1b60208083019190915280830191909152600080516020620092758339815191528284015260008051602062009235833981519152606083015260026080830181905260a08301528251808201909352600080845260c083019390935260e082018490526001610100830152738a3e473eedab5ff476a4d9e2eeee289d1febc7b383529182528051805191927ff7c9bd1e98b03c2276326a4b72f2eb3eb6df6da893b0fd472043bd9e7549d66792620023dc928492019062002d75565b506020828101518051620023f7926001850192019062002d75565b506040820151600282015560608201516003820155608082015160048201805460ff1916600183600581111562002432576200243262002eb6565b021790555060a082015160048201805461ff0019166101008360058111156200245f576200245f62002eb6565b021790555060c082015180516200248191600584019160209091019062002d75565b5060e082015180516200249f91600684019160209091019062002df2565b5061010091909101516007909101805460ff191691151591909117905560408051670ceded8c8ccd2e6d60c31b8082526001600880840182905284519384900360280184208054738a3e473eedab5ff476a4d9e2eeee289d1febc7b36001600160a01b031990911617905560028054928301815560005283850190945283835260209092019081526200254692600080516020620092158339815191529092019162002d75565b506040805161016081018252600561012082018181526430b236b4b760d91b610140840152825282518084018452601581527f4976616e6f76204976616e204976616e6f7669636800000000000000000000006020808301919091528084019190915260008051602062009275833981519152838501526000805160206200923583398151915260608401526080830182905260a08301919091528251808201909352600080845260c083019390935260e08201849052600161010083015273bc03ee8cde310f36f2a6f04c9965caeb11ba315a83529182528051805191927f2834d1a09bd845973db88f4940ce99a1523d73750c2ec581288d74241517d08b9262002656928492019062002d75565b50602082810151805162002671926001850192019062002d75565b506040820151600282015560608201516003820155608082015160048201805460ff19166001836005811115620026ac57620026ac62002eb6565b021790555060a082015160048201805461ff001916610100836005811115620026d957620026d962002eb6565b021790555060c08201518051620026fb91600584019160209091019062002d75565b5060e082015180516200271991600684019160209091019062002df2565b5061010091909101516007909101805460ff1916911515919091179055604080516430b236b4b760d91b808252600160058084018290528451938490036025018420805473bc03ee8cde310f36f2a6f04c9965caeb11ba315a6001600160a01b03199091161790556002805492830181556000528385019094528383526020909201908152620027bd92600080516020620092158339815191529092019162002d75565b506040805161016081018252600561012082019081526439b2b6b2b760d91b610140830152815281518083018352601881527f53656d656e6f762053656d656e2053656d656e6f76696368000000000000000060208083019190915280830191909152600080516020620092758339815191528284015260008051602062009235833981519152606083015260016080830181905260a08301819052835180850190945260078452662236b4ba3937bb60c91b8483015260c083019390935260e0820184905261010082019290925273dd28c05343b9d59f922202918c0f8c4802be312f600090815282528051805191927fe9685801408e896f6ad1b5140c08f320194812cdbdd554d9b5512d36c3f70e1092620028df928492019062002d75565b506020828101518051620028fa926001850192019062002d75565b506040820151600282015560608201516003820155608082015160048201805460ff1916600183600581111562002935576200293562002eb6565b021790555060a082015160048201805461ff00191661010083600581111562002962576200296262002eb6565b021790555060c082015180516200298491600584019160209091019062002d75565b5060e08201518051620029a291600684019160209091019062002df2565b5061010091909101516007909101805460ff1916911515919091179055604080516439b2b6b2b760d91b808252600160058084018290528451938490036025018420805473dd28c05343b9d59f922202918c0f8c4802be312f6001600160a01b0319909116179055600280549283018155600052838501909452838352602090920190815262002a4692600080516020620092158339815191529092019162002d75565b50604080516101608101825260046101208201908152633832ba3960e11b610140830152815281518083018352601581527f506574726f76205065747220506574726f76696368000000000000000000000060208083019190915280830191909152600080516020620092758339815191528284015260008051602062009235833981519152606083015260006080830181905260a08301819052835180830190945280845260c083019390935260e08201849052600161010083015273b7e3ffc2f94ce0a3ccfc599270d8023d8ab9cac683529182528051805191927fb9cda16762a27320db14119a18b082dffdd24254e64027614226be2bc1a9cf8a9262002b54928492019062002d75565b50602082810151805162002b6f926001850192019062002d75565b506040820151600282015560608201516003820155608082015160048201805460ff1916600183600581111562002baa5762002baa62002eb6565b021790555060a082015160048201805461ff00191661010083600581111562002bd75762002bd762002eb6565b021790555060c0820151805162002bf991600584019160209091019062002d75565b5060e0820151805162002c1791600684019160209091019062002df2565b5061010091909101516007909101805460ff191691151591909117905560408051633832ba3960e11b808252600160048084018290528451938490036024018420805473b7e3ffc2f94ce0a3ccfc599270d8023d8ab9cac66001600160a01b0319909116179055600280549283018155600052838501909452838352602090920190815262002cba92600080516020620092158339815191529092019162002d75565b505062002ecc565b8280548282559060005260206000209060070160089004810192821562002d635791602002820160005b8382111562002d2f57835183826101000a81548163ffffffff021916908360ff160217905550926020019260040160208160030104928301926001030262002cec565b801562002d615782816101000a81549063ffffffff021916905560040160208160030104928301926001030262002d2f565b505b5062002d7192915062002e62565b5090565b82805462002d839062002e79565b90600052602060002090601f01602090048101928262002da7576000855562002d63565b82601f1062002dc257805160ff191683800117855562002d63565b8280016001018555821562002d63579182015b8281111562002d6357825182559160200191906001019062002dd5565b8280548282559060005260206000209060070160089004810192821562002d635791602002820160005b8382111562002d2f57835183826101000a81548163ffffffff021916908363ffffffff160217905550926020019260040160208160030104928301926001030262002e1c565b5b8082111562002d71576000815560010162002e63565b600181811c9082168062002e8e57607f821691505b6020821081141562002eb057634e487b7160e01b600052602260045260246000fd5b50919050565b634e487b7160e01b600052602160045260246000fd5b6163398062002edc6000396000f3fe60806040526004361061019c5760003560e01c80638638a7a4116100ec578063bfa5a9021161008a578063e8e1d46311610064578063e8e1d4631461050b578063edf9261f1461052b578063f6e60d5b1461054b578063f81872681461056b57600080fd5b8063bfa5a90214610477578063d20259fe14610497578063d569b30c146104dc57600080fd5b80639b7e033a116100c65780639b7e033a146103e95780639ddedcdc1461041e5780639e36abd914610433578063a68f7ff61461044857600080fd5b80638638a7a4146103945780638f7ab8e1146103b4578063961a9a13146103d457600080fd5b806355dea0b31161015957806363386bbe1161013357806363386bbe1461030e5780636e9d7adb146103305780636f77926b1461034357806383221a111461037457600080fd5b806355dea0b3146102ac578063570b98e2146102cc57806360b9faa5146102ee57600080fd5b8063137a8530146101a157806318d0e8b2146101c35780632ac5cba0146101fa5780633c0e9aa91461022757806341180da1146102545780634985e85c14610274575b600080fd5b3480156101ad57600080fd5b506101c16101bc366004615929565b610580565b005b3480156101cf57600080fd5b506101e36101de366004615905565b610765565b6040516101f1929190616030565b60405180910390f35b34801561020657600080fd5b5061021a610215366004615be2565b610812565b6040516101f191906160ea565b34801561023357600080fd5b50610247610242366004615b53565b610c28565b6040516101f19190615f7a565b34801561026057600080fd5b506101c161026f366004615b05565b610eb3565b34801561028057600080fd5b5061029461028f366004615b53565b61145f565b6040516001600160a01b0390911681526020016101f1565b3480156102b857600080fd5b506101c16102c7366004615aea565b611490565b3480156102d857600080fd5b506102e16117ca565b6040516101f19190615f18565b3480156102fa57600080fd5b506101c1610309366004615b53565b6118a3565b34801561031a57600080fd5b50610323611e8c565b6040516101f19190615f05565b6101c161033e366004615b53565b611f55565b34801561034f57600080fd5b5061036361035e366004615905565b61216b565b6040516101f1959493929190616090565b34801561038057600080fd5b506101c161038f366004615989565b61249b565b3480156103a057600080fd5b506101c16103af366004615d21565b612777565b3480156103c057600080fd5b506101c16103cf366004615c60565b612ed2565b3480156103e057600080fd5b506101c1613975565b3480156103f557600080fd5b50610409610404366004615d06565b613b5e565b6040516101f199989796959493929190615f8d565b34801561042a57600080fd5b506102e1613e95565b34801561043f57600080fd5b506101c1613f65565b34801561045457600080fd5b50610468610463366004615905565b6143ca565b6040516101f19392919061604b565b34801561048357600080fd5b506101c1610492366004615ced565b614505565b3480156104a357600080fd5b506104b76104b2366004615b53565b614834565b6040805193151584526001600160a01b039092166020840152908201526060016101f1565b3480156104e857600080fd5b506104fc6104f7366004615b53565b614900565b6040516101f19392919061605d565b34801561051757600080fd5b506101c1610526366004615905565b614a1a565b34801561053757600080fd5b506104fc610546366004615905565b614c51565b34801561055757600080fd5b506101c1610566366004615b90565b614d85565b34801561057757600080fd5b506102e1614fe0565b600533600090815260208190526040902060040154610100900460ff1660058111156105ae576105ae61626f565b146040518060600160405280602f81526020016162d5602f9139906105ef5760405162461bcd60e51b81526004016105e691906160ea565b60405180910390fd5b50818160018260058111156106065761060661626f565b14156106b4576106258160405180602001604052806000815250615117565b156106425760405162461bcd60e51b81526004016105e6906160fd565b6003816040516106529190615e15565b9081526040519081900360200190206001015460ff600160a01b909104166106b45760405162461bcd60e51b815260206004820152601560248201527405468657265206973206e6f20737563682073686f7605c1b60448201526064016105e6565b6001600160a01b0385166000908152602081905260409020600401805485919061ff0019166101008360058111156106ee576106ee61626f565b02179055506001600160a01b0385166000908152602081905260409020600401805485919060ff1916600183600581111561072b5761072b61626f565b02179055506001600160a01b038516600090815260208181526040909120845161075d926005909201918601906156b2565b505050505050565b6001600160a01b03811660009081526020818152604080832060078101546006909101805483518186028101860190945280845260609460ff90931693919283919083018282801561080257602002820191906000526020600020906000905b82829054906101000a900463ffffffff1663ffffffff16815260200190600401906020826003010492830192600103820291508084116107c55790505b5050505050905091509150915091565b606060008060006001876040516108299190615e15565b9081526040805160209281900383019020546001600160a01b031683529082019290925281016000208151610120810190925280548290829061086b906161df565b80601f0160208091040260200160405190810160405280929190818152602001828054610897906161df565b80156108e45780601f106108b9576101008083540402835291602001916108e4565b820191906000526020600020905b8154815290600101906020018083116108c757829003601f168201915b505050505081526020016001820180546108fd906161df565b80601f0160208091040260200160405190810160405280929190818152602001828054610929906161df565b80156109765780601f1061094b57610100808354040283529160200191610976565b820191906000526020600020905b81548152906001019060200180831161095957829003601f168201915b50505091835250506002820154602082015260038201546040820152600482015460609091019060ff1660058111156109b1576109b161626f565b60058111156109c2576109c261626f565b81526020016004820160019054906101000a900460ff1660058111156109ea576109ea61626f565b60058111156109fb576109fb61626f565b8152602001600582018054610a0f906161df565b80601f0160208091040260200160405190810160405280929190818152602001828054610a3b906161df565b8015610a885780601f10610a5d57610100808354040283529160200191610a88565b820191906000526020600020905b815481529060010190602001808311610a6b57829003601f168201915b5050505050815260200160068201805480602002602001604051908101604052809291908181526020018280548015610b0c57602002820191906000526020600020906000905b82829054906101000a900463ffffffff1663ffffffff1681526020019060040190602082600301049283019260010382029150808411610acf5790505b50505091835250506007919091015460ff161515602090910152610100810151909150610b715760405162461bcd60e51b8152602060048201526013602482015272155cd95c88191bd95cc81b9bdd08195e1a5cdd606a1b60448201526064016105e6565b806040015184604051602001610b879190615e15565b60405160208183030381529060405280519060200120148015610bd35750806060015183604051602001610bbb9190615e15565b60405160208183030381529060405280519060200120145b610c1f5760405162461bcd60e51b815260206004820152601860248201527f57726f6e672070617373776f7264206f7220736563726574000000000000000060448201526064016105e6565b50929392505050565b606060008060068054905067ffffffffffffffff811115610c4b57610c4b61629b565b604051908082528060200260200182016040528015610c74578160200160208202803683370190505b50905060005b600654811015610dfb57610d706005600060068481548110610c9e57610c9e616285565b90600052602060002090600891828204019190066004029054906101000a900463ffffffff1663ffffffff1663ffffffff1681526020019081526020016000206001018054610cec906161df565b80601f0160208091040260200160405190810160405280929190818152602001828054610d18906161df565b8015610d655780601f10610d3a57610100808354040283529160200191610d65565b820191906000526020600020905b815481529060010190602001808311610d4857829003601f168201915b505050505086615117565b15610de95760068181548110610d8857610d88616285565b90600052602060002090600891828204019190066004029054906101000a900463ffffffff16828463ffffffff1681518110610dc657610dc6616285565b63ffffffff9092166020928302919091019091015282610de581616235565b9350505b80610df38161621a565b915050610c7a565b508163ffffffff1667ffffffffffffffff811115610e1b57610e1b61629b565b604051908082528060200260200182016040528015610e44578160200160208202803683370190505b50925060005b8263ffffffff16811015610eab57818181518110610e6a57610e6a616285565b6020026020010151848281518110610e8457610e84616285565b63ffffffff9092166020928302919091019091015280610ea38161621a565b915050610e4a565b505050919050565b3360009081526020819052604080822081516101208101909252805482908290610edc906161df565b80601f0160208091040260200160405190810160405280929190818152602001828054610f08906161df565b8015610f555780601f10610f2a57610100808354040283529160200191610f55565b820191906000526020600020905b815481529060010190602001808311610f3857829003601f168201915b50505050508152602001600182018054610f6e906161df565b80601f0160208091040260200160405190810160405280929190818152602001828054610f9a906161df565b8015610fe75780601f10610fbc57610100808354040283529160200191610fe7565b820191906000526020600020905b815481529060010190602001808311610fca57829003601f168201915b50505091835250506002820154602082015260038201546040820152600482015460609091019060ff1660058111156110225761102261626f565b60058111156110335761103361626f565b81526020016004820160019054906101000a900460ff16600581111561105b5761105b61626f565b600581111561106c5761106c61626f565b8152602001600582018054611080906161df565b80601f01602080910402602001604051908101604052809291908181526020018280546110ac906161df565b80156110f95780601f106110ce576101008083540402835291602001916110f9565b820191906000526020600020905b8154815290600101906020018083116110dc57829003601f168201915b505050505081526020016006820180548060200260200160405190810160405280929190818152602001828054801561117d57602002820191906000526020600020906000905b82829054906101000a900463ffffffff1663ffffffff16815260200190600401906020826003010492830192600103820291508084116111405790505b50505091835250506007919091015460ff161515602090910152905060008160a0015160058111156111b1576111b161626f565b14806111d2575060018160a0015160058111156111d0576111d061626f565b145b6040518060600160405280602f81526020016162d5602f9139906112095760405162461bcd60e51b81526004016105e691906160ea565b50828260018260058111156112205761122061626f565b14156112ce5761123f8160405180602001604052806000815250615117565b1561125c5760405162461bcd60e51b81526004016105e6906160fd565b60038160405161126c9190615e15565b9081526040519081900360200190206001015460ff600160a01b909104166112ce5760405162461bcd60e51b815260206004820152601560248201527405468657265206973206e6f20737563682073686f7605c1b60448201526064016105e6565b3360009081526007602052604090206002015460ff16156113435760405162461bcd60e51b815260206004820152602960248201527f596f75206861766520616c72656164792073656e7420616e20656c657661746560448201526820726571756573742160b81b60648201526084016105e6565b6040518060800160405280336001600160a01b0316815260200186600581111561136f5761136f61626f565b8152602080820187905260016040928301523360009081526007825291909120825181546001600160a01b03919091166001600160a01b031982168117835592840151919283916001600160a81b03191617600160a01b8360058111156113d8576113d861626f565b0217905550604082015180516113f89160018401916020909101906156b2565b50606091909101516002909101805491151560ff199092169190911790555050600880546001810182556000919091527ff3f7a9fe364faab93b216da50a3214154f22a0a2b415b23a84c8169e8b636ee30180546001600160a01b03191633179055505050565b60006001826040516114719190615e15565b908152604051908190036020019020546001600160a01b031692915050565b33600090815260208190526040808220815161012081019092528054829082906114b9906161df565b80601f01602080910402602001604051908101604052809291908181526020018280546114e5906161df565b80156115325780601f1061150757610100808354040283529160200191611532565b820191906000526020600020905b81548152906001019060200180831161151557829003601f168201915b5050505050815260200160018201805461154b906161df565b80601f0160208091040260200160405190810160405280929190818152602001828054611577906161df565b80156115c45780601f10611599576101008083540402835291602001916115c4565b820191906000526020600020905b8154815290600101906020018083116115a757829003601f168201915b50505091835250506002820154602082015260038201546040820152600482015460609091019060ff1660058111156115ff576115ff61626f565b60058111156116105761161061626f565b81526020016004820160019054906101000a900460ff1660058111156116385761163861626f565b60058111156116495761164961626f565b815260200160058201805461165d906161df565b80601f0160208091040260200160405190810160405280929190818152602001828054611689906161df565b80156116d65780601f106116ab576101008083540402835291602001916116d6565b820191906000526020600020905b8154815290600101906020018083116116b957829003601f168201915b505050505081526020016006820180548060200260200160405190810160405280929190818152602001828054801561175a57602002820191906000526020600020906000905b82829054906101000a900463ffffffff1663ffffffff168152602001906004019060208260030104928301926001038202915080841161171d5790505b50505091835250506007919091015460ff1615156020909101526080810151909150600581111561178d5761178d61626f565b82600581111561179f5761179f61626f565b106117c65760405162461bcd60e51b815260206004820152600060248201526044016105e6565b5050565b60606004805480602002602001604051908101604052809291908181526020016000905b8282101561189a57838290600052602060002001805461180d906161df565b80601f0160208091040260200160405190810160405280929190818152602001828054611839906161df565b80156118865780601f1061185b57610100808354040283529160200191611886565b820191906000526020600020905b81548152906001019060200180831161186957829003601f168201915b5050505050815260200190600101906117ee565b50505050905090565b600533600090815260208190526040902060040154610100900460ff1660058111156118d1576118d161626f565b146040518060600160405280602f81526020016162d5602f9139906119095760405162461bcd60e51b81526004016105e691906160ea565b50600060038260405161191c9190615e15565b9081526020016040518091039020604051806060016040529081600082018054611945906161df565b80601f0160208091040260200160405190810160405280929190818152602001828054611971906161df565b80156119be5780601f10611993576101008083540402835291602001916119be565b820191906000526020600020905b8154815290600101906020018083116119a157829003601f168201915b5050509183525050600191909101546001600160a01b0381166020830152600160a01b900460ff161515604091820152810151909150611a405760405162461bcd60e51b815260206004820152601d60248201527f5468657265206973206e6f2073686f7020696e2074686973206369747900000060448201526064016105e6565b60005b600254811015611e27576000600160028381548110611a6457611a64616285565b90600052602060002001604051611a7b9190615e31565b908152602001604051809103902060009054906101000a90046001600160a01b031690506000806000600160028681548110611ab957611ab9616285565b90600052602060002001604051611ad09190615e31565b9081526040805160209281900383019020546001600160a01b0316835290820192909252810160002081516101208101909252805482908290611b12906161df565b80601f0160208091040260200160405190810160405280929190818152602001828054611b3e906161df565b8015611b8b5780601f10611b6057610100808354040283529160200191611b8b565b820191906000526020600020905b815481529060010190602001808311611b6e57829003601f168201915b50505050508152602001600182018054611ba4906161df565b80601f0160208091040260200160405190810160405280929190818152602001828054611bd0906161df565b8015611c1d5780601f10611bf257610100808354040283529160200191611c1d565b820191906000526020600020905b815481529060010190602001808311611c0057829003601f168201915b50505091835250506002820154602082015260038201546040820152600482015460609091019060ff166005811115611c5857611c5861626f565b6005811115611c6957611c6961626f565b81526020016004820160019054906101000a900460ff166005811115611c9157611c9161626f565b6005811115611ca257611ca261626f565b8152602001600582018054611cb6906161df565b80601f0160208091040260200160405190810160405280929190818152602001828054611ce2906161df565b8015611d2f5780601f10611d0457610100808354040283529160200191611d2f565b820191906000526020600020905b815481529060010190602001808311611d1257829003601f168201915b5050505050815260200160068201805480602002602001604051908101604052809291908181526020018280548015611db357602002820191906000526020600020906000905b82829054906101000a900463ffffffff1663ffffffff1681526020019060040190602082600301049283019260010382029150808411611d765790505b50505091835250506007919091015460ff161515602090910152905060018160a001516005811115611de757611de761626f565b1415611e12576001600160a01b0382166000908152602081905260409020600401805461ff00191690555b50508080611e1f9061621a565b915050611a43565b50602081810180516001600160a01b0390811660009081528084526040808220600401805461ff001916905580518086018083528382529451909316825293819052929092209151611e7d9260050191906156b2565b50611e8782615170565b505050565b6060600533600090815260208190526040902060040154610100900460ff166005811115611ebc57611ebc61626f565b146040518060600160405280602f81526020016162d5602f913990611ef45760405162461bcd60e51b81526004016105e691906160ea565b506008805480602002602001604051908101604052809291908181526020018280548015611f4b57602002820191906000526020600020905b81546001600160a01b03168152600190910190602001808311611f2d575b5050505050905090565b600433600090815260208190526040902060040154610100900460ff166005811115611f8357611f8361626f565b146040518060600160405280602f81526020016162d5602f913990611fbb5760405162461bcd60e51b81526004016105e691906160ea565b506000600982604051611fce9190615e15565b90815260408051918290036020908101832060608401835280546001600160a01b031684526001810154918401919091526002015460ff16151590820181905290915061206e5760405162461bcd60e51b815260206004820152602860248201527f546869732073686f70206469646e27742073656e7420616e79206d6f6e657920604482015267726571756573747360c01b60648201526084016105e6565b806020015134146120fc5760405162461bcd60e51b815260206004820152604c60248201527f596f75206e65656420746f2073656e642065786163742073616d6520616d6f7560448201527f6e74206f66206d6f6e65792074686174206973207772697474656e20696e206d60648201526b1bdb995e481c995c5d595cdd60a21b608482015260a4016105e6565b600060038360405161210e9190615e15565b9081526040516020918190038201812060010154918401516001600160a01b03909216925082916108fc811502916000818181858888f1935050505015801561215b573d6000803e3d6000fd5b5061216583615170565b50505050565b6000606080600060606000806000886001600160a01b03166001600160a01b03168152602001908152602001600020604051806101200160405290816000820180546121b6906161df565b80601f01602080910402602001604051908101604052809291908181526020018280546121e2906161df565b801561222f5780601f106122045761010080835404028352916020019161222f565b820191906000526020600020905b81548152906001019060200180831161221257829003601f168201915b50505050508152602001600182018054612248906161df565b80601f0160208091040260200160405190810160405280929190818152602001828054612274906161df565b80156122c15780601f10612296576101008083540402835291602001916122c1565b820191906000526020600020905b8154815290600101906020018083116122a457829003601f168201915b50505091835250506002820154602082015260038201546040820152600482015460609091019060ff1660058111156122fc576122fc61626f565b600581111561230d5761230d61626f565b81526020016004820160019054906101000a900460ff1660058111156123355761233561626f565b60058111156123465761234661626f565b815260200160058201805461235a906161df565b80601f0160208091040260200160405190810160405280929190818152602001828054612386906161df565b80156123d35780601f106123a8576101008083540402835291602001916123d3565b820191906000526020600020905b8154815290600101906020018083116123b657829003601f168201915b505050505081526020016006820180548060200260200160405190810160405280929190818152602001828054801561245757602002820191906000526020600020906000905b82829054906101000a900463ffffffff1663ffffffff168152602001906004019060208260030104928301926001038202915080841161241a5790505b50505091835250506007919091015460ff16151560209182015261010082015182519183015160a084015160c090940151919b929a50985091965090945092505050565b6001600160a01b03851660009081526020819052604090206007015460ff1615801561250657506000806001866040516124d59190615e15565b9081526040805160209281900383019020546001600160a01b0316835290820192909252016000206007015460ff16155b6125475760405162461bcd60e51b8152602060048201526012602482015271155cd95c88185b1c9958591e48195e1a5cdd60721b60448201526064016105e6565b60028054600181018255600091909152845160609161258f917f405787fa12a823e0f2b7631cc41b3ba8828b3321ca811111fa75cd3aa3bb5ace9091019060208801906156b2565b50856001866040516125a19190615e15565b908152602001604051809103902060006101000a8154816001600160a01b0302191690836001600160a01b03160217905550604051806101200160405280868152602001858152602001846040516020016125fc9190615e15565b604051602081830303815290604052805190602001208152602001836040516020016126289190615e15565b60408051601f1981840301815291905280516020918201208252016000815260200160008152604080516020818101835260008083528185019290925282840186905260016060909401939093526001600160a01b038a1681528083522082518051919261269b928492909101906156b2565b5060208281015180516126b492600185019201906156b2565b506040820151600282015560608201516003820155608082015160048201805460ff191660018360058111156126ec576126ec61626f565b021790555060a082015160048201805461ff0019166101008360058111156127165761271661626f565b021790555060c082015180516127369160058401916020909101906156b2565b5060e08201518051612752916006840191602090910190615736565b5061010091909101516007909101805460ff1916911515919091179055505050505050565b33600090815260208190526040808220815161012081019092528054829082906127a0906161df565b80601f01602080910402602001604051908101604052809291908181526020018280546127cc906161df565b80156128195780601f106127ee57610100808354040283529160200191612819565b820191906000526020600020905b8154815290600101906020018083116127fc57829003601f168201915b50505050508152602001600182018054612832906161df565b80601f016020809104026020016040519081016040528092919081815260200182805461285e906161df565b80156128ab5780601f10612880576101008083540402835291602001916128ab565b820191906000526020600020905b81548152906001019060200180831161288e57829003601f168201915b50505091835250506002820154602082015260038201546040820152600482015460609091019060ff1660058111156128e6576128e661626f565b60058111156128f7576128f761626f565b81526020016004820160019054906101000a900460ff16600581111561291f5761291f61626f565b60058111156129305761293061626f565b8152602001600582018054612944906161df565b80601f0160208091040260200160405190810160405280929190818152602001828054612970906161df565b80156129bd5780601f10612992576101008083540402835291602001916129bd565b820191906000526020600020905b8154815290600101906020018083116129a057829003601f168201915b5050505050815260200160068201805480602002602001604051908101604052809291908181526020018280548015612a4157602002820191906000526020600020906000905b82829054906101000a900463ffffffff1663ffffffff1681526020019060040190602082600301049283019260010382029150808411612a045790505b50505091835250506007919091015460ff161515602090910152905060008160a001516005811115612a7557612a7561626f565b1480612a96575060018160a001516005811115612a9457612a9461626f565b145b6040518060600160405280602f81526020016162d5602f913990612acd5760405162461bcd60e51b81526004016105e691906160ea565b5063ffffffff831660009081526005602090815260408083208151610120810190925280546001600160a01b031682526001810180549293919291840191612b14906161df565b80601f0160208091040260200160405190810160405280929190818152602001828054612b40906161df565b8015612b8d5780601f10612b6257610100808354040283529160200191612b8d565b820191906000526020600020905b815481529060010190602001808311612b7057829003601f168201915b50505050508152602001600282018054612ba6906161df565b80601f0160208091040260200160405190810160405280929190818152602001828054612bd2906161df565b8015612c1f5780601f10612bf457610100808354040283529160200191612c1f565b820191906000526020600020905b815481529060010190602001808311612c0257829003601f168201915b5050509183525050600382015463ffffffff166020808301919091526004830180546040805182850281018501825282815294019392830182828015612cb057602002820191906000526020600020906000905b82829054906101000a900463ffffffff1663ffffffff1681526020019060040190602082600301049283019260010382029150808411612c735790505b5050509183525050600582015460ff166020808301919091526006830180546040805182850281018501825282815294019392830182828015612d1c57602002820191906000526020600020905b81546001600160a01b03168152600190910190602001808311612cfe575b5050505050815260200160078201805480602002602001604051908101604052809291908181526020018280548015612d7e57602002820191906000526020600020905b81546001600160a01b03168152600190910190602001808311612d60575b50505091835250506008919091015460ff161515602090910152610100810151909150612ded5760405162461bcd60e51b815260206004820152601a60248201527f546869732072657669657720646f6573206e6f7420657869737400000000000060448201526064016105e6565b80516001600160a01b0316331415612e475760405162461bcd60e51b815260206004820152601e60248201527f596f752063616e2774207261746520796f7572206f776e20726576696577000060448201526064016105e6565b612e50846152b4565b508215612e945763ffffffff841660009081526005602090815260408220600601805460018101825590835291200180546001600160a01b03191633179055612165565b63ffffffff841660009081526005602090815260408220600701805460018101825590835291200180546001600160a01b0319163317905550505050565b3360009081526020819052604080822081516101208101909252805482908290612efb906161df565b80601f0160208091040260200160405190810160405280929190818152602001828054612f27906161df565b8015612f745780601f10612f4957610100808354040283529160200191612f74565b820191906000526020600020905b815481529060010190602001808311612f5757829003601f168201915b50505050508152602001600182018054612f8d906161df565b80601f0160208091040260200160405190810160405280929190818152602001828054612fb9906161df565b80156130065780601f10612fdb57610100808354040283529160200191613006565b820191906000526020600020905b815481529060010190602001808311612fe957829003601f168201915b50505091835250506002820154602082015260038201546040820152600482015460609091019060ff1660058111156130415761304161626f565b60058111156130525761305261626f565b81526020016004820160019054906101000a900460ff16600581111561307a5761307a61626f565b600581111561308b5761308b61626f565b815260200160058201805461309f906161df565b80601f01602080910402602001604051908101604052809291908181526020018280546130cb906161df565b80156131185780601f106130ed57610100808354040283529160200191613118565b820191906000526020600020905b8154815290600101906020018083116130fb57829003601f168201915b505050505081526020016006820180548060200260200160405190810160405280929190818152602001828054801561319c57602002820191906000526020600020906000905b82829054906101000a900463ffffffff1663ffffffff168152602001906004019060208260030104928301926001038202915080841161315f5790505b50505091835250506007919091015460ff161515602090910152905060008160a0015160058111156131d0576131d061626f565b14806131f1575060018160a0015160058111156131ef576131ef61626f565b145b6040518060600160405280602f81526020016162d5602f9139906132285760405162461bcd60e51b81526004016105e691906160ea565b503360009081526020819052604080822081516101208101909252805482908290613252906161df565b80601f016020809104026020016040519081016040528092919081815260200182805461327e906161df565b80156132cb5780601f106132a0576101008083540402835291602001916132cb565b820191906000526020600020905b8154815290600101906020018083116132ae57829003601f168201915b505050505081526020016001820180546132e4906161df565b80601f0160208091040260200160405190810160405280929190818152602001828054613310906161df565b801561335d5780601f106133325761010080835404028352916020019161335d565b820191906000526020600020905b81548152906001019060200180831161334057829003601f168201915b50505091835250506002820154602082015260038201546040820152600482015460609091019060ff1660058111156133985761339861626f565b60058111156133a9576133a961626f565b81526020016004820160019054906101000a900460ff1660058111156133d1576133d161626f565b60058111156133e2576133e261626f565b81526020016005820180546133f6906161df565b80601f0160208091040260200160405190810160405280929190818152602001828054613422906161df565b801561346f5780601f106134445761010080835404028352916020019161346f565b820191906000526020600020905b81548152906001019060200180831161345257829003601f168201915b50505050508152602001600682018054806020026020016040519081016040528092919081815260200182805480156134f357602002820191906000526020600020906000905b82829054906101000a900463ffffffff1663ffffffff16815260200190600401906020826003010492830192600103820291508084116134b65790505b50505091835250506007919091015460ff161515602090910152604051909150600390613521908890615e15565b9081526040519081900360200190206001015460ff600160a01b909104166135815760405162461bcd60e51b815260206004820152601360248201527214da1bdc08191bd95cc81b9bdd08195e1a5cdd606a1b60448201526064016105e6565b60018160a0015160058111156135995761359961626f565b1415613664576135ad868260c00151615117565b61360c5760405162461bcd60e51b815260206004820152602a60248201527f596f752063616e207075626c6973682072657669657773206f6e6c79206f6e20604482015269796f75722073686f702160b01b60648201526084016105e6565b63ffffffff831661365f5760405162461bcd60e51b815260206004820152601a60248201527f596f752063616e206f6e6c792073656e6420616e73776572732100000000000060448201526064016105e6565b6136d2565b60018460ff161015801561367c5750600a8460ff1611155b6136d25760405162461bcd60e51b815260206004820152602160248201527f526174652063616e206f6e6c79206265206265747765656e203120616e6420316044820152600360fc1b60648201526084016105e6565b600680546001810182556000919091527ff652222313e28459528d920b65115c16c04f3efc82aaedc97be59f3f377c0d3f60088204018054600783166004026101000a63ffffffff8181021990921682851691909102179091558416156137845763ffffffff8085166000908152600560209081526040822060049081018054600181018255908452919092206008820401805485851660079093169093026101000a91820291909302199091161790555b606080604051806101200160405280336001600160a01b031681526020018a81526020018981526020018763ffffffff168152602001838152602001600160058111156137d3576137d361626f565b8660a0015160058111156137e9576137e961626f565b146137f457886137f7565b60005b60ff168152602080820184905260408083018590526001606090930183905263ffffffff871660009081526005835220835181546001600160a01b0319166001600160a01b03909116178155838201518051919361385b93908501929101906156b2565b50604082015180516138779160028401916020909101906156b2565b50606082015160038201805463ffffffff191663ffffffff909216919091179055608082015180516138b3916004840191602090910190615736565b5060a082015160058201805460ff191660ff90921691909117905560c082015180516138e99160068401916020909101906157e0565b5060e082015180516139059160078401916020909101906157e0565b50610100918201516008918201805460ff1916911515919091179055336000908152602081815260408220600601805460018101825590835291209181049091018054600790921660040290920a63ffffffff818102199092169590911602939093179092555050505050505050565b600333600090815260208190526040902060040154610100900460ff1660058111156139a3576139a361626f565b146040518060600160405280602f81526020016162d5602f9139906139db5760405162461bcd60e51b81526004016105e691906160ea565b50336000908152602081905260408082209051600391613a0091600590910190615e31565b9081526020016040518091039020604051806060016040529081600082018054613a29906161df565b80601f0160208091040260200160405190810160405280929190818152602001828054613a55906161df565b8015613aa25780601f10613a7757610100808354040283529160200191613aa2565b820191906000526020600020905b815481529060010190602001808311613a8557829003601f168201915b5050509183525050600191909101546001600160a01b0381166020830152600160a01b900460ff16151560409182015281519051919250600991613ae69190615e15565b9081526040519081900360200190206002015460ff16613b535760405162461bcd60e51b815260206004820152602260248201527f596f7520686176656e27742073656e7420616e79206d6f6e65792072657175656044820152611cdd60f21b60648201526084016105e6565b80516117c690615170565b63ffffffff811660009081526005602090815260408083208151610120810190925280546001600160a01b03168252600181018054859460609485948794869486948694859487949193909284019190613bb7906161df565b80601f0160208091040260200160405190810160405280929190818152602001828054613be3906161df565b8015613c305780601f10613c0557610100808354040283529160200191613c30565b820191906000526020600020905b815481529060010190602001808311613c1357829003601f168201915b50505050508152602001600282018054613c49906161df565b80601f0160208091040260200160405190810160405280929190818152602001828054613c75906161df565b8015613cc25780601f10613c9757610100808354040283529160200191613cc2565b820191906000526020600020905b815481529060010190602001808311613ca557829003601f168201915b5050509183525050600382015463ffffffff166020808301919091526004830180546040805182850281018501825282815294019392830182828015613d5357602002820191906000526020600020906000905b82829054906101000a900463ffffffff1663ffffffff1681526020019060040190602082600301049283019260010382029150808411613d165790505b5050509183525050600582015460ff166020808301919091526006830180546040805182850281018501825282815294019392830182828015613dbf57602002820191906000526020600020905b81546001600160a01b03168152600190910190602001808311613da1575b5050505050815260200160078201805480602002602001604051908101604052809291908181526020018280548015613e2157602002820191906000526020600020905b81546001600160a01b03168152600190910190602001808311613e03575b505050505081526020016008820160009054906101000a900460ff1615151515815250509050806101000151816000015182602001518360400151846060015185608001518660a001518760c001518860e00151995099509950995099509950995099509950509193959799909294969850565b60606002805480602002602001604051908101604052809291908181526020016000905b8282101561189a578382906000526020600020018054613ed8906161df565b80601f0160208091040260200160405190810160405280929190818152602001828054613f04906161df565b8015613f515780601f10613f2657610100808354040283529160200191613f51565b820191906000526020600020905b815481529060010190602001808311613f3457829003601f168201915b505050505081526020019060010190613eb9565b3360009081526020819052604080822081516101208101909252805482908290613f8e906161df565b80601f0160208091040260200160405190810160405280929190818152602001828054613fba906161df565b80156140075780601f10613fdc57610100808354040283529160200191614007565b820191906000526020600020905b815481529060010190602001808311613fea57829003601f168201915b50505050508152602001600182018054614020906161df565b80601f016020809104026020016040519081016040528092919081815260200182805461404c906161df565b80156140995780601f1061406e57610100808354040283529160200191614099565b820191906000526020600020905b81548152906001019060200180831161407c57829003601f168201915b50505091835250506002820154602082015260038201546040820152600482015460609091019060ff1660058111156140d4576140d461626f565b60058111156140e5576140e561626f565b81526020016004820160019054906101000a900460ff16600581111561410d5761410d61626f565b600581111561411e5761411e61626f565b8152602001600582018054614132906161df565b80601f016020809104026020016040519081016040528092919081815260200182805461415e906161df565b80156141ab5780601f10614180576101008083540402835291602001916141ab565b820191906000526020600020905b81548152906001019060200180831161418e57829003601f168201915b505050505081526020016006820180548060200260200160405190810160405280929190818152602001828054801561422f57602002820191906000526020600020906000905b82829054906101000a900463ffffffff1663ffffffff16815260200190600401906020826003010492830192600103820291508084116141f25790505b50505091835250506007919091015460ff161515602090910152905060008160a0015160058111156142635761426361626f565b1480614284575060018160a0015160058111156142825761428261626f565b145b6040518060600160405280602f81526020016162d5602f9139906142bb5760405162461bcd60e51b81526004016105e691906160ea565b503360009081526007602052604090206002015460ff1661432e5760405162461bcd60e51b815260206004820152602760248201527f596f752068617665206e6f742073656e7420616e7920656c65766174652072656044820152667175657374732160c81b60648201526084016105e6565b336000908152600760205260408120600201805460ff191690555b6008548110156117c657336001600160a01b03166008828154811061437057614370616285565b6000918252602090912001546001600160a01b031614156143b8576008818154811061439e5761439e616285565b600091825260209091200180546001600160a01b03191690555b806143c28161621a565b915050614349565b6000806060600533600090815260208190526040902060040154610100900460ff1660058111156143fd576143fd61626f565b146040518060600160405280602f81526020016162d5602f9139906144355760405162461bcd60e51b81526004016105e691906160ea565b506001600160a01b0384166000908152600760205260409020600281015481546001909201805460ff92831693600160a01b9004909216918190614478906161df565b80601f01602080910402602001604051908101604052809291908181526020018280546144a4906161df565b80156144f15780601f106144c6576101008083540402835291602001916144f1565b820191906000526020600020905b8154815290600101906020018083116144d457829003601f168201915b505050505090509250925092509193909250565b600333600090815260208190526040902060040154610100900460ff1660058111156145335761453361626f565b146040518060600160405280602f81526020016162d5602f91399061456b5760405162461bcd60e51b81526004016105e691906160ea565b5033600090815260208190526040808220905160039161459091600590910190615e31565b90815260200160405180910390206040518060600160405290816000820180546145b9906161df565b80601f01602080910402602001604051908101604052809291908181526020018280546145e5906161df565b80156146325780601f1061460757610100808354040283529160200191614632565b820191906000526020600020905b81548152906001019060200180831161461557829003601f168201915b5050509183525050600191909101546001600160a01b0381166020830152600160a01b900460ff161515604091820152815190519192506009916146769190615e15565b9081526040519081900360200190206002015460ff16156146e85760405162461bcd60e51b815260206004820152602660248201527f596f75206861766520616c72656164792073656e7420616e206d6f6e65792072604482015265195c5d595cdd60d21b60648201526084016105e6565b732641d38ed882f3e2ea5f45f922cded9d72ad09f7318211156147735760405162461bcd60e51b815260206004820152603760248201527f42616e6b20646f6573206e6f74206861766520656e6f756768206d6f6e65792060448201527f746f207361746973667920796f7572207265717565737400000000000000000060648201526084016105e6565b60408051606081018252338152602081018490526001818301528251915190916009916147a09190615e15565b9081526040805160209281900383019020835181546001600160a01b0319166001600160a01b039091161781558383015160018083019190915593909101516002909101805460ff19169115159190911790558251600a805493840181556000528051611e87937fc65a7bb8d6351c1cf70c95a316cc6a92839c986682d98bc35f958f4883f9d2a8019291909101906156b2565b60008080600433600090815260208190526040902060040154610100900460ff1660058111156148665761486661626f565b146040518060600160405280602f81526020016162d5602f91399061489e5760405162461bcd60e51b81526004016105e691906160ea565b5060006009856040516148b19190615e15565b908152604080516020928190038301812060608201835280546001600160a01b0316808352600182015494830185905260029091015460ff161515919092018190529790965090945092505050565b6000606060006003846040516149169190615e15565b9081526040519081900360200181206001015460ff600160a01b9091041690600390614943908790615e15565b90815260405190819003602001812090600390614961908890615e15565b9081526040519081900360200190206001015481546001600160a01b0390911690829061498d906161df565b80601f01602080910402602001604051908101604052809291908181526020018280546149b9906161df565b8015614a065780601f106149db57610100808354040283529160200191614a06565b820191906000526020600020905b8154815290600101906020018083116149e957829003601f168201915b505050505091509250925092509193909250565b600533600090815260208190526040902060040154610100900460ff166005811115614a4857614a4861626f565b146040518060600160405280602f81526020016162d5602f913990614a805760405162461bcd60e51b81526004016105e691906160ea565b506001600160a01b038181166000908152600760209081526040808320815160808101909252805494851682529293909291830190600160a01b900460ff166005811115614ad057614ad061626f565b6005811115614ae157614ae161626f565b8152602001600182018054614af5906161df565b80601f0160208091040260200160405190810160405280929190818152602001828054614b21906161df565b8015614b6e5780601f10614b4357610100808354040283529160200191614b6e565b820191906000526020600020905b815481529060010190602001808311614b5157829003601f168201915b50505091835250506002919091015460ff1615156020909101526060810151909150614bf45760405162461bcd60e51b815260206004820152602f60248201527f5468697320757365722068617665206e6f742073656e7420616e7920656c657660448201526e6174696f6e2072657175657374732160881b60648201526084016105e6565b60208101516040808301519051630137a85360e41b8152309263137a853092614c239287929190600401615ecd565b600060405180830381600087803b158015614c3d57600080fd5b505af115801561075d573d6000803e3d6000fd5b6001600160a01b038116600090815260208190526040812060050180546060918391829190614c7f906161df565b80601f0160208091040260200160405190810160405280929190818152602001828054614cab906161df565b8015614cf85780601f10614ccd57610100808354040283529160200191614cf8565b820191906000526020600020905b815481529060010190602001808311614cdb57829003601f168201915b505060405163355a6cc360e21b8152939450309363d569b30c9350614d2392508591506004016160ea565b60006040518083038186803b158015614d3b57600080fd5b505afa158015614d4f573d6000803e3d6000fd5b505050506040513d6000823e601f3d908101601f19168201604052614d779190810190615a49565b935093509350509193909250565b600533600090815260208190526040902060040154610100900460ff166005811115614db357614db361626f565b146040518060600160405280602f81526020016162d5602f913990614deb5760405162461bcd60e51b81526004016105e691906160ea565b506001600160a01b03811660009081526020819052604090206007015460ff16614e4e5760405162461bcd60e51b815260206004820152601460248201527313dddb995c88191bd95cc81b9bdd08195e1a5cdd60621b60448201526064016105e6565b600382604051614e5e9190615e15565b9081526040519081900360200190206001015460ff600160a01b9091041615614ed45760405162461bcd60e51b815260206004820152602260248201527f546865726520697320616c72656164792073686f7020696e2074686973206369604482015261747960f01b60648201526084016105e6565b600480546001810182556000919091528251614f17917f8a35acfbc15ff81a39ae7d344fd709f28e8600b4aa8c65c6b64bfe7fe36bd19b019060208501906156b2565b50604080516060810182528381526001600160a01b03831660208201526001818301529051600390614f4a908590615e15565b90815260200160405180910390206000820151816000019080519060200190614f749291906156b2565b5060208281015160019290920180546040948501511515600160a01b026001600160a81b03199091166001600160a01b039485161717905590831660009081528082529190912060048101805461ff0019166103001790558351611e87926005909201918501906156b2565b6060600433600090815260208190526040902060040154610100900460ff1660058111156150105761501061626f565b146040518060600160405280602f81526020016162d5602f9139906150485760405162461bcd60e51b81526004016105e691906160ea565b50600a805480602002602001604051908101604052809291908181526020016000905b8282101561189a57838290600052602060002001805461508a906161df565b80601f01602080910402602001604051908101604052809291908181526020018280546150b6906161df565b80156151035780601f106150d857610100808354040283529160200191615103565b820191906000526020600020905b8154815290600101906020018083116150e657829003601f168201915b50505050508152602001906001019061506b565b60008160405160200161512a9190615e15565b60405160208183030381529060405280519060200120836040516020016151519190615e15565b6040516020818303038152906040528051906020012014905092915050565b6000806009836040516151839190615e15565b908152604051908190036020019020600201805491151560ff1990921691909117905560005b600a548110156152ab57615262600a82815481106151c9576151c9616285565b9060005260206000200180546151de906161df565b80601f016020809104026020016040519081016040528092919081815260200182805461520a906161df565b80156152575780601f1061522c57610100808354040283529160200191615257565b820191906000526020600020905b81548152906001019060200180831161523a57829003601f168201915b505050505084615117565b1561529957600a818154811061527a5761527a616285565b9060005260206000200160006152909190615835565b50600192915050565b806152a38161621a565b9150506151a9565b50600092915050565b63ffffffff811660009081526005602090815260408083208151610120810190925280546001600160a01b031682526001810180548594840191906152f8906161df565b80601f0160208091040260200160405190810160405280929190818152602001828054615324906161df565b80156153715780601f1061534657610100808354040283529160200191615371565b820191906000526020600020905b81548152906001019060200180831161535457829003601f168201915b5050505050815260200160028201805461538a906161df565b80601f01602080910402602001604051908101604052809291908181526020018280546153b6906161df565b80156154035780601f106153d857610100808354040283529160200191615403565b820191906000526020600020905b8154815290600101906020018083116153e657829003601f168201915b5050509183525050600382015463ffffffff16602080830191909152600483018054604080518285028101850182528281529401939283018282801561549457602002820191906000526020600020906000905b82829054906101000a900463ffffffff1663ffffffff16815260200190600401906020826003010492830192600103820291508084116154575790505b5050509183525050600582015460ff16602080830191909152600683018054604080518285028101850182528281529401939283018282801561550057602002820191906000526020600020905b81546001600160a01b031681526001909101906020018083116154e2575b505050505081526020016007820180548060200260200160405190810160405280929190818152602001828054801561556257602002820191906000526020600020905b81546001600160a01b03168152600190910190602001808311615544575b50505091835250506008919091015460ff161515602090910152905060005b8160c001515181101561562457336001600160a01b03168260c0015182815181106155ae576155ae616285565b60200260200101516001600160a01b031614156156125763ffffffff841660009081526005602052604090206006018054829081106155ef576155ef616285565b600091825260209091200180546001600160a01b03191690555060019392505050565b8061561c8161621a565b915050615581565b5060005b8160e00151518110156156a857336001600160a01b03168260e00151828151811061565557615655616285565b60200260200101516001600160a01b031614156156965763ffffffff841660009081526005602052604090206007018054829081106155ef576155ef616285565b806156a08161621a565b915050615628565b5060009392505050565b8280546156be906161df565b90600052602060002090601f0160209004810192826156e05760008555615726565b82601f106156f957805160ff1916838001178555615726565b82800160010185558215615726579182015b8281111561572657825182559160200191906001019061570b565b50615732929150615872565b5090565b828054828255906000526020600020906007016008900481019282156157265791602002820160005b838211156157a357835183826101000a81548163ffffffff021916908363ffffffff160217905550926020019260040160208160030104928301926001030261575f565b80156157d35782816101000a81549063ffffffff02191690556004016020816003010492830192600103026157a3565b5050615732929150615872565b828054828255906000526020600020908101928215615726579160200282015b8281111561572657825182546001600160a01b0319166001600160a01b03909116178255602090920191600190910190615800565b508054615841906161df565b6000825580601f10615851575050565b601f01602090049060005260206000209081019061586f9190615872565b50565b5b808211156157325760008155600101615873565b80356006811061589657600080fd5b919050565b600082601f8301126158ac57600080fd5b81356158bf6158ba8261618b565b61615a565b8181528460208386010111156158d457600080fd5b816020850160208301376000918101602001919091529392505050565b803563ffffffff8116811461589657600080fd5b60006020828403121561591757600080fd5b8135615922816162b1565b9392505050565b60008060006060848603121561593e57600080fd5b8335615949816162b1565b925061595760208501615887565b9150604084013567ffffffffffffffff81111561597357600080fd5b61597f8682870161589b565b9150509250925092565b600080600080600060a086880312156159a157600080fd5b85356159ac816162b1565b9450602086013567ffffffffffffffff808211156159c957600080fd5b6159d589838a0161589b565b955060408801359150808211156159eb57600080fd5b6159f789838a0161589b565b94506060880135915080821115615a0d57600080fd5b615a1989838a0161589b565b93506080880135915080821115615a2f57600080fd5b50615a3c8882890161589b565b9150509295509295909350565b600080600060608486031215615a5e57600080fd5b8351615a69816162c6565b602085015190935067ffffffffffffffff811115615a8657600080fd5b8401601f81018613615a9757600080fd5b8051615aa56158ba8261618b565b818152876020838501011115615aba57600080fd5b615acb8260208301602086016161b3565b8094505050506040840151615adf816162b1565b809150509250925092565b600060208284031215615afc57600080fd5b61592282615887565b60008060408385031215615b1857600080fd5b615b2183615887565b9150602083013567ffffffffffffffff811115615b3d57600080fd5b615b498582860161589b565b9150509250929050565b600060208284031215615b6557600080fd5b813567ffffffffffffffff811115615b7c57600080fd5b615b888482850161589b565b949350505050565b60008060408385031215615ba357600080fd5b823567ffffffffffffffff811115615bba57600080fd5b615bc68582860161589b565b9250506020830135615bd7816162b1565b809150509250929050565b600080600060608486031215615bf757600080fd5b833567ffffffffffffffff80821115615c0f57600080fd5b615c1b8783880161589b565b94506020860135915080821115615c3157600080fd5b615c3d8783880161589b565b93506040860135915080821115615c5357600080fd5b5061597f8682870161589b565b60008060008060808587031215615c7657600080fd5b843567ffffffffffffffff80821115615c8e57600080fd5b615c9a8883890161589b565b95506020870135915080821115615cb057600080fd5b50615cbd8782880161589b565b935050604085013560ff81168114615cd457600080fd5b9150615ce2606086016158f1565b905092959194509250565b600060208284031215615cff57600080fd5b5035919050565b600060208284031215615d1857600080fd5b615922826158f1565b60008060408385031215615d3457600080fd5b615d3d836158f1565b91506020830135615bd7816162c6565b600081518084526020808501945080840160005b83811015615d865781516001600160a01b031687529582019590820190600101615d61565b509495945050505050565b600081518084526020808501945080840160005b83811015615d8657815163ffffffff1687529582019590820190600101615da5565b60068110615de557634e487b7160e01b600052602160045260246000fd5b9052565b60008151808452615e018160208601602086016161b3565b601f01601f19169290920160200192915050565b60008251615e278184602087016161b3565b9190910192915050565b600080835481600182811c915080831680615e4d57607f831692505b6020808410821415615e6d57634e487b7160e01b86526022600452602486fd5b818015615e815760018114615e9257615ebf565b60ff19861689528489019650615ebf565b60008a81526020902060005b86811015615eb75781548b820152908501908301615e9e565b505084890196505b509498975050505050505050565b6001600160a01b0384168152615ee66020820184615dc7565b606060408201526000615efc6060830184615de9565b95945050505050565b6020815260006159226020830184615d4d565b6000602080830181845280855180835260408601915060408160051b870101925083870160005b82811015615f6d57603f19888603018452615f5b858351615de9565b94509285019290850190600101615f3f565b5092979650505050505050565b6020815260006159226020830184615d91565b89151581526001600160a01b038916602082015261012060408201819052600090615fba8382018b615de9565b90508281036060840152615fce818a615de9565b905063ffffffff8816608084015282810360a0840152615fee8188615d91565b905060ff861660c084015282810360e084015261600b8186615d4d565b90508281036101008401526160208185615d4d565b9c9b505050505050505050505050565b8215158152604060208201526000615b886040830184615d91565b8315158152615ee66020820184615dc7565b83151581526060602082015260006160786060830185615de9565b905060018060a01b0383166040830152949350505050565b851515815260a0602082015260006160ab60a0830187615de9565b82810360408401526160bd8187615de9565b90506160cc6060840186615dc7565b82810360808401526160de8185615de9565b98975050505050505050565b6020815260006159226020830184615de9565b6020808252603c908201527f526571756972656420726f6c6520697320636173686965722c2062757420726560408201527f7175697265642073686f70206973206e6f742073706563696669656400000000606082015260800190565b604051601f8201601f1916810167ffffffffffffffff811182821017156161835761618361629b565b604052919050565b600067ffffffffffffffff8211156161a5576161a561629b565b50601f01601f191660200190565b60005b838110156161ce5781810151838201526020016161b6565b838111156121655750506000910152565b600181811c908216806161f357607f821691505b6020821081141561621457634e487b7160e01b600052602260045260246000fd5b50919050565b600060001982141561622e5761622e616259565b5060010190565b600063ffffffff8083168181141561624f5761624f616259565b6001019392505050565b634e487b7160e01b600052601160045260246000fd5b634e487b7160e01b600052602160045260246000fd5b634e487b7160e01b600052603260045260246000fd5b634e487b7160e01b600052604160045260246000fd5b6001600160a01b038116811461586f57600080fd5b801515811461586f57600080fdfe596f7520617265206e6f74207065726d697474656420746f20657865637574652074686973206f7065726174696f6ea2646970667358221220dc0568a644ac0d17970a97781581d798ee0d7e209b45359ff8f45e77926fa4c664736f6c63430008070033405787fa12a823e0f2b7631cc41b3ba8828b3321ca811111fa75cd3aa3bb5ace7d4e3eec80026719639ed4dba68916eb94c7a49a053e05c8f9578fe4e5a3d7ea8a35acfbc15ff81a39ae7d344fd709f28e8600b4aa8c65c6b64bfe7fe36bd19ba03ab19b866fc585b5cb1812a2f63ca861e7e7643ee5d43fd7106b623725fd67",
			"opcodes": "PUSH1 0xA0 PUSH1 0x40 MSTORE PUSH1 0x0 PUSH1 0x80 SWAP1 DUP2 MSTORE PUSH3 0x1B SWAP1 PUSH1 0x6 SWAP1 PUSH1 0x1 PUSH3 0x2CC2 JUMP JUMPDEST POP CALLVALUE DUP1 ISZERO PUSH3 0x29 JUMPI PUSH1 0x0 DUP1 REVERT JUMPDEST POP PUSH1 0x40 DUP1 MLOAD PUSH2 0x160 DUP2 ADD DUP3 MSTORE PUSH1 0x7 PUSH2 0x120 DUP3 ADD DUP2 DUP2 MSTORE PUSH7 0x3236B4BA3937BB PUSH1 0xC9 SHL PUSH2 0x140 DUP5 ADD MSTORE DUP3 MSTORE DUP3 MLOAD DUP1 DUP5 ADD DUP5 MSTORE PUSH1 0xC DUP2 MSTORE PUSH12 0x446D6974726F762053686F7 PUSH1 0xA4 SHL PUSH1 0x20 DUP1 DUP4 ADD SWAP2 SWAP1 SWAP2 MSTORE DUP1 DUP5 ADD SWAP2 SWAP1 SWAP2 MSTORE PUSH1 0x0 DUP1 MLOAD PUSH1 0x20 PUSH3 0x9275 DUP4 CODECOPY DUP2 MLOAD SWAP2 MSTORE DUP4 DUP6 ADD MSTORE PUSH1 0x0 DUP1 MLOAD PUSH1 0x20 PUSH3 0x9235 DUP4 CODECOPY DUP2 MLOAD SWAP2 MSTORE PUSH1 0x60 DUP1 DUP6 ADD SWAP2 SWAP1 SWAP2 MSTORE PUSH1 0x3 PUSH1 0x80 DUP6 ADD DUP2 SWAP1 MSTORE PUSH1 0xA0 DUP6 ADD MSTORE DUP5 MLOAD DUP1 DUP7 ADD SWAP1 SWAP6 MSTORE SWAP2 DUP5 MSTORE PUSH7 0x2236B4BA3937BB PUSH1 0xC9 SHL DUP5 DUP3 ADD MSTORE PUSH1 0xC0 DUP4 ADD SWAP4 SWAP1 SWAP4 MSTORE PUSH1 0xE0 DUP3 ADD DUP2 SWAP1 MSTORE PUSH1 0x1 PUSH2 0x100 DUP4 ADD MSTORE PUSH20 0x45C16ACB0B0A616994C5DBAC60C05E4453029093 PUSH1 0x0 SWAP1 DUP2 MSTORE DUP4 MSTORE DUP2 MLOAD DUP1 MLOAD SWAP2 SWAP4 PUSH32 0x64005F3FB0BFA42221729316B7732E1CE5121E861365B82B0042F12629FD779F SWAP3 PUSH3 0x13C SWAP3 DUP5 SWAP3 ADD SWAP1 PUSH3 0x2D75 JUMP JUMPDEST POP PUSH1 0x20 DUP3 DUP2 ADD MLOAD DUP1 MLOAD PUSH3 0x157 SWAP3 PUSH1 0x1 DUP6 ADD SWAP3 ADD SWAP1 PUSH3 0x2D75 JUMP JUMPDEST POP PUSH1 0x40 DUP3 ADD MLOAD PUSH1 0x2 DUP3 ADD SSTORE PUSH1 0x60 DUP3 ADD MLOAD PUSH1 0x3 DUP3 ADD SSTORE PUSH1 0x80 DUP3 ADD MLOAD PUSH1 0x4 DUP3 ADD DUP1 SLOAD PUSH1 0xFF NOT AND PUSH1 0x1 DUP4 PUSH1 0x5 DUP2 GT ISZERO PUSH3 0x192 JUMPI PUSH3 0x192 PUSH3 0x2EB6 JUMP JUMPDEST MUL OR SWAP1 SSTORE POP PUSH1 0xA0 DUP3 ADD MLOAD PUSH1 0x4 DUP3 ADD DUP1 SLOAD PUSH2 0xFF00 NOT AND PUSH2 0x100 DUP4 PUSH1 0x5 DUP2 GT ISZERO PUSH3 0x1BF JUMPI PUSH3 0x1BF PUSH3 0x2EB6 JUMP JUMPDEST MUL OR SWAP1 SSTORE POP PUSH1 0xC0 DUP3 ADD MLOAD DUP1 MLOAD PUSH3 0x1E1 SWAP2 PUSH1 0x5 DUP5 ADD SWAP2 PUSH1 0x20 SWAP1 SWAP2 ADD SWAP1 PUSH3 0x2D75 JUMP JUMPDEST POP PUSH1 0xE0 DUP3 ADD MLOAD DUP1 MLOAD PUSH3 0x1FF SWAP2 PUSH1 0x6 DUP5 ADD SWAP2 PUSH1 0x20 SWAP1 SWAP2 ADD SWAP1 PUSH3 0x2DF2 JUMP JUMPDEST POP PUSH2 0x100 SWAP2 SWAP1 SWAP2 ADD MLOAD PUSH1 0x7 SWAP2 DUP3 ADD DUP1 SLOAD PUSH1 0xFF NOT AND SWAP2 ISZERO ISZERO SWAP2 SWAP1 SWAP2 OR SWAP1 SSTORE PUSH1 0x40 DUP1 MLOAD PUSH7 0x3236B4BA3937BB PUSH1 0xC9 SHL DUP1 DUP3 MSTORE PUSH1 0x1 DUP3 DUP6 ADD DUP2 SWAP1 MSTORE DUP4 MLOAD SWAP3 DUP4 SWAP1 SUB PUSH1 0x27 ADD DUP4 KECCAK256 DUP1 SLOAD PUSH20 0x45C16ACB0B0A616994C5DBAC60C05E4453029093 PUSH1 0x1 PUSH1 0x1 PUSH1 0xA0 SHL SUB NOT SWAP1 SWAP2 AND OR SWAP1 SSTORE PUSH1 0x2 DUP1 SLOAD SWAP2 DUP3 ADD DUP2 SSTORE PUSH1 0x0 MSTORE DUP3 DUP5 ADD SWAP1 SWAP4 MSTORE DUP4 DUP3 MSTORE PUSH1 0x20 SWAP1 SWAP2 ADD SWAP1 DUP2 MSTORE PUSH3 0x2A3 SWAP3 PUSH1 0x0 DUP1 MLOAD PUSH1 0x20 PUSH3 0x9215 DUP4 CODECOPY DUP2 MLOAD SWAP2 MSTORE SWAP1 SWAP3 ADD SWAP2 PUSH3 0x2D75 JUMP JUMPDEST POP PUSH1 0x40 DUP1 MLOAD PUSH1 0xA0 DUP2 ADD DUP3 MSTORE PUSH1 0x7 PUSH1 0x60 DUP3 ADD SWAP1 DUP2 MSTORE PUSH7 0x2236B4BA3937BB PUSH1 0xC9 SHL PUSH1 0x80 DUP4 ADD MSTORE DUP2 MSTORE PUSH20 0x45C16ACB0B0A616994C5DBAC60C05E4453029093 PUSH1 0x20 DUP3 ADD MSTORE PUSH1 0x1 DUP2 DUP4 ADD MSTORE SWAP1 MLOAD PUSH1 0x3 SWAP1 PUSH3 0x306 SWAP1 PUSH7 0x2236B4BA3937BB PUSH1 0xC9 SHL DUP2 MSTORE PUSH1 0x7 ADD SWAP1 JUMP JUMPDEST SWAP1 DUP2 MSTORE PUSH1 0x20 ADD PUSH1 0x40 MLOAD DUP1 SWAP2 SUB SWAP1 KECCAK256 PUSH1 0x0 DUP3 ADD MLOAD DUP2 PUSH1 0x0 ADD SWAP1 DUP1 MLOAD SWAP1 PUSH1 0x20 ADD SWAP1 PUSH3 0x332 SWAP3 SWAP2 SWAP1 PUSH3 0x2D75 JUMP JUMPDEST POP PUSH1 0x20 DUP3 DUP2 ADD MLOAD PUSH1 0x1 SWAP3 DUP4 ADD DUP1 SLOAD PUSH1 0x40 SWAP6 DUP7 ADD MLOAD ISZERO ISZERO PUSH1 0x1 PUSH1 0xA0 SHL MUL PUSH1 0x1 PUSH1 0x1 PUSH1 0xA8 SHL SUB NOT SWAP1 SWAP2 AND PUSH1 0x1 PUSH1 0x1 PUSH1 0xA0 SHL SUB SWAP1 SWAP4 AND SWAP3 SWAP1 SWAP3 OR SWAP2 SWAP1 SWAP2 OR SWAP1 SSTORE PUSH1 0x4 DUP1 SLOAD SWAP3 DUP4 ADD DUP2 SSTORE PUSH1 0x0 MSTORE DUP3 MLOAD DUP1 DUP5 ADD SWAP1 SWAP4 MSTORE PUSH1 0x7 DUP1 DUP5 MSTORE PUSH7 0x2236B4BA3937BB PUSH1 0xC9 SHL SWAP4 SWAP1 SWAP2 ADD SWAP3 DUP4 MSTORE PUSH3 0x3BA SWAP3 PUSH1 0x0 DUP1 MLOAD PUSH1 0x20 PUSH3 0x9255 DUP4 CODECOPY DUP2 MLOAD SWAP2 MSTORE SWAP1 SWAP3 ADD SWAP2 SWAP1 PUSH3 0x2D75 JUMP JUMPDEST POP PUSH1 0x40 DUP1 MLOAD PUSH2 0x160 DUP2 ADD DUP3 MSTORE PUSH1 0x6 PUSH2 0x120 DUP3 ADD DUP2 DUP2 MSTORE PUSH6 0x6B616C756761 PUSH1 0xD0 SHL PUSH2 0x140 DUP5 ADD MSTORE DUP3 MSTORE DUP3 MLOAD DUP1 DUP5 ADD DUP5 MSTORE PUSH1 0xB DUP2 MSTORE PUSH11 0x4B616C7567612053686F7 PUSH1 0xAC SHL PUSH1 0x20 DUP1 DUP4 ADD SWAP2 SWAP1 SWAP2 MSTORE DUP1 DUP5 ADD SWAP2 SWAP1 SWAP2 MSTORE PUSH1 0x0 DUP1 MLOAD PUSH1 0x20 PUSH3 0x9275 DUP4 CODECOPY DUP2 MLOAD SWAP2 MSTORE DUP4 DUP6 ADD MSTORE PUSH1 0x0 DUP1 MLOAD PUSH1 0x20 PUSH3 0x9235 DUP4 CODECOPY DUP2 MLOAD SWAP2 MSTORE PUSH1 0x60 DUP5 ADD MSTORE PUSH1 0x3 PUSH1 0x80 DUP5 ADD DUP2 SWAP1 MSTORE PUSH1 0xA0 DUP5 ADD MSTORE DUP4 MLOAD DUP1 DUP6 ADD SWAP1 SWAP5 MSTORE SWAP1 DUP4 MSTORE PUSH6 0x4B616C756761 PUSH1 0xD0 SHL DUP4 DUP3 ADD MSTORE PUSH1 0xC0 DUP3 ADD SWAP3 SWAP1 SWAP3 MSTORE PUSH1 0xE0 DUP2 ADD DUP4 SWAP1 MSTORE PUSH1 0x1 PUSH2 0x100 DUP3 ADD MSTORE PUSH20 0xED637709F4EDAC6A5008FB7405794E753A1EAD90 PUSH1 0x0 SWAP1 DUP2 MSTORE DUP3 MSTORE DUP1 MLOAD DUP1 MLOAD SWAP2 SWAP3 PUSH32 0x587D3FB32C47AFF2771C95F2FD796AD73AFE340B834AF445454845707B77AFCC SWAP3 PUSH3 0x4C6 SWAP3 DUP5 SWAP3 ADD SWAP1 PUSH3 0x2D75 JUMP JUMPDEST POP PUSH1 0x20 DUP3 DUP2 ADD MLOAD DUP1 MLOAD PUSH3 0x4E1 SWAP3 PUSH1 0x1 DUP6 ADD SWAP3 ADD SWAP1 PUSH3 0x2D75 JUMP JUMPDEST POP PUSH1 0x40 DUP3 ADD MLOAD PUSH1 0x2 DUP3 ADD SSTORE PUSH1 0x60 DUP3 ADD MLOAD PUSH1 0x3 DUP3 ADD SSTORE PUSH1 0x80 DUP3 ADD MLOAD PUSH1 0x4 DUP3 ADD DUP1 SLOAD PUSH1 0xFF NOT AND PUSH1 0x1 DUP4 PUSH1 0x5 DUP2 GT ISZERO PUSH3 0x51C JUMPI PUSH3 0x51C PUSH3 0x2EB6 JUMP JUMPDEST MUL OR SWAP1 SSTORE POP PUSH1 0xA0 DUP3 ADD MLOAD PUSH1 0x4 DUP3 ADD DUP1 SLOAD PUSH2 0xFF00 NOT AND PUSH2 0x100 DUP4 PUSH1 0x5 DUP2 GT ISZERO PUSH3 0x549 JUMPI PUSH3 0x549 PUSH3 0x2EB6 JUMP JUMPDEST MUL OR SWAP1 SSTORE POP PUSH1 0xC0 DUP3 ADD MLOAD DUP1 MLOAD PUSH3 0x56B SWAP2 PUSH1 0x5 DUP5 ADD SWAP2 PUSH1 0x20 SWAP1 SWAP2 ADD SWAP1 PUSH3 0x2D75 JUMP JUMPDEST POP PUSH1 0xE0 DUP3 ADD MLOAD DUP1 MLOAD PUSH3 0x589 SWAP2 PUSH1 0x6 DUP5 ADD SWAP2 PUSH1 0x20 SWAP1 SWAP2 ADD SWAP1 PUSH3 0x2DF2 JUMP JUMPDEST POP PUSH2 0x100 SWAP2 SWAP1 SWAP2 ADD MLOAD PUSH1 0x7 SWAP1 SWAP2 ADD DUP1 SLOAD PUSH1 0xFF NOT AND SWAP2 ISZERO ISZERO SWAP2 SWAP1 SWAP2 OR SWAP1 SSTORE PUSH1 0x40 DUP1 MLOAD PUSH6 0x6B616C756761 PUSH1 0xD0 SHL DUP1 DUP3 MSTORE PUSH1 0x1 PUSH1 0x6 DUP1 DUP5 ADD DUP3 SWAP1 MSTORE DUP5 MLOAD SWAP4 DUP5 SWAP1 SUB PUSH1 0x26 ADD DUP5 KECCAK256 DUP1 SLOAD PUSH20 0xED637709F4EDAC6A5008FB7405794E753A1EAD90 PUSH1 0x1 PUSH1 0x1 PUSH1 0xA0 SHL SUB NOT SWAP1 SWAP2 AND OR SWAP1 SSTORE PUSH1 0x2 DUP1 SLOAD SWAP3 DUP4 ADD DUP2 SSTORE PUSH1 0x0 MSTORE DUP4 DUP6 ADD SWAP1 SWAP5 MSTORE DUP4 DUP4 MSTORE PUSH1 0x20 SWAP1 SWAP3 ADD SWAP1 DUP2 MSTORE PUSH3 0x62E SWAP3 PUSH1 0x0 DUP1 MLOAD PUSH1 0x20 PUSH3 0x9215 DUP4 CODECOPY DUP2 MLOAD SWAP2 MSTORE SWAP1 SWAP3 ADD SWAP2 PUSH3 0x2D75 JUMP JUMPDEST POP PUSH1 0x40 DUP1 MLOAD PUSH1 0xA0 DUP2 ADD DUP3 MSTORE PUSH1 0x6 PUSH1 0x60 DUP3 ADD SWAP1 DUP2 MSTORE PUSH6 0x4B616C756761 PUSH1 0xD0 SHL PUSH1 0x80 DUP4 ADD MSTORE DUP2 MSTORE PUSH20 0xED637709F4EDAC6A5008FB7405794E753A1EAD90 PUSH1 0x20 DUP3 ADD MSTORE PUSH1 0x1 DUP2 DUP4 ADD MSTORE SWAP1 MLOAD PUSH1 0x3 SWAP1 PUSH3 0x68F SWAP1 PUSH6 0x4B616C756761 PUSH1 0xD0 SHL DUP2 MSTORE PUSH1 0x6 ADD SWAP1 JUMP JUMPDEST SWAP1 DUP2 MSTORE PUSH1 0x20 ADD PUSH1 0x40 MLOAD DUP1 SWAP2 SUB SWAP1 KECCAK256 PUSH1 0x0 DUP3 ADD MLOAD DUP2 PUSH1 0x0 ADD SWAP1 DUP1 MLOAD SWAP1 PUSH1 0x20 ADD SWAP1 PUSH3 0x6BB SWAP3 SWAP2 SWAP1 PUSH3 0x2D75 JUMP JUMPDEST POP PUSH1 0x20 DUP3 DUP2 ADD MLOAD PUSH1 0x1 SWAP3 DUP4 ADD DUP1 SLOAD PUSH1 0x40 SWAP6 DUP7 ADD MLOAD ISZERO ISZERO PUSH1 0x1 PUSH1 0xA0 SHL MUL PUSH1 0x1 PUSH1 0x1 PUSH1 0xA8 SHL SUB NOT SWAP1 SWAP2 AND PUSH1 0x1 PUSH1 0x1 PUSH1 0xA0 SHL SUB SWAP1 SWAP4 AND SWAP3 SWAP1 SWAP3 OR SWAP2 SWAP1 SWAP2 OR SWAP1 SSTORE PUSH1 0x4 DUP1 SLOAD SWAP3 DUP4 ADD DUP2 SSTORE PUSH1 0x0 MSTORE DUP3 MLOAD DUP1 DUP5 ADD SWAP1 SWAP4 MSTORE PUSH1 0x6 DUP1 DUP5 MSTORE PUSH6 0x4B616C756761 PUSH1 0xD0 SHL SWAP4 SWAP1 SWAP2 ADD SWAP3 DUP4 MSTORE PUSH3 0x742 SWAP3 PUSH1 0x0 DUP1 MLOAD PUSH1 0x20 PUSH3 0x9255 DUP4 CODECOPY DUP2 MLOAD SWAP2 MSTORE SWAP1 SWAP3 ADD SWAP2 SWAP1 PUSH3 0x2D75 JUMP JUMPDEST POP PUSH1 0x40 DUP1 MLOAD PUSH2 0x160 DUP2 ADD DUP3 MSTORE PUSH1 0x6 PUSH2 0x120 DUP3 ADD DUP2 DUP2 MSTORE PUSH6 0x6D6F73636F77 PUSH1 0xD0 SHL PUSH2 0x140 DUP5 ADD MSTORE DUP3 MSTORE DUP3 MLOAD DUP1 DUP5 ADD DUP5 MSTORE PUSH1 0xB DUP2 MSTORE PUSH11 0x4D6F73636F772053686F7 PUSH1 0xAC SHL PUSH1 0x20 DUP1 DUP4 ADD SWAP2 SWAP1 SWAP2 MSTORE DUP1 DUP5 ADD SWAP2 SWAP1 SWAP2 MSTORE PUSH1 0x0 DUP1 MLOAD PUSH1 0x20 PUSH3 0x9275 DUP4 CODECOPY DUP2 MLOAD SWAP2 MSTORE DUP4 DUP6 ADD MSTORE PUSH1 0x0 DUP1 MLOAD PUSH1 0x20 PUSH3 0x9235 DUP4 CODECOPY DUP2 MLOAD SWAP2 MSTORE PUSH1 0x60 DUP5 ADD MSTORE PUSH1 0x3 PUSH1 0x80 DUP5 ADD DUP2 SWAP1 MSTORE PUSH1 0xA0 DUP5 ADD MSTORE DUP4 MLOAD DUP1 DUP6 ADD SWAP1 SWAP5 MSTORE SWAP1 DUP4 MSTORE PUSH6 0x4D6F73636F77 PUSH1 0xD0 SHL DUP4 DUP3 ADD MSTORE PUSH1 0xC0 DUP3 ADD SWAP3 SWAP1 SWAP3 MSTORE PUSH1 0xE0 DUP2 ADD DUP4 SWAP1 MSTORE PUSH1 0x1 PUSH2 0x100 DUP3 ADD MSTORE PUSH20 0x26280BC071E734EBBFBBA9EEEF0A7C2FAF1BA4A5 PUSH1 0x0 SWAP1 DUP2 MSTORE DUP3 MSTORE DUP1 MLOAD DUP1 MLOAD SWAP2 SWAP3 PUSH32 0xCECB9FB5C050A4AC9F46D5FFCE21281D05DA12E0CCC5340CD6D2B4949ADCC482 SWAP3 PUSH3 0x84E SWAP3 DUP5 SWAP3 ADD SWAP1 PUSH3 0x2D75 JUMP JUMPDEST POP PUSH1 0x20 DUP3 DUP2 ADD MLOAD DUP1 MLOAD PUSH3 0x869 SWAP3 PUSH1 0x1 DUP6 ADD SWAP3 ADD SWAP1 PUSH3 0x2D75 JUMP JUMPDEST POP PUSH1 0x40 DUP3 ADD MLOAD PUSH1 0x2 DUP3 ADD SSTORE PUSH1 0x60 DUP3 ADD MLOAD PUSH1 0x3 DUP3 ADD SSTORE PUSH1 0x80 DUP3 ADD MLOAD PUSH1 0x4 DUP3 ADD DUP1 SLOAD PUSH1 0xFF NOT AND PUSH1 0x1 DUP4 PUSH1 0x5 DUP2 GT ISZERO PUSH3 0x8A4 JUMPI PUSH3 0x8A4 PUSH3 0x2EB6 JUMP JUMPDEST MUL OR SWAP1 SSTORE POP PUSH1 0xA0 DUP3 ADD MLOAD PUSH1 0x4 DUP3 ADD DUP1 SLOAD PUSH2 0xFF00 NOT AND PUSH2 0x100 DUP4 PUSH1 0x5 DUP2 GT ISZERO PUSH3 0x8D1 JUMPI PUSH3 0x8D1 PUSH3 0x2EB6 JUMP JUMPDEST MUL OR SWAP1 SSTORE POP PUSH1 0xC0 DUP3 ADD MLOAD DUP1 MLOAD PUSH3 0x8F3 SWAP2 PUSH1 0x5 DUP5 ADD SWAP2 PUSH1 0x20 SWAP1 SWAP2 ADD SWAP1 PUSH3 0x2D75 JUMP JUMPDEST POP PUSH1 0xE0 DUP3 ADD MLOAD DUP1 MLOAD PUSH3 0x911 SWAP2 PUSH1 0x6 DUP5 ADD SWAP2 PUSH1 0x20 SWAP1 SWAP2 ADD SWAP1 PUSH3 0x2DF2 JUMP JUMPDEST POP PUSH2 0x100 SWAP2 SWAP1 SWAP2 ADD MLOAD PUSH1 0x7 SWAP1 SWAP2 ADD DUP1 SLOAD PUSH1 0xFF NOT AND SWAP2 ISZERO ISZERO SWAP2 SWAP1 SWAP2 OR SWAP1 SSTORE PUSH1 0x40 DUP1 MLOAD PUSH6 0x6D6F73636F77 PUSH1 0xD0 SHL DUP1 DUP3 MSTORE PUSH1 0x1 PUSH1 0x6 DUP1 DUP5 ADD DUP3 SWAP1 MSTORE DUP5 MLOAD SWAP4 DUP5 SWAP1 SUB PUSH1 0x26 ADD DUP5 KECCAK256 DUP1 SLOAD PUSH20 0x26280BC071E734EBBFBBA9EEEF0A7C2FAF1BA4A5 PUSH1 0x1 PUSH1 0x1 PUSH1 0xA0 SHL SUB NOT SWAP1 SWAP2 AND OR SWAP1 SSTORE PUSH1 0x2 DUP1 SLOAD SWAP3 DUP4 ADD DUP2 SSTORE PUSH1 0x0 MSTORE DUP4 DUP6 ADD SWAP1 SWAP5 MSTORE DUP4 DUP4 MSTORE PUSH1 0x20 SWAP1 SWAP3 ADD SWAP1 DUP2 MSTORE PUSH3 0x9B6 SWAP3 PUSH1 0x0 DUP1 MLOAD PUSH1 0x20 PUSH3 0x9215 DUP4 CODECOPY DUP2 MLOAD SWAP2 MSTORE SWAP1 SWAP3 ADD SWAP2 PUSH3 0x2D75 JUMP JUMPDEST POP PUSH1 0x40 DUP1 MLOAD PUSH1 0xA0 DUP2 ADD DUP3 MSTORE PUSH1 0x6 PUSH1 0x60 DUP3 ADD SWAP1 DUP2 MSTORE PUSH6 0x4D6F73636F77 PUSH1 0xD0 SHL PUSH1 0x80 DUP4 ADD MSTORE DUP2 MSTORE PUSH20 0x26280BC071E734EBBFBBA9EEEF0A7C2FAF1BA4A5 PUSH1 0x20 DUP3 ADD MSTORE PUSH1 0x1 DUP2 DUP4 ADD MSTORE SWAP1 MLOAD PUSH1 0x3 SWAP1 PUSH3 0xA17 SWAP1 PUSH6 0x4D6F73636F77 PUSH1 0xD0 SHL DUP2 MSTORE PUSH1 0x6 ADD SWAP1 JUMP JUMPDEST SWAP1 DUP2 MSTORE PUSH1 0x20 ADD PUSH1 0x40 MLOAD DUP1 SWAP2 SUB SWAP1 KECCAK256 PUSH1 0x0 DUP3 ADD MLOAD DUP2 PUSH1 0x0 ADD SWAP1 DUP1 MLOAD SWAP1 PUSH1 0x20 ADD SWAP1 PUSH3 0xA43 SWAP3 SWAP2 SWAP1 PUSH3 0x2D75 JUMP JUMPDEST POP PUSH1 0x20 DUP3 DUP2 ADD MLOAD PUSH1 0x1 SWAP3 DUP4 ADD DUP1 SLOAD PUSH1 0x40 SWAP6 DUP7 ADD MLOAD ISZERO ISZERO PUSH1 0x1 PUSH1 0xA0 SHL MUL PUSH1 0x1 PUSH1 0x1 PUSH1 0xA8 SHL SUB NOT SWAP1 SWAP2 AND PUSH1 0x1 PUSH1 0x1 PUSH1 0xA0 SHL SUB SWAP1 SWAP4 AND SWAP3 SWAP1 SWAP3 OR SWAP2 SWAP1 SWAP2 OR SWAP1 SSTORE PUSH1 0x4 DUP1 SLOAD SWAP3 DUP4 ADD DUP2 SSTORE PUSH1 0x0 MSTORE DUP3 MLOAD DUP1 DUP5 ADD SWAP1 SWAP4 MSTORE PUSH1 0x6 DUP1 DUP5 MSTORE PUSH6 0x4D6F73636F77 PUSH1 0xD0 SHL SWAP4 SWAP1 SWAP2 ADD SWAP3 DUP4 MSTORE PUSH3 0xACA SWAP3 PUSH1 0x0 DUP1 MLOAD PUSH1 0x20 PUSH3 0x9255 DUP4 CODECOPY DUP2 MLOAD SWAP2 MSTORE SWAP1 SWAP3 ADD SWAP2 SWAP1 PUSH3 0x2D75 JUMP JUMPDEST POP PUSH1 0x40 DUP1 MLOAD PUSH2 0x160 DUP2 ADD DUP3 MSTORE PUSH1 0x6 PUSH2 0x120 DUP3 ADD DUP2 DUP2 MSTORE PUSH6 0x393CB0BD30B7 PUSH1 0xD1 SHL PUSH2 0x140 DUP5 ADD MSTORE DUP3 MSTORE DUP3 MLOAD DUP1 DUP5 ADD DUP5 MSTORE PUSH1 0xB DUP2 MSTORE PUSH11 0x5279617A616E2053686F7 PUSH1 0xAC SHL PUSH1 0x20 DUP1 DUP4 ADD SWAP2 SWAP1 SWAP2 MSTORE DUP1 DUP5 ADD SWAP2 SWAP1 SWAP2 MSTORE PUSH1 0x0 DUP1 MLOAD PUSH1 0x20 PUSH3 0x9275 DUP4 CODECOPY DUP2 MLOAD SWAP2 MSTORE DUP4 DUP6 ADD MSTORE PUSH1 0x0 DUP1 MLOAD PUSH1 0x20 PUSH3 0x9235 DUP4 CODECOPY DUP2 MLOAD SWAP2 MSTORE PUSH1 0x60 DUP5 ADD MSTORE PUSH1 0x3 PUSH1 0x80 DUP5 ADD DUP2 SWAP1 MSTORE PUSH1 0xA0 DUP5 ADD MSTORE DUP4 MLOAD DUP1 DUP6 ADD SWAP1 SWAP5 MSTORE SWAP1 DUP4 MSTORE PUSH6 0x293CB0BD30B7 PUSH1 0xD1 SHL DUP4 DUP3 ADD MSTORE PUSH1 0xC0 DUP3 ADD SWAP3 SWAP1 SWAP3 MSTORE PUSH1 0xE0 DUP2 ADD DUP4 SWAP1 MSTORE PUSH1 0x1 PUSH2 0x100 DUP3 ADD MSTORE PUSH20 0xF3A7531B5991AEDEEAB93B43300EA2BE0F26DED9 PUSH1 0x0 SWAP1 DUP2 MSTORE DUP3 MSTORE DUP1 MLOAD DUP1 MLOAD SWAP2 SWAP3 PUSH32 0x441503337FA90BA1159010054C8D5E9408DF96C82BE5E114141440BA51CF09B7 SWAP3 PUSH3 0xBD6 SWAP3 DUP5 SWAP3 ADD SWAP1 PUSH3 0x2D75 JUMP JUMPDEST POP PUSH1 0x20 DUP3 DUP2 ADD MLOAD DUP1 MLOAD PUSH3 0xBF1 SWAP3 PUSH1 0x1 DUP6 ADD SWAP3 ADD SWAP1 PUSH3 0x2D75 JUMP JUMPDEST POP PUSH1 0x40 DUP3 ADD MLOAD PUSH1 0x2 DUP3 ADD SSTORE PUSH1 0x60 DUP3 ADD MLOAD PUSH1 0x3 DUP3 ADD SSTORE PUSH1 0x80 DUP3 ADD MLOAD PUSH1 0x4 DUP3 ADD DUP1 SLOAD PUSH1 0xFF NOT AND PUSH1 0x1 DUP4 PUSH1 0x5 DUP2 GT ISZERO PUSH3 0xC2C JUMPI PUSH3 0xC2C PUSH3 0x2EB6 JUMP JUMPDEST MUL OR SWAP1 SSTORE POP PUSH1 0xA0 DUP3 ADD MLOAD PUSH1 0x4 DUP3 ADD DUP1 SLOAD PUSH2 0xFF00 NOT AND PUSH2 0x100 DUP4 PUSH1 0x5 DUP2 GT ISZERO PUSH3 0xC59 JUMPI PUSH3 0xC59 PUSH3 0x2EB6 JUMP JUMPDEST MUL OR SWAP1 SSTORE POP PUSH1 0xC0 DUP3 ADD MLOAD DUP1 MLOAD PUSH3 0xC7B SWAP2 PUSH1 0x5 DUP5 ADD SWAP2 PUSH1 0x20 SWAP1 SWAP2 ADD SWAP1 PUSH3 0x2D75 JUMP JUMPDEST POP PUSH1 0xE0 DUP3 ADD MLOAD DUP1 MLOAD PUSH3 0xC99 SWAP2 PUSH1 0x6 DUP5 ADD SWAP2 PUSH1 0x20 SWAP1 SWAP2 ADD SWAP1 PUSH3 0x2DF2 JUMP JUMPDEST POP PUSH2 0x100 SWAP2 SWAP1 SWAP2 ADD MLOAD PUSH1 0x7 SWAP1 SWAP2 ADD DUP1 SLOAD PUSH1 0xFF NOT AND SWAP2 ISZERO ISZERO SWAP2 SWAP1 SWAP2 OR SWAP1 SSTORE PUSH1 0x40 DUP1 MLOAD PUSH6 0x393CB0BD30B7 PUSH1 0xD1 SHL DUP1 DUP3 MSTORE PUSH1 0x1 PUSH1 0x6 DUP1 DUP5 ADD DUP3 SWAP1 MSTORE DUP5 MLOAD SWAP4 DUP5 SWAP1 SUB PUSH1 0x26 ADD DUP5 KECCAK256 DUP1 SLOAD PUSH20 0xF3A7531B5991AEDEEAB93B43300EA2BE0F26DED9 PUSH1 0x1 PUSH1 0x1 PUSH1 0xA0 SHL SUB NOT SWAP1 SWAP2 AND OR SWAP1 SSTORE PUSH1 0x2 DUP1 SLOAD SWAP3 DUP4 ADD DUP2 SSTORE PUSH1 0x0 MSTORE DUP4 DUP6 ADD SWAP1 SWAP5 MSTORE DUP4 DUP4 MSTORE PUSH1 0x20 SWAP1 SWAP3 ADD SWAP1 DUP2 MSTORE PUSH3 0xD3E SWAP3 PUSH1 0x0 DUP1 MLOAD PUSH1 0x20 PUSH3 0x9215 DUP4 CODECOPY DUP2 MLOAD SWAP2 MSTORE SWAP1 SWAP3 ADD SWAP2 PUSH3 0x2D75 JUMP JUMPDEST POP PUSH1 0x40 DUP1 MLOAD PUSH1 0xA0 DUP2 ADD DUP3 MSTORE PUSH1 0x6 PUSH1 0x60 DUP3 ADD SWAP1 DUP2 MSTORE PUSH6 0x293CB0BD30B7 PUSH1 0xD1 SHL PUSH1 0x80 DUP4 ADD MSTORE DUP2 MSTORE PUSH20 0xF3A7531B5991AEDEEAB93B43300EA2BE0F26DED9 PUSH1 0x20 DUP3 ADD MSTORE PUSH1 0x1 DUP2 DUP4 ADD MSTORE SWAP1 MLOAD PUSH1 0x3 SWAP1 PUSH3 0xD9F SWAP1 PUSH6 0x293CB0BD30B7 PUSH1 0xD1 SHL DUP2 MSTORE PUSH1 0x6 ADD SWAP1 JUMP JUMPDEST SWAP1 DUP2 MSTORE PUSH1 0x20 ADD PUSH1 0x40 MLOAD DUP1 SWAP2 SUB SWAP1 KECCAK256 PUSH1 0x0 DUP3 ADD MLOAD DUP2 PUSH1 0x0 ADD SWAP1 DUP1 MLOAD SWAP1 PUSH1 0x20 ADD SWAP1 PUSH3 0xDCB SWAP3 SWAP2 SWAP1 PUSH3 0x2D75 JUMP JUMPDEST POP PUSH1 0x20 DUP3 DUP2 ADD MLOAD PUSH1 0x1 SWAP3 DUP4 ADD DUP1 SLOAD PUSH1 0x40 SWAP6 DUP7 ADD MLOAD ISZERO ISZERO PUSH1 0x1 PUSH1 0xA0 SHL MUL PUSH1 0x1 PUSH1 0x1 PUSH1 0xA8 SHL SUB NOT SWAP1 SWAP2 AND PUSH1 0x1 PUSH1 0x1 PUSH1 0xA0 SHL SUB SWAP1 SWAP4 AND SWAP3 SWAP1 SWAP3 OR SWAP2 SWAP1 SWAP2 OR SWAP1 SSTORE PUSH1 0x4 DUP1 SLOAD SWAP3 DUP4 ADD DUP2 SSTORE PUSH1 0x0 MSTORE DUP3 MLOAD DUP1 DUP5 ADD SWAP1 SWAP4 MSTORE PUSH1 0x6 DUP1 DUP5 MSTORE PUSH6 0x293CB0BD30B7 PUSH1 0xD1 SHL SWAP4 SWAP1 SWAP2 ADD SWAP3 DUP4 MSTORE PUSH3 0xE52 SWAP3 PUSH1 0x0 DUP1 MLOAD PUSH1 0x20 PUSH3 0x9255 DUP4 CODECOPY DUP2 MLOAD SWAP2 MSTORE SWAP1 SWAP3 ADD SWAP2 SWAP1 PUSH3 0x2D75 JUMP JUMPDEST POP PUSH1 0x40 DUP1 MLOAD PUSH2 0x160 DUP2 ADD DUP3 MSTORE PUSH1 0x6 PUSH2 0x120 DUP3 ADD DUP2 DUP2 MSTORE PUSH6 0x73616D617261 PUSH1 0xD0 SHL PUSH2 0x140 DUP5 ADD MSTORE DUP3 MSTORE DUP3 MLOAD DUP1 DUP5 ADD DUP5 MSTORE PUSH1 0xB DUP2 MSTORE PUSH11 0x53616D6172612053686F7 PUSH1 0xAC SHL PUSH1 0x20 DUP1 DUP4 ADD SWAP2 SWAP1 SWAP2 MSTORE DUP1 DUP5 ADD SWAP2 SWAP1 SWAP2 MSTORE PUSH1 0x0 DUP1 MLOAD PUSH1 0x20 PUSH3 0x9275 DUP4 CODECOPY DUP2 MLOAD SWAP2 MSTORE DUP4 DUP6 ADD MSTORE PUSH1 0x0 DUP1 MLOAD PUSH1 0x20 PUSH3 0x9235 DUP4 CODECOPY DUP2 MLOAD SWAP2 MSTORE PUSH1 0x60 DUP5 ADD MSTORE PUSH1 0x3 PUSH1 0x80 DUP5 ADD DUP2 SWAP1 MSTORE PUSH1 0xA0 DUP5 ADD MSTORE DUP4 MLOAD DUP1 DUP6 ADD SWAP1 SWAP5 MSTORE SWAP1 DUP4 MSTORE PUSH6 0x53616D617261 PUSH1 0xD0 SHL DUP4 DUP3 ADD MSTORE PUSH1 0xC0 DUP3 ADD SWAP3 SWAP1 SWAP3 MSTORE PUSH1 0xE0 DUP2 ADD DUP4 SWAP1 MSTORE PUSH1 0x1 PUSH2 0x100 DUP3 ADD MSTORE PUSH20 0x45483719E57A7B10C73E842AABF9B009D1FE2E32 PUSH1 0x0 SWAP1 DUP2 MSTORE DUP3 MSTORE DUP1 MLOAD DUP1 MLOAD SWAP2 SWAP3 PUSH32 0xC38A5DED6676B1F402D40CB27A79F194C4C3F36883467742D176F1F68773DCFE SWAP3 PUSH3 0xF5E SWAP3 DUP5 SWAP3 ADD SWAP1 PUSH3 0x2D75 JUMP JUMPDEST POP PUSH1 0x20 DUP3 DUP2 ADD MLOAD DUP1 MLOAD PUSH3 0xF79 SWAP3 PUSH1 0x1 DUP6 ADD SWAP3 ADD SWAP1 PUSH3 0x2D75 JUMP JUMPDEST POP PUSH1 0x40 DUP3 ADD MLOAD PUSH1 0x2 DUP3 ADD SSTORE PUSH1 0x60 DUP3 ADD MLOAD PUSH1 0x3 DUP3 ADD SSTORE PUSH1 0x80 DUP3 ADD MLOAD PUSH1 0x4 DUP3 ADD DUP1 SLOAD PUSH1 0xFF NOT AND PUSH1 0x1 DUP4 PUSH1 0x5 DUP2 GT ISZERO PUSH3 0xFB4 JUMPI PUSH3 0xFB4 PUSH3 0x2EB6 JUMP JUMPDEST MUL OR SWAP1 SSTORE POP PUSH1 0xA0 DUP3 ADD MLOAD PUSH1 0x4 DUP3 ADD DUP1 SLOAD PUSH2 0xFF00 NOT AND PUSH2 0x100 DUP4 PUSH1 0x5 DUP2 GT ISZERO PUSH3 0xFE1 JUMPI PUSH3 0xFE1 PUSH3 0x2EB6 JUMP JUMPDEST MUL OR SWAP1 SSTORE POP PUSH1 0xC0 DUP3 ADD MLOAD DUP1 MLOAD PUSH3 0x1003 SWAP2 PUSH1 0x5 DUP5 ADD SWAP2 PUSH1 0x20 SWAP1 SWAP2 ADD SWAP1 PUSH3 0x2D75 JUMP JUMPDEST POP PUSH1 0xE0 DUP3 ADD MLOAD DUP1 MLOAD PUSH3 0x1021 SWAP2 PUSH1 0x6 DUP5 ADD SWAP2 PUSH1 0x20 SWAP1 SWAP2 ADD SWAP1 PUSH3 0x2DF2 JUMP JUMPDEST POP PUSH2 0x100 SWAP2 SWAP1 SWAP2 ADD MLOAD PUSH1 0x7 SWAP1 SWAP2 ADD DUP1 SLOAD PUSH1 0xFF NOT AND SWAP2 ISZERO ISZERO SWAP2 SWAP1 SWAP2 OR SWAP1 SSTORE PUSH1 0x40 DUP1 MLOAD PUSH6 0x73616D617261 PUSH1 0xD0 SHL DUP1 DUP3 MSTORE PUSH1 0x1 PUSH1 0x6 DUP1 DUP5 ADD DUP3 SWAP1 MSTORE DUP5 MLOAD SWAP4 DUP5 SWAP1 SUB PUSH1 0x26 ADD DUP5 KECCAK256 DUP1 SLOAD PUSH20 0x45483719E57A7B10C73E842AABF9B009D1FE2E32 PUSH1 0x1 PUSH1 0x1 PUSH1 0xA0 SHL SUB NOT SWAP1 SWAP2 AND OR SWAP1 SSTORE PUSH1 0x2 DUP1 SLOAD SWAP3 DUP4 ADD DUP2 SSTORE PUSH1 0x0 MSTORE DUP4 DUP6 ADD SWAP1 SWAP5 MSTORE DUP4 DUP4 MSTORE PUSH1 0x20 SWAP1 SWAP3 ADD SWAP1 DUP2 MSTORE PUSH3 0x10C6 SWAP3 PUSH1 0x0 DUP1 MLOAD PUSH1 0x20 PUSH3 0x9215 DUP4 CODECOPY DUP2 MLOAD SWAP2 MSTORE SWAP1 SWAP3 ADD SWAP2 PUSH3 0x2D75 JUMP JUMPDEST POP PUSH1 0x40 DUP1 MLOAD PUSH1 0xA0 DUP2 ADD DUP3 MSTORE PUSH1 0x6 PUSH1 0x60 DUP3 ADD SWAP1 DUP2 MSTORE PUSH6 0x53616D617261 PUSH1 0xD0 SHL PUSH1 0x80 DUP4 ADD MSTORE DUP2 MSTORE PUSH20 0x45483719E57A7B10C73E842AABF9B009D1FE2E32 PUSH1 0x20 DUP3 ADD MSTORE PUSH1 0x1 DUP2 DUP4 ADD MSTORE SWAP1 MLOAD PUSH1 0x3 SWAP1 PUSH3 0x1127 SWAP1 PUSH6 0x53616D617261 PUSH1 0xD0 SHL DUP2 MSTORE PUSH1 0x6 ADD SWAP1 JUMP JUMPDEST SWAP1 DUP2 MSTORE PUSH1 0x20 ADD PUSH1 0x40 MLOAD DUP1 SWAP2 SUB SWAP1 KECCAK256 PUSH1 0x0 DUP3 ADD MLOAD DUP2 PUSH1 0x0 ADD SWAP1 DUP1 MLOAD SWAP1 PUSH1 0x20 ADD SWAP1 PUSH3 0x1153 SWAP3 SWAP2 SWAP1 PUSH3 0x2D75 JUMP JUMPDEST POP PUSH1 0x20 DUP3 DUP2 ADD MLOAD PUSH1 0x1 SWAP3 DUP4 ADD DUP1 SLOAD PUSH1 0x40 SWAP6 DUP7 ADD MLOAD ISZERO ISZERO PUSH1 0x1 PUSH1 0xA0 SHL MUL PUSH1 0x1 PUSH1 0x1 PUSH1 0xA8 SHL SUB NOT SWAP1 SWAP2 AND PUSH1 0x1 PUSH1 0x1 PUSH1 0xA0 SHL SUB SWAP1 SWAP4 AND SWAP3 SWAP1 SWAP3 OR SWAP2 SWAP1 SWAP2 OR SWAP1 SSTORE PUSH1 0x4 DUP1 SLOAD SWAP3 DUP4 ADD DUP2 SSTORE PUSH1 0x0 MSTORE DUP3 MLOAD DUP1 DUP5 ADD SWAP1 SWAP4 MSTORE PUSH1 0x6 DUP1 DUP5 MSTORE PUSH6 0x53616D617261 PUSH1 0xD0 SHL SWAP4 SWAP1 SWAP2 ADD SWAP3 DUP4 MSTORE PUSH3 0x11DA SWAP3 PUSH1 0x0 DUP1 MLOAD PUSH1 0x20 PUSH3 0x9255 DUP4 CODECOPY DUP2 MLOAD SWAP2 MSTORE SWAP1 SWAP3 ADD SWAP2 SWAP1 PUSH3 0x2D75 JUMP JUMPDEST POP PUSH1 0x40 DUP1 MLOAD PUSH2 0x160 DUP2 ADD DUP3 MSTORE PUSH1 0x10 PUSH2 0x120 DUP3 ADD DUP2 DUP2 MSTORE PUSH16 0x7361696E742D70657465727362757267 PUSH1 0x80 SHL PUSH2 0x140 DUP5 ADD MSTORE DUP3 MSTORE DUP3 MLOAD DUP1 DUP5 ADD DUP5 MSTORE PUSH1 0x15 DUP2 MSTORE PUSH32 0x5361696E7420506574657273627572672053686F700000000000000000000000 PUSH1 0x20 DUP1 DUP4 ADD SWAP2 SWAP1 SWAP2 MSTORE DUP1 DUP5 ADD SWAP2 SWAP1 SWAP2 MSTORE PUSH1 0x0 DUP1 MLOAD PUSH1 0x20 PUSH3 0x9275 DUP4 CODECOPY DUP2 MLOAD SWAP2 MSTORE DUP4 DUP6 ADD MSTORE PUSH1 0x0 DUP1 MLOAD PUSH1 0x20 PUSH3 0x9235 DUP4 CODECOPY DUP2 MLOAD SWAP2 MSTORE PUSH1 0x60 DUP5 ADD MSTORE PUSH1 0x3 PUSH1 0x80 DUP5 ADD DUP2 SWAP1 MSTORE PUSH1 0xA0 DUP5 ADD MSTORE DUP4 MLOAD DUP1 DUP6 ADD SWAP1 SWAP5 MSTORE SWAP1 DUP4 MSTORE PUSH16 0x5361696E742050657465727362757267 PUSH1 0x80 SHL DUP4 DUP3 ADD MSTORE PUSH1 0xC0 DUP3 ADD SWAP3 SWAP1 SWAP3 MSTORE PUSH1 0xE0 DUP2 ADD DUP4 SWAP1 MSTORE PUSH1 0x1 PUSH2 0x100 DUP3 ADD MSTORE PUSH20 0x1567F49DD576775D225D9C987880DEE8E2E0E3DA PUSH1 0x0 SWAP1 DUP2 MSTORE DUP3 MSTORE DUP1 MLOAD DUP1 MLOAD SWAP2 SWAP3 PUSH32 0xDA04F4C7F5241A11EF0D8284C962806C03AD65A0734EDF14D21C1D6C34A0FAC9 SWAP3 PUSH3 0x130C SWAP3 DUP5 SWAP3 ADD SWAP1 PUSH3 0x2D75 JUMP JUMPDEST POP PUSH1 0x20 DUP3 DUP2 ADD MLOAD DUP1 MLOAD PUSH3 0x1327 SWAP3 PUSH1 0x1 DUP6 ADD SWAP3 ADD SWAP1 PUSH3 0x2D75 JUMP JUMPDEST POP PUSH1 0x40 DUP3 ADD MLOAD PUSH1 0x2 DUP3 ADD SSTORE PUSH1 0x60 DUP3 ADD MLOAD PUSH1 0x3 DUP3 ADD SSTORE PUSH1 0x80 DUP3 ADD MLOAD PUSH1 0x4 DUP3 ADD DUP1 SLOAD PUSH1 0xFF NOT AND PUSH1 0x1 DUP4 PUSH1 0x5 DUP2 GT ISZERO PUSH3 0x1362 JUMPI PUSH3 0x1362 PUSH3 0x2EB6 JUMP JUMPDEST MUL OR SWAP1 SSTORE POP PUSH1 0xA0 DUP3 ADD MLOAD PUSH1 0x4 DUP3 ADD DUP1 SLOAD PUSH2 0xFF00 NOT AND PUSH2 0x100 DUP4 PUSH1 0x5 DUP2 GT ISZERO PUSH3 0x138F JUMPI PUSH3 0x138F PUSH3 0x2EB6 JUMP JUMPDEST MUL OR SWAP1 SSTORE POP PUSH1 0xC0 DUP3 ADD MLOAD DUP1 MLOAD PUSH3 0x13B1 SWAP2 PUSH1 0x5 DUP5 ADD SWAP2 PUSH1 0x20 SWAP1 SWAP2 ADD SWAP1 PUSH3 0x2D75 JUMP JUMPDEST POP PUSH1 0xE0 DUP3 ADD MLOAD DUP1 MLOAD PUSH3 0x13CF SWAP2 PUSH1 0x6 DUP5 ADD SWAP2 PUSH1 0x20 SWAP1 SWAP2 ADD SWAP1 PUSH3 0x2DF2 JUMP JUMPDEST POP PUSH2 0x100 SWAP2 SWAP1 SWAP2 ADD MLOAD PUSH1 0x7 SWAP1 SWAP2 ADD DUP1 SLOAD PUSH1 0xFF NOT AND SWAP2 ISZERO ISZERO SWAP2 SWAP1 SWAP2 OR SWAP1 SSTORE PUSH1 0x40 DUP1 MLOAD PUSH16 0x7361696E742D70657465727370757267 PUSH1 0x80 SHL DUP2 MSTORE PUSH1 0x1 PUSH1 0x10 DUP1 DUP4 ADD DUP3 SWAP1 MSTORE DUP4 MLOAD SWAP3 DUP4 SWAP1 SUB PUSH1 0x30 ADD DUP4 KECCAK256 DUP1 SLOAD PUSH20 0x1567F49DD576775D225D9C987880DEE8E2E0E3DA PUSH1 0x1 PUSH1 0x1 PUSH1 0xA0 SHL SUB NOT SWAP1 SWAP2 AND OR SWAP1 SSTORE PUSH1 0x2 DUP1 SLOAD SWAP3 DUP4 ADD DUP2 SSTORE PUSH1 0x0 MSTORE DUP3 DUP5 ADD SWAP1 SWAP4 MSTORE DUP3 DUP3 MSTORE PUSH16 0x7361696E742D70657465727362757267 PUSH1 0x80 SHL PUSH1 0x20 SWAP1 SWAP3 ADD SWAP2 DUP3 MSTORE PUSH3 0x1492 SWAP3 PUSH1 0x0 DUP1 MLOAD PUSH1 0x20 PUSH3 0x9215 DUP4 CODECOPY DUP2 MLOAD SWAP2 MSTORE SWAP1 SWAP2 ADD SWAP2 SWAP1 PUSH3 0x2D75 JUMP JUMPDEST POP PUSH1 0x40 DUP1 MLOAD PUSH1 0xA0 DUP2 ADD DUP3 MSTORE PUSH1 0x10 PUSH1 0x60 DUP3 ADD SWAP1 DUP2 MSTORE PUSH16 0x5361696E742050657465727362757267 PUSH1 0x80 SHL PUSH1 0x80 DUP4 ADD MSTORE DUP2 MSTORE PUSH20 0x1567F49DD576775D225D9C987880DEE8E2E0E3DA PUSH1 0x20 DUP3 ADD MSTORE PUSH1 0x1 DUP2 DUP4 ADD MSTORE SWAP1 MLOAD PUSH1 0x3 SWAP1 PUSH3 0x1507 SWAP1 PUSH16 0x5361696E742050657465727362757267 PUSH1 0x80 SHL DUP2 MSTORE PUSH1 0x10 ADD SWAP1 JUMP JUMPDEST SWAP1 DUP2 MSTORE PUSH1 0x20 ADD PUSH1 0x40 MLOAD DUP1 SWAP2 SUB SWAP1 KECCAK256 PUSH1 0x0 DUP3 ADD MLOAD DUP2 PUSH1 0x0 ADD SWAP1 DUP1 MLOAD SWAP1 PUSH1 0x20 ADD SWAP1 PUSH3 0x1533 SWAP3 SWAP2 SWAP1 PUSH3 0x2D75 JUMP JUMPDEST POP PUSH1 0x20 DUP3 DUP2 ADD MLOAD PUSH1 0x1 SWAP3 DUP4 ADD DUP1 SLOAD PUSH1 0x40 SWAP6 DUP7 ADD MLOAD ISZERO ISZERO PUSH1 0x1 PUSH1 0xA0 SHL MUL PUSH1 0x1 PUSH1 0x1 PUSH1 0xA8 SHL SUB NOT SWAP1 SWAP2 AND PUSH1 0x1 PUSH1 0x1 PUSH1 0xA0 SHL SUB SWAP1 SWAP4 AND SWAP3 SWAP1 SWAP3 OR SWAP2 SWAP1 SWAP2 OR SWAP1 SSTORE PUSH1 0x4 DUP1 SLOAD SWAP3 DUP4 ADD DUP2 SSTORE PUSH1 0x0 MSTORE DUP3 MLOAD DUP1 DUP5 ADD SWAP1 SWAP4 MSTORE PUSH1 0x10 DUP1 DUP5 MSTORE PUSH16 0x5361696E742050657465727362757267 PUSH1 0x80 SHL SWAP4 SWAP1 SWAP2 ADD SWAP3 DUP4 MSTORE PUSH3 0x15C4 SWAP3 PUSH1 0x0 DUP1 MLOAD PUSH1 0x20 PUSH3 0x9255 DUP4 CODECOPY DUP2 MLOAD SWAP2 MSTORE SWAP1 SWAP3 ADD SWAP2 SWAP1 PUSH3 0x2D75 JUMP JUMPDEST POP PUSH1 0x40 DUP1 MLOAD PUSH2 0x160 DUP2 ADD DUP3 MSTORE PUSH1 0x8 PUSH2 0x120 DUP3 ADD DUP2 DUP2 MSTORE PUSH8 0x746167616E726F67 PUSH1 0xC0 SHL PUSH2 0x140 DUP5 ADD MSTORE DUP3 MSTORE DUP3 MLOAD DUP1 DUP5 ADD DUP5 MSTORE PUSH1 0xD DUP2 MSTORE PUSH13 0x546167616E726F672053686F7 PUSH1 0x9C SHL PUSH1 0x20 DUP1 DUP4 ADD SWAP2 SWAP1 SWAP2 MSTORE DUP1 DUP5 ADD SWAP2 SWAP1 SWAP2 MSTORE PUSH1 0x0 DUP1 MLOAD PUSH1 0x20 PUSH3 0x9275 DUP4 CODECOPY DUP2 MLOAD SWAP2 MSTORE DUP4 DUP6 ADD MSTORE PUSH1 0x0 DUP1 MLOAD PUSH1 0x20 PUSH3 0x9235 DUP4 CODECOPY DUP2 MLOAD SWAP2 MSTORE PUSH1 0x60 DUP5 ADD MSTORE PUSH1 0x3 PUSH1 0x80 DUP5 ADD DUP2 SWAP1 MSTORE PUSH1 0xA0 DUP5 ADD MSTORE DUP4 MLOAD DUP1 DUP6 ADD SWAP1 SWAP5 MSTORE SWAP1 DUP4 MSTORE PUSH8 0x546167616E726F67 PUSH1 0xC0 SHL DUP4 DUP3 ADD MSTORE PUSH1 0xC0 DUP3 ADD SWAP3 SWAP1 SWAP3 MSTORE PUSH1 0xE0 DUP2 ADD DUP4 SWAP1 MSTORE PUSH1 0x1 PUSH2 0x100 DUP3 ADD MSTORE PUSH20 0xA35CD8F38607CE823EE307FFAF57F859762AECDC PUSH1 0x0 SWAP1 DUP2 MSTORE DUP3 MSTORE DUP1 MLOAD DUP1 MLOAD SWAP2 SWAP3 PUSH32 0xF7EB6DDC5AB8FE18A890B681A380B3C5DBF57AF7DD31D06808406E476691B826 SWAP3 PUSH3 0x16D6 SWAP3 DUP5 SWAP3 ADD SWAP1 PUSH3 0x2D75 JUMP JUMPDEST POP PUSH1 0x20 DUP3 DUP2 ADD MLOAD DUP1 MLOAD PUSH3 0x16F1 SWAP3 PUSH1 0x1 DUP6 ADD SWAP3 ADD SWAP1 PUSH3 0x2D75 JUMP JUMPDEST POP PUSH1 0x40 DUP3 ADD MLOAD PUSH1 0x2 DUP3 ADD SSTORE PUSH1 0x60 DUP3 ADD MLOAD PUSH1 0x3 DUP3 ADD SSTORE PUSH1 0x80 DUP3 ADD MLOAD PUSH1 0x4 DUP3 ADD DUP1 SLOAD PUSH1 0xFF NOT AND PUSH1 0x1 DUP4 PUSH1 0x5 DUP2 GT ISZERO PUSH3 0x172C JUMPI PUSH3 0x172C PUSH3 0x2EB6 JUMP JUMPDEST MUL OR SWAP1 SSTORE POP PUSH1 0xA0 DUP3 ADD MLOAD PUSH1 0x4 DUP3 ADD DUP1 SLOAD PUSH2 0xFF00 NOT AND PUSH2 0x100 DUP4 PUSH1 0x5 DUP2 GT ISZERO PUSH3 0x1759 JUMPI PUSH3 0x1759 PUSH3 0x2EB6 JUMP JUMPDEST MUL OR SWAP1 SSTORE POP PUSH1 0xC0 DUP3 ADD MLOAD DUP1 MLOAD PUSH3 0x177B SWAP2 PUSH1 0x5 DUP5 ADD SWAP2 PUSH1 0x20 SWAP1 SWAP2 ADD SWAP1 PUSH3 0x2D75 JUMP JUMPDEST POP PUSH1 0xE0 DUP3 ADD MLOAD DUP1 MLOAD PUSH3 0x1799 SWAP2 PUSH1 0x6 DUP5 ADD SWAP2 PUSH1 0x20 SWAP1 SWAP2 ADD SWAP1 PUSH3 0x2DF2 JUMP JUMPDEST POP PUSH2 0x100 SWAP2 SWAP1 SWAP2 ADD MLOAD PUSH1 0x7 SWAP1 SWAP2 ADD DUP1 SLOAD PUSH1 0xFF NOT AND SWAP2 ISZERO ISZERO SWAP2 SWAP1 SWAP2 OR SWAP1 SSTORE PUSH1 0x40 DUP1 MLOAD PUSH8 0x746167616E726F67 PUSH1 0xC0 SHL DUP1 DUP3 MSTORE PUSH1 0x1 PUSH1 0x8 DUP1 DUP5 ADD DUP3 SWAP1 MSTORE DUP5 MLOAD SWAP4 DUP5 SWAP1 SUB PUSH1 0x28 ADD DUP5 KECCAK256 DUP1 SLOAD PUSH20 0xA35CD8F38607CE823EE307FFAF57F859762AECDC PUSH1 0x1 PUSH1 0x1 PUSH1 0xA0 SHL SUB NOT SWAP1 SWAP2 AND OR SWAP1 SSTORE PUSH1 0x2 DUP1 SLOAD SWAP3 DUP4 ADD DUP2 SSTORE PUSH1 0x0 MSTORE DUP4 DUP6 ADD SWAP1 SWAP5 MSTORE DUP4 DUP4 MSTORE PUSH1 0x20 SWAP1 SWAP3 ADD SWAP1 DUP2 MSTORE PUSH3 0x1840 SWAP3 PUSH1 0x0 DUP1 MLOAD PUSH1 0x20 PUSH3 0x9215 DUP4 CODECOPY DUP2 MLOAD SWAP2 MSTORE SWAP1 SWAP3 ADD SWAP2 PUSH3 0x2D75 JUMP JUMPDEST POP PUSH1 0x40 DUP1 MLOAD PUSH1 0xA0 DUP2 ADD DUP3 MSTORE PUSH1 0x8 PUSH1 0x60 DUP3 ADD SWAP1 DUP2 MSTORE PUSH8 0x546167616E726F67 PUSH1 0xC0 SHL PUSH1 0x80 DUP4 ADD MSTORE DUP2 MSTORE PUSH20 0xA35CD8F38607CE823EE307FFAF57F859762AECDC PUSH1 0x20 DUP3 ADD MSTORE PUSH1 0x1 DUP2 DUP4 ADD MSTORE SWAP1 MLOAD PUSH1 0x3 SWAP1 PUSH3 0x18A5 SWAP1 PUSH8 0x546167616E726F67 PUSH1 0xC0 SHL DUP2 MSTORE PUSH1 0x8 ADD SWAP1 JUMP JUMPDEST SWAP1 DUP2 MSTORE PUSH1 0x20 ADD PUSH1 0x40 MLOAD DUP1 SWAP2 SUB SWAP1 KECCAK256 PUSH1 0x0 DUP3 ADD MLOAD DUP2 PUSH1 0x0 ADD SWAP1 DUP1 MLOAD SWAP1 PUSH1 0x20 ADD SWAP1 PUSH3 0x18D1 SWAP3 SWAP2 SWAP1 PUSH3 0x2D75 JUMP JUMPDEST POP PUSH1 0x20 DUP3 DUP2 ADD MLOAD PUSH1 0x1 SWAP3 DUP4 ADD DUP1 SLOAD PUSH1 0x40 SWAP6 DUP7 ADD MLOAD ISZERO ISZERO PUSH1 0x1 PUSH1 0xA0 SHL MUL PUSH1 0x1 PUSH1 0x1 PUSH1 0xA8 SHL SUB NOT SWAP1 SWAP2 AND PUSH1 0x1 PUSH1 0x1 PUSH1 0xA0 SHL SUB SWAP1 SWAP4 AND SWAP3 SWAP1 SWAP3 OR SWAP2 SWAP1 SWAP2 OR SWAP1 SSTORE PUSH1 0x4 DUP1 SLOAD SWAP3 DUP4 ADD DUP2 SSTORE PUSH1 0x0 MSTORE DUP3 MLOAD DUP1 DUP5 ADD SWAP1 SWAP4 MSTORE PUSH1 0x8 DUP1 DUP5 MSTORE PUSH8 0x546167616E726F67 PUSH1 0xC0 SHL SWAP4 SWAP1 SWAP2 ADD SWAP3 DUP4 MSTORE PUSH3 0x195A SWAP3 PUSH1 0x0 DUP1 MLOAD PUSH1 0x20 PUSH3 0x9255 DUP4 CODECOPY DUP2 MLOAD SWAP2 MSTORE SWAP1 SWAP3 ADD SWAP2 SWAP1 PUSH3 0x2D75 JUMP JUMPDEST POP PUSH1 0x40 DUP1 MLOAD PUSH2 0x160 DUP2 ADD DUP3 MSTORE PUSH1 0x5 PUSH2 0x120 DUP3 ADD DUP2 DUP2 MSTORE PUSH5 0x746F6D736B PUSH1 0xD8 SHL PUSH2 0x140 DUP5 ADD MSTORE DUP3 MSTORE DUP3 MLOAD DUP1 DUP5 ADD DUP5 MSTORE PUSH1 0xA DUP2 MSTORE PUSH10 0x546F6D736B2053686F7 PUSH1 0xB4 SHL PUSH1 0x20 DUP1 DUP4 ADD SWAP2 SWAP1 SWAP2 MSTORE DUP1 DUP5 ADD SWAP2 SWAP1 SWAP2 MSTORE PUSH1 0x0 DUP1 MLOAD PUSH1 0x20 PUSH3 0x9275 DUP4 CODECOPY DUP2 MLOAD SWAP2 MSTORE DUP4 DUP6 ADD MSTORE PUSH1 0x0 DUP1 MLOAD PUSH1 0x20 PUSH3 0x9235 DUP4 CODECOPY DUP2 MLOAD SWAP2 MSTORE PUSH1 0x60 DUP5 ADD MSTORE PUSH1 0x3 PUSH1 0x80 DUP5 ADD DUP2 SWAP1 MSTORE PUSH1 0xA0 DUP5 ADD MSTORE DUP4 MLOAD DUP1 DUP6 ADD SWAP1 SWAP5 MSTORE SWAP1 DUP4 MSTORE PUSH5 0x546F6D736B PUSH1 0xD8 SHL DUP4 DUP3 ADD MSTORE PUSH1 0xC0 DUP3 ADD SWAP3 SWAP1 SWAP3 MSTORE PUSH1 0xE0 DUP2 ADD DUP4 SWAP1 MSTORE PUSH1 0x1 PUSH2 0x100 DUP3 ADD MSTORE PUSH20 0x6A052A062A54344363B67BAD3B3FAFD6220AC333 PUSH1 0x0 SWAP1 DUP2 MSTORE DUP3 MSTORE DUP1 MLOAD DUP1 MLOAD SWAP2 SWAP3 PUSH32 0xB6CECCEABDFE7A2997CF7281FCC97F1A71A54EEE22FED85B800B4CF99559B7DC SWAP3 PUSH3 0x1A63 SWAP3 DUP5 SWAP3 ADD SWAP1 PUSH3 0x2D75 JUMP JUMPDEST POP PUSH1 0x20 DUP3 DUP2 ADD MLOAD DUP1 MLOAD PUSH3 0x1A7E SWAP3 PUSH1 0x1 DUP6 ADD SWAP3 ADD SWAP1 PUSH3 0x2D75 JUMP JUMPDEST POP PUSH1 0x40 DUP3 ADD MLOAD PUSH1 0x2 DUP3 ADD SSTORE PUSH1 0x60 DUP3 ADD MLOAD PUSH1 0x3 DUP3 ADD SSTORE PUSH1 0x80 DUP3 ADD MLOAD PUSH1 0x4 DUP3 ADD DUP1 SLOAD PUSH1 0xFF NOT AND PUSH1 0x1 DUP4 PUSH1 0x5 DUP2 GT ISZERO PUSH3 0x1AB9 JUMPI PUSH3 0x1AB9 PUSH3 0x2EB6 JUMP JUMPDEST MUL OR SWAP1 SSTORE POP PUSH1 0xA0 DUP3 ADD MLOAD PUSH1 0x4 DUP3 ADD DUP1 SLOAD PUSH2 0xFF00 NOT AND PUSH2 0x100 DUP4 PUSH1 0x5 DUP2 GT ISZERO PUSH3 0x1AE6 JUMPI PUSH3 0x1AE6 PUSH3 0x2EB6 JUMP JUMPDEST MUL OR SWAP1 SSTORE POP PUSH1 0xC0 DUP3 ADD MLOAD DUP1 MLOAD PUSH3 0x1B08 SWAP2 PUSH1 0x5 DUP5 ADD SWAP2 PUSH1 0x20 SWAP1 SWAP2 ADD SWAP1 PUSH3 0x2D75 JUMP JUMPDEST POP PUSH1 0xE0 DUP3 ADD MLOAD DUP1 MLOAD PUSH3 0x1B26 SWAP2 PUSH1 0x6 DUP5 ADD SWAP2 PUSH1 0x20 SWAP1 SWAP2 ADD SWAP1 PUSH3 0x2DF2 JUMP JUMPDEST POP PUSH2 0x100 SWAP2 SWAP1 SWAP2 ADD MLOAD PUSH1 0x7 SWAP1 SWAP2 ADD DUP1 SLOAD PUSH1 0xFF NOT AND SWAP2 ISZERO ISZERO SWAP2 SWAP1 SWAP2 OR SWAP1 SSTORE PUSH1 0x40 DUP1 MLOAD PUSH5 0x746F6D736B PUSH1 0xD8 SHL DUP1 DUP3 MSTORE PUSH1 0x1 PUSH1 0x5 DUP1 DUP5 ADD DUP3 SWAP1 MSTORE DUP5 MLOAD SWAP4 DUP5 SWAP1 SUB PUSH1 0x25 ADD DUP5 KECCAK256 DUP1 SLOAD PUSH20 0x6A052A062A54344363B67BAD3B3FAFD6220AC333 PUSH1 0x1 PUSH1 0x1 PUSH1 0xA0 SHL SUB NOT SWAP1 SWAP2 AND OR SWAP1 SSTORE PUSH1 0x2 DUP1 SLOAD SWAP3 DUP4 ADD DUP2 SSTORE PUSH1 0x0 MSTORE DUP4 DUP6 ADD SWAP1 SWAP5 MSTORE DUP4 DUP4 MSTORE PUSH1 0x20 SWAP1 SWAP3 ADD SWAP1 DUP2 MSTORE PUSH3 0x1BCA SWAP3 PUSH1 0x0 DUP1 MLOAD PUSH1 0x20 PUSH3 0x9215 DUP4 CODECOPY DUP2 MLOAD SWAP2 MSTORE SWAP1 SWAP3 ADD SWAP2 PUSH3 0x2D75 JUMP JUMPDEST POP PUSH1 0x40 DUP1 MLOAD PUSH1 0xA0 DUP2 ADD DUP3 MSTORE PUSH1 0x5 PUSH1 0x60 DUP3 ADD SWAP1 DUP2 MSTORE PUSH5 0x546F6D736B PUSH1 0xD8 SHL PUSH1 0x80 DUP4 ADD MSTORE DUP2 MSTORE PUSH20 0x6A052A062A54344363B67BAD3B3FAFD6220AC333 PUSH1 0x20 DUP3 ADD MSTORE PUSH1 0x1 DUP2 DUP4 ADD MSTORE SWAP1 MLOAD PUSH1 0x3 SWAP1 PUSH3 0x1C29 SWAP1 PUSH5 0x546F6D736B PUSH1 0xD8 SHL DUP2 MSTORE PUSH1 0x5 ADD SWAP1 JUMP JUMPDEST SWAP1 DUP2 MSTORE PUSH1 0x20 ADD PUSH1 0x40 MLOAD DUP1 SWAP2 SUB SWAP1 KECCAK256 PUSH1 0x0 DUP3 ADD MLOAD DUP2 PUSH1 0x0 ADD SWAP1 DUP1 MLOAD SWAP1 PUSH1 0x20 ADD SWAP1 PUSH3 0x1C55 SWAP3 SWAP2 SWAP1 PUSH3 0x2D75 JUMP JUMPDEST POP PUSH1 0x20 DUP3 DUP2 ADD MLOAD PUSH1 0x1 SWAP3 DUP4 ADD DUP1 SLOAD PUSH1 0x40 SWAP6 DUP7 ADD MLOAD ISZERO ISZERO PUSH1 0x1 PUSH1 0xA0 SHL MUL PUSH1 0x1 PUSH1 0x1 PUSH1 0xA8 SHL SUB NOT SWAP1 SWAP2 AND PUSH1 0x1 PUSH1 0x1 PUSH1 0xA0 SHL SUB SWAP1 SWAP4 AND SWAP3 SWAP1 SWAP3 OR SWAP2 SWAP1 SWAP2 OR SWAP1 SSTORE PUSH1 0x4 DUP1 SLOAD SWAP3 DUP4 ADD DUP2 SSTORE PUSH1 0x0 MSTORE DUP3 MLOAD DUP1 DUP5 ADD SWAP1 SWAP4 MSTORE PUSH1 0x5 DUP1 DUP5 MSTORE PUSH5 0x546F6D736B PUSH1 0xD8 SHL SWAP4 SWAP1 SWAP2 ADD SWAP3 DUP4 MSTORE PUSH3 0x1CDB SWAP3 PUSH1 0x0 DUP1 MLOAD PUSH1 0x20 PUSH3 0x9255 DUP4 CODECOPY DUP2 MLOAD SWAP2 MSTORE SWAP1 SWAP3 ADD SWAP2 SWAP1 PUSH3 0x2D75 JUMP JUMPDEST POP PUSH1 0x40 DUP1 MLOAD PUSH2 0x160 DUP2 ADD DUP3 MSTORE PUSH1 0x9 PUSH2 0x120 DUP3 ADD DUP2 DUP2 MSTORE PUSH9 0x68616261726F76736B PUSH1 0xB8 SHL PUSH2 0x140 DUP5 ADD MSTORE DUP3 MSTORE DUP3 MLOAD DUP1 DUP5 ADD DUP5 MSTORE PUSH1 0xE DUP2 MSTORE PUSH14 0x48616261726F76736B2053686F7 PUSH1 0x94 SHL PUSH1 0x20 DUP1 DUP4 ADD SWAP2 SWAP1 SWAP2 MSTORE DUP1 DUP5 ADD SWAP2 SWAP1 SWAP2 MSTORE PUSH1 0x0 DUP1 MLOAD PUSH1 0x20 PUSH3 0x9275 DUP4 CODECOPY DUP2 MLOAD SWAP2 MSTORE DUP4 DUP6 ADD MSTORE PUSH1 0x0 DUP1 MLOAD PUSH1 0x20 PUSH3 0x9235 DUP4 CODECOPY DUP2 MLOAD SWAP2 MSTORE PUSH1 0x60 DUP5 ADD MSTORE PUSH1 0x3 PUSH1 0x80 DUP5 ADD DUP2 SWAP1 MSTORE PUSH1 0xA0 DUP5 ADD MSTORE DUP4 MLOAD DUP1 DUP6 ADD SWAP1 SWAP5 MSTORE SWAP1 DUP4 MSTORE PUSH9 0x48616261726F76736B PUSH1 0xB8 SHL DUP4 DUP3 ADD MSTORE PUSH1 0xC0 DUP3 ADD SWAP3 SWAP1 SWAP3 MSTORE PUSH1 0xE0 DUP2 ADD DUP4 SWAP1 MSTORE PUSH1 0x1 PUSH2 0x100 DUP3 ADD MSTORE PUSH20 0x602E85A431E7CFB8489AFE0FF40EDA6C2B968AFD PUSH1 0x0 SWAP1 DUP2 MSTORE DUP3 MSTORE DUP1 MLOAD DUP1 MLOAD SWAP2 SWAP3 PUSH32 0x3ABA2E523E02A954D1FFEAEFB20F634CE80B37D0DC70E80BE2B65507DA68A9C8 SWAP3 PUSH3 0x1DF0 SWAP3 DUP5 SWAP3 ADD SWAP1 PUSH3 0x2D75 JUMP JUMPDEST POP PUSH1 0x20 DUP3 DUP2 ADD MLOAD DUP1 MLOAD PUSH3 0x1E0B SWAP3 PUSH1 0x1 DUP6 ADD SWAP3 ADD SWAP1 PUSH3 0x2D75 JUMP JUMPDEST POP PUSH1 0x40 DUP3 ADD MLOAD PUSH1 0x2 DUP3 ADD SSTORE PUSH1 0x60 DUP3 ADD MLOAD PUSH1 0x3 DUP3 ADD SSTORE PUSH1 0x80 DUP3 ADD MLOAD PUSH1 0x4 DUP3 ADD DUP1 SLOAD PUSH1 0xFF NOT AND PUSH1 0x1 DUP4 PUSH1 0x5 DUP2 GT ISZERO PUSH3 0x1E46 JUMPI PUSH3 0x1E46 PUSH3 0x2EB6 JUMP JUMPDEST MUL OR SWAP1 SSTORE POP PUSH1 0xA0 DUP3 ADD MLOAD PUSH1 0x4 DUP3 ADD DUP1 SLOAD PUSH2 0xFF00 NOT AND PUSH2 0x100 DUP4 PUSH1 0x5 DUP2 GT ISZERO PUSH3 0x1E73 JUMPI PUSH3 0x1E73 PUSH3 0x2EB6 JUMP JUMPDEST MUL OR SWAP1 SSTORE POP PUSH1 0xC0 DUP3 ADD MLOAD DUP1 MLOAD PUSH3 0x1E95 SWAP2 PUSH1 0x5 DUP5 ADD SWAP2 PUSH1 0x20 SWAP1 SWAP2 ADD SWAP1 PUSH3 0x2D75 JUMP JUMPDEST POP PUSH1 0xE0 DUP3 ADD MLOAD DUP1 MLOAD PUSH3 0x1EB3 SWAP2 PUSH1 0x6 DUP5 ADD SWAP2 PUSH1 0x20 SWAP1 SWAP2 ADD SWAP1 PUSH3 0x2DF2 JUMP JUMPDEST POP PUSH2 0x100 SWAP2 SWAP1 SWAP2 ADD MLOAD PUSH1 0x7 SWAP1 SWAP2 ADD DUP1 SLOAD PUSH1 0xFF NOT AND SWAP2 ISZERO ISZERO SWAP2 SWAP1 SWAP2 OR SWAP1 SSTORE PUSH1 0x40 DUP1 MLOAD PUSH9 0x68616261726F76736B PUSH1 0xB8 SHL DUP2 MSTORE PUSH1 0x1 PUSH1 0x9 DUP3 ADD DUP2 SWAP1 MSTORE DUP3 MLOAD SWAP2 DUP3 SWAP1 SUB PUSH1 0x29 ADD DUP3 KECCAK256 DUP1 SLOAD PUSH20 0x602E85A431E7CFB8489AFE0FF40EDA6C2B968AFD PUSH1 0x1 PUSH1 0x1 PUSH1 0xA0 SHL SUB NOT SWAP1 SWAP2 AND OR SWAP1 SSTORE PUSH1 0x2 DUP1 SLOAD SWAP2 DUP3 ADD DUP2 SSTORE PUSH1 0x0 MSTORE DUP2 DUP4 ADD SWAP1 SWAP3 MSTORE PUSH1 0x8 DUP1 DUP3 MSTORE PUSH8 0x686162726F76736B PUSH1 0xC0 SHL PUSH1 0x20 SWAP1 SWAP3 ADD SWAP2 DUP3 MSTORE PUSH3 0x1F66 SWAP3 PUSH1 0x0 DUP1 MLOAD PUSH1 0x20 PUSH3 0x9215 DUP4 CODECOPY DUP2 MLOAD SWAP2 MSTORE ADD SWAP2 SWAP1 PUSH3 0x2D75 JUMP JUMPDEST POP PUSH1 0x40 DUP1 MLOAD PUSH1 0xA0 DUP2 ADD DUP3 MSTORE PUSH1 0x9 PUSH1 0x60 DUP3 ADD SWAP1 DUP2 MSTORE PUSH9 0x48616261726F76736B PUSH1 0xB8 SHL PUSH1 0x80 DUP4 ADD MSTORE DUP2 MSTORE PUSH20 0x602E85A431E7CFB8489AFE0FF40EDA6C2B968AFD PUSH1 0x20 DUP3 ADD MSTORE PUSH1 0x1 DUP2 DUP4 ADD MSTORE SWAP1 MLOAD PUSH1 0x3 SWAP1 PUSH3 0x1FCD SWAP1 PUSH9 0x48616261726F76736B PUSH1 0xB8 SHL DUP2 MSTORE PUSH1 0x9 ADD SWAP1 JUMP JUMPDEST SWAP1 DUP2 MSTORE PUSH1 0x20 ADD PUSH1 0x40 MLOAD DUP1 SWAP2 SUB SWAP1 KECCAK256 PUSH1 0x0 DUP3 ADD MLOAD DUP2 PUSH1 0x0 ADD SWAP1 DUP1 MLOAD SWAP1 PUSH1 0x20 ADD SWAP1 PUSH3 0x1FF9 SWAP3 SWAP2 SWAP1 PUSH3 0x2D75 JUMP JUMPDEST POP PUSH1 0x20 DUP3 DUP2 ADD MLOAD PUSH1 0x1 SWAP3 DUP4 ADD DUP1 SLOAD PUSH1 0x40 SWAP6 DUP7 ADD MLOAD ISZERO ISZERO PUSH1 0x1 PUSH1 0xA0 SHL MUL PUSH1 0x1 PUSH1 0x1 PUSH1 0xA8 SHL SUB NOT SWAP1 SWAP2 AND PUSH1 0x1 PUSH1 0x1 PUSH1 0xA0 SHL SUB SWAP1 SWAP4 AND SWAP3 SWAP1 SWAP3 OR SWAP2 SWAP1 SWAP2 OR SWAP1 SSTORE PUSH1 0x4 DUP1 SLOAD SWAP3 DUP4 ADD DUP2 SSTORE PUSH1 0x0 MSTORE DUP3 MLOAD DUP1 DUP5 ADD SWAP1 SWAP4 MSTORE PUSH1 0x9 DUP1 DUP5 MSTORE PUSH9 0x48616261726F76736B PUSH1 0xB8 SHL SWAP4 SWAP1 SWAP2 ADD SWAP3 DUP4 MSTORE PUSH3 0x2083 SWAP3 PUSH1 0x0 DUP1 MLOAD PUSH1 0x20 PUSH3 0x9255 DUP4 CODECOPY DUP2 MLOAD SWAP2 MSTORE SWAP1 SWAP3 ADD SWAP2 SWAP1 PUSH3 0x2D75 JUMP JUMPDEST POP PUSH1 0x40 DUP1 MLOAD PUSH2 0x160 DUP2 ADD DUP3 MSTORE PUSH1 0x4 PUSH2 0x120 DUP3 ADD DUP2 DUP2 MSTORE PUSH4 0x62616E6B PUSH1 0xE0 SHL PUSH2 0x140 DUP5 ADD MSTORE DUP3 MSTORE DUP3 MLOAD DUP1 DUP5 ADD DUP5 MSTORE DUP2 DUP2 MSTORE PUSH4 0x42616E6B PUSH1 0xE0 SHL PUSH1 0x20 DUP1 DUP4 ADD SWAP2 SWAP1 SWAP2 MSTORE DUP1 DUP5 ADD SWAP2 SWAP1 SWAP2 MSTORE PUSH1 0x0 DUP1 MLOAD PUSH1 0x20 PUSH3 0x9275 DUP4 CODECOPY DUP2 MLOAD SWAP2 MSTORE DUP4 DUP6 ADD MSTORE PUSH1 0x0 DUP1 MLOAD PUSH1 0x20 PUSH3 0x9235 DUP4 CODECOPY DUP2 MLOAD SWAP2 MSTORE PUSH1 0x60 DUP5 ADD MSTORE PUSH1 0x80 DUP4 ADD DUP3 SWAP1 MSTORE PUSH1 0xA0 DUP4 ADD SWAP2 SWAP1 SWAP2 MSTORE DUP3 MLOAD DUP1 DUP3 ADD SWAP1 SWAP4 MSTORE PUSH1 0x0 DUP1 DUP5 MSTORE PUSH1 0xC0 DUP4 ADD SWAP4 SWAP1 SWAP4 MSTORE PUSH1 0xE0 DUP3 ADD DUP5 SWAP1 MSTORE PUSH1 0x1 PUSH2 0x100 DUP4 ADD MSTORE PUSH20 0x2641D38ED882F3E2EA5F45F922CDED9D72AD09F7 DUP4 MSTORE SWAP2 DUP3 MSTORE DUP1 MLOAD DUP1 MLOAD SWAP2 SWAP3 PUSH32 0x5A123D49AC45F0B96D96C598B1343ADA73381756FD2C8622FB842323ED5C30BE SWAP3 PUSH3 0x2178 SWAP3 DUP5 SWAP3 ADD SWAP1 PUSH3 0x2D75 JUMP JUMPDEST POP PUSH1 0x20 DUP3 DUP2 ADD MLOAD DUP1 MLOAD PUSH3 0x2193 SWAP3 PUSH1 0x1 DUP6 ADD SWAP3 ADD SWAP1 PUSH3 0x2D75 JUMP JUMPDEST POP PUSH1 0x40 DUP3 ADD MLOAD PUSH1 0x2 DUP3 ADD SSTORE PUSH1 0x60 DUP3 ADD MLOAD PUSH1 0x3 DUP3 ADD SSTORE PUSH1 0x80 DUP3 ADD MLOAD PUSH1 0x4 DUP3 ADD DUP1 SLOAD PUSH1 0xFF NOT AND PUSH1 0x1 DUP4 PUSH1 0x5 DUP2 GT ISZERO PUSH3 0x21CE JUMPI PUSH3 0x21CE PUSH3 0x2EB6 JUMP JUMPDEST MUL OR SWAP1 SSTORE POP PUSH1 0xA0 DUP3 ADD MLOAD PUSH1 0x4 DUP3 ADD DUP1 SLOAD PUSH2 0xFF00 NOT AND PUSH2 0x100 DUP4 PUSH1 0x5 DUP2 GT ISZERO PUSH3 0x21FB JUMPI PUSH3 0x21FB PUSH3 0x2EB6 JUMP JUMPDEST MUL OR SWAP1 SSTORE POP PUSH1 0xC0 DUP3 ADD MLOAD DUP1 MLOAD PUSH3 0x221D SWAP2 PUSH1 0x5 DUP5 ADD SWAP2 PUSH1 0x20 SWAP1 SWAP2 ADD SWAP1 PUSH3 0x2D75 JUMP JUMPDEST POP PUSH1 0xE0 DUP3 ADD MLOAD DUP1 MLOAD PUSH3 0x223B SWAP2 PUSH1 0x6 DUP5 ADD SWAP2 PUSH1 0x20 SWAP1 SWAP2 ADD SWAP1 PUSH3 0x2DF2 JUMP JUMPDEST POP PUSH2 0x100 SWAP2 SWAP1 SWAP2 ADD MLOAD PUSH1 0x7 SWAP1 SWAP2 ADD DUP1 SLOAD PUSH1 0xFF NOT AND SWAP2 ISZERO ISZERO SWAP2 SWAP1 SWAP2 OR SWAP1 SSTORE PUSH1 0x40 DUP1 MLOAD PUSH4 0x62616E6B PUSH1 0xE0 SHL DUP1 DUP3 MSTORE PUSH1 0x1 PUSH1 0x4 DUP1 DUP5 ADD DUP3 SWAP1 MSTORE DUP5 MLOAD SWAP4 DUP5 SWAP1 SUB PUSH1 0x24 ADD DUP5 KECCAK256 DUP1 SLOAD PUSH20 0x2641D38ED882F3E2EA5F45F922CDED9D72AD09F7 PUSH1 0x1 PUSH1 0x1 PUSH1 0xA0 SHL SUB NOT SWAP1 SWAP2 AND OR SWAP1 SSTORE PUSH1 0x2 DUP1 SLOAD SWAP3 DUP4 ADD DUP2 SSTORE PUSH1 0x0 MSTORE DUP4 DUP6 ADD SWAP1 SWAP5 MSTORE DUP4 DUP4 MSTORE PUSH1 0x20 SWAP1 SWAP3 ADD SWAP1 DUP2 MSTORE PUSH3 0x22DE SWAP3 PUSH1 0x0 DUP1 MLOAD PUSH1 0x20 PUSH3 0x9215 DUP4 CODECOPY DUP2 MLOAD SWAP2 MSTORE SWAP1 SWAP3 ADD SWAP2 PUSH3 0x2D75 JUMP JUMPDEST POP PUSH1 0x40 DUP1 MLOAD PUSH2 0x160 DUP2 ADD DUP3 MSTORE PUSH1 0x8 PUSH2 0x120 DUP3 ADD SWAP1 DUP2 MSTORE PUSH8 0xCEDED8C8CCD2E6D PUSH1 0xC3 SHL PUSH2 0x140 DUP4 ADD MSTORE DUP2 MSTORE DUP2 MLOAD DUP1 DUP4 ADD DUP4 MSTORE PUSH1 0x9 DUP2 MSTORE PUSH9 0x8EDED8C8408CD2E6D PUSH1 0xBB SHL PUSH1 0x20 DUP1 DUP4 ADD SWAP2 SWAP1 SWAP2 MSTORE DUP1 DUP4 ADD SWAP2 SWAP1 SWAP2 MSTORE PUSH1 0x0 DUP1 MLOAD PUSH1 0x20 PUSH3 0x9275 DUP4 CODECOPY DUP2 MLOAD SWAP2 MSTORE DUP3 DUP5 ADD MSTORE PUSH1 0x0 DUP1 MLOAD PUSH1 0x20 PUSH3 0x9235 DUP4 CODECOPY DUP2 MLOAD SWAP2 MSTORE PUSH1 0x60 DUP4 ADD MSTORE PUSH1 0x2 PUSH1 0x80 DUP4 ADD DUP2 SWAP1 MSTORE PUSH1 0xA0 DUP4 ADD MSTORE DUP3 MLOAD DUP1 DUP3 ADD SWAP1 SWAP4 MSTORE PUSH1 0x0 DUP1 DUP5 MSTORE PUSH1 0xC0 DUP4 ADD SWAP4 SWAP1 SWAP4 MSTORE PUSH1 0xE0 DUP3 ADD DUP5 SWAP1 MSTORE PUSH1 0x1 PUSH2 0x100 DUP4 ADD MSTORE PUSH20 0x8A3E473EEDAB5FF476A4D9E2EEEE289D1FEBC7B3 DUP4 MSTORE SWAP2 DUP3 MSTORE DUP1 MLOAD DUP1 MLOAD SWAP2 SWAP3 PUSH32 0xF7C9BD1E98B03C2276326A4B72F2EB3EB6DF6DA893B0FD472043BD9E7549D667 SWAP3 PUSH3 0x23DC SWAP3 DUP5 SWAP3 ADD SWAP1 PUSH3 0x2D75 JUMP JUMPDEST POP PUSH1 0x20 DUP3 DUP2 ADD MLOAD DUP1 MLOAD PUSH3 0x23F7 SWAP3 PUSH1 0x1 DUP6 ADD SWAP3 ADD SWAP1 PUSH3 0x2D75 JUMP JUMPDEST POP PUSH1 0x40 DUP3 ADD MLOAD PUSH1 0x2 DUP3 ADD SSTORE PUSH1 0x60 DUP3 ADD MLOAD PUSH1 0x3 DUP3 ADD SSTORE PUSH1 0x80 DUP3 ADD MLOAD PUSH1 0x4 DUP3 ADD DUP1 SLOAD PUSH1 0xFF NOT AND PUSH1 0x1 DUP4 PUSH1 0x5 DUP2 GT ISZERO PUSH3 0x2432 JUMPI PUSH3 0x2432 PUSH3 0x2EB6 JUMP JUMPDEST MUL OR SWAP1 SSTORE POP PUSH1 0xA0 DUP3 ADD MLOAD PUSH1 0x4 DUP3 ADD DUP1 SLOAD PUSH2 0xFF00 NOT AND PUSH2 0x100 DUP4 PUSH1 0x5 DUP2 GT ISZERO PUSH3 0x245F JUMPI PUSH3 0x245F PUSH3 0x2EB6 JUMP JUMPDEST MUL OR SWAP1 SSTORE POP PUSH1 0xC0 DUP3 ADD MLOAD DUP1 MLOAD PUSH3 0x2481 SWAP2 PUSH1 0x5 DUP5 ADD SWAP2 PUSH1 0x20 SWAP1 SWAP2 ADD SWAP1 PUSH3 0x2D75 JUMP JUMPDEST POP PUSH1 0xE0 DUP3 ADD MLOAD DUP1 MLOAD PUSH3 0x249F SWAP2 PUSH1 0x6 DUP5 ADD SWAP2 PUSH1 0x20 SWAP1 SWAP2 ADD SWAP1 PUSH3 0x2DF2 JUMP JUMPDEST POP PUSH2 0x100 SWAP2 SWAP1 SWAP2 ADD MLOAD PUSH1 0x7 SWAP1 SWAP2 ADD DUP1 SLOAD PUSH1 0xFF NOT AND SWAP2 ISZERO ISZERO SWAP2 SWAP1 SWAP2 OR SWAP1 SSTORE PUSH1 0x40 DUP1 MLOAD PUSH8 0xCEDED8C8CCD2E6D PUSH1 0xC3 SHL DUP1 DUP3 MSTORE PUSH1 0x1 PUSH1 0x8 DUP1 DUP5 ADD DUP3 SWAP1 MSTORE DUP5 MLOAD SWAP4 DUP5 SWAP1 SUB PUSH1 0x28 ADD DUP5 KECCAK256 DUP1 SLOAD PUSH20 0x8A3E473EEDAB5FF476A4D9E2EEEE289D1FEBC7B3 PUSH1 0x1 PUSH1 0x1 PUSH1 0xA0 SHL SUB NOT SWAP1 SWAP2 AND OR SWAP1 SSTORE PUSH1 0x2 DUP1 SLOAD SWAP3 DUP4 ADD DUP2 SSTORE PUSH1 0x0 MSTORE DUP4 DUP6 ADD SWAP1 SWAP5 MSTORE DUP4 DUP4 MSTORE PUSH1 0x20 SWAP1 SWAP3 ADD SWAP1 DUP2 MSTORE PUSH3 0x2546 SWAP3 PUSH1 0x0 DUP1 MLOAD PUSH1 0x20 PUSH3 0x9215 DUP4 CODECOPY DUP2 MLOAD SWAP2 MSTORE SWAP1 SWAP3 ADD SWAP2 PUSH3 0x2D75 JUMP JUMPDEST POP PUSH1 0x40 DUP1 MLOAD PUSH2 0x160 DUP2 ADD DUP3 MSTORE PUSH1 0x5 PUSH2 0x120 DUP3 ADD DUP2 DUP2 MSTORE PUSH5 0x30B236B4B7 PUSH1 0xD9 SHL PUSH2 0x140 DUP5 ADD MSTORE DUP3 MSTORE DUP3 MLOAD DUP1 DUP5 ADD DUP5 MSTORE PUSH1 0x15 DUP2 MSTORE PUSH32 0x4976616E6F76204976616E204976616E6F766963680000000000000000000000 PUSH1 0x20 DUP1 DUP4 ADD SWAP2 SWAP1 SWAP2 MSTORE DUP1 DUP5 ADD SWAP2 SWAP1 SWAP2 MSTORE PUSH1 0x0 DUP1 MLOAD PUSH1 0x20 PUSH3 0x9275 DUP4 CODECOPY DUP2 MLOAD SWAP2 MSTORE DUP4 DUP6 ADD MSTORE PUSH1 0x0 DUP1 MLOAD PUSH1 0x20 PUSH3 0x9235 DUP4 CODECOPY DUP2 MLOAD SWAP2 MSTORE PUSH1 0x60 DUP5 ADD MSTORE PUSH1 0x80 DUP4 ADD DUP3 SWAP1 MSTORE PUSH1 0xA0 DUP4 ADD SWAP2 SWAP1 SWAP2 MSTORE DUP3 MLOAD DUP1 DUP3 ADD SWAP1 SWAP4 MSTORE PUSH1 0x0 DUP1 DUP5 MSTORE PUSH1 0xC0 DUP4 ADD SWAP4 SWAP1 SWAP4 MSTORE PUSH1 0xE0 DUP3 ADD DUP5 SWAP1 MSTORE PUSH1 0x1 PUSH2 0x100 DUP4 ADD MSTORE PUSH20 0xBC03EE8CDE310F36F2A6F04C9965CAEB11BA315A DUP4 MSTORE SWAP2 DUP3 MSTORE DUP1 MLOAD DUP1 MLOAD SWAP2 SWAP3 PUSH32 0x2834D1A09BD845973DB88F4940CE99A1523D73750C2EC581288D74241517D08B SWAP3 PUSH3 0x2656 SWAP3 DUP5 SWAP3 ADD SWAP1 PUSH3 0x2D75 JUMP JUMPDEST POP PUSH1 0x20 DUP3 DUP2 ADD MLOAD DUP1 MLOAD PUSH3 0x2671 SWAP3 PUSH1 0x1 DUP6 ADD SWAP3 ADD SWAP1 PUSH3 0x2D75 JUMP JUMPDEST POP PUSH1 0x40 DUP3 ADD MLOAD PUSH1 0x2 DUP3 ADD SSTORE PUSH1 0x60 DUP3 ADD MLOAD PUSH1 0x3 DUP3 ADD SSTORE PUSH1 0x80 DUP3 ADD MLOAD PUSH1 0x4 DUP3 ADD DUP1 SLOAD PUSH1 0xFF NOT AND PUSH1 0x1 DUP4 PUSH1 0x5 DUP2 GT ISZERO PUSH3 0x26AC JUMPI PUSH3 0x26AC PUSH3 0x2EB6 JUMP JUMPDEST MUL OR SWAP1 SSTORE POP PUSH1 0xA0 DUP3 ADD MLOAD PUSH1 0x4 DUP3 ADD DUP1 SLOAD PUSH2 0xFF00 NOT AND PUSH2 0x100 DUP4 PUSH1 0x5 DUP2 GT ISZERO PUSH3 0x26D9 JUMPI PUSH3 0x26D9 PUSH3 0x2EB6 JUMP JUMPDEST MUL OR SWAP1 SSTORE POP PUSH1 0xC0 DUP3 ADD MLOAD DUP1 MLOAD PUSH3 0x26FB SWAP2 PUSH1 0x5 DUP5 ADD SWAP2 PUSH1 0x20 SWAP1 SWAP2 ADD SWAP1 PUSH3 0x2D75 JUMP JUMPDEST POP PUSH1 0xE0 DUP3 ADD MLOAD DUP1 MLOAD PUSH3 0x2719 SWAP2 PUSH1 0x6 DUP5 ADD SWAP2 PUSH1 0x20 SWAP1 SWAP2 ADD SWAP1 PUSH3 0x2DF2 JUMP JUMPDEST POP PUSH2 0x100 SWAP2 SWAP1 SWAP2 ADD MLOAD PUSH1 0x7 SWAP1 SWAP2 ADD DUP1 SLOAD PUSH1 0xFF NOT AND SWAP2 ISZERO ISZERO SWAP2 SWAP1 SWAP2 OR SWAP1 SSTORE PUSH1 0x40 DUP1 MLOAD PUSH5 0x30B236B4B7 PUSH1 0xD9 SHL DUP1 DUP3 MSTORE PUSH1 0x1 PUSH1 0x5 DUP1 DUP5 ADD DUP3 SWAP1 MSTORE DUP5 MLOAD SWAP4 DUP5 SWAP1 SUB PUSH1 0x25 ADD DUP5 KECCAK256 DUP1 SLOAD PUSH20 0xBC03EE8CDE310F36F2A6F04C9965CAEB11BA315A PUSH1 0x1 PUSH1 0x1 PUSH1 0xA0 SHL SUB NOT SWAP1 SWAP2 AND OR SWAP1 SSTORE PUSH1 0x2 DUP1 SLOAD SWAP3 DUP4 ADD DUP2 SSTORE PUSH1 0x0 MSTORE DUP4 DUP6 ADD SWAP1 SWAP5 MSTORE DUP4 DUP4 MSTORE PUSH1 0x20 SWAP1 SWAP3 ADD SWAP1 DUP2 MSTORE PUSH3 0x27BD SWAP3 PUSH1 0x0 DUP1 MLOAD PUSH1 0x20 PUSH3 0x9215 DUP4 CODECOPY DUP2 MLOAD SWAP2 MSTORE SWAP1 SWAP3 ADD SWAP2 PUSH3 0x2D75 JUMP JUMPDEST POP PUSH1 0x40 DUP1 MLOAD PUSH2 0x160 DUP2 ADD DUP3 MSTORE PUSH1 0x5 PUSH2 0x120 DUP3 ADD SWAP1 DUP2 MSTORE PUSH5 0x39B2B6B2B7 PUSH1 0xD9 SHL PUSH2 0x140 DUP4 ADD MSTORE DUP2 MSTORE DUP2 MLOAD DUP1 DUP4 ADD DUP4 MSTORE PUSH1 0x18 DUP2 MSTORE PUSH32 0x53656D656E6F762053656D656E2053656D656E6F766963680000000000000000 PUSH1 0x20 DUP1 DUP4 ADD SWAP2 SWAP1 SWAP2 MSTORE DUP1 DUP4 ADD SWAP2 SWAP1 SWAP2 MSTORE PUSH1 0x0 DUP1 MLOAD PUSH1 0x20 PUSH3 0x9275 DUP4 CODECOPY DUP2 MLOAD SWAP2 MSTORE DUP3 DUP5 ADD MSTORE PUSH1 0x0 DUP1 MLOAD PUSH1 0x20 PUSH3 0x9235 DUP4 CODECOPY DUP2 MLOAD SWAP2 MSTORE PUSH1 0x60 DUP4 ADD MSTORE PUSH1 0x1 PUSH1 0x80 DUP4 ADD DUP2 SWAP1 MSTORE PUSH1 0xA0 DUP4 ADD DUP2 SWAP1 MSTORE DUP4 MLOAD DUP1 DUP6 ADD SWAP1 SWAP5 MSTORE PUSH1 0x7 DUP5 MSTORE PUSH7 0x2236B4BA3937BB PUSH1 0xC9 SHL DUP5 DUP4 ADD MSTORE PUSH1 0xC0 DUP4 ADD SWAP4 SWAP1 SWAP4 MSTORE PUSH1 0xE0 DUP3 ADD DUP5 SWAP1 MSTORE PUSH2 0x100 DUP3 ADD SWAP3 SWAP1 SWAP3 MSTORE PUSH20 0xDD28C05343B9D59F922202918C0F8C4802BE312F PUSH1 0x0 SWAP1 DUP2 MSTORE DUP3 MSTORE DUP1 MLOAD DUP1 MLOAD SWAP2 SWAP3 PUSH32 0xE9685801408E896F6AD1B5140C08F320194812CDBDD554D9B5512D36C3F70E10 SWAP3 PUSH3 0x28DF SWAP3 DUP5 SWAP3 ADD SWAP1 PUSH3 0x2D75 JUMP JUMPDEST POP PUSH1 0x20 DUP3 DUP2 ADD MLOAD DUP1 MLOAD PUSH3 0x28FA SWAP3 PUSH1 0x1 DUP6 ADD SWAP3 ADD SWAP1 PUSH3 0x2D75 JUMP JUMPDEST POP PUSH1 0x40 DUP3 ADD MLOAD PUSH1 0x2 DUP3 ADD SSTORE PUSH1 0x60 DUP3 ADD MLOAD PUSH1 0x3 DUP3 ADD SSTORE PUSH1 0x80 DUP3 ADD MLOAD PUSH1 0x4 DUP3 ADD DUP1 SLOAD PUSH1 0xFF NOT AND PUSH1 0x1 DUP4 PUSH1 0x5 DUP2 GT ISZERO PUSH3 0x2935 JUMPI PUSH3 0x2935 PUSH3 0x2EB6 JUMP JUMPDEST MUL OR SWAP1 SSTORE POP PUSH1 0xA0 DUP3 ADD MLOAD PUSH1 0x4 DUP3 ADD DUP1 SLOAD PUSH2 0xFF00 NOT AND PUSH2 0x100 DUP4 PUSH1 0x5 DUP2 GT ISZERO PUSH3 0x2962 JUMPI PUSH3 0x2962 PUSH3 0x2EB6 JUMP JUMPDEST MUL OR SWAP1 SSTORE POP PUSH1 0xC0 DUP3 ADD MLOAD DUP1 MLOAD PUSH3 0x2984 SWAP2 PUSH1 0x5 DUP5 ADD SWAP2 PUSH1 0x20 SWAP1 SWAP2 ADD SWAP1 PUSH3 0x2D75 JUMP JUMPDEST POP PUSH1 0xE0 DUP3 ADD MLOAD DUP1 MLOAD PUSH3 0x29A2 SWAP2 PUSH1 0x6 DUP5 ADD SWAP2 PUSH1 0x20 SWAP1 SWAP2 ADD SWAP1 PUSH3 0x2DF2 JUMP JUMPDEST POP PUSH2 0x100 SWAP2 SWAP1 SWAP2 ADD MLOAD PUSH1 0x7 SWAP1 SWAP2 ADD DUP1 SLOAD PUSH1 0xFF NOT AND SWAP2 ISZERO ISZERO SWAP2 SWAP1 SWAP2 OR SWAP1 SSTORE PUSH1 0x40 DUP1 MLOAD PUSH5 0x39B2B6B2B7 PUSH1 0xD9 SHL DUP1 DUP3 MSTORE PUSH1 0x1 PUSH1 0x5 DUP1 DUP5 ADD DUP3 SWAP1 MSTORE DUP5 MLOAD SWAP4 DUP5 SWAP1 SUB PUSH1 0x25 ADD DUP5 KECCAK256 DUP1 SLOAD PUSH20 0xDD28C05343B9D59F922202918C0F8C4802BE312F PUSH1 0x1 PUSH1 0x1 PUSH1 0xA0 SHL SUB NOT SWAP1 SWAP2 AND OR SWAP1 SSTORE PUSH1 0x2 DUP1 SLOAD SWAP3 DUP4 ADD DUP2 SSTORE PUSH1 0x0 MSTORE DUP4 DUP6 ADD SWAP1 SWAP5 MSTORE DUP4 DUP4 MSTORE PUSH1 0x20 SWAP1 SWAP3 ADD SWAP1 DUP2 MSTORE PUSH3 0x2A46 SWAP3 PUSH1 0x0 DUP1 MLOAD PUSH1 0x20 PUSH3 0x9215 DUP4 CODECOPY DUP2 MLOAD SWAP2 MSTORE SWAP1 SWAP3 ADD SWAP2 PUSH3 0x2D75 JUMP JUMPDEST POP PUSH1 0x40 DUP1 MLOAD PUSH2 0x160 DUP2 ADD DUP3 MSTORE PUSH1 0x4 PUSH2 0x120 DUP3 ADD SWAP1 DUP2 MSTORE PUSH4 0x3832BA39 PUSH1 0xE1 SHL PUSH2 0x140 DUP4 ADD MSTORE DUP2 MSTORE DUP2 MLOAD DUP1 DUP4 ADD DUP4 MSTORE PUSH1 0x15 DUP2 MSTORE PUSH32 0x506574726F76205065747220506574726F766963680000000000000000000000 PUSH1 0x20 DUP1 DUP4 ADD SWAP2 SWAP1 SWAP2 MSTORE DUP1 DUP4 ADD SWAP2 SWAP1 SWAP2 MSTORE PUSH1 0x0 DUP1 MLOAD PUSH1 0x20 PUSH3 0x9275 DUP4 CODECOPY DUP2 MLOAD SWAP2 MSTORE DUP3 DUP5 ADD MSTORE PUSH1 0x0 DUP1 MLOAD PUSH1 0x20 PUSH3 0x9235 DUP4 CODECOPY DUP2 MLOAD SWAP2 MSTORE PUSH1 0x60 DUP4 ADD MSTORE PUSH1 0x0 PUSH1 0x80 DUP4 ADD DUP2 SWAP1 MSTORE PUSH1 0xA0 DUP4 ADD DUP2 SWAP1 MSTORE DUP4 MLOAD DUP1 DUP4 ADD SWAP1 SWAP5 MSTORE DUP1 DUP5 MSTORE PUSH1 0xC0 DUP4 ADD SWAP4 SWAP1 SWAP4 MSTORE PUSH1 0xE0 DUP3 ADD DUP5 SWAP1 MSTORE PUSH1 0x1 PUSH2 0x100 DUP4 ADD MSTORE PUSH20 0xB7E3FFC2F94CE0A3CCFC599270D8023D8AB9CAC6 DUP4 MSTORE SWAP2 DUP3 MSTORE DUP1 MLOAD DUP1 MLOAD SWAP2 SWAP3 PUSH32 0xB9CDA16762A27320DB14119A18B082DFFDD24254E64027614226BE2BC1A9CF8A SWAP3 PUSH3 0x2B54 SWAP3 DUP5 SWAP3 ADD SWAP1 PUSH3 0x2D75 JUMP JUMPDEST POP PUSH1 0x20 DUP3 DUP2 ADD MLOAD DUP1 MLOAD PUSH3 0x2B6F SWAP3 PUSH1 0x1 DUP6 ADD SWAP3 ADD SWAP1 PUSH3 0x2D75 JUMP JUMPDEST POP PUSH1 0x40 DUP3 ADD MLOAD PUSH1 0x2 DUP3 ADD SSTORE PUSH1 0x60 DUP3 ADD MLOAD PUSH1 0x3 DUP3 ADD SSTORE PUSH1 0x80 DUP3 ADD MLOAD PUSH1 0x4 DUP3 ADD DUP1 SLOAD PUSH1 0xFF NOT AND PUSH1 0x1 DUP4 PUSH1 0x5 DUP2 GT ISZERO PUSH3 0x2BAA JUMPI PUSH3 0x2BAA PUSH3 0x2EB6 JUMP JUMPDEST MUL OR SWAP1 SSTORE POP PUSH1 0xA0 DUP3 ADD MLOAD PUSH1 0x4 DUP3 ADD DUP1 SLOAD PUSH2 0xFF00 NOT AND PUSH2 0x100 DUP4 PUSH1 0x5 DUP2 GT ISZERO PUSH3 0x2BD7 JUMPI PUSH3 0x2BD7 PUSH3 0x2EB6 JUMP JUMPDEST MUL OR SWAP1 SSTORE POP PUSH1 0xC0 DUP3 ADD MLOAD DUP1 MLOAD PUSH3 0x2BF9 SWAP2 PUSH1 0x5 DUP5 ADD SWAP2 PUSH1 0x20 SWAP1 SWAP2 ADD SWAP1 PUSH3 0x2D75 JUMP JUMPDEST POP PUSH1 0xE0 DUP3 ADD MLOAD DUP1 MLOAD PUSH3 0x2C17 SWAP2 PUSH1 0x6 DUP5 ADD SWAP2 PUSH1 0x20 SWAP1 SWAP2 ADD SWAP1 PUSH3 0x2DF2 JUMP JUMPDEST POP PUSH2 0x100 SWAP2 SWAP1 SWAP2 ADD MLOAD PUSH1 0x7 SWAP1 SWAP2 ADD DUP1 SLOAD PUSH1 0xFF NOT AND SWAP2 ISZERO ISZERO SWAP2 SWAP1 SWAP2 OR SWAP1 SSTORE PUSH1 0x40 DUP1 MLOAD PUSH4 0x3832BA39 PUSH1 0xE1 SHL DUP1 DUP3 MSTORE PUSH1 0x1 PUSH1 0x4 DUP1 DUP5 ADD DUP3 SWAP1 MSTORE DUP5 MLOAD SWAP4 DUP5 SWAP1 SUB PUSH1 0x24 ADD DUP5 KECCAK256 DUP1 SLOAD PUSH20 0xB7E3FFC2F94CE0A3CCFC599270D8023D8AB9CAC6 PUSH1 0x1 PUSH1 0x1 PUSH1 0xA0 SHL SUB NOT SWAP1 SWAP2 AND OR SWAP1 SSTORE PUSH1 0x2 DUP1 SLOAD SWAP3 DUP4 ADD DUP2 SSTORE PUSH1 0x0 MSTORE DUP4 DUP6 ADD SWAP1 SWAP5 MSTORE DUP4 DUP4 MSTORE PUSH1 0x20 SWAP1 SWAP3 ADD SWAP1 DUP2 MSTORE PUSH3 0x2CBA SWAP3 PUSH1 0x0 DUP1 MLOAD PUSH1 0x20 PUSH3 0x9215 DUP4 CODECOPY DUP2 MLOAD SWAP2 MSTORE SWAP1 SWAP3 ADD SWAP2 PUSH3 0x2D75 JUMP JUMPDEST POP POP PUSH3 0x2ECC JUMP JUMPDEST DUP3 DUP1 SLOAD DUP3 DUP3 SSTORE SWAP1 PUSH1 0x0 MSTORE PUSH1 0x20 PUSH1 0x0 KECCAK256 SWAP1 PUSH1 0x7 ADD PUSH1 0x8 SWAP1 DIV DUP2 ADD SWAP3 DUP3 ISZERO PUSH3 0x2D63 JUMPI SWAP2 PUSH1 0x20 MUL DUP3 ADD PUSH1 0x0 JUMPDEST DUP4 DUP3 GT ISZERO PUSH3 0x2D2F JUMPI DUP4 MLOAD DUP4 DUP3 PUSH2 0x100 EXP DUP2 SLOAD DUP2 PUSH4 0xFFFFFFFF MUL NOT AND SWAP1 DUP4 PUSH1 0xFF AND MUL OR SWAP1 SSTORE POP SWAP3 PUSH1 0x20 ADD SWAP3 PUSH1 0x4 ADD PUSH1 0x20 DUP2 PUSH1 0x3 ADD DIV SWAP3 DUP4 ADD SWAP3 PUSH1 0x1 SUB MUL PUSH3 0x2CEC JUMP JUMPDEST DUP1 ISZERO PUSH3 0x2D61 JUMPI DUP3 DUP2 PUSH2 0x100 EXP DUP2 SLOAD SWAP1 PUSH4 0xFFFFFFFF MUL NOT AND SWAP1 SSTORE PUSH1 0x4 ADD PUSH1 0x20 DUP2 PUSH1 0x3 ADD DIV SWAP3 DUP4 ADD SWAP3 PUSH1 0x1 SUB MUL PUSH3 0x2D2F JUMP JUMPDEST POP JUMPDEST POP PUSH3 0x2D71 SWAP3 SWAP2 POP PUSH3 0x2E62 JUMP JUMPDEST POP SWAP1 JUMP JUMPDEST DUP3 DUP1 SLOAD PUSH3 0x2D83 SWAP1 PUSH3 0x2E79 JUMP JUMPDEST SWAP1 PUSH1 0x0 MSTORE PUSH1 0x20 PUSH1 0x0 KECCAK256 SWAP1 PUSH1 0x1F ADD PUSH1 0x20 SWAP1 DIV DUP2 ADD SWAP3 DUP3 PUSH3 0x2DA7 JUMPI PUSH1 0x0 DUP6 SSTORE PUSH3 0x2D63 JUMP JUMPDEST DUP3 PUSH1 0x1F LT PUSH3 0x2DC2 JUMPI DUP1 MLOAD PUSH1 0xFF NOT AND DUP4 DUP1 ADD OR DUP6 SSTORE PUSH3 0x2D63 JUMP JUMPDEST DUP3 DUP1 ADD PUSH1 0x1 ADD DUP6 SSTORE DUP3 ISZERO PUSH3 0x2D63 JUMPI SWAP2 DUP3 ADD JUMPDEST DUP3 DUP2 GT ISZERO PUSH3 0x2D63 JUMPI DUP3 MLOAD DUP3 SSTORE SWAP2 PUSH1 0x20 ADD SWAP2 SWAP1 PUSH1 0x1 ADD SWAP1 PUSH3 0x2DD5 JUMP JUMPDEST DUP3 DUP1 SLOAD DUP3 DUP3 SSTORE SWAP1 PUSH1 0x0 MSTORE PUSH1 0x20 PUSH1 0x0 KECCAK256 SWAP1 PUSH1 0x7 ADD PUSH1 0x8 SWAP1 DIV DUP2 ADD SWAP3 DUP3 ISZERO PUSH3 0x2D63 JUMPI SWAP2 PUSH1 0x20 MUL DUP3 ADD PUSH1 0x0 JUMPDEST DUP4 DUP3 GT ISZERO PUSH3 0x2D2F JUMPI DUP4 MLOAD DUP4 DUP3 PUSH2 0x100 EXP DUP2 SLOAD DUP2 PUSH4 0xFFFFFFFF MUL NOT AND SWAP1 DUP4 PUSH4 0xFFFFFFFF AND MUL OR SWAP1 SSTORE POP SWAP3 PUSH1 0x20 ADD SWAP3 PUSH1 0x4 ADD PUSH1 0x20 DUP2 PUSH1 0x3 ADD DIV SWAP3 DUP4 ADD SWAP3 PUSH1 0x1 SUB MUL PUSH3 0x2E1C JUMP JUMPDEST JUMPDEST DUP1 DUP3 GT ISZERO PUSH3 0x2D71 JUMPI PUSH1 0x0 DUP2 SSTORE PUSH1 0x1 ADD PUSH3 0x2E63 JUMP JUMPDEST PUSH1 0x1 DUP2 DUP2 SHR SWAP1 DUP3 AND DUP1 PUSH3 0x2E8E JUMPI PUSH1 0x7F DUP3 AND SWAP2 POP JUMPDEST PUSH1 0x20 DUP3 LT DUP2 EQ ISZERO PUSH3 0x2EB0 JUMPI PUSH4 0x4E487B71 PUSH1 0xE0 SHL PUSH1 0x0 MSTORE PUSH1 0x22 PUSH1 0x4 MSTORE PUSH1 0x24 PUSH1 0x0 REVERT JUMPDEST POP SWAP2 SWAP1 POP JUMP JUMPDEST PUSH4 0x4E487B71 PUSH1 0xE0 SHL PUSH1 0x0 MSTORE PUSH1 0x21 PUSH1 0x4 MSTORE PUSH1 0x24 PUSH1 0x0 REVERT JUMPDEST PUSH2 0x6339 DUP1 PUSH3 0x2EDC PUSH1 0x0 CODECOPY PUSH1 0x0 RETURN INVALID PUSH1 0x80 PUSH1 0x40 MSTORE PUSH1 0x4 CALLDATASIZE LT PUSH2 0x19C JUMPI PUSH1 0x0 CALLDATALOAD PUSH1 0xE0 SHR DUP1 PUSH4 0x8638A7A4 GT PUSH2 0xEC JUMPI DUP1 PUSH4 0xBFA5A902 GT PUSH2 0x8A JUMPI DUP1 PUSH4 0xE8E1D463 GT PUSH2 0x64 JUMPI DUP1 PUSH4 0xE8E1D463 EQ PUSH2 0x50B JUMPI DUP1 PUSH4 0xEDF9261F EQ PUSH2 0x52B JUMPI DUP1 PUSH4 0xF6E60D5B EQ PUSH2 0x54B JUMPI DUP1 PUSH4 0xF8187268 EQ PUSH2 0x56B JUMPI PUSH1 0x0 DUP1 REVERT JUMPDEST DUP1 PUSH4 0xBFA5A902 EQ PUSH2 0x477 JUMPI DUP1 PUSH4 0xD20259FE EQ PUSH2 0x497 JUMPI DUP1 PUSH4 0xD569B30C EQ PUSH2 0x4DC JUMPI PUSH1 0x0 DUP1 REVERT JUMPDEST DUP1 PUSH4 0x9B7E033A GT PUSH2 0xC6 JUMPI DUP1 PUSH4 0x9B7E033A EQ PUSH2 0x3E9 JUMPI DUP1 PUSH4 0x9DDEDCDC EQ PUSH2 0x41E JUMPI DUP1 PUSH4 0x9E36ABD9 EQ PUSH2 0x433 JUMPI DUP1 PUSH4 0xA68F7FF6 EQ PUSH2 0x448 JUMPI PUSH1 0x0 DUP1 REVERT JUMPDEST DUP1 PUSH4 0x8638A7A4 EQ PUSH2 0x394 JUMPI DUP1 PUSH4 0x8F7AB8E1 EQ PUSH2 0x3B4 JUMPI DUP1 PUSH4 0x961A9A13 EQ PUSH2 0x3D4 JUMPI PUSH1 0x0 DUP1 REVERT JUMPDEST DUP1 PUSH4 0x55DEA0B3 GT PUSH2 0x159 JUMPI DUP1 PUSH4 0x63386BBE GT PUSH2 0x133 JUMPI DUP1 PUSH4 0x63386BBE EQ PUSH2 0x30E JUMPI DUP1 PUSH4 0x6E9D7ADB EQ PUSH2 0x330 JUMPI DUP1 PUSH4 0x6F77926B EQ PUSH2 0x343 JUMPI DUP1 PUSH4 0x83221A11 EQ PUSH2 0x374 JUMPI PUSH1 0x0 DUP1 REVERT JUMPDEST DUP1 PUSH4 0x55DEA0B3 EQ PUSH2 0x2AC JUMPI DUP1 PUSH4 0x570B98E2 EQ PUSH2 0x2CC JUMPI DUP1 PUSH4 0x60B9FAA5 EQ PUSH2 0x2EE JUMPI PUSH1 0x0 DUP1 REVERT JUMPDEST DUP1 PUSH4 0x137A8530 EQ PUSH2 0x1A1 JUMPI DUP1 PUSH4 0x18D0E8B2 EQ PUSH2 0x1C3 JUMPI DUP1 PUSH4 0x2AC5CBA0 EQ PUSH2 0x1FA JUMPI DUP1 PUSH4 0x3C0E9AA9 EQ PUSH2 0x227 JUMPI DUP1 PUSH4 0x41180DA1 EQ PUSH2 0x254 JUMPI DUP1 PUSH4 0x4985E85C EQ PUSH2 0x274 JUMPI JUMPDEST PUSH1 0x0 DUP1 REVERT JUMPDEST CALLVALUE DUP1 ISZERO PUSH2 0x1AD JUMPI PUSH1 0x0 DUP1 REVERT JUMPDEST POP PUSH2 0x1C1 PUSH2 0x1BC CALLDATASIZE PUSH1 0x4 PUSH2 0x5929 JUMP JUMPDEST PUSH2 0x580 JUMP JUMPDEST STOP JUMPDEST CALLVALUE DUP1 ISZERO PUSH2 0x1CF JUMPI PUSH1 0x0 DUP1 REVERT JUMPDEST POP PUSH2 0x1E3 PUSH2 0x1DE CALLDATASIZE PUSH1 0x4 PUSH2 0x5905 JUMP JUMPDEST PUSH2 0x765 JUMP JUMPDEST PUSH1 0x40 MLOAD PUSH2 0x1F1 SWAP3 SWAP2 SWAP1 PUSH2 0x6030 JUMP JUMPDEST PUSH1 0x40 MLOAD DUP1 SWAP2 SUB SWAP1 RETURN JUMPDEST CALLVALUE DUP1 ISZERO PUSH2 0x206 JUMPI PUSH1 0x0 DUP1 REVERT JUMPDEST POP PUSH2 0x21A PUSH2 0x215 CALLDATASIZE PUSH1 0x4 PUSH2 0x5BE2 JUMP JUMPDEST PUSH2 0x812 JUMP JUMPDEST PUSH1 0x40 MLOAD PUSH2 0x1F1 SWAP2 SWAP1 PUSH2 0x60EA JUMP JUMPDEST CALLVALUE DUP1 ISZERO PUSH2 0x233 JUMPI PUSH1 0x0 DUP1 REVERT JUMPDEST POP PUSH2 0x247 PUSH2 0x242 CALLDATASIZE PUSH1 0x4 PUSH2 0x5B53 JUMP JUMPDEST PUSH2 0xC28 JUMP JUMPDEST PUSH1 0x40 MLOAD PUSH2 0x1F1 SWAP2 SWAP1 PUSH2 0x5F7A JUMP JUMPDEST CALLVALUE DUP1 ISZERO PUSH2 0x260 JUMPI PUSH1 0x0 DUP1 REVERT JUMPDEST POP PUSH2 0x1C1 PUSH2 0x26F CALLDATASIZE PUSH1 0x4 PUSH2 0x5B05 JUMP JUMPDEST PUSH2 0xEB3 JUMP JUMPDEST CALLVALUE DUP1 ISZERO PUSH2 0x280 JUMPI PUSH1 0x0 DUP1 REVERT JUMPDEST POP PUSH2 0x294 PUSH2 0x28F CALLDATASIZE PUSH1 0x4 PUSH2 0x5B53 JUMP JUMPDEST PUSH2 0x145F JUMP JUMPDEST PUSH1 0x40 MLOAD PUSH1 0x1 PUSH1 0x1 PUSH1 0xA0 SHL SUB SWAP1 SWAP2 AND DUP2 MSTORE PUSH1 0x20 ADD PUSH2 0x1F1 JUMP JUMPDEST CALLVALUE DUP1 ISZERO PUSH2 0x2B8 JUMPI PUSH1 0x0 DUP1 REVERT JUMPDEST POP PUSH2 0x1C1 PUSH2 0x2C7 CALLDATASIZE PUSH1 0x4 PUSH2 0x5AEA JUMP JUMPDEST PUSH2 0x1490 JUMP JUMPDEST CALLVALUE DUP1 ISZERO PUSH2 0x2D8 JUMPI PUSH1 0x0 DUP1 REVERT JUMPDEST POP PUSH2 0x2E1 PUSH2 0x17CA JUMP JUMPDEST PUSH1 0x40 MLOAD PUSH2 0x1F1 SWAP2 SWAP1 PUSH2 0x5F18 JUMP JUMPDEST CALLVALUE DUP1 ISZERO PUSH2 0x2FA JUMPI PUSH1 0x0 DUP1 REVERT JUMPDEST POP PUSH2 0x1C1 PUSH2 0x309 CALLDATASIZE PUSH1 0x4 PUSH2 0x5B53 JUMP JUMPDEST PUSH2 0x18A3 JUMP JUMPDEST CALLVALUE DUP1 ISZERO PUSH2 0x31A JUMPI PUSH1 0x0 DUP1 REVERT JUMPDEST POP PUSH2 0x323 PUSH2 0x1E8C JUMP JUMPDEST PUSH1 0x40 MLOAD PUSH2 0x1F1 SWAP2 SWAP1 PUSH2 0x5F05 JUMP JUMPDEST PUSH2 0x1C1 PUSH2 0x33E CALLDATASIZE PUSH1 0x4 PUSH2 0x5B53 JUMP JUMPDEST PUSH2 0x1F55 JUMP JUMPDEST CALLVALUE DUP1 ISZERO PUSH2 0x34F JUMPI PUSH1 0x0 DUP1 REVERT JUMPDEST POP PUSH2 0x363 PUSH2 0x35E CALLDATASIZE PUSH1 0x4 PUSH2 0x5905 JUMP JUMPDEST PUSH2 0x216B JUMP JUMPDEST PUSH1 0x40 MLOAD PUSH2 0x1F1 SWAP6 SWAP5 SWAP4 SWAP3 SWAP2 SWAP1 PUSH2 0x6090 JUMP JUMPDEST CALLVALUE DUP1 ISZERO PUSH2 0x380 JUMPI PUSH1 0x0 DUP1 REVERT JUMPDEST POP PUSH2 0x1C1 PUSH2 0x38F CALLDATASIZE PUSH1 0x4 PUSH2 0x5989 JUMP JUMPDEST PUSH2 0x249B JUMP JUMPDEST CALLVALUE DUP1 ISZERO PUSH2 0x3A0 JUMPI PUSH1 0x0 DUP1 REVERT JUMPDEST POP PUSH2 0x1C1 PUSH2 0x3AF CALLDATASIZE PUSH1 0x4 PUSH2 0x5D21 JUMP JUMPDEST PUSH2 0x2777 JUMP JUMPDEST CALLVALUE DUP1 ISZERO PUSH2 0x3C0 JUMPI PUSH1 0x0 DUP1 REVERT JUMPDEST POP PUSH2 0x1C1 PUSH2 0x3CF CALLDATASIZE PUSH1 0x4 PUSH2 0x5C60 JUMP JUMPDEST PUSH2 0x2ED2 JUMP JUMPDEST CALLVALUE DUP1 ISZERO PUSH2 0x3E0 JUMPI PUSH1 0x0 DUP1 REVERT JUMPDEST POP PUSH2 0x1C1 PUSH2 0x3975 JUMP JUMPDEST CALLVALUE DUP1 ISZERO PUSH2 0x3F5 JUMPI PUSH1 0x0 DUP1 REVERT JUMPDEST POP PUSH2 0x409 PUSH2 0x404 CALLDATASIZE PUSH1 0x4 PUSH2 0x5D06 JUMP JUMPDEST PUSH2 0x3B5E JUMP JUMPDEST PUSH1 0x40 MLOAD PUSH2 0x1F1 SWAP10 SWAP9 SWAP8 SWAP7 SWAP6 SWAP5 SWAP4 SWAP3 SWAP2 SWAP1 PUSH2 0x5F8D JUMP JUMPDEST CALLVALUE DUP1 ISZERO PUSH2 0x42A JUMPI PUSH1 0x0 DUP1 REVERT JUMPDEST POP PUSH2 0x2E1 PUSH2 0x3E95 JUMP JUMPDEST CALLVALUE DUP1 ISZERO PUSH2 0x43F JUMPI PUSH1 0x0 DUP1 REVERT JUMPDEST POP PUSH2 0x1C1 PUSH2 0x3F65 JUMP JUMPDEST CALLVALUE DUP1 ISZERO PUSH2 0x454 JUMPI PUSH1 0x0 DUP1 REVERT JUMPDEST POP PUSH2 0x468 PUSH2 0x463 CALLDATASIZE PUSH1 0x4 PUSH2 0x5905 JUMP JUMPDEST PUSH2 0x43CA JUMP JUMPDEST PUSH1 0x40 MLOAD PUSH2 0x1F1 SWAP4 SWAP3 SWAP2 SWAP1 PUSH2 0x604B JUMP JUMPDEST CALLVALUE DUP1 ISZERO PUSH2 0x483 JUMPI PUSH1 0x0 DUP1 REVERT JUMPDEST POP PUSH2 0x1C1 PUSH2 0x492 CALLDATASIZE PUSH1 0x4 PUSH2 0x5CED JUMP JUMPDEST PUSH2 0x4505 JUMP JUMPDEST CALLVALUE DUP1 ISZERO PUSH2 0x4A3 JUMPI PUSH1 0x0 DUP1 REVERT JUMPDEST POP PUSH2 0x4B7 PUSH2 0x4B2 CALLDATASIZE PUSH1 0x4 PUSH2 0x5B53 JUMP JUMPDEST PUSH2 0x4834 JUMP JUMPDEST PUSH1 0x40 DUP1 MLOAD SWAP4 ISZERO ISZERO DUP5 MSTORE PUSH1 0x1 PUSH1 0x1 PUSH1 0xA0 SHL SUB SWAP1 SWAP3 AND PUSH1 0x20 DUP5 ADD MSTORE SWAP1 DUP3 ADD MSTORE PUSH1 0x60 ADD PUSH2 0x1F1 JUMP JUMPDEST CALLVALUE DUP1 ISZERO PUSH2 0x4E8 JUMPI PUSH1 0x0 DUP1 REVERT JUMPDEST POP PUSH2 0x4FC PUSH2 0x4F7 CALLDATASIZE PUSH1 0x4 PUSH2 0x5B53 JUMP JUMPDEST PUSH2 0x4900 JUMP JUMPDEST PUSH1 0x40 MLOAD PUSH2 0x1F1 SWAP4 SWAP3 SWAP2 SWAP1 PUSH2 0x605D JUMP JUMPDEST CALLVALUE DUP1 ISZERO PUSH2 0x517 JUMPI PUSH1 0x0 DUP1 REVERT JUMPDEST POP PUSH2 0x1C1 PUSH2 0x526 CALLDATASIZE PUSH1 0x4 PUSH2 0x5905 JUMP JUMPDEST PUSH2 0x4A1A JUMP JUMPDEST CALLVALUE DUP1 ISZERO PUSH2 0x537 JUMPI PUSH1 0x0 DUP1 REVERT JUMPDEST POP PUSH2 0x4FC PUSH2 0x546 CALLDATASIZE PUSH1 0x4 PUSH2 0x5905 JUMP JUMPDEST PUSH2 0x4C51 JUMP JUMPDEST CALLVALUE DUP1 ISZERO PUSH2 0x557 JUMPI PUSH1 0x0 DUP1 REVERT JUMPDEST POP PUSH2 0x1C1 PUSH2 0x566 CALLDATASIZE PUSH1 0x4 PUSH2 0x5B90 JUMP JUMPDEST PUSH2 0x4D85 JUMP JUMPDEST CALLVALUE DUP1 ISZERO PUSH2 0x577 JUMPI PUSH1 0x0 DUP1 REVERT JUMPDEST POP PUSH2 0x2E1 PUSH2 0x4FE0 JUMP JUMPDEST PUSH1 0x5 CALLER PUSH1 0x0 SWAP1 DUP2 MSTORE PUSH1 0x20 DUP2 SWAP1 MSTORE PUSH1 0x40 SWAP1 KECCAK256 PUSH1 0x4 ADD SLOAD PUSH2 0x100 SWAP1 DIV PUSH1 0xFF AND PUSH1 0x5 DUP2 GT ISZERO PUSH2 0x5AE JUMPI PUSH2 0x5AE PUSH2 0x626F JUMP JUMPDEST EQ PUSH1 0x40 MLOAD DUP1 PUSH1 0x60 ADD PUSH1 0x40 MSTORE DUP1 PUSH1 0x2F DUP2 MSTORE PUSH1 0x20 ADD PUSH2 0x62D5 PUSH1 0x2F SWAP2 CODECOPY SWAP1 PUSH2 0x5EF JUMPI PUSH1 0x40 MLOAD PUSH3 0x461BCD PUSH1 0xE5 SHL DUP2 MSTORE PUSH1 0x4 ADD PUSH2 0x5E6 SWAP2 SWAP1 PUSH2 0x60EA JUMP JUMPDEST PUSH1 0x40 MLOAD DUP1 SWAP2 SUB SWAP1 REVERT JUMPDEST POP DUP2 DUP2 PUSH1 0x1 DUP3 PUSH1 0x5 DUP2 GT ISZERO PUSH2 0x606 JUMPI PUSH2 0x606 PUSH2 0x626F JUMP JUMPDEST EQ ISZERO PUSH2 0x6B4 JUMPI PUSH2 0x625 DUP2 PUSH1 0x40 MLOAD DUP1 PUSH1 0x20 ADD PUSH1 0x40 MSTORE DUP1 PUSH1 0x0 DUP2 MSTORE POP PUSH2 0x5117 JUMP JUMPDEST ISZERO PUSH2 0x642 JUMPI PUSH1 0x40 MLOAD PUSH3 0x461BCD PUSH1 0xE5 SHL DUP2 MSTORE PUSH1 0x4 ADD PUSH2 0x5E6 SWAP1 PUSH2 0x60FD JUMP JUMPDEST PUSH1 0x3 DUP2 PUSH1 0x40 MLOAD PUSH2 0x652 SWAP2 SWAP1 PUSH2 0x5E15 JUMP JUMPDEST SWAP1 DUP2 MSTORE PUSH1 0x40 MLOAD SWAP1 DUP2 SWAP1 SUB PUSH1 0x20 ADD SWAP1 KECCAK256 PUSH1 0x1 ADD SLOAD PUSH1 0xFF PUSH1 0x1 PUSH1 0xA0 SHL SWAP1 SWAP2 DIV AND PUSH2 0x6B4 JUMPI PUSH1 0x40 MLOAD PUSH3 0x461BCD PUSH1 0xE5 SHL DUP2 MSTORE PUSH1 0x20 PUSH1 0x4 DUP3 ADD MSTORE PUSH1 0x15 PUSH1 0x24 DUP3 ADD MSTORE PUSH21 0x5468657265206973206E6F20737563682073686F7 PUSH1 0x5C SHL PUSH1 0x44 DUP3 ADD MSTORE PUSH1 0x64 ADD PUSH2 0x5E6 JUMP JUMPDEST PUSH1 0x1 PUSH1 0x1 PUSH1 0xA0 SHL SUB DUP6 AND PUSH1 0x0 SWAP1 DUP2 MSTORE PUSH1 0x20 DUP2 SWAP1 MSTORE PUSH1 0x40 SWAP1 KECCAK256 PUSH1 0x4 ADD DUP1 SLOAD DUP6 SWAP2 SWAP1 PUSH2 0xFF00 NOT AND PUSH2 0x100 DUP4 PUSH1 0x5 DUP2 GT ISZERO PUSH2 0x6EE JUMPI PUSH2 0x6EE PUSH2 0x626F JUMP JUMPDEST MUL OR SWAP1 SSTORE POP PUSH1 0x1 PUSH1 0x1 PUSH1 0xA0 SHL SUB DUP6 AND PUSH1 0x0 SWAP1 DUP2 MSTORE PUSH1 0x20 DUP2 SWAP1 MSTORE PUSH1 0x40 SWAP1 KECCAK256 PUSH1 0x4 ADD DUP1 SLOAD DUP6 SWAP2 SWAP1 PUSH1 0xFF NOT AND PUSH1 0x1 DUP4 PUSH1 0x5 DUP2 GT ISZERO PUSH2 0x72B JUMPI PUSH2 0x72B PUSH2 0x626F JUMP JUMPDEST MUL OR SWAP1 SSTORE POP PUSH1 0x1 PUSH1 0x1 PUSH1 0xA0 SHL SUB DUP6 AND PUSH1 0x0 SWAP1 DUP2 MSTORE PUSH1 0x20 DUP2 DUP2 MSTORE PUSH1 0x40 SWAP1 SWAP2 KECCAK256 DUP5 MLOAD PUSH2 0x75D SWAP3 PUSH1 0x5 SWAP1 SWAP3 ADD SWAP2 DUP7 ADD SWAP1 PUSH2 0x56B2 JUMP JUMPDEST POP POP POP POP POP POP JUMP JUMPDEST PUSH1 0x1 PUSH1 0x1 PUSH1 0xA0 SHL SUB DUP2 AND PUSH1 0x0 SWAP1 DUP2 MSTORE PUSH1 0x20 DUP2 DUP2 MSTORE PUSH1 0x40 DUP1 DUP4 KECCAK256 PUSH1 0x7 DUP2 ADD SLOAD PUSH1 0x6 SWAP1 SWAP2 ADD DUP1 SLOAD DUP4 MLOAD DUP2 DUP7 MUL DUP2 ADD DUP7 ADD SWAP1 SWAP5 MSTORE DUP1 DUP5 MSTORE PUSH1 0x60 SWAP5 PUSH1 0xFF SWAP1 SWAP4 AND SWAP4 SWAP2 SWAP3 DUP4 SWAP2 SWAP1 DUP4 ADD DUP3 DUP3 DUP1 ISZERO PUSH2 0x802 JUMPI PUSH1 0x20 MUL DUP3 ADD SWAP2 SWAP1 PUSH1 0x0 MSTORE PUSH1 0x20 PUSH1 0x0 KECCAK256 SWAP1 PUSH1 0x0 SWAP1 JUMPDEST DUP3 DUP3 SWAP1 SLOAD SWAP1 PUSH2 0x100 EXP SWAP1 DIV PUSH4 0xFFFFFFFF AND PUSH4 0xFFFFFFFF AND DUP2 MSTORE PUSH1 0x20 ADD SWAP1 PUSH1 0x4 ADD SWAP1 PUSH1 0x20 DUP3 PUSH1 0x3 ADD DIV SWAP3 DUP4 ADD SWAP3 PUSH1 0x1 SUB DUP3 MUL SWAP2 POP DUP1 DUP5 GT PUSH2 0x7C5 JUMPI SWAP1 POP JUMPDEST POP POP POP POP POP SWAP1 POP SWAP2 POP SWAP2 POP SWAP2 POP SWAP2 JUMP JUMPDEST PUSH1 0x60 PUSH1 0x0 DUP1 PUSH1 0x0 PUSH1 0x1 DUP8 PUSH1 0x40 MLOAD PUSH2 0x829 SWAP2 SWAP1 PUSH2 0x5E15 JUMP JUMPDEST SWAP1 DUP2 MSTORE PUSH1 0x40 DUP1 MLOAD PUSH1 0x20 SWAP3 DUP2 SWAP1 SUB DUP4 ADD SWAP1 KECCAK256 SLOAD PUSH1 0x1 PUSH1 0x1 PUSH1 0xA0 SHL SUB AND DUP4 MSTORE SWAP1 DUP3 ADD SWAP3 SWAP1 SWAP3 MSTORE DUP2 ADD PUSH1 0x0 KECCAK256 DUP2 MLOAD PUSH2 0x120 DUP2 ADD SWAP1 SWAP3 MSTORE DUP1 SLOAD DUP3 SWAP1 DUP3 SWAP1 PUSH2 0x86B SWAP1 PUSH2 0x61DF JUMP JUMPDEST DUP1 PUSH1 0x1F ADD PUSH1 0x20 DUP1 SWAP2 DIV MUL PUSH1 0x20 ADD PUSH1 0x40 MLOAD SWAP1 DUP2 ADD PUSH1 0x40 MSTORE DUP1 SWAP3 SWAP2 SWAP1 DUP2 DUP2 MSTORE PUSH1 0x20 ADD DUP3 DUP1 SLOAD PUSH2 0x897 SWAP1 PUSH2 0x61DF JUMP JUMPDEST DUP1 ISZERO PUSH2 0x8E4 JUMPI DUP1 PUSH1 0x1F LT PUSH2 0x8B9 JUMPI PUSH2 0x100 DUP1 DUP4 SLOAD DIV MUL DUP4 MSTORE SWAP2 PUSH1 0x20 ADD SWAP2 PUSH2 0x8E4 JUMP JUMPDEST DUP3 ADD SWAP2 SWAP1 PUSH1 0x0 MSTORE PUSH1 0x20 PUSH1 0x0 KECCAK256 SWAP1 JUMPDEST DUP2 SLOAD DUP2 MSTORE SWAP1 PUSH1 0x1 ADD SWAP1 PUSH1 0x20 ADD DUP1 DUP4 GT PUSH2 0x8C7 JUMPI DUP3 SWAP1 SUB PUSH1 0x1F AND DUP3 ADD SWAP2 JUMPDEST POP POP POP POP POP DUP2 MSTORE PUSH1 0x20 ADD PUSH1 0x1 DUP3 ADD DUP1 SLOAD PUSH2 0x8FD SWAP1 PUSH2 0x61DF JUMP JUMPDEST DUP1 PUSH1 0x1F ADD PUSH1 0x20 DUP1 SWAP2 DIV MUL PUSH1 0x20 ADD PUSH1 0x40 MLOAD SWAP1 DUP2 ADD PUSH1 0x40 MSTORE DUP1 SWAP3 SWAP2 SWAP1 DUP2 DUP2 MSTORE PUSH1 0x20 ADD DUP3 DUP1 SLOAD PUSH2 0x929 SWAP1 PUSH2 0x61DF JUMP JUMPDEST DUP1 ISZERO PUSH2 0x976 JUMPI DUP1 PUSH1 0x1F LT PUSH2 0x94B JUMPI PUSH2 0x100 DUP1 DUP4 SLOAD DIV MUL DUP4 MSTORE SWAP2 PUSH1 0x20 ADD SWAP2 PUSH2 0x976 JUMP JUMPDEST DUP3 ADD SWAP2 SWAP1 PUSH1 0x0 MSTORE PUSH1 0x20 PUSH1 0x0 KECCAK256 SWAP1 JUMPDEST DUP2 SLOAD DUP2 MSTORE SWAP1 PUSH1 0x1 ADD SWAP1 PUSH1 0x20 ADD DUP1 DUP4 GT PUSH2 0x959 JUMPI DUP3 SWAP1 SUB PUSH1 0x1F AND DUP3 ADD SWAP2 JUMPDEST POP POP POP SWAP2 DUP4 MSTORE POP POP PUSH1 0x2 DUP3 ADD SLOAD PUSH1 0x20 DUP3 ADD MSTORE PUSH1 0x3 DUP3 ADD SLOAD PUSH1 0x40 DUP3 ADD MSTORE PUSH1 0x4 DUP3 ADD SLOAD PUSH1 0x60 SWAP1 SWAP2 ADD SWAP1 PUSH1 0xFF AND PUSH1 0x5 DUP2 GT ISZERO PUSH2 0x9B1 JUMPI PUSH2 0x9B1 PUSH2 0x626F JUMP JUMPDEST PUSH1 0x5 DUP2 GT ISZERO PUSH2 0x9C2 JUMPI PUSH2 0x9C2 PUSH2 0x626F JUMP JUMPDEST DUP2 MSTORE PUSH1 0x20 ADD PUSH1 0x4 DUP3 ADD PUSH1 0x1 SWAP1 SLOAD SWAP1 PUSH2 0x100 EXP SWAP1 DIV PUSH1 0xFF AND PUSH1 0x5 DUP2 GT ISZERO PUSH2 0x9EA JUMPI PUSH2 0x9EA PUSH2 0x626F JUMP JUMPDEST PUSH1 0x5 DUP2 GT ISZERO PUSH2 0x9FB JUMPI PUSH2 0x9FB PUSH2 0x626F JUMP JUMPDEST DUP2 MSTORE PUSH1 0x20 ADD PUSH1 0x5 DUP3 ADD DUP1 SLOAD PUSH2 0xA0F SWAP1 PUSH2 0x61DF JUMP JUMPDEST DUP1 PUSH1 0x1F ADD PUSH1 0x20 DUP1 SWAP2 DIV MUL PUSH1 0x20 ADD PUSH1 0x40 MLOAD SWAP1 DUP2 ADD PUSH1 0x40 MSTORE DUP1 SWAP3 SWAP2 SWAP1 DUP2 DUP2 MSTORE PUSH1 0x20 ADD DUP3 DUP1 SLOAD PUSH2 0xA3B SWAP1 PUSH2 0x61DF JUMP JUMPDEST DUP1 ISZERO PUSH2 0xA88 JUMPI DUP1 PUSH1 0x1F LT PUSH2 0xA5D JUMPI PUSH2 0x100 DUP1 DUP4 SLOAD DIV MUL DUP4 MSTORE SWAP2 PUSH1 0x20 ADD SWAP2 PUSH2 0xA88 JUMP JUMPDEST DUP3 ADD SWAP2 SWAP1 PUSH1 0x0 MSTORE PUSH1 0x20 PUSH1 0x0 KECCAK256 SWAP1 JUMPDEST DUP2 SLOAD DUP2 MSTORE SWAP1 PUSH1 0x1 ADD SWAP1 PUSH1 0x20 ADD DUP1 DUP4 GT PUSH2 0xA6B JUMPI DUP3 SWAP1 SUB PUSH1 0x1F AND DUP3 ADD SWAP2 JUMPDEST POP POP POP POP POP DUP2 MSTORE PUSH1 0x20 ADD PUSH1 0x6 DUP3 ADD DUP1 SLOAD DUP1 PUSH1 0x20 MUL PUSH1 0x20 ADD PUSH1 0x40 MLOAD SWAP1 DUP2 ADD PUSH1 0x40 MSTORE DUP1 SWAP3 SWAP2 SWAP1 DUP2 DUP2 MSTORE PUSH1 0x20 ADD DUP3 DUP1 SLOAD DUP1 ISZERO PUSH2 0xB0C JUMPI PUSH1 0x20 MUL DUP3 ADD SWAP2 SWAP1 PUSH1 0x0 MSTORE PUSH1 0x20 PUSH1 0x0 KECCAK256 SWAP1 PUSH1 0x0 SWAP1 JUMPDEST DUP3 DUP3 SWAP1 SLOAD SWAP1 PUSH2 0x100 EXP SWAP1 DIV PUSH4 0xFFFFFFFF AND PUSH4 0xFFFFFFFF AND DUP2 MSTORE PUSH1 0x20 ADD SWAP1 PUSH1 0x4 ADD SWAP1 PUSH1 0x20 DUP3 PUSH1 0x3 ADD DIV SWAP3 DUP4 ADD SWAP3 PUSH1 0x1 SUB DUP3 MUL SWAP2 POP DUP1 DUP5 GT PUSH2 0xACF JUMPI SWAP1 POP JUMPDEST POP POP POP SWAP2 DUP4 MSTORE POP POP PUSH1 0x7 SWAP2 SWAP1 SWAP2 ADD SLOAD PUSH1 0xFF AND ISZERO ISZERO PUSH1 0x20 SWAP1 SWAP2 ADD MSTORE PUSH2 0x100 DUP2 ADD MLOAD SWAP1 SWAP2 POP PUSH2 0xB71 JUMPI PUSH1 0x40 MLOAD PUSH3 0x461BCD PUSH1 0xE5 SHL DUP2 MSTORE PUSH1 0x20 PUSH1 0x4 DUP3 ADD MSTORE PUSH1 0x13 PUSH1 0x24 DUP3 ADD MSTORE PUSH19 0x155CD95C88191BD95CC81B9BDD08195E1A5CDD PUSH1 0x6A SHL PUSH1 0x44 DUP3 ADD MSTORE PUSH1 0x64 ADD PUSH2 0x5E6 JUMP JUMPDEST DUP1 PUSH1 0x40 ADD MLOAD DUP5 PUSH1 0x40 MLOAD PUSH1 0x20 ADD PUSH2 0xB87 SWAP2 SWAP1 PUSH2 0x5E15 JUMP JUMPDEST PUSH1 0x40 MLOAD PUSH1 0x20 DUP2 DUP4 SUB SUB DUP2 MSTORE SWAP1 PUSH1 0x40 MSTORE DUP1 MLOAD SWAP1 PUSH1 0x20 ADD KECCAK256 EQ DUP1 ISZERO PUSH2 0xBD3 JUMPI POP DUP1 PUSH1 0x60 ADD MLOAD DUP4 PUSH1 0x40 MLOAD PUSH1 0x20 ADD PUSH2 0xBBB SWAP2 SWAP1 PUSH2 0x5E15 JUMP JUMPDEST PUSH1 0x40 MLOAD PUSH1 0x20 DUP2 DUP4 SUB SUB DUP2 MSTORE SWAP1 PUSH1 0x40 MSTORE DUP1 MLOAD SWAP1 PUSH1 0x20 ADD KECCAK256 EQ JUMPDEST PUSH2 0xC1F JUMPI PUSH1 0x40 MLOAD PUSH3 0x461BCD PUSH1 0xE5 SHL DUP2 MSTORE PUSH1 0x20 PUSH1 0x4 DUP3 ADD MSTORE PUSH1 0x18 PUSH1 0x24 DUP3 ADD MSTORE PUSH32 0x57726F6E672070617373776F7264206F72207365637265740000000000000000 PUSH1 0x44 DUP3 ADD MSTORE PUSH1 0x64 ADD PUSH2 0x5E6 JUMP JUMPDEST POP SWAP3 SWAP4 SWAP3 POP POP POP JUMP JUMPDEST PUSH1 0x60 PUSH1 0x0 DUP1 PUSH1 0x6 DUP1 SLOAD SWAP1 POP PUSH8 0xFFFFFFFFFFFFFFFF DUP2 GT ISZERO PUSH2 0xC4B JUMPI PUSH2 0xC4B PUSH2 0x629B JUMP JUMPDEST PUSH1 0x40 MLOAD SWAP1 DUP1 DUP3 MSTORE DUP1 PUSH1 0x20 MUL PUSH1 0x20 ADD DUP3 ADD PUSH1 0x40 MSTORE DUP1 ISZERO PUSH2 0xC74 JUMPI DUP2 PUSH1 0x20 ADD PUSH1 0x20 DUP3 MUL DUP1 CALLDATASIZE DUP4 CALLDATACOPY ADD SWAP1 POP JUMPDEST POP SWAP1 POP PUSH1 0x0 JUMPDEST PUSH1 0x6 SLOAD DUP2 LT ISZERO PUSH2 0xDFB JUMPI PUSH2 0xD70 PUSH1 0x5 PUSH1 0x0 PUSH1 0x6 DUP5 DUP2 SLOAD DUP2 LT PUSH2 0xC9E JUMPI PUSH2 0xC9E PUSH2 0x6285 JUMP JUMPDEST SWAP1 PUSH1 0x0 MSTORE PUSH1 0x20 PUSH1 0x0 KECCAK256 SWAP1 PUSH1 0x8 SWAP2 DUP3 DUP3 DIV ADD SWAP2 SWAP1 MOD PUSH1 0x4 MUL SWAP1 SLOAD SWAP1 PUSH2 0x100 EXP SWAP1 DIV PUSH4 0xFFFFFFFF AND PUSH4 0xFFFFFFFF AND PUSH4 0xFFFFFFFF AND DUP2 MSTORE PUSH1 0x20 ADD SWAP1 DUP2 MSTORE PUSH1 0x20 ADD PUSH1 0x0 KECCAK256 PUSH1 0x1 ADD DUP1 SLOAD PUSH2 0xCEC SWAP1 PUSH2 0x61DF JUMP JUMPDEST DUP1 PUSH1 0x1F ADD PUSH1 0x20 DUP1 SWAP2 DIV MUL PUSH1 0x20 ADD PUSH1 0x40 MLOAD SWAP1 DUP2 ADD PUSH1 0x40 MSTORE DUP1 SWAP3 SWAP2 SWAP1 DUP2 DUP2 MSTORE PUSH1 0x20 ADD DUP3 DUP1 SLOAD PUSH2 0xD18 SWAP1 PUSH2 0x61DF JUMP JUMPDEST DUP1 ISZERO PUSH2 0xD65 JUMPI DUP1 PUSH1 0x1F LT PUSH2 0xD3A JUMPI PUSH2 0x100 DUP1 DUP4 SLOAD DIV MUL DUP4 MSTORE SWAP2 PUSH1 0x20 ADD SWAP2 PUSH2 0xD65 JUMP JUMPDEST DUP3 ADD SWAP2 SWAP1 PUSH1 0x0 MSTORE PUSH1 0x20 PUSH1 0x0 KECCAK256 SWAP1 JUMPDEST DUP2 SLOAD DUP2 MSTORE SWAP1 PUSH1 0x1 ADD SWAP1 PUSH1 0x20 ADD DUP1 DUP4 GT PUSH2 0xD48 JUMPI DUP3 SWAP1 SUB PUSH1 0x1F AND DUP3 ADD SWAP2 JUMPDEST POP POP POP POP POP DUP7 PUSH2 0x5117 JUMP JUMPDEST ISZERO PUSH2 0xDE9 JUMPI PUSH1 0x6 DUP2 DUP2 SLOAD DUP2 LT PUSH2 0xD88 JUMPI PUSH2 0xD88 PUSH2 0x6285 JUMP JUMPDEST SWAP1 PUSH1 0x0 MSTORE PUSH1 0x20 PUSH1 0x0 KECCAK256 SWAP1 PUSH1 0x8 SWAP2 DUP3 DUP3 DIV ADD SWAP2 SWAP1 MOD PUSH1 0x4 MUL SWAP1 SLOAD SWAP1 PUSH2 0x100 EXP SWAP1 DIV PUSH4 0xFFFFFFFF AND DUP3 DUP5 PUSH4 0xFFFFFFFF AND DUP2 MLOAD DUP2 LT PUSH2 0xDC6 JUMPI PUSH2 0xDC6 PUSH2 0x6285 JUMP JUMPDEST PUSH4 0xFFFFFFFF SWAP1 SWAP3 AND PUSH1 0x20 SWAP3 DUP4 MUL SWAP2 SWAP1 SWAP2 ADD SWAP1 SWAP2 ADD MSTORE DUP3 PUSH2 0xDE5 DUP2 PUSH2 0x6235 JUMP JUMPDEST SWAP4 POP POP JUMPDEST DUP1 PUSH2 0xDF3 DUP2 PUSH2 0x621A JUMP JUMPDEST SWAP2 POP POP PUSH2 0xC7A JUMP JUMPDEST POP DUP2 PUSH4 0xFFFFFFFF AND PUSH8 0xFFFFFFFFFFFFFFFF DUP2 GT ISZERO PUSH2 0xE1B JUMPI PUSH2 0xE1B PUSH2 0x629B JUMP JUMPDEST PUSH1 0x40 MLOAD SWAP1 DUP1 DUP3 MSTORE DUP1 PUSH1 0x20 MUL PUSH1 0x20 ADD DUP3 ADD PUSH1 0x40 MSTORE DUP1 ISZERO PUSH2 0xE44 JUMPI DUP2 PUSH1 0x20 ADD PUSH1 0x20 DUP3 MUL DUP1 CALLDATASIZE DUP4 CALLDATACOPY ADD SWAP1 POP JUMPDEST POP SWAP3 POP PUSH1 0x0 JUMPDEST DUP3 PUSH4 0xFFFFFFFF AND DUP2 LT ISZERO PUSH2 0xEAB JUMPI DUP2 DUP2 DUP2 MLOAD DUP2 LT PUSH2 0xE6A JUMPI PUSH2 0xE6A PUSH2 0x6285 JUMP JUMPDEST PUSH1 0x20 MUL PUSH1 0x20 ADD ADD MLOAD DUP5 DUP3 DUP2 MLOAD DUP2 LT PUSH2 0xE84 JUMPI PUSH2 0xE84 PUSH2 0x6285 JUMP JUMPDEST PUSH4 0xFFFFFFFF SWAP1 SWAP3 AND PUSH1 0x20 SWAP3 DUP4 MUL SWAP2 SWAP1 SWAP2 ADD SWAP1 SWAP2 ADD MSTORE DUP1 PUSH2 0xEA3 DUP2 PUSH2 0x621A JUMP JUMPDEST SWAP2 POP POP PUSH2 0xE4A JUMP JUMPDEST POP POP POP SWAP2 SWAP1 POP JUMP JUMPDEST CALLER PUSH1 0x0 SWAP1 DUP2 MSTORE PUSH1 0x20 DUP2 SWAP1 MSTORE PUSH1 0x40 DUP1 DUP3 KECCAK256 DUP2 MLOAD PUSH2 0x120 DUP2 ADD SWAP1 SWAP3 MSTORE DUP1 SLOAD DUP3 SWAP1 DUP3 SWAP1 PUSH2 0xEDC SWAP1 PUSH2 0x61DF JUMP JUMPDEST DUP1 PUSH1 0x1F ADD PUSH1 0x20 DUP1 SWAP2 DIV MUL PUSH1 0x20 ADD PUSH1 0x40 MLOAD SWAP1 DUP2 ADD PUSH1 0x40 MSTORE DUP1 SWAP3 SWAP2 SWAP1 DUP2 DUP2 MSTORE PUSH1 0x20 ADD DUP3 DUP1 SLOAD PUSH2 0xF08 SWAP1 PUSH2 0x61DF JUMP JUMPDEST DUP1 ISZERO PUSH2 0xF55 JUMPI DUP1 PUSH1 0x1F LT PUSH2 0xF2A JUMPI PUSH2 0x100 DUP1 DUP4 SLOAD DIV MUL DUP4 MSTORE SWAP2 PUSH1 0x20 ADD SWAP2 PUSH2 0xF55 JUMP JUMPDEST DUP3 ADD SWAP2 SWAP1 PUSH1 0x0 MSTORE PUSH1 0x20 PUSH1 0x0 KECCAK256 SWAP1 JUMPDEST DUP2 SLOAD DUP2 MSTORE SWAP1 PUSH1 0x1 ADD SWAP1 PUSH1 0x20 ADD DUP1 DUP4 GT PUSH2 0xF38 JUMPI DUP3 SWAP1 SUB PUSH1 0x1F AND DUP3 ADD SWAP2 JUMPDEST POP POP POP POP POP DUP2 MSTORE PUSH1 0x20 ADD PUSH1 0x1 DUP3 ADD DUP1 SLOAD PUSH2 0xF6E SWAP1 PUSH2 0x61DF JUMP JUMPDEST DUP1 PUSH1 0x1F ADD PUSH1 0x20 DUP1 SWAP2 DIV MUL PUSH1 0x20 ADD PUSH1 0x40 MLOAD SWAP1 DUP2 ADD PUSH1 0x40 MSTORE DUP1 SWAP3 SWAP2 SWAP1 DUP2 DUP2 MSTORE PUSH1 0x20 ADD DUP3 DUP1 SLOAD PUSH2 0xF9A SWAP1 PUSH2 0x61DF JUMP JUMPDEST DUP1 ISZERO PUSH2 0xFE7 JUMPI DUP1 PUSH1 0x1F LT PUSH2 0xFBC JUMPI PUSH2 0x100 DUP1 DUP4 SLOAD DIV MUL DUP4 MSTORE SWAP2 PUSH1 0x20 ADD SWAP2 PUSH2 0xFE7 JUMP JUMPDEST DUP3 ADD SWAP2 SWAP1 PUSH1 0x0 MSTORE PUSH1 0x20 PUSH1 0x0 KECCAK256 SWAP1 JUMPDEST DUP2 SLOAD DUP2 MSTORE SWAP1 PUSH1 0x1 ADD SWAP1 PUSH1 0x20 ADD DUP1 DUP4 GT PUSH2 0xFCA JUMPI DUP3 SWAP1 SUB PUSH1 0x1F AND DUP3 ADD SWAP2 JUMPDEST POP POP POP SWAP2 DUP4 MSTORE POP POP PUSH1 0x2 DUP3 ADD SLOAD PUSH1 0x20 DUP3 ADD MSTORE PUSH1 0x3 DUP3 ADD SLOAD PUSH1 0x40 DUP3 ADD MSTORE PUSH1 0x4 DUP3 ADD SLOAD PUSH1 0x60 SWAP1 SWAP2 ADD SWAP1 PUSH1 0xFF AND PUSH1 0x5 DUP2 GT ISZERO PUSH2 0x1022 JUMPI PUSH2 0x1022 PUSH2 0x626F JUMP JUMPDEST PUSH1 0x5 DUP2 GT ISZERO PUSH2 0x1033 JUMPI PUSH2 0x1033 PUSH2 0x626F JUMP JUMPDEST DUP2 MSTORE PUSH1 0x20 ADD PUSH1 0x4 DUP3 ADD PUSH1 0x1 SWAP1 SLOAD SWAP1 PUSH2 0x100 EXP SWAP1 DIV PUSH1 0xFF AND PUSH1 0x5 DUP2 GT ISZERO PUSH2 0x105B JUMPI PUSH2 0x105B PUSH2 0x626F JUMP JUMPDEST PUSH1 0x5 DUP2 GT ISZERO PUSH2 0x106C JUMPI PUSH2 0x106C PUSH2 0x626F JUMP JUMPDEST DUP2 MSTORE PUSH1 0x20 ADD PUSH1 0x5 DUP3 ADD DUP1 SLOAD PUSH2 0x1080 SWAP1 PUSH2 0x61DF JUMP JUMPDEST DUP1 PUSH1 0x1F ADD PUSH1 0x20 DUP1 SWAP2 DIV MUL PUSH1 0x20 ADD PUSH1 0x40 MLOAD SWAP1 DUP2 ADD PUSH1 0x40 MSTORE DUP1 SWAP3 SWAP2 SWAP1 DUP2 DUP2 MSTORE PUSH1 0x20 ADD DUP3 DUP1 SLOAD PUSH2 0x10AC SWAP1 PUSH2 0x61DF JUMP JUMPDEST DUP1 ISZERO PUSH2 0x10F9 JUMPI DUP1 PUSH1 0x1F LT PUSH2 0x10CE JUMPI PUSH2 0x100 DUP1 DUP4 SLOAD DIV MUL DUP4 MSTORE SWAP2 PUSH1 0x20 ADD SWAP2 PUSH2 0x10F9 JUMP JUMPDEST DUP3 ADD SWAP2 SWAP1 PUSH1 0x0 MSTORE PUSH1 0x20 PUSH1 0x0 KECCAK256 SWAP1 JUMPDEST DUP2 SLOAD DUP2 MSTORE SWAP1 PUSH1 0x1 ADD SWAP1 PUSH1 0x20 ADD DUP1 DUP4 GT PUSH2 0x10DC JUMPI DUP3 SWAP1 SUB PUSH1 0x1F AND DUP3 ADD SWAP2 JUMPDEST POP POP POP POP POP DUP2 MSTORE PUSH1 0x20 ADD PUSH1 0x6 DUP3 ADD DUP1 SLOAD DUP1 PUSH1 0x20 MUL PUSH1 0x20 ADD PUSH1 0x40 MLOAD SWAP1 DUP2 ADD PUSH1 0x40 MSTORE DUP1 SWAP3 SWAP2 SWAP1 DUP2 DUP2 MSTORE PUSH1 0x20 ADD DUP3 DUP1 SLOAD DUP1 ISZERO PUSH2 0x117D JUMPI PUSH1 0x20 MUL DUP3 ADD SWAP2 SWAP1 PUSH1 0x0 MSTORE PUSH1 0x20 PUSH1 0x0 KECCAK256 SWAP1 PUSH1 0x0 SWAP1 JUMPDEST DUP3 DUP3 SWAP1 SLOAD SWAP1 PUSH2 0x100 EXP SWAP1 DIV PUSH4 0xFFFFFFFF AND PUSH4 0xFFFFFFFF AND DUP2 MSTORE PUSH1 0x20 ADD SWAP1 PUSH1 0x4 ADD SWAP1 PUSH1 0x20 DUP3 PUSH1 0x3 ADD DIV SWAP3 DUP4 ADD SWAP3 PUSH1 0x1 SUB DUP3 MUL SWAP2 POP DUP1 DUP5 GT PUSH2 0x1140 JUMPI SWAP1 POP JUMPDEST POP POP POP SWAP2 DUP4 MSTORE POP POP PUSH1 0x7 SWAP2 SWAP1 SWAP2 ADD SLOAD PUSH1 0xFF AND ISZERO ISZERO PUSH1 0x20 SWAP1 SWAP2 ADD MSTORE SWAP1 POP PUSH1 0x0 DUP2 PUSH1 0xA0 ADD MLOAD PUSH1 0x5 DUP2 GT ISZERO PUSH2 0x11B1 JUMPI PUSH2 0x11B1 PUSH2 0x626F JUMP JUMPDEST EQ DUP1 PUSH2 0x11D2 JUMPI POP PUSH1 0x1 DUP2 PUSH1 0xA0 ADD MLOAD PUSH1 0x5 DUP2 GT ISZERO PUSH2 0x11D0 JUMPI PUSH2 0x11D0 PUSH2 0x626F JUMP JUMPDEST EQ JUMPDEST PUSH1 0x40 MLOAD DUP1 PUSH1 0x60 ADD PUSH1 0x40 MSTORE DUP1 PUSH1 0x2F DUP2 MSTORE PUSH1 0x20 ADD PUSH2 0x62D5 PUSH1 0x2F SWAP2 CODECOPY SWAP1 PUSH2 0x1209 JUMPI PUSH1 0x40 MLOAD PUSH3 0x461BCD PUSH1 0xE5 SHL DUP2 MSTORE PUSH1 0x4 ADD PUSH2 0x5E6 SWAP2 SWAP1 PUSH2 0x60EA JUMP JUMPDEST POP DUP3 DUP3 PUSH1 0x1 DUP3 PUSH1 0x5 DUP2 GT ISZERO PUSH2 0x1220 JUMPI PUSH2 0x1220 PUSH2 0x626F JUMP JUMPDEST EQ ISZERO PUSH2 0x12CE JUMPI PUSH2 0x123F DUP2 PUSH1 0x40 MLOAD DUP1 PUSH1 0x20 ADD PUSH1 0x40 MSTORE DUP1 PUSH1 0x0 DUP2 MSTORE POP PUSH2 0x5117 JUMP JUMPDEST ISZERO PUSH2 0x125C JUMPI PUSH1 0x40 MLOAD PUSH3 0x461BCD PUSH1 0xE5 SHL DUP2 MSTORE PUSH1 0x4 ADD PUSH2 0x5E6 SWAP1 PUSH2 0x60FD JUMP JUMPDEST PUSH1 0x3 DUP2 PUSH1 0x40 MLOAD PUSH2 0x126C SWAP2 SWAP1 PUSH2 0x5E15 JUMP JUMPDEST SWAP1 DUP2 MSTORE PUSH1 0x40 MLOAD SWAP1 DUP2 SWAP1 SUB PUSH1 0x20 ADD SWAP1 KECCAK256 PUSH1 0x1 ADD SLOAD PUSH1 0xFF PUSH1 0x1 PUSH1 0xA0 SHL SWAP1 SWAP2 DIV AND PUSH2 0x12CE JUMPI PUSH1 0x40 MLOAD PUSH3 0x461BCD PUSH1 0xE5 SHL DUP2 MSTORE PUSH1 0x20 PUSH1 0x4 DUP3 ADD MSTORE PUSH1 0x15 PUSH1 0x24 DUP3 ADD MSTORE PUSH21 0x5468657265206973206E6F20737563682073686F7 PUSH1 0x5C SHL PUSH1 0x44 DUP3 ADD MSTORE PUSH1 0x64 ADD PUSH2 0x5E6 JUMP JUMPDEST CALLER PUSH1 0x0 SWAP1 DUP2 MSTORE PUSH1 0x7 PUSH1 0x20 MSTORE PUSH1 0x40 SWAP1 KECCAK256 PUSH1 0x2 ADD SLOAD PUSH1 0xFF AND ISZERO PUSH2 0x1343 JUMPI PUSH1 0x40 MLOAD PUSH3 0x461BCD PUSH1 0xE5 SHL DUP2 MSTORE PUSH1 0x20 PUSH1 0x4 DUP3 ADD MSTORE PUSH1 0x29 PUSH1 0x24 DUP3 ADD MSTORE PUSH32 0x596F75206861766520616C72656164792073656E7420616E20656C6576617465 PUSH1 0x44 DUP3 ADD MSTORE PUSH9 0x207265717565737421 PUSH1 0xB8 SHL PUSH1 0x64 DUP3 ADD MSTORE PUSH1 0x84 ADD PUSH2 0x5E6 JUMP JUMPDEST PUSH1 0x40 MLOAD DUP1 PUSH1 0x80 ADD PUSH1 0x40 MSTORE DUP1 CALLER PUSH1 0x1 PUSH1 0x1 PUSH1 0xA0 SHL SUB AND DUP2 MSTORE PUSH1 0x20 ADD DUP7 PUSH1 0x5 DUP2 GT ISZERO PUSH2 0x136F JUMPI PUSH2 0x136F PUSH2 0x626F JUMP JUMPDEST DUP2 MSTORE PUSH1 0x20 DUP1 DUP3 ADD DUP8 SWAP1 MSTORE PUSH1 0x1 PUSH1 0x40 SWAP3 DUP4 ADD MSTORE CALLER PUSH1 0x0 SWAP1 DUP2 MSTORE PUSH1 0x7 DUP3 MSTORE SWAP2 SWAP1 SWAP2 KECCAK256 DUP3 MLOAD DUP2 SLOAD PUSH1 0x1 PUSH1 0x1 PUSH1 0xA0 SHL SUB SWAP2 SWAP1 SWAP2 AND PUSH1 0x1 PUSH1 0x1 PUSH1 0xA0 SHL SUB NOT DUP3 AND DUP2 OR DUP4 SSTORE SWAP3 DUP5 ADD MLOAD SWAP2 SWAP3 DUP4 SWAP2 PUSH1 0x1 PUSH1 0x1 PUSH1 0xA8 SHL SUB NOT AND OR PUSH1 0x1 PUSH1 0xA0 SHL DUP4 PUSH1 0x5 DUP2 GT ISZERO PUSH2 0x13D8 JUMPI PUSH2 0x13D8 PUSH2 0x626F JUMP JUMPDEST MUL OR SWAP1 SSTORE POP PUSH1 0x40 DUP3 ADD MLOAD DUP1 MLOAD PUSH2 0x13F8 SWAP2 PUSH1 0x1 DUP5 ADD SWAP2 PUSH1 0x20 SWAP1 SWAP2 ADD SWAP1 PUSH2 0x56B2 JUMP JUMPDEST POP PUSH1 0x60 SWAP2 SWAP1 SWAP2 ADD MLOAD PUSH1 0x2 SWAP1 SWAP2 ADD DUP1 SLOAD SWAP2 ISZERO ISZERO PUSH1 0xFF NOT SWAP1 SWAP3 AND SWAP2 SWAP1 SWAP2 OR SWAP1 SSTORE POP POP PUSH1 0x8 DUP1 SLOAD PUSH1 0x1 DUP2 ADD DUP3 SSTORE PUSH1 0x0 SWAP2 SWAP1 SWAP2 MSTORE PUSH32 0xF3F7A9FE364FAAB93B216DA50A3214154F22A0A2B415B23A84C8169E8B636EE3 ADD DUP1 SLOAD PUSH1 0x1 PUSH1 0x1 PUSH1 0xA0 SHL SUB NOT AND CALLER OR SWAP1 SSTORE POP POP POP JUMP JUMPDEST PUSH1 0x0 PUSH1 0x1 DUP3 PUSH1 0x40 MLOAD PUSH2 0x1471 SWAP2 SWAP1 PUSH2 0x5E15 JUMP JUMPDEST SWAP1 DUP2 MSTORE PUSH1 0x40 MLOAD SWAP1 DUP2 SWAP1 SUB PUSH1 0x20 ADD SWAP1 KECCAK256 SLOAD PUSH1 0x1 PUSH1 0x1 PUSH1 0xA0 SHL SUB AND SWAP3 SWAP2 POP POP JUMP JUMPDEST CALLER PUSH1 0x0 SWAP1 DUP2 MSTORE PUSH1 0x20 DUP2 SWAP1 MSTORE PUSH1 0x40 DUP1 DUP3 KECCAK256 DUP2 MLOAD PUSH2 0x120 DUP2 ADD SWAP1 SWAP3 MSTORE DUP1 SLOAD DUP3 SWAP1 DUP3 SWAP1 PUSH2 0x14B9 SWAP1 PUSH2 0x61DF JUMP JUMPDEST DUP1 PUSH1 0x1F ADD PUSH1 0x20 DUP1 SWAP2 DIV MUL PUSH1 0x20 ADD PUSH1 0x40 MLOAD SWAP1 DUP2 ADD PUSH1 0x40 MSTORE DUP1 SWAP3 SWAP2 SWAP1 DUP2 DUP2 MSTORE PUSH1 0x20 ADD DUP3 DUP1 SLOAD PUSH2 0x14E5 SWAP1 PUSH2 0x61DF JUMP JUMPDEST DUP1 ISZERO PUSH2 0x1532 JUMPI DUP1 PUSH1 0x1F LT PUSH2 0x1507 JUMPI PUSH2 0x100 DUP1 DUP4 SLOAD DIV MUL DUP4 MSTORE SWAP2 PUSH1 0x20 ADD SWAP2 PUSH2 0x1532 JUMP JUMPDEST DUP3 ADD SWAP2 SWAP1 PUSH1 0x0 MSTORE PUSH1 0x20 PUSH1 0x0 KECCAK256 SWAP1 JUMPDEST DUP2 SLOAD DUP2 MSTORE SWAP1 PUSH1 0x1 ADD SWAP1 PUSH1 0x20 ADD DUP1 DUP4 GT PUSH2 0x1515 JUMPI DUP3 SWAP1 SUB PUSH1 0x1F AND DUP3 ADD SWAP2 JUMPDEST POP POP POP POP POP DUP2 MSTORE PUSH1 0x20 ADD PUSH1 0x1 DUP3 ADD DUP1 SLOAD PUSH2 0x154B SWAP1 PUSH2 0x61DF JUMP JUMPDEST DUP1 PUSH1 0x1F ADD PUSH1 0x20 DUP1 SWAP2 DIV MUL PUSH1 0x20 ADD PUSH1 0x40 MLOAD SWAP1 DUP2 ADD PUSH1 0x40 MSTORE DUP1 SWAP3 SWAP2 SWAP1 DUP2 DUP2 MSTORE PUSH1 0x20 ADD DUP3 DUP1 SLOAD PUSH2 0x1577 SWAP1 PUSH2 0x61DF JUMP JUMPDEST DUP1 ISZERO PUSH2 0x15C4 JUMPI DUP1 PUSH1 0x1F LT PUSH2 0x1599 JUMPI PUSH2 0x100 DUP1 DUP4 SLOAD DIV MUL DUP4 MSTORE SWAP2 PUSH1 0x20 ADD SWAP2 PUSH2 0x15C4 JUMP JUMPDEST DUP3 ADD SWAP2 SWAP1 PUSH1 0x0 MSTORE PUSH1 0x20 PUSH1 0x0 KECCAK256 SWAP1 JUMPDEST DUP2 SLOAD DUP2 MSTORE SWAP1 PUSH1 0x1 ADD SWAP1 PUSH1 0x20 ADD DUP1 DUP4 GT PUSH2 0x15A7 JUMPI DUP3 SWAP1 SUB PUSH1 0x1F AND DUP3 ADD SWAP2 JUMPDEST POP POP POP SWAP2 DUP4 MSTORE POP POP PUSH1 0x2 DUP3 ADD SLOAD PUSH1 0x20 DUP3 ADD MSTORE PUSH1 0x3 DUP3 ADD SLOAD PUSH1 0x40 DUP3 ADD MSTORE PUSH1 0x4 DUP3 ADD SLOAD PUSH1 0x60 SWAP1 SWAP2 ADD SWAP1 PUSH1 0xFF AND PUSH1 0x5 DUP2 GT ISZERO PUSH2 0x15FF JUMPI PUSH2 0x15FF PUSH2 0x626F JUMP JUMPDEST PUSH1 0x5 DUP2 GT ISZERO PUSH2 0x1610 JUMPI PUSH2 0x1610 PUSH2 0x626F JUMP JUMPDEST DUP2 MSTORE PUSH1 0x20 ADD PUSH1 0x4 DUP3 ADD PUSH1 0x1 SWAP1 SLOAD SWAP1 PUSH2 0x100 EXP SWAP1 DIV PUSH1 0xFF AND PUSH1 0x5 DUP2 GT ISZERO PUSH2 0x1638 JUMPI PUSH2 0x1638 PUSH2 0x626F JUMP JUMPDEST PUSH1 0x5 DUP2 GT ISZERO PUSH2 0x1649 JUMPI PUSH2 0x1649 PUSH2 0x626F JUMP JUMPDEST DUP2 MSTORE PUSH1 0x20 ADD PUSH1 0x5 DUP3 ADD DUP1 SLOAD PUSH2 0x165D SWAP1 PUSH2 0x61DF JUMP JUMPDEST DUP1 PUSH1 0x1F ADD PUSH1 0x20 DUP1 SWAP2 DIV MUL PUSH1 0x20 ADD PUSH1 0x40 MLOAD SWAP1 DUP2 ADD PUSH1 0x40 MSTORE DUP1 SWAP3 SWAP2 SWAP1 DUP2 DUP2 MSTORE PUSH1 0x20 ADD DUP3 DUP1 SLOAD PUSH2 0x1689 SWAP1 PUSH2 0x61DF JUMP JUMPDEST DUP1 ISZERO PUSH2 0x16D6 JUMPI DUP1 PUSH1 0x1F LT PUSH2 0x16AB JUMPI PUSH2 0x100 DUP1 DUP4 SLOAD DIV MUL DUP4 MSTORE SWAP2 PUSH1 0x20 ADD SWAP2 PUSH2 0x16D6 JUMP JUMPDEST DUP3 ADD SWAP2 SWAP1 PUSH1 0x0 MSTORE PUSH1 0x20 PUSH1 0x0 KECCAK256 SWAP1 JUMPDEST DUP2 SLOAD DUP2 MSTORE SWAP1 PUSH1 0x1 ADD SWAP1 PUSH1 0x20 ADD DUP1 DUP4 GT PUSH2 0x16B9 JUMPI DUP3 SWAP1 SUB PUSH1 0x1F AND DUP3 ADD SWAP2 JUMPDEST POP POP POP POP POP DUP2 MSTORE PUSH1 0x20 ADD PUSH1 0x6 DUP3 ADD DUP1 SLOAD DUP1 PUSH1 0x20 MUL PUSH1 0x20 ADD PUSH1 0x40 MLOAD SWAP1 DUP2 ADD PUSH1 0x40 MSTORE DUP1 SWAP3 SWAP2 SWAP1 DUP2 DUP2 MSTORE PUSH1 0x20 ADD DUP3 DUP1 SLOAD DUP1 ISZERO PUSH2 0x175A JUMPI PUSH1 0x20 MUL DUP3 ADD SWAP2 SWAP1 PUSH1 0x0 MSTORE PUSH1 0x20 PUSH1 0x0 KECCAK256 SWAP1 PUSH1 0x0 SWAP1 JUMPDEST DUP3 DUP3 SWAP1 SLOAD SWAP1 PUSH2 0x100 EXP SWAP1 DIV PUSH4 0xFFFFFFFF AND PUSH4 0xFFFFFFFF AND DUP2 MSTORE PUSH1 0x20 ADD SWAP1 PUSH1 0x4 ADD SWAP1 PUSH1 0x20 DUP3 PUSH1 0x3 ADD DIV SWAP3 DUP4 ADD SWAP3 PUSH1 0x1 SUB DUP3 MUL SWAP2 POP DUP1 DUP5 GT PUSH2 0x171D JUMPI SWAP1 POP JUMPDEST POP POP POP SWAP2 DUP4 MSTORE POP POP PUSH1 0x7 SWAP2 SWAP1 SWAP2 ADD SLOAD PUSH1 0xFF AND ISZERO ISZERO PUSH1 0x20 SWAP1 SWAP2 ADD MSTORE PUSH1 0x80 DUP2 ADD MLOAD SWAP1 SWAP2 POP PUSH1 0x5 DUP2 GT ISZERO PUSH2 0x178D JUMPI PUSH2 0x178D PUSH2 0x626F JUMP JUMPDEST DUP3 PUSH1 0x5 DUP2 GT ISZERO PUSH2 0x179F JUMPI PUSH2 0x179F PUSH2 0x626F JUMP JUMPDEST LT PUSH2 0x17C6 JUMPI PUSH1 0x40 MLOAD PUSH3 0x461BCD PUSH1 0xE5 SHL DUP2 MSTORE PUSH1 0x20 PUSH1 0x4 DUP3 ADD MSTORE PUSH1 0x0 PUSH1 0x24 DUP3 ADD MSTORE PUSH1 0x44 ADD PUSH2 0x5E6 JUMP JUMPDEST POP POP JUMP JUMPDEST PUSH1 0x60 PUSH1 0x4 DUP1 SLOAD DUP1 PUSH1 0x20 MUL PUSH1 0x20 ADD PUSH1 0x40 MLOAD SWAP1 DUP2 ADD PUSH1 0x40 MSTORE DUP1 SWAP3 SWAP2 SWAP1 DUP2 DUP2 MSTORE PUSH1 0x20 ADD PUSH1 0x0 SWAP1 JUMPDEST DUP3 DUP3 LT ISZERO PUSH2 0x189A JUMPI DUP4 DUP3 SWAP1 PUSH1 0x0 MSTORE PUSH1 0x20 PUSH1 0x0 KECCAK256 ADD DUP1 SLOAD PUSH2 0x180D SWAP1 PUSH2 0x61DF JUMP JUMPDEST DUP1 PUSH1 0x1F ADD PUSH1 0x20 DUP1 SWAP2 DIV MUL PUSH1 0x20 ADD PUSH1 0x40 MLOAD SWAP1 DUP2 ADD PUSH1 0x40 MSTORE DUP1 SWAP3 SWAP2 SWAP1 DUP2 DUP2 MSTORE PUSH1 0x20 ADD DUP3 DUP1 SLOAD PUSH2 0x1839 SWAP1 PUSH2 0x61DF JUMP JUMPDEST DUP1 ISZERO PUSH2 0x1886 JUMPI DUP1 PUSH1 0x1F LT PUSH2 0x185B JUMPI PUSH2 0x100 DUP1 DUP4 SLOAD DIV MUL DUP4 MSTORE SWAP2 PUSH1 0x20 ADD SWAP2 PUSH2 0x1886 JUMP JUMPDEST DUP3 ADD SWAP2 SWAP1 PUSH1 0x0 MSTORE PUSH1 0x20 PUSH1 0x0 KECCAK256 SWAP1 JUMPDEST DUP2 SLOAD DUP2 MSTORE SWAP1 PUSH1 0x1 ADD SWAP1 PUSH1 0x20 ADD DUP1 DUP4 GT PUSH2 0x1869 JUMPI DUP3 SWAP1 SUB PUSH1 0x1F AND DUP3 ADD SWAP2 JUMPDEST POP POP POP POP POP DUP2 MSTORE PUSH1 0x20 ADD SWAP1 PUSH1 0x1 ADD SWAP1 PUSH2 0x17EE JUMP JUMPDEST POP POP POP POP SWAP1 POP SWAP1 JUMP JUMPDEST PUSH1 0x5 CALLER PUSH1 0x0 SWAP1 DUP2 MSTORE PUSH1 0x20 DUP2 SWAP1 MSTORE PUSH1 0x40 SWAP1 KECCAK256 PUSH1 0x4 ADD SLOAD PUSH2 0x100 SWAP1 DIV PUSH1 0xFF AND PUSH1 0x5 DUP2 GT ISZERO PUSH2 0x18D1 JUMPI PUSH2 0x18D1 PUSH2 0x626F JUMP JUMPDEST EQ PUSH1 0x40 MLOAD DUP1 PUSH1 0x60 ADD PUSH1 0x40 MSTORE DUP1 PUSH1 0x2F DUP2 MSTORE PUSH1 0x20 ADD PUSH2 0x62D5 PUSH1 0x2F SWAP2 CODECOPY SWAP1 PUSH2 0x1909 JUMPI PUSH1 0x40 MLOAD PUSH3 0x461BCD PUSH1 0xE5 SHL DUP2 MSTORE PUSH1 0x4 ADD PUSH2 0x5E6 SWAP2 SWAP1 PUSH2 0x60EA JUMP JUMPDEST POP PUSH1 0x0 PUSH1 0x3 DUP3 PUSH1 0x40 MLOAD PUSH2 0x191C SWAP2 SWAP1 PUSH2 0x5E15 JUMP JUMPDEST SWAP1 DUP2 MSTORE PUSH1 0x20 ADD PUSH1 0x40 MLOAD DUP1 SWAP2 SUB SWAP1 KECCAK256 PUSH1 0x40 MLOAD DUP1 PUSH1 0x60 ADD PUSH1 0x40 MSTORE SWAP1 DUP2 PUSH1 0x0 DUP3 ADD DUP1 SLOAD PUSH2 0x1945 SWAP1 PUSH2 0x61DF JUMP JUMPDEST DUP1 PUSH1 0x1F ADD PUSH1 0x20 DUP1 SWAP2 DIV MUL PUSH1 0x20 ADD PUSH1 0x40 MLOAD SWAP1 DUP2 ADD PUSH1 0x40 MSTORE DUP1 SWAP3 SWAP2 SWAP1 DUP2 DUP2 MSTORE PUSH1 0x20 ADD DUP3 DUP1 SLOAD PUSH2 0x1971 SWAP1 PUSH2 0x61DF JUMP JUMPDEST DUP1 ISZERO PUSH2 0x19BE JUMPI DUP1 PUSH1 0x1F LT PUSH2 0x1993 JUMPI PUSH2 0x100 DUP1 DUP4 SLOAD DIV MUL DUP4 MSTORE SWAP2 PUSH1 0x20 ADD SWAP2 PUSH2 0x19BE JUMP JUMPDEST DUP3 ADD SWAP2 SWAP1 PUSH1 0x0 MSTORE PUSH1 0x20 PUSH1 0x0 KECCAK256 SWAP1 JUMPDEST DUP2 SLOAD DUP2 MSTORE SWAP1 PUSH1 0x1 ADD SWAP1 PUSH1 0x20 ADD DUP1 DUP4 GT PUSH2 0x19A1 JUMPI DUP3 SWAP1 SUB PUSH1 0x1F AND DUP3 ADD SWAP2 JUMPDEST POP POP POP SWAP2 DUP4 MSTORE POP POP PUSH1 0x1 SWAP2 SWAP1 SWAP2 ADD SLOAD PUSH1 0x1 PUSH1 0x1 PUSH1 0xA0 SHL SUB DUP2 AND PUSH1 0x20 DUP4 ADD MSTORE PUSH1 0x1 PUSH1 0xA0 SHL SWAP1 DIV PUSH1 0xFF AND ISZERO ISZERO PUSH1 0x40 SWAP2 DUP3 ADD MSTORE DUP2 ADD MLOAD SWAP1 SWAP2 POP PUSH2 0x1A40 JUMPI PUSH1 0x40 MLOAD PUSH3 0x461BCD PUSH1 0xE5 SHL DUP2 MSTORE PUSH1 0x20 PUSH1 0x4 DUP3 ADD MSTORE PUSH1 0x1D PUSH1 0x24 DUP3 ADD MSTORE PUSH32 0x5468657265206973206E6F2073686F7020696E20746869732063697479000000 PUSH1 0x44 DUP3 ADD MSTORE PUSH1 0x64 ADD PUSH2 0x5E6 JUMP JUMPDEST PUSH1 0x0 JUMPDEST PUSH1 0x2 SLOAD DUP2 LT ISZERO PUSH2 0x1E27 JUMPI PUSH1 0x0 PUSH1 0x1 PUSH1 0x2 DUP4 DUP2 SLOAD DUP2 LT PUSH2 0x1A64 JUMPI PUSH2 0x1A64 PUSH2 0x6285 JUMP JUMPDEST SWAP1 PUSH1 0x0 MSTORE PUSH1 0x20 PUSH1 0x0 KECCAK256 ADD PUSH1 0x40 MLOAD PUSH2 0x1A7B SWAP2 SWAP1 PUSH2 0x5E31 JUMP JUMPDEST SWAP1 DUP2 MSTORE PUSH1 0x20 ADD PUSH1 0x40 MLOAD DUP1 SWAP2 SUB SWAP1 KECCAK256 PUSH1 0x0 SWAP1 SLOAD SWAP1 PUSH2 0x100 EXP SWAP1 DIV PUSH1 0x1 PUSH1 0x1 PUSH1 0xA0 SHL SUB AND SWAP1 POP PUSH1 0x0 DUP1 PUSH1 0x0 PUSH1 0x1 PUSH1 0x2 DUP7 DUP2 SLOAD DUP2 LT PUSH2 0x1AB9 JUMPI PUSH2 0x1AB9 PUSH2 0x6285 JUMP JUMPDEST SWAP1 PUSH1 0x0 MSTORE PUSH1 0x20 PUSH1 0x0 KECCAK256 ADD PUSH1 0x40 MLOAD PUSH2 0x1AD0 SWAP2 SWAP1 PUSH2 0x5E31 JUMP JUMPDEST SWAP1 DUP2 MSTORE PUSH1 0x40 DUP1 MLOAD PUSH1 0x20 SWAP3 DUP2 SWAP1 SUB DUP4 ADD SWAP1 KECCAK256 SLOAD PUSH1 0x1 PUSH1 0x1 PUSH1 0xA0 SHL SUB AND DUP4 MSTORE SWAP1 DUP3 ADD SWAP3 SWAP1 SWAP3 MSTORE DUP2 ADD PUSH1 0x0 KECCAK256 DUP2 MLOAD PUSH2 0x120 DUP2 ADD SWAP1 SWAP3 MSTORE DUP1 SLOAD DUP3 SWAP1 DUP3 SWAP1 PUSH2 0x1B12 SWAP1 PUSH2 0x61DF JUMP JUMPDEST DUP1 PUSH1 0x1F ADD PUSH1 0x20 DUP1 SWAP2 DIV MUL PUSH1 0x20 ADD PUSH1 0x40 MLOAD SWAP1 DUP2 ADD PUSH1 0x40 MSTORE DUP1 SWAP3 SWAP2 SWAP1 DUP2 DUP2 MSTORE PUSH1 0x20 ADD DUP3 DUP1 SLOAD PUSH2 0x1B3E SWAP1 PUSH2 0x61DF JUMP JUMPDEST DUP1 ISZERO PUSH2 0x1B8B JUMPI DUP1 PUSH1 0x1F LT PUSH2 0x1B60 JUMPI PUSH2 0x100 DUP1 DUP4 SLOAD DIV MUL DUP4 MSTORE SWAP2 PUSH1 0x20 ADD SWAP2 PUSH2 0x1B8B JUMP JUMPDEST DUP3 ADD SWAP2 SWAP1 PUSH1 0x0 MSTORE PUSH1 0x20 PUSH1 0x0 KECCAK256 SWAP1 JUMPDEST DUP2 SLOAD DUP2 MSTORE SWAP1 PUSH1 0x1 ADD SWAP1 PUSH1 0x20 ADD DUP1 DUP4 GT PUSH2 0x1B6E JUMPI DUP3 SWAP1 SUB PUSH1 0x1F AND DUP3 ADD SWAP2 JUMPDEST POP POP POP POP POP DUP2 MSTORE PUSH1 0x20 ADD PUSH1 0x1 DUP3 ADD DUP1 SLOAD PUSH2 0x1BA4 SWAP1 PUSH2 0x61DF JUMP JUMPDEST DUP1 PUSH1 0x1F ADD PUSH1 0x20 DUP1 SWAP2 DIV MUL PUSH1 0x20 ADD PUSH1 0x40 MLOAD SWAP1 DUP2 ADD PUSH1 0x40 MSTORE DUP1 SWAP3 SWAP2 SWAP1 DUP2 DUP2 MSTORE PUSH1 0x20 ADD DUP3 DUP1 SLOAD PUSH2 0x1BD0 SWAP1 PUSH2 0x61DF JUMP JUMPDEST DUP1 ISZERO PUSH2 0x1C1D JUMPI DUP1 PUSH1 0x1F LT PUSH2 0x1BF2 JUMPI PUSH2 0x100 DUP1 DUP4 SLOAD DIV MUL DUP4 MSTORE SWAP2 PUSH1 0x20 ADD SWAP2 PUSH2 0x1C1D JUMP JUMPDEST DUP3 ADD SWAP2 SWAP1 PUSH1 0x0 MSTORE PUSH1 0x20 PUSH1 0x0 KECCAK256 SWAP1 JUMPDEST DUP2 SLOAD DUP2 MSTORE SWAP1 PUSH1 0x1 ADD SWAP1 PUSH1 0x20 ADD DUP1 DUP4 GT PUSH2 0x1C00 JUMPI DUP3 SWAP1 SUB PUSH1 0x1F AND DUP3 ADD SWAP2 JUMPDEST POP POP POP SWAP2 DUP4 MSTORE POP POP PUSH1 0x2 DUP3 ADD SLOAD PUSH1 0x20 DUP3 ADD MSTORE PUSH1 0x3 DUP3 ADD SLOAD PUSH1 0x40 DUP3 ADD MSTORE PUSH1 0x4 DUP3 ADD SLOAD PUSH1 0x60 SWAP1 SWAP2 ADD SWAP1 PUSH1 0xFF AND PUSH1 0x5 DUP2 GT ISZERO PUSH2 0x1C58 JUMPI PUSH2 0x1C58 PUSH2 0x626F JUMP JUMPDEST PUSH1 0x5 DUP2 GT ISZERO PUSH2 0x1C69 JUMPI PUSH2 0x1C69 PUSH2 0x626F JUMP JUMPDEST DUP2 MSTORE PUSH1 0x20 ADD PUSH1 0x4 DUP3 ADD PUSH1 0x1 SWAP1 SLOAD SWAP1 PUSH2 0x100 EXP SWAP1 DIV PUSH1 0xFF AND PUSH1 0x5 DUP2 GT ISZERO PUSH2 0x1C91 JUMPI PUSH2 0x1C91 PUSH2 0x626F JUMP JUMPDEST PUSH1 0x5 DUP2 GT ISZERO PUSH2 0x1CA2 JUMPI PUSH2 0x1CA2 PUSH2 0x626F JUMP JUMPDEST DUP2 MSTORE PUSH1 0x20 ADD PUSH1 0x5 DUP3 ADD DUP1 SLOAD PUSH2 0x1CB6 SWAP1 PUSH2 0x61DF JUMP JUMPDEST DUP1 PUSH1 0x1F ADD PUSH1 0x20 DUP1 SWAP2 DIV MUL PUSH1 0x20 ADD PUSH1 0x40 MLOAD SWAP1 DUP2 ADD PUSH1 0x40 MSTORE DUP1 SWAP3 SWAP2 SWAP1 DUP2 DUP2 MSTORE PUSH1 0x20 ADD DUP3 DUP1 SLOAD PUSH2 0x1CE2 SWAP1 PUSH2 0x61DF JUMP JUMPDEST DUP1 ISZERO PUSH2 0x1D2F JUMPI DUP1 PUSH1 0x1F LT PUSH2 0x1D04 JUMPI PUSH2 0x100 DUP1 DUP4 SLOAD DIV MUL DUP4 MSTORE SWAP2 PUSH1 0x20 ADD SWAP2 PUSH2 0x1D2F JUMP JUMPDEST DUP3 ADD SWAP2 SWAP1 PUSH1 0x0 MSTORE PUSH1 0x20 PUSH1 0x0 KECCAK256 SWAP1 JUMPDEST DUP2 SLOAD DUP2 MSTORE SWAP1 PUSH1 0x1 ADD SWAP1 PUSH1 0x20 ADD DUP1 DUP4 GT PUSH2 0x1D12 JUMPI DUP3 SWAP1 SUB PUSH1 0x1F AND DUP3 ADD SWAP2 JUMPDEST POP POP POP POP POP DUP2 MSTORE PUSH1 0x20 ADD PUSH1 0x6 DUP3 ADD DUP1 SLOAD DUP1 PUSH1 0x20 MUL PUSH1 0x20 ADD PUSH1 0x40 MLOAD SWAP1 DUP2 ADD PUSH1 0x40 MSTORE DUP1 SWAP3 SWAP2 SWAP1 DUP2 DUP2 MSTORE PUSH1 0x20 ADD DUP3 DUP1 SLOAD DUP1 ISZERO PUSH2 0x1DB3 JUMPI PUSH1 0x20 MUL DUP3 ADD SWAP2 SWAP1 PUSH1 0x0 MSTORE PUSH1 0x20 PUSH1 0x0 KECCAK256 SWAP1 PUSH1 0x0 SWAP1 JUMPDEST DUP3 DUP3 SWAP1 SLOAD SWAP1 PUSH2 0x100 EXP SWAP1 DIV PUSH4 0xFFFFFFFF AND PUSH4 0xFFFFFFFF AND DUP2 MSTORE PUSH1 0x20 ADD SWAP1 PUSH1 0x4 ADD SWAP1 PUSH1 0x20 DUP3 PUSH1 0x3 ADD DIV SWAP3 DUP4 ADD SWAP3 PUSH1 0x1 SUB DUP3 MUL SWAP2 POP DUP1 DUP5 GT PUSH2 0x1D76 JUMPI SWAP1 POP JUMPDEST POP POP POP SWAP2 DUP4 MSTORE POP POP PUSH1 0x7 SWAP2 SWAP1 SWAP2 ADD SLOAD PUSH1 0xFF AND ISZERO ISZERO PUSH1 0x20 SWAP1 SWAP2 ADD MSTORE SWAP1 POP PUSH1 0x1 DUP2 PUSH1 0xA0 ADD MLOAD PUSH1 0x5 DUP2 GT ISZERO PUSH2 0x1DE7 JUMPI PUSH2 0x1DE7 PUSH2 0x626F JUMP JUMPDEST EQ ISZERO PUSH2 0x1E12 JUMPI PUSH1 0x1 PUSH1 0x1 PUSH1 0xA0 SHL SUB DUP3 AND PUSH1 0x0 SWAP1 DUP2 MSTORE PUSH1 0x20 DUP2 SWAP1 MSTORE PUSH1 0x40 SWAP1 KECCAK256 PUSH1 0x4 ADD DUP1 SLOAD PUSH2 0xFF00 NOT AND SWAP1 SSTORE JUMPDEST POP POP DUP1 DUP1 PUSH2 0x1E1F SWAP1 PUSH2 0x621A JUMP JUMPDEST SWAP2 POP POP PUSH2 0x1A43 JUMP JUMPDEST POP PUSH1 0x20 DUP2 DUP2 ADD DUP1 MLOAD PUSH1 0x1 PUSH1 0x1 PUSH1 0xA0 SHL SUB SWAP1 DUP2 AND PUSH1 0x0 SWAP1 DUP2 MSTORE DUP1 DUP5 MSTORE PUSH1 0x40 DUP1 DUP3 KECCAK256 PUSH1 0x4 ADD DUP1 SLOAD PUSH2 0xFF00 NOT AND SWAP1 SSTORE DUP1 MLOAD DUP1 DUP7 ADD DUP1 DUP4 MSTORE DUP4 DUP3 MSTORE SWAP5 MLOAD SWAP1 SWAP4 AND DUP3 MSTORE SWAP4 DUP2 SWAP1 MSTORE SWAP3 SWAP1 SWAP3 KECCAK256 SWAP2 MLOAD PUSH2 0x1E7D SWAP3 PUSH1 0x5 ADD SWAP2 SWAP1 PUSH2 0x56B2 JUMP JUMPDEST POP PUSH2 0x1E87 DUP3 PUSH2 0x5170 JUMP JUMPDEST POP POP POP JUMP JUMPDEST PUSH1 0x60 PUSH1 0x5 CALLER PUSH1 0x0 SWAP1 DUP2 MSTORE PUSH1 0x20 DUP2 SWAP1 MSTORE PUSH1 0x40 SWAP1 KECCAK256 PUSH1 0x4 ADD SLOAD PUSH2 0x100 SWAP1 DIV PUSH1 0xFF AND PUSH1 0x5 DUP2 GT ISZERO PUSH2 0x1EBC JUMPI PUSH2 0x1EBC PUSH2 0x626F JUMP JUMPDEST EQ PUSH1 0x40 MLOAD DUP1 PUSH1 0x60 ADD PUSH1 0x40 MSTORE DUP1 PUSH1 0x2F DUP2 MSTORE PUSH1 0x20 ADD PUSH2 0x62D5 PUSH1 0x2F SWAP2 CODECOPY SWAP1 PUSH2 0x1EF4 JUMPI PUSH1 0x40 MLOAD PUSH3 0x461BCD PUSH1 0xE5 SHL DUP2 MSTORE PUSH1 0x4 ADD PUSH2 0x5E6 SWAP2 SWAP1 PUSH2 0x60EA JUMP JUMPDEST POP PUSH1 0x8 DUP1 SLOAD DUP1 PUSH1 0x20 MUL PUSH1 0x20 ADD PUSH1 0x40 MLOAD SWAP1 DUP2 ADD PUSH1 0x40 MSTORE DUP1 SWAP3 SWAP2 SWAP1 DUP2 DUP2 MSTORE PUSH1 0x20 ADD DUP3 DUP1 SLOAD DUP1 ISZERO PUSH2 0x1F4B JUMPI PUSH1 0x20 MUL DUP3 ADD SWAP2 SWAP1 PUSH1 0x0 MSTORE PUSH1 0x20 PUSH1 0x0 KECCAK256 SWAP1 JUMPDEST DUP2 SLOAD PUSH1 0x1 PUSH1 0x1 PUSH1 0xA0 SHL SUB AND DUP2 MSTORE PUSH1 0x1 SWAP1 SWAP2 ADD SWAP1 PUSH1 0x20 ADD DUP1 DUP4 GT PUSH2 0x1F2D JUMPI JUMPDEST POP POP POP POP POP SWAP1 POP SWAP1 JUMP JUMPDEST PUSH1 0x4 CALLER PUSH1 0x0 SWAP1 DUP2 MSTORE PUSH1 0x20 DUP2 SWAP1 MSTORE PUSH1 0x40 SWAP1 KECCAK256 PUSH1 0x4 ADD SLOAD PUSH2 0x100 SWAP1 DIV PUSH1 0xFF AND PUSH1 0x5 DUP2 GT ISZERO PUSH2 0x1F83 JUMPI PUSH2 0x1F83 PUSH2 0x626F JUMP JUMPDEST EQ PUSH1 0x40 MLOAD DUP1 PUSH1 0x60 ADD PUSH1 0x40 MSTORE DUP1 PUSH1 0x2F DUP2 MSTORE PUSH1 0x20 ADD PUSH2 0x62D5 PUSH1 0x2F SWAP2 CODECOPY SWAP1 PUSH2 0x1FBB JUMPI PUSH1 0x40 MLOAD PUSH3 0x461BCD PUSH1 0xE5 SHL DUP2 MSTORE PUSH1 0x4 ADD PUSH2 0x5E6 SWAP2 SWAP1 PUSH2 0x60EA JUMP JUMPDEST POP PUSH1 0x0 PUSH1 0x9 DUP3 PUSH1 0x40 MLOAD PUSH2 0x1FCE SWAP2 SWAP1 PUSH2 0x5E15 JUMP JUMPDEST SWAP1 DUP2 MSTORE PUSH1 0x40 DUP1 MLOAD SWAP2 DUP3 SWAP1 SUB PUSH1 0x20 SWAP1 DUP2 ADD DUP4 KECCAK256 PUSH1 0x60 DUP5 ADD DUP4 MSTORE DUP1 SLOAD PUSH1 0x1 PUSH1 0x1 PUSH1 0xA0 SHL SUB AND DUP5 MSTORE PUSH1 0x1 DUP2 ADD SLOAD SWAP2 DUP5 ADD SWAP2 SWAP1 SWAP2 MSTORE PUSH1 0x2 ADD SLOAD PUSH1 0xFF AND ISZERO ISZERO SWAP1 DUP3 ADD DUP2 SWAP1 MSTORE SWAP1 SWAP2 POP PUSH2 0x206E JUMPI PUSH1 0x40 MLOAD PUSH3 0x461BCD PUSH1 0xE5 SHL DUP2 MSTORE PUSH1 0x20 PUSH1 0x4 DUP3 ADD MSTORE PUSH1 0x28 PUSH1 0x24 DUP3 ADD MSTORE PUSH32 0x546869732073686F70206469646E27742073656E7420616E79206D6F6E657920 PUSH1 0x44 DUP3 ADD MSTORE PUSH8 0x7265717565737473 PUSH1 0xC0 SHL PUSH1 0x64 DUP3 ADD MSTORE PUSH1 0x84 ADD PUSH2 0x5E6 JUMP JUMPDEST DUP1 PUSH1 0x20 ADD MLOAD CALLVALUE EQ PUSH2 0x20FC JUMPI PUSH1 0x40 MLOAD PUSH3 0x461BCD PUSH1 0xE5 SHL DUP2 MSTORE PUSH1 0x20 PUSH1 0x4 DUP3 ADD MSTORE PUSH1 0x4C PUSH1 0x24 DUP3 ADD MSTORE PUSH32 0x596F75206E65656420746F2073656E642065786163742073616D6520616D6F75 PUSH1 0x44 DUP3 ADD MSTORE PUSH32 0x6E74206F66206D6F6E65792074686174206973207772697474656E20696E206D PUSH1 0x64 DUP3 ADD MSTORE PUSH12 0x1BDB995E481C995C5D595CDD PUSH1 0xA2 SHL PUSH1 0x84 DUP3 ADD MSTORE PUSH1 0xA4 ADD PUSH2 0x5E6 JUMP JUMPDEST PUSH1 0x0 PUSH1 0x3 DUP4 PUSH1 0x40 MLOAD PUSH2 0x210E SWAP2 SWAP1 PUSH2 0x5E15 JUMP JUMPDEST SWAP1 DUP2 MSTORE PUSH1 0x40 MLOAD PUSH1 0x20 SWAP2 DUP2 SWAP1 SUB DUP3 ADD DUP2 KECCAK256 PUSH1 0x1 ADD SLOAD SWAP2 DUP5 ADD MLOAD PUSH1 0x1 PUSH1 0x1 PUSH1 0xA0 SHL SUB SWAP1 SWAP3 AND SWAP3 POP DUP3 SWAP2 PUSH2 0x8FC DUP2 ISZERO MUL SWAP2 PUSH1 0x0 DUP2 DUP2 DUP2 DUP6 DUP9 DUP9 CALL SWAP4 POP POP POP POP ISZERO DUP1 ISZERO PUSH2 0x215B JUMPI RETURNDATASIZE PUSH1 0x0 DUP1 RETURNDATACOPY RETURNDATASIZE PUSH1 0x0 REVERT JUMPDEST POP PUSH2 0x2165 DUP4 PUSH2 0x5170 JUMP JUMPDEST POP POP POP POP JUMP JUMPDEST PUSH1 0x0 PUSH1 0x60 DUP1 PUSH1 0x0 PUSH1 0x60 PUSH1 0x0 DUP1 PUSH1 0x0 DUP9 PUSH1 0x1 PUSH1 0x1 PUSH1 0xA0 SHL SUB AND PUSH1 0x1 PUSH1 0x1 PUSH1 0xA0 SHL SUB AND DUP2 MSTORE PUSH1 0x20 ADD SWAP1 DUP2 MSTORE PUSH1 0x20 ADD PUSH1 0x0 KECCAK256 PUSH1 0x40 MLOAD DUP1 PUSH2 0x120 ADD PUSH1 0x40 MSTORE SWAP1 DUP2 PUSH1 0x0 DUP3 ADD DUP1 SLOAD PUSH2 0x21B6 SWAP1 PUSH2 0x61DF JUMP JUMPDEST DUP1 PUSH1 0x1F ADD PUSH1 0x20 DUP1 SWAP2 DIV MUL PUSH1 0x20 ADD PUSH1 0x40 MLOAD SWAP1 DUP2 ADD PUSH1 0x40 MSTORE DUP1 SWAP3 SWAP2 SWAP1 DUP2 DUP2 MSTORE PUSH1 0x20 ADD DUP3 DUP1 SLOAD PUSH2 0x21E2 SWAP1 PUSH2 0x61DF JUMP JUMPDEST DUP1 ISZERO PUSH2 0x222F JUMPI DUP1 PUSH1 0x1F LT PUSH2 0x2204 JUMPI PUSH2 0x100 DUP1 DUP4 SLOAD DIV MUL DUP4 MSTORE SWAP2 PUSH1 0x20 ADD SWAP2 PUSH2 0x222F JUMP JUMPDEST DUP3 ADD SWAP2 SWAP1 PUSH1 0x0 MSTORE PUSH1 0x20 PUSH1 0x0 KECCAK256 SWAP1 JUMPDEST DUP2 SLOAD DUP2 MSTORE SWAP1 PUSH1 0x1 ADD SWAP1 PUSH1 0x20 ADD DUP1 DUP4 GT PUSH2 0x2212 JUMPI DUP3 SWAP1 SUB PUSH1 0x1F AND DUP3 ADD SWAP2 JUMPDEST POP POP POP POP POP DUP2 MSTORE PUSH1 0x20 ADD PUSH1 0x1 DUP3 ADD DUP1 SLOAD PUSH2 0x2248 SWAP1 PUSH2 0x61DF JUMP JUMPDEST DUP1 PUSH1 0x1F ADD PUSH1 0x20 DUP1 SWAP2 DIV MUL PUSH1 0x20 ADD PUSH1 0x40 MLOAD SWAP1 DUP2 ADD PUSH1 0x40 MSTORE DUP1 SWAP3 SWAP2 SWAP1 DUP2 DUP2 MSTORE PUSH1 0x20 ADD DUP3 DUP1 SLOAD PUSH2 0x2274 SWAP1 PUSH2 0x61DF JUMP JUMPDEST DUP1 ISZERO PUSH2 0x22C1 JUMPI DUP1 PUSH1 0x1F LT PUSH2 0x2296 JUMPI PUSH2 0x100 DUP1 DUP4 SLOAD DIV MUL DUP4 MSTORE SWAP2 PUSH1 0x20 ADD SWAP2 PUSH2 0x22C1 JUMP JUMPDEST DUP3 ADD SWAP2 SWAP1 PUSH1 0x0 MSTORE PUSH1 0x20 PUSH1 0x0 KECCAK256 SWAP1 JUMPDEST DUP2 SLOAD DUP2 MSTORE SWAP1 PUSH1 0x1 ADD SWAP1 PUSH1 0x20 ADD DUP1 DUP4 GT PUSH2 0x22A4 JUMPI DUP3 SWAP1 SUB PUSH1 0x1F AND DUP3 ADD SWAP2 JUMPDEST POP POP POP SWAP2 DUP4 MSTORE POP POP PUSH1 0x2 DUP3 ADD SLOAD PUSH1 0x20 DUP3 ADD MSTORE PUSH1 0x3 DUP3 ADD SLOAD PUSH1 0x40 DUP3 ADD MSTORE PUSH1 0x4 DUP3 ADD SLOAD PUSH1 0x60 SWAP1 SWAP2 ADD SWAP1 PUSH1 0xFF AND PUSH1 0x5 DUP2 GT ISZERO PUSH2 0x22FC JUMPI PUSH2 0x22FC PUSH2 0x626F JUMP JUMPDEST PUSH1 0x5 DUP2 GT ISZERO PUSH2 0x230D JUMPI PUSH2 0x230D PUSH2 0x626F JUMP JUMPDEST DUP2 MSTORE PUSH1 0x20 ADD PUSH1 0x4 DUP3 ADD PUSH1 0x1 SWAP1 SLOAD SWAP1 PUSH2 0x100 EXP SWAP1 DIV PUSH1 0xFF AND PUSH1 0x5 DUP2 GT ISZERO PUSH2 0x2335 JUMPI PUSH2 0x2335 PUSH2 0x626F JUMP JUMPDEST PUSH1 0x5 DUP2 GT ISZERO PUSH2 0x2346 JUMPI PUSH2 0x2346 PUSH2 0x626F JUMP JUMPDEST DUP2 MSTORE PUSH1 0x20 ADD PUSH1 0x5 DUP3 ADD DUP1 SLOAD PUSH2 0x235A SWAP1 PUSH2 0x61DF JUMP JUMPDEST DUP1 PUSH1 0x1F ADD PUSH1 0x20 DUP1 SWAP2 DIV MUL PUSH1 0x20 ADD PUSH1 0x40 MLOAD SWAP1 DUP2 ADD PUSH1 0x40 MSTORE DUP1 SWAP3 SWAP2 SWAP1 DUP2 DUP2 MSTORE PUSH1 0x20 ADD DUP3 DUP1 SLOAD PUSH2 0x2386 SWAP1 PUSH2 0x61DF JUMP JUMPDEST DUP1 ISZERO PUSH2 0x23D3 JUMPI DUP1 PUSH1 0x1F LT PUSH2 0x23A8 JUMPI PUSH2 0x100 DUP1 DUP4 SLOAD DIV MUL DUP4 MSTORE SWAP2 PUSH1 0x20 ADD SWAP2 PUSH2 0x23D3 JUMP JUMPDEST DUP3 ADD SWAP2 SWAP1 PUSH1 0x0 MSTORE PUSH1 0x20 PUSH1 0x0 KECCAK256 SWAP1 JUMPDEST DUP2 SLOAD DUP2 MSTORE SWAP1 PUSH1 0x1 ADD SWAP1 PUSH1 0x20 ADD DUP1 DUP4 GT PUSH2 0x23B6 JUMPI DUP3 SWAP1 SUB PUSH1 0x1F AND DUP3 ADD SWAP2 JUMPDEST POP POP POP POP POP DUP2 MSTORE PUSH1 0x20 ADD PUSH1 0x6 DUP3 ADD DUP1 SLOAD DUP1 PUSH1 0x20 MUL PUSH1 0x20 ADD PUSH1 0x40 MLOAD SWAP1 DUP2 ADD PUSH1 0x40 MSTORE DUP1 SWAP3 SWAP2 SWAP1 DUP2 DUP2 MSTORE PUSH1 0x20 ADD DUP3 DUP1 SLOAD DUP1 ISZERO PUSH2 0x2457 JUMPI PUSH1 0x20 MUL DUP3 ADD SWAP2 SWAP1 PUSH1 0x0 MSTORE PUSH1 0x20 PUSH1 0x0 KECCAK256 SWAP1 PUSH1 0x0 SWAP1 JUMPDEST DUP3 DUP3 SWAP1 SLOAD SWAP1 PUSH2 0x100 EXP SWAP1 DIV PUSH4 0xFFFFFFFF AND PUSH4 0xFFFFFFFF AND DUP2 MSTORE PUSH1 0x20 ADD SWAP1 PUSH1 0x4 ADD SWAP1 PUSH1 0x20 DUP3 PUSH1 0x3 ADD DIV SWAP3 DUP4 ADD SWAP3 PUSH1 0x1 SUB DUP3 MUL SWAP2 POP DUP1 DUP5 GT PUSH2 0x241A JUMPI SWAP1 POP JUMPDEST POP POP POP SWAP2 DUP4 MSTORE POP POP PUSH1 0x7 SWAP2 SWAP1 SWAP2 ADD SLOAD PUSH1 0xFF AND ISZERO ISZERO PUSH1 0x20 SWAP2 DUP3 ADD MSTORE PUSH2 0x100 DUP3 ADD MLOAD DUP3 MLOAD SWAP2 DUP4 ADD MLOAD PUSH1 0xA0 DUP5 ADD MLOAD PUSH1 0xC0 SWAP1 SWAP5 ADD MLOAD SWAP2 SWAP12 SWAP3 SWAP11 POP SWAP9 POP SWAP2 SWAP7 POP SWAP1 SWAP5 POP SWAP3 POP POP POP JUMP JUMPDEST PUSH1 0x1 PUSH1 0x1 PUSH1 0xA0 SHL SUB DUP6 AND PUSH1 0x0 SWAP1 DUP2 MSTORE PUSH1 0x20 DUP2 SWAP1 MSTORE PUSH1 0x40 SWAP1 KECCAK256 PUSH1 0x7 ADD SLOAD PUSH1 0xFF AND ISZERO DUP1 ISZERO PUSH2 0x2506 JUMPI POP PUSH1 0x0 DUP1 PUSH1 0x1 DUP7 PUSH1 0x40 MLOAD PUSH2 0x24D5 SWAP2 SWAP1 PUSH2 0x5E15 JUMP JUMPDEST SWAP1 DUP2 MSTORE PUSH1 0x40 DUP1 MLOAD PUSH1 0x20 SWAP3 DUP2 SWAP1 SUB DUP4 ADD SWAP1 KECCAK256 SLOAD PUSH1 0x1 PUSH1 0x1 PUSH1 0xA0 SHL SUB AND DUP4 MSTORE SWAP1 DUP3 ADD SWAP3 SWAP1 SWAP3 MSTORE ADD PUSH1 0x0 KECCAK256 PUSH1 0x7 ADD SLOAD PUSH1 0xFF AND ISZERO JUMPDEST PUSH2 0x2547 JUMPI PUSH1 0x40 MLOAD PUSH3 0x461BCD PUSH1 0xE5 SHL DUP2 MSTORE PUSH1 0x20 PUSH1 0x4 DUP3 ADD MSTORE PUSH1 0x12 PUSH1 0x24 DUP3 ADD MSTORE PUSH18 0x155CD95C88185B1C9958591E48195E1A5CDD PUSH1 0x72 SHL PUSH1 0x44 DUP3 ADD MSTORE PUSH1 0x64 ADD PUSH2 0x5E6 JUMP JUMPDEST PUSH1 0x2 DUP1 SLOAD PUSH1 0x1 DUP2 ADD DUP3 SSTORE PUSH1 0x0 SWAP2 SWAP1 SWAP2 MSTORE DUP5 MLOAD PUSH1 0x60 SWAP2 PUSH2 0x258F SWAP2 PUSH32 0x405787FA12A823E0F2B7631CC41B3BA8828B3321CA811111FA75CD3AA3BB5ACE SWAP1 SWAP2 ADD SWAP1 PUSH1 0x20 DUP9 ADD SWAP1 PUSH2 0x56B2 JUMP JUMPDEST POP DUP6 PUSH1 0x1 DUP7 PUSH1 0x40 MLOAD PUSH2 0x25A1 SWAP2 SWAP1 PUSH2 0x5E15 JUMP JUMPDEST SWAP1 DUP2 MSTORE PUSH1 0x20 ADD PUSH1 0x40 MLOAD DUP1 SWAP2 SUB SWAP1 KECCAK256 PUSH1 0x0 PUSH2 0x100 EXP DUP2 SLOAD DUP2 PUSH1 0x1 PUSH1 0x1 PUSH1 0xA0 SHL SUB MUL NOT AND SWAP1 DUP4 PUSH1 0x1 PUSH1 0x1 PUSH1 0xA0 SHL SUB AND MUL OR SWAP1 SSTORE POP PUSH1 0x40 MLOAD DUP1 PUSH2 0x120 ADD PUSH1 0x40 MSTORE DUP1 DUP7 DUP2 MSTORE PUSH1 0x20 ADD DUP6 DUP2 MSTORE PUSH1 0x20 ADD DUP5 PUSH1 0x40 MLOAD PUSH1 0x20 ADD PUSH2 0x25FC SWAP2 SWAP1 PUSH2 0x5E15 JUMP JUMPDEST PUSH1 0x40 MLOAD PUSH1 0x20 DUP2 DUP4 SUB SUB DUP2 MSTORE SWAP1 PUSH1 0x40 MSTORE DUP1 MLOAD SWAP1 PUSH1 0x20 ADD KECCAK256 DUP2 MSTORE PUSH1 0x20 ADD DUP4 PUSH1 0x40 MLOAD PUSH1 0x20 ADD PUSH2 0x2628 SWAP2 SWAP1 PUSH2 0x5E15 JUMP JUMPDEST PUSH1 0x40 DUP1 MLOAD PUSH1 0x1F NOT DUP2 DUP5 SUB ADD DUP2 MSTORE SWAP2 SWAP1 MSTORE DUP1 MLOAD PUSH1 0x20 SWAP2 DUP3 ADD KECCAK256 DUP3 MSTORE ADD PUSH1 0x0 DUP2 MSTORE PUSH1 0x20 ADD PUSH1 0x0 DUP2 MSTORE PUSH1 0x40 DUP1 MLOAD PUSH1 0x20 DUP2 DUP2 ADD DUP4 MSTORE PUSH1 0x0 DUP1 DUP4 MSTORE DUP2 DUP6 ADD SWAP3 SWAP1 SWAP3 MSTORE DUP3 DUP5 ADD DUP7 SWAP1 MSTORE PUSH1 0x1 PUSH1 0x60 SWAP1 SWAP5 ADD SWAP4 SWAP1 SWAP4 MSTORE PUSH1 0x1 PUSH1 0x1 PUSH1 0xA0 SHL SUB DUP11 AND DUP2 MSTORE DUP1 DUP4 MSTORE KECCAK256 DUP3 MLOAD DUP1 MLOAD SWAP2 SWAP3 PUSH2 0x269B SWAP3 DUP5 SWAP3 SWAP1 SWAP2 ADD SWAP1 PUSH2 0x56B2 JUMP JUMPDEST POP PUSH1 0x20 DUP3 DUP2 ADD MLOAD DUP1 MLOAD PUSH2 0x26B4 SWAP3 PUSH1 0x1 DUP6 ADD SWAP3 ADD SWAP1 PUSH2 0x56B2 JUMP JUMPDEST POP PUSH1 0x40 DUP3 ADD MLOAD PUSH1 0x2 DUP3 ADD SSTORE PUSH1 0x60 DUP3 ADD MLOAD PUSH1 0x3 DUP3 ADD SSTORE PUSH1 0x80 DUP3 ADD MLOAD PUSH1 0x4 DUP3 ADD DUP1 SLOAD PUSH1 0xFF NOT AND PUSH1 0x1 DUP4 PUSH1 0x5 DUP2 GT ISZERO PUSH2 0x26EC JUMPI PUSH2 0x26EC PUSH2 0x626F JUMP JUMPDEST MUL OR SWAP1 SSTORE POP PUSH1 0xA0 DUP3 ADD MLOAD PUSH1 0x4 DUP3 ADD DUP1 SLOAD PUSH2 0xFF00 NOT AND PUSH2 0x100 DUP4 PUSH1 0x5 DUP2 GT ISZERO PUSH2 0x2716 JUMPI PUSH2 0x2716 PUSH2 0x626F JUMP JUMPDEST MUL OR SWAP1 SSTORE POP PUSH1 0xC0 DUP3 ADD MLOAD DUP1 MLOAD PUSH2 0x2736 SWAP2 PUSH1 0x5 DUP5 ADD SWAP2 PUSH1 0x20 SWAP1 SWAP2 ADD SWAP1 PUSH2 0x56B2 JUMP JUMPDEST POP PUSH1 0xE0 DUP3 ADD MLOAD DUP1 MLOAD PUSH2 0x2752 SWAP2 PUSH1 0x6 DUP5 ADD SWAP2 PUSH1 0x20 SWAP1 SWAP2 ADD SWAP1 PUSH2 0x5736 JUMP JUMPDEST POP PUSH2 0x100 SWAP2 SWAP1 SWAP2 ADD MLOAD PUSH1 0x7 SWAP1 SWAP2 ADD DUP1 SLOAD PUSH1 0xFF NOT AND SWAP2 ISZERO ISZERO SWAP2 SWAP1 SWAP2 OR SWAP1 SSTORE POP POP POP POP POP POP JUMP JUMPDEST CALLER PUSH1 0x0 SWAP1 DUP2 MSTORE PUSH1 0x20 DUP2 SWAP1 MSTORE PUSH1 0x40 DUP1 DUP3 KECCAK256 DUP2 MLOAD PUSH2 0x120 DUP2 ADD SWAP1 SWAP3 MSTORE DUP1 SLOAD DUP3 SWAP1 DUP3 SWAP1 PUSH2 0x27A0 SWAP1 PUSH2 0x61DF JUMP JUMPDEST DUP1 PUSH1 0x1F ADD PUSH1 0x20 DUP1 SWAP2 DIV MUL PUSH1 0x20 ADD PUSH1 0x40 MLOAD SWAP1 DUP2 ADD PUSH1 0x40 MSTORE DUP1 SWAP3 SWAP2 SWAP1 DUP2 DUP2 MSTORE PUSH1 0x20 ADD DUP3 DUP1 SLOAD PUSH2 0x27CC SWAP1 PUSH2 0x61DF JUMP JUMPDEST DUP1 ISZERO PUSH2 0x2819 JUMPI DUP1 PUSH1 0x1F LT PUSH2 0x27EE JUMPI PUSH2 0x100 DUP1 DUP4 SLOAD DIV MUL DUP4 MSTORE SWAP2 PUSH1 0x20 ADD SWAP2 PUSH2 0x2819 JUMP JUMPDEST DUP3 ADD SWAP2 SWAP1 PUSH1 0x0 MSTORE PUSH1 0x20 PUSH1 0x0 KECCAK256 SWAP1 JUMPDEST DUP2 SLOAD DUP2 MSTORE SWAP1 PUSH1 0x1 ADD SWAP1 PUSH1 0x20 ADD DUP1 DUP4 GT PUSH2 0x27FC JUMPI DUP3 SWAP1 SUB PUSH1 0x1F AND DUP3 ADD SWAP2 JUMPDEST POP POP POP POP POP DUP2 MSTORE PUSH1 0x20 ADD PUSH1 0x1 DUP3 ADD DUP1 SLOAD PUSH2 0x2832 SWAP1 PUSH2 0x61DF JUMP JUMPDEST DUP1 PUSH1 0x1F ADD PUSH1 0x20 DUP1 SWAP2 DIV MUL PUSH1 0x20 ADD PUSH1 0x40 MLOAD SWAP1 DUP2 ADD PUSH1 0x40 MSTORE DUP1 SWAP3 SWAP2 SWAP1 DUP2 DUP2 MSTORE PUSH1 0x20 ADD DUP3 DUP1 SLOAD PUSH2 0x285E SWAP1 PUSH2 0x61DF JUMP JUMPDEST DUP1 ISZERO PUSH2 0x28AB JUMPI DUP1 PUSH1 0x1F LT PUSH2 0x2880 JUMPI PUSH2 0x100 DUP1 DUP4 SLOAD DIV MUL DUP4 MSTORE SWAP2 PUSH1 0x20 ADD SWAP2 PUSH2 0x28AB JUMP JUMPDEST DUP3 ADD SWAP2 SWAP1 PUSH1 0x0 MSTORE PUSH1 0x20 PUSH1 0x0 KECCAK256 SWAP1 JUMPDEST DUP2 SLOAD DUP2 MSTORE SWAP1 PUSH1 0x1 ADD SWAP1 PUSH1 0x20 ADD DUP1 DUP4 GT PUSH2 0x288E JUMPI DUP3 SWAP1 SUB PUSH1 0x1F AND DUP3 ADD SWAP2 JUMPDEST POP POP POP SWAP2 DUP4 MSTORE POP POP PUSH1 0x2 DUP3 ADD SLOAD PUSH1 0x20 DUP3 ADD MSTORE PUSH1 0x3 DUP3 ADD SLOAD PUSH1 0x40 DUP3 ADD MSTORE PUSH1 0x4 DUP3 ADD SLOAD PUSH1 0x60 SWAP1 SWAP2 ADD SWAP1 PUSH1 0xFF AND PUSH1 0x5 DUP2 GT ISZERO PUSH2 0x28E6 JUMPI PUSH2 0x28E6 PUSH2 0x626F JUMP JUMPDEST PUSH1 0x5 DUP2 GT ISZERO PUSH2 0x28F7 JUMPI PUSH2 0x28F7 PUSH2 0x626F JUMP JUMPDEST DUP2 MSTORE PUSH1 0x20 ADD PUSH1 0x4 DUP3 ADD PUSH1 0x1 SWAP1 SLOAD SWAP1 PUSH2 0x100 EXP SWAP1 DIV PUSH1 0xFF AND PUSH1 0x5 DUP2 GT ISZERO PUSH2 0x291F JUMPI PUSH2 0x291F PUSH2 0x626F JUMP JUMPDEST PUSH1 0x5 DUP2 GT ISZERO PUSH2 0x2930 JUMPI PUSH2 0x2930 PUSH2 0x626F JUMP JUMPDEST DUP2 MSTORE PUSH1 0x20 ADD PUSH1 0x5 DUP3 ADD DUP1 SLOAD PUSH2 0x2944 SWAP1 PUSH2 0x61DF JUMP JUMPDEST DUP1 PUSH1 0x1F ADD PUSH1 0x20 DUP1 SWAP2 DIV MUL PUSH1 0x20 ADD PUSH1 0x40 MLOAD SWAP1 DUP2 ADD PUSH1 0x40 MSTORE DUP1 SWAP3 SWAP2 SWAP1 DUP2 DUP2 MSTORE PUSH1 0x20 ADD DUP3 DUP1 SLOAD PUSH2 0x2970 SWAP1 PUSH2 0x61DF JUMP JUMPDEST DUP1 ISZERO PUSH2 0x29BD JUMPI DUP1 PUSH1 0x1F LT PUSH2 0x2992 JUMPI PUSH2 0x100 DUP1 DUP4 SLOAD DIV MUL DUP4 MSTORE SWAP2 PUSH1 0x20 ADD SWAP2 PUSH2 0x29BD JUMP JUMPDEST DUP3 ADD SWAP2 SWAP1 PUSH1 0x0 MSTORE PUSH1 0x20 PUSH1 0x0 KECCAK256 SWAP1 JUMPDEST DUP2 SLOAD DUP2 MSTORE SWAP1 PUSH1 0x1 ADD SWAP1 PUSH1 0x20 ADD DUP1 DUP4 GT PUSH2 0x29A0 JUMPI DUP3 SWAP1 SUB PUSH1 0x1F AND DUP3 ADD SWAP2 JUMPDEST POP POP POP POP POP DUP2 MSTORE PUSH1 0x20 ADD PUSH1 0x6 DUP3 ADD DUP1 SLOAD DUP1 PUSH1 0x20 MUL PUSH1 0x20 ADD PUSH1 0x40 MLOAD SWAP1 DUP2 ADD PUSH1 0x40 MSTORE DUP1 SWAP3 SWAP2 SWAP1 DUP2 DUP2 MSTORE PUSH1 0x20 ADD DUP3 DUP1 SLOAD DUP1 ISZERO PUSH2 0x2A41 JUMPI PUSH1 0x20 MUL DUP3 ADD SWAP2 SWAP1 PUSH1 0x0 MSTORE PUSH1 0x20 PUSH1 0x0 KECCAK256 SWAP1 PUSH1 0x0 SWAP1 JUMPDEST DUP3 DUP3 SWAP1 SLOAD SWAP1 PUSH2 0x100 EXP SWAP1 DIV PUSH4 0xFFFFFFFF AND PUSH4 0xFFFFFFFF AND DUP2 MSTORE PUSH1 0x20 ADD SWAP1 PUSH1 0x4 ADD SWAP1 PUSH1 0x20 DUP3 PUSH1 0x3 ADD DIV SWAP3 DUP4 ADD SWAP3 PUSH1 0x1 SUB DUP3 MUL SWAP2 POP DUP1 DUP5 GT PUSH2 0x2A04 JUMPI SWAP1 POP JUMPDEST POP POP POP SWAP2 DUP4 MSTORE POP POP PUSH1 0x7 SWAP2 SWAP1 SWAP2 ADD SLOAD PUSH1 0xFF AND ISZERO ISZERO PUSH1 0x20 SWAP1 SWAP2 ADD MSTORE SWAP1 POP PUSH1 0x0 DUP2 PUSH1 0xA0 ADD MLOAD PUSH1 0x5 DUP2 GT ISZERO PUSH2 0x2A75 JUMPI PUSH2 0x2A75 PUSH2 0x626F JUMP JUMPDEST EQ DUP1 PUSH2 0x2A96 JUMPI POP PUSH1 0x1 DUP2 PUSH1 0xA0 ADD MLOAD PUSH1 0x5 DUP2 GT ISZERO PUSH2 0x2A94 JUMPI PUSH2 0x2A94 PUSH2 0x626F JUMP JUMPDEST EQ JUMPDEST PUSH1 0x40 MLOAD DUP1 PUSH1 0x60 ADD PUSH1 0x40 MSTORE DUP1 PUSH1 0x2F DUP2 MSTORE PUSH1 0x20 ADD PUSH2 0x62D5 PUSH1 0x2F SWAP2 CODECOPY SWAP1 PUSH2 0x2ACD JUMPI PUSH1 0x40 MLOAD PUSH3 0x461BCD PUSH1 0xE5 SHL DUP2 MSTORE PUSH1 0x4 ADD PUSH2 0x5E6 SWAP2 SWAP1 PUSH2 0x60EA JUMP JUMPDEST POP PUSH4 0xFFFFFFFF DUP4 AND PUSH1 0x0 SWAP1 DUP2 MSTORE PUSH1 0x5 PUSH1 0x20 SWAP1 DUP2 MSTORE PUSH1 0x40 DUP1 DUP4 KECCAK256 DUP2 MLOAD PUSH2 0x120 DUP2 ADD SWAP1 SWAP3 MSTORE DUP1 SLOAD PUSH1 0x1 PUSH1 0x1 PUSH1 0xA0 SHL SUB AND DUP3 MSTORE PUSH1 0x1 DUP2 ADD DUP1 SLOAD SWAP3 SWAP4 SWAP2 SWAP3 SWAP2 DUP5 ADD SWAP2 PUSH2 0x2B14 SWAP1 PUSH2 0x61DF JUMP JUMPDEST DUP1 PUSH1 0x1F ADD PUSH1 0x20 DUP1 SWAP2 DIV MUL PUSH1 0x20 ADD PUSH1 0x40 MLOAD SWAP1 DUP2 ADD PUSH1 0x40 MSTORE DUP1 SWAP3 SWAP2 SWAP1 DUP2 DUP2 MSTORE PUSH1 0x20 ADD DUP3 DUP1 SLOAD PUSH2 0x2B40 SWAP1 PUSH2 0x61DF JUMP JUMPDEST DUP1 ISZERO PUSH2 0x2B8D JUMPI DUP1 PUSH1 0x1F LT PUSH2 0x2B62 JUMPI PUSH2 0x100 DUP1 DUP4 SLOAD DIV MUL DUP4 MSTORE SWAP2 PUSH1 0x20 ADD SWAP2 PUSH2 0x2B8D JUMP JUMPDEST DUP3 ADD SWAP2 SWAP1 PUSH1 0x0 MSTORE PUSH1 0x20 PUSH1 0x0 KECCAK256 SWAP1 JUMPDEST DUP2 SLOAD DUP2 MSTORE SWAP1 PUSH1 0x1 ADD SWAP1 PUSH1 0x20 ADD DUP1 DUP4 GT PUSH2 0x2B70 JUMPI DUP3 SWAP1 SUB PUSH1 0x1F AND DUP3 ADD SWAP2 JUMPDEST POP POP POP POP POP DUP2 MSTORE PUSH1 0x20 ADD PUSH1 0x2 DUP3 ADD DUP1 SLOAD PUSH2 0x2BA6 SWAP1 PUSH2 0x61DF JUMP JUMPDEST DUP1 PUSH1 0x1F ADD PUSH1 0x20 DUP1 SWAP2 DIV MUL PUSH1 0x20 ADD PUSH1 0x40 MLOAD SWAP1 DUP2 ADD PUSH1 0x40 MSTORE DUP1 SWAP3 SWAP2 SWAP1 DUP2 DUP2 MSTORE PUSH1 0x20 ADD DUP3 DUP1 SLOAD PUSH2 0x2BD2 SWAP1 PUSH2 0x61DF JUMP JUMPDEST DUP1 ISZERO PUSH2 0x2C1F JUMPI DUP1 PUSH1 0x1F LT PUSH2 0x2BF4 JUMPI PUSH2 0x100 DUP1 DUP4 SLOAD DIV MUL DUP4 MSTORE SWAP2 PUSH1 0x20 ADD SWAP2 PUSH2 0x2C1F JUMP JUMPDEST DUP3 ADD SWAP2 SWAP1 PUSH1 0x0 MSTORE PUSH1 0x20 PUSH1 0x0 KECCAK256 SWAP1 JUMPDEST DUP2 SLOAD DUP2 MSTORE SWAP1 PUSH1 0x1 ADD SWAP1 PUSH1 0x20 ADD DUP1 DUP4 GT PUSH2 0x2C02 JUMPI DUP3 SWAP1 SUB PUSH1 0x1F AND DUP3 ADD SWAP2 JUMPDEST POP POP POP SWAP2 DUP4 MSTORE POP POP PUSH1 0x3 DUP3 ADD SLOAD PUSH4 0xFFFFFFFF AND PUSH1 0x20 DUP1 DUP4 ADD SWAP2 SWAP1 SWAP2 MSTORE PUSH1 0x4 DUP4 ADD DUP1 SLOAD PUSH1 0x40 DUP1 MLOAD DUP3 DUP6 MUL DUP2 ADD DUP6 ADD DUP3 MSTORE DUP3 DUP2 MSTORE SWAP5 ADD SWAP4 SWAP3 DUP4 ADD DUP3 DUP3 DUP1 ISZERO PUSH2 0x2CB0 JUMPI PUSH1 0x20 MUL DUP3 ADD SWAP2 SWAP1 PUSH1 0x0 MSTORE PUSH1 0x20 PUSH1 0x0 KECCAK256 SWAP1 PUSH1 0x0 SWAP1 JUMPDEST DUP3 DUP3 SWAP1 SLOAD SWAP1 PUSH2 0x100 EXP SWAP1 DIV PUSH4 0xFFFFFFFF AND PUSH4 0xFFFFFFFF AND DUP2 MSTORE PUSH1 0x20 ADD SWAP1 PUSH1 0x4 ADD SWAP1 PUSH1 0x20 DUP3 PUSH1 0x3 ADD DIV SWAP3 DUP4 ADD SWAP3 PUSH1 0x1 SUB DUP3 MUL SWAP2 POP DUP1 DUP5 GT PUSH2 0x2C73 JUMPI SWAP1 POP JUMPDEST POP POP POP SWAP2 DUP4 MSTORE POP POP PUSH1 0x5 DUP3 ADD SLOAD PUSH1 0xFF AND PUSH1 0x20 DUP1 DUP4 ADD SWAP2 SWAP1 SWAP2 MSTORE PUSH1 0x6 DUP4 ADD DUP1 SLOAD PUSH1 0x40 DUP1 MLOAD DUP3 DUP6 MUL DUP2 ADD DUP6 ADD DUP3 MSTORE DUP3 DUP2 MSTORE SWAP5 ADD SWAP4 SWAP3 DUP4 ADD DUP3 DUP3 DUP1 ISZERO PUSH2 0x2D1C JUMPI PUSH1 0x20 MUL DUP3 ADD SWAP2 SWAP1 PUSH1 0x0 MSTORE PUSH1 0x20 PUSH1 0x0 KECCAK256 SWAP1 JUMPDEST DUP2 SLOAD PUSH1 0x1 PUSH1 0x1 PUSH1 0xA0 SHL SUB AND DUP2 MSTORE PUSH1 0x1 SWAP1 SWAP2 ADD SWAP1 PUSH1 0x20 ADD DUP1 DUP4 GT PUSH2 0x2CFE JUMPI JUMPDEST POP POP POP POP POP DUP2 MSTORE PUSH1 0x20 ADD PUSH1 0x7 DUP3 ADD DUP1 SLOAD DUP1 PUSH1 0x20 MUL PUSH1 0x20 ADD PUSH1 0x40 MLOAD SWAP1 DUP2 ADD PUSH1 0x40 MSTORE DUP1 SWAP3 SWAP2 SWAP1 DUP2 DUP2 MSTORE PUSH1 0x20 ADD DUP3 DUP1 SLOAD DUP1 ISZERO PUSH2 0x2D7E JUMPI PUSH1 0x20 MUL DUP3 ADD SWAP2 SWAP1 PUSH1 0x0 MSTORE PUSH1 0x20 PUSH1 0x0 KECCAK256 SWAP1 JUMPDEST DUP2 SLOAD PUSH1 0x1 PUSH1 0x1 PUSH1 0xA0 SHL SUB AND DUP2 MSTORE PUSH1 0x1 SWAP1 SWAP2 ADD SWAP1 PUSH1 0x20 ADD DUP1 DUP4 GT PUSH2 0x2D60 JUMPI JUMPDEST POP POP POP SWAP2 DUP4 MSTORE POP POP PUSH1 0x8 SWAP2 SWAP1 SWAP2 ADD SLOAD PUSH1 0xFF AND ISZERO ISZERO PUSH1 0x20 SWAP1 SWAP2 ADD MSTORE PUSH2 0x100 DUP2 ADD MLOAD SWAP1 SWAP2 POP PUSH2 0x2DED JUMPI PUSH1 0x40 MLOAD PUSH3 0x461BCD PUSH1 0xE5 SHL DUP2 MSTORE PUSH1 0x20 PUSH1 0x4 DUP3 ADD MSTORE PUSH1 0x1A PUSH1 0x24 DUP3 ADD MSTORE PUSH32 0x546869732072657669657720646F6573206E6F74206578697374000000000000 PUSH1 0x44 DUP3 ADD MSTORE PUSH1 0x64 ADD PUSH2 0x5E6 JUMP JUMPDEST DUP1 MLOAD PUSH1 0x1 PUSH1 0x1 PUSH1 0xA0 SHL SUB AND CALLER EQ ISZERO PUSH2 0x2E47 JUMPI PUSH1 0x40 MLOAD PUSH3 0x461BCD PUSH1 0xE5 SHL DUP2 MSTORE PUSH1 0x20 PUSH1 0x4 DUP3 ADD MSTORE PUSH1 0x1E PUSH1 0x24 DUP3 ADD MSTORE PUSH32 0x596F752063616E2774207261746520796F7572206F776E207265766965770000 PUSH1 0x44 DUP3 ADD MSTORE PUSH1 0x64 ADD PUSH2 0x5E6 JUMP JUMPDEST PUSH2 0x2E50 DUP5 PUSH2 0x52B4 JUMP JUMPDEST POP DUP3 ISZERO PUSH2 0x2E94 JUMPI PUSH4 0xFFFFFFFF DUP5 AND PUSH1 0x0 SWAP1 DUP2 MSTORE PUSH1 0x5 PUSH1 0x20 SWAP1 DUP2 MSTORE PUSH1 0x40 DUP3 KECCAK256 PUSH1 0x6 ADD DUP1 SLOAD PUSH1 0x1 DUP2 ADD DUP3 SSTORE SWAP1 DUP4 MSTORE SWAP2 KECCAK256 ADD DUP1 SLOAD PUSH1 0x1 PUSH1 0x1 PUSH1 0xA0 SHL SUB NOT AND CALLER OR SWAP1 SSTORE PUSH2 0x2165 JUMP JUMPDEST PUSH4 0xFFFFFFFF DUP5 AND PUSH1 0x0 SWAP1 DUP2 MSTORE PUSH1 0x5 PUSH1 0x20 SWAP1 DUP2 MSTORE PUSH1 0x40 DUP3 KECCAK256 PUSH1 0x7 ADD DUP1 SLOAD PUSH1 0x1 DUP2 ADD DUP3 SSTORE SWAP1 DUP4 MSTORE SWAP2 KECCAK256 ADD DUP1 SLOAD PUSH1 0x1 PUSH1 0x1 PUSH1 0xA0 SHL SUB NOT AND CALLER OR SWAP1 SSTORE POP POP POP POP JUMP JUMPDEST CALLER PUSH1 0x0 SWAP1 DUP2 MSTORE PUSH1 0x20 DUP2 SWAP1 MSTORE PUSH1 0x40 DUP1 DUP3 KECCAK256 DUP2 MLOAD PUSH2 0x120 DUP2 ADD SWAP1 SWAP3 MSTORE DUP1 SLOAD DUP3 SWAP1 DUP3 SWAP1 PUSH2 0x2EFB SWAP1 PUSH2 0x61DF JUMP JUMPDEST DUP1 PUSH1 0x1F ADD PUSH1 0x20 DUP1 SWAP2 DIV MUL PUSH1 0x20 ADD PUSH1 0x40 MLOAD SWAP1 DUP2 ADD PUSH1 0x40 MSTORE DUP1 SWAP3 SWAP2 SWAP1 DUP2 DUP2 MSTORE PUSH1 0x20 ADD DUP3 DUP1 SLOAD PUSH2 0x2F27 SWAP1 PUSH2 0x61DF JUMP JUMPDEST DUP1 ISZERO PUSH2 0x2F74 JUMPI DUP1 PUSH1 0x1F LT PUSH2 0x2F49 JUMPI PUSH2 0x100 DUP1 DUP4 SLOAD DIV MUL DUP4 MSTORE SWAP2 PUSH1 0x20 ADD SWAP2 PUSH2 0x2F74 JUMP JUMPDEST DUP3 ADD SWAP2 SWAP1 PUSH1 0x0 MSTORE PUSH1 0x20 PUSH1 0x0 KECCAK256 SWAP1 JUMPDEST DUP2 SLOAD DUP2 MSTORE SWAP1 PUSH1 0x1 ADD SWAP1 PUSH1 0x20 ADD DUP1 DUP4 GT PUSH2 0x2F57 JUMPI DUP3 SWAP1 SUB PUSH1 0x1F AND DUP3 ADD SWAP2 JUMPDEST POP POP POP POP POP DUP2 MSTORE PUSH1 0x20 ADD PUSH1 0x1 DUP3 ADD DUP1 SLOAD PUSH2 0x2F8D SWAP1 PUSH2 0x61DF JUMP JUMPDEST DUP1 PUSH1 0x1F ADD PUSH1 0x20 DUP1 SWAP2 DIV MUL PUSH1 0x20 ADD PUSH1 0x40 MLOAD SWAP1 DUP2 ADD PUSH1 0x40 MSTORE DUP1 SWAP3 SWAP2 SWAP1 DUP2 DUP2 MSTORE PUSH1 0x20 ADD DUP3 DUP1 SLOAD PUSH2 0x2FB9 SWAP1 PUSH2 0x61DF JUMP JUMPDEST DUP1 ISZERO PUSH2 0x3006 JUMPI DUP1 PUSH1 0x1F LT PUSH2 0x2FDB JUMPI PUSH2 0x100 DUP1 DUP4 SLOAD DIV MUL DUP4 MSTORE SWAP2 PUSH1 0x20 ADD SWAP2 PUSH2 0x3006 JUMP JUMPDEST DUP3 ADD SWAP2 SWAP1 PUSH1 0x0 MSTORE PUSH1 0x20 PUSH1 0x0 KECCAK256 SWAP1 JUMPDEST DUP2 SLOAD DUP2 MSTORE SWAP1 PUSH1 0x1 ADD SWAP1 PUSH1 0x20 ADD DUP1 DUP4 GT PUSH2 0x2FE9 JUMPI DUP3 SWAP1 SUB PUSH1 0x1F AND DUP3 ADD SWAP2 JUMPDEST POP POP POP SWAP2 DUP4 MSTORE POP POP PUSH1 0x2 DUP3 ADD SLOAD PUSH1 0x20 DUP3 ADD MSTORE PUSH1 0x3 DUP3 ADD SLOAD PUSH1 0x40 DUP3 ADD MSTORE PUSH1 0x4 DUP3 ADD SLOAD PUSH1 0x60 SWAP1 SWAP2 ADD SWAP1 PUSH1 0xFF AND PUSH1 0x5 DUP2 GT ISZERO PUSH2 0x3041 JUMPI PUSH2 0x3041 PUSH2 0x626F JUMP JUMPDEST PUSH1 0x5 DUP2 GT ISZERO PUSH2 0x3052 JUMPI PUSH2 0x3052 PUSH2 0x626F JUMP JUMPDEST DUP2 MSTORE PUSH1 0x20 ADD PUSH1 0x4 DUP3 ADD PUSH1 0x1 SWAP1 SLOAD SWAP1 PUSH2 0x100 EXP SWAP1 DIV PUSH1 0xFF AND PUSH1 0x5 DUP2 GT ISZERO PUSH2 0x307A JUMPI PUSH2 0x307A PUSH2 0x626F JUMP JUMPDEST PUSH1 0x5 DUP2 GT ISZERO PUSH2 0x308B JUMPI PUSH2 0x308B PUSH2 0x626F JUMP JUMPDEST DUP2 MSTORE PUSH1 0x20 ADD PUSH1 0x5 DUP3 ADD DUP1 SLOAD PUSH2 0x309F SWAP1 PUSH2 0x61DF JUMP JUMPDEST DUP1 PUSH1 0x1F ADD PUSH1 0x20 DUP1 SWAP2 DIV MUL PUSH1 0x20 ADD PUSH1 0x40 MLOAD SWAP1 DUP2 ADD PUSH1 0x40 MSTORE DUP1 SWAP3 SWAP2 SWAP1 DUP2 DUP2 MSTORE PUSH1 0x20 ADD DUP3 DUP1 SLOAD PUSH2 0x30CB SWAP1 PUSH2 0x61DF JUMP JUMPDEST DUP1 ISZERO PUSH2 0x3118 JUMPI DUP1 PUSH1 0x1F LT PUSH2 0x30ED JUMPI PUSH2 0x100 DUP1 DUP4 SLOAD DIV MUL DUP4 MSTORE SWAP2 PUSH1 0x20 ADD SWAP2 PUSH2 0x3118 JUMP JUMPDEST DUP3 ADD SWAP2 SWAP1 PUSH1 0x0 MSTORE PUSH1 0x20 PUSH1 0x0 KECCAK256 SWAP1 JUMPDEST DUP2 SLOAD DUP2 MSTORE SWAP1 PUSH1 0x1 ADD SWAP1 PUSH1 0x20 ADD DUP1 DUP4 GT PUSH2 0x30FB JUMPI DUP3 SWAP1 SUB PUSH1 0x1F AND DUP3 ADD SWAP2 JUMPDEST POP POP POP POP POP DUP2 MSTORE PUSH1 0x20 ADD PUSH1 0x6 DUP3 ADD DUP1 SLOAD DUP1 PUSH1 0x20 MUL PUSH1 0x20 ADD PUSH1 0x40 MLOAD SWAP1 DUP2 ADD PUSH1 0x40 MSTORE DUP1 SWAP3 SWAP2 SWAP1 DUP2 DUP2 MSTORE PUSH1 0x20 ADD DUP3 DUP1 SLOAD DUP1 ISZERO PUSH2 0x319C JUMPI PUSH1 0x20 MUL DUP3 ADD SWAP2 SWAP1 PUSH1 0x0 MSTORE PUSH1 0x20 PUSH1 0x0 KECCAK256 SWAP1 PUSH1 0x0 SWAP1 JUMPDEST DUP3 DUP3 SWAP1 SLOAD SWAP1 PUSH2 0x100 EXP SWAP1 DIV PUSH4 0xFFFFFFFF AND PUSH4 0xFFFFFFFF AND DUP2 MSTORE PUSH1 0x20 ADD SWAP1 PUSH1 0x4 ADD SWAP1 PUSH1 0x20 DUP3 PUSH1 0x3 ADD DIV SWAP3 DUP4 ADD SWAP3 PUSH1 0x1 SUB DUP3 MUL SWAP2 POP DUP1 DUP5 GT PUSH2 0x315F JUMPI SWAP1 POP JUMPDEST POP POP POP SWAP2 DUP4 MSTORE POP POP PUSH1 0x7 SWAP2 SWAP1 SWAP2 ADD SLOAD PUSH1 0xFF AND ISZERO ISZERO PUSH1 0x20 SWAP1 SWAP2 ADD MSTORE SWAP1 POP PUSH1 0x0 DUP2 PUSH1 0xA0 ADD MLOAD PUSH1 0x5 DUP2 GT ISZERO PUSH2 0x31D0 JUMPI PUSH2 0x31D0 PUSH2 0x626F JUMP JUMPDEST EQ DUP1 PUSH2 0x31F1 JUMPI POP PUSH1 0x1 DUP2 PUSH1 0xA0 ADD MLOAD PUSH1 0x5 DUP2 GT ISZERO PUSH2 0x31EF JUMPI PUSH2 0x31EF PUSH2 0x626F JUMP JUMPDEST EQ JUMPDEST PUSH1 0x40 MLOAD DUP1 PUSH1 0x60 ADD PUSH1 0x40 MSTORE DUP1 PUSH1 0x2F DUP2 MSTORE PUSH1 0x20 ADD PUSH2 0x62D5 PUSH1 0x2F SWAP2 CODECOPY SWAP1 PUSH2 0x3228 JUMPI PUSH1 0x40 MLOAD PUSH3 0x461BCD PUSH1 0xE5 SHL DUP2 MSTORE PUSH1 0x4 ADD PUSH2 0x5E6 SWAP2 SWAP1 PUSH2 0x60EA JUMP JUMPDEST POP CALLER PUSH1 0x0 SWAP1 DUP2 MSTORE PUSH1 0x20 DUP2 SWAP1 MSTORE PUSH1 0x40 DUP1 DUP3 KECCAK256 DUP2 MLOAD PUSH2 0x120 DUP2 ADD SWAP1 SWAP3 MSTORE DUP1 SLOAD DUP3 SWAP1 DUP3 SWAP1 PUSH2 0x3252 SWAP1 PUSH2 0x61DF JUMP JUMPDEST DUP1 PUSH1 0x1F ADD PUSH1 0x20 DUP1 SWAP2 DIV MUL PUSH1 0x20 ADD PUSH1 0x40 MLOAD SWAP1 DUP2 ADD PUSH1 0x40 MSTORE DUP1 SWAP3 SWAP2 SWAP1 DUP2 DUP2 MSTORE PUSH1 0x20 ADD DUP3 DUP1 SLOAD PUSH2 0x327E SWAP1 PUSH2 0x61DF JUMP JUMPDEST DUP1 ISZERO PUSH2 0x32CB JUMPI DUP1 PUSH1 0x1F LT PUSH2 0x32A0 JUMPI PUSH2 0x100 DUP1 DUP4 SLOAD DIV MUL DUP4 MSTORE SWAP2 PUSH1 0x20 ADD SWAP2 PUSH2 0x32CB JUMP JUMPDEST DUP3 ADD SWAP2 SWAP1 PUSH1 0x0 MSTORE PUSH1 0x20 PUSH1 0x0 KECCAK256 SWAP1 JUMPDEST DUP2 SLOAD DUP2 MSTORE SWAP1 PUSH1 0x1 ADD SWAP1 PUSH1 0x20 ADD DUP1 DUP4 GT PUSH2 0x32AE JUMPI DUP3 SWAP1 SUB PUSH1 0x1F AND DUP3 ADD SWAP2 JUMPDEST POP POP POP POP POP DUP2 MSTORE PUSH1 0x20 ADD PUSH1 0x1 DUP3 ADD DUP1 SLOAD PUSH2 0x32E4 SWAP1 PUSH2 0x61DF JUMP JUMPDEST DUP1 PUSH1 0x1F ADD PUSH1 0x20 DUP1 SWAP2 DIV MUL PUSH1 0x20 ADD PUSH1 0x40 MLOAD SWAP1 DUP2 ADD PUSH1 0x40 MSTORE DUP1 SWAP3 SWAP2 SWAP1 DUP2 DUP2 MSTORE PUSH1 0x20 ADD DUP3 DUP1 SLOAD PUSH2 0x3310 SWAP1 PUSH2 0x61DF JUMP JUMPDEST DUP1 ISZERO PUSH2 0x335D JUMPI DUP1 PUSH1 0x1F LT PUSH2 0x3332 JUMPI PUSH2 0x100 DUP1 DUP4 SLOAD DIV MUL DUP4 MSTORE SWAP2 PUSH1 0x20 ADD SWAP2 PUSH2 0x335D JUMP JUMPDEST DUP3 ADD SWAP2 SWAP1 PUSH1 0x0 MSTORE PUSH1 0x20 PUSH1 0x0 KECCAK256 SWAP1 JUMPDEST DUP2 SLOAD DUP2 MSTORE SWAP1 PUSH1 0x1 ADD SWAP1 PUSH1 0x20 ADD DUP1 DUP4 GT PUSH2 0x3340 JUMPI DUP3 SWAP1 SUB PUSH1 0x1F AND DUP3 ADD SWAP2 JUMPDEST POP POP POP SWAP2 DUP4 MSTORE POP POP PUSH1 0x2 DUP3 ADD SLOAD PUSH1 0x20 DUP3 ADD MSTORE PUSH1 0x3 DUP3 ADD SLOAD PUSH1 0x40 DUP3 ADD MSTORE PUSH1 0x4 DUP3 ADD SLOAD PUSH1 0x60 SWAP1 SWAP2 ADD SWAP1 PUSH1 0xFF AND PUSH1 0x5 DUP2 GT ISZERO PUSH2 0x3398 JUMPI PUSH2 0x3398 PUSH2 0x626F JUMP JUMPDEST PUSH1 0x5 DUP2 GT ISZERO PUSH2 0x33A9 JUMPI PUSH2 0x33A9 PUSH2 0x626F JUMP JUMPDEST DUP2 MSTORE PUSH1 0x20 ADD PUSH1 0x4 DUP3 ADD PUSH1 0x1 SWAP1 SLOAD SWAP1 PUSH2 0x100 EXP SWAP1 DIV PUSH1 0xFF AND PUSH1 0x5 DUP2 GT ISZERO PUSH2 0x33D1 JUMPI PUSH2 0x33D1 PUSH2 0x626F JUMP JUMPDEST PUSH1 0x5 DUP2 GT ISZERO PUSH2 0x33E2 JUMPI PUSH2 0x33E2 PUSH2 0x626F JUMP JUMPDEST DUP2 MSTORE PUSH1 0x20 ADD PUSH1 0x5 DUP3 ADD DUP1 SLOAD PUSH2 0x33F6 SWAP1 PUSH2 0x61DF JUMP JUMPDEST DUP1 PUSH1 0x1F ADD PUSH1 0x20 DUP1 SWAP2 DIV MUL PUSH1 0x20 ADD PUSH1 0x40 MLOAD SWAP1 DUP2 ADD PUSH1 0x40 MSTORE DUP1 SWAP3 SWAP2 SWAP1 DUP2 DUP2 MSTORE PUSH1 0x20 ADD DUP3 DUP1 SLOAD PUSH2 0x3422 SWAP1 PUSH2 0x61DF JUMP JUMPDEST DUP1 ISZERO PUSH2 0x346F JUMPI DUP1 PUSH1 0x1F LT PUSH2 0x3444 JUMPI PUSH2 0x100 DUP1 DUP4 SLOAD DIV MUL DUP4 MSTORE SWAP2 PUSH1 0x20 ADD SWAP2 PUSH2 0x346F JUMP JUMPDEST DUP3 ADD SWAP2 SWAP1 PUSH1 0x0 MSTORE PUSH1 0x20 PUSH1 0x0 KECCAK256 SWAP1 JUMPDEST DUP2 SLOAD DUP2 MSTORE SWAP1 PUSH1 0x1 ADD SWAP1 PUSH1 0x20 ADD DUP1 DUP4 GT PUSH2 0x3452 JUMPI DUP3 SWAP1 SUB PUSH1 0x1F AND DUP3 ADD SWAP2 JUMPDEST POP POP POP POP POP DUP2 MSTORE PUSH1 0x20 ADD PUSH1 0x6 DUP3 ADD DUP1 SLOAD DUP1 PUSH1 0x20 MUL PUSH1 0x20 ADD PUSH1 0x40 MLOAD SWAP1 DUP2 ADD PUSH1 0x40 MSTORE DUP1 SWAP3 SWAP2 SWAP1 DUP2 DUP2 MSTORE PUSH1 0x20 ADD DUP3 DUP1 SLOAD DUP1 ISZERO PUSH2 0x34F3 JUMPI PUSH1 0x20 MUL DUP3 ADD SWAP2 SWAP1 PUSH1 0x0 MSTORE PUSH1 0x20 PUSH1 0x0 KECCAK256 SWAP1 PUSH1 0x0 SWAP1 JUMPDEST DUP3 DUP3 SWAP1 SLOAD SWAP1 PUSH2 0x100 EXP SWAP1 DIV PUSH4 0xFFFFFFFF AND PUSH4 0xFFFFFFFF AND DUP2 MSTORE PUSH1 0x20 ADD SWAP1 PUSH1 0x4 ADD SWAP1 PUSH1 0x20 DUP3 PUSH1 0x3 ADD DIV SWAP3 DUP4 ADD SWAP3 PUSH1 0x1 SUB DUP3 MUL SWAP2 POP DUP1 DUP5 GT PUSH2 0x34B6 JUMPI SWAP1 POP JUMPDEST POP POP POP SWAP2 DUP4 MSTORE POP POP PUSH1 0x7 SWAP2 SWAP1 SWAP2 ADD SLOAD PUSH1 0xFF AND ISZERO ISZERO PUSH1 0x20 SWAP1 SWAP2 ADD MSTORE PUSH1 0x40 MLOAD SWAP1 SWAP2 POP PUSH1 0x3 SWAP1 PUSH2 0x3521 SWAP1 DUP9 SWAP1 PUSH2 0x5E15 JUMP JUMPDEST SWAP1 DUP2 MSTORE PUSH1 0x40 MLOAD SWAP1 DUP2 SWAP1 SUB PUSH1 0x20 ADD SWAP1 KECCAK256 PUSH1 0x1 ADD SLOAD PUSH1 0xFF PUSH1 0x1 PUSH1 0xA0 SHL SWAP1 SWAP2 DIV AND PUSH2 0x3581 JUMPI PUSH1 0x40 MLOAD PUSH3 0x461BCD PUSH1 0xE5 SHL DUP2 MSTORE PUSH1 0x20 PUSH1 0x4 DUP3 ADD MSTORE PUSH1 0x13 PUSH1 0x24 DUP3 ADD MSTORE PUSH19 0x14DA1BDC08191BD95CC81B9BDD08195E1A5CDD PUSH1 0x6A SHL PUSH1 0x44 DUP3 ADD MSTORE PUSH1 0x64 ADD PUSH2 0x5E6 JUMP JUMPDEST PUSH1 0x1 DUP2 PUSH1 0xA0 ADD MLOAD PUSH1 0x5 DUP2 GT ISZERO PUSH2 0x3599 JUMPI PUSH2 0x3599 PUSH2 0x626F JUMP JUMPDEST EQ ISZERO PUSH2 0x3664 JUMPI PUSH2 0x35AD DUP7 DUP3 PUSH1 0xC0 ADD MLOAD PUSH2 0x5117 JUMP JUMPDEST PUSH2 0x360C JUMPI PUSH1 0x40 MLOAD PUSH3 0x461BCD PUSH1 0xE5 SHL DUP2 MSTORE PUSH1 0x20 PUSH1 0x4 DUP3 ADD MSTORE PUSH1 0x2A PUSH1 0x24 DUP3 ADD MSTORE PUSH32 0x596F752063616E207075626C6973682072657669657773206F6E6C79206F6E20 PUSH1 0x44 DUP3 ADD MSTORE PUSH10 0x796F75722073686F7021 PUSH1 0xB0 SHL PUSH1 0x64 DUP3 ADD MSTORE PUSH1 0x84 ADD PUSH2 0x5E6 JUMP JUMPDEST PUSH4 0xFFFFFFFF DUP4 AND PUSH2 0x365F JUMPI PUSH1 0x40 MLOAD PUSH3 0x461BCD PUSH1 0xE5 SHL DUP2 MSTORE PUSH1 0x20 PUSH1 0x4 DUP3 ADD MSTORE PUSH1 0x1A PUSH1 0x24 DUP3 ADD MSTORE PUSH32 0x596F752063616E206F6E6C792073656E6420616E737765727321000000000000 PUSH1 0x44 DUP3 ADD MSTORE PUSH1 0x64 ADD PUSH2 0x5E6 JUMP JUMPDEST PUSH2 0x36D2 JUMP JUMPDEST PUSH1 0x1 DUP5 PUSH1 0xFF AND LT ISZERO DUP1 ISZERO PUSH2 0x367C JUMPI POP PUSH1 0xA DUP5 PUSH1 0xFF AND GT ISZERO JUMPDEST PUSH2 0x36D2 JUMPI PUSH1 0x40 MLOAD PUSH3 0x461BCD PUSH1 0xE5 SHL DUP2 MSTORE PUSH1 0x20 PUSH1 0x4 DUP3 ADD MSTORE PUSH1 0x21 PUSH1 0x24 DUP3 ADD MSTORE PUSH32 0x526174652063616E206F6E6C79206265206265747765656E203120616E642031 PUSH1 0x44 DUP3 ADD MSTORE PUSH1 0x3 PUSH1 0xFC SHL PUSH1 0x64 DUP3 ADD MSTORE PUSH1 0x84 ADD PUSH2 0x5E6 JUMP JUMPDEST PUSH1 0x6 DUP1 SLOAD PUSH1 0x1 DUP2 ADD DUP3 SSTORE PUSH1 0x0 SWAP2 SWAP1 SWAP2 MSTORE PUSH32 0xF652222313E28459528D920B65115C16C04F3EFC82AAEDC97BE59F3F377C0D3F PUSH1 0x8 DUP3 DIV ADD DUP1 SLOAD PUSH1 0x7 DUP4 AND PUSH1 0x4 MUL PUSH2 0x100 EXP PUSH4 0xFFFFFFFF DUP2 DUP2 MUL NOT SWAP1 SWAP3 AND DUP3 DUP6 AND SWAP2 SWAP1 SWAP2 MUL OR SWAP1 SWAP2 SSTORE DUP5 AND ISZERO PUSH2 0x3784 JUMPI PUSH4 0xFFFFFFFF DUP1 DUP6 AND PUSH1 0x0 SWAP1 DUP2 MSTORE PUSH1 0x5 PUSH1 0x20 SWAP1 DUP2 MSTORE PUSH1 0x40 DUP3 KECCAK256 PUSH1 0x4 SWAP1 DUP2 ADD DUP1 SLOAD PUSH1 0x1 DUP2 ADD DUP3 SSTORE SWAP1 DUP5 MSTORE SWAP2 SWAP1 SWAP3 KECCAK256 PUSH1 0x8 DUP3 DIV ADD DUP1 SLOAD DUP6 DUP6 AND PUSH1 0x7 SWAP1 SWAP4 AND SWAP1 SWAP4 MUL PUSH2 0x100 EXP SWAP2 DUP3 MUL SWAP2 SWAP1 SWAP4 MUL NOT SWAP1 SWAP2 AND OR SWAP1 SSTORE JUMPDEST PUSH1 0x60 DUP1 PUSH1 0x40 MLOAD DUP1 PUSH2 0x120 ADD PUSH1 0x40 MSTORE DUP1 CALLER PUSH1 0x1 PUSH1 0x1 PUSH1 0xA0 SHL SUB AND DUP2 MSTORE PUSH1 0x20 ADD DUP11 DUP2 MSTORE PUSH1 0x20 ADD DUP10 DUP2 MSTORE PUSH1 0x20 ADD DUP8 PUSH4 0xFFFFFFFF AND DUP2 MSTORE PUSH1 0x20 ADD DUP4 DUP2 MSTORE PUSH1 0x20 ADD PUSH1 0x1 PUSH1 0x5 DUP2 GT ISZERO PUSH2 0x37D3 JUMPI PUSH2 0x37D3 PUSH2 0x626F JUMP JUMPDEST DUP7 PUSH1 0xA0 ADD MLOAD PUSH1 0x5 DUP2 GT ISZERO PUSH2 0x37E9 JUMPI PUSH2 0x37E9 PUSH2 0x626F JUMP JUMPDEST EQ PUSH2 0x37F4 JUMPI DUP9 PUSH2 0x37F7 JUMP JUMPDEST PUSH1 0x0 JUMPDEST PUSH1 0xFF AND DUP2 MSTORE PUSH1 0x20 DUP1 DUP3 ADD DUP5 SWAP1 MSTORE PUSH1 0x40 DUP1 DUP4 ADD DUP6 SWAP1 MSTORE PUSH1 0x1 PUSH1 0x60 SWAP1 SWAP4 ADD DUP4 SWAP1 MSTORE PUSH4 0xFFFFFFFF DUP8 AND PUSH1 0x0 SWAP1 DUP2 MSTORE PUSH1 0x5 DUP4 MSTORE KECCAK256 DUP4 MLOAD DUP2 SLOAD PUSH1 0x1 PUSH1 0x1 PUSH1 0xA0 SHL SUB NOT AND PUSH1 0x1 PUSH1 0x1 PUSH1 0xA0 SHL SUB SWAP1 SWAP2 AND OR DUP2 SSTORE DUP4 DUP3 ADD MLOAD DUP1 MLOAD SWAP2 SWAP4 PUSH2 0x385B SWAP4 SWAP1 DUP6 ADD SWAP3 SWAP2 ADD SWAP1 PUSH2 0x56B2 JUMP JUMPDEST POP PUSH1 0x40 DUP3 ADD MLOAD DUP1 MLOAD PUSH2 0x3877 SWAP2 PUSH1 0x2 DUP5 ADD SWAP2 PUSH1 0x20 SWAP1 SWAP2 ADD SWAP1 PUSH2 0x56B2 JUMP JUMPDEST POP PUSH1 0x60 DUP3 ADD MLOAD PUSH1 0x3 DUP3 ADD DUP1 SLOAD PUSH4 0xFFFFFFFF NOT AND PUSH4 0xFFFFFFFF SWAP1 SWAP3 AND SWAP2 SWAP1 SWAP2 OR SWAP1 SSTORE PUSH1 0x80 DUP3 ADD MLOAD DUP1 MLOAD PUSH2 0x38B3 SWAP2 PUSH1 0x4 DUP5 ADD SWAP2 PUSH1 0x20 SWAP1 SWAP2 ADD SWAP1 PUSH2 0x5736 JUMP JUMPDEST POP PUSH1 0xA0 DUP3 ADD MLOAD PUSH1 0x5 DUP3 ADD DUP1 SLOAD PUSH1 0xFF NOT AND PUSH1 0xFF SWAP1 SWAP3 AND SWAP2 SWAP1 SWAP2 OR SWAP1 SSTORE PUSH1 0xC0 DUP3 ADD MLOAD DUP1 MLOAD PUSH2 0x38E9 SWAP2 PUSH1 0x6 DUP5 ADD SWAP2 PUSH1 0x20 SWAP1 SWAP2 ADD SWAP1 PUSH2 0x57E0 JUMP JUMPDEST POP PUSH1 0xE0 DUP3 ADD MLOAD DUP1 MLOAD PUSH2 0x3905 SWAP2 PUSH1 0x7 DUP5 ADD SWAP2 PUSH1 0x20 SWAP1 SWAP2 ADD SWAP1 PUSH2 0x57E0 JUMP JUMPDEST POP PUSH2 0x100 SWAP2 DUP3 ADD MLOAD PUSH1 0x8 SWAP2 DUP3 ADD DUP1 SLOAD PUSH1 0xFF NOT AND SWAP2 ISZERO ISZERO SWAP2 SWAP1 SWAP2 OR SWAP1 SSTORE CALLER PUSH1 0x0 SWAP1 DUP2 MSTORE PUSH1 0x20 DUP2 DUP2 MSTORE PUSH1 0x40 DUP3 KECCAK256 PUSH1 0x6 ADD DUP1 SLOAD PUSH1 0x1 DUP2 ADD DUP3 SSTORE SWAP1 DUP4 MSTORE SWAP2 KECCAK256 SWAP2 DUP2 DIV SWAP1 SWAP2 ADD DUP1 SLOAD PUSH1 0x7 SWAP1 SWAP3 AND PUSH1 0x4 MUL SWAP1 SWAP3 EXP PUSH4 0xFFFFFFFF DUP2 DUP2 MUL NOT SWAP1 SWAP3 AND SWAP6 SWAP1 SWAP2 AND MUL SWAP4 SWAP1 SWAP4 OR SWAP1 SWAP3 SSTORE POP POP POP POP POP POP POP POP JUMP JUMPDEST PUSH1 0x3 CALLER PUSH1 0x0 SWAP1 DUP2 MSTORE PUSH1 0x20 DUP2 SWAP1 MSTORE PUSH1 0x40 SWAP1 KECCAK256 PUSH1 0x4 ADD SLOAD PUSH2 0x100 SWAP1 DIV PUSH1 0xFF AND PUSH1 0x5 DUP2 GT ISZERO PUSH2 0x39A3 JUMPI PUSH2 0x39A3 PUSH2 0x626F JUMP JUMPDEST EQ PUSH1 0x40 MLOAD DUP1 PUSH1 0x60 ADD PUSH1 0x40 MSTORE DUP1 PUSH1 0x2F DUP2 MSTORE PUSH1 0x20 ADD PUSH2 0x62D5 PUSH1 0x2F SWAP2 CODECOPY SWAP1 PUSH2 0x39DB JUMPI PUSH1 0x40 MLOAD PUSH3 0x461BCD PUSH1 0xE5 SHL DUP2 MSTORE PUSH1 0x4 ADD PUSH2 0x5E6 SWAP2 SWAP1 PUSH2 0x60EA JUMP JUMPDEST POP CALLER PUSH1 0x0 SWAP1 DUP2 MSTORE PUSH1 0x20 DUP2 SWAP1 MSTORE PUSH1 0x40 DUP1 DUP3 KECCAK256 SWAP1 MLOAD PUSH1 0x3 SWAP2 PUSH2 0x3A00 SWAP2 PUSH1 0x5 SWAP1 SWAP2 ADD SWAP1 PUSH2 0x5E31 JUMP JUMPDEST SWAP1 DUP2 MSTORE PUSH1 0x20 ADD PUSH1 0x40 MLOAD DUP1 SWAP2 SUB SWAP1 KECCAK256 PUSH1 0x40 MLOAD DUP1 PUSH1 0x60 ADD PUSH1 0x40 MSTORE SWAP1 DUP2 PUSH1 0x0 DUP3 ADD DUP1 SLOAD PUSH2 0x3A29 SWAP1 PUSH2 0x61DF JUMP JUMPDEST DUP1 PUSH1 0x1F ADD PUSH1 0x20 DUP1 SWAP2 DIV MUL PUSH1 0x20 ADD PUSH1 0x40 MLOAD SWAP1 DUP2 ADD PUSH1 0x40 MSTORE DUP1 SWAP3 SWAP2 SWAP1 DUP2 DUP2 MSTORE PUSH1 0x20 ADD DUP3 DUP1 SLOAD PUSH2 0x3A55 SWAP1 PUSH2 0x61DF JUMP JUMPDEST DUP1 ISZERO PUSH2 0x3AA2 JUMPI DUP1 PUSH1 0x1F LT PUSH2 0x3A77 JUMPI PUSH2 0x100 DUP1 DUP4 SLOAD DIV MUL DUP4 MSTORE SWAP2 PUSH1 0x20 ADD SWAP2 PUSH2 0x3AA2 JUMP JUMPDEST DUP3 ADD SWAP2 SWAP1 PUSH1 0x0 MSTORE PUSH1 0x20 PUSH1 0x0 KECCAK256 SWAP1 JUMPDEST DUP2 SLOAD DUP2 MSTORE SWAP1 PUSH1 0x1 ADD SWAP1 PUSH1 0x20 ADD DUP1 DUP4 GT PUSH2 0x3A85 JUMPI DUP3 SWAP1 SUB PUSH1 0x1F AND DUP3 ADD SWAP2 JUMPDEST POP POP POP SWAP2 DUP4 MSTORE POP POP PUSH1 0x1 SWAP2 SWAP1 SWAP2 ADD SLOAD PUSH1 0x1 PUSH1 0x1 PUSH1 0xA0 SHL SUB DUP2 AND PUSH1 0x20 DUP4 ADD MSTORE PUSH1 0x1 PUSH1 0xA0 SHL SWAP1 DIV PUSH1 0xFF AND ISZERO ISZERO PUSH1 0x40 SWAP2 DUP3 ADD MSTORE DUP2 MLOAD SWAP1 MLOAD SWAP2 SWAP3 POP PUSH1 0x9 SWAP2 PUSH2 0x3AE6 SWAP2 SWAP1 PUSH2 0x5E15 JUMP JUMPDEST SWAP1 DUP2 MSTORE PUSH1 0x40 MLOAD SWAP1 DUP2 SWAP1 SUB PUSH1 0x20 ADD SWAP1 KECCAK256 PUSH1 0x2 ADD SLOAD PUSH1 0xFF AND PUSH2 0x3B53 JUMPI PUSH1 0x40 MLOAD PUSH3 0x461BCD PUSH1 0xE5 SHL DUP2 MSTORE PUSH1 0x20 PUSH1 0x4 DUP3 ADD MSTORE PUSH1 0x22 PUSH1 0x24 DUP3 ADD MSTORE PUSH32 0x596F7520686176656E27742073656E7420616E79206D6F6E6579207265717565 PUSH1 0x44 DUP3 ADD MSTORE PUSH2 0x1CDD PUSH1 0xF2 SHL PUSH1 0x64 DUP3 ADD MSTORE PUSH1 0x84 ADD PUSH2 0x5E6 JUMP JUMPDEST DUP1 MLOAD PUSH2 0x17C6 SWAP1 PUSH2 0x5170 JUMP JUMPDEST PUSH4 0xFFFFFFFF DUP2 AND PUSH1 0x0 SWAP1 DUP2 MSTORE PUSH1 0x5 PUSH1 0x20 SWAP1 DUP2 MSTORE PUSH1 0x40 DUP1 DUP4 KECCAK256 DUP2 MLOAD PUSH2 0x120 DUP2 ADD SWAP1 SWAP3 MSTORE DUP1 SLOAD PUSH1 0x1 PUSH1 0x1 PUSH1 0xA0 SHL SUB AND DUP3 MSTORE PUSH1 0x1 DUP2 ADD DUP1 SLOAD DUP6 SWAP5 PUSH1 0x60 SWAP5 DUP6 SWAP5 DUP8 SWAP5 DUP7 SWAP5 DUP7 SWAP5 DUP7 SWAP5 DUP6 SWAP5 DUP8 SWAP5 SWAP2 SWAP4 SWAP1 SWAP3 DUP5 ADD SWAP2 SWAP1 PUSH2 0x3BB7 SWAP1 PUSH2 0x61DF JUMP JUMPDEST DUP1 PUSH1 0x1F ADD PUSH1 0x20 DUP1 SWAP2 DIV MUL PUSH1 0x20 ADD PUSH1 0x40 MLOAD SWAP1 DUP2 ADD PUSH1 0x40 MSTORE DUP1 SWAP3 SWAP2 SWAP1 DUP2 DUP2 MSTORE PUSH1 0x20 ADD DUP3 DUP1 SLOAD PUSH2 0x3BE3 SWAP1 PUSH2 0x61DF JUMP JUMPDEST DUP1 ISZERO PUSH2 0x3C30 JUMPI DUP1 PUSH1 0x1F LT PUSH2 0x3C05 JUMPI PUSH2 0x100 DUP1 DUP4 SLOAD DIV MUL DUP4 MSTORE SWAP2 PUSH1 0x20 ADD SWAP2 PUSH2 0x3C30 JUMP JUMPDEST DUP3 ADD SWAP2 SWAP1 PUSH1 0x0 MSTORE PUSH1 0x20 PUSH1 0x0 KECCAK256 SWAP1 JUMPDEST DUP2 SLOAD DUP2 MSTORE SWAP1 PUSH1 0x1 ADD SWAP1 PUSH1 0x20 ADD DUP1 DUP4 GT PUSH2 0x3C13 JUMPI DUP3 SWAP1 SUB PUSH1 0x1F AND DUP3 ADD SWAP2 JUMPDEST POP POP POP POP POP DUP2 MSTORE PUSH1 0x20 ADD PUSH1 0x2 DUP3 ADD DUP1 SLOAD PUSH2 0x3C49 SWAP1 PUSH2 0x61DF JUMP JUMPDEST DUP1 PUSH1 0x1F ADD PUSH1 0x20 DUP1 SWAP2 DIV MUL PUSH1 0x20 ADD PUSH1 0x40 MLOAD SWAP1 DUP2 ADD PUSH1 0x40 MSTORE DUP1 SWAP3 SWAP2 SWAP1 DUP2 DUP2 MSTORE PUSH1 0x20 ADD DUP3 DUP1 SLOAD PUSH2 0x3C75 SWAP1 PUSH2 0x61DF JUMP JUMPDEST DUP1 ISZERO PUSH2 0x3CC2 JUMPI DUP1 PUSH1 0x1F LT PUSH2 0x3C97 JUMPI PUSH2 0x100 DUP1 DUP4 SLOAD DIV MUL DUP4 MSTORE SWAP2 PUSH1 0x20 ADD SWAP2 PUSH2 0x3CC2 JUMP JUMPDEST DUP3 ADD SWAP2 SWAP1 PUSH1 0x0 MSTORE PUSH1 0x20 PUSH1 0x0 KECCAK256 SWAP1 JUMPDEST DUP2 SLOAD DUP2 MSTORE SWAP1 PUSH1 0x1 ADD SWAP1 PUSH1 0x20 ADD DUP1 DUP4 GT PUSH2 0x3CA5 JUMPI DUP3 SWAP1 SUB PUSH1 0x1F AND DUP3 ADD SWAP2 JUMPDEST POP POP POP SWAP2 DUP4 MSTORE POP POP PUSH1 0x3 DUP3 ADD SLOAD PUSH4 0xFFFFFFFF AND PUSH1 0x20 DUP1 DUP4 ADD SWAP2 SWAP1 SWAP2 MSTORE PUSH1 0x4 DUP4 ADD DUP1 SLOAD PUSH1 0x40 DUP1 MLOAD DUP3 DUP6 MUL DUP2 ADD DUP6 ADD DUP3 MSTORE DUP3 DUP2 MSTORE SWAP5 ADD SWAP4 SWAP3 DUP4 ADD DUP3 DUP3 DUP1 ISZERO PUSH2 0x3D53 JUMPI PUSH1 0x20 MUL DUP3 ADD SWAP2 SWAP1 PUSH1 0x0 MSTORE PUSH1 0x20 PUSH1 0x0 KECCAK256 SWAP1 PUSH1 0x0 SWAP1 JUMPDEST DUP3 DUP3 SWAP1 SLOAD SWAP1 PUSH2 0x100 EXP SWAP1 DIV PUSH4 0xFFFFFFFF AND PUSH4 0xFFFFFFFF AND DUP2 MSTORE PUSH1 0x20 ADD SWAP1 PUSH1 0x4 ADD SWAP1 PUSH1 0x20 DUP3 PUSH1 0x3 ADD DIV SWAP3 DUP4 ADD SWAP3 PUSH1 0x1 SUB DUP3 MUL SWAP2 POP DUP1 DUP5 GT PUSH2 0x3D16 JUMPI SWAP1 POP JUMPDEST POP POP POP SWAP2 DUP4 MSTORE POP POP PUSH1 0x5 DUP3 ADD SLOAD PUSH1 0xFF AND PUSH1 0x20 DUP1 DUP4 ADD SWAP2 SWAP1 SWAP2 MSTORE PUSH1 0x6 DUP4 ADD DUP1 SLOAD PUSH1 0x40 DUP1 MLOAD DUP3 DUP6 MUL DUP2 ADD DUP6 ADD DUP3 MSTORE DUP3 DUP2 MSTORE SWAP5 ADD SWAP4 SWAP3 DUP4 ADD DUP3 DUP3 DUP1 ISZERO PUSH2 0x3DBF JUMPI PUSH1 0x20 MUL DUP3 ADD SWAP2 SWAP1 PUSH1 0x0 MSTORE PUSH1 0x20 PUSH1 0x0 KECCAK256 SWAP1 JUMPDEST DUP2 SLOAD PUSH1 0x1 PUSH1 0x1 PUSH1 0xA0 SHL SUB AND DUP2 MSTORE PUSH1 0x1 SWAP1 SWAP2 ADD SWAP1 PUSH1 0x20 ADD DUP1 DUP4 GT PUSH2 0x3DA1 JUMPI JUMPDEST POP POP POP POP POP DUP2 MSTORE PUSH1 0x20 ADD PUSH1 0x7 DUP3 ADD DUP1 SLOAD DUP1 PUSH1 0x20 MUL PUSH1 0x20 ADD PUSH1 0x40 MLOAD SWAP1 DUP2 ADD PUSH1 0x40 MSTORE DUP1 SWAP3 SWAP2 SWAP1 DUP2 DUP2 MSTORE PUSH1 0x20 ADD DUP3 DUP1 SLOAD DUP1 ISZERO PUSH2 0x3E21 JUMPI PUSH1 0x20 MUL DUP3 ADD SWAP2 SWAP1 PUSH1 0x0 MSTORE PUSH1 0x20 PUSH1 0x0 KECCAK256 SWAP1 JUMPDEST DUP2 SLOAD PUSH1 0x1 PUSH1 0x1 PUSH1 0xA0 SHL SUB AND DUP2 MSTORE PUSH1 0x1 SWAP1 SWAP2 ADD SWAP1 PUSH1 0x20 ADD DUP1 DUP4 GT PUSH2 0x3E03 JUMPI JUMPDEST POP POP POP POP POP DUP2 MSTORE PUSH1 0x20 ADD PUSH1 0x8 DUP3 ADD PUSH1 0x0 SWAP1 SLOAD SWAP1 PUSH2 0x100 EXP SWAP1 DIV PUSH1 0xFF AND ISZERO ISZERO ISZERO ISZERO DUP2 MSTORE POP POP SWAP1 POP DUP1 PUSH2 0x100 ADD MLOAD DUP2 PUSH1 0x0 ADD MLOAD DUP3 PUSH1 0x20 ADD MLOAD DUP4 PUSH1 0x40 ADD MLOAD DUP5 PUSH1 0x60 ADD MLOAD DUP6 PUSH1 0x80 ADD MLOAD DUP7 PUSH1 0xA0 ADD MLOAD DUP8 PUSH1 0xC0 ADD MLOAD DUP9 PUSH1 0xE0 ADD MLOAD SWAP10 POP SWAP10 POP SWAP10 POP SWAP10 POP SWAP10 POP SWAP10 POP SWAP10 POP SWAP10 POP SWAP10 POP POP SWAP2 SWAP4 SWAP6 SWAP8 SWAP10 SWAP1 SWAP3 SWAP5 SWAP7 SWAP9 POP JUMP JUMPDEST PUSH1 0x60 PUSH1 0x2 DUP1 SLOAD DUP1 PUSH1 0x20 MUL PUSH1 0x20 ADD PUSH1 0x40 MLOAD SWAP1 DUP2 ADD PUSH1 0x40 MSTORE DUP1 SWAP3 SWAP2 SWAP1 DUP2 DUP2 MSTORE PUSH1 0x20 ADD PUSH1 0x0 SWAP1 JUMPDEST DUP3 DUP3 LT ISZERO PUSH2 0x189A JUMPI DUP4 DUP3 SWAP1 PUSH1 0x0 MSTORE PUSH1 0x20 PUSH1 0x0 KECCAK256 ADD DUP1 SLOAD PUSH2 0x3ED8 SWAP1 PUSH2 0x61DF JUMP JUMPDEST DUP1 PUSH1 0x1F ADD PUSH1 0x20 DUP1 SWAP2 DIV MUL PUSH1 0x20 ADD PUSH1 0x40 MLOAD SWAP1 DUP2 ADD PUSH1 0x40 MSTORE DUP1 SWAP3 SWAP2 SWAP1 DUP2 DUP2 MSTORE PUSH1 0x20 ADD DUP3 DUP1 SLOAD PUSH2 0x3F04 SWAP1 PUSH2 0x61DF JUMP JUMPDEST DUP1 ISZERO PUSH2 0x3F51 JUMPI DUP1 PUSH1 0x1F LT PUSH2 0x3F26 JUMPI PUSH2 0x100 DUP1 DUP4 SLOAD DIV MUL DUP4 MSTORE SWAP2 PUSH1 0x20 ADD SWAP2 PUSH2 0x3F51 JUMP JUMPDEST DUP3 ADD SWAP2 SWAP1 PUSH1 0x0 MSTORE PUSH1 0x20 PUSH1 0x0 KECCAK256 SWAP1 JUMPDEST DUP2 SLOAD DUP2 MSTORE SWAP1 PUSH1 0x1 ADD SWAP1 PUSH1 0x20 ADD DUP1 DUP4 GT PUSH2 0x3F34 JUMPI DUP3 SWAP1 SUB PUSH1 0x1F AND DUP3 ADD SWAP2 JUMPDEST POP POP POP POP POP DUP2 MSTORE PUSH1 0x20 ADD SWAP1 PUSH1 0x1 ADD SWAP1 PUSH2 0x3EB9 JUMP JUMPDEST CALLER PUSH1 0x0 SWAP1 DUP2 MSTORE PUSH1 0x20 DUP2 SWAP1 MSTORE PUSH1 0x40 DUP1 DUP3 KECCAK256 DUP2 MLOAD PUSH2 0x120 DUP2 ADD SWAP1 SWAP3 MSTORE DUP1 SLOAD DUP3 SWAP1 DUP3 SWAP1 PUSH2 0x3F8E SWAP1 PUSH2 0x61DF JUMP JUMPDEST DUP1 PUSH1 0x1F ADD PUSH1 0x20 DUP1 SWAP2 DIV MUL PUSH1 0x20 ADD PUSH1 0x40 MLOAD SWAP1 DUP2 ADD PUSH1 0x40 MSTORE DUP1 SWAP3 SWAP2 SWAP1 DUP2 DUP2 MSTORE PUSH1 0x20 ADD DUP3 DUP1 SLOAD PUSH2 0x3FBA SWAP1 PUSH2 0x61DF JUMP JUMPDEST DUP1 ISZERO PUSH2 0x4007 JUMPI DUP1 PUSH1 0x1F LT PUSH2 0x3FDC JUMPI PUSH2 0x100 DUP1 DUP4 SLOAD DIV MUL DUP4 MSTORE SWAP2 PUSH1 0x20 ADD SWAP2 PUSH2 0x4007 JUMP JUMPDEST DUP3 ADD SWAP2 SWAP1 PUSH1 0x0 MSTORE PUSH1 0x20 PUSH1 0x0 KECCAK256 SWAP1 JUMPDEST DUP2 SLOAD DUP2 MSTORE SWAP1 PUSH1 0x1 ADD SWAP1 PUSH1 0x20 ADD DUP1 DUP4 GT PUSH2 0x3FEA JUMPI DUP3 SWAP1 SUB PUSH1 0x1F AND DUP3 ADD SWAP2 JUMPDEST POP POP POP POP POP DUP2 MSTORE PUSH1 0x20 ADD PUSH1 0x1 DUP3 ADD DUP1 SLOAD PUSH2 0x4020 SWAP1 PUSH2 0x61DF JUMP JUMPDEST DUP1 PUSH1 0x1F ADD PUSH1 0x20 DUP1 SWAP2 DIV MUL PUSH1 0x20 ADD PUSH1 0x40 MLOAD SWAP1 DUP2 ADD PUSH1 0x40 MSTORE DUP1 SWAP3 SWAP2 SWAP1 DUP2 DUP2 MSTORE PUSH1 0x20 ADD DUP3 DUP1 SLOAD PUSH2 0x404C SWAP1 PUSH2 0x61DF JUMP JUMPDEST DUP1 ISZERO PUSH2 0x4099 JUMPI DUP1 PUSH1 0x1F LT PUSH2 0x406E JUMPI PUSH2 0x100 DUP1 DUP4 SLOAD DIV MUL DUP4 MSTORE SWAP2 PUSH1 0x20 ADD SWAP2 PUSH2 0x4099 JUMP JUMPDEST DUP3 ADD SWAP2 SWAP1 PUSH1 0x0 MSTORE PUSH1 0x20 PUSH1 0x0 KECCAK256 SWAP1 JUMPDEST DUP2 SLOAD DUP2 MSTORE SWAP1 PUSH1 0x1 ADD SWAP1 PUSH1 0x20 ADD DUP1 DUP4 GT PUSH2 0x407C JUMPI DUP3 SWAP1 SUB PUSH1 0x1F AND DUP3 ADD SWAP2 JUMPDEST POP POP POP SWAP2 DUP4 MSTORE POP POP PUSH1 0x2 DUP3 ADD SLOAD PUSH1 0x20 DUP3 ADD MSTORE PUSH1 0x3 DUP3 ADD SLOAD PUSH1 0x40 DUP3 ADD MSTORE PUSH1 0x4 DUP3 ADD SLOAD PUSH1 0x60 SWAP1 SWAP2 ADD SWAP1 PUSH1 0xFF AND PUSH1 0x5 DUP2 GT ISZERO PUSH2 0x40D4 JUMPI PUSH2 0x40D4 PUSH2 0x626F JUMP JUMPDEST PUSH1 0x5 DUP2 GT ISZERO PUSH2 0x40E5 JUMPI PUSH2 0x40E5 PUSH2 0x626F JUMP JUMPDEST DUP2 MSTORE PUSH1 0x20 ADD PUSH1 0x4 DUP3 ADD PUSH1 0x1 SWAP1 SLOAD SWAP1 PUSH2 0x100 EXP SWAP1 DIV PUSH1 0xFF AND PUSH1 0x5 DUP2 GT ISZERO PUSH2 0x410D JUMPI PUSH2 0x410D PUSH2 0x626F JUMP JUMPDEST PUSH1 0x5 DUP2 GT ISZERO PUSH2 0x411E JUMPI PUSH2 0x411E PUSH2 0x626F JUMP JUMPDEST DUP2 MSTORE PUSH1 0x20 ADD PUSH1 0x5 DUP3 ADD DUP1 SLOAD PUSH2 0x4132 SWAP1 PUSH2 0x61DF JUMP JUMPDEST DUP1 PUSH1 0x1F ADD PUSH1 0x20 DUP1 SWAP2 DIV MUL PUSH1 0x20 ADD PUSH1 0x40 MLOAD SWAP1 DUP2 ADD PUSH1 0x40 MSTORE DUP1 SWAP3 SWAP2 SWAP1 DUP2 DUP2 MSTORE PUSH1 0x20 ADD DUP3 DUP1 SLOAD PUSH2 0x415E SWAP1 PUSH2 0x61DF JUMP JUMPDEST DUP1 ISZERO PUSH2 0x41AB JUMPI DUP1 PUSH1 0x1F LT PUSH2 0x4180 JUMPI PUSH2 0x100 DUP1 DUP4 SLOAD DIV MUL DUP4 MSTORE SWAP2 PUSH1 0x20 ADD SWAP2 PUSH2 0x41AB JUMP JUMPDEST DUP3 ADD SWAP2 SWAP1 PUSH1 0x0 MSTORE PUSH1 0x20 PUSH1 0x0 KECCAK256 SWAP1 JUMPDEST DUP2 SLOAD DUP2 MSTORE SWAP1 PUSH1 0x1 ADD SWAP1 PUSH1 0x20 ADD DUP1 DUP4 GT PUSH2 0x418E JUMPI DUP3 SWAP1 SUB PUSH1 0x1F AND DUP3 ADD SWAP2 JUMPDEST POP POP POP POP POP DUP2 MSTORE PUSH1 0x20 ADD PUSH1 0x6 DUP3 ADD DUP1 SLOAD DUP1 PUSH1 0x20 MUL PUSH1 0x20 ADD PUSH1 0x40 MLOAD SWAP1 DUP2 ADD PUSH1 0x40 MSTORE DUP1 SWAP3 SWAP2 SWAP1 DUP2 DUP2 MSTORE PUSH1 0x20 ADD DUP3 DUP1 SLOAD DUP1 ISZERO PUSH2 0x422F JUMPI PUSH1 0x20 MUL DUP3 ADD SWAP2 SWAP1 PUSH1 0x0 MSTORE PUSH1 0x20 PUSH1 0x0 KECCAK256 SWAP1 PUSH1 0x0 SWAP1 JUMPDEST DUP3 DUP3 SWAP1 SLOAD SWAP1 PUSH2 0x100 EXP SWAP1 DIV PUSH4 0xFFFFFFFF AND PUSH4 0xFFFFFFFF AND DUP2 MSTORE PUSH1 0x20 ADD SWAP1 PUSH1 0x4 ADD SWAP1 PUSH1 0x20 DUP3 PUSH1 0x3 ADD DIV SWAP3 DUP4 ADD SWAP3 PUSH1 0x1 SUB DUP3 MUL SWAP2 POP DUP1 DUP5 GT PUSH2 0x41F2 JUMPI SWAP1 POP JUMPDEST POP POP POP SWAP2 DUP4 MSTORE POP POP PUSH1 0x7 SWAP2 SWAP1 SWAP2 ADD SLOAD PUSH1 0xFF AND ISZERO ISZERO PUSH1 0x20 SWAP1 SWAP2 ADD MSTORE SWAP1 POP PUSH1 0x0 DUP2 PUSH1 0xA0 ADD MLOAD PUSH1 0x5 DUP2 GT ISZERO PUSH2 0x4263 JUMPI PUSH2 0x4263 PUSH2 0x626F JUMP JUMPDEST EQ DUP1 PUSH2 0x4284 JUMPI POP PUSH1 0x1 DUP2 PUSH1 0xA0 ADD MLOAD PUSH1 0x5 DUP2 GT ISZERO PUSH2 0x4282 JUMPI PUSH2 0x4282 PUSH2 0x626F JUMP JUMPDEST EQ JUMPDEST PUSH1 0x40 MLOAD DUP1 PUSH1 0x60 ADD PUSH1 0x40 MSTORE DUP1 PUSH1 0x2F DUP2 MSTORE PUSH1 0x20 ADD PUSH2 0x62D5 PUSH1 0x2F SWAP2 CODECOPY SWAP1 PUSH2 0x42BB JUMPI PUSH1 0x40 MLOAD PUSH3 0x461BCD PUSH1 0xE5 SHL DUP2 MSTORE PUSH1 0x4 ADD PUSH2 0x5E6 SWAP2 SWAP1 PUSH2 0x60EA JUMP JUMPDEST POP CALLER PUSH1 0x0 SWAP1 DUP2 MSTORE PUSH1 0x7 PUSH1 0x20 MSTORE PUSH1 0x40 SWAP1 KECCAK256 PUSH1 0x2 ADD SLOAD PUSH1 0xFF AND PUSH2 0x432E JUMPI PUSH1 0x40 MLOAD PUSH3 0x461BCD PUSH1 0xE5 SHL DUP2 MSTORE PUSH1 0x20 PUSH1 0x4 DUP3 ADD MSTORE PUSH1 0x27 PUSH1 0x24 DUP3 ADD MSTORE PUSH32 0x596F752068617665206E6F742073656E7420616E7920656C6576617465207265 PUSH1 0x44 DUP3 ADD MSTORE PUSH7 0x71756573747321 PUSH1 0xC8 SHL PUSH1 0x64 DUP3 ADD MSTORE PUSH1 0x84 ADD PUSH2 0x5E6 JUMP JUMPDEST CALLER PUSH1 0x0 SWAP1 DUP2 MSTORE PUSH1 0x7 PUSH1 0x20 MSTORE PUSH1 0x40 DUP2 KECCAK256 PUSH1 0x2 ADD DUP1 SLOAD PUSH1 0xFF NOT AND SWAP1 SSTORE JUMPDEST PUSH1 0x8 SLOAD DUP2 LT ISZERO PUSH2 0x17C6 JUMPI CALLER PUSH1 0x1 PUSH1 0x1 PUSH1 0xA0 SHL SUB AND PUSH1 0x8 DUP3 DUP2 SLOAD DUP2 LT PUSH2 0x4370 JUMPI PUSH2 0x4370 PUSH2 0x6285 JUMP JUMPDEST PUSH1 0x0 SWAP2 DUP3 MSTORE PUSH1 0x20 SWAP1 SWAP2 KECCAK256 ADD SLOAD PUSH1 0x1 PUSH1 0x1 PUSH1 0xA0 SHL SUB AND EQ ISZERO PUSH2 0x43B8 JUMPI PUSH1 0x8 DUP2 DUP2 SLOAD DUP2 LT PUSH2 0x439E JUMPI PUSH2 0x439E PUSH2 0x6285 JUMP JUMPDEST PUSH1 0x0 SWAP2 DUP3 MSTORE PUSH1 0x20 SWAP1 SWAP2 KECCAK256 ADD DUP1 SLOAD PUSH1 0x1 PUSH1 0x1 PUSH1 0xA0 SHL SUB NOT AND SWAP1 SSTORE JUMPDEST DUP1 PUSH2 0x43C2 DUP2 PUSH2 0x621A JUMP JUMPDEST SWAP2 POP POP PUSH2 0x4349 JUMP JUMPDEST PUSH1 0x0 DUP1 PUSH1 0x60 PUSH1 0x5 CALLER PUSH1 0x0 SWAP1 DUP2 MSTORE PUSH1 0x20 DUP2 SWAP1 MSTORE PUSH1 0x40 SWAP1 KECCAK256 PUSH1 0x4 ADD SLOAD PUSH2 0x100 SWAP1 DIV PUSH1 0xFF AND PUSH1 0x5 DUP2 GT ISZERO PUSH2 0x43FD JUMPI PUSH2 0x43FD PUSH2 0x626F JUMP JUMPDEST EQ PUSH1 0x40 MLOAD DUP1 PUSH1 0x60 ADD PUSH1 0x40 MSTORE DUP1 PUSH1 0x2F DUP2 MSTORE PUSH1 0x20 ADD PUSH2 0x62D5 PUSH1 0x2F SWAP2 CODECOPY SWAP1 PUSH2 0x4435 JUMPI PUSH1 0x40 MLOAD PUSH3 0x461BCD PUSH1 0xE5 SHL DUP2 MSTORE PUSH1 0x4 ADD PUSH2 0x5E6 SWAP2 SWAP1 PUSH2 0x60EA JUMP JUMPDEST POP PUSH1 0x1 PUSH1 0x1 PUSH1 0xA0 SHL SUB DUP5 AND PUSH1 0x0 SWAP1 DUP2 MSTORE PUSH1 0x7 PUSH1 0x20 MSTORE PUSH1 0x40 SWAP1 KECCAK256 PUSH1 0x2 DUP2 ADD SLOAD DUP2 SLOAD PUSH1 0x1 SWAP1 SWAP3 ADD DUP1 SLOAD PUSH1 0xFF SWAP3 DUP4 AND SWAP4 PUSH1 0x1 PUSH1 0xA0 SHL SWAP1 DIV SWAP1 SWAP3 AND SWAP2 DUP2 SWAP1 PUSH2 0x4478 SWAP1 PUSH2 0x61DF JUMP JUMPDEST DUP1 PUSH1 0x1F ADD PUSH1 0x20 DUP1 SWAP2 DIV MUL PUSH1 0x20 ADD PUSH1 0x40 MLOAD SWAP1 DUP2 ADD PUSH1 0x40 MSTORE DUP1 SWAP3 SWAP2 SWAP1 DUP2 DUP2 MSTORE PUSH1 0x20 ADD DUP3 DUP1 SLOAD PUSH2 0x44A4 SWAP1 PUSH2 0x61DF JUMP JUMPDEST DUP1 ISZERO PUSH2 0x44F1 JUMPI DUP1 PUSH1 0x1F LT PUSH2 0x44C6 JUMPI PUSH2 0x100 DUP1 DUP4 SLOAD DIV MUL DUP4 MSTORE SWAP2 PUSH1 0x20 ADD SWAP2 PUSH2 0x44F1 JUMP JUMPDEST DUP3 ADD SWAP2 SWAP1 PUSH1 0x0 MSTORE PUSH1 0x20 PUSH1 0x0 KECCAK256 SWAP1 JUMPDEST DUP2 SLOAD DUP2 MSTORE SWAP1 PUSH1 0x1 ADD SWAP1 PUSH1 0x20 ADD DUP1 DUP4 GT PUSH2 0x44D4 JUMPI DUP3 SWAP1 SUB PUSH1 0x1F AND DUP3 ADD SWAP2 JUMPDEST POP POP POP POP POP SWAP1 POP SWAP3 POP SWAP3 POP SWAP3 POP SWAP2 SWAP4 SWAP1 SWAP3 POP JUMP JUMPDEST PUSH1 0x3 CALLER PUSH1 0x0 SWAP1 DUP2 MSTORE PUSH1 0x20 DUP2 SWAP1 MSTORE PUSH1 0x40 SWAP1 KECCAK256 PUSH1 0x4 ADD SLOAD PUSH2 0x100 SWAP1 DIV PUSH1 0xFF AND PUSH1 0x5 DUP2 GT ISZERO PUSH2 0x4533 JUMPI PUSH2 0x4533 PUSH2 0x626F JUMP JUMPDEST EQ PUSH1 0x40 MLOAD DUP1 PUSH1 0x60 ADD PUSH1 0x40 MSTORE DUP1 PUSH1 0x2F DUP2 MSTORE PUSH1 0x20 ADD PUSH2 0x62D5 PUSH1 0x2F SWAP2 CODECOPY SWAP1 PUSH2 0x456B JUMPI PUSH1 0x40 MLOAD PUSH3 0x461BCD PUSH1 0xE5 SHL DUP2 MSTORE PUSH1 0x4 ADD PUSH2 0x5E6 SWAP2 SWAP1 PUSH2 0x60EA JUMP JUMPDEST POP CALLER PUSH1 0x0 SWAP1 DUP2 MSTORE PUSH1 0x20 DUP2 SWAP1 MSTORE PUSH1 0x40 DUP1 DUP3 KECCAK256 SWAP1 MLOAD PUSH1 0x3 SWAP2 PUSH2 0x4590 SWAP2 PUSH1 0x5 SWAP1 SWAP2 ADD SWAP1 PUSH2 0x5E31 JUMP JUMPDEST SWAP1 DUP2 MSTORE PUSH1 0x20 ADD PUSH1 0x40 MLOAD DUP1 SWAP2 SUB SWAP1 KECCAK256 PUSH1 0x40 MLOAD DUP1 PUSH1 0x60 ADD PUSH1 0x40 MSTORE SWAP1 DUP2 PUSH1 0x0 DUP3 ADD DUP1 SLOAD PUSH2 0x45B9 SWAP1 PUSH2 0x61DF JUMP JUMPDEST DUP1 PUSH1 0x1F ADD PUSH1 0x20 DUP1 SWAP2 DIV MUL PUSH1 0x20 ADD PUSH1 0x40 MLOAD SWAP1 DUP2 ADD PUSH1 0x40 MSTORE DUP1 SWAP3 SWAP2 SWAP1 DUP2 DUP2 MSTORE PUSH1 0x20 ADD DUP3 DUP1 SLOAD PUSH2 0x45E5 SWAP1 PUSH2 0x61DF JUMP JUMPDEST DUP1 ISZERO PUSH2 0x4632 JUMPI DUP1 PUSH1 0x1F LT PUSH2 0x4607 JUMPI PUSH2 0x100 DUP1 DUP4 SLOAD DIV MUL DUP4 MSTORE SWAP2 PUSH1 0x20 ADD SWAP2 PUSH2 0x4632 JUMP JUMPDEST DUP3 ADD SWAP2 SWAP1 PUSH1 0x0 MSTORE PUSH1 0x20 PUSH1 0x0 KECCAK256 SWAP1 JUMPDEST DUP2 SLOAD DUP2 MSTORE SWAP1 PUSH1 0x1 ADD SWAP1 PUSH1 0x20 ADD DUP1 DUP4 GT PUSH2 0x4615 JUMPI DUP3 SWAP1 SUB PUSH1 0x1F AND DUP3 ADD SWAP2 JUMPDEST POP POP POP SWAP2 DUP4 MSTORE POP POP PUSH1 0x1 SWAP2 SWAP1 SWAP2 ADD SLOAD PUSH1 0x1 PUSH1 0x1 PUSH1 0xA0 SHL SUB DUP2 AND PUSH1 0x20 DUP4 ADD MSTORE PUSH1 0x1 PUSH1 0xA0 SHL SWAP1 DIV PUSH1 0xFF AND ISZERO ISZERO PUSH1 0x40 SWAP2 DUP3 ADD MSTORE DUP2 MLOAD SWAP1 MLOAD SWAP2 SWAP3 POP PUSH1 0x9 SWAP2 PUSH2 0x4676 SWAP2 SWAP1 PUSH2 0x5E15 JUMP JUMPDEST SWAP1 DUP2 MSTORE PUSH1 0x40 MLOAD SWAP1 DUP2 SWAP1 SUB PUSH1 0x20 ADD SWAP1 KECCAK256 PUSH1 0x2 ADD SLOAD PUSH1 0xFF AND ISZERO PUSH2 0x46E8 JUMPI PUSH1 0x40 MLOAD PUSH3 0x461BCD PUSH1 0xE5 SHL DUP2 MSTORE PUSH1 0x20 PUSH1 0x4 DUP3 ADD MSTORE PUSH1 0x26 PUSH1 0x24 DUP3 ADD MSTORE PUSH32 0x596F75206861766520616C72656164792073656E7420616E206D6F6E65792072 PUSH1 0x44 DUP3 ADD MSTORE PUSH6 0x195C5D595CDD PUSH1 0xD2 SHL PUSH1 0x64 DUP3 ADD MSTORE PUSH1 0x84 ADD PUSH2 0x5E6 JUMP JUMPDEST PUSH20 0x2641D38ED882F3E2EA5F45F922CDED9D72AD09F7 BALANCE DUP3 GT ISZERO PUSH2 0x4773 JUMPI PUSH1 0x40 MLOAD PUSH3 0x461BCD PUSH1 0xE5 SHL DUP2 MSTORE PUSH1 0x20 PUSH1 0x4 DUP3 ADD MSTORE PUSH1 0x37 PUSH1 0x24 DUP3 ADD MSTORE PUSH32 0x42616E6B20646F6573206E6F74206861766520656E6F756768206D6F6E657920 PUSH1 0x44 DUP3 ADD MSTORE PUSH32 0x746F207361746973667920796F75722072657175657374000000000000000000 PUSH1 0x64 DUP3 ADD MSTORE PUSH1 0x84 ADD PUSH2 0x5E6 JUMP JUMPDEST PUSH1 0x40 DUP1 MLOAD PUSH1 0x60 DUP2 ADD DUP3 MSTORE CALLER DUP2 MSTORE PUSH1 0x20 DUP2 ADD DUP5 SWAP1 MSTORE PUSH1 0x1 DUP2 DUP4 ADD MSTORE DUP3 MLOAD SWAP2 MLOAD SWAP1 SWAP2 PUSH1 0x9 SWAP2 PUSH2 0x47A0 SWAP2 SWAP1 PUSH2 0x5E15 JUMP JUMPDEST SWAP1 DUP2 MSTORE PUSH1 0x40 DUP1 MLOAD PUSH1 0x20 SWAP3 DUP2 SWAP1 SUB DUP4 ADD SWAP1 KECCAK256 DUP4 MLOAD DUP2 SLOAD PUSH1 0x1 PUSH1 0x1 PUSH1 0xA0 SHL SUB NOT AND PUSH1 0x1 PUSH1 0x1 PUSH1 0xA0 SHL SUB SWAP1 SWAP2 AND OR DUP2 SSTORE DUP4 DUP4 ADD MLOAD PUSH1 0x1 DUP1 DUP4 ADD SWAP2 SWAP1 SWAP2 SSTORE SWAP4 SWAP1 SWAP2 ADD MLOAD PUSH1 0x2 SWAP1 SWAP2 ADD DUP1 SLOAD PUSH1 0xFF NOT AND SWAP2 ISZERO ISZERO SWAP2 SWAP1 SWAP2 OR SWAP1 SSTORE DUP3 MLOAD PUSH1 0xA DUP1 SLOAD SWAP4 DUP5 ADD DUP2 SSTORE PUSH1 0x0 MSTORE DUP1 MLOAD PUSH2 0x1E87 SWAP4 PUSH32 0xC65A7BB8D6351C1CF70C95A316CC6A92839C986682D98BC35F958F4883F9D2A8 ADD SWAP3 SWAP2 SWAP1 SWAP2 ADD SWAP1 PUSH2 0x56B2 JUMP JUMPDEST PUSH1 0x0 DUP1 DUP1 PUSH1 0x4 CALLER PUSH1 0x0 SWAP1 DUP2 MSTORE PUSH1 0x20 DUP2 SWAP1 MSTORE PUSH1 0x40 SWAP1 KECCAK256 PUSH1 0x4 ADD SLOAD PUSH2 0x100 SWAP1 DIV PUSH1 0xFF AND PUSH1 0x5 DUP2 GT ISZERO PUSH2 0x4866 JUMPI PUSH2 0x4866 PUSH2 0x626F JUMP JUMPDEST EQ PUSH1 0x40 MLOAD DUP1 PUSH1 0x60 ADD PUSH1 0x40 MSTORE DUP1 PUSH1 0x2F DUP2 MSTORE PUSH1 0x20 ADD PUSH2 0x62D5 PUSH1 0x2F SWAP2 CODECOPY SWAP1 PUSH2 0x489E JUMPI PUSH1 0x40 MLOAD PUSH3 0x461BCD PUSH1 0xE5 SHL DUP2 MSTORE PUSH1 0x4 ADD PUSH2 0x5E6 SWAP2 SWAP1 PUSH2 0x60EA JUMP JUMPDEST POP PUSH1 0x0 PUSH1 0x9 DUP6 PUSH1 0x40 MLOAD PUSH2 0x48B1 SWAP2 SWAP1 PUSH2 0x5E15 JUMP JUMPDEST SWAP1 DUP2 MSTORE PUSH1 0x40 DUP1 MLOAD PUSH1 0x20 SWAP3 DUP2 SWAP1 SUB DUP4 ADD DUP2 KECCAK256 PUSH1 0x60 DUP3 ADD DUP4 MSTORE DUP1 SLOAD PUSH1 0x1 PUSH1 0x1 PUSH1 0xA0 SHL SUB AND DUP1 DUP4 MSTORE PUSH1 0x1 DUP3 ADD SLOAD SWAP5 DUP4 ADD DUP6 SWAP1 MSTORE PUSH1 0x2 SWAP1 SWAP2 ADD SLOAD PUSH1 0xFF AND ISZERO ISZERO SWAP2 SWAP1 SWAP3 ADD DUP2 SWAP1 MSTORE SWAP8 SWAP1 SWAP7 POP SWAP1 SWAP5 POP SWAP3 POP POP POP JUMP JUMPDEST PUSH1 0x0 PUSH1 0x60 PUSH1 0x0 PUSH1 0x3 DUP5 PUSH1 0x40 MLOAD PUSH2 0x4916 SWAP2 SWAP1 PUSH2 0x5E15 JUMP JUMPDEST SWAP1 DUP2 MSTORE PUSH1 0x40 MLOAD SWAP1 DUP2 SWAP1 SUB PUSH1 0x20 ADD DUP2 KECCAK256 PUSH1 0x1 ADD SLOAD PUSH1 0xFF PUSH1 0x1 PUSH1 0xA0 SHL SWAP1 SWAP2 DIV AND SWAP1 PUSH1 0x3 SWAP1 PUSH2 0x4943 SWAP1 DUP8 SWAP1 PUSH2 0x5E15 JUMP JUMPDEST SWAP1 DUP2 MSTORE PUSH1 0x40 MLOAD SWAP1 DUP2 SWAP1 SUB PUSH1 0x20 ADD DUP2 KECCAK256 SWAP1 PUSH1 0x3 SWAP1 PUSH2 0x4961 SWAP1 DUP9 SWAP1 PUSH2 0x5E15 JUMP JUMPDEST SWAP1 DUP2 MSTORE PUSH1 0x40 MLOAD SWAP1 DUP2 SWAP1 SUB PUSH1 0x20 ADD SWAP1 KECCAK256 PUSH1 0x1 ADD SLOAD DUP2 SLOAD PUSH1 0x1 PUSH1 0x1 PUSH1 0xA0 SHL SUB SWAP1 SWAP2 AND SWAP1 DUP3 SWAP1 PUSH2 0x498D SWAP1 PUSH2 0x61DF JUMP JUMPDEST DUP1 PUSH1 0x1F ADD PUSH1 0x20 DUP1 SWAP2 DIV MUL PUSH1 0x20 ADD PUSH1 0x40 MLOAD SWAP1 DUP2 ADD PUSH1 0x40 MSTORE DUP1 SWAP3 SWAP2 SWAP1 DUP2 DUP2 MSTORE PUSH1 0x20 ADD DUP3 DUP1 SLOAD PUSH2 0x49B9 SWAP1 PUSH2 0x61DF JUMP JUMPDEST DUP1 ISZERO PUSH2 0x4A06 JUMPI DUP1 PUSH1 0x1F LT PUSH2 0x49DB JUMPI PUSH2 0x100 DUP1 DUP4 SLOAD DIV MUL DUP4 MSTORE SWAP2 PUSH1 0x20 ADD SWAP2 PUSH2 0x4A06 JUMP JUMPDEST DUP3 ADD SWAP2 SWAP1 PUSH1 0x0 MSTORE PUSH1 0x20 PUSH1 0x0 KECCAK256 SWAP1 JUMPDEST DUP2 SLOAD DUP2 MSTORE SWAP1 PUSH1 0x1 ADD SWAP1 PUSH1 0x20 ADD DUP1 DUP4 GT PUSH2 0x49E9 JUMPI DUP3 SWAP1 SUB PUSH1 0x1F AND DUP3 ADD SWAP2 JUMPDEST POP POP POP POP POP SWAP2 POP SWAP3 POP SWAP3 POP SWAP3 POP SWAP2 SWAP4 SWAP1 SWAP3 POP JUMP JUMPDEST PUSH1 0x5 CALLER PUSH1 0x0 SWAP1 DUP2 MSTORE PUSH1 0x20 DUP2 SWAP1 MSTORE PUSH1 0x40 SWAP1 KECCAK256 PUSH1 0x4 ADD SLOAD PUSH2 0x100 SWAP1 DIV PUSH1 0xFF AND PUSH1 0x5 DUP2 GT ISZERO PUSH2 0x4A48 JUMPI PUSH2 0x4A48 PUSH2 0x626F JUMP JUMPDEST EQ PUSH1 0x40 MLOAD DUP1 PUSH1 0x60 ADD PUSH1 0x40 MSTORE DUP1 PUSH1 0x2F DUP2 MSTORE PUSH1 0x20 ADD PUSH2 0x62D5 PUSH1 0x2F SWAP2 CODECOPY SWAP1 PUSH2 0x4A80 JUMPI PUSH1 0x40 MLOAD PUSH3 0x461BCD PUSH1 0xE5 SHL DUP2 MSTORE PUSH1 0x4 ADD PUSH2 0x5E6 SWAP2 SWAP1 PUSH2 0x60EA JUMP JUMPDEST POP PUSH1 0x1 PUSH1 0x1 PUSH1 0xA0 SHL SUB DUP2 DUP2 AND PUSH1 0x0 SWAP1 DUP2 MSTORE PUSH1 0x7 PUSH1 0x20 SWAP1 DUP2 MSTORE PUSH1 0x40 DUP1 DUP4 KECCAK256 DUP2 MLOAD PUSH1 0x80 DUP2 ADD SWAP1 SWAP3 MSTORE DUP1 SLOAD SWAP5 DUP6 AND DUP3 MSTORE SWAP3 SWAP4 SWAP1 SWAP3 SWAP2 DUP4 ADD SWAP1 PUSH1 0x1 PUSH1 0xA0 SHL SWAP1 DIV PUSH1 0xFF AND PUSH1 0x5 DUP2 GT ISZERO PUSH2 0x4AD0 JUMPI PUSH2 0x4AD0 PUSH2 0x626F JUMP JUMPDEST PUSH1 0x5 DUP2 GT ISZERO PUSH2 0x4AE1 JUMPI PUSH2 0x4AE1 PUSH2 0x626F JUMP JUMPDEST DUP2 MSTORE PUSH1 0x20 ADD PUSH1 0x1 DUP3 ADD DUP1 SLOAD PUSH2 0x4AF5 SWAP1 PUSH2 0x61DF JUMP JUMPDEST DUP1 PUSH1 0x1F ADD PUSH1 0x20 DUP1 SWAP2 DIV MUL PUSH1 0x20 ADD PUSH1 0x40 MLOAD SWAP1 DUP2 ADD PUSH1 0x40 MSTORE DUP1 SWAP3 SWAP2 SWAP1 DUP2 DUP2 MSTORE PUSH1 0x20 ADD DUP3 DUP1 SLOAD PUSH2 0x4B21 SWAP1 PUSH2 0x61DF JUMP JUMPDEST DUP1 ISZERO PUSH2 0x4B6E JUMPI DUP1 PUSH1 0x1F LT PUSH2 0x4B43 JUMPI PUSH2 0x100 DUP1 DUP4 SLOAD DIV MUL DUP4 MSTORE SWAP2 PUSH1 0x20 ADD SWAP2 PUSH2 0x4B6E JUMP JUMPDEST DUP3 ADD SWAP2 SWAP1 PUSH1 0x0 MSTORE PUSH1 0x20 PUSH1 0x0 KECCAK256 SWAP1 JUMPDEST DUP2 SLOAD DUP2 MSTORE SWAP1 PUSH1 0x1 ADD SWAP1 PUSH1 0x20 ADD DUP1 DUP4 GT PUSH2 0x4B51 JUMPI DUP3 SWAP1 SUB PUSH1 0x1F AND DUP3 ADD SWAP2 JUMPDEST POP POP POP SWAP2 DUP4 MSTORE POP POP PUSH1 0x2 SWAP2 SWAP1 SWAP2 ADD SLOAD PUSH1 0xFF AND ISZERO ISZERO PUSH1 0x20 SWAP1 SWAP2 ADD MSTORE PUSH1 0x60 DUP2 ADD MLOAD SWAP1 SWAP2 POP PUSH2 0x4BF4 JUMPI PUSH1 0x40 MLOAD PUSH3 0x461BCD PUSH1 0xE5 SHL DUP2 MSTORE PUSH1 0x20 PUSH1 0x4 DUP3 ADD MSTORE PUSH1 0x2F PUSH1 0x24 DUP3 ADD MSTORE PUSH32 0x5468697320757365722068617665206E6F742073656E7420616E7920656C6576 PUSH1 0x44 DUP3 ADD MSTORE PUSH15 0x6174696F6E20726571756573747321 PUSH1 0x88 SHL PUSH1 0x64 DUP3 ADD MSTORE PUSH1 0x84 ADD PUSH2 0x5E6 JUMP JUMPDEST PUSH1 0x20 DUP2 ADD MLOAD PUSH1 0x40 DUP1 DUP4 ADD MLOAD SWAP1 MLOAD PUSH4 0x137A853 PUSH1 0xE4 SHL DUP2 MSTORE ADDRESS SWAP3 PUSH4 0x137A8530 SWAP3 PUSH2 0x4C23 SWAP3 DUP8 SWAP3 SWAP2 SWAP1 PUSH1 0x4 ADD PUSH2 0x5ECD JUMP JUMPDEST PUSH1 0x0 PUSH1 0x40 MLOAD DUP1 DUP4 SUB DUP2 PUSH1 0x0 DUP8 DUP1 EXTCODESIZE ISZERO DUP1 ISZERO PUSH2 0x4C3D JUMPI PUSH1 0x0 DUP1 REVERT JUMPDEST POP GAS CALL ISZERO DUP1 ISZERO PUSH2 0x75D JUMPI RETURNDATASIZE PUSH1 0x0 DUP1 RETURNDATACOPY RETURNDATASIZE PUSH1 0x0 REVERT JUMPDEST PUSH1 0x1 PUSH1 0x1 PUSH1 0xA0 SHL SUB DUP2 AND PUSH1 0x0 SWAP1 DUP2 MSTORE PUSH1 0x20 DUP2 SWAP1 MSTORE PUSH1 0x40 DUP2 KECCAK256 PUSH1 0x5 ADD DUP1 SLOAD PUSH1 0x60 SWAP2 DUP4 SWAP2 DUP3 SWAP2 SWAP1 PUSH2 0x4C7F SWAP1 PUSH2 0x61DF JUMP JUMPDEST DUP1 PUSH1 0x1F ADD PUSH1 0x20 DUP1 SWAP2 DIV MUL PUSH1 0x20 ADD PUSH1 0x40 MLOAD SWAP1 DUP2 ADD PUSH1 0x40 MSTORE DUP1 SWAP3 SWAP2 SWAP1 DUP2 DUP2 MSTORE PUSH1 0x20 ADD DUP3 DUP1 SLOAD PUSH2 0x4CAB SWAP1 PUSH2 0x61DF JUMP JUMPDEST DUP1 ISZERO PUSH2 0x4CF8 JUMPI DUP1 PUSH1 0x1F LT PUSH2 0x4CCD JUMPI PUSH2 0x100 DUP1 DUP4 SLOAD DIV MUL DUP4 MSTORE SWAP2 PUSH1 0x20 ADD SWAP2 PUSH2 0x4CF8 JUMP JUMPDEST DUP3 ADD SWAP2 SWAP1 PUSH1 0x0 MSTORE PUSH1 0x20 PUSH1 0x0 KECCAK256 SWAP1 JUMPDEST DUP2 SLOAD DUP2 MSTORE SWAP1 PUSH1 0x1 ADD SWAP1 PUSH1 0x20 ADD DUP1 DUP4 GT PUSH2 0x4CDB JUMPI DUP3 SWAP1 SUB PUSH1 0x1F AND DUP3 ADD SWAP2 JUMPDEST POP POP PUSH1 0x40 MLOAD PUSH4 0x355A6CC3 PUSH1 0xE2 SHL DUP2 MSTORE SWAP4 SWAP5 POP ADDRESS SWAP4 PUSH4 0xD569B30C SWAP4 POP PUSH2 0x4D23 SWAP3 POP DUP6 SWAP2 POP PUSH1 0x4 ADD PUSH2 0x60EA JUMP JUMPDEST PUSH1 0x0 PUSH1 0x40 MLOAD DUP1 DUP4 SUB DUP2 DUP7 DUP1 EXTCODESIZE ISZERO DUP1 ISZERO PUSH2 0x4D3B JUMPI PUSH1 0x0 DUP1 REVERT JUMPDEST POP GAS STATICCALL ISZERO DUP1 ISZERO PUSH2 0x4D4F JUMPI RETURNDATASIZE PUSH1 0x0 DUP1 RETURNDATACOPY RETURNDATASIZE PUSH1 0x0 REVERT JUMPDEST POP POP POP POP PUSH1 0x40 MLOAD RETURNDATASIZE PUSH1 0x0 DUP3 RETURNDATACOPY PUSH1 0x1F RETURNDATASIZE SWAP1 DUP2 ADD PUSH1 0x1F NOT AND DUP3 ADD PUSH1 0x40 MSTORE PUSH2 0x4D77 SWAP2 SWAP1 DUP2 ADD SWAP1 PUSH2 0x5A49 JUMP JUMPDEST SWAP4 POP SWAP4 POP SWAP4 POP POP SWAP2 SWAP4 SWAP1 SWAP3 POP JUMP JUMPDEST PUSH1 0x5 CALLER PUSH1 0x0 SWAP1 DUP2 MSTORE PUSH1 0x20 DUP2 SWAP1 MSTORE PUSH1 0x40 SWAP1 KECCAK256 PUSH1 0x4 ADD SLOAD PUSH2 0x100 SWAP1 DIV PUSH1 0xFF AND PUSH1 0x5 DUP2 GT ISZERO PUSH2 0x4DB3 JUMPI PUSH2 0x4DB3 PUSH2 0x626F JUMP JUMPDEST EQ PUSH1 0x40 MLOAD DUP1 PUSH1 0x60 ADD PUSH1 0x40 MSTORE DUP1 PUSH1 0x2F DUP2 MSTORE PUSH1 0x20 ADD PUSH2 0x62D5 PUSH1 0x2F SWAP2 CODECOPY SWAP1 PUSH2 0x4DEB JUMPI PUSH1 0x40 MLOAD PUSH3 0x461BCD PUSH1 0xE5 SHL DUP2 MSTORE PUSH1 0x4 ADD PUSH2 0x5E6 SWAP2 SWAP1 PUSH2 0x60EA JUMP JUMPDEST POP PUSH1 0x1 PUSH1 0x1 PUSH1 0xA0 SHL SUB DUP2 AND PUSH1 0x0 SWAP1 DUP2 MSTORE PUSH1 0x20 DUP2 SWAP1 MSTORE PUSH1 0x40 SWAP1 KECCAK256 PUSH1 0x7 ADD SLOAD PUSH1 0xFF AND PUSH2 0x4E4E JUMPI PUSH1 0x40 MLOAD PUSH3 0x461BCD PUSH1 0xE5 SHL DUP2 MSTORE PUSH1 0x20 PUSH1 0x4 DUP3 ADD MSTORE PUSH1 0x14 PUSH1 0x24 DUP3 ADD MSTORE PUSH20 0x13DDDB995C88191BD95CC81B9BDD08195E1A5CDD PUSH1 0x62 SHL PUSH1 0x44 DUP3 ADD MSTORE PUSH1 0x64 ADD PUSH2 0x5E6 JUMP JUMPDEST PUSH1 0x3 DUP3 PUSH1 0x40 MLOAD PUSH2 0x4E5E SWAP2 SWAP1 PUSH2 0x5E15 JUMP JUMPDEST SWAP1 DUP2 MSTORE PUSH1 0x40 MLOAD SWAP1 DUP2 SWAP1 SUB PUSH1 0x20 ADD SWAP1 KECCAK256 PUSH1 0x1 ADD SLOAD PUSH1 0xFF PUSH1 0x1 PUSH1 0xA0 SHL SWAP1 SWAP2 DIV AND ISZERO PUSH2 0x4ED4 JUMPI PUSH1 0x40 MLOAD PUSH3 0x461BCD PUSH1 0xE5 SHL DUP2 MSTORE PUSH1 0x20 PUSH1 0x4 DUP3 ADD MSTORE PUSH1 0x22 PUSH1 0x24 DUP3 ADD MSTORE PUSH32 0x546865726520697320616C72656164792073686F7020696E2074686973206369 PUSH1 0x44 DUP3 ADD MSTORE PUSH2 0x7479 PUSH1 0xF0 SHL PUSH1 0x64 DUP3 ADD MSTORE PUSH1 0x84 ADD PUSH2 0x5E6 JUMP JUMPDEST PUSH1 0x4 DUP1 SLOAD PUSH1 0x1 DUP2 ADD DUP3 SSTORE PUSH1 0x0 SWAP2 SWAP1 SWAP2 MSTORE DUP3 MLOAD PUSH2 0x4F17 SWAP2 PUSH32 0x8A35ACFBC15FF81A39AE7D344FD709F28E8600B4AA8C65C6B64BFE7FE36BD19B ADD SWAP1 PUSH1 0x20 DUP6 ADD SWAP1 PUSH2 0x56B2 JUMP JUMPDEST POP PUSH1 0x40 DUP1 MLOAD PUSH1 0x60 DUP2 ADD DUP3 MSTORE DUP4 DUP2 MSTORE PUSH1 0x1 PUSH1 0x1 PUSH1 0xA0 SHL SUB DUP4 AND PUSH1 0x20 DUP3 ADD MSTORE PUSH1 0x1 DUP2 DUP4 ADD MSTORE SWAP1 MLOAD PUSH1 0x3 SWAP1 PUSH2 0x4F4A SWAP1 DUP6 SWAP1 PUSH2 0x5E15 JUMP JUMPDEST SWAP1 DUP2 MSTORE PUSH1 0x20 ADD PUSH1 0x40 MLOAD DUP1 SWAP2 SUB SWAP1 KECCAK256 PUSH1 0x0 DUP3 ADD MLOAD DUP2 PUSH1 0x0 ADD SWAP1 DUP1 MLOAD SWAP1 PUSH1 0x20 ADD SWAP1 PUSH2 0x4F74 SWAP3 SWAP2 SWAP1 PUSH2 0x56B2 JUMP JUMPDEST POP PUSH1 0x20 DUP3 DUP2 ADD MLOAD PUSH1 0x1 SWAP3 SWAP1 SWAP3 ADD DUP1 SLOAD PUSH1 0x40 SWAP5 DUP6 ADD MLOAD ISZERO ISZERO PUSH1 0x1 PUSH1 0xA0 SHL MUL PUSH1 0x1 PUSH1 0x1 PUSH1 0xA8 SHL SUB NOT SWAP1 SWAP2 AND PUSH1 0x1 PUSH1 0x1 PUSH1 0xA0 SHL SUB SWAP5 DUP6 AND OR OR SWAP1 SSTORE SWAP1 DUP4 AND PUSH1 0x0 SWAP1 DUP2 MSTORE DUP1 DUP3 MSTORE SWAP2 SWAP1 SWAP2 KECCAK256 PUSH1 0x4 DUP2 ADD DUP1 SLOAD PUSH2 0xFF00 NOT AND PUSH2 0x300 OR SWAP1 SSTORE DUP4 MLOAD PUSH2 0x1E87 SWAP3 PUSH1 0x5 SWAP1 SWAP3 ADD SWAP2 DUP6 ADD SWAP1 PUSH2 0x56B2 JUMP JUMPDEST PUSH1 0x60 PUSH1 0x4 CALLER PUSH1 0x0 SWAP1 DUP2 MSTORE PUSH1 0x20 DUP2 SWAP1 MSTORE PUSH1 0x40 SWAP1 KECCAK256 PUSH1 0x4 ADD SLOAD PUSH2 0x100 SWAP1 DIV PUSH1 0xFF AND PUSH1 0x5 DUP2 GT ISZERO PUSH2 0x5010 JUMPI PUSH2 0x5010 PUSH2 0x626F JUMP JUMPDEST EQ PUSH1 0x40 MLOAD DUP1 PUSH1 0x60 ADD PUSH1 0x40 MSTORE DUP1 PUSH1 0x2F DUP2 MSTORE PUSH1 0x20 ADD PUSH2 0x62D5 PUSH1 0x2F SWAP2 CODECOPY SWAP1 PUSH2 0x5048 JUMPI PUSH1 0x40 MLOAD PUSH3 0x461BCD PUSH1 0xE5 SHL DUP2 MSTORE PUSH1 0x4 ADD PUSH2 0x5E6 SWAP2 SWAP1 PUSH2 0x60EA JUMP JUMPDEST POP PUSH1 0xA DUP1 SLOAD DUP1 PUSH1 0x20 MUL PUSH1 0x20 ADD PUSH1 0x40 MLOAD SWAP1 DUP2 ADD PUSH1 0x40 MSTORE DUP1 SWAP3 SWAP2 SWAP1 DUP2 DUP2 MSTORE PUSH1 0x20 ADD PUSH1 0x0 SWAP1 JUMPDEST DUP3 DUP3 LT ISZERO PUSH2 0x189A JUMPI DUP4 DUP3 SWAP1 PUSH1 0x0 MSTORE PUSH1 0x20 PUSH1 0x0 KECCAK256 ADD DUP1 SLOAD PUSH2 0x508A SWAP1 PUSH2 0x61DF JUMP JUMPDEST DUP1 PUSH1 0x1F ADD PUSH1 0x20 DUP1 SWAP2 DIV MUL PUSH1 0x20 ADD PUSH1 0x40 MLOAD SWAP1 DUP2 ADD PUSH1 0x40 MSTORE DUP1 SWAP3 SWAP2 SWAP1 DUP2 DUP2 MSTORE PUSH1 0x20 ADD DUP3 DUP1 SLOAD PUSH2 0x50B6 SWAP1 PUSH2 0x61DF JUMP JUMPDEST DUP1 ISZERO PUSH2 0x5103 JUMPI DUP1 PUSH1 0x1F LT PUSH2 0x50D8 JUMPI PUSH2 0x100 DUP1 DUP4 SLOAD DIV MUL DUP4 MSTORE SWAP2 PUSH1 0x20 ADD SWAP2 PUSH2 0x5103 JUMP JUMPDEST DUP3 ADD SWAP2 SWAP1 PUSH1 0x0 MSTORE PUSH1 0x20 PUSH1 0x0 KECCAK256 SWAP1 JUMPDEST DUP2 SLOAD DUP2 MSTORE SWAP1 PUSH1 0x1 ADD SWAP1 PUSH1 0x20 ADD DUP1 DUP4 GT PUSH2 0x50E6 JUMPI DUP3 SWAP1 SUB PUSH1 0x1F AND DUP3 ADD SWAP2 JUMPDEST POP POP POP POP POP DUP2 MSTORE PUSH1 0x20 ADD SWAP1 PUSH1 0x1 ADD SWAP1 PUSH2 0x506B JUMP JUMPDEST PUSH1 0x0 DUP2 PUSH1 0x40 MLOAD PUSH1 0x20 ADD PUSH2 0x512A SWAP2 SWAP1 PUSH2 0x5E15 JUMP JUMPDEST PUSH1 0x40 MLOAD PUSH1 0x20 DUP2 DUP4 SUB SUB DUP2 MSTORE SWAP1 PUSH1 0x40 MSTORE DUP1 MLOAD SWAP1 PUSH1 0x20 ADD KECCAK256 DUP4 PUSH1 0x40 MLOAD PUSH1 0x20 ADD PUSH2 0x5151 SWAP2 SWAP1 PUSH2 0x5E15 JUMP JUMPDEST PUSH1 0x40 MLOAD PUSH1 0x20 DUP2 DUP4 SUB SUB DUP2 MSTORE SWAP1 PUSH1 0x40 MSTORE DUP1 MLOAD SWAP1 PUSH1 0x20 ADD KECCAK256 EQ SWAP1 POP SWAP3 SWAP2 POP POP JUMP JUMPDEST PUSH1 0x0 DUP1 PUSH1 0x9 DUP4 PUSH1 0x40 MLOAD PUSH2 0x5183 SWAP2 SWAP1 PUSH2 0x5E15 JUMP JUMPDEST SWAP1 DUP2 MSTORE PUSH1 0x40 MLOAD SWAP1 DUP2 SWAP1 SUB PUSH1 0x20 ADD SWAP1 KECCAK256 PUSH1 0x2 ADD DUP1 SLOAD SWAP2 ISZERO ISZERO PUSH1 0xFF NOT SWAP1 SWAP3 AND SWAP2 SWAP1 SWAP2 OR SWAP1 SSTORE PUSH1 0x0 JUMPDEST PUSH1 0xA SLOAD DUP2 LT ISZERO PUSH2 0x52AB JUMPI PUSH2 0x5262 PUSH1 0xA DUP3 DUP2 SLOAD DUP2 LT PUSH2 0x51C9 JUMPI PUSH2 0x51C9 PUSH2 0x6285 JUMP JUMPDEST SWAP1 PUSH1 0x0 MSTORE PUSH1 0x20 PUSH1 0x0 KECCAK256 ADD DUP1 SLOAD PUSH2 0x51DE SWAP1 PUSH2 0x61DF JUMP JUMPDEST DUP1 PUSH1 0x1F ADD PUSH1 0x20 DUP1 SWAP2 DIV MUL PUSH1 0x20 ADD PUSH1 0x40 MLOAD SWAP1 DUP2 ADD PUSH1 0x40 MSTORE DUP1 SWAP3 SWAP2 SWAP1 DUP2 DUP2 MSTORE PUSH1 0x20 ADD DUP3 DUP1 SLOAD PUSH2 0x520A SWAP1 PUSH2 0x61DF JUMP JUMPDEST DUP1 ISZERO PUSH2 0x5257 JUMPI DUP1 PUSH1 0x1F LT PUSH2 0x522C JUMPI PUSH2 0x100 DUP1 DUP4 SLOAD DIV MUL DUP4 MSTORE SWAP2 PUSH1 0x20 ADD SWAP2 PUSH2 0x5257 JUMP JUMPDEST DUP3 ADD SWAP2 SWAP1 PUSH1 0x0 MSTORE PUSH1 0x20 PUSH1 0x0 KECCAK256 SWAP1 JUMPDEST DUP2 SLOAD DUP2 MSTORE SWAP1 PUSH1 0x1 ADD SWAP1 PUSH1 0x20 ADD DUP1 DUP4 GT PUSH2 0x523A JUMPI DUP3 SWAP1 SUB PUSH1 0x1F AND DUP3 ADD SWAP2 JUMPDEST POP POP POP POP POP DUP5 PUSH2 0x5117 JUMP JUMPDEST ISZERO PUSH2 0x5299 JUMPI PUSH1 0xA DUP2 DUP2 SLOAD DUP2 LT PUSH2 0x527A JUMPI PUSH2 0x527A PUSH2 0x6285 JUMP JUMPDEST SWAP1 PUSH1 0x0 MSTORE PUSH1 0x20 PUSH1 0x0 KECCAK256 ADD PUSH1 0x0 PUSH2 0x5290 SWAP2 SWAP1 PUSH2 0x5835 JUMP JUMPDEST POP PUSH1 0x1 SWAP3 SWAP2 POP POP JUMP JUMPDEST DUP1 PUSH2 0x52A3 DUP2 PUSH2 0x621A JUMP JUMPDEST SWAP2 POP POP PUSH2 0x51A9 JUMP JUMPDEST POP PUSH1 0x0 SWAP3 SWAP2 POP POP JUMP JUMPDEST PUSH4 0xFFFFFFFF DUP2 AND PUSH1 0x0 SWAP1 DUP2 MSTORE PUSH1 0x5 PUSH1 0x20 SWAP1 DUP2 MSTORE PUSH1 0x40 DUP1 DUP4 KECCAK256 DUP2 MLOAD PUSH2 0x120 DUP2 ADD SWAP1 SWAP3 MSTORE DUP1 SLOAD PUSH1 0x1 PUSH1 0x1 PUSH1 0xA0 SHL SUB AND DUP3 MSTORE PUSH1 0x1 DUP2 ADD DUP1 SLOAD DUP6 SWAP5 DUP5 ADD SWAP2 SWAP1 PUSH2 0x52F8 SWAP1 PUSH2 0x61DF JUMP JUMPDEST DUP1 PUSH1 0x1F ADD PUSH1 0x20 DUP1 SWAP2 DIV MUL PUSH1 0x20 ADD PUSH1 0x40 MLOAD SWAP1 DUP2 ADD PUSH1 0x40 MSTORE DUP1 SWAP3 SWAP2 SWAP1 DUP2 DUP2 MSTORE PUSH1 0x20 ADD DUP3 DUP1 SLOAD PUSH2 0x5324 SWAP1 PUSH2 0x61DF JUMP JUMPDEST DUP1 ISZERO PUSH2 0x5371 JUMPI DUP1 PUSH1 0x1F LT PUSH2 0x5346 JUMPI PUSH2 0x100 DUP1 DUP4 SLOAD DIV MUL DUP4 MSTORE SWAP2 PUSH1 0x20 ADD SWAP2 PUSH2 0x5371 JUMP JUMPDEST DUP3 ADD SWAP2 SWAP1 PUSH1 0x0 MSTORE PUSH1 0x20 PUSH1 0x0 KECCAK256 SWAP1 JUMPDEST DUP2 SLOAD DUP2 MSTORE SWAP1 PUSH1 0x1 ADD SWAP1 PUSH1 0x20 ADD DUP1 DUP4 GT PUSH2 0x5354 JUMPI DUP3 SWAP1 SUB PUSH1 0x1F AND DUP3 ADD SWAP2 JUMPDEST POP POP POP POP POP DUP2 MSTORE PUSH1 0x20 ADD PUSH1 0x2 DUP3 ADD DUP1 SLOAD PUSH2 0x538A SWAP1 PUSH2 0x61DF JUMP JUMPDEST DUP1 PUSH1 0x1F ADD PUSH1 0x20 DUP1 SWAP2 DIV MUL PUSH1 0x20 ADD PUSH1 0x40 MLOAD SWAP1 DUP2 ADD PUSH1 0x40 MSTORE DUP1 SWAP3 SWAP2 SWAP1 DUP2 DUP2 MSTORE PUSH1 0x20 ADD DUP3 DUP1 SLOAD PUSH2 0x53B6 SWAP1 PUSH2 0x61DF JUMP JUMPDEST DUP1 ISZERO PUSH2 0x5403 JUMPI DUP1 PUSH1 0x1F LT PUSH2 0x53D8 JUMPI PUSH2 0x100 DUP1 DUP4 SLOAD DIV MUL DUP4 MSTORE SWAP2 PUSH1 0x20 ADD SWAP2 PUSH2 0x5403 JUMP JUMPDEST DUP3 ADD SWAP2 SWAP1 PUSH1 0x0 MSTORE PUSH1 0x20 PUSH1 0x0 KECCAK256 SWAP1 JUMPDEST DUP2 SLOAD DUP2 MSTORE SWAP1 PUSH1 0x1 ADD SWAP1 PUSH1 0x20 ADD DUP1 DUP4 GT PUSH2 0x53E6 JUMPI DUP3 SWAP1 SUB PUSH1 0x1F AND DUP3 ADD SWAP2 JUMPDEST POP POP POP SWAP2 DUP4 MSTORE POP POP PUSH1 0x3 DUP3 ADD SLOAD PUSH4 0xFFFFFFFF AND PUSH1 0x20 DUP1 DUP4 ADD SWAP2 SWAP1 SWAP2 MSTORE PUSH1 0x4 DUP4 ADD DUP1 SLOAD PUSH1 0x40 DUP1 MLOAD DUP3 DUP6 MUL DUP2 ADD DUP6 ADD DUP3 MSTORE DUP3 DUP2 MSTORE SWAP5 ADD SWAP4 SWAP3 DUP4 ADD DUP3 DUP3 DUP1 ISZERO PUSH2 0x5494 JUMPI PUSH1 0x20 MUL DUP3 ADD SWAP2 SWAP1 PUSH1 0x0 MSTORE PUSH1 0x20 PUSH1 0x0 KECCAK256 SWAP1 PUSH1 0x0 SWAP1 JUMPDEST DUP3 DUP3 SWAP1 SLOAD SWAP1 PUSH2 0x100 EXP SWAP1 DIV PUSH4 0xFFFFFFFF AND PUSH4 0xFFFFFFFF AND DUP2 MSTORE PUSH1 0x20 ADD SWAP1 PUSH1 0x4 ADD SWAP1 PUSH1 0x20 DUP3 PUSH1 0x3 ADD DIV SWAP3 DUP4 ADD SWAP3 PUSH1 0x1 SUB DUP3 MUL SWAP2 POP DUP1 DUP5 GT PUSH2 0x5457 JUMPI SWAP1 POP JUMPDEST POP POP POP SWAP2 DUP4 MSTORE POP POP PUSH1 0x5 DUP3 ADD SLOAD PUSH1 0xFF AND PUSH1 0x20 DUP1 DUP4 ADD SWAP2 SWAP1 SWAP2 MSTORE PUSH1 0x6 DUP4 ADD DUP1 SLOAD PUSH1 0x40 DUP1 MLOAD DUP3 DUP6 MUL DUP2 ADD DUP6 ADD DUP3 MSTORE DUP3 DUP2 MSTORE SWAP5 ADD SWAP4 SWAP3 DUP4 ADD DUP3 DUP3 DUP1 ISZERO PUSH2 0x5500 JUMPI PUSH1 0x20 MUL DUP3 ADD SWAP2 SWAP1 PUSH1 0x0 MSTORE PUSH1 0x20 PUSH1 0x0 KECCAK256 SWAP1 JUMPDEST DUP2 SLOAD PUSH1 0x1 PUSH1 0x1 PUSH1 0xA0 SHL SUB AND DUP2 MSTORE PUSH1 0x1 SWAP1 SWAP2 ADD SWAP1 PUSH1 0x20 ADD DUP1 DUP4 GT PUSH2 0x54E2 JUMPI JUMPDEST POP POP POP POP POP DUP2 MSTORE PUSH1 0x20 ADD PUSH1 0x7 DUP3 ADD DUP1 SLOAD DUP1 PUSH1 0x20 MUL PUSH1 0x20 ADD PUSH1 0x40 MLOAD SWAP1 DUP2 ADD PUSH1 0x40 MSTORE DUP1 SWAP3 SWAP2 SWAP1 DUP2 DUP2 MSTORE PUSH1 0x20 ADD DUP3 DUP1 SLOAD DUP1 ISZERO PUSH2 0x5562 JUMPI PUSH1 0x20 MUL DUP3 ADD SWAP2 SWAP1 PUSH1 0x0 MSTORE PUSH1 0x20 PUSH1 0x0 KECCAK256 SWAP1 JUMPDEST DUP2 SLOAD PUSH1 0x1 PUSH1 0x1 PUSH1 0xA0 SHL SUB AND DUP2 MSTORE PUSH1 0x1 SWAP1 SWAP2 ADD SWAP1 PUSH1 0x20 ADD DUP1 DUP4 GT PUSH2 0x5544 JUMPI JUMPDEST POP POP POP SWAP2 DUP4 MSTORE POP POP PUSH1 0x8 SWAP2 SWAP1 SWAP2 ADD SLOAD PUSH1 0xFF AND ISZERO ISZERO PUSH1 0x20 SWAP1 SWAP2 ADD MSTORE SWAP1 POP PUSH1 0x0 JUMPDEST DUP2 PUSH1 0xC0 ADD MLOAD MLOAD DUP2 LT ISZERO PUSH2 0x5624 JUMPI CALLER PUSH1 0x1 PUSH1 0x1 PUSH1 0xA0 SHL SUB AND DUP3 PUSH1 0xC0 ADD MLOAD DUP3 DUP2 MLOAD DUP2 LT PUSH2 0x55AE JUMPI PUSH2 0x55AE PUSH2 0x6285 JUMP JUMPDEST PUSH1 0x20 MUL PUSH1 0x20 ADD ADD MLOAD PUSH1 0x1 PUSH1 0x1 PUSH1 0xA0 SHL SUB AND EQ ISZERO PUSH2 0x5612 JUMPI PUSH4 0xFFFFFFFF DUP5 AND PUSH1 0x0 SWAP1 DUP2 MSTORE PUSH1 0x5 PUSH1 0x20 MSTORE PUSH1 0x40 SWAP1 KECCAK256 PUSH1 0x6 ADD DUP1 SLOAD DUP3 SWAP1 DUP2 LT PUSH2 0x55EF JUMPI PUSH2 0x55EF PUSH2 0x6285 JUMP JUMPDEST PUSH1 0x0 SWAP2 DUP3 MSTORE PUSH1 0x20 SWAP1 SWAP2 KECCAK256 ADD DUP1 SLOAD PUSH1 0x1 PUSH1 0x1 PUSH1 0xA0 SHL SUB NOT AND SWAP1 SSTORE POP PUSH1 0x1 SWAP4 SWAP3 POP POP POP JUMP JUMPDEST DUP1 PUSH2 0x561C DUP2 PUSH2 0x621A JUMP JUMPDEST SWAP2 POP POP PUSH2 0x5581 JUMP JUMPDEST POP PUSH1 0x0 JUMPDEST DUP2 PUSH1 0xE0 ADD MLOAD MLOAD DUP2 LT ISZERO PUSH2 0x56A8 JUMPI CALLER PUSH1 0x1 PUSH1 0x1 PUSH1 0xA0 SHL SUB AND DUP3 PUSH1 0xE0 ADD MLOAD DUP3 DUP2 MLOAD DUP2 LT PUSH2 0x5655 JUMPI PUSH2 0x5655 PUSH2 0x6285 JUMP JUMPDEST PUSH1 0x20 MUL PUSH1 0x20 ADD ADD MLOAD PUSH1 0x1 PUSH1 0x1 PUSH1 0xA0 SHL SUB AND EQ ISZERO PUSH2 0x5696 JUMPI PUSH4 0xFFFFFFFF DUP5 AND PUSH1 0x0 SWAP1 DUP2 MSTORE PUSH1 0x5 PUSH1 0x20 MSTORE PUSH1 0x40 SWAP1 KECCAK256 PUSH1 0x7 ADD DUP1 SLOAD DUP3 SWAP1 DUP2 LT PUSH2 0x55EF JUMPI PUSH2 0x55EF PUSH2 0x6285 JUMP JUMPDEST DUP1 PUSH2 0x56A0 DUP2 PUSH2 0x621A JUMP JUMPDEST SWAP2 POP POP PUSH2 0x5628 JUMP JUMPDEST POP PUSH1 0x0 SWAP4 SWAP3 POP POP POP JUMP JUMPDEST DUP3 DUP1 SLOAD PUSH2 0x56BE SWAP1 PUSH2 0x61DF JUMP JUMPDEST SWAP1 PUSH1 0x0 MSTORE PUSH1 0x20 PUSH1 0x0 KECCAK256 SWAP1 PUSH1 0x1F ADD PUSH1 0x20 SWAP1 DIV DUP2 ADD SWAP3 DUP3 PUSH2 0x56E0 JUMPI PUSH1 0x0 DUP6 SSTORE PUSH2 0x5726 JUMP JUMPDEST DUP3 PUSH1 0x1F LT PUSH2 0x56F9 JUMPI DUP1 MLOAD PUSH1 0xFF NOT AND DUP4 DUP1 ADD OR DUP6 SSTORE PUSH2 0x5726 JUMP JUMPDEST DUP3 DUP1 ADD PUSH1 0x1 ADD DUP6 SSTORE DUP3 ISZERO PUSH2 0x5726 JUMPI SWAP2 DUP3 ADD JUMPDEST DUP3 DUP2 GT ISZERO PUSH2 0x5726 JUMPI DUP3 MLOAD DUP3 SSTORE SWAP2 PUSH1 0x20 ADD SWAP2 SWAP1 PUSH1 0x1 ADD SWAP1 PUSH2 0x570B JUMP JUMPDEST POP PUSH2 0x5732 SWAP3 SWAP2 POP PUSH2 0x5872 JUMP JUMPDEST POP SWAP1 JUMP JUMPDEST DUP3 DUP1 SLOAD DUP3 DUP3 SSTORE SWAP1 PUSH1 0x0 MSTORE PUSH1 0x20 PUSH1 0x0 KECCAK256 SWAP1 PUSH1 0x7 ADD PUSH1 0x8 SWAP1 DIV DUP2 ADD SWAP3 DUP3 ISZERO PUSH2 0x5726 JUMPI SWAP2 PUSH1 0x20 MUL DUP3 ADD PUSH1 0x0 JUMPDEST DUP4 DUP3 GT ISZERO PUSH2 0x57A3 JUMPI DUP4 MLOAD DUP4 DUP3 PUSH2 0x100 EXP DUP2 SLOAD DUP2 PUSH4 0xFFFFFFFF MUL NOT AND SWAP1 DUP4 PUSH4 0xFFFFFFFF AND MUL OR SWAP1 SSTORE POP SWAP3 PUSH1 0x20 ADD SWAP3 PUSH1 0x4 ADD PUSH1 0x20 DUP2 PUSH1 0x3 ADD DIV SWAP3 DUP4 ADD SWAP3 PUSH1 0x1 SUB MUL PUSH2 0x575F JUMP JUMPDEST DUP1 ISZERO PUSH2 0x57D3 JUMPI DUP3 DUP2 PUSH2 0x100 EXP DUP2 SLOAD SWAP1 PUSH4 0xFFFFFFFF MUL NOT AND SWAP1 SSTORE PUSH1 0x4 ADD PUSH1 0x20 DUP2 PUSH1 0x3 ADD DIV SWAP3 DUP4 ADD SWAP3 PUSH1 0x1 SUB MUL PUSH2 0x57A3 JUMP JUMPDEST POP POP PUSH2 0x5732 SWAP3 SWAP2 POP PUSH2 0x5872 JUMP JUMPDEST DUP3 DUP1 SLOAD DUP3 DUP3 SSTORE SWAP1 PUSH1 0x0 MSTORE PUSH1 0x20 PUSH1 0x0 KECCAK256 SWAP1 DUP2 ADD SWAP3 DUP3 ISZERO PUSH2 0x5726 JUMPI SWAP2 PUSH1 0x20 MUL DUP3 ADD JUMPDEST DUP3 DUP2 GT ISZERO PUSH2 0x5726 JUMPI DUP3 MLOAD DUP3 SLOAD PUSH1 0x1 PUSH1 0x1 PUSH1 0xA0 SHL SUB NOT AND PUSH1 0x1 PUSH1 0x1 PUSH1 0xA0 SHL SUB SWAP1 SWAP2 AND OR DUP3 SSTORE PUSH1 0x20 SWAP1 SWAP3 ADD SWAP2 PUSH1 0x1 SWAP1 SWAP2 ADD SWAP1 PUSH2 0x5800 JUMP JUMPDEST POP DUP1 SLOAD PUSH2 0x5841 SWAP1 PUSH2 0x61DF JUMP JUMPDEST PUSH1 0x0 DUP3 SSTORE DUP1 PUSH1 0x1F LT PUSH2 0x5851 JUMPI POP POP JUMP JUMPDEST PUSH1 0x1F ADD PUSH1 0x20 SWAP1 DIV SWAP1 PUSH1 0x0 MSTORE PUSH1 0x20 PUSH1 0x0 KECCAK256 SWAP1 DUP2 ADD SWAP1 PUSH2 0x586F SWAP2 SWAP1 PUSH2 0x5872 JUMP JUMPDEST POP JUMP JUMPDEST JUMPDEST DUP1 DUP3 GT ISZERO PUSH2 0x5732 JUMPI PUSH1 0x0 DUP2 SSTORE PUSH1 0x1 ADD PUSH2 0x5873 JUMP JUMPDEST DUP1 CALLDATALOAD PUSH1 0x6 DUP2 LT PUSH2 0x5896 JUMPI PUSH1 0x0 DUP1 REVERT JUMPDEST SWAP2 SWAP1 POP JUMP JUMPDEST PUSH1 0x0 DUP3 PUSH1 0x1F DUP4 ADD SLT PUSH2 0x58AC JUMPI PUSH1 0x0 DUP1 REVERT JUMPDEST DUP2 CALLDATALOAD PUSH2 0x58BF PUSH2 0x58BA DUP3 PUSH2 0x618B JUMP JUMPDEST PUSH2 0x615A JUMP JUMPDEST DUP2 DUP2 MSTORE DUP5 PUSH1 0x20 DUP4 DUP7 ADD ADD GT ISZERO PUSH2 0x58D4 JUMPI PUSH1 0x0 DUP1 REVERT JUMPDEST DUP2 PUSH1 0x20 DUP6 ADD PUSH1 0x20 DUP4 ADD CALLDATACOPY PUSH1 0x0 SWAP2 DUP2 ADD PUSH1 0x20 ADD SWAP2 SWAP1 SWAP2 MSTORE SWAP4 SWAP3 POP POP POP JUMP JUMPDEST DUP1 CALLDATALOAD PUSH4 0xFFFFFFFF DUP2 AND DUP2 EQ PUSH2 0x5896 JUMPI PUSH1 0x0 DUP1 REVERT JUMPDEST PUSH1 0x0 PUSH1 0x20 DUP3 DUP5 SUB SLT ISZERO PUSH2 0x5917 JUMPI PUSH1 0x0 DUP1 REVERT JUMPDEST DUP2 CALLDATALOAD PUSH2 0x5922 DUP2 PUSH2 0x62B1 JUMP JUMPDEST SWAP4 SWAP3 POP POP POP JUMP JUMPDEST PUSH1 0x0 DUP1 PUSH1 0x0 PUSH1 0x60 DUP5 DUP7 SUB SLT ISZERO PUSH2 0x593E JUMPI PUSH1 0x0 DUP1 REVERT JUMPDEST DUP4 CALLDATALOAD PUSH2 0x5949 DUP2 PUSH2 0x62B1 JUMP JUMPDEST SWAP3 POP PUSH2 0x5957 PUSH1 0x20 DUP6 ADD PUSH2 0x5887 JUMP JUMPDEST SWAP2 POP PUSH1 0x40 DUP5 ADD CALLDATALOAD PUSH8 0xFFFFFFFFFFFFFFFF DUP2 GT ISZERO PUSH2 0x5973 JUMPI PUSH1 0x0 DUP1 REVERT JUMPDEST PUSH2 0x597F DUP7 DUP3 DUP8 ADD PUSH2 0x589B JUMP JUMPDEST SWAP2 POP POP SWAP3 POP SWAP3 POP SWAP3 JUMP JUMPDEST PUSH1 0x0 DUP1 PUSH1 0x0 DUP1 PUSH1 0x0 PUSH1 0xA0 DUP7 DUP9 SUB SLT ISZERO PUSH2 0x59A1 JUMPI PUSH1 0x0 DUP1 REVERT JUMPDEST DUP6 CALLDATALOAD PUSH2 0x59AC DUP2 PUSH2 0x62B1 JUMP JUMPDEST SWAP5 POP PUSH1 0x20 DUP7 ADD CALLDATALOAD PUSH8 0xFFFFFFFFFFFFFFFF DUP1 DUP3 GT ISZERO PUSH2 0x59C9 JUMPI PUSH1 0x0 DUP1 REVERT JUMPDEST PUSH2 0x59D5 DUP10 DUP4 DUP11 ADD PUSH2 0x589B JUMP JUMPDEST SWAP6 POP PUSH1 0x40 DUP9 ADD CALLDATALOAD SWAP2 POP DUP1 DUP3 GT ISZERO PUSH2 0x59EB JUMPI PUSH1 0x0 DUP1 REVERT JUMPDEST PUSH2 0x59F7 DUP10 DUP4 DUP11 ADD PUSH2 0x589B JUMP JUMPDEST SWAP5 POP PUSH1 0x60 DUP9 ADD CALLDATALOAD SWAP2 POP DUP1 DUP3 GT ISZERO PUSH2 0x5A0D JUMPI PUSH1 0x0 DUP1 REVERT JUMPDEST PUSH2 0x5A19 DUP10 DUP4 DUP11 ADD PUSH2 0x589B JUMP JUMPDEST SWAP4 POP PUSH1 0x80 DUP9 ADD CALLDATALOAD SWAP2 POP DUP1 DUP3 GT ISZERO PUSH2 0x5A2F JUMPI PUSH1 0x0 DUP1 REVERT JUMPDEST POP PUSH2 0x5A3C DUP9 DUP3 DUP10 ADD PUSH2 0x589B JUMP JUMPDEST SWAP2 POP POP SWAP3 SWAP6 POP SWAP3 SWAP6 SWAP1 SWAP4 POP JUMP JUMPDEST PUSH1 0x0 DUP1 PUSH1 0x0 PUSH1 0x60 DUP5 DUP7 SUB SLT ISZERO PUSH2 0x5A5E JUMPI PUSH1 0x0 DUP1 REVERT JUMPDEST DUP4 MLOAD PUSH2 0x5A69 DUP2 PUSH2 0x62C6 JUMP JUMPDEST PUSH1 0x20 DUP6 ADD MLOAD SWAP1 SWAP4 POP PUSH8 0xFFFFFFFFFFFFFFFF DUP2 GT ISZERO PUSH2 0x5A86 JUMPI PUSH1 0x0 DUP1 REVERT JUMPDEST DUP5 ADD PUSH1 0x1F DUP2 ADD DUP7 SGT PUSH2 0x5A97 JUMPI PUSH1 0x0 DUP1 REVERT JUMPDEST DUP1 MLOAD PUSH2 0x5AA5 PUSH2 0x58BA DUP3 PUSH2 0x618B JUMP JUMPDEST DUP2 DUP2 MSTORE DUP8 PUSH1 0x20 DUP4 DUP6 ADD ADD GT ISZERO PUSH2 0x5ABA JUMPI PUSH1 0x0 DUP1 REVERT JUMPDEST PUSH2 0x5ACB DUP3 PUSH1 0x20 DUP4 ADD PUSH1 0x20 DUP7 ADD PUSH2 0x61B3 JUMP JUMPDEST DUP1 SWAP5 POP POP POP POP PUSH1 0x40 DUP5 ADD MLOAD PUSH2 0x5ADF DUP2 PUSH2 0x62B1 JUMP JUMPDEST DUP1 SWAP2 POP POP SWAP3 POP SWAP3 POP SWAP3 JUMP JUMPDEST PUSH1 0x0 PUSH1 0x20 DUP3 DUP5 SUB SLT ISZERO PUSH2 0x5AFC JUMPI PUSH1 0x0 DUP1 REVERT JUMPDEST PUSH2 0x5922 DUP3 PUSH2 0x5887 JUMP JUMPDEST PUSH1 0x0 DUP1 PUSH1 0x40 DUP4 DUP6 SUB SLT ISZERO PUSH2 0x5B18 JUMPI PUSH1 0x0 DUP1 REVERT JUMPDEST PUSH2 0x5B21 DUP4 PUSH2 0x5887 JUMP JUMPDEST SWAP2 POP PUSH1 0x20 DUP4 ADD CALLDATALOAD PUSH8 0xFFFFFFFFFFFFFFFF DUP2 GT ISZERO PUSH2 0x5B3D JUMPI PUSH1 0x0 DUP1 REVERT JUMPDEST PUSH2 0x5B49 DUP6 DUP3 DUP7 ADD PUSH2 0x589B JUMP JUMPDEST SWAP2 POP POP SWAP3 POP SWAP3 SWAP1 POP JUMP JUMPDEST PUSH1 0x0 PUSH1 0x20 DUP3 DUP5 SUB SLT ISZERO PUSH2 0x5B65 JUMPI PUSH1 0x0 DUP1 REVERT JUMPDEST DUP2 CALLDATALOAD PUSH8 0xFFFFFFFFFFFFFFFF DUP2 GT ISZERO PUSH2 0x5B7C JUMPI PUSH1 0x0 DUP1 REVERT JUMPDEST PUSH2 0x5B88 DUP5 DUP3 DUP6 ADD PUSH2 0x589B JUMP JUMPDEST SWAP5 SWAP4 POP POP POP POP JUMP JUMPDEST PUSH1 0x0 DUP1 PUSH1 0x40 DUP4 DUP6 SUB SLT ISZERO PUSH2 0x5BA3 JUMPI PUSH1 0x0 DUP1 REVERT JUMPDEST DUP3 CALLDATALOAD PUSH8 0xFFFFFFFFFFFFFFFF DUP2 GT ISZERO PUSH2 0x5BBA JUMPI PUSH1 0x0 DUP1 REVERT JUMPDEST PUSH2 0x5BC6 DUP6 DUP3 DUP7 ADD PUSH2 0x589B JUMP JUMPDEST SWAP3 POP POP PUSH1 0x20 DUP4 ADD CALLDATALOAD PUSH2 0x5BD7 DUP2 PUSH2 0x62B1 JUMP JUMPDEST DUP1 SWAP2 POP POP SWAP3 POP SWAP3 SWAP1 POP JUMP JUMPDEST PUSH1 0x0 DUP1 PUSH1 0x0 PUSH1 0x60 DUP5 DUP7 SUB SLT ISZERO PUSH2 0x5BF7 JUMPI PUSH1 0x0 DUP1 REVERT JUMPDEST DUP4 CALLDATALOAD PUSH8 0xFFFFFFFFFFFFFFFF DUP1 DUP3 GT ISZERO PUSH2 0x5C0F JUMPI PUSH1 0x0 DUP1 REVERT JUMPDEST PUSH2 0x5C1B DUP8 DUP4 DUP9 ADD PUSH2 0x589B JUMP JUMPDEST SWAP5 POP PUSH1 0x20 DUP7 ADD CALLDATALOAD SWAP2 POP DUP1 DUP3 GT ISZERO PUSH2 0x5C31 JUMPI PUSH1 0x0 DUP1 REVERT JUMPDEST PUSH2 0x5C3D DUP8 DUP4 DUP9 ADD PUSH2 0x589B JUMP JUMPDEST SWAP4 POP PUSH1 0x40 DUP7 ADD CALLDATALOAD SWAP2 POP DUP1 DUP3 GT ISZERO PUSH2 0x5C53 JUMPI PUSH1 0x0 DUP1 REVERT JUMPDEST POP PUSH2 0x597F DUP7 DUP3 DUP8 ADD PUSH2 0x589B JUMP JUMPDEST PUSH1 0x0 DUP1 PUSH1 0x0 DUP1 PUSH1 0x80 DUP6 DUP8 SUB SLT ISZERO PUSH2 0x5C76 JUMPI PUSH1 0x0 DUP1 REVERT JUMPDEST DUP5 CALLDATALOAD PUSH8 0xFFFFFFFFFFFFFFFF DUP1 DUP3 GT ISZERO PUSH2 0x5C8E JUMPI PUSH1 0x0 DUP1 REVERT JUMPDEST PUSH2 0x5C9A DUP9 DUP4 DUP10 ADD PUSH2 0x589B JUMP JUMPDEST SWAP6 POP PUSH1 0x20 DUP8 ADD CALLDATALOAD SWAP2 POP DUP1 DUP3 GT ISZERO PUSH2 0x5CB0 JUMPI PUSH1 0x0 DUP1 REVERT JUMPDEST POP PUSH2 0x5CBD DUP8 DUP3 DUP9 ADD PUSH2 0x589B JUMP JUMPDEST SWAP4 POP POP PUSH1 0x40 DUP6 ADD CALLDATALOAD PUSH1 0xFF DUP2 AND DUP2 EQ PUSH2 0x5CD4 JUMPI PUSH1 0x0 DUP1 REVERT JUMPDEST SWAP2 POP PUSH2 0x5CE2 PUSH1 0x60 DUP7 ADD PUSH2 0x58F1 JUMP JUMPDEST SWAP1 POP SWAP3 SWAP6 SWAP2 SWAP5 POP SWAP3 POP JUMP JUMPDEST PUSH1 0x0 PUSH1 0x20 DUP3 DUP5 SUB SLT ISZERO PUSH2 0x5CFF JUMPI PUSH1 0x0 DUP1 REVERT JUMPDEST POP CALLDATALOAD SWAP2 SWAP1 POP JUMP JUMPDEST PUSH1 0x0 PUSH1 0x20 DUP3 DUP5 SUB SLT ISZERO PUSH2 0x5D18 JUMPI PUSH1 0x0 DUP1 REVERT JUMPDEST PUSH2 0x5922 DUP3 PUSH2 0x58F1 JUMP JUMPDEST PUSH1 0x0 DUP1 PUSH1 0x40 DUP4 DUP6 SUB SLT ISZERO PUSH2 0x5D34 JUMPI PUSH1 0x0 DUP1 REVERT JUMPDEST PUSH2 0x5D3D DUP4 PUSH2 0x58F1 JUMP JUMPDEST SWAP2 POP PUSH1 0x20 DUP4 ADD CALLDATALOAD PUSH2 0x5BD7 DUP2 PUSH2 0x62C6 JUMP JUMPDEST PUSH1 0x0 DUP2 MLOAD DUP1 DUP5 MSTORE PUSH1 0x20 DUP1 DUP6 ADD SWAP5 POP DUP1 DUP5 ADD PUSH1 0x0 JUMPDEST DUP4 DUP2 LT ISZERO PUSH2 0x5D86 JUMPI DUP2 MLOAD PUSH1 0x1 PUSH1 0x1 PUSH1 0xA0 SHL SUB AND DUP8 MSTORE SWAP6 DUP3 ADD SWAP6 SWAP1 DUP3 ADD SWAP1 PUSH1 0x1 ADD PUSH2 0x5D61 JUMP JUMPDEST POP SWAP5 SWAP6 SWAP5 POP POP POP POP POP JUMP JUMPDEST PUSH1 0x0 DUP2 MLOAD DUP1 DUP5 MSTORE PUSH1 0x20 DUP1 DUP6 ADD SWAP5 POP DUP1 DUP5 ADD PUSH1 0x0 JUMPDEST DUP4 DUP2 LT ISZERO PUSH2 0x5D86 JUMPI DUP2 MLOAD PUSH4 0xFFFFFFFF AND DUP8 MSTORE SWAP6 DUP3 ADD SWAP6 SWAP1 DUP3 ADD SWAP1 PUSH1 0x1 ADD PUSH2 0x5DA5 JUMP JUMPDEST PUSH1 0x6 DUP2 LT PUSH2 0x5DE5 JUMPI PUSH4 0x4E487B71 PUSH1 0xE0 SHL PUSH1 0x0 MSTORE PUSH1 0x21 PUSH1 0x4 MSTORE PUSH1 0x24 PUSH1 0x0 REVERT JUMPDEST SWAP1 MSTORE JUMP JUMPDEST PUSH1 0x0 DUP2 MLOAD DUP1 DUP5 MSTORE PUSH2 0x5E01 DUP2 PUSH1 0x20 DUP7 ADD PUSH1 0x20 DUP7 ADD PUSH2 0x61B3 JUMP JUMPDEST PUSH1 0x1F ADD PUSH1 0x1F NOT AND SWAP3 SWAP1 SWAP3 ADD PUSH1 0x20 ADD SWAP3 SWAP2 POP POP JUMP JUMPDEST PUSH1 0x0 DUP3 MLOAD PUSH2 0x5E27 DUP2 DUP5 PUSH1 0x20 DUP8 ADD PUSH2 0x61B3 JUMP JUMPDEST SWAP2 SWAP1 SWAP2 ADD SWAP3 SWAP2 POP POP JUMP JUMPDEST PUSH1 0x0 DUP1 DUP4 SLOAD DUP2 PUSH1 0x1 DUP3 DUP2 SHR SWAP2 POP DUP1 DUP4 AND DUP1 PUSH2 0x5E4D JUMPI PUSH1 0x7F DUP4 AND SWAP3 POP JUMPDEST PUSH1 0x20 DUP1 DUP5 LT DUP3 EQ ISZERO PUSH2 0x5E6D JUMPI PUSH4 0x4E487B71 PUSH1 0xE0 SHL DUP7 MSTORE PUSH1 0x22 PUSH1 0x4 MSTORE PUSH1 0x24 DUP7 REVERT JUMPDEST DUP2 DUP1 ISZERO PUSH2 0x5E81 JUMPI PUSH1 0x1 DUP2 EQ PUSH2 0x5E92 JUMPI PUSH2 0x5EBF JUMP JUMPDEST PUSH1 0xFF NOT DUP7 AND DUP10 MSTORE DUP5 DUP10 ADD SWAP7 POP PUSH2 0x5EBF JUMP JUMPDEST PUSH1 0x0 DUP11 DUP2 MSTORE PUSH1 0x20 SWAP1 KECCAK256 PUSH1 0x0 JUMPDEST DUP7 DUP2 LT ISZERO PUSH2 0x5EB7 JUMPI DUP2 SLOAD DUP12 DUP3 ADD MSTORE SWAP1 DUP6 ADD SWAP1 DUP4 ADD PUSH2 0x5E9E JUMP JUMPDEST POP POP DUP5 DUP10 ADD SWAP7 POP JUMPDEST POP SWAP5 SWAP9 SWAP8 POP POP POP POP POP POP POP POP JUMP JUMPDEST PUSH1 0x1 PUSH1 0x1 PUSH1 0xA0 SHL SUB DUP5 AND DUP2 MSTORE PUSH2 0x5EE6 PUSH1 0x20 DUP3 ADD DUP5 PUSH2 0x5DC7 JUMP JUMPDEST PUSH1 0x60 PUSH1 0x40 DUP3 ADD MSTORE PUSH1 0x0 PUSH2 0x5EFC PUSH1 0x60 DUP4 ADD DUP5 PUSH2 0x5DE9 JUMP JUMPDEST SWAP6 SWAP5 POP POP POP POP POP JUMP JUMPDEST PUSH1 0x20 DUP2 MSTORE PUSH1 0x0 PUSH2 0x5922 PUSH1 0x20 DUP4 ADD DUP5 PUSH2 0x5D4D JUMP JUMPDEST PUSH1 0x0 PUSH1 0x20 DUP1 DUP4 ADD DUP2 DUP5 MSTORE DUP1 DUP6 MLOAD DUP1 DUP4 MSTORE PUSH1 0x40 DUP7 ADD SWAP2 POP PUSH1 0x40 DUP2 PUSH1 0x5 SHL DUP8 ADD ADD SWAP3 POP DUP4 DUP8 ADD PUSH1 0x0 JUMPDEST DUP3 DUP2 LT ISZERO PUSH2 0x5F6D JUMPI PUSH1 0x3F NOT DUP9 DUP7 SUB ADD DUP5 MSTORE PUSH2 0x5F5B DUP6 DUP4 MLOAD PUSH2 0x5DE9 JUMP JUMPDEST SWAP5 POP SWAP3 DUP6 ADD SWAP3 SWAP1 DUP6 ADD SWAP1 PUSH1 0x1 ADD PUSH2 0x5F3F JUMP JUMPDEST POP SWAP3 SWAP8 SWAP7 POP POP POP POP POP POP POP JUMP JUMPDEST PUSH1 0x20 DUP2 MSTORE PUSH1 0x0 PUSH2 0x5922 PUSH1 0x20 DUP4 ADD DUP5 PUSH2 0x5D91 JUMP JUMPDEST DUP10 ISZERO ISZERO DUP2 MSTORE PUSH1 0x1 PUSH1 0x1 PUSH1 0xA0 SHL SUB DUP10 AND PUSH1 0x20 DUP3 ADD MSTORE PUSH2 0x120 PUSH1 0x40 DUP3 ADD DUP2 SWAP1 MSTORE PUSH1 0x0 SWAP1 PUSH2 0x5FBA DUP4 DUP3 ADD DUP12 PUSH2 0x5DE9 JUMP JUMPDEST SWAP1 POP DUP3 DUP2 SUB PUSH1 0x60 DUP5 ADD MSTORE PUSH2 0x5FCE DUP2 DUP11 PUSH2 0x5DE9 JUMP JUMPDEST SWAP1 POP PUSH4 0xFFFFFFFF DUP9 AND PUSH1 0x80 DUP5 ADD MSTORE DUP3 DUP2 SUB PUSH1 0xA0 DUP5 ADD MSTORE PUSH2 0x5FEE DUP2 DUP9 PUSH2 0x5D91 JUMP JUMPDEST SWAP1 POP PUSH1 0xFF DUP7 AND PUSH1 0xC0 DUP5 ADD MSTORE DUP3 DUP2 SUB PUSH1 0xE0 DUP5 ADD MSTORE PUSH2 0x600B DUP2 DUP7 PUSH2 0x5D4D JUMP JUMPDEST SWAP1 POP DUP3 DUP2 SUB PUSH2 0x100 DUP5 ADD MSTORE PUSH2 0x6020 DUP2 DUP6 PUSH2 0x5D4D JUMP JUMPDEST SWAP13 SWAP12 POP POP POP POP POP POP POP POP POP POP POP POP JUMP JUMPDEST DUP3 ISZERO ISZERO DUP2 MSTORE PUSH1 0x40 PUSH1 0x20 DUP3 ADD MSTORE PUSH1 0x0 PUSH2 0x5B88 PUSH1 0x40 DUP4 ADD DUP5 PUSH2 0x5D91 JUMP JUMPDEST DUP4 ISZERO ISZERO DUP2 MSTORE PUSH2 0x5EE6 PUSH1 0x20 DUP3 ADD DUP5 PUSH2 0x5DC7 JUMP JUMPDEST DUP4 ISZERO ISZERO DUP2 MSTORE PUSH1 0x60 PUSH1 0x20 DUP3 ADD MSTORE PUSH1 0x0 PUSH2 0x6078 PUSH1 0x60 DUP4 ADD DUP6 PUSH2 0x5DE9 JUMP JUMPDEST SWAP1 POP PUSH1 0x1 DUP1 PUSH1 0xA0 SHL SUB DUP4 AND PUSH1 0x40 DUP4 ADD MSTORE SWAP5 SWAP4 POP POP POP POP JUMP JUMPDEST DUP6 ISZERO ISZERO DUP2 MSTORE PUSH1 0xA0 PUSH1 0x20 DUP3 ADD MSTORE PUSH1 0x0 PUSH2 0x60AB PUSH1 0xA0 DUP4 ADD DUP8 PUSH2 0x5DE9 JUMP JUMPDEST DUP3 DUP2 SUB PUSH1 0x40 DUP5 ADD MSTORE PUSH2 0x60BD DUP2 DUP8 PUSH2 0x5DE9 JUMP JUMPDEST SWAP1 POP PUSH2 0x60CC PUSH1 0x60 DUP5 ADD DUP7 PUSH2 0x5DC7 JUMP JUMPDEST DUP3 DUP2 SUB PUSH1 0x80 DUP5 ADD MSTORE PUSH2 0x60DE DUP2 DUP6 PUSH2 0x5DE9 JUMP JUMPDEST SWAP9 SWAP8 POP POP POP POP POP POP POP POP JUMP JUMPDEST PUSH1 0x20 DUP2 MSTORE PUSH1 0x0 PUSH2 0x5922 PUSH1 0x20 DUP4 ADD DUP5 PUSH2 0x5DE9 JUMP JUMPDEST PUSH1 0x20 DUP1 DUP3 MSTORE PUSH1 0x3C SWAP1 DUP3 ADD MSTORE PUSH32 0x526571756972656420726F6C6520697320636173686965722C20627574207265 PUSH1 0x40 DUP3 ADD MSTORE PUSH32 0x7175697265642073686F70206973206E6F742073706563696669656400000000 PUSH1 0x60 DUP3 ADD MSTORE PUSH1 0x80 ADD SWAP1 JUMP JUMPDEST PUSH1 0x40 MLOAD PUSH1 0x1F DUP3 ADD PUSH1 0x1F NOT AND DUP2 ADD PUSH8 0xFFFFFFFFFFFFFFFF DUP2 GT DUP3 DUP3 LT OR ISZERO PUSH2 0x6183 JUMPI PUSH2 0x6183 PUSH2 0x629B JUMP JUMPDEST PUSH1 0x40 MSTORE SWAP2 SWAP1 POP JUMP JUMPDEST PUSH1 0x0 PUSH8 0xFFFFFFFFFFFFFFFF DUP3 GT ISZERO PUSH2 0x61A5 JUMPI PUSH2 0x61A5 PUSH2 0x629B JUMP JUMPDEST POP PUSH1 0x1F ADD PUSH1 0x1F NOT AND PUSH1 0x20 ADD SWAP1 JUMP JUMPDEST PUSH1 0x0 JUMPDEST DUP4 DUP2 LT ISZERO PUSH2 0x61CE JUMPI DUP2 DUP2 ADD MLOAD DUP4 DUP3 ADD MSTORE PUSH1 0x20 ADD PUSH2 0x61B6 JUMP JUMPDEST DUP4 DUP2 GT ISZERO PUSH2 0x2165 JUMPI POP POP PUSH1 0x0 SWAP2 ADD MSTORE JUMP JUMPDEST PUSH1 0x1 DUP2 DUP2 SHR SWAP1 DUP3 AND DUP1 PUSH2 0x61F3 JUMPI PUSH1 0x7F DUP3 AND SWAP2 POP JUMPDEST PUSH1 0x20 DUP3 LT DUP2 EQ ISZERO PUSH2 0x6214 JUMPI PUSH4 0x4E487B71 PUSH1 0xE0 SHL PUSH1 0x0 MSTORE PUSH1 0x22 PUSH1 0x4 MSTORE PUSH1 0x24 PUSH1 0x0 REVERT JUMPDEST POP SWAP2 SWAP1 POP JUMP JUMPDEST PUSH1 0x0 PUSH1 0x0 NOT DUP3 EQ ISZERO PUSH2 0x622E JUMPI PUSH2 0x622E PUSH2 0x6259 JUMP JUMPDEST POP PUSH1 0x1 ADD SWAP1 JUMP JUMPDEST PUSH1 0x0 PUSH4 0xFFFFFFFF DUP1 DUP4 AND DUP2 DUP2 EQ ISZERO PUSH2 0x624F JUMPI PUSH2 0x624F PUSH2 0x6259 JUMP JUMPDEST PUSH1 0x1 ADD SWAP4 SWAP3 POP POP POP JUMP JUMPDEST PUSH4 0x4E487B71 PUSH1 0xE0 SHL PUSH1 0x0 MSTORE PUSH1 0x11 PUSH1 0x4 MSTORE PUSH1 0x24 PUSH1 0x0 REVERT JUMPDEST PUSH4 0x4E487B71 PUSH1 0xE0 SHL PUSH1 0x0 MSTORE PUSH1 0x21 PUSH1 0x4 MSTORE PUSH1 0x24 PUSH1 0x0 REVERT JUMPDEST PUSH4 0x4E487B71 PUSH1 0xE0 SHL PUSH1 0x0 MSTORE PUSH1 0x32 PUSH1 0x4 MSTORE PUSH1 0x24 PUSH1 0x0 REVERT JUMPDEST PUSH4 0x4E487B71 PUSH1 0xE0 SHL PUSH1 0x0 MSTORE PUSH1 0x41 PUSH1 0x4 MSTORE PUSH1 0x24 PUSH1 0x0 REVERT JUMPDEST PUSH1 0x1 PUSH1 0x1 PUSH1 0xA0 SHL SUB DUP2 AND DUP2 EQ PUSH2 0x586F JUMPI PUSH1 0x0 DUP1 REVERT JUMPDEST DUP1 ISZERO ISZERO DUP2 EQ PUSH2 0x586F JUMPI PUSH1 0x0 DUP1 REVERT INVALID MSIZE PUSH16 0x7520617265206E6F74207065726D6974 PUSH21 0x656420746F20657865637574652074686973206F70 PUSH6 0x726174696F6E LOG2 PUSH5 0x6970667358 0x22 SLT KECCAK256 0xDC SDIV PUSH9 0xA644AC0D17970A9778 ISZERO DUP2 0xD7 SWAP9 0xEE 0xD PUSH31 0x209B45359FF8F45E77926FA4C664736F6C63430008070033405787FA12A823 0xE0 CALLCODE 0xB7 PUSH4 0x1CC41B3B 0xA8 DUP3 DUP12 CALLER 0x21 0xCA DUP2 GT GT STATICCALL PUSH22 0xCD3AA3BB5ACE7D4E3EEC80026719639ED4DBA68916EB SWAP5 0xC7 LOG4 SWAP11 SDIV RETURNDATACOPY SDIV 0xC8 0xF9 JUMPI DUP16 0xE4 0xE5 LOG3 0xD7 0xEA DUP11 CALLDATALOAD 0xAC 0xFB 0xC1 0x5F 0xF8 BYTE CODECOPY 0xAE PUSH30 0x344FD709F28E8600B4AA8C65C6B64BFE7FE36BD19BA03AB19B866FC585B5 0xCB XOR SLT LOG2 0xF6 EXTCODECOPY 0xA8 PUSH2 0xE7E7 PUSH5 0x3EE5D43FD7 LT PUSH12 0x623725FD6700000000000000 "
		},
		"gasEstimates": {
			"creation": {
				"codeDepositCost": "5080200",
				"executionCost": "infinite",
				"totalCost": "infinite"
			},
			"external": {
				"approveElevationRequest(address)": "infinite",
				"approveMoneyRequest(string)": "infinite",
				"authenticateUser(string,string,string)": "infinite",
				"cancelElevationRequest()": "infinite",
				"cancelMoneyRequest()": "infinite",
				"changeMaxRole(address,uint8,string)": "infinite",
				"changeRole(uint8)": "infinite",
				"deleteShop(string)": "infinite",
				"getElevateRequest(address)": "infinite",
				"getElevateRequests()": "infinite",
				"getMoneyRequest(string)": "infinite",
				"getMoneyRequests()": "infinite",
				"getReview(uint32)": "infinite",
				"getShopByCity(string)": "infinite",
				"getShopByOwnerAddress(address)": "infinite",
				"getShopReviews(string)": "infinite",
				"getShops()": "infinite",
				"getUser(address)": "infinite",
				"getUserAddress(string)": "infinite",
				"getUserLogins()": "infinite",
				"getUserReviews(address)": "infinite",
				"newElevateRequest(uint8,string)": "infinite",
				"newMoneyRequest(uint256)": "infinite",
				"newReview(string,string,uint8,uint32)": "infinite",
				"newShop(string,address)": "infinite",
				"newUser(address,string,string,string,string)": "infinite",
				"rateReview(uint32,bool)": "infinite"
			},
			"internal": {
				"compareStrings(string memory,string memory)": "infinite",
				"deleteMoneyRequest(string memory)": "infinite",
				"deleteRateFromReview(uint32)": "infinite"
			}
		},
		"methodIdentifiers": {
			"approveElevationRequest(address)": "e8e1d463",
			"approveMoneyRequest(string)": "6e9d7adb",
			"authenticateUser(string,string,string)": "2ac5cba0",
			"cancelElevationRequest()": "9e36abd9",
			"cancelMoneyRequest()": "961a9a13",
			"changeMaxRole(address,uint8,string)": "137a8530",
			"changeRole(uint8)": "55dea0b3",
			"deleteShop(string)": "60b9faa5",
			"getElevateRequest(address)": "a68f7ff6",
			"getElevateRequests()": "63386bbe",
			"getMoneyRequest(string)": "d20259fe",
			"getMoneyRequests()": "f8187268",
			"getReview(uint32)": "9b7e033a",
			"getShopByCity(string)": "d569b30c",
			"getShopByOwnerAddress(address)": "edf9261f",
			"getShopReviews(string)": "3c0e9aa9",
			"getShops()": "570b98e2",
			"getUser(address)": "6f77926b",
			"getUserAddress(string)": "4985e85c",
			"getUserLogins()": "9ddedcdc",
			"getUserReviews(address)": "18d0e8b2",
			"newElevateRequest(uint8,string)": "41180da1",
			"newMoneyRequest(uint256)": "bfa5a902",
			"newReview(string,string,uint8,uint32)": "8f7ab8e1",
			"newShop(string,address)": "f6e60d5b",
			"newUser(address,string,string,string,string)": "83221a11",
			"rateReview(uint32,bool)": "8638a7a4"
		}
	},
	"abi": [
		{
			"inputs": [],
			"stateMutability": "nonpayable",
			"type": "constructor"
		},
		{
			"inputs": [
				{
					"internalType": "address",
					"name": "requestAuthor",
					"type": "address"
				}
			],
			"name": "approveElevationRequest",
			"outputs": [],
			"stateMutability": "nonpayable",
			"type": "function"
		},
		{
			"inputs": [
				{
					"internalType": "string",
					"name": "shopCity",
					"type": "string"
				}
			],
			"name": "approveMoneyRequest",
			"outputs": [],
			"stateMutability": "payable",
			"type": "function"
		},
		{
			"inputs": [
				{
					"internalType": "string",
					"name": "username",
					"type": "string"
				},
				{
					"internalType": "string",
					"name": "password",
					"type": "string"
				},
				{
					"internalType": "string",
					"name": "secret",
					"type": "string"
				}
			],
			"name": "authenticateUser",
			"outputs": [
				{
					"internalType": "string",
					"name": "loginAuthenticated",
					"type": "string"
				}
			],
			"stateMutability": "view",
			"type": "function"
		},
		{
			"inputs": [],
			"name": "cancelElevationRequest",
			"outputs": [],
			"stateMutability": "nonpayable",
			"type": "function"
		},
		{
			"inputs": [],
			"name": "cancelMoneyRequest",
			"outputs": [],
			"stateMutability": "nonpayable",
			"type": "function"
		},
		{
			"inputs": [
				{
					"internalType": "address",
					"name": "user",
					"type": "address"
				},
				{
					"internalType": "enum ShopManager.Role",
					"name": "requiredRole",
					"type": "uint8"
				},
				{
					"internalType": "string",
					"name": "requiredShop",
					"type": "string"
				}
			],
			"name": "changeMaxRole",
			"outputs": [],
			"stateMutability": "nonpayable",
			"type": "function"
		},
		{
			"inputs": [
				{
					"internalType": "enum ShopManager.Role",
					"name": "role",
					"type": "uint8"
				}
			],
			"name": "changeRole",
			"outputs": [],
			"stateMutability": "nonpayable",
			"type": "function"
		},
		{
			"inputs": [
				{
					"internalType": "string",
					"name": "city",
					"type": "string"
				}
			],
			"name": "deleteShop",
			"outputs": [],
			"stateMutability": "nonpayable",
			"type": "function"
		},
		{
			"inputs": [
				{
					"internalType": "address",
					"name": "sender",
					"type": "address"
				}
			],
			"name": "getElevateRequest",
			"outputs": [
				{
					"internalType": "bool",
					"name": "exists",
					"type": "bool"
				},
				{
					"internalType": "enum ShopManager.Role",
					"name": "requiredRole",
					"type": "uint8"
				},
				{
					"internalType": "string",
					"name": "requiredShop",
					"type": "string"
				}
			],
			"stateMutability": "view",
			"type": "function"
		},
		{
			"inputs": [],
			"name": "getElevateRequests",
			"outputs": [
				{
					"internalType": "address[]",
					"name": "requesters",
					"type": "address[]"
				}
			],
			"stateMutability": "view",
			"type": "function"
		},
		{
			"inputs": [
				{
					"internalType": "string",
					"name": "shopCity",
					"type": "string"
				}
			],
			"name": "getMoneyRequest",
			"outputs": [
				{
					"internalType": "bool",
					"name": "exists",
					"type": "bool"
				},
				{
					"internalType": "address",
					"name": "sender",
					"type": "address"
				},
				{
					"internalType": "uint256",
					"name": "count",
					"type": "uint256"
				}
			],
			"stateMutability": "view",
			"type": "function"
		},
		{
			"inputs": [],
			"name": "getMoneyRequests",
			"outputs": [
				{
					"internalType": "string[]",
					"name": "moneyRequesters",
					"type": "string[]"
				}
			],
			"stateMutability": "view",
			"type": "function"
		},
		{
			"inputs": [
				{
					"internalType": "uint32",
					"name": "reviewId",
					"type": "uint32"
				}
			],
			"name": "getReview",
			"outputs": [
				{
					"internalType": "bool",
					"name": "exists",
					"type": "bool"
				},
				{
					"internalType": "address",
					"name": "sender",
					"type": "address"
				},
				{
					"internalType": "string",
					"name": "shop",
					"type": "string"
				},
				{
					"internalType": "string",
					"name": "content",
					"type": "string"
				},
				{
					"internalType": "uint32",
					"name": "answer",
					"type": "uint32"
				},
				{
					"internalType": "uint32[]",
					"name": "answers",
					"type": "uint32[]"
				},
				{
					"internalType": "uint8",
					"name": "rate",
					"type": "uint8"
				},
				{
					"internalType": "address[]",
					"name": "likes",
					"type": "address[]"
				},
				{
					"internalType": "address[]",
					"name": "dislikes",
					"type": "address[]"
				}
			],
			"stateMutability": "view",
			"type": "function"
		},
		{
			"inputs": [
				{
					"internalType": "string",
					"name": "city",
					"type": "string"
				}
			],
			"name": "getShopByCity",
			"outputs": [
				{
					"internalType": "bool",
					"name": "exists",
					"type": "bool"
				},
				{
					"internalType": "string",
					"name": "shopCity",
					"type": "string"
				},
				{
					"internalType": "address",
					"name": "shopOwner",
					"type": "address"
				}
			],
			"stateMutability": "view",
			"type": "function"
		},
		{
			"inputs": [
				{
					"internalType": "address",
					"name": "owner",
					"type": "address"
				}
			],
			"name": "getShopByOwnerAddress",
			"outputs": [
				{
					"internalType": "bool",
					"name": "exists",
					"type": "bool"
				},
				{
					"internalType": "string",
					"name": "shopCity",
					"type": "string"
				},
				{
					"internalType": "address",
					"name": "shopOwner",
					"type": "address"
				}
			],
			"stateMutability": "view",
			"type": "function"
		},
		{
			"inputs": [
				{
					"internalType": "string",
					"name": "city",
					"type": "string"
				}
			],
			"name": "getShopReviews",
			"outputs": [
				{
					"internalType": "uint32[]",
					"name": "reviewIds",
					"type": "uint32[]"
				}
			],
			"stateMutability": "view",
			"type": "function"
		},
		{
			"inputs": [],
			"name": "getShops",
			"outputs": [
				{
					"internalType": "string[]",
					"name": "shopCities",
					"type": "string[]"
				}
			],
			"stateMutability": "view",
			"type": "function"
		},
		{
			"inputs": [
				{
					"internalType": "address",
					"name": "addr",
					"type": "address"
				}
			],
			"name": "getUser",
			"outputs": [
				{
					"internalType": "bool",
					"name": "exists",
					"type": "bool"
				},
				{
					"internalType": "string",
					"name": "username",
					"type": "string"
				},
				{
					"internalType": "string",
					"name": "fullName",
					"type": "string"
				},
				{
					"internalType": "enum ShopManager.Role",
					"name": "role",
					"type": "uint8"
				},
				{
					"internalType": "string",
					"name": "shop",
					"type": "string"
				}
			],
			"stateMutability": "view",
			"type": "function"
		},
		{
			"inputs": [
				{
					"internalType": "string",
					"name": "login",
					"type": "string"
				}
			],
			"name": "getUserAddress",
			"outputs": [
				{
					"internalType": "address",
					"name": "userAddress",
					"type": "address"
				}
			],
			"stateMutability": "view",
			"type": "function"
		},
		{
			"inputs": [],
			"name": "getUserLogins",
			"outputs": [
				{
					"internalType": "string[]",
					"name": "usernames",
					"type": "string[]"
				}
			],
			"stateMutability": "view",
			"type": "function"
		},
		{
			"inputs": [
				{
					"internalType": "address",
					"name": "userAddress",
					"type": "address"
				}
			],
			"name": "getUserReviews",
			"outputs": [
				{
					"internalType": "bool",
					"name": "exists",
					"type": "bool"
				},
				{
					"internalType": "uint32[]",
					"name": "reviewIds",
					"type": "uint32[]"
				}
			],
			"stateMutability": "view",
			"type": "function"
		},
		{
			"inputs": [
				{
					"internalType": "enum ShopManager.Role",
					"name": "requiredRole",
					"type": "uint8"
				},
				{
					"internalType": "string",
					"name": "requiredShop",
					"type": "string"
				}
			],
			"name": "newElevateRequest",
			"outputs": [],
			"stateMutability": "nonpayable",
			"type": "function"
		},
		{
			"inputs": [
				{
					"internalType": "uint256",
					"name": "requiredSum",
					"type": "uint256"
				}
			],
			"name": "newMoneyRequest",
			"outputs": [],
			"stateMutability": "nonpayable",
			"type": "function"
		},
		{
			"inputs": [
				{
					"internalType": "string",
					"name": "shop",
					"type": "string"
				},
				{
					"internalType": "string",
					"name": "content",
					"type": "string"
				},
				{
					"internalType": "uint8",
					"name": "rate",
					"type": "uint8"
				},
				{
					"internalType": "uint32",
					"name": "answer",
					"type": "uint32"
				}
			],
			"name": "newReview",
			"outputs": [],
			"stateMutability": "nonpayable",
			"type": "function"
		},
		{
			"inputs": [
				{
					"internalType": "string",
					"name": "city",
					"type": "string"
				},
				{
					"internalType": "address",
					"name": "owner",
					"type": "address"
				}
			],
			"name": "newShop",
			"outputs": [],
			"stateMutability": "nonpayable",
			"type": "function"
		},
		{
			"inputs": [
				{
					"internalType": "address",
					"name": "addr",
					"type": "address"
				},
				{
					"internalType": "string",
					"name": "username",
					"type": "string"
				},
				{
					"internalType": "string",
					"name": "fullName",
					"type": "string"
				},
				{
					"internalType": "string",
					"name": "password",
					"type": "string"
				},
				{
					"internalType": "string",
					"name": "secret",
					"type": "string"
				}
			],
			"name": "newUser",
			"outputs": [],
			"stateMutability": "nonpayable",
			"type": "function"
		},
		{
			"inputs": [
				{
					"internalType": "uint32",
					"name": "review",
					"type": "uint32"
				},
				{
					"internalType": "bool",
					"name": "positive",
					"type": "bool"
				}
			],
			"name": "rateReview",
			"outputs": [],
			"stateMutability": "nonpayable",
			"type": "function"
		}
	]
}